:10000000A12A341E09DA281FFF000000040E061F73
:1000100008207B1F0822031F0924711FA12A341EF8
:10002000092C671F0C2EED1E0844E91E2046E31E16
:100030001684421F2186DD1E20A4721E16B0611E8A
:1000400016C0111F16CA5B1E09D64A1E89DA441E45
:1000500009E0341F08E43A1EFF0000006732000088
:10006000CE6400009DC900003A930100742603008D
:10007000E74C0600CE990C00D75C020011F003009B
:100080003443000069860000D10C0100A21902006F
:10009000453304008A6608000BA00200733000009C
:1000A000E6600000CCC10000998301003207030024
:1000B000630E0600B32201007FE401000650010038
:1000C0003697000004FC000053280000A5500000F3
:1000D0004AA100009542010029850200F87800003D
:1000E0003E4900007C920000F8240100F049020023
:1000F000E0930400C027090074B701006CDC020023
:10010000D4300000A861000050C30000A0860100A8
:10011000400D0300801A060048E80100BADB000029
:10012000366E010024F40000DD6D00001BB70000F6
:100130002A03550053004200200053006D00610067
:1001400072007400430061007200640020005200DD
:100150006500610064006500720000001203450044
:100160003700330043003200430038003400000001
:100170001003470065006D0061006C0074006F00A3
:1001800000000403090409025D00010100A019092F
:10019000040000030B0000003621010100070300EA
:1001A0000000C0120000C01200000067320000CE44
:1001B000990C0035FE000000000000000000000067
:1001C000300201000F0100000000000000010705DF
:1001D000010240000007058202400000070583037A
:1001E0000800101201000200000008E60837340081
:1001F00002010203012942FFFFFFFFFFFFFFFFFF94
:10020000FFFFFFFFFFFFFFFFFFFFFFFFFFFFFFFFFE
:10021000FFFFFFFFFFFFFFFFFFFFFFFFFFFFFFFFEE
:10022000FFFFFFFFFFFFFFFFFFFFFFFFFFFFFFFFDE
:10023000FFFFFFFFFFFFFFFF012A42096438911E05
:10024000B76FBBAE479C89B8C9B53BD0A509F74885
:1002500001CC7F6B962FBF83878651FAFFFFFFFF8C
:10026000FFFFFFFFFFFFFFFFFFFFFFFFFFFFFFFF9E
:10027000FFFFFFFFFFFFFFFFFFFFFFFF012B42FC20
:10028000FFFFFFFFFFFFFFFFFFFFFFFFFFFFFFFF7E
:10029000FFFFFFFFFFFFFFFFFFFFFFFFFFFFFFFF6E
:1002A000FFFFFFFFFFFFFFFFFFFFFFFFFFFFFFFF5E
:1002B000FFFFFFFFFFFFFFFFFFFFFFFFFFFFFFFF4E
:1002C000012C42003F506BD41F45EFF1342C3D8888
:1002D000DF733507BFB13BBDC052167B937EEC5137
:1002E000391956E109F18E9189B4B8F315B3995BC8
:1002F00072DAA2EE4085B6A0219A921F9A1C8E61F6
:10030000B93E9551002D4266BDE5C2317E7EF99B16
:10031000426A85C1B34833DEA8FFA227C11DFE286B
:1003200059E7EF775E4BA1BA3D4D6B60AF28F821DE
:10033000B53F053981649C42B4952366CB3E9ECD82
:10034000E90404B7068E85C6002E425066D19F761A
:1003500094BE8840C272A286703C356107AD3F01F1
:10036000B950C54026F45E9972EE972C663E271769
:10037000BDAF1768449B574944F598D91B7D2CB4F1
:100380005F8A5C04C03B9A786A293918012130FFE2
:10039000FFFFFF0000000000000000FFFFFFFFFE66
:1003A000FFFFFFFFFFFFFFFFFFFFFFFFFFFFFFFF5D
:1003B000FFFFFFFFFFFFFFFFFFFFFFFFFFFFFF222A
:1003C000307329C5CC6A19ECEC7AA7B048B20D1A83
:1003D00058DF2D37F4814D63C7FFFFFFFFFFFFFF9D
:1003E000FFFFFFFFFFFFFFFFFFFFFFFFFFFFFFFF1D
:1003F000FF2330FCFFFFFF0000000000000000FFB3
:10040000FFFFFFFEFFFFFFFFFFFFFFFFFFFFFFFFFD
:10041000FFFFFFFFFFFFFFFFFFFFFFFFFFFFFFFFEC
:10042000FFFFFF2430EF2AECD3EDC8852A9DD12EA3
:100430008A8D3956C65A8713508F0814031241818A
:10044000FE6E9C1D18192DF8E36B058E98E4E73EAF
:10045000E2A72F31B32530B70A7672385E543A6C72
:100460002955BF5DF20255382A5482E041F7599868
:100470009BA78B623B1D6E74AD20F31EC7B18E37F8
:10048000058BBE22CA87AA26305F0EEA907C1D43E8
:100490007A9D817E1DCEB1600AC0B8F0B51331DA05
:1004A000E97C149A28BD1DF4F829DC9292BF989E2D
:1004B0005D6F2C26964ADE17361920FFFFFFFFFFDF
:1004C000FFFFFFFFFFFFFF00000000000000000033
:1004D00000000001000000FFFFFFFF1A205125630C
:1004E000FCC2CAB9F3849E17A7ADFAE6BCFFFFFFB2
:1004F000FFFFFFFFFF00000000FFFFFFFF1B20FCCE
:10050000FFFFFFFFFFFFFFFFFFFFFF0000000000F6
:100510000000000000000001000000FFFFFFFF1CC2
:10052000204B60D2273E3CCE3BF6B053CCB0061DEC
:1005300065BC86987655BDEBB3E7933AAAD835C625
:100540005A1D2096C298D84539A1F4A033EB2D81CD
:100550007D0377F240A463E5E6BCF847422CE1F264
:10056000D1176B1E20F551BF376840B6CBCE5E3138
:100570006B5733CE2B169E0F7C4AEBE78E9B7F1A70
:10058000FEE242E34F1118FFFFFFFFFFFFFFFFFEF8
:10059000FFFFFFFFFFFFFFFFFFFFFFFFFFFFFF1258
:1005A000183128D2B4B1C96B1436F8DE99FFFFFFB9
:1005B000FFFFFFFFFFFFFFFFFF1318FCFFFFFFFF21
:1005C000FFFFFFFEFFFFFFFFFFFFFFFFFFFFFFFF3C
:1005D000FFFFFF1418B1B946C1ECDEB8FE49302464
:1005E00072ABE9A70FE7809CE51905216415181285
:1005F00010FF82FD0AFFF40088A143EB20BF7CF6C8
:100600009030B00EA88D1816181148791EA177F9F0
:1006100073D5CD246BED11106378DAC8FF952B19D3
:100620000731202FFCFFFFFEFFFFFFFFFFFFFFFF53
:10063000FFFFFFFFFFFFFFFFFFFFFFFFFFFFFFFFCA
:10064000FFFFFF3220414136D08C5ED2BF3BA04835
:10065000AFE6DCAEBAFEFFFFFFFFFFFFFFFFFFFFCD
:10066000FFFFFFFFFF33200000000000000000003C
:10067000000000000000000000000000000000007A
:10068000000000000000003420070000000000000F
:10069000000000000000000000000000000000005A
:1006A00000000000000000000035209817F8165BDD
:1006B00081F259D928CE2DDBFC9B02070B87CE9502
:1006C00062A055ACBBDCF97E66BE793620B8D4108A
:1006D000FB8FD0479C195485A648B417FDA8081174
:1006E0000EFCFBA45D65C4A32677DA3A48040F30FC
:1006F00021300906052B0E03021A0500041401140B
:100700004F7345494404050100000000000000004B
:1007100000010000020B01000F080000C0010002F0
:100720000903807901F31160A31A068F3636DF11B1
:10073000D486510EC74FEC7DCEC0D13D78E2DAE5CC
:10074000B6BB35CB745CAC8BF18E63568EE5185519
:1007500005EE86AD33B2984DB2C91A071BE915AD47
:10076000E0F6AE916E9970FD6AB194776B65505763
:100770000FB1F982FCEF76F50E08A78FFE06A23CBA
:100780007C101C024CFA697D6BB57DD8061212DF15
:10079000EF37B872BD206CBAB1620FE84BF270F857
:1007A0005FC802052A003FFF7F0000000038113FAC
:1007B000FF0200E01550FF7F0100000038111FFF0D
:1007C0000200ECA000000063504B43532D3135FF75
:1007D0000D940000FC01379687E062917181982F9B
:1007E000679577959A95E1F771838A95B1F70895A2
:1007F0009C9169276D9395F060E8C5919C2FCF700F
:10080000788194FD729596FF771F96FF771F95FF6D
:10081000771F771F679588F7815052F7089590FFEB
:1008200000D001FC0CC043FA111C10F877FA221C0E
:10083000331C441C551C661C771C44F8089544FA6C
:10084000779477F810FA67945794479437942794DD
:10085000179443F808952F923F924F925F926F92B0
:100860007F928F929F92AF92BF92CF92DF92EF9240
:10087000FF920F931F93CF93DF93042EFB01DC01B4
:100880004F3009F47096AF93BF93DD27CCE08A2FE9
:1008900018961E90111C441F111C551F1C92A8175E
:1008A000C1F75C834993C03199F7B8E09191C1E0F9
:1008B0008881991F87958993C830D1F7BA95B1F788
:1008C000EF93FF93312413243124429401FCABDFD6
:1008D00081E893E0A4DF8F939F931F922F923F9222
:1008E0004F925F926F927F92E4EAF9E086E2A1E094
:1008F00083DFEF92FF9243E089E860E27EDF7F01D1
:10090000642BECE2FAE0E60FFB1F80FF06C0507F8D
:10091000C591CF70C52BCD934A955591F7016AF7D4
:10092000A80179013F912F9186016A0183E264DF7A
:100930007F906F905F904F903F902F901F909F916E
:100940008F918695979531F6FF91EF9100FC709706
:10095000BF91AF9188E0CCE09C8197959C83661F06
:10096000988197959993661FC031B1F76D938A95D9
:1009700091F7189786E0081A08F085CFDF91CF919C
:100980001F910F91FF90EF90DF90CF90BF90AF90AD
:100990009F908F907F906F905F904F903F902F909F
:1009A000112408952C1C8C1C3D6D8C6C0D5C1F1D3E
:1009B0004D4C6D8C7D7D3C7C2D0C6E0C7C5D0D8CCE
:1009C0002F7E8C7F6E5E5F6F6F0E0F3E1E8C7F1DC5
:1009D0007E4F8C2E3F8C0F1E6C4E0E1F63112261BA
:1009E00073527153321442235403022113317201A2
:1009F0003433431225662715247677653506054777
:100A00005704267564166717555607456A0B097B08
:100A10007A0A3819493B4A784B3A396869282B1BBE
:100A2000591A18486B08295A585B792A4D2CA7EF98
:100A3000B2C10D41284A9ED8E41FE31EF679602614
:100A40000FA236FB8BB6F9B3D1685A843A801139BC
:100A5000C95DD2A79333C8627EF475CD55DEBB5C09
:100A6000A0074C906CE52405179B8F7AD1EADD0333
:100A70000FBF78FDBD240B7478C295474A4736EF07
:100A8000937C4F2217D960D8A415A31EEC5624AC32
:100A90003501876056FD52C1CBAEECBA2030C1960D
:100AA000FE9BBA598983FE3B626819851749DA4073
:100AB0004B2E661EB41F49E7D1B5908BC9A28CDAC4
:100AC0003CD8FB647E7C372DE2830DB1A0F7BFF5E7
:100AD000F69011C86AC4239C8D5ACE760F615539A1
:100AE000533DA2A3950BE85228E6740F62B413FDA0
:100AF000B183AFC8DEC2D08A877C062114196A434D
:100B00004AE5919FA82F8D147DDA78729F6B495B1F
:100B10005CFEF4B60901E537F0973BECE3A6BCA018
:100B2000254057053658226ECB3DCED9BF01F8017E
:100B3000E80FF11D8081FB01089540E18881F6DF17
:100B400089934150D9F76097089540E18881EEDF9D
:100B500089934150D9F7F7CF89819D8199839985F0
:100B60009D839D8599878D878B819F859B839B85A1
:100B70009F879F819B878F8310C089819D859983E3
:100B800099859D879D8199878D838B819F819B838B
:100B90009B859F839F859B878F878A819A859A8370
:100BA0008A878E859E819E878E83089524E09BE1AF
:100BB00018D0BA2F1FD0E1F7C6CF24E09BE111D0A7
:100BC000AF938A2F32D0B82F842786272DD0A8271D
:100BD000B527B7278B2F28D0BF91B8270BD079F72F
:100BE000B2CF488159816A817B81A72FA627A5278B
:100BF000A4270895842F852718D08A2784278993CE
:100C0000852F862712D08B2785278993862F8727C4
:100C10000CD08A2786278993842F872706D08B2795
:100C2000872789932A95089500D0880F08F489278B
:100C30000895B09740E181919881982799934A95BA
:100C4000D1F781CF00D000D0550F511D85270895D1
:100C500020FB0F931F93CF93DF93EC01FEB7F3506C
:100C6000FEBFEDB731969F018F011395002481E0FF
:100C70009BE18193D801A80FB11D0C92582FD5DFAD
:100C800085270394B1F7882793E6582FDBDF892760
:100C9000D901BE5FA80FB11D0C9281938081809510
:100CA000D901A80FB11D8C91039479F7F901242F74
:100CB000DB01BF010D9001924A95E1F731E0022E70
:100CC000DB013497818132DF9D91982793279483AC
:100CD00082812CDF9D9198279583838127DF9D91C9
:100CE00098279683808122DF9D9198279783349659
:100CF0007CE023FD74E18D919191982793837A95FF
:100D0000D1F725FF0AC040E181914D3008F00EDF98
:100D10009D91982793834A95B9F74BE1330F08F4D7
:100D20003427020E19F0402D4F3E60F2F801FA957B
:100D3000422F469546954B5F342F56F07BDFFDDE04
:100D40000BDF315018F032DF75DFF9CF73DF0FC0E2
:100D50001395432F4D5F70964A95E9F76ADF0DDFD3
:100D6000F4DE315018F065DF28DFF9CF62DFFEB71F
:100D7000FD5FFEBFDF91CF911F910F9108952F92DC
:100D80003F924F925F926F927F928F929F92AF921B
:100D9000BF92CF92DF92EF92FF920F931F93CF9368
:100DA000DF93ADB7BEB7A458B109ADBFBEBF1196B2
:100DB0006D937D938D939D93FC01EB0198E0881BCF
:100DC000099019902990399049905990699079909B
:100DD00088AC99ACAAACBBACCCACDDACEEACFFAC97
:100DE00080019101A201B301080801921908119232
:100DF0002A0821923B0831924C0841925D08519299
:100E00006E0861927F0871928795800A80AE910A80
:100E100091AEA20AA2AEB30AB3AEC40AC4AED50A5A
:100E2000D5AEE60AE6AEF70AF7AE881F9A9541F608
:100E300080FB96F9E91BF040BF01FD01B4D1CDB7AD
:100E4000DEB7EB81FC8169817A81ADD1CDB7DEB7A8
:100E5000EB81FC81E058FF4F69817A81605C7F4FB4
:100E6000A2D1CDB7DEB7EB81FC81DE011596EF0193
:100E7000C058DF4F7E2F705C991B81909190A1909C
:100E8000B190C190D190E190F19000AC8881081EA2
:100E900011AC8981181E22AC8A81281E33AC8B814B
:100EA000381E44AC8C81481E55AC8D81581E66ACF2
:100EB0008E81681E77AC8F81781E099219922992D3
:100EC00039924992599269927992991F081C191C7A
:100ED0002A1C3B1C4C1C5D1C6E1C7F1C991F8D9199
:100EE000080A00AE8D91180A11AE8D91280A22AE23
:100EF0008D91380A33AE8D91480A44AE8D91580ACF
:100F000055AE8D91680A66AE8D91780A77AE979549
:100F100097957E13B2CF979597FBE05CFF4F991F93
:100F200078E000808990081C11809990191C22801B
:100F3000A9902A1C3380B9903B1C4480C9904C1C5A
:100F40005580D9905D1C6680E9906E1C7780F99081
:100F50007F1C991F8827081E181E281E381E481E31
:100F6000581E681E781E991F8D91080A01928D9156
:100F7000180A11928D91280A21928D91380A319286
:100F80008D91480A41928D91580A51928D91680A2B
:100F900061928D91780A7192979597957A9509F655
:100FA000991F991F000B110B1124882780F9080F36
:100FB000111D97959170091F111D8081800F8193DC
:100FC0008081811F81938081811F81938081811F16
:100FD00081938081811F81938081811F8193808192
:100FE000811F81938081811F81938081811F8193E3
:100FF0008081811F81938081811F81938081811FE6
:1010000081938081811F81938081811F8193808161
:10101000811F81938081811F81938081811F8193B2
:101020008081811F81938081811F81938081811FB5
:1010300081938081811F81938081811F8193808131
:10104000811F81938081811F81938081811F819382
:101050008081811F81938081811F81938081811F85
:1010600081938081811F81938081811F8193808101
:10107000811F81938081811F81938081811F819352
:101080008081811F81938081811F81938081811F55
:1010900081938081811F81938081811F81938081D1
:1010A000811F81938081811F81938081811F819322
:1010B0008081811F81938081811F81938081811F25
:1010C00081938081811F81938081811F81938081A1
:1010D000811F81938081811F81938081811F8193F2
:1010E0008081811F81938081811F81938081811FF5
:1010F00081938081811F81938081811F8193808171
:10110000811F81938081811F8193811E8192911E15
:101110009192A11EA192B11EB192C11EC192D11E87
:10112000D192E11EE192F11EF1921197ADBFBEBFC7
:10113000DF91CF911F910F91FF90EF90DF90CF90B3
:10114000BF90AF909F908F907F906F905F904F90E7
:101150003F902F9008952F923F924F925F926F92FF
:101160007F928F929F92AF92BF92CF92DF92EF9237
:10117000FF920F931F93CF93DF93FC0114D0DF9165
:10118000CF911F910F91FF90EF90DF90CF90BF9084
:10119000AF909F908F907F906F905F904F903F9017
:1011A0002F9011240895CDB7DEB7C454D040CDBFE1
:1011B000DEBF69837A83EB83FC83EB0194E0881BB9
:1011C0000990199029903990499059906990799097
:1011D000888C998CAA8CBB8CCC8CDD8CEE8CFF8C93
:1011E00080019101A201B301080819082A083B08EF
:1011F0004C085D086E087F0801921192219231928D
:1012000041925192619271928795800A910AA20A45
:10121000B30AC40AD50AE60AF70A808E918EA28E16
:10122000B38EC48ED58EE68EF78E881F9A9541F6C2
:1012300080FB95F9E91BF040EF01EDB7FEB735965D
:1012400095D2CDB7DEB7EB81FC81A981BA81ED01E2
:101250008DD2CDB7DEB7EB81FC81E05CFF4FA98179
:10126000BA819096ED0182D2EDB7FEB7DF011596F7
:10127000C381D481FE01E05CFF4F88A099A0AAA0A1
:10128000BBA0CCA0DDA0EEA0FFA008A519A52AA5B3
:101290003BA54CA55DA56EA57FA500801180228091
:1012A00033804480558066807780800C911CA21C1E
:1012B000B31CC41CD51CE61CF71C008411842284BA
:1012C00033844484558466847784001D111D221D57
:1012D000331D441D551D661D771D991F08801980FB
:1012E0002A803B804C805D806E807F80080C191CBA
:1012F0002A1C3B1C4C1C5D1C6E1C7F1C991F8D9175
:10130000081A08A28D91180A19A28D91280A2AA2FA
:101310008D91380A3BA28D91480A4CA28D91580AB2
:101320005DA28D91680A6EA28D91780A7FA2979531
:10133000088419842A843B844C845D846E847F8471
:10134000001E111E221E331E441E551E661E771ED1
:10135000991F8D91080A08A68D91180A19A68D91DA
:10136000280A2AA68D91380A3BA68D91480A4CA6D8
:101370008D91580A5DA68D91680A6EA68D91780AA6
:101380007FA69795979508A819A82AA83BA84CA8C6
:101390005DA86EA87FA88089081E008A8189181E12
:1013A000118A8289281E228A8389381E338A848979
:1013B000481E448A8589581E558A8689681E668A11
:1013C0008789781E778A991F8889081E8989181E3F
:1013D0008A89281E8B89381E8C89481E8D89581E43
:1013E0008E89681E8F89781E991F8D91080A08AA18
:1013F0008D91180A19AA8D91280A2AAA8D91380A66
:101400003BAA8D91480A4CAA8D91580A5DAA8D91EC
:10141000680A6EAA8D91780A7FAA9795979508AC6D
:1014200019AC2AAC3BAC4CAC5DAC6EAC7FAC808DE7
:10143000081E008E818D181E118E828D281E228E10
:10144000838D381E338E848D481E448E858D581EA4
:10145000558E868D681E668E878D781E778E991FB5
:10146000888D081E898D181E8A8D281E8B8D381E2A
:101470008C8D481E8D8D581E8E8D681E8F8D781E0A
:10148000991F8D91080A08AE8D91180A19AE8D9199
:10149000280A2AAE8D91380A3BAE8D91480A4CAE8F
:1014A0008D91580A5DAE8D91680A6EAE8D91780A65
:1014B0007FAE91FB9795979580A1881E81A1981E7C
:1014C00082A1A81E83A1B81E84A1C81E85A1D81E12
:1014D00086A1E81E87A1F81E991F8827881E981EDE
:1014E000A81EB81EC81ED81EE81EF81E991F8D9192
:1014F000880A80828D91980A91828D91A80AA28291
:101500008D91B80AB3828D91C80AC4828D91D80A90
:10151000D5828D91E80AE6828D91F80AF7828D9145
:10152000080B8D91180B8D91280B8D91380B8D9197
:10153000480B8D91580B8D91680B8D91780B979579
:101540008827081F181F281F381F481F581F681F8B
:10155000781F979580A4081D008791A4191D1187F5
:10156000A2A42A1D2287B3A43B1D3387C4A44C1D0B
:101570004487D5A45D1D5587E6A46E1D6687F7A434
:101580007F1D778700881188228833884488558892
:101590006688778800A9001E11A9111E22A9221EA3
:1015A00033A9331E44A9441E55A9551E66A9661EBB
:1015B00077A9771E991F8827081E181E281E381E17
:1015C000481E581E681E781E991F8D91080A008AB1
:1015D0008D91180A118A8D91280A228A8D91380AD4
:1015E000338A8D91480A448A8D91580A558A8D9183
:1015F000680A668A8D91780A778A008C118C228C11
:10160000338C448C558C668C778C8D91080A8D9127
:10161000180A8D91280A8D91380A8D91480A8D916A
:10162000580A8D91680A8C91780ACC0B9795882777
:10163000081E181E281E381E481E581E681E781EBA
:10164000979580AD081E008E01AC101C118E12AC57
:10165000211C228E23AC321C338E34AC431C448EAE
:1016600045AC541C558E56AC651C668E67AC761C1A
:10167000778E7724DC2F991F9170C91FD71D90F9A1
:10168000C90FD71D70A07C0E70A271A07D1E71A223
:1016900072A07D1E72A273A07D1E73A274A07D1E17
:1016A00074A275A07D1E75A276A07D1E76A277A07D
:1016B0007D1E77A28D1E80A69D1E91A6AD1EA2A6A0
:1016C000BD1EB3A6CD1EC4A6DD1ED5A6ED1EE6A684
:1016D000FD1EF7A60D1F00AB1D1F11AB2D1F22AB6A
:1016E0003D1F33AB4D1F44AB5D1F55AB6D1F66AB4C
:1016F0007D1F77AB8D1F80AF0D1E01AE1D1E12AE7C
:101700002D1E23AE3D1E34AE4D1E45AE5D1E56AEA3
:101710006D1E67AEADBFBEBF08952F923F924F9230
:101720005F926F927F928F929F92AF92BF92CF9271
:10173000DF92EF92FF920F931F93CF93DF93FC0101
:10174000EB0114D0DF91CF911F910F91FF90EF909B
:10175000DF90CF90BF90AF909F908F907F906F90D1
:101760005F904F903F902F901124089528803980EA
:101770004A805B806C807D808E809F809927249C2E
:101780006001239CB02CC10CD91E269C7001289CA2
:101790008001399C9001599CA001799CB001349C36
:1017A000D00CE11CF91E459CF00C011D191F369C44
:1017B000D001259CD00CE11CFA1EB91F359CE00C11
:1017C000F11CB91F569C0B0F101D211D391F299CA0
:1017D000D001279CF00C011D1A1FB91F379C000D6A
:1017E000111DB91F499C2B0F301D411D591F679CAE
:1017F000D001479C100D211D3A1FB91F579C200D89
:10180000311DB91F789C4B0F501D611D791F589CCD
:10181000D001389C100D211D3A1FB91F489C200D86
:10182000311DB91F699C4B0F501D611D791F689CAC
:10183000D001469C000D111D291F391F4A1F5B1F37
:10184000691F791F899C700D8827811DBB0CCC1CDA
:10185000DD1CEE1CFF1C001F111F221F331F441F25
:10186000551F661F771F881F991F339CD001229C2C
:101870001001449CA22CB30CCA1EDB1EE01CF11C00
:10188000991F669C1001559CD001779C2001889C73
:101890003001999C96950A1F1B1F221D331D441D64
:1018A000551D661D771D801D911DA082B182C282CB
:1018B000D382E482F58206831783288439844A849C
:1018C0005B846C847D848E849F84002730FB969596
:1018D000879577956795579547953795399C50012A
:1018E000599C6001299C7001259CD001239C300DDE
:1018F000411D5A1FB01F249C400D511DB01F279C35
:101900006B0F701D811D9E1DF01E289C800D911D6A
:10191000F01E369CD001349C500D611D7A1FB01F03
:10192000359C600D711DB01F269C600D711D8B1FB5
:10193000901FAF1CB01E569CD001459C700D811DA0
:101940009A1FB01F469C800D911DB01F679CAB0E67
:10195000B01CC11CD01E499CB00CC11CD01E699C7F
:10196000D001489C7001379C800D911DAE1CF01E6B
:10197000389C900DA11CF01E689CBF0CC01CD11C93
:10198000B01F799C7001DA0EEB1EF01E589CD0013E
:10199000479C900DA11CBA1EB01F579CA00CB11CF7
:1019A000B01F789CCB0ED01CE11CF01E899CF00C63
:1019B000011D1127330F441F551F661F771F881FF6
:1019C000991FAA1CBB1CCC1CDD1CEE1CFF1C001F9D
:1019D000111F30F9339CD001229C200D311D4A1F6C
:1019E0005B1F111F559CD001449C1795601D711DF4
:1019F0008A1F9B1F111F779CD001669C1795A01C06
:101A0000B11CCA1EDB1E111F999CD001889C169523
:101A1000E01CF11C0A1F1B1F208B318B428B538B48
:101A2000648B758B868B978BA08EB18EC28ED38E76
:101A3000E48EF58E068F178FA880B980CA80DB8070
:101A4000EC80FD800E811F81A218B308C408D50860
:101A5000E608F70808091909AA0BAA26BA26CA2611
:101A6000DA26EA26FA260A271A27AA1ABA0ACA0A78
:101A7000DA0AEA0AFA0A0A0B1A0B9927AC9C200127
:101A8000AB9C302C410C591EAE9C3001A09E4001F5
:101A9000B19E9001D19EA001F19EB001BC9C500C62
:101AA000611C791ECD9C700C811C991EBE9CD001BE
:101AB000AD9C500C611C7A1EB91FBD9C600C711C42
:101AC000B91FDE9C8B0E901C211D391FA19ED001D9
:101AD000AF9C700C811C9A1EB91FBF9C800C911C7E
:101AE000B91FC19E2B0F301D411D591FEF9CD00106
:101AF000CF9C900C211D3A1FB91FDF9C200D311D7A
:101B0000B91FF09E4B0F501D611D791FD09ED00153
:101B1000B09E900C211D3A1FB91FC09E200D311D93
:101B2000B91FE19E4B0F501D611D791FE09ED00132
:101B3000CE9C800C911C291F391F4A1F5B1F691FF7
:101B4000791F019F700D8827811D330C441C551C83
:101B5000661C771C881C991C221F331F441F551FAD
:101B6000661F771F881F991FBB9CD001AA9C50013C
:101B7000CC9C2A2C3B0C4A1E5B1E601C711C991FBE
:101B8000EE9C5001DD9CD001FF9C6001009F700124
:101B9000119F96958A1E9B1E2A1D3B1D4C1D5D1D87
:101BA0006E1D7F1D801D911DA080B180C280D380DD
:101BB000E480F58006811781A218B308C408D5080F
:101BC000E608F70808091909A7952088318842888E
:101BD0005388A20CB31CC41CD51CA086B186C28637
:101BE000D3866488758886889788E61CF71C081D4C
:101BF000191DE486F58606871787AA1F220A330A6D
:101C0000440A550A660A770A880A990A00081108E0
:101C1000A08CB18CC28CD38CE48CF58C068D178D86
:101C2000A6952A1C3B1C4C1C5D1C6E1C7F1C801E38
:101C3000911E208A318A428A538A648A758A868AEA
:101C4000978AA01CB11CC11CD11CE11CF11C011DF8
:101C5000111DA08EB18EC28ED38EE48EF58E068FAE
:101C6000178FA888B988CA88DB88EC88FD880E8918
:101C70001F899927AC9C2001AB9C302C410C591E2C
:101C8000AE9C3001A09E4001B19E9001D19EA0016A
:101C9000F19EB001BC9C500C611C791ECD9C700C57
:101CA000811C991EBE9CD001AD9C500C611C7A1EFB
:101CB000B91FBD9C600C711CB91FDE9C8B0E901C63
:101CC000211D391FA19ED001AF9C700C811C9A1E52
:101CD000B91FBF9C800C911CB91FC19E2B0F301DDA
:101CE000411D591FEF9CD001CF9C900C211D3A1F24
:101CF000B91FDF9C200D311DB91FF09E4B0F501DE9
:101D0000611D791FD09ED001B09E900C211D3A1FFD
:101D1000B91FC09E200D311DB91FE19E4B0F501DF4
:101D2000611D791FE09ED001CE9C800C911C291F63
:101D3000391F4A1F5B1F691F791F019F700D88277C
:101D4000811D330C441C551C661C771C881C991C77
:101D5000221F331F441F551F661F771F881F991F9F
:101D6000BB9CD001AA9C5001CC9C2A2C3B0C4A1E47
:101D70005B1E601C711C991FEE9C5001DD9CD00104
:101D8000FF9C6001009F7001119F96958A1E9B1E0B
:101D90002A1D3B1D4C1D5D1D6E1D7F1D801D911D4F
:101DA00020A231A242A253A264A275A286A297A247
:101DB000A88CB98CCA8CDB8CEC8CFD8C0E8D1F8DA5
:101DC000882430FB96958795779567955795479525
:101DD0003795B19E1001D19E2001A19E3001AD9C8E
:101DE000D001AB9C300D411D5A1FB81DAC9C400D5D
:101DF000511DB81DAF9C6B0F701D811D961D781C69
:101E0000A09E800D911D781CBE9CD001BC9C500DE5
:101E1000611D7A1FB81DBD9C600D711DB81DAE9C63
:101E2000600D711D8B1F981D271C381CDE9CD00176
:101E3000CD9C700D811D9A1FB81DCE9C800D911DEB
:101E4000B81DEF9C2B0E301C411C581CC19E300C41
:101E5000411C581CE19ED001C09E3001BF9C800DEA
:101E6000911D261C781CB09E900D211C781CE09EB4
:101E7000370C401C511CB81DF19E30015A0E6B1ED0
:101E8000781CD09ED001CF9C900D211C3A1EB81D0D
:101E9000DF9C200C311CB81DF09E4B0E501C611CA9
:101EA000781C019F700C811C9924330F441F551F0F
:101EB000661F771F881F991F221C331C441C551C4A
:101EC000661C771C881C991C30F9BB9CD001AA9C0D
:101ED000200D311D4A1F5B1F991CDD9CD001CC9C3D
:101EE0009794601D711D8A1F9B1F991CFF9CD00138
:101EF000EE9C9794201C311C4A1E5B1E991C119F5E
:101F0000D001009F9694601C711C8A1E9B1E20AB02
:101F100031AB42AB53AB64AB75AB86AB97AB20AE8A
:101F200031AE42AE53AE64AE75AE86AE97AE288883
:101F300039884A885B886C887D888E889F882A18B3
:101F40003B084C085D086E087F08800A910AAA0BBE
:101F50002A263A264A265A266A267A268A269A2641
:101F60002A1A3A0A4A0A5A0A6A0A7A0A8A0A9A0A01
:101F70009927249C6001239CB02CC10CD91E269C5F
:101F80007001289C8001399C9001599CA001799C8A
:101F9000B001349CD00CE11CF91E459CF00C011DD5
:101FA000191F369CD001259CD00CE11CFA1EB91FCC
:101FB000359CE00CF11CB91F569C0B0F101D211D08
:101FC000391F299CD001279CF00C011D1A1FB91F35
:101FD000379C000D111DB91F499C2B0F301D411D51
:101FE000591F679CD001479C100D211D3A1FB91F36
:101FF000579C200D311DB91F789C4B0F501D611D42
:10200000791F589CD001389C100D211D3A1FB91F13
:10201000489C200D311DB91F699C4B0F501D611D3F
:10202000791F689CD001469C000D111D291F391F86
:102030004A1F5B1F691F791F899C700D8827811DAE
:10204000BB0CCC1CDD1CEE1CFF1C001F111F221F33
:10205000331F441F551F661F771F881F991F339C0E
:10206000D001229C1001449CA22CB30CCA1EDB1E82
:10207000E01CF11C991F669C1001559CD001779CB7
:102080002001889C3001999C96950A1F1B1F221DD8
:10209000331D441D551D661D771D801D911D20A0FB
:1020A00031A042A053A064A075A086A097A010887C
:1020B000120C10A21188131C11A21288141C12A257
:1020C0001388151C13A21488161C14A21588171C3B
:1020D00015A21688181C16A21788191C17A2AA0B7D
:1020E0002A183B084C085D086E087F08800A910A90
:1020F000A0ACB1ACC2ACD3ACE4ACF5AC06AD17ADA2
:10210000A20AB30AC40AD50AE60AF70A080B190B91
:102110000008110820A931A942A953A964A975A9E9
:1021200086A997A9220E331E441E551E661E771ED1
:10213000881E991EA21EB31EC41ED51EE61EF71EC3
:10214000081F191FBB270B1E1B1E208D318D428DB2
:10215000538D648D758D868D978DA695221E331EA9
:10216000441E551E661E771E881E991EAB1EBB1E82
:10217000CB1EDB1EEB1EFB1E0B1F1B1F20A631A65A
:1021800042A653A664A675A686A697A6A0AAB1AA3B
:10219000C2AAD3AAE4AAF5AA06AB17ABA0ACB1AC0D
:1021A000C2ACD3ACE4ACF5AC06AD17ADA01CB11C11
:1021B000C11CD11CE11CF11C011D111DA0AEB1AE52
:1021C000C2AED3AEE4AEF5AE06AF17AF288039800D
:1021D0004A805B806C807D808E809F80A884B984DB
:1021E000CA84DB84EC84FD840E851F85A8892A1AA5
:1021F000A9893A0AAA894A0AAB895A0AAC896A0AA1
:10220000AD897A0AAE898A0AAF899A0AA88DAA0A84
:10221000A98DBA0AAA8DCA0AAB8DDA0AAC8DEA0A70
:10222000AD8DFA0AAE8D0A0BAF8D1A0BAA0B2A26BA
:102230003A264A265A266A267A268A269A26AA26DE
:10224000BA26CA26DA26EA26FA260A271A272A1AD8
:102250003A0A4A0A5A0A6A0A7A0A8A0A9A0AAA0A9E
:10226000BA0ACA0ADA0AEA0AFA0A0A0B1A0B91012E
:10227000A201B301C4012A193B094C095D096E0989
:102280007F09800B910BAA0B2A273A274A275A2746
:102290006A277A278A279A272A1B3A0B4A0B5A0B56
:1022A0006A0B7A0B8A0B9A0B5F934F933F932F9392
:1022B0009F938F937F936F93DF92CF92BF92AF9252
:1022C000EF92FF929927249C6001239CB02CC10CB3
:1022D000D91E269C7001289CE001399C9001599CD4
:1022E000A001799CB001349CD00CE11CF91E459CE6
:1022F000F00CC11DD91F369CD001259CD00CE11CCF
:10230000FA1EB91F359CE00CF11CB91F569CCB0F6F
:10231000D01D211D391F299CD001279CF00CC11D07
:10232000DA1FB91F379CC00DD11DB91F499C2B0F57
:10233000301D411D591F679CD001479CD00D211DA8
:102340003A1FB91F579C200D311DB91F789C4B0FA8
:10235000501D611D791F589CD001389CD00D211D46
:102360003A1FB91F489C200D311DB91F699C4B0FA6
:10237000501D611D791F689CD001469CC00DD11D68
:10238000291F391F4A1F5B1F691F791F899C700D08
:102390008827811DBB0CCC1CDD1CEE1CFF1CCC1F38
:1023A000DD1F221F331F441F551F661F771F881F05
:1023B000991F339CD001229C1001449CA22CB30C89
:1023C000CA1EDB1EE01CF11C991F669C1001559C67
:1023D000D001779C2001889C3001999C9695CA1F5A
:1023E000DB1F221D331D441D551D661D771D801DDD
:1023F000911D7F906F902F903F904F905F90DF9254
:10240000CF92BF92AF92DF93CF93FF92EF92CC2700
:1024100030FB9695879577956795579547953795AE
:10242000319E5001519E6001219E7001259CD0017A
:10243000239C300D411D5A1FBC1F249C400D511D73
:10244000BC1F279C6B0F701D811D9E1DFC1E209EB6
:10245000800D911DFC1E369CD001349C500D611DD9
:102460007A1FBC1F359C600D711DBC1F269C600D22
:10247000711D8B1F9C1FAF1CBC1E569CD001459C20
:10248000700D811D9A1FBC1F469C800D911DBC1FA5
:10249000679CAB0EB01CC11CDC1E419EB00CC11C65
:1024A000DC1E619ED001409E7001379C800D911D05
:1024B000AE1CFC1E309E900DA11CFC1E609EBF0C2D
:1024C000C01CD11CBC1F719E7001DA0EEB1EFC1EDD
:1024D000509ED001479C900DA11CBA1EBC1F579C5A
:1024E000A00CB11CBC1F709ECB0ED01CE11CFC1EAE
:1024F000019FF00CC11DDD27330F441F551F661FC0
:10250000771F881F991FAA1CBB1CCC1CDD1CEE1C4E
:10251000FF1CCC1FDD1F30F9449C4001339CD001CF
:10252000229C200D311D4A1F5B1F681D791DDD1F78
:10253000559C4001669CD001779C1001009F2001B2
:10254000119FD695881D991DAA1EBB1EC21CD31CA7
:10255000E41CF51CC01DD11D5F934F933F932F9337
:102560009F938F937F936F93DF92CF92BF92AF929F
:10257000DF93CF93FF92EF92CDB7DEB7AD8CBE8CD9
:10258000CF8CD8A0E98CFA8C0B8D1C8D9924AC9C37
:10259000A001AB9C302D410D591DAE9CB001A09EF9
:1025A000C001B19E1001D19E2001F19E3001BC9C62
:1025B000500D611D791DCD9C700D811D991DBE9C16
:1025C000D001AD9C500D611D7A1FB91DBD9C600DE1
:1025D000711DB91DDE9C8B0F901D211C391CA19E05
:1025E000D001AF9C700D811D9A1FB91DBF9C800D3D
:1025F000911DB91DC19E2B0E301C411C591CEF9C16
:10260000D001CF9C900D211C3A1EB91DDF9C200CDF
:10261000311CB91DF09E4B0E501C611C791CD09EC4
:10262000D001B09E900D211C3A1EB91DC09E200CF9
:10263000311CB91DE19E4B0E501C611C791CE09EA3
:10264000D001CE9C800D911D291C391C4A1E5B1E99
:10265000691C791C019F700C8824811C330F441F56
:10266000551F661F771F881F991F221C331C441C8F
:10267000551C661C771C881C991CBB9CD001AA9C0D
:102680005001CC9C2A2D3B0D4A1F5B1F601D711D04
:10269000991CEE9C5001DD9CD001FF9C6001009FC5
:1026A0007001119F96948A1F9B1F2A1C3B1C4C1C77
:1026B0005D1C6E1C7F1C801C911CAD88BE88CF8861
:1026C000D88CE988FA880B891C89A21AB30AC40A33
:1026D000D50AE60AF70A080B190B2D813E814F81B6
:1026E000588569817A818B819C812209330944094B
:1026F00055096609770988099909000811082D8488
:102700003E844F84588869847A848B849C84A20C8C
:10271000B31CC41CD51CE61CF71C081D191D221D6A
:10272000331D441D551D661D771D881D991D2D8067
:102730003E804F80588469807A808B809C80201CEA
:10274000311C411C511C611C711C811C911C2D826F
:102750003E824F82588669827A828B829C822D8843
:102760003E884F88588C69887A888B889C8800803E
:102770000218118013082280240833803508448011
:1027800046085580570866806808778079088084F5
:102790008A0891849B08A284AC08B384BD08C484D1
:1027A000CE08D584DF08E684E00AF784F10ABB0B83
:1027B000A0A1A00DA08BA1A1A11DA18BA2A1A21DD2
:1027C000A28BA3A1A31DA38BA4A1A41DA48BA5A12F
:1027D000A51DA58BA6A1A61DA68BA7A1A71DA78B8E
:1027E000A0A5A81DA08FA1A5A91DA18FA2A5AA1D66
:1027F000A28FA3A5AB1DA38FA4A5AC1DA48FA5A5D7
:10280000AD1DA58FA6A5AE1DA68FA7A5AF1DA78F31
:10281000AFB7AD80BE80CF80D884E980FA800B81CD
:102820001C81A096CDBFDEBFB69500A8020A11A8F4
:10283000130A22A8240A33A8350A44A8460A55A830
:10284000570A66A8680A77A8790A80AC8A0891AC0A
:102850009B08A2ACAC08B3ACBD08C4ACCE08D5ACE8
:10286000DF08E6ACE00AF7ACF10ACC0BDD0BA6956D
:10287000A0A1A01DA0A3A1A1A11DA1A3A2A1A21DD1
:10288000A2A3A3A1A31DA3A3A4A1A41DA4A3A5A126
:10289000A51DA5A3A6A1A61DA6A3A7A1A71DA7A385
:1028A000A0A5A81DA0A7A1A5A91DA1A7A2A5AA1D75
:1028B000A2A7A3A5AB1DA3A7A4A5AC1DA4A7A5A5CE
:1028C000AD1DA5A7A6A5AE1DA6A7A7A5AF1DA7A729
:1028D00000A811A822A833A844A855A866A877A8DC
:1028E00080AC91ACA2ACB3ACC4ACD5ACE6ACF7ACAC
:1028F0000C1E1D1E2D1E3D1E4D1E5D1E6D1E7D1EC1
:102900008D1E9D1EAD1EBD1ECD1EDD1EED1EFD1EAF
:1029100000AA11AA22AA33AA44AA55AA66AA77AA8B
:1029200080AE91AEA2AEB3AEC4AED5AEE6AEF7AE5B
:1029300008952F923F924F925F926F927F928F9263
:102940009F92AF92BF92CF92DF92EF92FF920F933E
:102950001F93CF93DF93CDB7DEB7C456D040CDBF22
:10296000DEBF69837A838B839C83EB01FC0196E055
:10297000881B099019902990399049905990699035
:10298000799088A499A4AAA4BBA4CCA4DDA4EEA4A5
:10299000FFA480019101A201B301080819082A08C7
:1029A0003B084C085D086E087F0801921192219245
:1029B000319241925192619271928795800A910A67
:1029C000A20AB30AC40AD50AE60AF70A80A691A6A3
:1029D000A2A6B3A6C4A6D5A6E6A6F7A6881F9A9572
:1029E00041F680FB94F995F9E91BF040BF01EDB782
:1029F000FEB7359683D1CDB7DEB7EB81FC81698117
:102A00007A817CD1CDB7DEB7EB81FC81E05AFF4FF4
:102A100069817A81605D7F4F71D1CDB7DEB7EB817F
:102A2000FC81DE011596EF01C05ADF4F7E2F705DED
:102A3000991B00A88881081E11A88981181E22A848
:102A40008A81281E33A88B81381E44A88C81481E99
:102A500055A88D81581E66A88E81681E77A88F8123
:102A6000781E099219922992399249925992699243
:102A70007992991F8191081E8191181E8191281EBB
:102A80008191381E8191481E8191581E8191681E46
:102A90008191781E991F8D91080A00A68D91180AC0
:102AA00011A68D91280A22A68D91380A33A68D9100
:102AB000480A44A68D91580A55A68D91680A66A6C3
:102AC0008D91780A77A6979597957E13B2CF9795B3
:102AD00097FBF096991F76E000808990081C118082
:102AE0009990191C2280A9902A1C3380B9903B1C14
:102AF0004480C9904C1C5580D9905D1C6680E9903B
:102B00006E1C7780F9907F1C991F8827081E181E5D
:102B1000281E381E481E581E681E781E991F8D914B
:102B2000080A01928D91180A11928D91280A21921A
:102B30008D91380A31928D91480A41928D91580AAF
:102B400051928D91680A61928D91780A7192979550
:102B500097957A9509F6991F991F440B550B1124E7
:102B6000882780F9480F511D97959170491F511D75
:102B70008081840F81938081851F81938081851F4F
:102B800081938081851F81938081851F81938081BE
:102B9000851F81938081851F81938081851F81930B
:102BA0008081851F81938081851F81938081851F0E
:102BB00081938081851F81938081851F819380818E
:102BC000851F81938081851F81938081851F8193DB
:102BD0008081851F81938081851F81938081851FDE
:102BE00081938081851F81938081851F819380815E
:102BF000851F81938081851F81938081851F8193AB
:102C00008081851F81938081851F81938081851FAD
:102C100081938081851F81938081851F819380812D
:102C2000851F81938081851F81938081851F81937A
:102C30008081851F81938081851F81938081851F7D
:102C400081938081851F81938081851F81938081FD
:102C5000851F81938081851F81938081851F81934A
:102C6000851E8192951E9192A51EA192B51EB192CC
:102C7000C51EC192D51ED192E51EE192F51EF192BC
:102C80001197ADBFBEBFDF91CF911F910F91FF9004
:102C9000EF90DF90CF90BF90AF909F908F907F90FC
:102CA0006F905F904F903F902F9008952F923F929A
:102CB0004F925F926F927F928F929F92AF92BF924C
:102CC000CF92DF92EF92FF920F931F93CF93DF93F8
:102CD000FC0114D0DF91CF911F910F91FF90EF90E5
:102CE000DF90CF90BF90AF909F908F907F906F902C
:102CF0005F904F903F902F9011240895CDB7DEB78D
:102D0000E497CDBFDEBF69837A83EB83FC83EB015D
:102D100093E0881B09901990299039904990599017
:102D20006990799088889988AA88BB88CC88DD8842
:102D3000EE88FF8880019101A201B30108081908FB
:102D40002A083B084C085D086E087F080192119222
:102D50002192319241925192619271928795800AAB
:102D6000910AA20AB30AC40AD50AE60AF70A808AB7
:102D7000918AA28AB38AC48AD58AE68AF78A881F8A
:102D80009A9541F680FB94F993F9E91BF040EF0125
:102D9000EDB7FEB73596F5D1CDB7DEB7EB81FC8147
:102DA000A981BA81ED01EDD1CDB7DEB7EB81FC8110
:102DB000E05DFF4FA981BA815896ED01E2D1CDB710
:102DC000DEB7EB81FC81DE011596EF01C05DDF4FC0
:102DD000608C718C828C938CA48CB58CC68CD78CB7
:102DE000E0A0F1A002A113A124A135A146A157A101
:102DF00060A571A5088019802A803B804C805D8089
:102E0000600C711C821C931CA41CB51C0E80C01C81
:102E10001F80D11C2884E21C3984F31C4A84041DC1
:102E20005B84151D0C84201D1D84311D2E84421DC4
:102E30003F84531D4888641D5988751D991F008063
:102E400011802280338044805580060C171C281C7A
:102E5000391C4A1C5B1C991F8D91081A008E8D919C
:102E6000180A118E8D91280A228E8D91380A338E80
:102E70008D91480A448E8D91580A558E97950680FB
:102E8000178020843184428453840C1C1D1C2E1C0A
:102E90003F1C401E511E991F8D91080A068E8D9170
:102EA000180A178E8D91280A20A28D91380A31A216
:102EB0008D91480A42A28D91580A53A29795048495
:102EC00015842684378440885188021E131E241ED0
:102ED000351E461E571E991F8D91080A04A28D911A
:102EE000180A15A28D91280A26A28D91380A37A2B8
:102EF0008D91480A40A68D91580A51A697959795AD
:102F000002A413A424A435A446A457A48A89081EA5
:102F10000A8A8B89181E1B8A8C89281E2C8A8D8907
:102F2000381E3D8A8E89481E4E8A8F89581E5F8AB8
:102F3000991F8289081E8389181E8489281E858905
:102F4000381E8689481E8789581E991F8D91080A48
:102F500002A68D91180A13A68D91280A24A68D9198
:102F6000380A35A68D91480A46A68D91580A57A66B
:102F700091FB8D91680A8D91780A8D91880A8D91C7
:102F8000980A8D91A80A8D91B80A8D91C80A8D91E1
:102F9000D80A8D91E80A8D91F80A8D91080B8D91D0
:102FA000180B8D91280B8D91380B8D91480B8D91BD
:102FB000580B8D91680B8D91780B97958827681E1B
:102FC000781E881E981EA81EB81EC81ED81EE81E91
:102FD000F81E081F181F281F381F481F581F681F7A
:102FE000781F9795888D681E6882698C761C798217
:102FF0007A8C871C8A828B8C981C9B829C8CA91C47
:10300000AC82AD8CBA1CBD82BE8CCB1CCE82CF8C68
:10301000DC1CDF82D8A0ED1CE886E9A0FE1CF98646
:10302000FAA00F1D0A870BA1101F1B871CA1211FCF
:103030002C872DA1321F3D873EA1431F4E874FA1F4
:10304000541F5F8758A5651F688B69A5761F798B0C
:10305000991F991F0A881B882C883D884E885F8895
:103060007D91070A7D91170A7D91270A7D91370A84
:103070007D91470A7D91570AAA0BBB0B979577273D
:10308000071E171E271E371E471E571E97957AA527
:10309000071E0A8A0BA4101C1B8A1CA4211C2C8A44
:1030A0002DA4321C3D8A3EA4431C4E8A4FA4541CBE
:1030B0005F8A5524991F9170A91FB51D90F9A90F1A
:1030C000B51D8A0F888F6B1E698E7B1E7A8E8B1EB4
:1030D0008B8E9B1E9C8EAB1EAD8EBB1EBE8ECB1EE2
:1030E000CF8EDB1ED8A2EB1EE9A2FB1EFAA20B1F9D
:1030F0000BA31B1F1CA32B1F2DA33B1F3EA34B1F6A
:103100004FA35B1F58A76B1F69A77B1F0B1E1B1EBE
:103110002B1E3B1E4B1E7AA70BA61CA62DA63EA659
:103120004FA6CDB7DEB7CC5CDF4FCDBFDEBF089575
:103130002F923F924F925F926F927F928F929F92C7
:10314000AF92BF92CF92DF92EF92FF920F931F93B5
:10315000CF93DF93FC01EB0114D0DF91CF911F914E
:103160000F91FF90EF90DF90CF90BF90AF909F9026
:103170008F907F906F905F904F903F902F90112491
:103180000895D7A7C6A7E880F9800A811B812C8102
:103190003D819927E09E2001E29E3001F39EA0012F
:1031A000139FB001EF9C302C410C591EE19E500C36
:1031B000611C791EE39E700C411D591FF29E400157
:1031C000F09E500C611C781C991EF19E600C711CC5
:1031D000991E039F490D501D611D791F129F4001CB
:1031E000019F700C411D581D991E029F400D511DDD
:1031F000991E239F690D701D8827811D330C441C67
:10320000551C661C771C441F551F661F771F881F9F
:10321000991F119F6001009F5001FF9C4001EE9C8F
:10322000202C310C481C591C6A1C7B1C4C1D5D1D3C
:10323000991F339F4001229F9695601D711D881D27
:10324000991D2082318242825382648275828E80EF
:103250009F80A884B984CA84DB84E818F9080A0925
:103260001B092C093D090008E024F0240025102545
:1032700020253025E018F008000910092009300940
:1032800050FB9695879577956795579555249D9C06
:103290003001BD9C10018B9CE001899C500D611D8B
:1032A0007C1FD51D8A9C600D711DD51D8D9C8D0FB9
:1032B000901D611C751C9C9CE0019A9C700D811DE9
:1032C0009C1FD51D8C9C800D911DD51DAD9C6D0E38
:1032D000701C211C351CAC9CE0019B9C800D911D39
:1032E0006C1ED51DAB9C900D611CD51DBC9C700C3B
:1032F000211C351CCD9C7D0E251C301C151C412C21
:10330000550F661F771F881F991F661C771C221C8C
:10331000331C441C551C50F9AA9CE001999CD00117
:10332000889C400D511D6A1F7B1F8C1F9D1F551CC3
:10333000DD9CE001CC9CD001BB9C5694601C711CB0
:103340002A1E3B1E4C1E5D1E7F926F926624E09EDD
:10335000D001E29EE001F39E4001139F5001EF9CDB
:10336000702CA10DB61DE19EB00DC11DD61DE39EB2
:10337000D00D811C961CF29E6001F09EB00DC11D07
:10338000DC1DD61CF19EC00DD11DD61C039F8D0CDB
:10339000901CA11CB61C129F6001019FD00D811CC6
:1033A0009C1CD61C029F800C911CD61C239FAD0C2C
:1033B000B01CCC24C11CDD24770CAA1FBB1FCC1F62
:1033C000DD1F881C991CAA1CBB1CCC1CDD1CEE9CA0
:1033D000602C710CDD1CFF9CD794A01DB11DDD1C61
:1033E000119F7001009FD794C01DD11D8E1C9F1C82
:1033F000DD1C339F7001229FD694A01CB11CCE1CF3
:10340000DF1C0F901F90E080F180028113812481E6
:103410003581E618F7080A0B1B0B2C0B3D0BA79503
:10342000E40EF51E061F171F281F391F401D511DD2
:10343000621D731D841D951DAA1F480959096A093B
:103440007B098C099D0966087708A795061C171C3F
:10345000271C371C471C571CE682F7820087118700
:10346000228733874487558766877787808B918B40
:10347000028A138A248A358A468A578AD7A5C6A51E
:10348000EC84FD840E851F85288939899927E09E63
:103490001001E29E2001F39EA001139FB001EF9C5A
:1034A000702C210C391EE19E300C411C591EE39EEC
:1034B000500C411D591FF29E4001F09E300C411CE2
:1034C000581C991EF19E400C511C991E039F490DDA
:1034D000501D611D791F129F4001019F500C411D1D
:1034E000581D991E029F400D511D991E239F690D65
:1034F000701D8827811D770C221C331C441C551C11
:10350000441F551F661F771F881F991F119F600159
:10351000009F5001FF9C4001EE9C602C710C281C08
:10352000391C4A1C5B1C4C1D5D1D991F339F4001BB
:10353000229F9695601D711D881D991D608E718E4C
:10354000228E338E448E558E8A889B88AC88BD88A7
:10355000CE88DF88E818F9080A091B092C093D09FB
:103560000008E024F0240025102520253025E0184F
:10357000F008000910092009300950FB969587953D
:1035800077956795579555249D9C3001BD9C1001FA
:103590008B9CE001899C500D611D7C1FD51D8A9C70
:1035A000600D711DD51D8D9C8D0F901D611C751CAE
:1035B0009C9CE0019A9C700D811D9C1FD51D8C9CCC
:1035C000800D911DD51DAD9C6D0E701C211C351CF0
:1035D000AC9CE0019B9C800D911D6C1ED51DAB9C8D
:1035E000900D611CD51DBC9C700C211C351CCD9C04
:1035F0007D0E251C301C151C412C550F661F771F96
:10360000881F991F661C771C221C331C441C551CE8
:1036100050F9AA9CE001999CD001889C400D511D55
:103620006A1F7B1F8C1F9D1F551CDD9CE001CC9CDD
:10363000D001BB9C5694601C711C2A1E3B1E4C1E64
:103640005D1E7F926F926624E09ED001E29EE001B3
:10365000F39E4001139F5001EF9C702CA10DB61DED
:10366000E19EB00DC11DD61DE39ED00D811C961CA0
:10367000F29E6001F09EB00DC11DDC1DD61CF19EB6
:10368000C00DD11DD61C039F8D0C901CA11CB61C17
:10369000129F6001019FD00D811C9C1CD61C029FB3
:1036A000800C911CD61C239FAD0CB01CCC24C11CDB
:1036B000DD24770CAA1FBB1FCC1FDD1F881C991CA3
:1036C000AA1CBB1CCC1CDD1CEE9C602C710CDD1CF0
:1036D000FF9CD794A01DB11DDD1C119F7001009FA0
:1036E000D794C01DD11D8E1C9F1CDD1C339F700103
:1036F000229FD694A01CB11CCE1CDF1C0F901F90E3
:10370000E08CF18C028D138D248D358DE618F70831
:103710000A0B1B0B2C0B3D0BA795E40EF51E061F89
:10372000171F281F391F401D511D621D731D841D49
:10373000951DAA1F480959096A097B098C099D0929
:1037400066087708A795061C171C271C371C471C02
:10375000571C44A355A366A377A380A791A7D7A519
:10376000C6A502A613A624A635A646A657A6608C13
:10377000718C828C938CA48CB58CC4846C0CC584A5
:103780007C1CC6848C1CC7849C1CC088AC1CC18853
:10379000BC1CC288EC1CC388FC1CC4880C1DC588DA
:1037A0001C1DC6882C1DC7883C1DCC24DD24DC1CB8
:1037B0004D0D5C1D6C1D7C1D8C1D9C1D0C1C1C1C52
:1037C0002C1C3C1C4C1C5C1CA081A60DA487A18158
:1037D000A71DA587A281A81DA687A381A91DA787CC
:1037E000A481AA1DA08BA581AB1DA18BA681AE1DB6
:1037F000A28BA781AF1DA38BA085A01FA48BA18541
:10380000A11FA58BA285A21FA68BA385A31FA78B93
:10381000461D571D681D791D8A1D9B1D0E1C1F1CF2
:10382000201E311E421E531E408F518F628F738F98
:10383000848F958F068E178E20A231A242A253A2AA
:10384000DC1CDF92EF93FF93E881F9810A811B81F1
:103850002C813D812E803F80488459846A847B84FA
:103860008C849D84AE84BF84C888D9884A895B894A
:103870006C897D898E899F89E819F9090A091B09D4
:103880002C093D09240A350A460A570A680A790AAA
:103890000008E025F02500251025202530252024CE
:1038A00030244024502460247024E019F0090009D9
:1038B0001009200930092008300840085008600825
:1038C00070088824E09F5001E29F6001F39FA001EF
:1038D000139FB001EF9F902CA10CB81CE19FB00C7E
:1038E000C11CD81CE39FD00C411D581DF29FC00184
:1038F000F09FB00CC11CD81E981DF19FC00CD11CAC
:10390000981D039F490F501D611D781D129FC00116
:10391000019FD00C411D581F981D029F400D511D45
:10392000981D239F690F701D8827811D9927990C69
:10393000AA1CBB1CCC1CDD1C441F551F661F771F17
:10394000881F991FEE9F0F92910C9F92991F009FC5
:103950004001FF9F9795A01CB11CC81CD91CAF92B9
:10396000BF92CF92DF92991F339F5001229F400157
:10397000119F9695401D511D681D791D8A1D9B1D27
:10398000E219F30904091509260937090008E02599
:10399000F0250025102520253025E019F009000923
:1039A00010092009300950FB969587957795679502
:1039B0005795DD24379C7001579C5001259CE001F0
:1039C000239C500D611D7C1FDD1D249C600D711D0D
:1039D000DD1D279C8D0F901DE11CFD1C369CE00118
:1039E000349C700D811D9C1FDD1D269C800D911D3A
:1039F000DD1D479CED0EF01CA11CBD1C469CE0018A
:103A0000359C800D911DEC1EDD1D459C900DE11C2B
:103A1000DD1D569CF00CA11CBD1C679CFD0EAD1C51
:103A2000B01C1D1CC12C550F661F771F881F991FC6
:103A3000EE1CFF1CAA1CBB1CCC1CDD1C50F9449CBA
:103A4000E001339C4001229C400D511D681D791DF1
:103A50008C1F9D1FDD1C779CE001669C4001559CDE
:103A6000D694E01CF11CA81CB91CCC1EDD1E6624DB
:103A7000E09FD001E29FE001F39F2001139F4001EE
:103A8000EF9F702CA10DB61DE19FB00DC11DD61D7D
:103A9000E39FD00D411C561CF29F1001F09FB00D0A
:103AA000C11DD21D361CF19FC00DD11D361C039FB8
:103AB000430C501C811C961C129F1001019FD00DBD
:103AC000411C521C361C029F400C511C361C239F6B
:103AD000830C901C2224211C3324770CAA1FBB1FAB
:103AE000CC1FDD1F441C551C881C991C221C331C38
:103AF000EE9F602C710C331CFF9F3794A01DB11DED
:103B0000331C119FF001009F3794C01DD11D4E1E24
:103B10005F1E331C339FF001229F3694801C911C42
:103B20002E1E3F1EEDB7FEB706801580048113815F
:103B30003F912F91F901061817080A0B1B0B2C0B4C
:103B40003D0BA795040E151E061F171F281F391FB2
:103B50004E1D5F1D6A1D7B1D8C1D9D1DAA1F4409E6
:103B60005509680979098209930966087708A795B4
:103B7000E61CF71CA71CB71CC71CD71C3F902F9036
:103B80009F908F90DF91CF916C8468186C866D84C4
:103B900069086D866E8462086E866F8463086F861E
:103BA00068886E0A688A69886F0A698A6A88600804
:103BB0006A8A6B8861086B8A6C88600A6C8A6D8877
:103BC000610A6D8A6E88620A6E8A6F88630A6F8ADC
:103BD000688C640A688E698C650A698E6A8C660ACC
:103BE0006A8E6B8C670A6B8E6C8C680A6C8E6D8C1F
:103BF000690A6D8E6E8C6E086E8E6F8C6F086F8E7C
:103C000068A06A0868A269A06B0869A26AA06C082B
:103C10006AA26BA06D086BA2AF91A040BB0BCCA0B9
:103C2000CA0ECCA2CDA0CB1ECDA2CEA0CB1ECEA2C2
:103C3000CFA0CB1ECFA2C8A4CB1EC8A6C9A4CB1EA2
:103C4000C9A6CAA4CB1ECAA6CBA4CB1ECBA6CCA405
:103C5000CB1ECCA6CDA4CB1ECDA6CEA4CB1ECEA66D
:103C6000CFA4CB1ECFA608956AE170E286E291E26E
:103C70000C9404289091282180912921892B11F4FA
:103C80000C94383486EA08956AE170E286E291E2A3
:103C90000C94B72A609128217091292176276727F3
:103CA000762780912821813820F48AE291E20C94D1
:103CB000BB3386EA08956AE170E286E291E20C94F1
:103CC000092A8091282190912921982789279827CE
:103CD00020912821213820F46AE170E20C946133AC
:103CE00086EA0895409129214C3029F410921D2034
:103CF00010921E2004C0442311F086EA089580919A
:103D00002A219091282181110FC0911106C04111E3
:103D100050C08AE190E20C943D32933009F049C0E2
:103D20008AE190E20C942A32292F2E7F283089F4E0
:103D3000823008F440C080FD3EC06AE170E290FF2E
:103D400004C08AE291E20C9451328AE291E20C942E
:103D50005732943049F48150803168F56AE170E25D
:103D60008AE291E20C943032823029F520912B21A5
:103D700030912C2132272327322791110BC041117A
:103D800004C021158FE3380721F26AE170E2C9010E
:103D90000C944332913029F46AE170E2C9010C9429
:103DA0003632923009F0A9CF6AE170E2C9010C9471
:103DB0004A3280E7089587EA08956AE170E286E270
:103DC00091E20C9408276AE170E286E291E20C9499
:103DD000652986E291E20C94942B9091292180919F
:103DE0002821811104C09F3060F4892F06C0803AD9
:103DF00011F0803B31F4911104C00E94612F80E0EA
:103E0000089586EA089586E291E242C7209128212A
:103E100030912921922F832F27FF0C94043486EAB6
:103E200008958091282181110FC08091292181114D
:103E30000BC080912420813049F4209120203091C2
:103E40002120232B19F0089586EA089585E9089525
:103E500080912821811106C080912921811102C001
:103E60000C94BA3286EA089580912821811108C005
:103E700080912921811104C08AE291E20C94F934E5
:103E800086EA0895CF93DF9380912821811119C08C
:103E900080912921811115C0C0911D20D0911E2033
:103EA000CC2389F06C2F85E290E20E94DC49DD276B
:103EB000C0932020D093212081E08093242080E1B2
:103EC00003C086EA01C080EFDF91CF910895809111
:103ED0002821811104C089E291E20C94833086EAA2
:103EE000089580912821811104C089E291E20C9407
:103EF000813086EA089580912821811104C089E2E9
:103F000091E20C94853086EA0895FC0166837783FC
:103F1000128683819481009739F021E022878617E9
:103F2000970720F480EC089580E0089580E10895DB
:103F3000AF92BF92CF92DF92EF92FF920F931F93B7
:103F4000CF93DF936AE071E086E291E20F94CC01B7
:103F50008530910529F0843020E8920708F40EC2DC
:103F6000392F331F3327331F30931A20B090262167
:103F7000A090272140ECA41631F02091242021307C
:103F800011F410922420E0EABE1205C0F4EEAF1244
:103F900049C1B12C08C020E1B21629F040E8B4169E
:103FA00029F0B1103FC10CE010E002C000E010E0C9
:103FB000F80124912F3F09F437C131964491A4169A
:103FC00019F00C5F1F4FF4CF6C01E894D7F8F4E0C0
:103FD000CF16D10429F410922A21C0E0D0E082C08B
:103FE000C0912A21CC23C1F1D0E0311117C024FDAA
:103FF00079C061E070E087E291E20F9400027E01F7
:10400000B7018BE291E20F94CC01E816F90609F0B2
:104010000DC1F801849185FD5EC00BC0F5E0CF169F
:10402000D10409F45FC0CE010596C816D90621F463
:104030007E01C0E0D0E05BC0CE010696C816D9066E
:1040400009F05CC07E01F601EB5DFE4DC081D0E061
:10405000209709F440C04BC025E0C216D104F1F10D
:1040600047E0C416D10408F449C0C0912B21D09177
:104070002C21FC2EED2EE114F10429F487E0C81662
:10408000D104E1F532C097E0C916D10451F1A6017F
:10409000475051096DE271E28BE291E20E94B67DD8
:1040A000C7010996C816D90681F4F601EC5DFE4DEC
:1040B000208130E0322F2227F601EB5DFE4D80811A
:1040C000E901C82B209789F012C0C7010796C816CE
:1040D000D906A1F4AECFC0E0D1E009C0C0E0D1E084
:1040E00001C0E701E12CF12C02C0CFEFDFEFB4FEFD
:1040F00035C0E114F10421F410921F20C0E797C0ED
:1041000080911F20811107C010922220109223203D
:10411000A0921F2006C0A81621F010921F20C3E80D
:1041200086C080912220909123209701280F391F6B
:104130002230314008F7A7016BE271E28B5D9F4DA1
:104140000E94AD7DC0912220D0912320CE0DDF1D95
:10415000C0932220D0932320C0E069C080911F200B
:10416000882341F110921F20E114F10439F280916B
:104170002220909123209701280F391F22303140AF
:1041800008F0BCCFA7016BE271E28B5D9F4D0E94EE
:10419000AD7D8091222090912320E80EF91EE092BF
:1041A0002220F0922320A70165E270E28BE291E2E7
:1041B0000E94AD7DF801849187FF03C02097B1F084
:1041C0000EC0FFEFEF16F10411F008F097CFE09268
:1041D0002A21C13021E0D20788F3C0E0D1E083FF7B
:1041E00007C090911A20913019F488CF81FD86CFB5
:1041F000E114F10419F082FD81CF02C080FD7ECF71
:10420000E0921B20F0921C20C0931D20D0931E2012
:1042100010923C00F80132960590F491E02D19952A
:10422000C82F05C0C0EE03C0C0ED01C0C4E90091B5
:104230002020109121200F94AA028C2F82958F703C
:1042400080668093282110922921F0901A2041E065
:10425000F41202C0C03139F1C03B09F47FC048F408
:10426000C13009F1A0F0C031B1F0C03709F06CC025
:1042700075C0C03D09F472C018F4C03C61F064C060
:10428000C03E09F46BC0C03F09F05EC067C080E962
:104290008093282163C00F3F110511F008F05EC024
:1042A000009329215BC060911D2070911E2006178C
:1042B000170708F4B801EB016130714010F0C0E05D
:1042C000D1E0AE0165E270E288E291E20E94AD7D4C
:1042D0006801CC1ADD0AC0922020D09221208E01E4
:1042E000065E1F4DC114D10449F410922420F80138
:1042F000E25FFE4F80E98083319619C0A601BE01BE
:104300006B5D7F4D85E290E20E94AD7DF801E25F3A
:10431000FE4F81E68083CE01835E9F4D960122276A
:10432000FC01E45FFE4F232B11F4C08201C0108218
:1043300091E0BE01F91203C06E5F7F4F11C06D5F47
:104340007F4F87E291E20EC08C2F807FCF70803349
:1043500011F4C06C01C0C068C093292162E070E014
:1043600088E291E2DF91CF911F910F91FF90EF9042
:10437000DF90CF90BF90AF900D940002DF91CF916E
:104380001F910F91FF90EF90DF90CF90BF90AF9073
:104390000895EAE1F0E2128615820895DC01A60F85
:1043A000B71FFC01769567956E0F7F1FE617F7071D
:1043B00029F080819E9191938C93F8CF0895FB0111
:1043C000E40FF51F480F591F8417950729F0229114
:1043D000DC012D93CD01F8CF08959C01633229F4BF
:1043E00081E02115314091F410C0623261F4803CCB
:1043F000910559F08F778115914039F081E029308E
:10440000324021F402C081E0089580E00895CF9207
:10441000DF92EF92FF920F931F93CF938C017B015A
:10442000C42FC42ED12CB601C701B8DF82E0F80139
:104430008083C183F701808187FD03C0C801019695
:1044400006C0C8010296CF5FF801C1831282A6019F
:10445000B70101960E94AD7D82E08C0FCF911F9134
:104460000F91FF90EF90DF90CF9008950F931F93DF
:10447000CF93DF93EC010E9416328C0160E070E074
:10448000CE010E944A32803161F40E941632D82F48
:10449000C92F60E070E0C8010E9423328D2F9C2F4D
:1044A00002C08FEF9FEFDF91CF911F910F91089581
:1044B0000F931F93CF938C01FC01638763E080E02F
:1044C00090E00E9475328823D9F0813820F4F801F9
:1044D0003C96C2E005C091E8F80194873D96C3E0A0
:1044E000819363E0CF010E947532882349F06C2FDD
:1044F00070E0680F711DC801CF911F910F9105CD1C
:1045000085E9CF911F910F910895CF92DF92EF929D
:10451000FF920F931F93CF93DF937C016B018AE689
:1045200091E0F7019C01119221503040E1F74111D7
:1045300016C062E080E090E00E947532EC018934A0
:10454000910510F080E063C062E0C7018E5D9E4F70
:104550000E9475328C01C817D907A1F702C0042F39
:1045600010E00E946A32833271F00831110569F05F
:104570000032110561F00033110559F002341105C4
:1045800009F7C8E607C0C0EB05C0C0E503C0C8E531
:1045900001C0C0E6F701E05EFE4FC083CF73C114D7
:1045A000D10489F088EDF60111928A95E9F765E06A
:1045B0006C0FC6010E94857D66E06C0FC601885BAA
:1045C0009F4F0E94857D61E06C0FC7010E94857D31
:1045D00062E06C0FC701885B9F4F0E94857D63E09E
:1045E0006C0FC70180579F4F0E94857D64E06C0F60
:1045F000C70188529F4F0E94857DB801C7018E5D1B
:104600009E4FCCDE802FF701EF5DFE4F0083DF91E0
:10461000CF911F910F91FF90EF90DF90CF90089571
:10462000AF92BF92CF92DF92EF92FF920F931F93C0
:10463000CF93DF93CDB7DEB7C254D240CDBFDEBF3C
:10464000182F5B0140E0BE0165597E4FCE010196F7
:104650005CDF082F882309F440C0C5010B967C015C
:10466000C02ED12C1338C1F048F4113881F0123823
:1046700061F5A601BE016F567F4F24C0143889F042
:10468000153819F5A601BE01675B7F4F1BC0A60157
:10469000BE016F5F7F4F16C0A601BE0167527F4FFC
:1046A00011C0A601BE016D547E4F0E94AD7DA601D2
:1046B000BE0165597E4FC7018C0D9D1D0E94AD7DC9
:1046C000000F03C0C7010E94AD7D10E0B801C70113
:1046D00065DEB801C50119DC01C088EACE5BDD4F9B
:1046E000CDBFDEBFDF91CF911F910F91FF90EF9073
:1046F000DF90CF90BF90AF9008954F925F926F92EE
:104700007F928F929F92AF92BF92CF92DF92EF9261
:10471000FF920F931F93CF93DF93CDB7DEB74C017A
:104720006B015A016DB67EB68DB79EB7805291402F
:104730008DBF9EBF0DB71EB70F5F1F4FEDB7FEB702
:10474000EA56F140EDBFFEBF895691407C0140E042
:10475000B801DBDE90E0009711F485E951C08A15BD
:104760009B0508F44CC0B501C40118DE98E4A916F5
:10477000B10458F448E450E04A195B0960E070E085
:10478000C4018A0D9B1D0E94C77DA701B801C40109
:104790000E941E3F8111E1CF80E3F6018387FFED88
:1047A000EF1AFEEFFF0AF70140814D3330F081E848
:1047B000F601848793E0492E02C082E0482E46012C
:1047C000FBE08F0E911CA42CB12C8A0C9B1CB80111
:1047D000C4011DDE582EB801685B7F4FF701408190
:1047E000C401850D911D13DE850DF601EA0DFB1D3B
:1047F0008287840D682F70E0C60187DB01C080E7E7
:104800006DBE7EBEDF91CF911F910F91FF90EF9013
:10481000DF90CF90BF90AF909F908F907F906F90E0
:104820005F904F900895BF92CF92DF92EF92FF92E8
:104830000F931F93CF93DF93EC017B016A01B22E9C
:10484000BC01C701ABDDC038D10558F440E051E0F0
:104850004C1B5D0B60E070E0C7018C0F9D1F0E9438
:10486000C77D63E880E090E00E9475328C01000F04
:10487000111FB11006C0C017D10709F04AC0E801E6
:1048800031C021E0B2124DC0649709F042C0E70187
:10489000649664E0CE010E94857D8823D1F16FE0AB
:1048A00070E0CE017BDDC3E2D0E0CE010B960817AD
:1048B000190778F1F701EC0FFD1F10822196F7011F
:1048C000EC0FFD1F8FEFC017D10718F421968193CD
:1048D000FACFC701800F911FFC01319710823197E9
:1048E00021E02083AE0156954795B601C7010E948D
:1048F0000045882389F080E091E0F7019C01119246
:1049000021503040E1F7F6019C01119221503040D6
:10491000E1F780E090E009C0B801C6013FDDC801C1
:1049200004C032E0B312F5CFC0CFDF91CF911F9119
:104930000F91FF90EF90DF90CF90BF900895AF92CE
:10494000BF92CF92DF92EF92FF920F931F93CF937C
:10495000DF935C016B017A01022FEA012B9660EA7A
:10496000CE010E947532182F0E946A32893171F58A
:10497000173021F4CE010E94EA030FC0103149F430
:1049800088E0F7017B96DE0101900D928A95E1F7B0
:1049900006C0183121F01830D1F540E001C04CE0DC
:1049A00088E0A816B10411F080E732C0011143601D
:1049B000BE01C6010E942B0488E0F601DE010190D1
:1049C0000D928A95E1F768E070E015C08932F9F43C
:1049D00080E1A816B10441F7202F412FBE01C60186
:1049E0000E94280680E1F601DE0101900D928A9571
:1049F000E1F760E170E0C701DF91CF911F910F9166
:104A0000FF90EF90DF90CF90BF90AF907ECA81E98A
:104A1000DF91CF911F910F91FF90EF90DF90CF909A
:104A2000BF90AF900895FF920F931F93CF93DF93A2
:104A3000CDB7DEB7C258D109CDBFDEBF8C01F62E8F
:104A40000E94DF32811128C028E0F29EC0011124AB
:104A50000E941847F82EF8018081806289838F2D8B
:104A600086958A830E5F1F4FB801CE0103960E9480
:104A7000217BCE0101960E94DF3281110DC0898118
:104A800080638983FA82B801CE0103960E940441B3
:104A9000CE0101960E94DF32CE57DF4FCDBFDEBF81
:104AA000DF91CF911F910F91FF9008955F926F92C8
:104AB0007F928F929F92AF92BF92CF92DF92EF92AE
:104AC000FF920F931F93CF93DF93CDB7DEB7D250F2
:104AD000CDBFDEBFFC0184818823C9F0873049F552
:104AE0008581803331F58781813811F0823009F575
:104AF00086818530F1F480858330D9F481858130D9
:104B0000C1F48285811115C08385813091F44B01F8
:104B10008F010E945D327C01811523E0920769F0CC
:104B20009170892B41F4C70192508130964028F052
:104B300002C084E979C081E977C00F94A7023401EB
:104B4000FBE06F0E711C580124E0A20EB11C97010E
:104B5000AE014F5F5F4FB301C5010E946F46582EF3
:104B6000E82EF12CE114F10409F45DC083ECF801A6
:104B7000828353826801F2E0CF0ED11C652DC601FD
:104B800052DF811151C024ECC8018E579F4FFC01A8
:104B9000208331965082652D46DF811145C0A701E3
:104BA000BE016F5F7F4FC5010E94AD7D85ECF801AE
:104BB0008283C6010E94DF32811136C0A701BE0187
:104BC0006F577F4FC5010E94AD7D86ECF80182834F
:104BD000C6010E94DF32811127C0A701BE016F5FAD
:104BE0007E4FC5010E94AD7D87ECF8018283C6012E
:104BF0000E94DF32811118C081E8F801828383E0CE
:104C0000838381E0848315828683C6010E94DF321C
:104C100081110AC0EE0CFF1CB701C301BFDBB70155
:104C2000C40173D901C082EADE5FCDBFDEBFDF9170
:104C3000CF911F910F91FF90EF90DF90CF90BF9099
:104C4000AF909F908F907F906F905F900895FF92AC
:104C50000F931F93CF93DF938C01F62E80E8F8011A
:104C600011928A95E9F780E090E00E947532EC019C
:104C70008138910530F46F2DC8010E9475328C2F58
:104C800001C080E0DF91CF911F910F91FF900895B7
:104C9000FF920F931F93CF93DF93FC01109230226A
:104CA000892B09F476C08281833F39F48481811194
:104CB00072C0838181116FC0A5C0813831F48381B6
:104CC000883B09F06AC0C4E00EC0813409F071C0AD
:104CD000C381C63B21F0C83B11F0C43A19F4C69514
:104CE000C37001C0C0E0848135962FEF280F882360
:104CF00009F449C090813FEF390F3E3F18F03196DB
:104D0000822FF3CF3EEFF32EF80E2223E1F18F0135
:104D10000E5F1F4FD181D13108F041C0FD1608F45C
:104D20003EC08281D230D9F42281338132272327B9
:104D30003227953808F04AC0933808F052C09038AE
:104D4000C1F19138D1F5C90191DB80934322909351
:104D50004422019611F488EA55C0C0610EC095380E
:104D6000A8F5933808F048C0903829F5D13009F5F6
:104D70008A30B9F480934522C0622F2D2D1BF80193
:104D8000ED0FF11DBDCF8C2F8073803391F4C09354
:104D9000302280E037C087EA35C085E933C084E936
:104DA00031C08B3060F4823029F3843019F38823CA
:104DB00009F381EA27C09138E1F380EA23C0803803
:104DC000C9F28A38B9F28231A1F7D4CF9738A9F75E
:104DD0004D2F50E0B80181E392E20E94AD7DC064A6
:104DE000CCCFC90143DB80934122909342220196AC
:104DF00009F4B1CFC068C1CFD130D9F6882309F406
:104E0000BCCFD7CFDF91CF911F910F91FF90089525
:104E10002F923F924F925F926F927F928F929F92CA
:104E2000AF92BF92CF92DF92EF92FF920F931F93B8
:104E3000CF93DF93CDB7DEB78C017B012DB63EB6A5
:104E40008DB79EB78A5691408DBF9EBFADB7BEB796
:104E500011963D01EDB7FEB7E85DF109EDBFFEBF6C
:104E6000875D91095C0188EDD5011D928A95E9F76E
:104E7000F80182818111B2C083818111AFC080911C
:104E800030228770823011F085E9A9C04481433017
:104E900010F484E9A4C04B01BBE08B0E911C50E0E0
:104EA000B8016B5F7F4FC4010E94AD7DF701838520
:104EB0008C3779F7D80114968C91548457FC04C030
:104EC0008701035F1F4F09C08150B1E85B12E1CF3A
:104ED0008701025F1F4FF7015584252D30E090E0D8
:104EE000029728173907A9F6E1E0E51568F5D8011A
:104EF0002C9111968C9187FD03C0F801329608C061
:104F00005A94813831F6F8013396D80112968C9173
:104F10009EEF950D981708F4BCCF253861F48F01EA
:104F20000F5F1F4F2081243009F0B3CF8913B1CF19
:104F3000BDEF5B0E09C0203809F0ABCF8F01080F21
:104F4000111D592E581AD0CF40E060E070E0C30127
:104F5000DCDA882309F498CFC82ED12C9601220FD1
:104F6000331F852D90E02817390709F092CF2301D0
:104F7000FFED4F1AFEEF5F0AD2014C9150E0B801ED
:104F8000C5011DDAF201408150E0B8016C0D7D1DB4
:104F9000C501885B9F4F13DA0E9416328C0160E0D6
:104FA00070E080914322909144220E9423320F941A
:104FB000A702B301C5010E945B3E782E60E070E05D
:104FC000C8010E94233271105FCFA601B501C40150
:104FD000F6D9B601C7010E94851F01C086EA2DBE21
:104FE0003EBEDF91CF911F910F91FF90EF90DF9028
:104FF000CF90BF90AF909F908F907F906F905F9079
:105000004F903F902F9008957F928F929F92AF92F2
:10501000BF92CF92DF92EF92FF920F931F93CF93A5
:10502000DF93FC01EB01028183810E3919F48A3987
:1050300019F40AC0043859F0982F9D7F943809F06C
:105040002FC1702E00E004C090E8792E01C0782EA8
:10505000172D1F7709F024C1C980DA80BF01863877
:1050600021F06B5F7F4FB12C09C06A5F7F4FB58025
:1050700081E0C81AD108E2E8BE1621F01886198628
:1050800082E08A877E01FBE0EF0EF11C888599851E
:10509000A6018E0D9F1D0E94AD7D88859985C80E45
:1050A000D91EC886D98681E8B81609F4FFC0E2E89F
:1050B000BE1611F0B110F6C00E9416326C0160E00D
:1050C00070E080914322909144220E942332888490
:1050D00099845E01FFEEAF1AFEEFBF0AA401B7018B
:1050E000C5010E94AD7D043881F10E3919F001111E
:1050F000CEC03FC0809130228773833309F0D4C083
:1051000080914522843039F40F94A702A401BE0196
:10511000C501F3DA2CC0823031F0823131F08111D7
:10512000C3C010E003C012E001C011E00F94A70259
:10513000212FA701B501C40176DB009709F4B4C0A3
:10514000BC01CE010E94851F12C08091302287735E
:10515000843309F0A9C0FE01E45FFE4F80818038EE
:1051600009F097C020E0AE01B501C401E8DB182FBB
:1051700091C0711002C01B821C8280913022847306
:10518000843309F491C060EA80E090E00E947532B7
:10519000892B69F0FE01E45FFE4F8081803809F0C1
:1051A00078C021E0AE01B501C401C9DB39C00F945C
:1051B000A70220E0A701B501C40135DB8C01892BD2
:1051C00009F472C08091452281FF26C08B85811130
:1051D0006BC08C85823009F067C00C30110508F473
:1051E00063C003501109CE010D96FC010196208188
:1051F00021110EC0CE014596E817F90708F454C0F6
:10520000BF016F5F7F4FA801C7010E94AD7D04C041
:105210000150110951F748C0B801CE010E94851F05
:10522000182F811137C08091302287FF33C060E092
:1052300070E080914122909142220E9423320E948C
:105240006A32082F813421F0893111F0893261F5F9
:105250008E809F808EEF8816910430F5A401B701EF
:10526000C5010E94AD7DCE01815F9E4F20EAFC0109
:105270002083C05FDE4F8882013431F460E070E04B
:10528000CE010E94BB3306C00E94DF3203C014E986
:1052900001C011EA60E070E0C6010E94233206C03E
:1052A00016EA04C014E902C015E9F4CF812FDF919A
:1052B000CF911F910F91FF90EF90DF90CF90BF9013
:1052C000AF909F908F907F9008958F929F92AF9212
:1052D000BF92CF92DF92EF92FF920F931F93CF93E3
:1052E000DF93CDB7DEB77C018B01CDB6DEB6FC0116
:1052F000828181117EC0838181117BC00E946A32CC
:10530000982EF1E18F1304C0B801C701CFDB72C042
:10531000F7018481882311F085E96CC08DB79EB7B1
:105320008A5691408DBF9EBFEDB7FEB731967F0183
:105330000E945D325C01692D50D88111EDCF0F9430
:10534000A7024801FBE08F0E911CA501495F5F4F4A
:1053500083E0569547958A95E1F7B401C701D5D802
:105360008823D1F2B701C4010E94CE3E8111D4CF6F
:1053700057018FEDA81A8EEFB80AF501608170E031
:10538000C7018E5D9E4F0AD8F501408150E0B401FF
:105390004801F6EE8F0E911CC40111D8F5018081F1
:1053A00090E0AC01B8016D5A7F4F880D991D07D868
:1053B000C701805E9E4F22E4FC012083F501F0804E
:1053C0000E94DF32811116C0FF0C23E4C8018D5109
:1053D0009F4FFC0120833196F394F08224E03196B4
:1053E00020830E94DF32811105C066E8C80160D8C1
:1053F00001C086EACDBEDEBEDF91CF911F910F9135
:10540000FF90EF90DF90CF90BF90AF909F908F90E4
:105410000895EF92FF920F931F93CF93DF93FC01B8
:105420002281213009F09BC08381982F907B903B93
:1054300041F48F70DF91CF911F910F91FF90EF900A
:10544000B1C59FE7980F953038F4DF91CF911F9148
:105450000F91FF90EF90E4C8EB01803A61F1A0F466
:10546000813009F460C008F43EC0823009F46FC096
:10547000863809F074C060E3CE01DF91CF911F91AF
:105480000F91FF90EF9014C88A3AE9F058F4873AE8
:1054900008F065C0DF91CF911F910F91FF90EF90C1
:1054A0000C9495368C3A09F05AC02ED59B878C8780
:1054B00062E070E00FC061E0CE010B960E94857D36
:1054C00064E170E007C062E0CE010B960E94857D2A
:1054D0006BE070E0CE01DF91CF911F910F91FF90B3
:1054E000EF900C94851F82E98B871C8661E880E031
:1054F00090E0FBD7009799F133E0880F991F3A9518
:10550000E1F79D878E8763E880E090E0EED7009713
:1055100031F124E0880F991F2A95E1F79F87888B46
:1055200066E070E0D7CF7B01FBE0EF0EF11CC70116
:105530000E94C144082F10E00115110581F0000FF1
:10554000111FB801C7010E94CE21B801C3CF61E885
:10555000CE010B96CAD7009711F0BC01BBCF88EAE9
:10556000DF91CF911F910F91FF90EF900895FF92DF
:105570000F931F93CF93DF93EC018A81813011F059
:1055800086EACCC08B81803E51F40F94A702CE01F5
:105590000496DF91CF911F910F91FF90C6C69FEFA8
:1055A000980F9E3070F48C818051803210F080E72B
:1055B000B5C0CE010396DF91CF911F910F91FF905F
:1055C0001EC6FB0121813281232B89F390E8980FBD
:1055D0009C3018F0803A09F071C06FD78C01892B8C
:1055E00009F46EC077D7F82EF9E18F130CC0083399
:1055F0001105C9F1C8018F7780349105A1F10038F8
:105600001105A9F630C029E2821309C0C8018F7BB9
:105610008038910541F10115114049F624C0682FE9
:10562000C8010E94ED21811121C0095F1F4F83E055
:10563000169507958A95E1F7802F9B81973819F485
:1056400092E09B830BC0963809F09ACF000F81E05F
:10565000800F93E09B839D81943041F59C8198134A
:10566000A6CF0F94A702CE01039622C0E1E1FE125D
:1056700029C00115F3E01F0749F0C8019170892B7B
:1056800009F5C801925081309640E0F4FC80F0FEAC
:1056900003C08B818138C1F48B818838E8F483386A
:1056A000F0F4813821F1C8F58038B9F185E936C0C8
:1056B000DF91CF911F910F91FF9081C781EA2EC09A
:1056C00082EA2CC081E92AC09D819111EFCFFA9422
:1056D000FD828C832196E0CF8C3840F71EC0E0E13C
:1056E000FE9EC00111240817190709F060CF0F941E
:1056F000A7026F2D70E0CE0105960E94CE219B81FE
:105700002DE7290FCE010396223090F66F2DDF9101
:10571000CF911F910F91FF9086C980E0DF91CF91CB
:105720001F910F91FF9008955AD480E00895815001
:105730008E3028F421E3829FC001112408958FEF59
:105740009FEF0895FB01AC01485F5F4FDC013D9185
:10575000CD012191321749F0311103C02F3F51F48F
:1057600004C03F3F39F4211105C08417950771F734
:1057700080E0089581E00895CF93DF931F92CDB725
:10578000DEB741E06EEA72E0CE0101960E948349E5
:1057900099818EEF89270F90DF91CF910895CF9354
:1057A000DF931F92CDB7DEB79EEF89278983E4DFB1
:1057B0009981891739F041E06EEA72E0CE010196D5
:1057C0000E9497490F90DF91CF910895CF92DF9279
:1057D000EF92FF921F93CF93DF93CDB7DEB7E197A0
:1057E000CDBFDEBF7B01142FA2DF6C0197FF02C08B
:1057F0008FE052C041E3BC01CE0101960E94834973
:105800008111F6CF1123C9F08AA51FEF180F1E3F93
:1058100008F03FC0E114F10409F43EC0BE01675F27
:105820007F4FC7018FDF882329F01AA7111121C0EC
:1058300010E81FC08CA58AA71BC089A51FEF180FF1
:105840001E3F38F5E114F10441F49DA590FD02C01E
:1058500090E001C090E1892B1FC0BE016F5F7F4FB8
:10586000C70170DF882311F019A7E0CF8BA589A7A6
:1058700010E041E3B601CE0101960E949749111153
:105880000AC08DA585FD10E483FF05C0812F8062CD
:1058900003C080E801C0812FE196CDBFDEBFDF915C
:1058A000CF911F91FF90EF90DF90CF9008952F92AE
:1058B0003F924F925F926F927F928F929F92AF92A0
:1058C000BF92CF92DF92EF92FF920F931F93CF93ED
:1058D000DF93CDB7DEB7E697CDBFDEBF5C01562EB6
:1058E0007EAB6A012BABFC0164807580868097805B
:1058F000283071F4FA014080018110E0102F002758
:105900008281082BF3E0CF0ED11C4A944A940CC03C
:105910002BA92B3031F4FA0141906F01062F1EA9FB
:1059200003C0062F1EA9412C19A21AA2E12CF12CAA
:105930001DAA212C312C69A17AA14FE0CE014296FB
:105940000E94BF488CAB811100C148A147FD07C030
:10595000E114F10409F0E6C0E9A0FAA0E3C08A89E5
:105960009B898F3FFFEF9F0741F52BA92E3019F43C
:105970001A8A1B8AEDC03BA93A3051F4C101019645
:10598000F5018483958389A19AA18787908B13C0A1
:105990002BA9253041F43DA9332309F4E2C081E16C
:1059A000FE013196D8C04BA9433009F0DDC0512C1F
:1059B000F50140825182F1E0C9C02E893F8922164B
:1059C000330608F419015BA9593029F482169306AD
:1059D00009F0A6C0BDC0EBA9EF3029F402171307E8
:1059E00009F09EC0B5C0FBA9F330F1F4288D398DC4
:1059F0006216730609F094C081152FE3920709F42B
:105A00008FC02A8D3EA92327252109F089C04EE7A2
:105A1000441508F485C0F601908381834394960170
:105A20002E5F3F4F69017CC05BA95B30D1F44F71A1
:105A3000441276C069A17AA1615F7F4F442DCE01E7
:105A400083960E94BF4881116BC0442D50E0BE0177
:105A50006D5D7F4FC6010E94A07D892B09F060C05B
:105A600077C0488D598D64167506A1F54A8D4F7B18
:105A7000483339F4EBA9EC3009F46AC0E63061F43C
:105A800006C0FBA9FD3009F463C0F73029F40817FC
:105A9000190709F045C05CC00817190709F040C094
:105AA0004BA9453009F454C04A3009F451C048307C
:105AB000B9F5442009F44CC0F601008110E0102F24
:105AC00000278181082BF2E0CF0ED11C4A944A9422
:105AD000390126C00817190719F58BA9853001F57A
