:020000040000FA
:200000000C947A010C9484010C9484010C9484010C9484010C9484010C9484010C948401C2
:200020000C9484010C9484010C9484010C9484010C9484010C9484010C9484010C94840198
:200040000C9484010C9484010C946C240C9484010C9484010C94BA250C9484010C94840113
:200060000C9484010C9484010C9484010C9484010C9484010C9428240C9484010C94840191
:200080000C9484010C9484010C9484011E202FFCFFFFFEFFFFFFFFFFFFFFFFFFFFFFFFFF99
:2000A000FFFFFFFFFFFFFFFFFFFFFFFFFFFF1F20414136D08C5ED2BF3BA048AFE6DCAEBA10
:2000C000FEFFFFFFFFFFFFFFFFFFFFFFFFFFFFFF20209817F8165B81F259D928CE2DDBFC3A
:2000E0009B02070B87CE9562A055ACBBDCF97E66BE792120B8D410FB8FD0479C195485A607
:2001000048B417FDA808110EFCFBA45D65C4A32677DA3A481430FFFFFFFF00000000000003
:200120000000FFFFFFFFFEFFFFFFFFFFFFFFFFFFFFFFFFFFFFFFFFFFFFFFFFFFFFFFFFFFDE
:20014000FFFFFFFFFFFF15307329C5CC6A19ECEC7AA7B048B20D1A58DF2D37F4814D63C75F
:20016000FFFFFFFFFFFFFFFFFFFFFFFFFFFFFFFFFFFFFFFFFFFFFFFF1630B70A7672385E12
:20018000543A6C2955BF5DF20255382A5482E041F759989BA78B623B1D6E74AD20F31EC733
:2001A000B18E37058BBE22CA87AA17305F0EEA907C1D437A9D817E1DCEB1600AC0B8F0B51B
:2001C0001331DAE97C149A28BD1DF4F829DC9292BF989E5D6F2C26964ADE17360020FFFF9B
:2001E000FFFFFFFFFFFFFFFFFFFF00000000000000000000000001000000FFFFFFFF0120EB
:20020000512563FCC2CAB9F3849E17A7ADFAE6BCFFFFFFFFFFFFFFFF00000000FFFFFFFFB4
:20022000022096C298D84539A1F4A033EB2D817D0377F240A463E5E6BCF847422CE1F2D14D
:20024000176B0320F551BF376840B6CBCE5E316B5733CE2B169E0F7C4AEBE78E9B7F1AFE2E
:20026000E242E34F0618FFFFFFFFFFFFFFFFFEFFFFFFFFFFFFFFFFFFFFFFFFFFFFFF071804
:200280003128D2B4B1C96B1436F8DE99FFFFFFFFFFFFFFFFFFFFFFFF08181210FF82FD0A23
:2002A000FFF40088A143EB20BF7CF69030B00EA88D1809181148791EA177F973D5CD246B12
:2002C000ED11106378DAC8FF952B19070C0F3021300906052B0E03021A050004140D144F1F
:2002E00073454944040210313438333039313235300000FF11241FBECFEFD0E1DEBFCDBFF9
:200300000E946F770C94E1770C940000CF93DF9300D000D01F92CDB7DEB78C839D830E94AE
:2003200063249D8199838C818A8362E0CE0101960E9472230F900F900F900F900F90DF9178
:20034000CF910895662339F09C0122272115314611F480E090E90C9486018091060290911C
:200360000502892B19F086E89AE609C080910702882319F080E097E602C00E94B8120C9489
:20038000860161E001960C947223CF93FC01C4816C2F05960E949C2391E0C81301C090E011
:2003A000892FCF910895EF92FF920F931F93CF93DF9300D0CDB7DEB76FEF83E092E00E9490
:2003C0009C238093020290910302903809F486C218F4992391F19AC2903A09F46FC29F3F98
:2003E00009F094C2823008F49DC22091040226FD02C063E001C064E025FD6F5F24FD6F5FDE
:20040000681390C283E092E0FC0130E0419134274E2F481B4617D0F3311184C22F7409F0DC
:2004200081C283E092E00F900F90DF91CF911F910F91FF90EF900C947223853009F063C230
:2004400080910402803C09F4A1C190910102913011F410920102863409F4B4C0C0F4843246
:2004600009F468C050F4803209F442C0823209F459C08E3009F047C224C08C3209F484C0F5
:20048000843409F499C08A3209F03DC26AC08A3C09F4C7C150F4843A09F4B9C0803B09F4F5
:2004A0005FC1843809F02FC293C08A3D09F4E2C120F4863D09F4BDC126C2803E09F002C207
:2004C000E1C180910502813818F086E89AE620C290910702992319F080E097E619C290E0BA
:2004E000982F882720910602822B0E94671210C2809105028111E9CF80910702882369F0B3
:2005000083E092E00E94C10183E092E00E94C501882319F084E899E6FBC186E092E00E9490
:20052000040EF6C140E051E065E083E092E00E949805EEC1809105028111C7CF809107023F
:20054000882351F283E092E00E94C10183E092E00E94C5018111DECF86E092E00E94A50DCC
:20056000D7C140E051E065E083E092E00E941006811520E9920709F4CBC189839A830E9434
:20058000560F9A818981C4C18091050281119DCF80910702882309F49FCF83E092E00E948F
:2005A000C10183E092E00E94C5018111B3CF86E092E00E94790EACC165E083E092E00E94FE
:2005C0009809A6C165E083E092E00E945E07A0C180910502811179CF80910602811175CFB0
:2005E00010910702193008F077CF111101C018E0612F80E091E00E94DF258111F9CF1093EB
:20060000000281E080930102812F90E005C1809106028C3021F0811158CF10E001C011E03A
:2006200090910702911113C090910502911107C0811152CF80E091E00E94241086C0933027
:2006400009F04ACF80E091E00E94DE0F7EC083E092E00E94C10183E092E00E94C5018111E2
:2006600059CF809105028E7F883011F580910702823020F487E89AE60E948601809107025D
:2006800080FF04C087E89AE60E9486018091050260E071E080FF05C087E092E00E945B102C
:2006A00004C087E092E00E947210612F0E94A2018091050290910702843069F491509031AF
:2006C00018F087E89AE624C160E071E087E092E00E94F60F3AC09230A1F7833008F0F5CE6B
:2006E000E0900802F12CFE2CEE2490910902E92A811115C080910602811109C0E1148FE3A6
:20070000F80629F480E091E00E94241005C060E071E0C7010E942D10612F0E94A201809134
:200720000502813041F460E071E0C7010E940D10612F0E94A20180910502823009F0F2C06A
:2007400060E071E0C7010E944410612F0F900F90DF91CF911F910F91FF90EF900C94A2010B
:2007600080910502813808F0B0CE60910702662309F4B2CE70E090E0982F88272091060243
:2007800040E051E0822B0E94B311C2C08091050281119BCE80910602811197CE809101023C
:2007A000813019F085E899E6B3C0E0900702F12C0091000210E0E114F10419F4E12CFF24E0
:2007C000F3940115110531F00E151F0528F4C8019C669EC000E011E083E092E00E94C101AF
:2007E0006E2D80E091E00E9472230E191F0919F4109201020BC0D701A050BF4FCD01E0E026
:20080000F1E02D912193E817F907D9F700930002002321F0C801992791667AC080E090E96A
:2008200077C040E051E065E083E092E00E942F086FC080910502813808F047CE8091070216
:20084000882309F449CE83E092E00E94C10183E092E00E94C50181115DCE6091050270E05E
:20086000762F662780910602682B87E092E00E9413124EC040E051E065E083E092E00E94DF
:20088000E70846C08091050281111FCE8091060281111BCE80910702882309F41DCE83E028
:2008A00092E00E94C10183E092E00E94C501811131CE87E092E00E9444132AC0853019F515
:2008C00080910402843EF9F40F900F90DF91CF911F910F91FF90EF900C94AD01853010F1E2
:2008E000809104028A3D79F4809105028111EDCD809106028111E9CD809107028111E5CD8A
:200900000E94071105C080E09FE602C080E09EE60F900F90DF91CF911F910F91FF90EF9061
:200920000C9486010F900F90DF91CF911F910F91FF90EF900895109201020895DC01A60FB3
:20094000B71FFC01769567956E0F7F1FE617F70729F080819E9191938C93F8CF08958F9296
:200960009F92AF92BF92CF92DF92EF92FF920F931F93CF93DF93EC0186E291E0FE019C0146
:20098000119221503040E1F7611108C062E0CE0180519F4F0E94BE108C0102C0062F10E00D
:2009A00008311105E1F488E1FE01EB5DFE4F808366E0CE010E94BD7367E0CE01C0960E941E
:2009C000BD7368E0CE01805A9F4F0E94BD7369E0CE0180579F4F0E94BD7381E45EC00032D2
:2009E0001105E9F50E94B310FE01EB5DFE4F9E01205D3F4F4901205D3F4F5901205D3F4FA6
:200A000069012C563F4F79018232A1F080E280836EE1CE010E94BD736FE1C4010E94BD7361
:200A200060E2C5010E94BD7361E2C6010E94BD7384E813C080E2808360E0CE010E94BD737B
:200A400061E0C4010E94BD7362E0C5010E94BD7363E0C6010E94BD7382E4F70121C0003396
:200A6000110539F580E3FE01EB5DFE4F808364E1CE010E94BD7365E1CE01C0960E94BD7315
:200A800066E1CE01805A9F4F0E94BD7367E1CE0180579F4F0E94BD7383E4FE01EC5DFE4FFC
:200AA0008083B801CE0180519F4F0E949E04802F01C080E0DF91CF911F910F91FF90EF90AA
:200AC000DF90CF90BF90AF909F908F900895CF93DF93EC018B81873811F482E003C086385B
:200AE00051F483E08B830E945824CE010396DF91CF910C94321185E899E6DF91CF910895AE
:200B00000F931F93CF93DF938C010E94BE10EC01BC01C8010E949E04CF3FD10519F010F00C
:200B2000C0E0D0E08C2FDF91CF911F910F910895CF93DF93EC0110920703009709F465C0C7
:200B40008A81833F39F48C81882309F461C087E89AE663C0813409F05EC08B81863B19F011
:200B6000883B09F058C08C81811106C06C8170E0A0E080E090E010C0CE010E94C101CE01DD
:200B80000E94C501882391F384E899E646C030E02E5F3F4F820F931F86179707E0F5FE0150
:200BA000E80FF91F35812681303889F4A160213091F53781323041F018F4332329F02BC05B
:200BC000343011F0323139F530930A0318C0313871F4A2602230F9F4478150E0542F442782
:200BE0003085432B509309034093080308C0343831F4A460213079F4378131110CC0A7304D
:200C000031F68B818093070303C080E090E005C080E090E902C081E89AE6DF91CF9108953B
:200C2000CF92DF92EF92FF920F931F93CF93DF931F92CDB7DEB76C018A01DC0112968C9144
:200C400012978E3909F065C013968C9113978A3909F028C114968C91882309F41DC1C601DD
:200C60000E94C101C6010E94C501811118C180910703863B09F05AC00E94D90F2091080341
:200C8000309109038217930709F050C080910A03843069F40E945824B801C60104960E9442
:200CA000E873882309F442C0F801F395F1C0823031F0823131F0811129C020E003C022E016
:200CC00001C021E0F601E480F12CB6016B5F7F4FA701C60129830E9497770E9458242981F8
:200CE000A801B601C7010E94C8740097F9F0F801F395811521E0920711F4108201C0808362
:200D0000D801AF5FBE4F81E08C93C2C081E89AE6CBC0803809F0C6C0D60113968C918638D7
:200D200009F0C0C080910703883B19F085E899E6BBC0F6018481813408F4AEC0C6010E9468
:200D4000C101C6010E94C5018111A9C0D60115968C9115978138D1F4F801F39514968C9196
:200D600014978150808314964C9150E041505109B6016A5F7F4FC8010E948E77F801EF5F4D
:200D8000FE4F82E0808380E090E98EC0823821F5F801EF5FFE4F8081823009F080C0108298
:200DA0003197E080F12CF601448150E0B6016A5F7F4FC8018E0D9F1D0E948E77F1E0EF1A13
:200DC000F108D60114968C91E80EF11CA701B801C6010E948E770FC0811161C0F601E480CD
:200DE000F12CF1E0EF1AF108B6016A5F7F4FA701C6010E9497770E94582420E0A801B60118
:200E0000C7010E94C874009709F490CF20910A03223069F5D8012C91211129C011962C91B6
:200E2000223029F58C30910550F17C01B3E0EB1AF10898012E5F3F4FF9012F5F3F4F408116
:200E400041110FC09801245F3F4FE217F30778F0BF016F5F7F4FA701C8010E948E77C70130
:200E600006C0E1E0EE1AF108E114F10429F78115F1E09F0721F4F801F395108203C0F801EF
:200E8000F3958083F801EF5FFE4F81E080833197808190E0916608C080E097E605C084E8C9
:200EA00099E602C086E89AE60F90DF91CF911F910F91FF90EF90DF90CF9008950F931F9377
:200EC000CF93DF93CDB7DEB7CB54D2400FB6F894DEBF0FBECDBF8C01FC0182818111AFC01F
:200EE00083818111ACC08481811105C0F8018481811117C00AC0C8010E94C101C8010E94CB
:200F0000C501882399F384E89DC00E94A5108C018F3FFFEF9F0709F490C00E94B31082325F
:200F200011F085E88FC0C8018F778115914019F0003C1105B1F70E945824B80113E07695E6
:200F400067951A95E1F7CE0101960E94AF04882341F30AE112E00C0F1D1F0E5F1F4FAE01B6
:200F60004F5F5F4FBE0166577E4FC8010E941B1F8111D7CFCA5DDE4F6881C652D14070E039
:200F8000C8010E949E04CA5DDE4F4881C652D14050E0BE0166577E4F87E291E08C0F9D1F54
:200FA00003960E94D973CA5DDE4F4881C652D14050E0CA010396BE0166547E4FE7E2F1E0F0
:200FC000EC0FFD1F8E0F9F1F0E94D97382E4C65EDD4F8883CA51D240CA5DDE4F8881C6524E
:200FE000D140C55EDD4F8883CB51D240CE01865E9D4F0E9432118115F0E99F0721F583E442
:20100000C95DDE4F8883C752D140CA5DDE4F8881C652D140880F8F5FC85DDE4F8883C852C6
:20102000D14084E0C75DDE4F8883C952D140CE01895D9E4F0E94321106C082E801C086E8CD
:201040009AE601C099E6C55BDD4F0FB6F894DEBF0FBECDBFDF91CF911F910F910895EF92FF
:20106000FF920F931F93CF93DF93EA01FC011281113009F0A0C0FC018381863809F486C0A0
:2010800040F4813009F44FC018F1823009F471C092C0803A79F008F48EC0843A08F08BC0B6
:2010A000BA01815ADF91CF911F910F91FF90EF900C94F1146DE0CA010E94BD73FE01F39556
:2010C00084E18083CF5FDE4F188384E191E678C082E98883198261E880E090E00E94BE1004
:2010E000009709F468C023E0880F991F2A95E1F79A838B8363E880E090E00E94BE100097FE
:2011000009F459C004E0880F991F0A95E1F79C838D83FE01F39586E08083CF5FDE4F1883FA
:2011200086E091E64DC060E8CA010E94BE108C010097B1F468E8CE010E94BE107C010097D6
:20114000D1F169E8CE018E0D9F1D0E94BE10009791F1E80EF91EE114F1E0FF0609F0870174
:20116000FE01F3950083CF5FDE4F81E08883C80120C061E8CA010E94BE100097E1F0FE010A
:20118000F3958083CF5FDE4F188313C063E0CA0102960E94BE10009789F020E3288322E025
:2011A000280F2983FE01EF5FFE4F1083D39528830296916605C088E89AE602C085E899E61A
:2011C000DF91CF911F910F91FF90EF9008950F931F93CF93DF93EC018C81811105C08A81C0
:2011E000813009F098C00BC0CE010E94C101CE010E94C501882399F384E899E694C08B8136
:20120000803E71F48C81883009F088C00E945824CE010796DF91CF911F910F910C945B0FF1
:201220009FEF980F9E3068F48C818051843008F075C0CE010396DF91CF911F910F910C9468
:20124000E10E80588C3008F06CC00E94A5108C01009709F45AC00E94B310833259F40115D8
:20126000114009F055C0CE01DF91CF911F910F910C946705823269F4003C1105A1F3C80154
:201280008F778115914079F30930124009F040C0EACF8131E9F5C801925081309640C0F5C1
:2012A0008C8180FF0AC09B81913839F02D81211129C081508D839C8321969B819138A1F0D4
:2012C00038F49038F9F428E0829FC00111240DC093589730B8F420E1829FC001112481301A
:2012E00028E0920778F401C0C8010817190751F40E945824CE010396DF91CF911F910F912D
:201300000C94321185E899E60EC082E89AE60BC081E899E608C088E89AE605C080E097E639
:2013200002C081E89AE6DF91CF911F910F910895CF93DF93EC018C81811105C00E94A20DCF
:2013400080E090E90AC0CE010E94C101CE010E94C501882399F384E899E6DF91CF910895F1
:20136000FB0120E0DC014D91CD013191431731F0243048F0411107C03F3F29F42F5F283085
:2013800089F780E0089581E00895CF93DF931F92CDB7DEB741E06EEFCE0101960E94A624E4
:2013A00099818EEF89270F90DF91CF910895CF93DF931F92CDB7DEB79EEF982799830E9432
:2013C000C5099981891731F041E06EEFCE0101960E94B4240F90DF91CF910895EF92FF92E8
:2013E0000F931F93CF93DF93CDB7DEB764970FB6F894DEBF0FBECDBF8B01E42E815092E188
:20140000899FF02C112442E16F2DCE0101960E94A62481115CC02989EE2061F101151105D6
:2014200029F422952F708FE0821B54C0822F807F803F09F44EC0BE01675F7F4FC8012C8BCC
:201440000E94B0092C89322F3F70882379F022952F702F5F2F70922F9295907F932B998BFC
:201460001FE0121B11112BC01FEF29C09A89907F932B23C00115110521F4822F80958F7063
:2014800029C0322F3F703F3021F1BE016F5F7F4FC8012C8B3B8B0E94B0092C89207F3B89BE
:2014A000882341F091E0930F9F70292B298B1FE0191BD8CF9A899F70922B998B10E042E126
:2014C0006F2DCE0101960E94B424812F03C08FE001C08FEF64960FB6F894DEBF0FBECDBF2E
:2014E000DF91CF911F910F91FF90EF9008950F931F93CF93DF9300D0CDB7DEB7082F162F94
:2015000042E06CEFCE0101960E94A624811120C0015021E030E002C0220F331F0A95E2F7EB
:2015200089819A81113029F4209530952823392302C0282B392B3A83298342E06CEFCE01D9
:2015400001960E94B42491E0811103C090E001C091E0892F0F900F90DF91CF911F910F91FC
:2015600008951F93CF93DF9300D0CDB7DEB7182F42E06CEFCE0101960E94A624115021E067
:2015800030E002C0220F331F1A95E2F789819A812823392381E0232B09F080E00F900F905C
:2015A000DF91CF911F910895CF93DF93EC018FE6888387E1898380911B0385FF02C081E87B
:2015C00001C080E88A8382E08B8390910F03209110032C839D8392E89E8391E09F832091C0
:2015E0001503288723E829878A8720910D0330910E033B872C8726E82D8723E02E87209125
:2016000016032F8720911703288B20911803298B25E82A8B8B8B8091190320911A032C8B73
:201620008D8B8AE88E8B9F8B0E94C509888F40911B034F7161F489818E5FFE01F3958083D1
:20164000CF5FDE4F91E0988390E0916615C089818E5F840F898384E8898F4A8F60911C0364
:2016600070911D03615F7F4FCE014B960E94E124813009F78FEF9FEFDF91CF9108952F9279
:201680003F924F925F926F927F928F929F92AF92BF92CF92DF92EF92FF920F931F93CF9317
:2016A000DF93CDB7DEB7E3970FB6F894DEBF0FBECDBF6C015B018A01FC01648075808680AE
:2016C0009780273069F4FA012080A180B12CBA2CAA248281A82A0D5F1F4F2A942A9407C000
:2016E0002A3021F4FA0121908F0101C0212C1AA219A2312C412C512C69A17AA14FE0CE0150
:2017000042962BAB0E94E1242BA98111DDC0EA88FB88FFEFEF16FF06F9F4293059F43FEFC3
:20172000431A530AF6015582448289A19AA1908B8787D6C0243039F4332009F4D1C081E173
:20174000FE013196C6C0243008F0CAC0822D90E0F60191838083C4C04E895F894416550642
:2017600008F42A01283021F44815590509F4AEC06A8D683311F472E001C071E0888D998D79
:201780008615970581F4E114FFE3FF0661F0722B733049F43EE7321530F0F801F082E18299
:2017A00023940E5F1F4FEA14FB0409F059C02430F1F48815990551F4FE017296DE01119642
:2017C00071E101900D927A95E1F70FC04815590571F431100AC0FE017296DE01119671E1C7
:2017E00001900D927A95E1F702C03324339486159705B9F5683311F472E001C071E0E11414
:20180000FFE3FF0661F0722B733049F43EE7321530F0F801F082E18223940E5F1F4F2430D3
:2018200009F454C0293009F451C0273081F4222009F44CC0F801E080F12CFE2CEE24818165
:20184000E82A0E5F1F4F2A942A943A010AC0683319F4253019F43AC02630C1F13C0101C010
:20186000750188A18F7199F489A19AA10F9648A1542F5F71850F911D9AA389A346FD22C026
:201880004C895D89480F591F5AA349A31BC02A3059F769A17AA1615F7F4F422DCE01839646
:2018A0002BAB0E94E1242BA98111DECF422D50E0BE016D5D7F4FC8010E9481772BA9892BB7
:2018C00099F604C0570118CF82E00BC081E1FE017296D60101900D928A95E1F780E001C0C1
:2018E00081E0E3960FB6F894DEBF0FBECDBFDF91CF911F910F91FF90EF90DF90CF90BF907C
:20190000AF909F908F907F906F905F904F903F902F9008950F931F93CF93DF9300D000D06B
:20192000CDB7DEB720E03FE330930E0320930D0310921403109213031092120310921103F7
:2019400020E430E03093100320930F0328E320931503009759F0FC0180819181A2818093DC
:20196000160390931703A093180309C081E1809316038FE3809317038FEF8093180382E0BF
:2019800090E090931A038093190380911B03807E8364806280931B034FE060E070E08DE015
:2019A00093E00E94EB2480EF89838DE48A8386E48B8343E06FE070E0CE0101960E94EB24B9
:2019C0008FEF8C8300E010E041E0602FCE0104960E94B4240F5F1F4F0115F1E01F07A1F796
:2019E00081E00E94D7090F900F900F900F90DF91CF911F910F910895CF93C82F0E94C50902
:201A00008730B9F4CC23A9F0CF30A9F041E050E0C15019F0440F551FFBCF20910B033091C6
:201A20000C032423352381E090E0232B31F080E004C080E001C081E090E0CF9108952091F4
:201A40000D0330910E032F3F3F4FC1F0833019F48091160309C0843019F4809116030AC08F
:201A6000853021F480911703829504C0863031F4809117038F700E94FC0C089581E008954C
:201A8000DF92EF92FF920F931F93CF93DF9300D0CDB7DEB77C01D62E2FEF621709F447C096
:201AA00080910D0390910E03019609F440C080911503813119F082528230C8F500910F0375
:201AC0001091100380911C0390911D030F96F701918380830330110554F1F70160817181D4
:201AE00042E0CE0101960E94E124811120C089818F3FC9F08D15C9F06A81262F30E0C9013F
:201B00000296F70140815181840F951F9183808302501109021B130B6111DCCF9395918344
:201B200080831A95D7CF80E003C081E001C082E00F900F90DF91CF911F910F91FF90EF903A
:201B4000DF90089587E00C94D709FF920F931F93CF93DF93CDB7DEB762970FB6F894DEBFD9
:201B60000FBECDBF8C01FC01F08081818031D9F540E0B8016E5F7F4F8F2D0E94EE098F3FFA
:201B8000A9F1882329F08F7090E0806C936630C060E0F80180810E94770A882319F08FEC17
:201BA00093E626C0FA9482E1F89EF02C112442E16F2DCE0101960E94A6248111F0CF88E0A4
:201BC000F8013A96DE01119601900D928A95E1F742E16F2DCE0101960E94B4248111DFCFB0
:201BE00080E090E905C080E097E602C083E899E662960FB6F894DEBF0FBECDBFDF91CF91AF
:201C00001F910F91FF900895FF920F931F93CF93DF93CDB7DEB728970FB6F894DEBF0FBEFC
:201C2000CDBF8C01FC01F0808181811114C040E060E070E08F2D0E94EE09182F8F3F19F48F
:201C400083E899E64AC08F2D0E94B10A882371F185E899E642C0893018F088E0F801818356
:201C600048E050E06FEF70E0CE0101960E94A977F801418150E0B8016E5F7F4FCE01019691
:201C80000E948E7740E0BE016F5F7F4F8F2D0E94EE09182F8F3FA1F28F2D0E94B10A81117A
:201CA000D7CF111103C021E030E006C01F70812F90E0806C936611C0FA9419F0220F331F43
:201CC000FBCF80910B0390910C03822B932B90930C0380930B0380E090E928960FB6F89445
:201CE000DEBF0FBECDBFDF91CF911F910F91FF900895FF920F931F93CF93DF93CDB7DEB7D0
:201D000062970FB6F894DEBF0FBECDBF8C01FC01F0808181811108C041E060E070E08F2DC0
:201D20000E94EE0990E041C08031D1F541E0B8016E5F7F4F8F2D0E94EE098F3FA1F188234D
:201D400029F08F7090E0806C93662FC0FA9482E1F89EF02C112442E16F2DCE0101960E9488
:201D6000A624882319F08FEC93E61FC088E0F8013A96DE01119601900D928A95E1F78A8921
:201D80008F709989907F982B998B42E16F2DCE0101960E94B4248111E6CF80E090E905C0A8
:201DA00080E097E602C083E899E662960FB6F894DEBF0FBECDBFDF91CF911F910F91FF90AC
:201DC0000895FF920F931F93CF93DF93CDB7DEB762970FB6F894DEBF0FBECDBF8C010E9425
:201DE000C509813009F04EC0F801F0802181203108F44BC088E03296DE01119601900D9214
:201E00008A95E1F788E0F8013A96DE01199601900D928A95E1F783E38A8B898B203119F1FB
:201E2000F8013289313108F03FE030953F709A89907F932B9A8B2131B1F0F80133893131E2
:201E400008F03FE030953295307F9A899F70932B9A8B223141F0F801848980FF04C061E00D
:201E60008F2D0E94770AFA9482E1F89E602D112442E1CE0101960E94B424882349F081E8EA
:201E800095E608C082E899E605C080E097E602C080E090E962960FB6F894DEBF0FBECDBF9A
:201EA000DF91CF911F910F91FF90089510920C0310920B0308950F931F93CF93DF938C0123
:201EC000109212031092110325E040E050E060E07FE38DE093E00E943F0B882319F0C0E07E
:201EE000D0E012C080910D0390910E03019619F482E899E618C08091170382958F700E94C5
:201F0000FC0C882361F3F4CF60E071E0CE010E945E251816190614F4D395F6CFC8010E9485
:201F20008A0C80E090E9DF91CF911F910F9108950F931F93CF93DF931F92CDB7DEB70FEF85
:201F400010E041E0612FCE0101960E94A624898108231F5FB1F70F3FA9F429E040E050E06F
:201F60006FEF7FEF8DE093E00E943F0B813051F480911C0390911D03892B21F480E090E0C9
:201F80000E948A0C10920C0310920B03109212031092110325E040E050E060E07FE38DE0D7
:201FA00093E00E943F0B0F90DF91CF911F910F91089580910D0390910E030895CF93DF93A2
:201FC000EC0128E040E050E060E070E08DE093E00E943F0B811105C0CE01DF91CF910C94CA
:201FE000D40A82E89AE6DF91CF910895CF93DF93EB012AE0AC0160E070E08DE093E00E9423
:202000003F0B811105C0CE01DF91CF910C94D40A82E89AE6DF91CF910895CF93DF93EB01EB
:2020200025E040E050E0BC018DE093E00E943F0B811105C0CE01DF91CF910C94D40A82E8E4
:202040009AE6DF91CF9108951092120310921103BC0180E09FE30C940D10CF93DF93EB010A
:2020600024E040E050E0BC018DE093E00E943F0B811105C0CE01DF91CF910C94D40A82E8A5
:202080009AE6DF91CF910895CF93DF93EB0126E040E050E0BC018DE093E00E943F0B811122
:2020A00005C0CE01DF91CF910C94D40A82E89AE6DF91CF910895CF93DF93EB0127E0AC0173
:2020C00060E070E08DE093E00E943F0B811105C0CE01DF91CF910C94D40A82E89AE6DF91D6
:2020E000CF9108950F931F93CF93DF93CDB7DEB761970FB6F894DEBF0FBECDBF8B011E8237
:202100001D8227E0AC0160E070E0CE0101960E943F0B81110DC081E1FE013196ADE0B3E0E3
:2021200001900D928A95E1F7C8010E94D40A02C082E89AE661960FB6F894DEBF0FBECDBF45
:20214000DF91CF911F910F91089580910D0390910E03019629F080910F03909110030895CB
:202160008FEF9FEF089580910D0390910E03019619F08091150308958FEF08950F931F938E
:20218000CF93DF9300D000D0CDB7DEB78C0183E06C830E941F0D6C81882319F080E090E094
:2021A0002DC06F7BCE0101960E94400D8130B1F769817A816F5F7F4F7A83698341E0CE0140
:2021C00003960E94E1248111E9CF69817A816F5F7F4F7A8369834B81413800F701151105A3
:2021E00029F48B81882341F090E008C0C8010E94E1248823B1F3D2CF80E091E00F900F9033
:202200000F900F90DF91CF911F910F91089584E00E941F0D811105C080911503833249F41F
:202220001EC086E00E941F0D8823B1F382E899E60895823289F483E28093150360911C03E6
:2022400070911D034FE08DE093E00E94EB24882331F081E895E6089585E899E6089580E067
:2022600090E90895EF92FF920F931F93CF93DF9300D0CDB7DEB78C01E0901903F0901A036F
:20228000FC01818181508E3F18F084E899E662C0F801808186FF0AC08F7B808386E00E942E
:2022A0001F0D811108C06894F1F808C084E00E941F0D882319F082E899E64CC0F801608136
:2022C000CE0101960E94400D8111DFCFF8018081823021F0803811F0893811F46894F0F849
:2022E0008091190390911A03E816F906B1F469817A81F801418180911C0390911D039B0124
:20230000281B390BC901840F911D20910F033091100328173907E0F012C0F0921A03E09262
:20232000190360911C0370911D034FE08DE093E00E94EB248823D9F281E895E60BC04E5FBE
:20234000C8010E94EB248130B9F380E090E902C080E09BE60F900F90DF91CF911F910F91CC
:20236000FF90EF900895BF92CF92DF92EF92FF920F931F93CF93DF936C01EB017A01809170
:202380000D0390910E03019641F0B090150381E0B81631F085E899E63CC086E899E639C0BD
:2023A00083E00E941F0D811132C080910F039091100396012C0F3D1F8217930710F100911E
:2023C0001C0310911D03015F1F4F80911B038F71080F111DAE016FEF70E0C7010E94A977F4
:2023E000F701F395C0833196B082B8016C0D7D1D4C2FC7010E94E124813031F0CE019166D3
:2024000008C082E892E605C081E892E602C082E899E6DF91CF911F910F91FF90EF90DF9024
:20242000CF90BF900895EF92FF920F931F93CF93DF931F92CDB7DEB77C018B01FC01408186
:2024400080910D0390910E03019639F080911503813031F085E899E632C086E899E62FC0B4
:2024600084E049830E941F0D4981811126C080910F03909110039801240F311D8217930778
:20248000B0F060911C0370911D03615F7F4F80911B038F71680F711D600F711FC70101964B
:2024A0000E94EB24813031F481E895E608C080E09BE605C080E090E902C082E899E60F9020
:2024C000DF91CF911F910F91FF90EF900895EF92FF920F931F93CF93DF937C0180910D0359
:2024E00090910E03019639F080911503813031F085E899E636C086E899E633C084E00E9427
:202500001F0D81112CC000910F03109110030E151F05F8F00E191F09C0911C03D0911D034B
:202520002F9680911B038F71C80FD11DCE0DDF1D0115110559F0B801CE010E945E2597FD55
:202540000BC0081B190BC80FD91FF2CF80E090E908C080E09BE605C081E895E602C082E882
:2025600099E6DF91CF911F910F91FF90EF900895DF92EF92FF920F931F93CF93DF93CDB7E2
:20258000DEB761970FB6F894DEBF0FBECDBF80910D0390910E03019609F460C08091150337
:2025A0008833D9F48091190390911A03029719F485E899E65BC08091170382958F700E9498
:2025C000FC0C811107C080911B0386FF0AC00FE010E00DC082E899E649C085E00E941F0D4B
:2025E000F0CF00910F0310911003015F1F4F8F71D82EE0901C03F0901D0329E040E050E069
:202600006FEF7FEFCE0101960E943F0B813081F60D0D111DC8018E0D9F1D2889398928175A
:20262000390731F628E040E050E060E070E08DE093E00E943F0B811114C00115110559F0A4
:20264000B801C7010E945E2597FD0EC0081B190BE80EF91EF2CF80E090E908C086E899E6CF
:2026600005C082E89AE602C081E895E661960FB6F894DEBF0FBECDBFDF91CF911F910F91A7
:20268000FF90EF90DF9008956F927F928F929F92AF92BF92CF92DF92EF92FF920F931F93F2
:2026A000CF93DF93CDB7DEB7A1970FB6F894DEBF0FBECDBFFC0180910D0390910E030196C7
:2026C00009F472C180911503883309F06DC18091110390911203998F888F8081823008F476
:2026E00066C19181923609F062C1528190E00296252F30E0821793070CF459C1339688A13F
:20270000807E8F7D88A3B0E020E09C888D88AA8DBA88AB88CB8CDC8CED8C8F71F82E60E071
:2027200070E000E010E05130A9F488A1B0FB85F929A39C8A8D8AAA8FBA8AAB8A7F8F6E8F43
:20274000CB8EDC8EED8E807E8F2988A380818823A1F02DC15230B0F488A1B0FB85F929A3EB
:202760009C8A8D8AAA8FBA8AAB8A7F8F6E8FCB8EDC8EED8E807E8F2988A389A18F3009F05E
:2027800016C196C04181442339F3413108F00FC1842F90E00196652E712C861597050CF060
:2027A00006C18081833809F444C060F48038D9F020F4882309F477C0FAC0813879F0823837
:2027C00031F1F5C0853809F451C008F461C0863809F456C08A3809F462C0E9C0423009F074
:2027E000E6C0B1E003C0433008F0E1C020FDDFC0922F9160228130E0413021F0322F222786
:202800008381282B37FDD3C0922E832E4BC0453008F0CDC0922F9260A2818A2F8F7E8130D7
:2028200009F440C08EED8A0F8230E0F1A833D1F1BEC0423009F0BBC0922F9460228130E09B
:20284000322F22278381282B2F3F8FE3380709F4AEC021158FE3380709F4A9C02F3F8FEFB4
:20286000380709F4A4C0B22EA32E1CC0423009F09EC0628170E0762F66278381682B13C093
:20288000433008F494C0E480D380C28028600BC08F010F5F1F4F842F8F71F82E04C04130AF
:2028A00011F085C0292F4E5F541BE40FF11D3BCF9A8D88A1983379F5806488A385FF77C000
:2028C000809116038F700E94FC0C882319F082E899E672C02AE0A80160E070E0CE010196AD
:2028E0000E943F0B8823A1F081E1EDE0F3E0DE01119601900D928A95E1F76A897B8929E001
:2029000040E050E0CE0101960E943F0B8130C9F089E89AE651C08F7B88A3933229F08E8D7B
:202920009F8D907F9F8F8E8F0115110509F03FC08091160382958F700E94FC0C8111C7CFDB
:20294000D3CF8D819E819F8B8E8B688979898C899D89680F791F6F5E7F4F88A18F71680FED
:20296000711D41E0CE0181960E94E124882319F085E899E621C0688979894FE0CE014296D1
:202980000E94EB248111F4CF0115110599F048A14F7168897989615F7F4FC80101960E9450
:2029A000EB248111E5CF06C082E89AE605C084E899E602C080E090E9A1960FB6F894DEBFA2
:2029C0000FBECDBFDF91CF911F910F91FF90EF90DF90CF90BF90AF909F908F907F906F90B8
:2029E00008950F931F93CF93DF93CDB7DEB761970FB6F894DEBF0FBECDBF8B0120910D036D
:202A000030910E032F3F3F4F19F482E89AE62EC09091150398739833C1F7833008F080E031
:202A200091E1EDE0F3E0DE01119601900D929A95E1F723E0281BA80160E070E0CE010196E2
:202A40000E943F0B813009F729813A812115310559F0F801EF5FFE4F8083220F319720838C
:202A6000822F90E0916602C080E090E961960FB6F894DEBF0FBECDBFDF91CF911F910F9145
:202A8000089520912303382FFC018E2F831B821728F481918823C9F380E0089581E00895DA
:202AA00020912303FC013081313059F4319681E0821728F48F5F91919923D1F302C081E053
:202AC000089580E00895CF93DF93EC014091230350E060E070E00E94A97781E08883DF9146
:202AE000CF9108950F931F93CF93DF93EC0189010E94E63E882349F0A801BE01CE01DF91E9
:202B0000CF911F910F910C948D3EDF91CF911F910F9108959B01BA0140912303413218F014
:202B2000A9010C949A3F493118F0A9010C94974AA9010C946F3FEF92FF920F931F93CF9305
:202B4000DF93CDB7DEB7C056D1090FB6F894DEBF0FBECDBF8C017901CE0101960E948A1505
:202B6000B701CE0101960E94E76F4091230350E060E070E0C8010E94A9774091230350E0D6
:202B8000BE016F5F7F4FC8010E948E77C05ADF4F0FB6F894DEBF0FBECDBFDF91CF911F915B
:202BA0000F91FF90EF900895CF92DF92EF92FF920F931F93CF93DF93CDB7DEB7C05CD109AF
:202BC0000FB6F894DEBF0FBECDBF6C018A01E0902303F12CA701CE018F569F4F0E948E7712
:202BE000A701B801CE018F599F4F0E948E77A70160E070E0CE0101960E94A977CE01C196A2
:202C00000E946315CE018F569F4F0E945015882339F04091230350E0BE016F5C7F4F0DC0D1
:202C2000CE018F599F4F0E945015882329F14091230350E0BE016F5F7F4FC6010E948E7733
:202C4000C054DF4F0FB6F894DEBF0FBECDBFDF91CF911F910F91FF90EF90DF90CF90089552
:202C6000CE018F569F4F0E943A3F89A980FD0CC0CE01C1960E943A3FCF56DF4F8881C15965
:202C8000D04080FFEDCF19C0A801BE016F5C7F4FCB010E948D3E682FCE01C1960E943B3FFD
:202CA000EBCFCE018F599F4F0E943A3F898180FD0AC0CE0101960E943A3FA2968FADA2971B
:202CC00080FFEFCF0DC0A801BE016F5F7F4FCB010E948D3E682FCE0101960E943B3FEDCFD8
:202CE000BE016F597F4FCE018F569F4F0E94C63E9801AE01181684F44F595F4FBE016F566F
:202D00007F4FCB010E9472159801AE014F5F5F4FBE016F5C7F4F0FC04F565F4FBE016F594B
:202D20007F4FCB010E9472159801AE014F5C5F4FBE016F5F7F4FCB010E94721563CF0F930B
:202D40001F93CF93DF93EC0189010E948D3E882349F0A801BE01CE01DF91CF911F910F91CE
:202D60000C94E63EB801CE010E94C63E813089F3DF91CF911F910F910895EF92FF920F93C3
:202D80001F93CF93DF938C01EB012091210330912203AB01485E5F4F0E949F167E0188E239
:202DA000E80EF11CAE01405F5F4F88E0F701DA0101900D928A95E1F72091210330912203F7
:202DC000B801C8010E949F1688E1FE0111928A95E9F7DE01189688E0F70101900D928A95D4
:202DE000E1F72091210330912203AE01B801C801DF91CF911F910F91FF90EF900C949F168C
:202E00005F926F927F928F929F92AF92BF92CF92DF92EF92FF920F931F93CF93DF938C0132
:202E2000EB0120912103309122036B0180E2C80ED11CA601C8010E949F168CE0582EFE01A2
:202E4000852D11928A95E9F74E01ECE28E0E911C7E01FCE0EF0EF11C84E1F401D701019090
:202E60000D928A95E1F72091210330912203AE01B801C8010E949F1688E1FE0111928A954F
:202E8000E9F72091210330912203AE01B801C8010E949F163E01F4E26F0E711C8CE1F3018F
:202EA000DE0101900D928A95E1F71C8E1D8E1E8E1F8E2091210330912203AE01B801C80172
:202EC0000E949F16FE01852D11928A95E9F72091210330912203AE01B801C8010E949F1605
:202EE0005E01E4E3AE0EB11C8CE0F501D70101900D928A95E1F78CA99DA9AEA9BFA9888F71
:202F0000998FAA8FBB8F88A199A1AAA1BBA18C8F9D8FAE8FBF8F2091210330912203AE01C0
:202F2000B801C8010E949F168CE0F401DE0101900D928A95E1F7F70111925A94E9F788A1BF
:202F400099A1AAA1BBA1888F998FAA8FBB8F88A599A5AAA5BBA58C8F9D8FAE8FBF8F209131
:202F6000210330912203AE01B801C8010E947215FE01F09680E1DE0101900D928A95E1F701
:202F80008CA19DA1AEA1BFA1888F998FAA8FBB8F8CA59DA5AEA5BFA58C8F9D8FAE8FBF8F59
:202FA0002091210330912203AE01B801C8010E9472158CE0F501DE0101900D928A95E1F794
:202FC00084E1F601D70101900D928A95E1F7188E198E1A8E1B8E2091210330912203AE018E
:202FE000B801C8010E947215FE01F89688E0DE0101900D928A95E1F784E1F301D701019069
:203000000D928A95E1F7188E198E1A8E1B8E188619861A861B862091210330912203AE0194
:20302000B801C801DF91CF911F910F91FF90EF90DF90CF90BF90AF909F908F907F906F9028
:203040005F900C947215AF92BF92CF92DF92EF92FF920F931F93CF93DF93CDB7DEB7C0568D
:20306000D1090FB6F894DEBF0FBECDBF6C018B015B0120E2A20EB11C2091210330912203A0
:20308000A5010E949F167E0181E3E80EF11C19AA1AAA1BAA1CAA8CE1F501DE01D5960190FD
:2030A0000D928A95E1F72091210330912203A701B601C6010E949F168FE1F501DE01D29695
:2030C00001900D928A95E1F72091210330912203A701B601C6010E949F16C7010E94173FD1
:2030E0002091210330912203A701B601C6010E949F1680E2F501D70101900D928A95E1F741
:20310000C7010E94173FC7010E94173FC7010E94173FC7010E94173F2091210330912203F4
:20312000A701B601C6010E949F16C7010E94173FC7010E94173F2091210330912203A7012F
:20314000B601C6010E949F16C7010E94173F2091210330912203A701B601C6010E949F16A2
:20316000F80127AD30E0C90144E0969587954A95E1F7A9015695479556954795840F951F07
:20318000820F931FA90156954795840F951F220F331F820F931F26AD27FD019620E120932C
:2031A0002303B0E2BB2EF7012B2D11922A95E9F7F80104AD15AD26AD37AD09AB1AAB2BAB6A
:2031C0003CAB8E010F5F1F4FF8012B2D11922A95E9F789839A83A801B701C7010E948D3E4B
:2031E0001A8219828CE1F701DE01159601900D928A95E1F7A701B801C8010E948D3EC70123
:203200000E94173FC7010E94173FC7010E94173FC7010E94173FA701B801C8010E948D3EDF
:20322000C7010E94173FC7010E94173FA701B801C8010E948D3EC7010E94173FA701B80156
:20324000C8010E948D3EC7010E94173FA701B801C8010E948D3EC7010E94173FA701B801C0
:20326000C8010E948D3EB09223032091210330912203A801B601C6010E949F16C05ADF4F2F
:203280000FB6F894DEBF0FBECDBFDF91CF911F910F91FF90EF90DF90CF90BF90AF900895C0
:2032A0008091230308955F926F927F928F929F92AF92BF92CF92DF92EF92FF920F931F931B
:2032C000CF93DF93CDB7DEB7E0970FB6F894DEBF0FBECDBF8C017B0180E28093230380E33C
:2032E000582ECE0101966C01FC01852D11928A95E9F74B0194E5890E911C8CE0F401DE01DB
:20330000519601900D928A95E1F7C6010E94173FF801852D11928A95E9F7D8011C968CE09C
:20332000F40101900D928A95E1F7570190E5A90EB11CF50180819181A281B381F8018083C4
:203340009183A283B383A601B801C8010E948D3E88E280932303F601852D11928A95E9F77A
:2033600080E1F501DE01519601900D928A95E1F7A601B801C8010E948D3E509223032091BA
:20338000210330912203A701B801C8010E949F162091210330912203A701405D5F4FB8013B
:2033A000C8010E949F16A7014C5D5F4F8CE0F401DA0101900D928A95E1F7209121033091F5
:2033C0002203B801C8010E949F16A701405E5F4F80E1FA0111928A95E9F73701FCE56F0E67
:2033E000711CF30180819181A281B381F70184A395A3A6A3B7A34701FCE28F0E911CF50182
:2034000080819181A281B381F70184A795A7A6A7B7A72091210330912203B801C8010E9459
:203420009F16F30180819181A281B381F70184A795A7A6A7B7A72091210330912203A4010F
:20344000B801C8010E94721588E180932303F601852D11928A95E9F780E1F501DE011596F3
:2034600001900D928A95E1F7F701852D11928A95E9F7F30180819181A281B381F701848778
:203480009587A687B787F701808B918BA28BB38BA701B601C6010E948D3E509223032091CF
:2034A000210330912203A601B801C8010E947215E0960FB6F894DEBF0FBECDBFDF91CF9123
:2034C0001F910F91FF90EF90DF90CF90BF90AF909F908F907F906F905F9008950F931F93F6
:2034E000CF93DF93CDB7DEB7C056D1090FB6F894DEBF0FBECDBF8C0180912303813228F019
:20350000CE0101960E94D46B0BC0893128F0CE0101960E94F35704C0CE0101960E940D6636
:2035200080911E03813439F4BE016F5F7F4FC8010E94BD162CC0823439F4BE016F5F7F4FB4
:20354000C8010E94001723C0833439F4BE016F5F7F4FC8010E9453191AC0843839F4BE016E
:203560006F5F7F4FC8010E94231811C06091210370912203CE0101960E94E76F40912303A8
:2035800050E0BE016F5F7F4FC8010E948E77C05ADF4F0FB6F894DEBF0FBECDBFDF91CF91D1
:2035A0001F910F9108950F931F93CF93DF93CDB7DEB7C056D1090FB6F894DEBF0FBECDBFA6
:2035C0008C01CE0101960E948A1580911E03813439F4BE016F5F7F4FC8010E94BD162CC01E
:2035E000823439F4BE016F5F7F4FC8010E94001723C0833439F4BE016F5F7F4FC8010E947E
:2036000053191AC0843839F4BE016F5F7F4FC8010E94231811C06091210370912203CE019F
:2036200001960E94E76F4091230350E0BE016F5F7F4FC8010E948E77C05ADF4F0FB6F89470
:20364000DEBF0FBECDBFDF91CF911F910F910895CF92DF92EF92FF920F931F93CF93DF93AB
:20366000CDB7DEB7C05FD1090FB6F894DEBF0FBECDBF8C017C0120E3E20EF11CC7010E947D
:20368000411581113FC1B701CE018F599F4F0E946E1A80911E039801205A3F4F690186FFF9
:2036A0003EC0B901CE01C1960E946E1A2091210330912203AE014F5C5F4FB801CE01019620
:2036C0000E949F162091210330912203AE014F5C5F4FB801CE018F569F4F0E947215AE019D
:2036E0004F5F5F4FBE016F567F4FCB010E94D31A2091210330912203AE014F565F4FBA0149
:20370000CE0101960E949F162091210330912203AE014F565F4FBE016F5F7F4F1FC087FF6F
:203720001FC0B801CE018F569F4F0E946E1A2091210330912203AE014F565F4FBA01CE01DE
:203740008F539F4F0E949F162091210330912203AE014F565F4FBE016F537F4FCA0141C06A
:20376000B901CE01C1960E946E1ABE016F5C7F4FCE0101960E946E1A60911F037091200320
:20378000AE014F5F5F4FCA010E94D31AB801CE018F569F4F0E946E1A209121033091220384
:2037A000AE014F565F4FBA01CE018F539F4F0E949F162091210330912203AE014F565F4F99
:2037C000BE016F537F4FCA010E949F162091210330912203AE014F5F5F4FBE016F567F4F60
:2037E000CB010E949F16AE014F595F4FB801CE018F539F4F0E94D31A2091210330912203FF
:20380000AE014F535F4FBA01CA010E949F162091210330912203AE014F535F4FBA01CA018C
:203820000E949F16BE016F567F4FCE0101960E946E1A2091210330912203AE014F535F4F95
:20384000BA01C8010E949F162091210330912203A801BE016F5F7F4FC8010E947215A60135
:20386000B701C6010E94D31A2091210330912203A601B601C6010E949F16BE016F597F4FAE
:20388000CE0101960E946E1A2091210330912203AE014F5F5F4FBA01CA010E949F16209144
:2038A000210330912203AE014F5F5F4FBA01CA010E949F162091210330912203AE014F5FFE
:2038C0005F4FBA01CA010E949F162091210330912203A801BE016F537F4FC7010E947215B9
:2038E000A701BE016F567F4FC7010E94D31A2091210330912203AE014F5F5F4FB701C70131
:203900000E947215C051DF4F0FB6F894DEBF0FBECDBFDF91CF911F910F91FF90EF90DF905B
:20392000CF9008955F926F927F928F929F92AF92BF92CF92DF92EF92FF920F931F93CF930A
:20394000DF93CDB7DEB7C052D1400FB6F894DEBF0FBECDBF8C015B014B0180E3880E911C97
:20396000C4010E9441158111FFC07801E0E3EE0EF11CC7010E944115582E882341F080E969
:20398000F501D80101900D928A95E1F7EDC03501F0E66F0E711CB301CE01C1960E946E1A6A
:2039A000AE014F5C5F4FB801CE018F509F4F0E94D31A680180E6C80ED11CB601CE0101966C
:2039C0000E946E1AAE014F5F5F4FB501CE018F539F4F0E94D31AA301BE016F5C7F4FCB0106
:2039E0000E94D31AAE014F5C5F4FB701CE018F569F4F0E94D31AA601BE016F5F7F4FCB0179
:203A00000E94D31AAE014F5F5F4FB401CE018F599F4F0E94D31A2091210330912203AE01B9
:203A20004F505F4FBE016F537F4FCB010E9472152091210330912203AE014F565F4FBE0179
:203A40006F597F4FCB010E947215CE018F539F4F0E944115882399F0CE018F599F4F0E94C9
:203A60004115811183C080E9F80111928A95E9F7C8010E946315C7010E94631579C0BE015A
:203A80006F537F4FCE01C1960E946E1AAE014F5C5F4FBE016F537F4FCE0101960E94D31AFA
:203AA000AE014F5C5F4FBE016F507F4FCA010E94D31ABE016F597F4FC8010E946E1A20915F
:203AC000210330912203AE014F5F5F4FB801C8010E9472152091210330912203AE014F5C11
:203AE0005F4FB801C8010E9472152091210330912203AE014F5C5F4FB801C8010E947215FF
:203B00002091210330912203A801BE016F5C7F4FC7010E947215AE014F595F4FB701C70173
:203B20000E94D31AAE014F5F5F4FBE016F567F4FCE01C1960E94D31A209121033091220329
:203B4000AE014F5C5F4FB701C7010E947215A301B601C6010E94D31AAE014F535F4FB6014D
:203B6000C6010E94D31A04C0512C02C055245394852DC05EDE4F0FB6F894DEBF0FBECDBF48
:203B8000DF91CF911F910F91FF90EF90DF90CF90BF90AF909F908F907F906F905F900895B3
:203BA0006F927F928F929F92AF92BF92CF92DF92EF92FF920F931F93CF93DF93EC017B019A
:203BC0008A0180E9FE0111928A95E9F7909023039A946E01F0E6CF0ED11C5A0180E6A80E56
:203BE000B11C20E9622E97FC2DC0F701E90DF11D97FCFA95708098E0892ECE010E94281BEE
:203C000077FE1BC0C6010E944115882341F0F801DE01862D01900D928A95E1F70EC0C50173
:203C20000E944115811109C0B801CE010E94921C882319F0CE010E94281B770C8A94E9F671
:203C40009A94D1CFDF91CF911F910F91FF90EF90DF90CF90BF90AF909F908F907F906F90B0
:203C60000895CF92DF92EF92FF920F931F93CF93DF93CDB7DEB7C056D1090FB6F894DEBFA4
:203C80000FBECDBF7C016B018C01005A1F4FC8010E944115811130C0A601B801CE01C196C4
:203CA0000E94D415BE016F5C7F4FCE0101960E946E1AAE014F5F5F4FB701C7010E94D31A77
:203CC000AE014F5F5F4FBE016F5C7F4FCB010E94D31AC701C096AE014F5C5F4FBC010E94A1
:203CE000D31A4091230350E060E070E0C8010E94A97781E0F8018083C05ADF4F0FB6F8949F
:203D0000DEBF0FBECDBFDF91CF911F910F91FF90EF90DF90CF900895AF92BF92CF92DF92B0
:203D2000EF92FF920F931F93CF93DF93CDB7DEB7C059D1090FB6F894DEBF0FBECDBF6C0189
:203D40007B018A01FA01EB5DFE4F8081809323035093220340932103CA0180549F4F9093E3
:203D6000200380931F033197808180931E03C114D10411F491E04CC061157105D9F3C60143
:203D80000E9441158111F6CF580180E3A80EB11CB501C6010E94C63E8F3F61F7F801E05A19
:203DA000FF4F80E3DE01119601900D928A95E1F7F801E057FF4F80E3DE01D19601900D924E
:203DC0008A95E1F74091230350E060E070E0CE018F599F4F0E94A97781E0A2968FAFA297BE
:203DE000AE014F5F5F4FB601C7010E94D01DB801C7010E94311EC7010E9441158111BACF5D
:203E0000B501C7010E94C63E91E0813009F090E0892FC057DF4F0FB6F894DEBF0FBECDBFAF
:203E2000DF91CF911F910F91FF90EF90DF90CF90BF90AF9008952F923F924F925F926F92F6
:203E40007F928F929F92AF92BF92CF92DF92EF92FF920F931F93CF93DF93CDB7DEB7C3592C
:203E6000D1090FB6F894DEBF0FBECDBF7C016B018A012A018BED481A8EEF580AF201408115
:203E8000409323031093220300932103C80180549F4F9093200380931F03319780818093C8
:203EA0001E03E114F10409F48CC06115710509F488C050E060E070E0C7010E94A97735E01E
:203EC000332E5801F0E3AF0EB11C380180E6680E711C40E3242E4801E0E98E0E911C40E039
:203EE000F2018081481748F59701240F311D61E0C901CE56DF4F2883C259D040CD56DF4F95
:203F00003883C359D040CF56DF4F4883C159D0400E94DF25CE56DF4F2881C259D040CD5683
:203F2000DF4F3881C359D040CF56DF4F4881C159D0408130E1F24F5FD3CFC7010E94411594
:203F4000882319F03A9459F63CC0B501C7010E94C63E8F3FB9F7F301DE011196822D019038
:203F60000D928A95E1F7F401DE01D196822D01900D928A95E1F74091230350E060E070E0E3
:203F8000CE018F599F4F0E94A97781E0A2968FAFA297AE014F5F5F4FB701C6010E94D01D91
:203FA000B801C6010E94311EC6010E9441158111C9CFB501C6010E94C63E813019F280E068
:203FC00001C081E0CD56DF4F0FB6F894DEBF0FBECDBFDF91CF911F910F91FF90EF90DF908A
:203FE000CF90BF90AF909F908F907F906F905F904F903F902F9008956F927F928F929F921B
:20400000AF92BF92CF92DF92EF92FF920F931F93CF93DF93CDB7DEB7C052D1400FB6F89475
:20402000DEBF0FBECDBF5C018B01FB01EB5DFE4F8081809323037093220360932103CB01CB
:2040400080549F4F9093200380931F033197808180931E0355E0C52ED12C7B0180E3E80E2C
:20406000F11C4B01E0EF8E0E911C3501F0E66F0E711CA801BE016F5F7F4FCE018F569F4F13
:204080000E941B1F81114CC04091230350E0BE016F5F7F4FCE018F539F4F0E948E77970146
:2040A000AE014F535F4FB401CE018F509F4F0E949B15F301608171819701AE014F505F4F03
:2040C000CA010E949F16A701BE016F567F4FCB010E94D4159701AE014F505F4FBE016F5655
:2040E0007F4FCA010E949B15CE018F509F4F0E944115811115C080E3FE01EF53FF4FD50112
:2041000001900D928A95E1F780E3FE01EF50FF4FD501D09601900D928A95E1F780E008C0FE
:20412000F1E0CF1AD108C114D10409F0A2CF81E0C05EDE4F0FB6F894DEBF0FBECDBFDF9175
:20414000CF911F910F91FF90EF90DF90CF90BF90AF909F908F907F906F900895CF93DF9378
:20416000DA01FB0130E0260F61914D9150E0460F511D430F511DEC014993CE01352F2E1363
:20418000F3CF852FDF91CF910895809123030895809323030895CF92DF92EF92FF920F930C
:2041A0001F93CF93DF93CDB7DEB7C054D1090FB6F894DEBF0FBECDBF8C017B016A018091A6
:2041C0002303803421F4C8010E94F8522AC0803621F4C8010E94F14924C0405C5F4FCE01E4
:2041E00001960E94F852A701405C5F4FB601C8010E94F85220E4A801BE016F5F7F4FCB010A
:204200000E94AE20A601B701C8010E94224EC801805C9F4F20E4AE014F5F5F4FBC010E94F3
:20422000AE20C05CDF4F0FB6F894DEBF0FBECDBFDF91CF911F910F91FF90EF90DF90CF9023
:20424000089520912303203411F40C94224E203611F40C9481420C944C4E9F92AF92BF92C6
:20426000CF92DF92EF92FF920F931F93CF93DF93CDB7DEB7C058D1090FB6F894DEBF0FBE6C
:20428000CDBF8C016B015A018617970709F465C14134510510F480E405C04136510508F41F
:2042A00078C180E8809323034091230350E0440F551FB801C6010E948E77E0E89E2ECE01AC
:2042C00001967C01DC01E92D1D92EA95E9F763E80E94800590E0A816B90609F040C1898166
:2042E00080FF3FC1B701C6010E94E76F81113BC1D701E92D1D92EA95E9F764E8C7010E9488
:20430000800590E0A816B90609F02FC1898180FF2EC1B701C8010E94E76F81112AC18091C3
:204320002303B7019601280F311DC9010E94587280912303F801E80FF11DDF01292D1D9233
:204340002A95E9F78091230366E8D801A80FB11DCD010E94800590E0A816B90609F00BC134
:204360006091230370E09601260F371F600F711FA701C8010E945675F701292D11922A9527
:20438000E9F763E8C7010E94800590E0A816B90609F0F3C080912303B701D601A80FB11D1F
:2043A000CD010E94587280912303F801E80FF11DDF01292D1D922A95E9F78091230365E886
:2043C000D801A80FB11DCD010E94800590E0A816B90609F0D4C06091230370E09601260FDD
:2043E000371F600F711FA701C6010E94567580912303F801E80FF11DDF011D929A94E9F7BA
:204400008091230363E8F801E80FF11DCF010E94800590E0A816B90609F0B3C08091230395
:20442000A801B6019601280F311DC9010E94E63E982E20912303422F50E0C801840F951F22
:204440004C0D5D1DBC010E94AE2090912303992011F0F80101C0F601E90FF11D80E8D70164
:2044600001900D928A95E1F780912303F801E80FF11D60E8962EDF01292D1D922A95E9F750
:204480008091230367E8D801A80FB11DCD010E948005882309F477C080912303B801680FFD
:2044A000711DA701C6010E94212180912303F801E80FF11DDF01292D1D922A95E9F7809151
:2044C000230363E8D801A80FB11DCD010E94800590E0A816B90609F058C080912303B8012A
:2044E000680F711DC6010E94E76F80912303D801A80FB11D80E8F60101900D928A95E1F7DD
:20450000F701292D11922A95E9F764E8C7010E94800590E0A816B906D1F580912303B8012D
:20452000680F711DA701C6010E942121D7011D929A94E9F720912303A801B601C6010E94EE
:20454000AE20898320912303C601820F911DA701BC010E94AE2080E01EC086EE1CC087EECC
:204560001AC088EE18C089EE16C08AEE14C08BEE12C08CEE10C08EEE0EC08FEE0CC08DEED7
:204580000AC080EF08C082EF06C081EF04C083EF02C080E687CEC058DF4F0FB6F894DEBF8C
:2045A0000FBECDBFDF91CF911F910F91FF90EF90DF90CF90BF90AF909F90089570916F00DC
:2045C000739511F4F89408957360F89470936F0000000000000000000000000000000000D4
:2045E000EFCFF89440E048BB47BB0E94DE22089BFECF5FEF59B950E05AB950E95AB95FE00C
:204600000E94182343E751E05387428740E140937C0040917C004071E1F340937C000E948C
:2046200072234EE150E0509387004093860008954427ECE7F0E04787568745874487089539
:20464000E0E058E070917C007071E1F3B99A70937C00479548F470917C007071E1F3B998C3
:2046600070937C00E39507C070917C007071E1F3B99A70937C005A9561F7E79540F0709184
:204680007C007071E1F3B99A70937C0007C070917C007071E1F3B99870937C00EE27FF2713
:2046A000CF0170917C007071E1F3B99870937C0042E0B19B019631968AF070917C00707184
:2046C000C1F370937C004A95A1F7F695EE1FF695EE1FE81BF90BF0F0882708958FEF0895B2
:2046E00081E008950E94DE220E941326789470917C007071E1F370937C00DC014C910E9426
:204700002023813039F09FEF8F3F81F011966A9559F0F4CF42E070917C007071E1F37093A6
:204720007C004A95C1F7EACF882799278F939F9319D29F918F910895DC010E94DE220E94F1
:204740001326789420918600309187002F5F3F4F3695279580E0F1E044E00894B19B415024
:20476000411D4730D9F7B199FECF30938900209388004A954730B9F3B19B4150411D433046
:20478000C9F770E170937C005AE0E1E04730B19B4150411D70917C007071C1F370937C004B
:2047A0004430E11D443097955A9581F7991F9095E17081F4FF2349F070917C007071E1F350
:2047C000B99870937C00FA9511C06627882770937C0007C070917C007071E1F370937C0076
:2047E000F1E0662319F09D936A95839570917C007071E1F370937C00B19A70917C007071B5
:20480000E1F370937C0044E00894B19B4150411D4730D9F79CE0B1990DC030938900209371
:2048200088004A954730B9F3B19B4150411D4330C9F7A7CF70917C00707169F370937C00D1
:204840009A9549F78F930E94B2258F91992708950F920FB64F9340912403439540932403BF
:20486000403311F55F937F938F939F93EF93FF930E94DE225FE00E94182340E1408340E68B
:204880000E94202340E1408340E6882311F00E94202357E00E94182340932403FF91EF917A
:2048A0009F918F917F915F914F910FBE0F901895F89457E00E9418234093240344E040832E
:2048C000418378940895F8945FE00E941823418344E04083789408950C94000044E44F93C5
:2048E00049E44F9345E44F9343E74F934FE44F9340E84F9340E14F9342E04F9340E04F936A
:2049000048E14F9345EF4F934BE34F938DB79EB701966CE077270E94F1228DB79EB70C965C
:20492000F8948DBF78949EBF089580916F00853B60F0845080936F000000000000000000B3
:204940000000000000000000F2CF089570E050E09B01240F351F2130314020F40E94B077B7
:2049600080E0089581E00895EF92FF920F931F93CF93DF9300D0CDB7DEB7E62EF12C042FB5
:2049800010E09701200F311F2130314080F4F89489839A830E949524A801B70189819A8144
:2049A0000E94C077E199FECF789480E001C081E00F900F90DF91CF911F910F91FF90EF90DD
:2049C0000895DC01FB0151E05BBF07900D924A95E1F780E008954F925F926F927F928F9227
:2049E0009F92AF92BF92CF92DF92EF92FF920F931F93CF93DF93CDB7DEB7DA950FB6F8940F
:204A0000DEBF0FBECDBF2C016B01042F10E00115110511F400E011E0C8018C0D9D1D811530
:204A20009F4FA0F5612C772473945601AA24460199247301E818F9080E151F0508F478016A
:204A400040E0B501CE0101960E94E124A701B20181E090E08C0F9D1F880D991D0E948E77FE
:204A60004E0C5F1CCE0CDF1C0E191F09F8940E949524AE014F5F5F4FBA01C5010E9480FFA9
:204A800078940115110589F680E001C081E0D3950FB6F894DEBF0FBECDBFDF91CF911F91AE
:204AA0000F91FF90EF90DF90CF90BF90AF909F908F907F906F905F904F900895AF92BF9293
:204AC000CF92DF92EF92FF920F931F93CF93DF93CDB7DEB7DA950FB6F894DEBF0FBECDBFFB
:204AE0005B0181152FEF920750F57C01EE246C01DD2440E0B701CE0101960E94E12400E006
:204B000011E00C191D09A016B10608F48501A8016FEF70E081E090E08C0F9D1F8C0D9D1D98
:204B20000E94A977F8940E949524AE014F5F5F4FBA01C7010E9480FF7894C80102C080E026
:204B400090E0D3950FB6F894DEBF0FBECDBFDF91CF911F910F91FF90EF90DF90CF90BF90EB
:204B6000AF900895109245038EE587B98FE986B9369A08958F939F93EF93FF939FB7E5E213
:204B8000F3E080914503839509F48A9580934503869586958695E80F80E0F81F8091240066
:204BA00086958081881F8083809125008FEC809326009FBFFF91EF919F918F9118950F9338
:204BC0001F93CF93DF93162F613238F5062F000F000F000F209145032F3F21F02091450377
:204BE0002017D8F0C12FD0E0AE0165E273E00E948E77F89440E250E0411B5109BE016B5D0B
:204C00007C4F85E293E00E948E7780914503801B80934503789480E001C081E0DF91CF919B
:204C20001F910F91089516B8089544275527BA01CA012D9088809980AA80BB80CC80DD80C3
:204C40002A9C8001289C7001299CF00C011D191F2C9C90012B9C100D211D391F2D9C300DE8
:204C6000411D3D903A9C3001389CF00C011D161D791E399C000D111D791E3C9C270D301D4A
:204C8000411D591F3B9C30013D9C260D371D401D511D4D904A9C3001489C000D111D261DB5
:204CA000791E499C100D211D791E4C9C370D401D511D691F4B9C30014D9C360D471D501DF2
:204CC000611DE082F18202835D905A9C7001589C100D211D3E1DF91E599C200D311DF91E60
:204CE0005C9C4F0D501D611D791F5B9C70015D9C4E0D5F1D601D711D6D906A9C7001689C22
:204D0000200D311D4E1DF91E699C300D411DF91E6C9C5F0D601D711D891F6B9C70016D9C37
:204D20005E0D6F1D701D811D7D907A9C7001789C300D411D5E1DF91E799C400D511DF91E95
:204D40007C9C6F0D701D811D991F7B9C70017D9C6E0D7F1D801D911D138324833583ED9067
:204D6000FD900D911D912D913D91AF93BF93CF93DF93EF93FF938E809F80A884B984CA846E
:204D8000DB84EE27FF271F012F013F018E9C400D511D6F1F2F1E8F9C500D611D2F1E9E9C9C
:204DA000500D611D721D3F1E809E600D711D3F1E9F9C600D711D3F1EAE9C600D711D831D3E
:204DC0006F1E1F01819E700D811D6F1E909E700D811D6F1EAF9C700D811D6F1EBE9C700DBF
:204DE000811D961D7F1E6624829E800D911D7F1E919E800D911D7F1EA09E800D911D7F1E26
:204E0000BF9C800D911D7F1ECE9C800D911D7F1E839E900D711C6F1E929E900D711C6F1E5E
:204E2000A19E900D711C6F1EB09E900D711C6F1ECF9C900D711C6F1EDE9C900D711C6F1E24
:204E4000FD9C700C611C2F1E0C9D700C611C2F1E1B9D700C611C2F1E2A9D700C611C2F1E79
:204E6000399D700C611C2F1E0D9D600C211C3F1E1C9D600C211C3F1E2B9D600C211C3F1ED9
:204E80003A9D600C211C3F1E1D9D200C311C4F1E2C9D200C311C4F1E3B9D200C311C4F1E28
:204EA0002D9D300C411C5F1E3C9D300C411C5F1E3D9D400C511C6F927F921C970D90E01836
:204EC0000D90F0080D9000090D9010090D9020090D903009000818808118198091081A8040
:204EE000A1081B80B1081C80C1081D80D1081108E024F0240025102520253025812491245B
:204F0000A124B124C124D12401941194E00CFF1E0F1F1F1F2F1F3F1F810C9F1EAF1EBF1ECE
:204F2000CF1EDF1E012400FADF01EF01E89C3001E99C700CA11DF89C700CA11DBF1FEA9CF2
:204F4000A00DB11DCF1FF99CA00DB11DCF1F089DA00DB11DCF1FEB9CB00DC11DDF1FFA9C26
:204F6000B00DC11DDF1F099DB00DC11DDF1F189DB00DC11DDF1FEC9CC00DD11DEF1FFB9C23
:204F8000C00DD11DEF1F0A9DC00DD11DEF1F199DC00DD11DEF1F289DC00DD11DEF1FED9C42
:204FA000EE24D00DE11DFE1DFC9CD00DE11DFE1D0B9DD00DE11DFE1D1A9DD00DE11DFE1D10
:204FC000299DD00DE11DFE1D389DD00DE11DFE1D8824FD9CE00DF11D8E1C0C9DE00DF11DBC
:204FE0008E1C1B9DE00DF11D8E1C2A9DE00DF11D8E1C399DE00DF11D8E1C99240D9DF00D5F
:20500000811C9E1C1C9DF00D811C9E1C2B9DF00D811C9E1C3A9DF00D811C9E1CAA241D9D5D
:20502000800C911CAE1C2C9D800C911CAE1C3B9D800C911CAE1CBB242D9D900CA11CBE1CEA
:205040003C9D900CA11CBE1C3D9DA00CB11C6F010F901F90FF91EF91E080F180028113813B
:2050600024813581E40EF51E061F171F281F391F401D511D621D731D841D951D96F0551CB2
:2050800050FA5794E618F7080A0B1B0B2C0B3D0B4C095D09680979098A099B096608770852
:2050A00012C0551C50FA5794E60CF71C0A1F1B1F2C1F3D1F4C1D5D1D681D791D8A1D9B1D0C
:2050C00066247724661C80F88594061C171C271C371C471C571CE682F7820087118722872E
:2050E00033874487558766877787808B918B028A138A248A358A468A578ADF91CF91BF91D6
:20510000AF9144275527BA01CA012D908C849D84AE84BF84C888D9882A9C8001289C700152
:20512000299CF00C011D191F2C9C90012B9C100D211D391F2D9C300D411D3D903A9C30014D
:20514000389CF00C011D161D791E399C000D111D791E3C9C270D301D411D591F3B9C3001B9
:205160003D9C260D371D401D511D4D904A9C3001489C000D111D261D791E499C100D211DD7
:20518000791E4C9C370D401D511D691F4B9C30014D9C360D471D501D611DE08EF18E028FE8
:2051A0005D905A9C7001589C100D211D3E1DF91E599C200D311DF91E5C9C4F0D501D611D14
:2051C000791F5B9C70015D9C4E0D5F1D601D711D6D906A9C7001689C200D311D4E1DF91E7F
:2051E000699C300D411DF91E6C9C5F0D601D711D891F6B9C70016D9C5E0D6F1D701D811D2E
:205200007D907A9C7001789C300D411D5E1DF91E799C400D511DF91E7C9C6F0D701D811D13
:20522000991F7B9C70017D9C6E0D7F1D801D911D138F248F358FED90FD900D911D912D9186
:205240003D91AF93BF93CF93DF93EF93FF938A889B88AC88BD88CE88DF88EE27FF271F013E
:205260002F013F018E9C400D511D6F1F2F1E8F9C500D611D2F1E9E9C500D611D721D3F1EAA
:20528000809E600D711D3F1E9F9C600D711D3F1EAE9C600D711D831D6F1E1F01819E700DD7
:2052A000811D6F1E909E700D811D6F1EAF9C700D811D6F1EBE9C700D811D961D7F1E6624AB
:2052C000829E800D911D7F1E919E800D911D7F1EA09E800D911D7F1EBF9C800D911D7F1E86
:2052E000CE9C800D911D7F1E839E900D711C6F1E929E900D711C6F1EA19E900D711C6F1EB7
:20530000B09E900D711C6F1ECF9C900D711C6F1EDE9C900D711C6F1EFD9C700C611C2F1E56
:205320000C9D700C611C2F1E1B9D700C611C2F1E2A9D700C611C2F1E399D700C611C2F1E57
:205340000D9D600C211C3F1E1C9D600C211C3F1E2B9D600C211C3F1E3A9D600C211C3F1E33
:205360001D9D200C311C4F1E2C9D200C311C4F1E3B9D200C311C4F1E2D9D300C411C5F1E40
:205380003C9D300C411C5F1E3D9D400C511C6F927F921C970D90E0180D90F0080D900009F6
:2053A0000D9010090D9020090D90300900081C8481181D8491081E84A1081F84B1081888D9
:2053C000C1081988D1081108E024F024002510252025302581249124A124B124C124D12497
:2053E00001941194E00CFF1E0F1F1F1F2F1F3F1F810C9F1EAF1EBF1ECF1EDF1E012400FA55
:20540000DF01EF01E89C3001E99C700CA11DF89C700CA11DBF1FEA9CA00DB11DCF1FF99C18
:20542000A00DB11DCF1F089DA00DB11DCF1FEB9CB00DC11DDF1FFA9CB00DC11DDF1F099D00
:20544000B00DC11DDF1F189DB00DC11DDF1FEC9CC00DD11DEF1FFB9CC00DD11DEF1F0A9D0D
:20546000C00DD11DEF1F199DC00DD11DEF1F289DC00DD11DEF1FED9CEE24D00DE11DFE1DC5
:20548000FC9CD00DE11DFE1D0B9DD00DE11DFE1D1A9DD00DE11DFE1D299DD00DE11DFE1D77
:2054A000389DD00DE11DFE1D8824FD9CE00DF11D8E1C0C9DE00DF11D8E1C1B9DE00DF11D36
:2054C0008E1C2A9DE00DF11D8E1C399DE00DF11D8E1C99240D9DF00D811C9E1C1C9DF00DCA
:2054E000811C9E1C2B9DF00D811C9E1C3A9DF00D811C9E1CAA241D9D800C911CAE1C2C9DBA
:20550000800C911CAE1C3B9D800C911CAE1CBB242D9D900CA11CBE1C3C9D900CA11CBE1CC5
:205520003D9DA00CB11C6F010F901F90FF91EF91E08CF18C028D138D248D358DE40EF51EBA
:20554000061F171F281F391F401D511D621D731D841D951D96F0551C50FA5794E618F708FB
:205560000A0B1B0B2C0B3D0B4C095D09680979098A099B096608770812C0551C50FA579427
:20558000E60CF71C0A1F1B1F2C1F3D1F4C1D5D1D681D791D8A1D9B1D66247724661C80F880
:2055A0008594061C171C271C371C471C571C44A355A366A377A380A791A702A613A624A685
:2055C00035A646A657A6DF91CF91BF91AF91608C718C828C938CA48CB58CC4846C0CC58417
:2055E0007C1CC6848C1CC7849C1CC088AC1CC188BC1CC288EC1CC388FC1CC4880C1DC58876
:205600001C1DC6882C1DC7883C1DCC24DD24DC1C4D0D5C1D6C1D7C1D8C1D9C1D0C1C1C1C72
:205620002C1C3C1C4C1C5C1CC080C60CC486C180C71CC586C280C81CC686C380C91CC78638
:20564000C480CA1CC08AC580CB1CC18AC680CE1CC28AC780CF1CC38AC084C01EC48AC184AF
:20566000C11EC58AC284C21EC68AC384C31EC78A461D408F571D518F681D628F791D738F79
:205680008A1D848F9B1D958F0E1C068E1F1C178E201E20A2311E31A2421E42A2531E53A20A
:2056A000CC24DC1CDF9258972D903D904D905D906D907D90ED90FD900D911D912D913D9162
:2056C0008D909D90AD90BD90CD90DD904D915D916D917D918D919D91281839084A085B08D2
:2056E0006C087D08E40AF50A060B170B280B390B0008202430244024502460247024E02486
:20570000F024002510252025302501949927200C391E491E591E691E791EE91EF91E091F67
:20572000191F291F391F3F932F931F930F93FF92EF927F926F925F924F923F922F92888019
:205740009980AA80BB80CC80DD80EE80FF80088519852A853B854C85841A4D85940A4E85E9
:20576000A40A4F85B40A4889C40A4989D40A4A89E40A4B89F40A4C89040B4D89140B4E8957
:20578000240B4F89340B110881249124A124B124C124D124E124F1240125112521253125CA
:2057A0001194810C991EA91EB91EC91ED91EE91EF91E091F191F291F391F3F932F931F9320
:2057C0000F93FF92EF92DF92CF92BF92AF929F928F9201240F92EF93FF93CDB7DEB72697AF
:2057E00044275527BA01CA012A9C8001289C7001299CF00C011D191F2C9C90012B9C100D6C
:20580000211D391F2D9C300D411D3A9CD001389CF00C011D1A1FB91F399C000D111DB91F00
:205820003C9C2B0F301D411D591F3B9CD0013D9C2A0F3B1F401D511D4A9CD001489C000DAC
:20584000111D2A1FB91F499C100D211DB91F4C9C3B0F401D511D691F4B9CD0014D9C3A0F72
:205860004B1F501D611DEF92FF920F935A9C7001589C100D211D3E1DF91E599C200D311D87
:20588000F91E5C9C4F0D501D611D791F5B9C70015D9C4E0D5F1D601D711D6A9C7001689C5C
:2058A000200D311D4E1DF91E699C300D411DF91E6C9C5F0D601D711D891F6B9C70016D9C8C
:2058C0005E0D6F1D701D811D7A9C7001789C300D411D5E1DF91E799C400D511DF91E7C9CDF
:2058E0006F0D701D811D991F7B9C70017D9C6E0D7F1D801D911D1F932F933F93EC8CFD8CFF
:205900000E8D1F8D28A139A188889988AA88BB88CC88DD88EE27FF271F012F013F018E9C49
:20592000400D511D6F1F2F1E8F9C500D611D2F1E9E9C500D611D721D3F1E809E600D711D64
:205940003F1E9F9C600D711D3F1EAE9C600D711D831D6F1E1F017724819E700D811D6F1E63
:20596000909E700D811D6F1EAF9C700D811D6F1EBE9C700D811D961D7F1E6624829E800D62
:20598000911D7F1E919E800D911D7F1EA09E800D911D7F1EBF9C800D911D7F1ECE9C800D75
:2059A000911D7F1E839E900D711C6F1E929E900D711C6F1EA19E900D711C6F1EB09E900DFC
:2059C000711C6F1ECF9C900D711C6F1EDE9C900D711C6F1EFD9C700C611C2F1E0C9D700C56
:2059E000611C2F1E1B9D700C611C2F1E2A9D700C611C2F1E399D700C611C2F1E0D9D600CA0
:205A0000211C3F1E1C9D600C211C3F1E2B9D600C211C3F1E3A9D600C211C3F1E1D9D200C9C
:205A2000311C4F1E2C9D200C311C4F1E3B9D200C311C4F1E2D9D300C411C5F1E3C9D300C4A
:205A4000411C5F1E3D9D400C511C6F927F920E88E0180F88F008088C0009098C10090A8CC9
:205A600020090B8C300900081A8481181B8491081C84A1081D84B1081E84C1081F84D1082C
:205A80001108E024F024002510252025302581249124A124B124C124D12401941194E00CED
:205AA000FF1E0F1F1F1F2F1F3F1F810C9F1EAF1EBF1ECF1EDF1E012400FADF01EF01E89C60
:205AC0003001E99C700CA11DF89C700CA11DBF1FEA9CA00DB11DCF1FF99CA00DB11DCF1F3D
:205AE000089DA00DB11DCF1FEB9CB00DC11DDF1FFA9CB00DC11DDF1F099DB00DC11DDF1F0A
:205B0000189DB00DC11DDF1FEC9CC00DD11DEF1FFB9CC00DD11DEF1F0A9DC00DD11DEF1F16
:205B2000199DC00DD11DEF1F289DC00DD11DEF1FED9CEE24D00DE11DFE1DFC9CD00DE11D54
:205B4000FE1D0B9DD00DE11DFE1D1A9DD00DE11DFE1D299DD00DE11DFE1D389DD00DE11D73
:205B6000FE1D8824FD9CE00DF11D8E1C0C9DE00DF11D8E1C1B9DE00DF11D8E1C2A9DE00DC1
:205B8000F11D8E1C399DE00DF11D8E1C99240D9DF00D811C9E1C1C9DF00D811C9E1C2B9D42
:205BA000F00D811C9E1C3A9DF00D811C9E1CAA241D9D800C911CAE1C2C9D800C911CAE1C0F
:205BC0003B9D800C911CAE1CBB242D9D900CA11CBE1C3C9D900CA11CBE1C3D9DA00CB11CAF
:205BE0006F010F901F90EDB7FEB7E680F5800481138122813181E40EF51E061F171F281F9E
:205C0000391F401D511D621D731D841D951D96F0551C50FA5794E618F7080A0B1B0B2C0B64
:205C20003D0B4C095D09680979098A099B096608770812C0551C50FA5794E60CF71C0A1FA4
:205C40001B1F2C1F3D1F4C1D5D1D681D791D8A1D9B1D66247724661C80F88594061C171C79
:205C6000271C371C471C571CCDB7DEB7FF81E8858E809D80AC80BB80CA80D98079847720E9
:205C800009F04BC064846818648665846908658666846A08668667846B08678660886C087A
:205CA000608A61886D08618A62886E08628A63886F08638A6488600A648A6588610A658A8B
:205CC0006688620A668A6788630A678A608C640A608E618C650A618E628C660A628E638C5D
:205CE000670A638E648C680A648E658C690A658E668C6008668E678C6108678E60A062088E
:205D000060A261A0630861A262A0640862A263A0650863A2660877084BC06484680C6486ED
:205D20006584691C658666846A1C668667846B1C678660886C1C608A61886D1C618A6288AE
:205D40006E1C628A63886F1C638A6488601E648A6588611E658A6688621E668A6788631EE9
:205D6000678A608C641E608E618C651E618E628C661E628E638C671E638E648C681E648E48
:205D8000658C691E658E668C601C668E678C611C678E60A0621C60A261A0631C61A262A0CC
:205DA000641C62A263A0651C63A266247724661CAAA1A296F894CDBF7894DEBF00246A0E4F
:205DC000701CC4A0C60CC4A2C5A0C71CC5A2C6A0C71CC6A2C7A0C71CC7A2C0A4C71CC0A6DB
:205DE000C1A4C71CC1A6C2A4C71CC2A6C3A4C71CC3A6C4A4C71CC4A6C5A4C71CC5A6C6A4BA
:205E0000C71CC6A6C7A4C71CC7A60895442755278A012D903D904D905D90688079808A802A
:205E20009B80289C6001269C5001279CB00CC11CD51E399C7001299C9001369CB00CC11CB9
:205E4000D21E351F379CC00CD11C351F499CE30EF01C011D489C9001469CC00CD11CE21E0E
:205E6000351F389CD00CE11C351F599CF30E001D111D579C9001479CD00C211D351F569CC5
:205E8000D00C211D351F589CE20E031E151EF00C011D151FA082B182C282D3825A012D9107
:205EA0003D914D916C817D818E819F81269FE00CF11C051FB51E279FF00C011DB51E369FDF
:205EC000F00C011D1B1DA51E289F000D111DA51E379F000D111DA51E469F000D111DA51E31
:205EE000BB24299F100DA11CB51E389F100DA11CB51E479F100DA11CB51E221A330A440A70
:205F00002D91520A0008661A770A880A990A1108202430244024502461247124812491242C
:205F200001941194200C351E451E551E610C751E851E951E012400FA269F100DA11CB51EEB
:205F4000399F3327A00CB11C351F489FA00CB11C351F279FA00CB11C351F499F4427B00CEC
:205F6000311D451F289FB00C311D451F299F300D411D882799272227269CB001279C700D6C
:205F8000811D369C700D811D951F289C800D911D251F379C800D911D251F469C800D911D10
:205FA000251F299C2224900D211D251E389C900D211D251E479C900D211D251E569C900DF2
:205FC000211D251E399C3324200D211C351E489C200D211C351E579C200D211C351E499C21
:205FE0004424200C311C451E589C200C311C451E599C300C411C608071806E0C7F1CC01E3B
:20600000D11EEA1CFB1C031F141F551F5EF0661A770AC80AD90AE20AF20803091409504008
:20602000660B0BC0660E771EC81ED91EE21EF21C031D141D6627561F000064827582C682B8
:20604000D782A50EB61E361F461FB701C8012A2D5B2DCC24DD24760186012D903D904D90F0
:206060005D90688479848A849B84269C5001279CB00CC11C369CB00CC11CD11E289CC00CC4
:20608000D11CE11E379CC00CD11CE11E469CC00CD11CE11E299CD00CE11CF11E389CD00C92
:2060A000E11CF11E479CD00CE11CF11E569CD00CE11CF11E6A0D608B7B1D718B8C1D828B83
:2060C0009D1D938BA21EA48AB51EB58AC31ED41E00080F9244275527399CE00CF11C051F93
:2060E000489CE00CF11C051F579CE00CF11C051F499CF00C011D151F589CF00C011D151F1A
:20610000599C000D111D5A012D913D914D916C857D858E859F85269FE00CF11C051FB51EAB
:20612000279FF00C011DB51E369FF00C011D1B1DA51E289F000D111DA51E379F000D111DEC
:20614000A51E469F000D111DA51EBB24299F100DA11CB51E389F100DA11CB51E479F100DBE
:20616000A11CB51E221A330A440A2D91520A0008661A770A880A990A11082024302440245B
:206180005024612471248124912401941194200C351E451E551E610C751E851E951E01240D
:2061A00000FA269F100DA11CB51E399F3327A00CB11C351F489FA00CB11C351F279FA00C4E
:2061C000B11C351F499F4427B00C311D451F289FB00C311D451F299F300D411D88279927D6
:2061E0002227269CB001279C700D811D369C700D811D951F289C800D911D251F379C800DC1
:20620000911D251F469C800D911D251F299C2224900D211D251E389C900D211D251E479C2D
:20622000900D211D251E569C900D211D251E399C3324200D211C351E489C200D211C351EA6
:20624000579C200D211C351E499C4424200C311C451E589C200C311C451E599C300C411C07
:20626000648875886E0C7F1CC01ED11EEA1CFB1C031F141F551F0F900194E00C0024F01C1D
:20628000001D101D501D5EF0661A770AC80AD90AE20AF208030914095040660B0BC0660EF4
:2062A000771EC81ED91EE21EF21C031D141D6627561F0000648A758AC68AD78AE08EF18E80
:2062C000028F138FA50EB61E361F461FA48EB58E368F478F50972D903D904D905D902D9141
:2062E0003D914D915D91AD90BD90CD90DD90ED90FD900D911D91AF93BF93CF93DF932A18B0
:206300003B084C085D082E093F09400B510B0008688079808A809B806C817D818E819F8133
:20632000A884B984CA84DB84EC84FD840E851F856A187B088C089D086E097F09800B910BBB
:2063400011082024302440245024202530254025502561247124812491246125712581250A
:20636000912501941194AA27BB27200C3A1E4A1E5A1E2A1F3A1F4A1F5A1F610C7A1E8A1EE5
:206380009A1E6A1F7A1F8A1F9A1F01240F928D01289C6001269C5001279CB00CC11CDA1EE1
:2063A000399C7001299CE001369CB00CC11CDC1EDA1F379CC00CD11CDA1F499CED0EF01C22
:2063C000011D489CE001469CC00CD11CEC1EDA1F389CD00CE11CDA1F599CFD0E001D111D4B
:2063E000579CE001479CD00CC11DDA1F569CD00CC11DDA1F589CEC0E0D1E1A1EF00C011D23
:206400001A1F221A330A440A550A0008661A770A880A990A110820243024402450246124D1
:2064200071248124912401941194200C3A1E4A1E5A1E610C7A1E8A1E9A1E012400FA289F84
:20644000E001269FE00CF11C0C1FDA1F279FF00C011DDA1F399F1D0FA01DB11D299FE00168
:20646000369FF00C011D1C1F2227D21F379F000D111DD21F499FAD0FB01D2227211D489FD7
:20648000E001469F000D111DAC1F0024D01D389F100DA11D3327D31F599FBD0F201D992760
:2064A000911D579FE001479F100DC11DD31F569F100DC11DD31F589FAC0F0D1E131EB00DD7
:2064C000211D931F289CB001269CA001279C500D611D731F399C802D022C212C099CE00141
:2064E000369C500D611D7C1FD31F379C600D711DD31F499C8D0F201C311D489CE001469CF0
:20650000600D711D8C1F0024D01D389C700D811D3324D31D599C2D0E301D9924911C579CB4
:20652000E001479C700DC11DD31D569C700DC11DD31D589C8C0F0D1E131C200C311D931CFD
:2065400025013601AE0CBF1CC01ED11EEA1EFB1E021F191FCC27C31D5EF0A41AB50AC60A94
:20656000D70AE80AF208030B1909C040DD0B0BC0A40EB51EC61ED71EE81EF21C031F191DA1
:20658000DD27CD1F0000AC0FBD1F2D1F9D1F392F4081518162817381848195818680978062
:2065A0000F90002099F544195509660977098A099B098C089D08000820883188420D531D4C
:2065C00040875187A10122883388621D731D62877387B10124883588821D931D8487958792
:2065E000C10126883788821C931C8686978641011124111C06944E095F09600B710B8A0B7D
:206600009B0B820A930ACC0BDD0B33C0440D551D661D771D8A1D9B1D8C1C9D1C00082088AF
:206620003188420D531D40875187A10122883388621D731D62877387B10124883588821D90
:20664000931D84879587C10126883788821C931C8686978641011124111C06944E1D5F1D99
:20666000601F711F8A1F9B1F821E931ECC27DD27CC1F408C518C628C738CA48CB58CC68C1C
:20668000D78C1694441D551D661D771D8A1D9B1D8C1C9D1CC11DD11D408B518B628B738BE5
:2066A000848B958B868A978A4C0E5D1E6D1E7D1EAD1EBD1ECD1EDD1E408E518E628E738E55
:2066C000A48EB58EC68ED78EDF91CF91BF91AF91442755278A012D903D904D905D90688876
:2066E00079888A889B88289C6001269C5001279CB00CC11CD51E399C7001299C9001369C6F
:20670000B00CC11CD21E351F379CC00CD11C351F499CE30EF01C011D489C9001469CC00C99
:20672000D11CE21E351F389CD00CE11C351F599CF30E001D111D579C9001479CD00C211D55
:20674000351F569CD00C211D351F589CE20E031E151EF00C011D151FA0A2B1A2C2A2D3A291
:206760005A012D913D914D916C897D898E899F89269FE00CF11C051FB51E279FF00C011D85
:20678000B51E369FF00C011D1B1DA51E289F000D111DA51E379F000D111DA51E469F000DB1
:2067A000111DA51EBB24299F100DA11CB51E389F100DA11CB51E479F100DA11CB51E221A41
:2067C000330A440A2D91520A0008661A770A880A990A110820243024402450246124712433
:2067E0008124912401941194200C351E451E551E610C751E851E951E012400FA269F100D59
:20680000A11CB51E399F3327A00CB11C351F489FA00CB11C351F279FA00CB11C351F499FBA
:206820004427B00C311D451F289FB00C311D451F299F300D411D882799272227269CB001BC
:20684000279C700D811D369C700D811D951F289C800D911D251F379C800D911D251F469C42
:20686000800D911D251F299C2224900D211D251E389C900D211D251E479C900D211D251E7D
:20688000569C900D211D251E399C3324200D211C351E489C200D211C351E579C200D211C01
:2068A000351E499C4424200C311C451E589C200C311C451E599C300C411C60A071A06E0C73
:2068C0007F1CC01ED11EEA1CFB1C031F141F551F5EF0661A770AC80AD90AE20AF208030974
:2068E00014095040660B0BC0660E771EC81ED91EE21EF21C031D141D6627561F000064A262
:2069000075A2C6A2D7A2A50EB61E361F461FB701C8012A2D5B2DCC24DD24760186012D9032
