:100000002C03550053004200200053006D00610096
:100010007200740020004300610072006400200040
:1000200052006500610064006500720000000C036E
:10003000410074006D0065006C00000004030904B9
:1000400009025D00010100803209040000030B0079
:1000500000003621000100070300000000093D00F8
:1000600000093D0000002A00000040050000FE00DD
:1000700000000000000000000000300201000F013D
:100080000000000000000001070582024000000798
:100090000501024000000705830308000A12011051
:1000A0000100000008EB0311600000010200011EC6
:1000B000202FFCFFFFFEFFFFFFFFFFFFFFFFFFFF03
:1000C000FFFFFFFFFFFFFFFFFFFFFFFFFFFFFFFF40
:1000D000FF1F20414136D08C5ED2BF3BA048AFE627
:1000E000DCAEBAFEFFFFFFFFFFFFFFFFFFFFFFFFDA
:1000F000FFFFFF20209817F8165B81F259D928CE10
:100100002DDBFC9B02070B87CE9562A055ACBBDCB8
:10011000F97E66BE792120B8D410FB8FD0479C1998
:100120005485A648B417FDA808110EFCFBA45D6514
:10013000C4A32677DA3A482220000000000000001D
:1001400000000000000000000000000000000000AF
:100150000000000000000000002320070000000055
:10016000000000000000000000000000000000008F
:1001700000000000000000000000001430FFFFFF3E
:10018000FF0000000000000000FFFFFFFFFEFFFF78
:10019000FFFFFFFFFFFFFFFFFFFFFFFFFFFFFFFF6F
:1001A000FFFFFFFFFFFFFFFFFFFFFFFFFF153073A4
:1001B00029C5CC6A19ECEC7AA7B048B20D1A58DF01
:1001C0002D37F4814D63C7FFFFFFFFFFFFFFFFFFE8
:1001D000FFFFFFFFFFFFFFFFFFFFFFFFFFFFFF1618
:1001E00030B70A7672385E543A6C2955BF5DF20218
:1001F00055382A5482E041F759989BA78B623B1DE2
:100200006E74AD20F31EC7B18E37058BBE22CA8730
:10021000AA17305F0EEA907C1D437A9D817E1DCE29
:10022000B1600AC0B8F0B51331DAE97C149A28BD80
:100230001DF4F829DC9292BF989E5D6F2C26964A99
:10024000DE17361830FCFFFFFF0000000000000042
:1002500000FFFFFFFFFEFFFFFFFFFFFFFFFFFFFFAE
:10026000FFFFFFFFFFFFFFFFFFFFFFFFFFFFFFFF9E
:10027000FFFFFFFFFF1930EF2AECD3EDC8852A9D61
:10028000D12E8A8D3956C65A8713508F08140312FF
:100290004181FE6E9C1D18192DF8E36B058E98E4C4
:1002A000E73EE2A72F31B30020FFFFFFFFFFFFFF74
:1002B000FFFFFFFFFF000000000000000000000043
:1002C0000001000000FFFFFFFF0120512563FCC279
:1002D000CAB9F3849E17A7ADFAE6BCFFFFFFFFFF84
:1002E000FFFFFF00000000FFFFFFFF022096C29803
:1002F000D84539A1F4A033EB2D817D0377F240A4DA
:1003000063E5E6BCF847422CE1F2D1176B0320F518
:1003100051BF376840B6CBCE5E316B5733CE2B160C
:100320009E0F7C4AEBE78E9B7F1AFEE242E34F046E
:1003300020FCFFFFFFFFFFFFFFFFFFFFFF000000AC
:1003400000000000000000000001000000FFFFFFAF
:10035000FF05204B60D2273E3CCE3BF6B053CCB0DD
:10036000061D65BC86987655BDEBB3E7933AAAD8CF
:1003700035C65A0618FFFFFFFFFFFFFFFFFEFFFF16
:10038000FFFFFFFFFFFFFFFFFFFFFFFFFF0718312A
:1003900028D2B4B1C96B1436F8DE99FFFFFFFFFF16
:1003A000FFFFFFFFFFFFFF08181210FF82FD0AFF8B
:1003B000F40088A143EB20BF7CF69030B00EA88DEE
:1003C0001809181148791EA177F973D5CD246BED62
:1003D00011106378DAC8FF952B19070A18FCFFFF84
:1003E000FFFFFFFFFFFEFFFFFFFFFFFFFFFFFFFF1E
:1003F000FFFFFFFFFF0B18B1B946C1ECDEB8FE49A5
:10040000302472ABE9A70FE7809CE5190521640C45
:100410000F3021300906052B0E03021A05000414C3
:100420000D144F7345494404021000000000000001
:100430000000000100000E0B010009080000000090
:10044000000180FF0D940000CF93DF9300D0CDB763
:10045000DEB799838A830F94060262E0CE0101968B
:100460000F9478012396CDBFDEBFDF91CF91089521
:10047000662339F09C0122272115314611F480E0D2
:1004800090E9E2CF9091202180911F21892B19F0D2
:1004900086E89AE609C080912121882319F080E03E
:1004A00097E602C00E941114CFCF61E001960D942F
:1004B0007801CF93FC01C4816C2F05960F945E01E7
:1004C00091E0C81301C090E0892FCF910895EF9279
:1004D000FF920F931F93CF93DF931F921F92CDB77D
:1004E000DEB76FEF8DE191E20F945E01882309F48E
:1004F0008CC280931C21853018F480E09FE6A4DF35
:1005000080911D21803809F452C2803A09F442C218
:10051000811163C280911E21803C09F4A8C1909191
:100520001B21913011F410921B21863409F4C2C0B2
:1005300008F5843209F472C050F4803209F450C0D6
:10054000823209F465C08E3009F044C232C08C3268
:1005500009F48AC020F48A3209F475C03BC28E3295
:1005600009F498C0843409F035C28DE191E20E940B
:10057000150B35C28A3C09F4C8C178F4863809F4F1
:10058000BCC020F4843809F499C024C2843A09F428
:10059000BAC0803B09F455C11DC28A3D09F4DAC1D5
:1005A00020F4863D09F4B7C115C2803E09F0F4C1BC
:1005B000D7C180911F21813818F086E89AE60FC2D2
:1005C00090912121992319F080E097E608C290E0EC
:1005D000982F882720912021822B0E94D913FFC1B8
:1005E00080911F218111E9CF80912121882359F029
:1005F0008DE191E25ADF8DE191E25BDF882319F012
:1006000084E899E6ECC180E291E20E94AA0FE7C17A
:100610006AE170E28DE191E22AD3E1C180911F216C
:100620008111CBCF80912121882371F28DE191E25C
:100630003CDF8DE191E23DDF8111E2CF80E291E28A
:100640000E94530FCCC16AE170E28DE191E271D456
:10065000811520E9920709F4C2C189839A830E9417
:10066000E9109A818981BBC180911F218111A5CF99
:1006700080912121882309F4A7CF8DE191E215DF34
:100680008DE191E216DF8111BBCF80E291E20E9401
:100690001710A5C180911F2181118FCF809120213A
:1006A0008F3008F08ACF9091212191118DCF0E9437
:1006B000380F28C18DE191E272D591C180911F213F
:1006C00081117BCF80912021811177CF1091212141
:1006D000193008F079CF111101C018E0612F8AE1BB
:1006E00090E20E94F0238111F9CF10931A2181E04A
:1006F00080931B21812F90E003C16AE170E28DE1BC
:1007000091E237D36CC1809120218C3021F081118E
:1007100054CFF12C02C0FF24F39490912121911128
:1007200013C090911F21911107C081114DCF8AE113
:1007300090E20E94AE117BC0933009F045CF8AE170
:1007400090E20E946E1173C08DE191E2AEDE8DE108
:1007500091E2AFDE811154CF90911F21292F2E7F7E
:10076000809121212830E1F4823018F487E89AE65C
:100770006BDE8091212180FF03C087E89AE664DE6A
:1007800080911F216AE170E280FF05C081E291E261
:100790000E94E0114CC081E291E20E94F51147C035
:1007A000943069F48150803118F087E89AE617C1D7
:1007B0006AE170E281E291E20E94841138C08230E5
:1007C000A1F7933008F0F9CE0091222110E0102F0C
:1007D000002780912321082B911114C080912021A2
:1007E000811109C001158FE3180729F48AE190E20D
:1007F0000E94AE1105C06AE170E2C8010E94B61104
:100800006F2D36DE80911F21813039F46AE170E26C
:10081000C8010E9499116F2D2BDE80911F2182301B
:1008200009F0F3C06AE170E2C8010E94CB116F2D9C
:100830000F900F90DF91CF911F910F91FF90EF904C
:1008400017CE80911F21813808F0B7CE6091212109
:10085000662309F4B9CE70E090E0982F88272091A4
:1008600020214AE150E2822B0E942513B8C08091DA
:100870001F218111A2CE8091202181119ECE8091D5
:100880001B21813019F085E899E6A9C060912121EA
:10089000062F10E080911A21E82EF12C0115110588
:1008A00009F4A6C0E114F10431F0E016F10630F4C9
:1008B000C7019C6694C0E12CFF24F3948DE191E282
:1008C0006983F3DD69818AE190E20F947801E01A8F
:1008D000F10A29F410921B21E12CF12C0BC0F80134
:1008E000E65EFF4DCF01AAE1B0E221912D93A8175A
:1008F000B907D9F7E0921A21EE2021F0C701992714
:1009000091666DC080E090E96AC06AE170E28DE1B5
:1009100091E20AD564C080911F21813808F04DCE44
:1009200080912121882309F44FCE8DE191E2BDDD34
:100930008DE191E2BEDD811163CE60911F2170E0F7
:10094000762F662780912021682B81E291E20E9418
:10095000841345C06AE170E28DE191E2BAD53FC0EF
:1009600080911F21811129CE80912021811125CED6
:1009700080912121882309F427CE8DE191E295DD34
:100980008DE191E296DD81113BCE81E291E20E9400
:10099000831425C080911E21843EE1F40F900F90B6
:1009A000DF91CF911F910F91FF90EF906BCD8091D0
:1009B0001E218A3D79F480911F218111FECD809105
:1009C00020218111FACD809121218111F6CD0E9443
:1009D0007E1205C080E09FE602C080E09EE60F9098
:1009E0000F90DF91CF911F910F91FF90EF902CCD41
:1009F000E114F10409F05CCF8DE191E256DD60E095
:100A00008AE190E20F94780165CF0F900F90DF910B
:100A1000CF911F910F91FF90EF90089510921B219D
:100A200008959B0136952795DC01A60FB71FFC01A1
:100A3000820F931FE817F90729F020813E91319327
:100A40002C93F8CF08954F925F926F927F928F927E
:100A50009F92AF92BF92CF92DF92EF92FF920F934D
:100A60001F93CF93DF93EC0186E591E0FE019C019B
:100A7000119221503040E1F7611108C062E0CE01CF
:100A8000805E9E4F0E9438123C0102C0662E712C7F
:100A900038E16316710419F566E0CE010E94187101
:100AA00067E0CE01C0960E94187168E0CE01805ABE
:100AB0009F4F0E94187169E0CE0180579F4F0E949E
:100AC00018716AE0CE0180549F4F0E9418716BE04C
:100AD000CE0180519F4F0E94187181E477C080E25F
:100AE0006816710409F04CC00E942D12FE01F096A8
:100AF0004F019E01205A3F4F5901E05AFF4F6F01AD
:100B0000205A3F4F79018E0100511F4FEC53FF4F88
:100B10002F018232D1F06EE1CE010E9418716FE197
:100B2000C4010E94187160E2C5010E94187161E25F
:100B3000C6010E94187162E2C7010E94187163E247
:100B4000C8010E94187184E819C060E0CE010E94BB
:100B5000187161E0C4010E94187162E0C5010E9431
:100B6000187163E0C6010E94187164E0C7010E9419
:100B7000187165E0C8010E94187182E4F20129C071
:100B8000F0E36F16710481F564E1CE010E941871E3
:100B900065E1CE01C0960E94187166E1CE01805ACF
:100BA0009F4F0E94187167E1CE0180579F4F0E94AE
:100BB000187168E1CE0180549F4F0E94187169E15D
:100BC000CE0180519F4F0E94187183E4FE01EC5AC0
:100BD000FE4F8083B301CE01805E9E4F22DF862DC3
:100BE000CB5ADE4F688201C080E0DF91CF911F9128
:100BF0000F91FF90EF90DF90CF90BF90AF909F90BC
:100C00008F907F906F905F904F900895CF93DF9378
:100C1000FC018381873811F482E003C0863859F4DF
:100C200083E08383EF010F940302CE010396DF91EB
:100C3000CF910C94A71285E899E6DF91CF910895A2
:100C40000F931F93CF93DF938C010E943812EC0116
:100C5000BC01C801E6DECF3FD10519F010F0C0E0BD
:100C6000D0E08C2FDF91CF911F910F910895CF93FA
:100C7000DF93EC0110922122892B09F46FC08A8145
:100C8000833F21F48C8181116CC03EC0813409F016
:100C90006BC08C81811104C03B81363B51F40EC086
:100CA000CE0103DCCE0105DC8823B1F384E899E6AC
:100CB0005DC0383B19F0343A09F056C0EC81F0E0E1
:100CC00020E060E070E004C090E00296680F791FB9
:100CD0006E177F0708F048C0DE01A60FB71F1596F4
:100CE0009C91159716968C9116979038D1F42160A7
:100CF0008130D1F517969C91923049F4909324223B
:100D0000273011F73093212280E090E92FC09330F3
:100D100018F4992399F328C0943081F3923171F338
:100D200023C0913889F422608230F1F417964C91F7
:100D3000179750E0542F442718969C91492B4093C5
:100D4000222250932322DCCF9438D1F624608130C4
:100D500059F417969C91992399F206C080E090E08F
:100D600005C087E89AE602C081E89AE6DF91CF9154
:100D70000895BF92CF92DF92EF92FF920F931F934D
:100D8000CF93DF93CDB7DEB7C751D240CDBFDEBF23
:100D9000FC0182818111BAC083818111B7C0848135
:100DA000823008F4B6C06B018F01CF017EDBC80131
:100DB00080DB882319F084E899E6ADC08091212278
:100DC000843A19F085E899E6A6C00E94691120913D
:100DD00022223091232282179307A1F7D80115967A
:100DE0008C918C3741F77801B7E0EB0EF11CF801DC
:100DF0002681203801F3422F50E0848190E0029751
:100E000048175907C1F6223048F1D7013C91F70144
:100E1000329611968C91119787FF05C0213859F6AB
:100E2000319612968C919EEF920F981720F23538DA
:100E300061F47F01BFEFEB1AFB0A3081343009F017
:100E4000BACF8913B8CF235009C0303809F0B3CFD7
:100E50007F01E80EF11C292F281BD5CF60E0CE01C1
:100E60000196C95EDD4F2883C751D240ECDDB82E14
:100E7000C95EDD4F2881C751D240882309F4A2CF33
:100E8000082F10E0C801880F991F30E082179307E0
:100E900009F091CFCA5ADE4F4881C655D14050E083
:100EA000B701CE01895A9E4F0E943371CA5ADE4F54
:100EB0004881C655D14050E0B701600F711F87E5EA
:100EC00091E08C0F9D1FC0960E9433710F94030216
:100ED000AE014F5F5F4FBE01695A7E4FCE0189510F
:100EE0009E4F0E94151F81116DCFA801BE01695A46
:100EF0007E4FC6010E943371F601EF5FFE4F81E025
:100F000080833197B082C801916605C086E89AE671
:100F100002C080E097E6C95EDD4FCDBFDEBFDF9146
:100F2000CF911F910F91FF90EF90DF90CF90BF90E6
:100F30000895CF92DF92EF92FF920F931F93CF937A
:100F4000DF931F92CDB7DEB78C016B01DC011296E7
:100F50008C9112978E3909F065C013968C91139776
:100F60008A3909F00AC114968C91882309F408C1C2
:100F7000C8019BDAC8019DDA882319F084E899E654
:100F800004C180912122863B19F085E899E6FDC0D5
:100F90000E94691120912222309123228217930707
:100FA000A1F780912422843091F40F940302B601BA
:100FB000C80104960E944171882339F3F601F39524
:100FC0009081319681E08083892F90E029C0823022
:100FD00021F0823121F421E005C022E003C081111B
:100FE000D2C020E0F801E480F12CB8016B5F7F4FA4
:100FF000A701C80129830E94E9740F940302298183
:10100000A601B801C7010E941272009709F4BDCF72
:10101000F601EF5FFE4F21E020833197808399270F
:101020009166B3C0803809F0A8C0D80113968C919E
:101030001397863809F0A1C080912122883B09F0DE
:10104000A4CF14968C91813408F49AC0C8012DDA8B
:10105000C8012FDA811192CFF80185818138D9F446
:10106000F601F395D80114968C91149781508083E2
:1010700014964C9150E041505109B8016A5F7F4F7E
:10108000C6010E94E074F601EF5FFE4F82E08083AC
:1010900080E090E97AC0823821F5F601EF5FFE4FDB
:1010A0008081823009F06ACF10823197E080F12C84
:1010B000F801448150E0B8016A5F7F4FC6018E0D90
:1010C0009F1D0E94E074F1E0EF1AF108D801149618
:1010D0008C91E80EF11CA701B601C8010E94E074D2
:1010E0000FC081114BCFF801E480F12CF1E0EF1A31
:1010F000F108B8016A5F7F4FA701C8010E94E97437
:101100000F94030220E0A601B801C7010E941272E9
:10111000009709F43ACF20912422223009F078CFA9
:10112000D6012C91211174CF11962C91223009F007
:101130006FCF8C30910508F46BCF8C0103501109EF
:1011400096012E5F3F4FF9012F5F3F4F40814111C4
:1011500010C09601245F3F4FE217F30708F458CF01
:10116000BF016F5F7F4FA801C6010E94E074C801F4
:101170004FCF0150110939F74BCF86E89AE605C0E9
:1011800080E097E602C081E89AE60F90DF91CF9168
:101190001F910F91FF90EF90DF90CF9008950F93E4
:1011A0001F93CF93DF93CDB7DEB7CB57D240CDBFE0
:1011B000DEBFFC0122812111AAC023812111A7C019
:1011C0008C018481811105C0F8018481811113C0D3
:1011D00008C0CF016AD9C8016CD98823A9F384E873
:1011E00099C00E9420128C01019609F48EC00E94C1
:1011F0002D12823211F085E88DC0C8018F778115DC
:10120000914019F0003C1105B1F70F940302B801A9
:1012100083E0769567958A95E1F7CE01019613DC18
:10122000882349F30AE412E00C0F1D1F0E5F1F4FC5
:10123000AE014F5F5F4FBE0166547E4FC8010E94F2
:101240009C1F8111D8CFCA5ADE4F6881C655D14044
:1012500070E0C801E6DBCA5ADE4F4881C655D1406E
:1012600050E0BE0166547E4F87E591E08C0F9D1FD4
:1012700003960E943371CA5ADE4F4881C655D14049
:1012800050E0CA010396BE0166517E4FE7E5F1E0EA
:10129000EC0FFD1F8E0F9F1F0E94337182E4C65B0F
:1012A000DD4F8883CA54D240CA5ADE4F8881C65562
:1012B000D140C55BDD4F8883CB54D240CE01865BE5
:1012C0009D4F0E94A7128115F0E99F0721F583E445
:1012D000C95ADE4F8883C755D140CA5ADE4F88812C
:1012E000C655D140880F8F5FC85ADE4F8883C855D6
:1012F000D14084E0C75ADE4F8883C955D140CE0122
:10130000895A9E4F0E94A71206C082E801C086E853
:101310009AE601C099E6C558DD4FCDBFDEBFDF912B
:10132000CF911F910F910895EF92FF920F931F930A
:10133000CF93DF93FC011281113009F0BEC0EB01A5
:10134000FC018381803A61F160F4813009F46FC05F
:1013500008F442C0823009F490C0863809F49AC07B
:10136000ACC08A3A59F160F4843A08F0A6C0815AB8
:10137000DF91CF911F910F91FF90EF900C942D165C
:101380008C3A09F09AC06FD598838983FE01EF5F8C
:10139000FE4F1083D39582E0888382E091E692C06D
:1013A0006DE0CE010E941871FE01EF5FFE4F1083C9
:1013B000D39584E1888384E191E684C06EE0CE0118
:1013C0000E941871FE01EF5FFE4F1083D3958BE0F2
:1013D00088838BE091E676C082E98883198261E890
:1013E00080E090E00E943812009709F466C033E074
:1013F000880F991F3A95E1F79A838B8363E880E021
:1014000090E00E943812009709F457C024E0880F3A
:10141000991F2A95E1F79C838D83FE01EF5FFE4FB4
:101420001083D39586E0888386E091E64BC060E820
:10143000CE010E9438128C01892BB1F468E8CE01EC
:101440000E9438127C01892BC1F169E8CE018E0D12
:101450009F1D0E943812009781F1E80EF91EE114D9
:10146000F1E0FF0609F08701FE01EF5FFE4F81E02A
:101470008083D3950883C8010BC061E8CE01F8D7FB
:101480000097D9F0FE01EF5FFE4F1083D39588835C
:10149000992711C063E0CE010296EAD7009781F048
:1014A00090E3988389838E5FFE01EF5FFE4F108388
:1014B000D395888390E0916605C088E89AE602C0DB
:1014C00085E899E6DF91CF911F910F91FF90EF9002
:1014D00008950F931F93CF93DF93EC018C818111BB
:1014E00005C08A81813009F08AC00BC0CE010E94FC
:1014F0005502CE010E945902882399F384E899E6A7
:101500008FC08B81803E69F48C81883009F07AC06D
:101510000F940302CE010796DF91CF911F910F9197
:101520005DC69FEF980F9E3060F48C8180518430AF
:1015300008F068C0CE010396DF91CF911F910F9103
:10154000D9C580588C3008F060C07AD78C01892BBF
:1015500009F45EC082D7833251F40115114009F0BD
:101560005AC0CE01DF91CF911F910F914FCB8232A4
:1015700069F4003C1105A9F3C8018F7781159140EA
:1015800081F30930124009F046C0EBCF813109F0F8
:1015900042C0C801925081309640E8F52C8120FF6E
:1015A0000AC08B81813839F09D81911137C021505B
:1015B0002D838C8321968B818138A1F038F480387B
:1015C00069F588E0289F900111240DC08358873069
:1015D00028F580E1289F90011124213088E0380708
:1015E000ECF401C0980102171307C1F40F94030231
:1015F000CE010396DF91CF911F910F91A8C788E884
:101600009AE60EC080E097E60BC081E89AE608C033
:1016100082E89AE605C081E899E602C085E899E685
:10162000DF91CF911F910F910895CF93DF93EC013C
:101630008C81811104C035D480E090E90AC0CE01CC
:101640000E945502CE010E9459028823A1F384E82A
:1016500099E6DF91CF910895DC01FB0190E02D9197
:101660008191281731F0943048F0211107C08F3F45
:1016700029F49F5F983099F780E0089581E00895FC
:10168000CF93DF931F92CDB7DEB741E06EEFCE016F
:1016900001960E94992399818EEF89270F90DF91FF
:1016A000CF910895CF93DF931F92CDB7DEB79EEF12
:1016B00089278983E5DF9981891731F041E06EEF51
:1016C000CE0101960E94AC230F90DF91CF91089537
:1016D000CF92DF92FF920F931F93CF93DF93CDB7FB
:1016E000DEB76297CDBFDEBF6B01042F815092E160
:1016F000899FF02C112442E16F2DCE0101960E94AA
:101700009923811156C01989002369F1C114D104AC
:1017100039F4912F92959F701FE0812F891B4CC047
:10172000812F807F803F09F446C0BE01675F7F4FF5
:10173000C60192DF312F3F70882379F012951F7018
:1017400091E0910F9F70892F8295807F832B898BE9
:101750001FE0191B31F51FEF24C02A89207F932F2A
:10176000922B998B1DC0C114D10421F41095812FA7
:101770008F7022C0012F0F700F30E9F0BE016F5F34
:101780007F4FC60169DF107F882331F091E0900F11
:101790009F70192B198BDCCF9A899F70192B198B8D
:1017A00010E042E16F2DCE0101960E94AC23812F03
:1017B00003C08FE001C08FEF6296CDBFDEBFDF9127
:1017C000CF911F910F91FF90DF90CF9008950F93CD
:1017D0001F93CF93DF931F921F92CDB7DEB7182FC1
:1017E000062F42E06CEFCE0101960E9499238111F1
:1017F00022C0115081E090E002C0880F991F1A9515
:10180000E2F749815A81013039F49C0120953095E5
:10181000CA018223932302C0842B952B89839A8348
:1018200042E06CEFCE0101960E94AC2391E0811161
:1018300003C090E001C091E0892F0F900F90DF91DD
:10184000CF911F910F9108951F93CF93DF931F9214
:101850001F92CDB7DEB7182F42E06CEFCE01019694
:101860000E949923115021E030E002C0220F331F63
:101870001A95E2F789819A812823392381E0232B65
:1018800009F080E00F900F90DF91CF911F910895A4
:10189000CF93DF93EC018FE6888387E18983809182
:1018A000352285FD02C080E801C081E88A8382E09C
:1018B0008B839091292220912A222C839D8392E868
:1018C0009E8391E09F8320912F22288723E82987F8
:1018D0008A8720912722309128223B872C8726E86F
:1018E0002D8723E02E87209130222F8720913122CF
:1018F000288B20913222298B25E82A8B8B8B809193
:101900003322209134222C8B8D8B8AE88E8B9F8BF7
:10191000B7DE888F409135224F7161F489818E5FE7
:10192000FE01F3958083CF5FDE4F91E0988390E0D6
:10193000916615C089818E5F840F898384E8898FC1
:101940004A8F6091362270913722615F7F4FCE01BE
:101950004B960E94D222813009F78FEF9FEFDF91E3
:10196000CF9108952F923F924F925F926F927F9204
:101970008F929F92AF92BF92CF92DF92EF92FF929F
:101980000F931F93CF93DF93CDB7DEB7E497CDBF0F
:10199000DEBF5C016B018A01FC016480758086807A
:1019A0009780273069F4FA013080C180D12CDC2C7B
:1019B000CC248281C82A0D5F1F4F3A943A9407C005
:1019C0002A3021F4FA0131908F0101C0312C19A283
:1019D0001AA2212C412C512C69A17AA14FE0CE01F1
:1019E00042962CAB0E94D222382F2CA98111DFC045
:1019F000EA88FB88FFEFEF16FF06F9F4293059F467
:101A00006FEF461A560AF5014482558289A19AA1C0
:101A10008787908BD7C0243039F4222009F4D2C0B4
:101A200081E1FE013196C8C0243008F0CBC0832D7F
:101A300090E0F50180839183C5C04E895F8944168B
:101A4000550608F42A01283021F44815590509F4EF
:101A5000B0C07A8D783311F061E001C062E0888D0A
:101A6000998D8615970581F4E114FFE3FF0661F077
:101A7000622B633049F46EE7631530F0F801F082B1
:101A8000E18233940E5F1F4FEC14FD0409F059C03E
:101A90002430F1F48815990551F4FE017296DE01A7
:101AA000119661E101900D926A95E1F70FC048151A
:101AB000590571F421100AC0FE017296DE011196DB
:101AC00061E101900D926A95E1F702C0222423940E
:101AD00086159705B9F5783311F061E001C062E031
:101AE000E114FFE3FF0661F0622B633049F46EE717
:101AF000631530F0F801F082E18233940E5F1F4FDE
:101B0000243009F456C0293009F453C0273081F439
:101B1000332009F44EC0F801E080F12CFE2CEE24B5
:101B20008181E82A0E5F1F4F3A943A943A010AC025
:101B3000783319F4253019F43CC02630D1F13C013A
:101B400001C0760188A18F7199F489A19AA10F969D
:101B500038A1432F4F71840F911D89A39AA336FD9D
:101B600024C04C895D89840F951F89A39AA31DC049
:101B70002A3059F769A17AA1615F7F4F432DCE01C9
:101B800083962CAB3BAB0E94D2222CA98111DDCFD6
:101B9000432D50E0BE016D5D7F4FC8010E94D3749C
:101BA0002CA93BA9892B89F604C0670115CF32E027
:101BB0000AC081E1FE017296D50101900D928A95CD
:101BC000E1F701C031E0832FE496CDBFDEBFDF91A6
:101BD000CF911F910F91FF90EF90DF90CF90BF902A
:101BE000AF909F908F907F906F905F904F903F90BD
:101BF0002F9008950F931F93CF93DF9300D01F92E0
:101C0000CDB7DEB720E03FE3209327223093282290
:101C100010922D2210922E2210922B2210922C2202
:101C200020E430E02093292230932A2228E32093D5
:101C30002F22009759F0FC0180819181A28180932D
:101C4000302290933122A093322209C081E1809307
:101C500030228FE3809331228FEF8093322282E013
:101C600090E0809333229093342280913522807EBD
:101C700083648062809335224FE060E070E087E209
:101C800092E20E94E42280EF89838DE48A8386E4D5
:101C90008B8343E06FE070E0CE0101960E94E42266
:101CA0008FEF8C8300E010E041E0602FCE010496BE
:101CB0000E94AC230F5F1F4F0115F1E01F07A1F732
:101CC00081E0F0DC2496CDBFDEBFDF91CF911F9184
:101CD0000F9108950F931F93CF93DF938C01EB0126
:101CE0000F940302209791F0CF3FD10509F010F433
:101CF0006C2F01C060E0C8010E9454231816190619
:101D000044F4C81BD90B080F191FECCF80E090E9F1
:101D100002C081E895E6DF91CF911F910F91089560
:101D2000CF93C82FADDC8730B9F4CC23A9F0CF30E6
:101D3000A9F021E030E0C15019F0220F331FFBCF92
:101D400080912522909126222823392381E090E05A
:101D5000232B31F080E004C080E001C081E090E0FE
:101D6000CF91089520912722309128222F3F3F4F75
:101D7000B9F0833019F48091302209C0843019F40D
:101D8000809130220AC0853021F4809131228295E1
:101D900004C0863029F4809131228F70C1DF08950C
:101DA00081E00895DF92EF92FF920F931F93CF93FC
:101DB000DF931F921F92CDB7DEB77C016F3F09F40E
:101DC00047C08091272290912822019609F440C0B3
:101DD00090912F22913119F092529230C8F5D62E5F
:101DE0000091292210912A22809136229091372247
:101DF0000F96F70180839183033011054CF1F701B1
:101E00006081718142E0CE0101960E94D22281114F
:101E10001FC099819F3FE9F09D15C1F02A81422F93
:101E200050E0BA016E5F7F4FF70180819181860F8C
:101E3000971F8083918302501109041B150B2111F8
:101E4000DBCF9395808391831A95D6CF81E001C033
:101E500082E00F900F90DF91CF911F910F91FF9033
:101E6000EF90DF9008958091252290912622089589
:101E70008F30B0F4882341F02EEF3FEF815031F0E6
:101E8000220F331F2160FACF20E030E0809125221D
:101E9000909126222823392320932522309326222D
:101EA000089587E0FFCBEF92FF921F93CF93DF93CC
:101EB000CDB7DEB76297CDBFDEBFFC0110812181B7
:101EC0002031D1F57C01BC016E5F7F4F40E0812F56
:101ED000FFDB8F3FA1F1882329F08F7090E0806CA9
:101EE00093662FC060E0F701808171DC882319F0D0
:101EF0008FEC93E626C0115082E1189F102D11241B
:101F000042E1612FCE0101960E9499238111F0CF09
:101F100088E0F7013A96DE01119601900D928A95BC
:101F2000E1F742E1612FCE0101960E94AC238111BD
:101F3000DFCF80E090E905C080E097E602C083E84B
:101F400099E66296CDBFDEBFDF91CF911F91FF90E2
:101F5000EF900895EF92FF920F931F93CF93DF932B
:101F6000CDB7DEB72897CDBFDEBF7C01FC01008175
:101F70008181811112C040E060E070E0802FA8DB19
:101F8000182F8F3F19F483E899E647C0802F5CDC57
:101F9000882361F185E899E640C0893018F088E02F
:101FA000F701818348E050E06FEF70E0CE010196C9
:101FB0000E94FA74F701418150E0B7016E5F7F4FD4
:101FC000CE0101960E94E07440E0BE016F5F7F4F3A
:101FD000802F7EDB182F8F3FB1F2802F35DC8111EF
:101FE000D9CF111103C081E090E006C01F70812F8E
:101FF00090E0806C936611C0015019F0880F991F12
:10200000FBCF2091252230912622822B932B809387
:1020100025229093262280E090E92896CDBFDEBF4E
:10202000DF91CF911F910F91FF90EF900895EF9264
:10203000FF921F93CF93DF93CDB7DEB76297CDBFEB
:10204000DEBF7C01FC0110818181811107C041E06C
:1020500060E070E0812F3CDB90E043C08031E1F52F
:1020600041E0B7016E5F7F4F812F32DB8F3FB9F1C7
:10207000882339F0982F9F70892F90E0806C9366A9
:1020800030C0115082E1189F102D112442E1612FC0
:10209000CE0101960E949923882319F08FEC93E6D4
:1020A00020C088E0F7013A96DE01119601900D926A
:1020B0008A95E1F78A89982F9F708989807F892B7B
:1020C000898B42E1612FCE0101960E94AC238111E0
:1020D000E5CF80E090E905C080E097E602C083E8A4
:1020E00099E66296CDBFDEBFDF91CF911F91FF9041
:1020F000EF900895FF920F931F93CF93DF93CDB787
:10210000DEB76297CDBFDEBF8C01BADA813009F04D
:102110004FC0F801F0808181803108F44CC098E014
:102120003296DE01119601900D929A95E1F798E0B2
:10213000F8013A96DE01199601900D929A95E1F711
:1021400093E39A8B998B803121F1F8019289913137
:1021500008F09FE09095292F2F709A89907F922BFD
:102160009A8B8131B1F0F8019389913108F09FE0A9
:102170009095292F2295207F9A899F70922B9A8B78
:10218000823139F0F801848980FF03C061E08F2D2E
:102190001EDBFA9462E1F69E602D112442E1CE012D
:1021A00001960E94AC23811109C080E090E908C02B
:1021B00082E899E605C080E097E602C081E895E6EE
:1021C0006296CDBFDEBFDF91CF911F910F91FF903F
:1021D0000895109225221092262208950F931F939E
:1021E000CF93DF938C0110922B2210922C2225E0AA
:1021F00040E050E060E07FE387E292E2B3DB8823D7
:1022000019F0C0E0D0E018C08091272290912822D8
:10221000019619F482E899E619C0809131228295DD
:102220008F707EDD882369F3F5CF9C012C0F3D1F55
:102230002C173D0738F0E90160E0CE010E945423DD
:1022400097FFF3CFC801D6DC80E090E9DF91CF9112
:102250001F910F9108950F931F93CF93DF931F92B8
:10226000CDB7DEB70FEF10E041E0612FCE01019650
:102270000E949923898108231F5FB1F70F3F99F4CA
:1022800029E040E050E06FEF7FEF87E292E26ADB07
:10229000813049F48091362290913722892B19F4AC
:1022A00080E090E0A7DC1092252210922622109266
:1022B0002B2210922C2225E040E050E060E07FE3EA
:1022C00087E292E24FDB0F90DF91CF911F910F9148
:1022D000089580912722909128220895CF93DF932B
:1022E000EC0128E040E050E060E070E087E292E23C
:1022F00039DB811104C0CE01DF91CF91C9CA82E8D8
:102300009AE6DF91CF910895CF93DF93EB012AE016
:10231000AC0160E070E087E292E224DB811104C04E
:10232000CE01DF91CF91B4CA82E89AE6DF91CF91D6
:102330000895CF93DF93EB0125E040E050E0BC012E
:1023400087E292E20FDB811104C0CE01DF91CF91D1
:102350009FCA82E89AE6DF91CF91089510922B22CE
:1023600010922C22BC0180E09FE3E3CFCF93DF9358
:10237000EB0124E040E050E0BC0187E292E2F2DAB7
:10238000811104C0CE01DF91CF9182CA82E89AE622
:10239000DF91CF910895CF93DF93EB0126E040E0EA
:1023A00050E0BC0187E292E2DDDA811104C0CE0187
:1023B000DF91CF916DCA82E89AE6DF91CF910895BF
:1023C000CF93DF93EB0127E0AC0160E070E087E2A0
:1023D00092E2C8DA811104C0CE01DF91CF9158CAD0
:1023E00082E89AE6DF91CF9108950F931F93CF93E0
:1023F000DF93CDB7DEB76197CDBFDEBF8B011D8206
:102400001E8227E0AC0160E070E0CE010196AADAFE
:1024100081110CC091E1FE013196A7E2B2E2019078
:102420000D929A95E1F7C80133DA02C082E89AE684
:102430006196CDBFDEBFDF91CF911F910F910895BF
:1024400080912722909128228F3F2FEF920721F031
:102450008091292290912A2208958091272290919B
:102460002822019619F080912F2208958FEF089568
:102470000F931F93CF93DF9300D01F92CDB7DEB79A
:102480008C0183E06C836EDC6C81882319F080E022
:1024900090E02CC06F7BCE01019684DC8130B9F7CF
:1024A00069817A816F5F7F4F69837A8341E0CE01D2
:1024B00003960E94D2228111EACF69817A816F5FEF
:1024C0007F4F69837A834B81413808F701151105E5
:1024D00029F48B81882341F090E008C0C8010E9454
:1024E000D2228823B1F3D3CF80E091E02496CDBFF0
:1024F000DEBFDF91CF911F910F91089584E032DC10
:10250000811105C080912F22833241F417C086E0EB
:1025100029DC8823B9F382E899E60895823289F4A8
:1025200083E280932F2260913622709137224FE010
:1025300087E292E20E94E422811106C080E090E9E5
:10254000089585E899E6089581E895E60895EF9263
:10255000FF920F931F93CF93DF931F921F92CDB7DC
:10256000DEB7FC01E0903322F0903422918191504B
:102570009E3F18F084E899E65FC08F01808186FF56
:1025800009C08F7B808386E0EDDB811107C06894F2
:10259000F1F807C084E0E6DB882319F082E899E6C9
:1025A0004BC0F8016081CE010196FCDB8111E2CFC6
:1025B000F8018081823021F0803811F0893811F4DF
:1025C0006894F0F88091332290913422E816F9064D
:1025D000B1F469817A81F80141818091362290912C
:1025E00037229B01281B390BC901840F911D2091B3
:1025F000292230912A2228173907E0F012C0E092F0
:102600003322F092342260913622709137224FE0CB
:1026100087E292E20E94E4228823D9F281E895E6DB
:102620000BC04E5FC8010E94E4228130B9F380E004
:1026300090E902C080E09BE60F900F90DF91CF9170
:102640001F910F91FF90EF900895BF92CF92DF926C
:10265000EF92FF920F931F93CF93DF936C01EB01E7
:102660007A018091272290912822019641F0B09022
:102670002F2281E0B81631F085E899E63BC086E864
:1026800099E638C083E06EDB811132C020912922A7
:1026900030912A22C6018C0F9D1F2817390710F18F
:1026A0000091362210913722015F1F4F9091352201
:1026B0009F71090F111D0C0D1D1DAE016FEF70E014
:1026C000C7010E94FA74F701F395C0833196B08276
:1026D0004C2FB801C7010E94D222813031F0CE01C7
:1026E000916608C082E892E605C081E892E602C0E1
:1026F00082E899E6DF91CF911F910F91FF90EF90C3
:10270000DF90CF90BF900895EF92FF920F931F93A9
:10271000CF93DF931F92CDB7DEB7FC0140812091AC
:102720002722309128222F3F3F4F39F020912F222E
:10273000213031F085E899E634C086E899E631C069
:102740008B017C0184E049830DDB4981811127C025
:102750002091292230912A22C801840F911D281727
:102760003907B8F02091362230913722215F3F4F50
:10277000809135228F71280F311DB901600F711FB3
:10278000C70101960E94E422813031F080E090E997
:1027900008C080E09BE605C081E895E602C082E8BB
:1027A00099E60F90DF91CF911F910F91FF90EF90DD
:1027B0000895CF93DF9320912722309128222F3F35
:1027C0003F4F39F020912F22213031F085E899E6F2
:1027D00025C086E899E622C0EC0184E0C3DA8111C5
:1027E0001BC06091292270912A226C177D0788F006
:1027F0006C1B7D0B80913622909137220F96209191
:1028000035222F71820F911D8C0F9D1FDF91CF916B
:1028100061CA80E09BE602C082E899E6DF91CF9131
:102820000895CF92DF92FF920F931F93CF93DF9380
:10283000CDB7DEB76197CDBFDEBF809127229091E3
:102840002822019609F44FC080912F228833D1F4B9
:102850008091332290913422029719F485E899E609
:1028600047C08091312282958F705ADA811107C05A
:102870008091352286FF09C00FE010E00CC082E88D
:1028800099E636C085E06EDAF1CF009129221091E9
:102890002A22015F1F4F8F71F82EC0903622D090F0
:1028A000372229E040E050E06FEF7FEFCE01019644
:1028B00059D8813099F60F0D111DC8018C0D9D1D41
:1028C000288939892817390749F628E040E050E07F
:1028D00060E070E087E292E245D8811107C0B8015C
:1028E000C601F8D905C086E899E602C082E89AE6F2
:1028F0006196CDBFDEBFDF91CF911F910F91FF9009
:10290000DF90CF9008956F927F928F929F92AF92B7
:10291000BF92CF92DF92EF92FF920F931F93CF93CC
:10292000DF93CDB7DEB7A197CDBFDEBFFC018091AD
:10293000272290912822019609F469C180912F22C3
:10294000883309F064C180912B2290912C22888FCA
:10295000998F2081223008F460C18181823609F08C
:102960005CC1B28030E02E5F3F4F8B2D90E0281786
:1029700039070CF452C1339688A1807E8F7D88A3DD
:10298000712C6C897D892A893B899B8C8C8CAD8CC0
:102990008F71682E50E04A8DA0E0B0E000E010E0BA
:1029A00081E0B81216C098A170FA95F959A36C8B02
:1029B0007D8B4A8F2A8B3B8BAE8FBF8F9B8E8C8EED
:1029C000AD8E907E892F862988A380818823B1F0DF
:1029D00024C181E08B15B8F098A170FA95F959A33C
:1029E0006C8B7D8B4A8F2A8B3B8BAE8FBF8F9B8EE0
:1029F0008C8EAD8E907E892F862988A389A18F30F9
:102A000009F00BC195C09181992331F3913108F000
:102A100004C1E92EF12C8FEFE81AF80ACB2CD12C47
:102A2000EC14FD040CF0F9C08081833809F446C031
:102A300060F48038E1F020F4882309F474C0EDC01C
:102A4000813879F0823821F1E8C0853809F44FC027
:102A500008F45FC0863809F454C08A3809F460C0AD
:102A6000DCC0923009F0D9C07724739403C093304E
:102A700008F0D3C050FDD1C05160628170E0913048
:102A800021F0762F6627F3806F2977FF4CC0C5C0F1
:102A9000953008F0C2C052604281842F8F7EF82E9C
:102AA00081E0F81609F43FC00F2EFEEDFF2EF02D49
:102AB000F40E8F15C0F54833B1F1AFC0923009F074
:102AC000ACC05460228130E0322F2227F3802F29BE
:102AD0002F3F8FE3380709F4A0C021158FE3380793
:102AE00009F49BC02F3F8FEF3807E9F496C092306E
:102AF00009F093C0A281B0E0BA2FAA27F380AF29D2
:102B000012C0933008F489C0586092808380A480FA
:102B10000AC0892F8F71682E8F010F5F1F4F03C06E
:102B2000913009F07AC09E5FB91AE90FF11D38CFD4
:102B30009A8D88A1983371F5806488A385FF6DC054
:102B4000809130228F70ECD8882319F082E899E6C2
:102B500072C02AE0A80160E070E0CE0101960E94F8
:102B6000B20C8823A1F081E1E7E2F2E2DE011196E6
:102B700001900D928A95E1F76A897B8929E040E00E
:102B800050E0CE0101960E94B20C813069F089E8D4
:102B90009AE651C08F7B88A39332E1F18E8D9F8D91
:102BA000907F8E8F9F8F36C08D819E818E8B9F8B65
:102BB000688979898C899D89680F791F6F5E7F4F3D
:102BC00088A18F71680F711D41E0CE0181960E942E
:102BD000D222882319F085E899E62DC06889798981
:102BE0004FE0CE0142960E94E4228111F4CF0115FC
:102BF0001105B1F048A14F7168897989615F7F4FF4
:102C0000C80101960E94E4228111E5CF09C082E843
:102C10009AE611C00115110531F084E899E60BC060
:102C200080E090E908C08091302282958F7078D83A
:102C300081118CCF98CFA196CDBFDEBFDF91CF9110
:102C40001F910F91FF90EF90DF90CF90BF90AF90CA
:102C50009F908F907F906F9008950F931F93CF93C5
:102C6000DF93CDB7DEB76197CDBFDEBF8B0120917B
:102C70002722309128222F3F3F4F19F482E89AE60D
:102C80002EC090912F2298739833C1F7833008F0AB
:102C900080E091E1E7E2F2E2DE01119601900D920F
:102CA0009A95E1F723E0281BA80160E070E0CE01CF
:102CB00001960E94B20C813009F729813A812115D1
:102CC000310559F0F801EF5FFE4F8083220F3197F5
:102CD0002083822F90E0916602C080E090E96196A7
:102CE000CDBFDEBFDF91CF911F910F91089520914D
:102CF0003D22382FFC0190E08E2F831B821718F4A1
:102D00008191982BF9CF81E0911180E008950F9384
:102D10001F93CF93DF93EC018A01AB01BC010E94AA
:102D20009F3C882341F0B801CE01DF91CF911F91E4
:102D30000F910C94553CDF91CF911F910F91089505
:102D400040913B2250913C22E2CF9B01BA0140913D
:102D50003D22413218F0A9010C94853D493118F00B
:102D6000A9010C946A48A9010C945A3DEF92FF9274
:102D70000F931F93CF93DF93CDB7DEB7C056D10922
:102D8000CDBFDEBF8C017901CE010196DEDFB70138
:102D9000CE0101960E945A6D40913D2250E060E0C4
:102DA00070E0C8010E94FA7440913D2250E0BE01DB
:102DB0006F5F7F4FC8010E94E074C05ADF4FCDBFE4
:102DC000DEBFDF91CF911F910F91FF90EF9008959B
:102DD0000F931F93CF93DF93EC018A010E94553C20
:102DE000882349F0A801BE01CE01DF91CF911F9148
:102DF0000F910C949F3CB801CE010E94813C81113F
:102E0000F1CFDF91CF911F910F91089540913B2217
:102E100050913C22DDCFEF92FF920F931F93CF93FF
:102E2000DF938C01EB01685E7F4FCE01EFDF88E11D
:102E3000F80111928A95E9F77E01F8E2EF0EF11C94
:102E4000D801189688E0F70101900D928A95E1F774
:102E5000BE01C801DBDFBE01605F7F4F88E0F70184
:102E6000DB0101900D928A95E1F7C801DF91CF91C6
:102E70001F910F91FF90EF90C9CFAF92BF92CF9269
:102E8000DF92EF92FF920F931F93CF93DF93CDB713
:102E9000DEB7C056D109CDBFDEBF7C016B015B013F
:102EA00080E2A80EB11CB501C601B0DFD7011D92AA
:102EB0001D921D921D928CE1F50101900D928A9553
:102EC000E1F7B701C601A2DFD70111968FE1F50145
:102ED00001900D928A95E1F7B701C60197DFC7010E
:102EE0000E94CF3CB601C70191DF8E010F5C1F4FDE
:102EF00080E2F501D80101900D928A95E1F7C801B1
:102F00000E94CF3CC8010E94CF3CC8010E94CF3C28
:102F1000C8010E94CF3CB801C70178DFC8010E94F8
:102F2000CF3CC8010E94CF3CB801C7016FDFC80188
:102F30000E94CF3CB801C70169DFF60127AD30E040
:102F4000A90184E0569547958A95E1F7C9019695C0
:102F5000879596958795840F951F820F931FA901DA
:102F600056954795840F951F220F331F280F391F41
:102F700086AD880F211D311D80E180933D22B0E296
:102F8000BB2EF8018B2D11928A95E9F7F60184ADDD
:102F900095ADA6ADB7AD89AB9AABABABBCABCE0133
:102FA00001966C01FC018B2D11928A95E9F729831A
:102FB0003A83B601C8010E94553C19821A828CE1FD
:102FC000F801DE01159601900D928A95E1F7B8019E
:102FD000C6010E94553CC8010E94CF3CC8010E9416
:102FE000CF3CC8010E94CF3CC8010E94CF3CB80131
:102FF000C6010E94553CC8010E94CF3CC8010E94F6
:10300000CF3CB801C6010E94553CC8010E94CF3C8C
:10301000B801C6010E94553CC8010E94CF3CB801CE
:10302000C6010E94553CC8010E94CF3CB801C601B0
:103030000E94553CB0923D22B601C701E7DEC05A5E
:10304000DF4FCDBFDEBFDF91CF911F910F91FF907A
:10305000EF90DF90CF90BF90AF9008958F929F92A6
:10306000AF92BF92CF92DF92EF92FF920F931F9396
:10307000CF93DF937C01EB01E0913B22F0913C2266
:1030800080E2D70101900D928A95E1F7C7010E9475
:10309000CF3CC7010E94CF3CBE01C7010E94553CF6
:1030A000182F6E0180E2C80ED11CB601C7010E9424
:1030B000553C810F13E0180F0CE0FE01802F119298
:1030C0008A95E9F7FE01F4965E018CE0A80EB11C2A
:1030D0008CE0D50101900D928A95E1F74E01E8E16F
:1030E0008E0E911C8CA99DA9AEA9BFA9888F998F1E
:1030F000AA8FBB8F88A199A1AAA1BBA18C8F9D8FFC
:10310000AE8FBF8FBE01C7010E94553C180FFE0154
:10311000B4968CE1DE0101900D928A95E1F71D8E47
:103120001E8E1F8E80E180933D22C5010E94CF3C00
:103130008C8F88E080933D22BE01685C7F4FC40184
:103140000E94553C180F80E280933D22BE01C701CA
:103150000E94553C180F80E2F601DE0101900D92AD
:103160008A95E1F7FE01802F11928A95E9F7BE0159
:10317000C7010E94553C180F8CE0F601DE0101905A
:103180000D928A95E1F71CA61DA61EA61FA6AE01EC
:103190004C5E5F4FB701C7010E949F3C181B18A2ED
:1031A00019A21AA21BA218AA19AA1AAA1BAA8C85CC
:1031B0009D85AE85BF858CA79DA7AEA7BFA7A4019F
:1031C000B701C7010E949F3C181B8CA19DA1AEA115
:1031D000BFA188A799A7AAA7BBA71CA21DA21EA230
:1031E0001FA2AE01405F5F4FB701C7010E949F3C25
:1031F000181BF40111920A95E9F788819981AA8137
:10320000BB818CA39DA3AEA3BFA388859985AA8506
:10321000BB8588A799A7AAA7BBA7A501B701C70126
:103220000E949F3C912F981B80E4FE0111928A9589
:10323000E9F798839C8F9CA798AFA601BE01CE01A9
:103240000E949F3CBE01C701DF91CF911F910F915A
:10325000FF90EF90DF90CF90BF90AF909F908F90B6
:10326000D5CD6F927F929F92AF92BF92CF92DF9215
:10327000EF92FF920F931F93CF93DF93EC018B019B
:1032800080E1982E90923D221C8E1D8E1E8E1F8EE8
:103290005B0180E5A80EB11C3E01ACE06A0E711C1A
:1032A00080E1F501D30101900D928A95E1F718862E
:1032B00019861A861B866B01BCE5CB0ED11CF60164
:1032C00080819181A281B3818C839D83AE83BF83F2
:1032D000F50180819181A281B38188839983AA833A
:1032E000BB837E01F0E1EF0EF11CC7010E94CF3CD1
:1032F0001CA61DA61EA61FA6BE01605E7F4FF8017C
:10330000EC5AFF4F8CE0DB0101900D928A95E1F7BA
:10331000C3010E94553C9C8D890F8C8FB501C7015C
:103320000E94553C88A3FE01B1968FE0DF011D92FB
:103330008A95E9F790E3E92EE0923D22B801CE01AB
:103340000E94553CF82EB801605D7F4FCE010E946F
:10335000553CF80E3801B0E26B0E711CF301892D5B
:1033600011928A95E9F7B301CE010E94553CF80EFF
:1033700080E1F501D30101900D928A95E1F7B80142
:103380006C5D7F4FCE010E94553CF80E60913B2250
:1033900070913C22CE010E94553CF80E60913B2278
:1033A00070913C22CE010E94553CF80EA801445D6C
:1033B0005F4FBE01CE010E949F3CF81A88E08093C7
:1033C0003D22B801685A7F4FF60180819181A28128
:1033D000B381FB0180839183A283B383C801889664
:1033E0000E94553CD801D0968C93A801445E5F4F53
:1033F000F801148E158E168E178EF1968BE1DF0173
:103400001D928A95E9F7E0923D22BE01CE010E940D
:103410009F3CF81A6801BCE0CB0ED11C85E2F60196
:1034200011928A95E9F790923D22F801E05CFF4FF6
:10343000F082D8011C96FC921C975896FC925897E3
:103440005C96FC92A801445C5F4FB601C6010E94E5
:103450009F3CE0923D22B601CE01DF91CF911F91BA
:103460000F91FF90EF90DF90CF90BF90AF909F9023
:103470007F906F90CBCC0F931F93CF93DF93CDB7FB
:10348000DEB7C056D109CDBFDEBF8C0180913D2291
:10349000813228F0CE0101960E9455690BC0893116
:1034A00028F0CE0101960E94945504C0CE010196E9
:1034B0000E948D6380913822813431F4BE016F5FA8
:1034C0007F4FC801A8DC29C0823431F4BE016F5F90
:1034D0007F4FC801C3DD21C0833431F4BE016F5F6B
:1034E0007F4FC801BEDE19C0843831F4BE016F5F62
:1034F0007F4FC801C2DC11C060913B2270913C2219
:10350000CE0101960E945A6D40913D2250E0BE01CD
:103510006F5F7F4FC8010E94E074C05ADF4FCDBF7C
:10352000DEBFDF91CF911F910F9108950F931F93ED
:10353000CF93DF93CDB7DEB7C056D109CDBFDEBF85
:103540008C01CE01019601DC80913822813431F466
:10355000BE016F5F7F4FC8015EDC29C0823431F449
:10356000BE016F5F7F4FC80179DD21C0833431F424
:10357000BE016F5F7F4FC80174DE19C0843831F41B
:10358000BE016F5F7F4FC80178DC11C060913B22A4
:1035900070913C22CE0101960E945A6D40913D22CD
:1035A00050E0BE016F5F7F4FC8010E94E074C05AB7
:1035B000DF4FCDBFDEBFDF91CF911F910F910895F7
:1035C0005F926F927F928F929F92AF92BF92CF92B3
:1035D000DF92EF92FF920F931F93CF93DF93CDB7BC
:1035E000DEB7C052D140CDBFDEBF8C015B014B01C5
:1035F00080E3880E911CC4017ADB582E8111BBC078
:103600007801E0E3EE0EF11CC70171DB882341F085
:1036100080E9F501D80101900D928A95E1F7AFC0DC
:103620003501F0E66F0E711CB301CE01C19623DFA8
:10363000AE014F5C5F4FB801CE018F509F4F76DFD8
:10364000680180E6C80ED11CB601CE01019613DFD9
:10365000AE014F5F5F4FB501CE018F539F4F66DFC5
:10366000A301BE016F5C7F4FCB0160DFAE014F5CF9
:103670005F4FB701CE018F569F4F58DFA601BE01A5
:103680006F5F7F4FCB0152DFAE014F5F5F4FB401E1
:10369000CE018F599F4F4ADFBE016F507F4FCE0141
:1036A0008F539F4F4DDBBE016F567F4FCE018F5919
:1036B0009F4F46DBCE018F539F4F19DB582E882337
:1036C00089F0CE018F599F4F12DB582E811155C0C2
:1036D00080E9F80111928A95E9F781E0F801808389
:1036E00080AB4DC0BE016F537F4FCE01C196C3DE8C
:1036F000AE014F5C5F4FBE016F537F4FCE0101960D
:1037000015DFAE014F5C5F4FBE016F507F4FC701A9
:103710000DDFBE016F597F4FC801ADDEBE016F5F87
:103720007F4FC8010DDBB701C8010ADBB701C80133
:1037300007DBB801C70104DBAE014F595F4FB7018A
:10374000C701F4DEAE014F5F5F4FBE016F567F4F82
:10375000CE01C196EBDEBE016F5C7F4FC701F0DA90
:10376000A301B601C601E2DEAE014F535F4FB601C1
:10377000C601DCDE04C0512C02C055245394852DB3
:10378000C05EDE4FCDBFDEBFDF91CF911F910F91A5
:10379000FF90EF90DF90CF90BF90AF909F908F9071
:1037A0007F906F905F900895CF92DF92EF92FF929B
:1037B0000F931F93CF93DF93CDB7DEB7C05CD109D2
:1037C000CDBFDEBF7C018C01005D1F4FC8018FDAC9
:1037D0008111BFC0B801CE01C1964DDE8091382263
:1037E0009701205A3F4F690186FF2CC0B901CE01D5
:1037F0008F569F4F40DE80E3FE01EF56FF4FDE0104
:10380000119601900D928A95E1F7B701CE010196CC
:10381000FDDA80E3F701DE01AF59BF4F01900D9251
:103820008A95E1F7BE016F567F4FCE018F599F4FAA
:1038300087DAAE014F5F5F4FBE016F597F4FCB01FB
:1038400075DE07C0B70187FF0FC0CE018F599F4FAC
:1038500012DE80E3FE01EF59FF4FDE011196019069
:103860000D928A95E1F728C0CE018F599F4F03DE54
:1038700080E3FE01EF59FF4FDE01119601900D929A
:103880008A95E1F7B601CE018F569F4FF4DDBE0158
:103890006F567F4FCB01EFDD6091392270913A2254
:1038A000AE014F565F4FCA0141DEBE016F567F4FDA
:1038B000CE018F599F4FAADABE016F5F7F4FCB01B8
:1038C000A5DABE016F5F7F4FCE018F599F4F9EDA01
:1038D000A601B801C6012ADEB601C60197DAAE011B
:1038E0004F5C5F4FB701C80121DEB801C8018EDA15
:1038F000B801C8018BDABE016F597F4FC701BBDD2C
:10390000B801C7011DDAB801C7011ADABE016F5C40
:103910007F4FCE010196AFDDBE016F5F7F4FCB01C0
:1039200075DABE016F5F7F4FCB0170DABE016F5F4A
:103930007F4FCB016BDAB701C80102DAA801BE01E3
:103940006F597F4FC801F2DDBE016F5F7F4FC80125
:10395000F7D9C054DF4FCDBFDEBFDF91CF911F91AC
:103960000F91FF90EF90DF90CF900895EF92FF922C
:103970000F931F93CF93DF93EC018B017A01CB015F
:10398000805A9F4FB4D9882341F080E9F701DE01C6
:1039900001900D928A95E1F721C080E9F801DE01DE
:1039A00001900D928A95E1F7C701805A9F4F9FD9E8
:1039B000811114C0B701CE0103DE882379F080E9BC
:1039C000F801DE0101900D928A95E1F7CE01DF91B9
:1039D000CF911F910F91FF90EF90E6CEDF91CF91A5
:1039E0001F910F91FF90EF9008958F929F92AF9249
:1039F000BF92CF92DF92EF92FF920F931F93CF93DC
:103A0000DF93CDB7DEB7C05CD109CDBFDEBF5C01AF
:103A10006A0180903D22912C7E0181E9E80EF11C23
:103A2000A401C7010E94E0748E010F591F4FA40129
:103A3000B601C8010E94E074A40160E070E0CE010C
:103A400001960E94FA74A40160E070E0CE01C19674
:103A50000E94FA7481E089AB9924939440913D22AD
:103A60009FEF940FF7018081892531962E2F2E1913
:103A7000291718F42081822BF8CF811105C050E05E
:103A8000BE016F5C7F4F11C0F8018081892531969E
:103A90002E2F201B291718F42081822BF8CF81119B
:103AA00022C050E0BE016F5F7F4FC5010E94E074ED
:103AB000C054DF4FCDBFDEBFDF91CF911F910F917B
:103AC000FF90EF90DF90CF90BF90AF909F908F903E
:103AD0000895C7010E94263D89A980FD09C0CE0135
:103AE000C1960E94263DF701808180FFF2CF15C06C
:103AF000B601CE01C1960E94553C682FCE01C196F9
:103B00000E94273DF0CFC8010E94263D898180FD9B
:103B100009C0CE0101960E94263DF801808180FFF8
:103B2000F2CF0BC0B601CE0101960E94553C682F22
:103B3000CE0101960E94273DF0CFB801C7010E9437
:103B4000813CA601882351F0B801C701E0D8A60145
:103B5000BE016F5F7F4FCE01C19609C0B701C8019A
:103B6000D6D8A601BE016F5C7F4FCE010196CFD89B
:103B700075CF80913D2208956F927F928F929F9290
:103B8000AF92BF92CF92DF92FF920F931F93CF938A
:103B9000DF93CDB7DEB7C15DD540CDBFDEBF4115E8
:103BA000510551F1FA01EB5AFE4F208120933D223D
:103BB00040933B2250933C229A0120543F4F209344
:103BC000392230933A22319720812093382200976E
:103BD00099F06115710581F05A018B016C0187D84C
:103BE00081110AC0350120E3620E711CB301C601C8
:103BF0000E94813C882311F091E004C180E9F80122
:103C0000DE01AF5EBA4F01900D928A95E1F74091C7
:103C10003D2250E060E070E0CE018F589A4F0E9444
:103C2000FA7481E0CF58DA4F8883C157D54080E3DA
:103C3000F601DE01AF55BA4F01900D928A95E1F77A
:103C400080E9FE01EF5EFA4FDE01AF5DBE4F0190ED
:103C50000D928A95E1F76E013FE4C31A3EEFD30A55
:103C600022E09C2CFD2C30E9832E822F8695E1E901
:103C7000F0E0EC0FFD1F40E9849FE00DF11D1124E1
:103C8000D601882D01900D928A95E1F7C601CF5299
:103C9000DA4F2883C15DD54087DDAE014F5D5E4FB1
:103CA000B601C60180579F4F61DECF52DA4F28819F
:103CB000C15DD5402E5F80EEC81A8EEFD80A28303D
:103CC000A1F680E9E92DFF2DDE01AF56BF4F01902F
:103CD0000D928A95E1F7FE0131966F0180E911920C
:103CE0008A95E9F780913D22803269F0803339F07E
:103CF000883109F04AC090E4892E912C2FC020E829
:103D0000822E912C2BC0F12C86E5882E912CCE0191
:103D10008F559A4F0E94CF3C8F2991E009F090E097
:103D2000F92EF82A960140E9949F200D311D1124A7
:103D3000C90141E950E04C0F5D1FE0E9FE9E400DD6
:103D4000511D1124B90112DEF1E08F1A9108B1F072
:103D5000C6012ADDC60128DDC60126DDCE018F554C
:103D60009A4F0E94CF3CF82EFF0CCE018F559A4FF0
:103D70000E94CF3C8F29F82EFF0CC9CF80E9F601B5
:103D8000D80101900D928A95E1F7480120E6820E54
:103D9000911CC4010E94771681112ECFA501B40198
:103DA000CE018F559A4F21DEBE016F557A4FC60165
:103DB00062DBA601B801C801B9DBA601BE016F55DF
:103DC0007A4FCB01B3DBAE014F555A4FC801C096B5
:103DD000BC01ACDB40913D2250E060E070E0C401EA
:103DE0000E94FA7481E0F4018083C8010E94771672
:103DF000811102CFB301C8010E94813C91E0811181
:103E000001C090E0892FCF52DA4FCDBFDEBFDF91E6
:103E1000CF911F910F91FF90DF90CF90BF90AF9007
:103E20009F908F907F906F900895AF92BF92CF92A6
:103E3000DF92EF92FF920F931F93CF93DF93CDB753
:103E4000DEB7C059D109CDBFDEBF6C018B017A014D
:103E5000FA01EB5AFE4F808180933D2240933B2232
:103E600050933C22CA0180549F4F809339229093F3
:103E70003A225A018CEAA81A8EEFB80AF50190810D
:103E800090933822907CD1F1605D7F4FCE018F59A5
:103E90009F4FF1DAB801CE01C196EDDAA801BE015B
:103EA0006F5C7F4FCE01019641DBB70160517F4FC0
:103EB000CE0101960E940617F501808186FF0FC092
:103EC000B801CE0101960E94A016B801CE0101965C
:103ED0000E94A016B801CE0101960E94A016AE0164
:103EE0004F595F4FBE016F5F7F4FCB010E949F3CD8
:103EF000CE0101960E947716882371F0F701E05EEB
:103F0000FE4F80E3D60101900D928A95E1F7A7015B
:103F1000B801C60131DE01C081E0C057DF4FCDBF1F
:103F2000DEBFDF91CF911F910F91FF90EF90DF9057
:103F3000CF90BF90AF9008952F923F924F925F9293
:103F40006F927F928F929F92AF92BF92CF92DF92A9
:103F5000EF92FF920F931F93CF93DF93009709F493
:103F60003FC061157105E1F18A01EB017C0185E03B
:103F7000282E3A018BEA681A8EEF780A6A01E0E689
:103F8000CE0ED11C5B01F0E3AF0EB11C4A0180E9FB
:103F9000880E911C312CF3018081381650F42701D2
:103FA000430C511C61E0C2011BD48130D9F333941E
:103FB000F2CFF601DE0180E301900D928A95E1F7E0
:103FC000F401D50180E301900D928A95E1F7A801F3
:103FD000BE01C701D1DD882321F02A942110DACF58
:103FE00081E0DF91CF911F910F91FF90EF90DF90D3
:103FF000CF90BF90AF909F908F907F906F905F9089
:104000004F903F902F9008956F927F928F929F9242
:10401000AF92BF92CF92DF92EF92FF920F931F93D6
:10402000CF93DF93CDB7DEB7C052D140CDBFDEBF57
:104030005C018B01FB01EB5AFE4F808180933D2296
:1040400060933B2270933C22CB0180549F4F80931E
:10405000392290933A22319780818093382285E0EB
:10406000C82ED12C7B0180E3E80EF11C4B01E0EE61
:104070008E1AEEEF9E0A3501F0E66F0E711CA80154
:10408000BE016F5F7F4FCE018F569F4F55DF81116D
:1040900049C040913D2250E0BE016F5F7F4FCE018D
:1040A0008F539F4F0E94E0749701AE014F535F4FB3
:1040B000B401CE018F509F4F0E94B616F30160816C
:1040C0007181A701CE018F509F4F0E94E816A70172
:1040D000BE016F567F4FCB0188DC9701AE014F5078
:1040E0005F4FBE016F567F4FCA010E94B616CE01C8
:1040F0008F509F4F0E947716811114C090E3FE01EC
:10410000EF53FF4FD50101900D929A95E1F790E39F
:10411000FE01EF50FF4FD501D09601900D929A9578
:10412000E1F706C0F1E0CF1AD10809F0A8CF81E08D
:10413000C05EDE4FCDBFDEBFDF91CF911F910F91EB
:10414000FF90EF90DF90CF90BF90AF909F908F90B7
:104150007F906F900895DB01FC0190E0840F4D91FA
:10416000208130E0240F311D290F311D2193932F21
:104170008E13F5CF832F089580913D22089580936B
:104180003D220895CF92DF92EF92FF920F931F93FB
:10419000CF93DF93CDB7DEB7C054D109CDBFDEBF1B
:1041A0008C017B016A0180913D22803421F4C80199
:1041B0000E94BB5025C0803621F4C8010E94CA4726
:1041C0001FC0405C5F4FCE0101960E94BB50A7010B
:1041D000405C5F4FB601C8010E94BB5040E4B8018B
:1041E000CE010196B8DFA601B701C8010E94ED4BD0
:1041F00040E4BE016F5F7F4FC801805C9F4FABDF23
:10420000C05CDF4FCDBFDEBFDF91CF911F910F911B
:10421000FF90EF90DF90CF90089520913D222034C1
:1042200011F40C94ED4B203611F40C9467400C946F
:10423000164C8F929F92AF92BF92CF92DF92EF92E5
:10424000FF920F931F93CF93DF93CDB7DEB7C05884
:10425000D109CDBFDEBF8C018617970709F464C171
:104260004134510510F480E405C04136510508F48D
:1042700085C180E880933D226A017B0140913D2207
:1042800050E0440F551FB801C7010E94E07420E8B8
:10429000822E9E012F5F3F4F5901D901E82D1D92BB
:1042A000EA95E9F763E8C9010E94200690E0C81684
:1042B000D90609F03CC1898180FF3CC1B501C70125
:1042C0000E945A6D811139C1D501E82D1D92EA95E0
:1042D000E9F764E8C5010E94200690E0C816D906F7
:1042E00009F02EC1898180FF2EC1B501C8010E944D
:1042F0005A6D982E81112AC180913D22B5019701F6
:10430000280F311DC9010E94C36F80913D22F80121
:10431000E80FF11DDF01282D1D922A95E9F7809104
:104320003D2266E8D801A80FB11DCD010E942006EC
:1043300090E0C816D90609F00CC160913D2270E0EA
:104340009701260F371F600F711FA501C8010E943A
:10435000B372F501282D11922A95E9F763E8C5019A
:104360000E94200690E0C816D90609F0F5C0809199
:104370003D22B501D701A80FB11DCD010E94C36F29
:1043800080913D22F801E80FF11DDF01282D1D92DB
:104390002A95E9F780913D2265E8D801A80FB11D63
:1043A000CD010E94200690E0C816D90609F0D7C0BA
:1043B00060913D2270E09701260F371F600F711F3B
:1043C000A501C7010E94B37280913D22F801E80F58
:1043D000F11DDF011D928A94E9F780913D2263E887
:1043E000F801E80FF11DCF010E94200690E0C816E9
:1043F000D90609F0B7C080913D22A801B701970105
:10440000280F311DC9010E949F3C882E20913D221A
:10441000822F90E0B701680F791F800F911F0E94D3
:10442000AF7290913D22882011F0F80101C0F70190
:10443000E90FF11D80E8D50101900D928A95E1F711
:1044400080913D22F801E80FF11D80E8882EDF0100
:10445000282D1D922A95E9F780913D2267E8D80121
:10446000A80FB11DCD010E942006882309F47DC04C
:1044700080913D22B801680F711DA501C701CDDEF5
:1044800080913D22F801E80FF11DDF01282D1D92DA
:104490002A95E9F780913D2263E8D801A80FB11D64
:1044A000CD010E94200690E0C816D90609F060C030
:1044B00080913D22B801680F711DC7010E945A6D9D
:1044C00080913D22D801A80FB11D80E8F70101902D
:1044D0000D928A95E1F7F501282D11922A95E9F7B9
:1044E00064E8C5010E94200690E0C816D90609F0CC
:1044F00042C080913D22B801680F711DA501C7011E
:104500008CDED5011D928A94E9F7B801C7010E949B
:10451000AF72898380913D22B501F701E80FF11D4B
:10452000CF010E94AF722CC006EE902E29C017EE6C
:10453000912E26C0B8EE9B2E23C0A9EE9A2E20C045
:10454000FAEE9F2E1DC0EBEE9E2E1AC07CEE972E2B
:1045500017C06EEE962E14C05FEE952E11C04DEE74
:10456000942E0EC030EF932E0BC022EF922E08C077
:1045700091EF992E05C083EF982E02C080E67ACE87
:10458000892DC058DF4FCDBFDEBFDF91CF911F9186
:104590000F91FF90EF90DF90CF90BF90AF909F90E2
:1045A0008F900895242F33272A95260F371F10F454
:1045B00081E00895DC01FB0151E05BBF07900D92A3
:1045C0004A95E1F780E008953F924F925F926F9293
:1045D0007F928F929F92AF92BF92CF92DF92EF9293
:1045E000FF920F931F93CF93DF93CDB7DEB7DA958A
:1045F000CDBFDEBF5C016B01442319F0042F10E036
:1046000002C000E011E033243394412C552453942C
:1046100046018824360177247201E618F7080E1542
:104620001F0508F4780140E0B401CE010196BADF1D
:10463000E1E0F0E0EC0FFD1FE60DF71DD5019F0155
:10464000CF01821B930B8E159F0538F48D919081BD
:1046500098238913312C8193F3CFAE0CBF1CCE0C61
:10466000DF1C0E191F09232DAE014F5F5F4FBA01EA
:10467000C4010F94800F0115110551F680E0D39508
:10468000CDBFDEBFDF91CF911F910F91FF90EF90D3
:10469000DF90CF90BF90AF909F908F907F906F9062
:1046A0005F904F903F900895CF92DF92EF92FF92EC
:1046B0000F931F93CF93DF93CDB7DEB7DA95CDBFBE
:1046C000DEBF662319F0062F10E002C000E011E003
:1046D0006C01CC247C01FF2440E0B601CE010196A0
:1046E00061DF20E031E02E193F092017310708F47F
:1046F0008901A8016FEF70E081E090E08C0F9D1FB1
:104700008E0D9F1D0E94FA7420E0AE014F5F5F4F37
:10471000BA01C6010F94800FC801D395CDBFDEBF8B
:10472000DF91CF911F910F91FF90EF90DF90CF908D
:10473000089570E0442311F050E002C040E051E0E1
:104740009A01260F371F2130314020F40E94017555
:1047500080E0089581E0089570E0442311F050E076
:1047600002C040E051E09A01260F371F213031404E
:1047700050F4F8940E940C758091CF0187FDFCCF16
:10478000789480E0089581E00895CF93DF93A0E0CE
:10479000B2E081E08C93CAECD1E092E09883E0E251
:1047A000F0E0E49118821C96EC931C979883E1E268
:1047B000F0E0E49118821D96EC931D9793E0149617
:1047C0009C93149712968C93129711961C921197A2
:1047D00090961C92909791961C92DF91CF9108959C
:1047E000382FFC0141E08E2F831B8617C0F4808197
:1047F00098E020912002206820932002209123023B
:1048000020FFFCCF4093230220912402880F2170C7
:10481000822B915071F7908189278193E4CF80E0BA
:1048200008950895F894E0E0F6E080E1828393E053
:10483000948B91E09187828778940895F894E0E0D2
:10484000F6E080E1828393E0948B94E09187838704
:1048500078940895F894E0E0F6E01286118683E0FB
:1048600084878F918F918F9182E48F9381E08F93D2
:1048700081E08F9378941895F894E0E0F6E0138641
:10488000118683E084878F918F918F918BE48F9332
:1048900081E08F9381E08F93789418954427552772
:1048A000BA01CA012D9088809980AA80BB80CC80F3
:1048B000DD802A9C8001289C7001299CF00C011D40
:1048C000191F2C9C90012B9C100D211D391F2D9C14
:1048D000300D411D3D903A9C3001389CF00C011D7B
:1048E000161D791E399C000D111D791E3C9C270D4B
:1048F000301D411D591F3B9C30013D9C260D371D2D
:10490000401D511D4D904A9C3001489C000D111DC9
:10491000261D791E499C100D211D791E4C9C370DBA
:10492000401D511D691F4B9C30014D9C360D471D8C
:10493000501D611DE082F18202835D905A9C7001DE
:10494000589C100D211D3E1DF91E599C200D311D36
:10495000F91E5C9C4F0D501D611D791F5B9C700101
:104960005D9C4E0D5F1D601D711D6D906A9C7001F8
:10497000689C200D311D4E1DF91E699C300D411D96
:10498000F91E6C9C5F0D601D711D891F6B9C700171
:104990006D9C5E0D6F1D701D811D7D907A9C700158
:1049A000789C300D411D5E1DF91E799C400D511DF6
:1049B000F91E7C9C6F0D701D811D991F7B9C7001E1
:1049C0007D9C6E0D7F1D801D911D13832483358377
:1049D000ED90FD900D911D912D913D91AF93BF9361
:1049E000CF93DF93EF93FF938E809F80A884B98449
:1049F000EA85FB85CC24DD241601260136018E9C38
:104A0000400D511D6D1D2D1C8F9C500D611D2D1CC9
:104A10009E9C500D611D721D3D1C809E600D711D80
:104A20003D1C9F9C600D711D3D1CAE9C600D711D59
:104A3000831D6D1C1601819E700D811D6D1C909E45
:104A4000700D811D6D1CAF9C700D811D6D1CBE9C79
:104A5000700D811D961D7D1C6624829E800D911D0A
:104A60007D1C919E800D911D7D1CA09E800D911D31
:104A70007D1CBF9C800D911D7D1CEE9D800D911DA8
:104A80007D1C839E900D711C6D1C929E900D711C5F
:104A90006D1CA19E900D711C6D1CB09E900D711C23
:104AA0006D1CEF9D900D711C6D1CFE9D900D711C79
:104AB0006D1CFF9E700C611C2D1C0E9F700C611CE8
:104AC0002D1C1B9D700C611C2D1C2A9D700C611CE3
:104AD0002D1C399D700C611C2D1C0F9F600C211C1E
:104AE0003D1C1E9F600C211C3D1C2B9D600C211C3D
:104AF0003D1C3A9D600C211C3D1C1F9F200C311C4D
:104B00004D1C2E9F200C311C4D1C3B9D200C311C3C
:104B10004D1C2F9F300C411C5D1C3E9F300C411CD6
:104B20005D1C3F9F400C511C6F927F921C970D9013
:104B3000E0180D90F0080D9000090D9010090D90EF
:104B400020090D90300900081880811819809108FB
:104B50001A80A1081B80B1081C80E1091D80F109A1
:104B60001108E024F024002510252025302501948B
:104B7000E00CFD1C0D1D1D1D2D1D3D1D81249124CE
:104B8000A124B124E125F1251194810C9D1CAD1CBB
:104B9000BD1CED1DFD1D012400FAD601E601E89CB7
:104BA0003001E99C700CA11DF89C700CA11DBD1D6D
:104BB000EA9CA00DB11DCD1DF99CA00DB11DCD1D10
:104BC000089DA00DB11DCD1DEB9CB00DC11DDD1DBF
:104BD000FA9CB00DC11DDD1D099DB00DC11DDD1D6F
:104BE000189DB00DC11DDD1DEE9EC00DD11DCD1C4B
:104BF000FB9CC00DD11DCD1C0A9DC00DD11DCD1C2F
:104C0000199DC00DD11DCD1C289DC00DD11DCD1CE1
:104C1000EF9EEE24D00DC11CDE1CFE9ED00DC11CEB
:104C2000DE1C0B9DD00DC11CDE1C1A9DD00DC11CBD
:104C3000DE1C299DD00DC11CDE1C389DD00DC11C71
:104C4000DE1C8824FF9EC00CD11C8E1C0E9FC00C45
:104C5000D11C8E1C1B9DC00CD11C8E1C2A9DC00C0F
:104C6000D11C8E1C399DC00CD11C8E1C99240F9F09
:104C7000D00C811C9E1C1E9FD00C811C9E1C2B9D49
:104C8000D00C811C9E1C3A9DD00C811C9E1CAA2419
:104C90001F9F800C911CAE1C2E9F800C911CAE1C83
:104CA0003B9D800C911CAE1CBB242F9F900CA11C23
:104CB000BE1C3E9F900CA11CBE1C3F9FA00CB11CB3
:104CC0000F901F90FF91EF91E080F180028113819E
:104CD00024813581E40EF51E061F171F281F391F7A
:104CE000401D511D621D731D841D951DFF1F7EF00B
:104CF000E618F7080A0B1B0B2C0B3D0B4C095D0942
:104D0000680979098A099B09660877080FC0E60CCB
:104D1000F71C0A1F1B1F2C1F3D1F4C1D5D1D681D0E
:104D2000791D8A1D9B1D66247724661CF695061C3A
:104D3000171C271C371C471C571CE682F78200876C
:104D40001187228733874487558766877787808BCB
:104D5000918B028A138A248A358A468A578ADF9180
:104D6000CF91BF91AF9144275527BA01CA012D9029
:104D70008C849D84AE84BF84C888D9882A9C800195
:104D8000289C7001299CF00C011D191F2C9C90017E
:104D90002B9C100D211D391F2D9C300D411D3D9068
:104DA0003A9C3001389CF00C011D161D791E399C6F
:104DB000000D111D791E3C9C270D301D411D591FF2
:104DC0003B9C30013D9C260D371D401D511D4D90D3
:104DD0004A9C3001489C000D111D261D791E499CDE
:104DE000100D211D791E4C9C370D401D511D691F52
:104DF0004B9C30014D9C360D471D501D611DE08EB2
:104E0000F18E028F5D905A9C7001589C100D211DEF
:104E10003E1DF91E599C200D311DF91E5C9C4F0D45
:104E2000501D611D791F5B9C70015D9C4E0D5F1DC7
:104E3000601D711D6D906A9C7001689C200D311D74
:104E40004E1DF91E699C300D411DF91E6C9C5F0DB5
:104E5000601D711D891F6B9C70016D9C5E0D6F1D27
:104E6000701D811D7D907A9C7001789C300D411DD4
:104E70005E1DF91E799C400D511DF91E7C9C6F0D25
:104E8000701D811D991F7B9C70017D9C6E0D7F1D87
:104E9000801D911D138F248F358FED90FD900D9106
:104EA0001D912D913D91AF93BF93CF93DF93EF93DE
:104EB000FF938A889B88AC88BD88EE89FF89CC24C3
:104EC000DD241601260136018E9C400D511D6D1DFD
:104ED0002D1C8F9C500D611D2D1C9E9C500D611D25
:104EE000721D3D1C809E600D711D3D1C9F9C600DC0
:104EF000711D3D1CAE9C600D711D831D6D1C160146
:104F0000819E700D811D6D1C909E700D811D6D1C0C
:104F1000AF9C700D811D6D1CBE9C700D811D961D7A
:104F20007D1C6624829E800D911D7D1C919E800DAE
:104F3000911D7D1CA09E800D911D7D1CBF9C800D30
:104F4000911D7D1CEE9D800D911D7D1C839E900DFD
:104F5000711C6D1C929E900D711C6D1CA19E900D7C
:104F6000711C6D1CB09E900D711C6D1CEF9D900D01
:104F7000711C6D1CFE9D900D711C6D1CFF9E700CB4
:104F8000611C2D1C0E9F700C611C2D1C1B9D700C38
:104F9000611C2D1C2A9D700C611C2D1C399D700CF0
:104FA000611C2D1C0F9F600C211C3D1C1E9F600C62
:104FB000211C3D1C2B9D600C211C3D1C3A9D600C4E
:104FC000211C3D1C1F9F200C311C4D1C2E9F200CB2
:104FD000311C4D1C3B9D200C311C4D1C2F9F300C57
:104FE000411C5D1C3E9F300C411C5D1C3F9F400CD2
:104FF000511C6F927F921C970D90E0180D90F00855
:105000000D9000090D9010090D9020090D903009A8
:1050100000081C8481181D8491081E84A1081F8427
:10502000B1081888E1091988F1091108E024F02471
:1050300000251025202530250194E00CFD1C0D1DB8
:105040001D1D2D1D3D1D81249124A124B124E12588
:10505000F1251194810C9D1CAD1CBD1CED1DFD1D89
:10506000012400FAD601E601E89C3001E99C700CAD
:10507000A11DF89C700CA11DBD1DEA9CA00DB11DC9
:10508000CD1DF99CA00DB11DCD1D089DA00DB11D1C
:10509000CD1DEB9CB00DC11DDD1DFA9CB00DC11DD9
:1050A000DD1D099DB00DC11DDD1D189DB00DC11D7B
:1050B000DD1DEE9EC00DD11DCD1CFB9CC00DD11D74
:1050C000CD1C0A9DC00DD11DCD1C199DC00DD11D3B
:1050D000CD1C289DC00DD11DCD1CEF9EEE24D00D02
:1050E000C11CDE1CFE9ED00DC11CDE1C0B9DD00D14
:1050F000C11CDE1C1A9DD00DC11CDE1C299DD00DCB
:10510000C11CDE1C389DD00DC11CDE1C8824FF9EF6
:10511000C00CD11C8E1C0E9FC00CD11C8E1C1B9D64
:10512000C00CD11C8E1C2A9DC00CD11C8E1C399D1C
:10513000C00CD11C8E1C99240F9FD00C811C9E1C6E
:105140001E9FD00C811C9E1C2B9DD00C811C9E1C74
:105150003A9DD00C811C9E1CAA241F9F800C911C80
:10516000AE1C2E9F800C911CAE1C3B9D800C911C94
:10517000AE1CBB242F9F900CA11CBE1C3E9F900C0C
:10518000A11CBE1C3F9FA00CB11C0F901F90FF9153
:10519000EF91E08CF18C028D138D248D358DE40E12
:1051A000F51E061F171F281F391F401D511D621DA8
:1051B000731D841D951DFF1F7EF0E618F7080A0B6E
:1051C0001B0B2C0B3D0B4C095D09680979098A09F9
:1051D0009B09660877080FC0E60CF71C0A1F1B1F07
:1051E0002C1F3D1F4C1D5D1D681D791D8A1D9B1DBB
:1051F00066247724661CF695061C171C271C371C92
:10520000471C571C44A355A366A377A380A791A767
:1052100002A613A624A635A646A657A6DF91CF91CF
:10522000BF91AF91608C718C828C938CA48CB58C67
:10523000C4846C0CC5847C1CC6848C1CC7849C1CD8
:10524000C088AC1CC188BC1CC288EC1CC388FC1C78
:10525000C4880C1DC5881C1DC6882C1DC7883C1D14
:10526000CC24DD24DC1C4D0D5C1D6C1D7C1D8C1DB7
:105270009C1D0C1C1C1C2C1C3C1C4C1C5C1CC08055
:10528000C60CC486C180C71CC586C280C81CC68621
:10529000C380C91CC786C480CA1CC08AC580CB1CF9
:1052A000C18AC680CE1CC28AC780CF1CC38AC08474
:1052B000C01EC48AC184C11EC58AC284C21EC68AD9
:1052C000C384C31EC78A461D408F571D518F681D5A
:1052D000628F791D738F8A1D848F9B1D958F0E1C85
:1052E000068E1F1C178E201E20A2311E31A2421EC8
:1052F00042A2531E53A21124D11CDF9258972D9025
:105300003D904D905D906D907D90ED90FD900D9154
:105310001D912D913D918D909D90AD90BD90CD9022
:10532000DD904D915D916D917D918D919D912818AC
:1053300039084A085B086C087D08E40AF50A060B80
:10534000170B280B390B000820243024402450244C
:1053500060247024E024F024002510252025302529
:105360000194200C311C411C511C611C711CE11C5E
:10537000F11C011D111D211D311D3F932F931F9302
:105380000F93FF92EF927F926F925F924F923F92B4
:105390002F9288809980AA80BB80CC80DD80EE80AF
:1053A000FF80088519852A853B854C85841A4D85A3
:1053B000940A4E85A40A4F85B40A4889C40A4989CB
:1053C000D40A4A89E40A4B89F40A4C89040B4D89B2
:1053D000140B4E89240B4F89340B990B892699267F
:1053E000A926B926C926D926E926F9260927192783
:1053F000292739279195890E911CA11CB11CC11C2C
:10540000D11CE11CF11C011D111D211D311D3F93FB
:105410002F931F930F93FF92EF92DF92CF92BF9241
:10542000AF929F928F9209260F92EF93FF9344279A
:105430005527BA01CA012A9C8001289C7001299C29
:10544000F00C011D191F2C9C90012B9C100D211D8F
:10545000391F2D9C300D411D3A9CD001389CF00C19
:10546000011D1A1FB91F399C000D111DB91F3C9C4D
:105470002B0F301D411D591F3B9CD0013D9C2A0F15
:105480003B1F401D511D4A9CD001489C000D111D21
:105490002A1FB91F499C100D211DB91F4C9C3B0FA1
:1054A000401D511D691F4B9CD0014D9C3A0F4B1F55
:1054B000501D611DEF92FF920F935A9C7001589CF2
:1054C000100D211D3E1DF91E599C200D311DF91E88
:1054D0005C9C4F0D501D611D791F5B9C70015D9C94
:1054E0004E0D5F1D601D711D6A9C7001689C200D32
:1054F000311D4E1DF91E699C300D411DF91E6C9C1D
:105500005F0D601D711D891F6B9C70016D9C5E0D90
:105510006F1D701D811D7A9C7001789C300D411D9E
:105520005E1DF91E799C400D511DF91E7C9C6F0D6E
:10553000701D811D991F7B9C70017D9C6E0D7F1DD0
:10554000801D911D1F932F933F93CDB7DEB7EC8C39
:10555000FD8C0E8D1F8D28A139A188889988AA8875
:10556000BB88EC89FD89CC24DD2416012601360197
:105570008E9C400D511D6D1D2D1C8F9C500D611D6D
:105580002D1C9E9C500D611D721D3D1C809E600D4A
:10559000711D3D1C9F9C600D711D3D1CAE9C600DDE
:1055A000711D831D6D1C1601819E700D811D6D1C6A
:1055B000909E700D811D6D1CAF9C700D811D6D1C2A
:1055C000BE9C700D811D961D7D1C6624829E800DE3
:1055D000911D7D1C919E800D911D7D1CA09E800DB6
:1055E000911D7D1CBF9C800D911D7D1CEE9D800D2D
:1055F000911D7D1C839E900D711C6D1C929E900DC3
:10560000711C6D1CA19E900D711C6D1CB09E900DA7
:10561000711C6D1CEF9D900D711C6D1CFE9D900DFD
:10562000711C6D1CFF9E700C611C2D1C0E9F700C5C
:10563000611C2D1C1B9D700C611C2D1C2A9D700C67
:10564000611C2D1C399D700C611C2D1C0F9F600C62
:10565000211C3D1C1E9F600C211C3D1C2B9D600CC1
:10566000211C3D1C3A9D600C211C3D1C1F9F200CE1
:10567000311C4D1C2E9F200C311C4D1C3B9D200CC1
:10568000311C4D1C2F9F300C411C5D1C3E9F300C6B
:10569000411C5D1C3F9F400C511C6F927F920E88F5
:1056A000E0180F88F008088C0009098C10090A8C92
:1056B00020090B8C300900081A8481181B8491087A
:1056C0001C84A1081D84B1081E84E1091F84F1090E
:1056D0001108E024F0240025102520253025019410
:1056E000E00CFD1C0D1D1D1D2D1D3D1D8124912453
:1056F000A124B124E125F1251194810C9D1CAD1C40
:10570000BD1CED1DFD1D012400FAD601E601E89C3B
:105710003001E99C700CA11DF89C700CA11DBD1DF1
:10572000EA9CA00DB11DCD1DF99CA00DB11DCD1D94
:10573000089DA00DB11DCD1DEB9CB00DC11DDD1D43
:10574000FA9CB00DC11DDD1D099DB00DC11DDD1DF3
:10575000189DB00DC11DDD1DEE9EC00DD11DCD1CCF
:10576000FB9CC00DD11DCD1C0A9DC00DD11DCD1CB3
:10577000199DC00DD11DCD1C289DC00DD11DCD1C66
:10578000EF9EEE24D00DC11CDE1CFE9ED00DC11C70
:10579000DE1C0B9DD00DC11CDE1C1A9DD00DC11C42
:1057A000DE1C299DD00DC11CDE1C389DD00DC11CF6
:1057B000DE1C8824FF9EC00CD11C8E1C0E9FC00CCA
:1057C000D11C8E1C1B9DC00CD11C8E1C2A9DC00C94
:1057D000D11C8E1C399DC00CD11C8E1C99240F9F8E
:1057E000D00C811C9E1C1E9FD00C811C9E1C2B9DCE
:1057F000D00C811C9E1C3A9DD00C811C9E1CAA249E
:105800001F9F800C911CAE1C2E9F800C911CAE1C07
:105810003B9D800C911CAE1CBB242F9F900CA11CA7
:10582000BE1C3E9F900CA11CBE1C3F9FA00CB11C37
:105830000F901F90EDB7FEB7E680F58004811381CD
:1058400022813181E40EF51E061F171F281F391F04
:10585000401D511D621D731D841D951DFF1F7EF08F
:10586000E618F7080A0B1B0B2C0B3D0B4C095D09C6
:10587000680979098A099B09660877080FC0E60C50
:10588000F71C0A1F1B1F2C1F3D1F4C1D5D1D681D93
:10589000791D8A1D9B1D66247724661CF695061CBF
:1058A000171C271C371C471C571CD781C0858680B6
:1058B0009580A480B380C280D1807184772009F064
:1058C0004BC06C8468186C866D8469086D866E8424
:1058D0006A086E866F846B086F8668886C08688AB1
:1058E00069886D08698A6A886E086A8A6B886F0899
:1058F0006B8A6C88600A6C8A6D88610A6D8A6E8812
:10590000620A6E8A6F88630A6F8A688C640A688E7E
:10591000698C650A698E6A8C660A6A8E6B8C670A66
:105920006B8E6C8C680A6C8E6D8C690A6D8E6E8CB9
:1059300060086E8E6F8C61086F8E68A0620868A226
:1059400069A0630869A26AA064086AA26BA06508DE
:105950006BA2660877084BC06C84680C6C866D84FB
:10596000691C6D866E846A1C6E866F846B1C6F86E4
:1059700068886C1C688A69886D1C698A6A886E1CD4
:105980006A8A6B886F1C6B8A6C88601E6C8A6D8853
:10599000611E6D8A6E88621E6E8A6F88631E6F8AB2
:1059A000688C641E688E698C651E698E6A8C661EA2
:1059B0006A8E6B8C671E6B8E6C8C681E6C8E6D8C09
:1059C000691E6D8E6E8C601C6E8E6F8C611C6F8E6E
:1059D00068A0621C68A269A0631C69A26AA0641C1A
:1059E0006AA26BA0651C6BA266247724661CA2A128
:1059F000B296EDBFFEBF00246A0E701CCCA0C60C90
:105A0000CCA2CDA0C71CCDA2CEA0C71CCEA2CFA039
:105A1000C71CCFA2C8A4C71CC8A6C9A4C71CC9A6B6
:105A2000CAA4C71CCAA6CBA4C71CCBA6CCA4C71C9F
:105A3000CCA6CDA4C71CCDA6CEA4C71CCEA6CFA4F1
:105A4000C71CCFA60895CF93DF93AF93BF9344278E
:105A500055278A012D903D904D905D90688079800A
:105A60008A809B80289C6001269C5001279CB00C5A
:105A7000C11CD51E399C7001299C9001369CB00C2C
:105A8000C11CD21E351F379CC00CD11C351F499C30
:105A9000E30EF01C011D489C9001469CC00CD11CDB
:105AA000E21E351F389CD00CE11C351F599CF30EAB
:105AB000001D111D579C9001479CD00C211D351FC6
:105AC000569CD00C211D351F589CE20E031E151E3E
:105AD000F00C011D151FA082B182C282D3825A012F
