:1000000067320000CE6400009DC900003A930100F1
:1000100074260300E74C0600CE990C00D75C020062
:1000200011F003003443000069860000D10C010088
:10003000A2190200453304008A6608000BA00200E2
:1000400073300000E6600000CCC10000998301001D
:1000500032070300630E0600B32201007FE40100B3
:10006000065001003697000004FC000053280000F1
:10007000A55000004AA10000954201002985020018
:10008000F87800003E4900007C920000F82401004E
:10009000F0490200E0930400C027090074B7010092
:1000A0006CDC0200D4300000A861000050C30000E6
:1000B000A0860100400D0300801A060048E80100F8
:1000C000BADB0000366E010024F40000DD6D000094
:1000D0001BB700002A0355005300420020005300C4
:1000E0006D006100720074004300610072006400E2
:1000F000200052006500610064006500720000008D
:10010000120345003700330043003200430038003B
:10011000340000001003470065006D0061006C00B2
:1001200074006F0000000403090409025D0001016E
:1001300000A01909040000030B0000003621010192
:10014000000703000000C0120000C012000000679A
:10015000320000CE990C0035FE00000000000000C7
:1001600000000000300201000F010000000000004C
:10017000000107050102400000070582024000005F
:10018000070583030800101201000200000008E6C2
:100190000837340002010203012942FFFFFFFFFF7D
:1001A000FFFFFFFFFFFFFFFFFFFFFFFFFFFFFFFF5F
:1001B000FFFFFFFFFFFFFFFFFFFFFFFFFFFFFFFF4F
:1001C000FFFFFFFFFFFFFFFFFFFFFFFFFFFFFFFF3F
:1001D000FFFFFFFFFFFFFFFFFFFFFFFF012A4209B5
:1001E0006438911EB76FBBAE479C89B8C9B53BD088
:1001F000A509F74801CC7F6B962FBF83878651FAFC
:10020000FFFFFFFFFFFFFFFFFFFFFFFFFFFFFFFFFE
:10021000FFFFFFFFFFFFFFFFFFFFFFFFFFFFFFFFEE
:10022000012B42FCFFFFFFFFFFFFFFFFFFFFFFFF70
:10023000FFFFFFFFFFFFFFFFFFFFFFFFFFFFFFFFCE
:10024000FFFFFFFFFFFFFFFFFFFFFFFFFFFFFFFFBE
:10025000FFFFFFFFFFFFFFFFFFFFFFFFFFFFFFFFAE
:10026000FFFFFFFF012C42003F506BD41F45EFF111
:10027000342C3D88DF733507BFB13BBDC052167BC0
:10028000937EEC51391956E109F18E9189B4B8F396
:1002900015B3995B72DAA2EE4085B6A0219A921F3F
:1002A0009A1C8E61B93E9551002D4266BDE5C23162
:1002B0007E7EF99B426A85C1B34833DEA8FFA22740
:1002C000C11DFE2859E7EF775E4BA1BA3D4D6B602B
:1002D000AF28F821B53F053981649C42B495236667
:1002E000CB3E9ECDE90404B7068E85C6002E425053
:1002F00066D19F7694BE8840C272A286703C3561FA
:1003000007AD3F01B950C54026F45E9972EE972CB7
:10031000663E2717BDAF1768449B574944F598D9E7
:100320001B7D2CB45F8A5C04C03B9A786A2939181B
:10033000012130FFFFFFFF0000000000000000FF70
:10034000FFFFFFFEFFFFFFFFFFFFFFFFFFFFFFFFBE
:10035000FFFFFFFFFFFFFFFFFFFFFFFFFFFFFFFFAD
:10036000FFFFFF22307329C5CC6A19ECEC7AA7B0E5
:1003700048B20D1A58DF2D37F4814D63C7FFFFFFD8
:10038000FFFFFFFFFFFFFFFFFFFFFFFFFFFFFFFF7D
:10039000FFFFFFFFFF2330FCFFFFFF000000000016
:1003A000000000FFFFFFFFFEFFFFFFFFFFFFFFFF5B
:1003B000FFFFFFFFFFFFFFFFFFFFFFFFFFFFFFFF4D
:1003C000FFFFFFFFFFFFFF2430EF2AECD3EDC885CE
:1003D0002A9DD12E8A8D3956C65A8713508F0814FC
:1003E00003124181FE6E9C1D18192DF8E36B058EDA
:1003F00098E4E73EE2A72F31B32530B70A7672388A
:100400005E543A6C2955BF5DF20255382A5482E099
:1004100041F759989BA78B623B1D6E74AD20F31E6C
:10042000C7B18E37058BBE22CA87AA26305F0EEA77
:10043000907C1D437A9D817E1DCEB1600AC0B8F0CC
:10044000B51331DAE97C149A28BD1DF4F829DC9241
:1004500092BF989E5D6F2C26964ADE17361920FFB4
:10046000FFFFFFFFFFFFFFFFFFFFFF000000000097
:100470000000000000000001000000FFFFFFFF1A65
:1004800020512563FCC2CAB9F3849E17A7ADFAE6D2
:10049000BCFFFFFFFFFFFFFFFF00000000FFFFFFAB
:1004A000FF1B20FCFFFFFFFFFFFFFFFFFFFFFF0021
:1004B000000000000000000000000001000000FF3C
:1004C000FFFFFF1C204B60D2273E3CCE3BF6B053D3
:1004D000CCB0061D65BC86987655BDEBB3E7933A64
:1004E000AAD835C65A1D2096C298D84539A1F4A07D
:1004F00033EB2D817D0377F240A463E5E6BCF8473A
:10050000422CE1F2D1176B1E20F551BF376840B67F
:10051000CBCE5E316B5733CE2B169E0F7C4AEBE76A
:100520008E9B7F1AFEE242E34F1118FFFFFFFFFF91
:10053000FFFFFFFEFFFFFFFFFFFFFFFFFFFFFFFFCC
:10054000FFFFFF12183128D2B4B1C96B1436F8DEA0
:1005500099FFFFFFFFFFFFFFFFFFFFFFFF1318FCE7
:10056000FFFFFFFFFFFFFFFEFFFFFFFFFFFFFFFF9C
:10057000FFFFFFFFFFFFFF1418B1B946C1ECDEB863
:10058000FE49302472ABE9A70FE7809CE5190521ED
:100590006415181210FF82FD0AFFF40088A143EBD6
:1005A00020BF7CF69030B00EA88D1816181148792F
:1005B0001EA177F973D5CD246BED11106378DAC8DD
:1005C000FF952B190731202FFCFFFFFEFFFFFFFFD8
:1005D000FFFFFFFFFFFFFFFFFFFFFFFFFFFFFFFF2B
:1005E000FFFFFFFFFFFFFF3220414136D08C5ED27C
:1005F000BF3BA048AFE6DCAEBAFEFFFFFFFFFFFF48
:10060000FFFFFFFFFFFFFFFFFF33200000000000A0
:1006100000000000000000000000000000000000DA
:10062000000000000000000000000034200700006F
:1006300000000000000000000000000000000000BA
:1006400000000000000000000000000000352098BD
:1006500017F8165B81F259D928CE2DDBFC9B0207D7
:100660000B87CE9562A055ACBBDCF97E66BE7936B1
:1006700020B8D410FB8FD0479C195485A648B417D6
:10068000FDA808110EFCFBA45D65C4A32677DA3A29
:1006900048040F3021300906052B0E03021A05000D
:1006A000041401144F734549440402100000000073
:1006B0000000000000010000020B01000F08000014
:1006C000C00100020903807901F31160A31A068FAB
:1006D0003636DF11D486510EC74FEC7DCEC0D13DEA
:1006E00078E2DAE5B6BB35CB745CAC8BF18E635641
:1006F0008EE5185505EE86AD33B2984DB2C91A078E
:100700001BE915ADE0F6AE916E9970FD6AB1947774
:100710006B6550570FB1F982FCEF76F50E08A78F85
:10072000FE06A23C7C101C024CFA697D6BB57DD89C
:10073000061212DFEF37B872BD206CBAB1620FE853
:100740004BF270F85FC802FF0D9400009C9169277E
:100750006D9395F060E8C5919C2FCF70788194FDE2
:10076000729596FF771F96FF771F95FF771F771F6C
:10077000679588F7815052F7089590FF00D001FCEB
:100780000CC043FA111C10F877FA221C331C441CCD
:10079000551C661C771C44F8089544FA779477F842
:1007A00010FA67945794479437942794179443F812
:1007B00008952F923F924F925F926F927F928F9205
:1007C0009F92AF92BF92CF92DF92EF92FF920F93E0
:1007D0001F93CF93DF93042EFB01DC014F3009F40C
:1007E0007096AF93BF93DD27CCE08A2F18961E90AA
:1007F000111C441F111C551F1C92A817C1F75C83C4
:100800004993C03199F7B8E09191C1E08881991F6F
:1008100087958993C830D1F7BA95B1F7EF93FF93D5
:10082000312413243124429401FCABDF81E893E0AE
:10083000A4DF8F939F931F922F923F924F925F92CC
:100840006F927F92E0E0F9E086E2A1E083DFEF9231
:10085000FF9243E089E860E27EDF7F01642BE8E8F5
:10086000F9E0E60FFB1F80FF06C0507FC591CF70F7
:10087000C52BCD934A955591F7016AF7A8017901E7
:100880003F912F9186016A0183E264DF7F906F9030
:100890005F904F903F902F901F909F918F918695E2
:1008A000979531F6FF91EF9100FC7097BF91AF9152
:1008B00088E0CCE09C8197959C83661F98819795F2
:1008C0009993661FC031B1F76D938A9591F7189788
:1008D00086E0081A08F085CFDF91CF911F910F9124
:1008E000FF90EF90DF90CF90BF90AF909F908F9050
:1008F0007F906F905F904F903F902F9011240895BC
:100900002C1C8C1C3D6D8C6C0D5C1F1D4D4C6D8C1E
:100910007D7D3C7C2D0C6E0C7C5D0D8C2F7E8C7F48
:100920006E5E5F6F6F0E0F3E1E8C7F1D7E4F8C2E96
:100930003F8C0F1E6C4E0E1F631122617352715358
:10094000321442235403022113317201343343120F
:1009500025662715247677653506054757042675DD
:1009600064166717555607456A0B097B7A0A3819CA
:10097000493B4A784B3A396869282B1B591A184861
:100980006B08295A585B792A4D2CA7EFB2C10D414B
:10099000284A9ED8E41FE31EF67960260FA236FB94
:1009A0008BB6F9B3D1685A843A801139C95DD2A7A0
:1009B0009333C8627EF475CD55DEBB5CA0074C90C6
:1009C0006CE52405179B8F7AD1EADD030FBF78FD14
:1009D000BD240B7478C295474A4736EF937C4F226B
:1009E00017D960D8A415A31EEC5624AC3501876036
:1009F00056FD52C1CBAEECBA2030C196FE9BBA591F
:100A00008983FE3B626819851749DA404B2E661EC2
:100A1000B41F49E7D1B5908BC9A28CDA3CD8FB64EE
:100A20007E7C372DE2830DB1A0F7BFF5F69011C89B
:100A30006AC4239C8D5ACE760F615539533DA2A3CB
:100A4000950BE85228E6740F62B413FDB183AFC86A
:100A5000DEC2D08A877C062114196A434AE5919F39
:100A6000A82F8D147DDA78729F6B495B5CFEF4B61B
:100A70000901E537F0973BECE3A6BCA025405705FC
:100A80003658226ECB3DCED9BF01F801E80FF11DDB
:100A90008081FB01089540E18881F6DF8993415010
:100AA000D9F76097089540E18881EEDF899341503E
:100AB000D9F7F7CF89819D81998399859D839D85FC
:100AC00099878D878B819F859B839B859F879F813E
:100AD0009B878F8310C089819D85998399859D8788
:100AE0009D8199878D838B819F819B839B859F832C
:100AF0009F859B878F878A819A859A838A878E852F
:100B00009E819E878E83089524E09BE118D0BA2FA2
:100B10001FD0E1F7C6CF24E09BE111D0AF938A2F1D
:100B200032D0B82F842786272DD0A827B527B727FE
:100B30008B2F28D0BF91B8270BD079F7B2CF48813F
:100B400059816A817B81A72FA627A527A42708950D
:100B5000842F852718D08A2784278993852F862775
:100B600012D08B2785278993862F87270CD08A2739
:100B700086278993842F872706D08B2787278993F9
:100B80002A95089500D0880F08F489270895B09712
:100B900040E181919881982799934A95D1F781CF27
:100BA00000D000D0550F511D8527089520FB0F93CD
:100BB0001F93CF93DF93EC01FEB7F350FEBFEDB769
:100BC00031969F018F011395002481E09BE1819371
:100BD000D801A80FB11D0C92582FD5DF852703949B
:100BE000B1F7882793E6582FDBDF8927D901BE5F4D
:100BF000A80FB11D0C92819380818095D901A80F17
:100C0000B11D8C91039479F7F901242FDB01BF0109
:100C10000D9001924A95E1F731E0022EDB01349705
:100C2000818132DF9D9198279327948382812CDFE5
:100C30009D9198279583838127DF9D91982796839F
:100C4000808122DF9D919827978334967CE023FD55
:100C500074E18D919191982793837A95D1F725FF2F
:100C60000AC040E181914D3008F00EDF9D91982738
:100C700093834A95B9F74BE1330F08F43427020EFA
:100C800019F0402D4F3E60F2F801FA95422F46953B
:100C900046954B5F342F56F07BDFFDDE0BDF315086
:100CA00018F032DF75DFF9CF73DF0FC01395432FD4
:100CB0004D5F70964A95E9F76ADF0DDFF4DE31503B
:100CC00018F065DF28DFF9CF62DFFEB7FD5FFEBFFA
:100CD000DF91CF911F910F9108952F923F924F92E4
:100CE0005F926F927F928F929F92AF92BF92CF92BC
:100CF000DF92EF92FF920F931F93CF93DF93ADB7E5
:100D0000BEB7A458B109ADBFBEBF11966D937D9318
:100D10008D939D93FC01EB0198E0881B099019903D
:100D200029903990499059906990799088AC99AC04
:100D3000AAACBBACCCACDDACEEACFFAC800191019D
:100D4000A201B30108080192190811922A08219200
:100D50003B0831924C0841925D0851926E086192B5
:100D60007F0871928795800A80AE910A91AEA20A9F
:100D7000A2AEB30AB3AEC40AC4AED50AD5AEE60A73
:100D8000E6AEF70AF7AE881F9A9541F680FB96F912
:100D9000E91BF040BF01FD01B4D1CDB7DEB7EB8157
:100DA000FC8169817A81ADD1CDB7DEB7EB81FC8161
:100DB000E058FF4F69817A81605C7F4FA2D1CDB747
:100DC000DEB7EB81FC81DE011596EF01C058DF4FE5
:100DD0007E2F705C991B81909190A190B190C190F1
:100DE000D190E190F19000AC8881081E11AC89810E
:100DF000181E22AC8A81281E33AC8B81381E44AC6D
:100E00008C81481E55AC8D81581E66AC8E81681E43
:100E100077AC8F81781E0992199229923992499262
:100E2000599269927992991F081C191C2A1C3B1C23
:100E30004C1C5D1C6E1C7F1C991F8D91080A00AE16
:100E40008D91180A11AE8D91280A22AE8D91380A23
:100E500033AE8D91480A44AE8D91580A55AE8D91AE
:100E6000680A66AE8D91780A77AE979597957E134E
:100E7000B2CF979597FBE05CFF4F991F78E0008019
:100E80008990081C11809990191C2280A9902A1C15
:100E90003380B9903B1C4480C9904C1C5580D9903C
:100EA0005D1C6680E9906E1C7780F9907F1C991F0D
:100EB0008827081E181E281E381E481E581E681E29
:100EC000781E991F8D91080A01928D91180A11922E
:100ED0008D91280A21928D91380A31928D91480A7C
:100EE00041928D91580A51928D91680A61928D912B
:100EF000780A7192979597957A9509F6991F991F97
:100F0000000B110B1124882780F9080F111D9795EC
:100F10009170091F111D8081800F81938081811F35
:100F200081938081811F81938081811F8193808142
:100F3000811F81938081811F81938081811F819393
:100F40008081811F81938081811F81938081811F96
:100F500081938081811F81938081811F8193808112
:100F6000811F81938081811F81938081811F819363
:100F70008081811F81938081811F81938081811F66
:100F800081938081811F81938081811F81938081E2
:100F9000811F81938081811F81938081811F819333
:100FA0008081811F81938081811F81938081811F36
:100FB00081938081811F81938081811F81938081B2
:100FC000811F81938081811F81938081811F819303
:100FD0008081811F81938081811F81938081811F06
:100FE00081938081811F81938081811F8193808182
:100FF000811F81938081811F81938081811F8193D3
:101000008081811F81938081811F81938081811FD5
:1010100081938081811F81938081811F8193808151
:10102000811F81938081811F81938081811F8193A2
:101030008081811F81938081811F81938081811FA5
:1010400081938081811F81938081811F8193808121
:10105000811F81938081811F81938081811F819372
:101060008081811F8193811E8192911E9192A11E88
:10107000A192B11EB192C11EC192D11ED192E11EA8
:10108000E192F11EF1921197ADBFBEBFDF91CF91FA
:101090001F910F91FF90EF90DF90CF90BF90AF9096
:1010A0009F908F907F906F905F904F903F902F9088
:1010B00008952F923F924F925F926F927F928F92FC
:1010C0009F92AF92BF92CF92DF92EF92FF920F93D7
:1010D0001F93CF93DF93FC0114D0DF91CF911F9129
:1010E0000F91FF90EF90DF90CF90BF90AF909F90C7
:1010F0008F907F906F905F904F903F902F90112432
:101100000895CDB7DEB7C454D040CDBFDEBF6983EC
:101110007A83EB83FC83EB0194E0881B09901990A0
:10112000299039904990599069907990888C998C40
:10113000AA8CBB8CCC8CDD8CEE8CFF8C8001910159
:10114000A201B301080819082A083B084C085D08E9
:101150006E087F0801921192219231924192519230
:10116000619271928795800A910AA20AB30AC40A11
:10117000D50AE60AF70A808E918EA28EB38EC48EAF
:10118000D58EE68EF78E881F9A9541F680FB95F9ED
:10119000E91BF040EF01EDB7FEB7359695D2CDB71C
:1011A000DEB7EB81FC81A981BA81ED018DD2CDB78B
:1011B000DEB7EB81FC81E05CFF4FA981BA8190969C
:1011C000ED0182D2EDB7FEB7DF011596C381D48160
:1011D000FE01E05CFF4F88A099A0AAA0BBA0CCA014
:1011E000DDA0EEA0FFA008A519A52AA53BA54CA54A
:1011F0005DA56EA57FA5008011802280338044808C
:10120000558066807780800C911CA21CB31CC41C86
:10121000D51CE61CF71C008411842284338444848A
:10122000558466847784001D111D221D331D441DC5
:10123000551D661D771D991F088019802A803B80E7
:101240004C805D806E807F80080C191C2A1C3B1C22
:101250004C1C5D1C6E1C7F1C991F8D91081A08A2E6
:101260008D91180A19A28D91280A2AA28D91380A07
:101270003BA28D91480A4CA28D91580A5DA28D9196
:10128000680A6EA28D91780A7FA2979508841984C6
:101290002A843B844C845D846E847F84001E111EEE
:1012A000221E331E441E551E661E771E991F8D91E9
:1012B000080A08A68D91180A19A68D91280A2AA64F
:1012C0008D91380A3BA68D91480A4CA68D91580AFB
:1012D0005DA68D91680A6EA68D91780A7FA6979576
:1012E000979508A819A82AA83BA84CA85DA86EA89D
:1012F0007FA88089081E008A8189181E118A828928
:10130000281E228A8389381E338A8489481E448A8B
:101310008589581E558A8689681E668A8789781E3F
:10132000778A991F8889081E8989181E8A89281E2C
:101330008B89381E8C89481E8D89581E8E89681E9F
:101340008F89781E991F8D91080A08AA8D91180A15
:1013500019AA8D91280A2AAA8D91380A3BAA8D9143
:10136000480A4CAA8D91580A5DAA8D91680A6EAA06
:101370008D91780A7FAA9795979508AC19AC2AACFD
:101380003BAC4CAC5DAC6EAC7FAC808D081E008E6F
:10139000818D181E118E828D281E228E838D381EFF
:1013A000338E848D481E448E858D581E558E868DB5
:1013B000681E668E878D781E778E991F888D081E11
:1013C000898D181E8A8D281E8B8D381E8C8D481E87
:1013D0008D8D581E8E8D681E8F8D781E991F8D9154
:1013E000080A08AE8D91180A19AE8D91280A2AAE06
:1013F0008D91380A3BAE8D91480A4CAE8D91580ABA
:101400005DAE8D91680A6EAE8D91780A7FAE91FBCC
:101410009795979580A1881E81A1981E82A1A81EEC
:1014200083A1B81E84A1C81E85A1D81E86A1E81E6E
:1014300087A1F81E991F8827881E981EA81EB81E0F
:10144000C81ED81EE81EF81E991F8D91880A80823A
:101450008D91980A91828D91A80AA2828D91B80AE5
:10146000B3828D91C80AC4828D91D80AD5828D919C
:10147000E80AE6828D91F80AF7828D91080B8D912A
:10148000180B8D91280B8D91380B8D91480B8D91F8
:10149000580B8D91680B8D91780B97958827081FB5
:1014A000181F281F381F481F581F681F781F97953F
:1014B00080A4081D008791A4191D1187A2A42A1DCC
:1014C0002287B3A43B1D3387C4A44C1D4487D5A4F5
:1014D0005D1D5587E6A46E1D6687F7A47F1D77877F
:1014E00000881188228833884488558866887788E0
:1014F00000A9001E11A9111E22A9221E33A9331E04
:1015000044A9441E55A9551E66A9661E77A9771ED3
:10151000991F8827081E181E281E381E481E581E90
:10152000681E781E991F8D91080A008A8D91180AED
:10153000118A8D91280A228A8D91380A338A8D91D9
:10154000480A448A8D91580A558A8D91680A668A9C
:101550008D91780A778A008C118C228C338C448C84
:10156000558C668C778C8D91080A8D91180A8D9117
:10157000280A8D91380A8D91480A8D91580A8D91CB
:10158000680A8C91780ACC0B97958827081E181E3C
:10159000281E381E481E581E681E781E979580AD5E
:1015A000081E008E01AC101C118E12AC211C228E64
:1015B00023AC321C338E34AC431C448E45AC541CDB
:1015C000558E56AC651C668E67AC761C778E77247C
:1015D000DC2F991F9170C91FD71D90F9C90FD71D16
:1015E00070A07C0E70A271A07D1E71A272A07D1EE3
:1015F00072A273A07D1E73A274A07D1E74A275A03A
:101600007D1E75A276A07D1E76A277A07D1E77A294
:101610008D1E80A69D1E91A6AD1EA2A6BD1EB3A6C0
:10162000CD1EC4A6DD1ED5A6ED1EE6A6FD1EF7A6A0
:101630000D1F00AB1D1F11AB2D1F22AB3D1F33AB88
:101640004D1F44AB5D1F55AB6D1F66AB7D1F77AB68
:101650008D1F80AF0D1E01AE1D1E12AE2D1E23AEBE
:101660003D1E34AE4D1E45AE5D1E56AE6D1E67AEC0
:10167000ADBFBEBF08952F923F924F925F926F927F
:101680007F928F929F92AF92BF92CF92DF92EF9212
:10169000FF920F931F93CF93DF93FC01EB0114D0C4
:1016A000DF91CF911F910F91FF90EF90DF90CF903E
:1016B000BF90AF909F908F907F906F905F904F9072
:1016C0003F902F9011240895288039804A805B80B4
:1016D0006C807D808E809F809927249C6001239C54
:1016E000B02CC10CD91E269C7001289C8001399C0D
:1016F0009001599CA001799CB001349CD00CE11C54
:10170000F91E459CF00C011D191F369CD001259C2B
:10171000D00CE11CFA1EB91F359CE00CF11CB91F5E
:10172000569C0B0F101D211D391F299CD001279C91
:10173000F00C011D1A1FB91F379C000D111DB91F98
:10174000499C2B0F301D411D591F679CD001479CA0
:10175000100D211D3A1FB91F579C200D311DB91FB7
:10176000789C4B0F501D611D791F589CD001389CEF
:10177000100D211D3A1FB91F489C200D311DB91FA6
:10178000699C4B0F501D611D791F689CD001469CC0
:10179000000D111D291F391F4A1F5B1F691F791F6B
:1017A000899C700D8827811DBB0CCC1CDD1CEE1C98
:1017B000FF1C001F111F221F331F441F551F661FD0
:1017C000771F881F991F339CD001229C1001449CD5
:1017D000A22CB30CCA1EDB1EE01CF11C991F669CD8
:1017E0001001559CD001779C2001889C3001999C68
:1017F00096950A1F1B1F221D331D441D551D661D76
:10180000771D801D911DA082B182C282D382E482A5
:10181000F58206831783288439844A845B846C8428
:101820007D848E849F84002730FB969587957795DD
:101830006795579547953795399C5001599C60019C
:10184000299C7001259CD001239C300D411D5A1FFD
:10185000B01F249C400D511DB01F279C6B0F701DA5
:10186000811D9E1DF01E289C800D911DF01E369C32
:10187000D001349C500D611D7A1FB01F359C600D46
:10188000711DB01F269C600D711D8B1F901FAF1C1A
:10189000B01E569CD001459C700D811D9A1FB01F33
:1018A000469C800D911DB01F679CAB0EB01CC11CE7
:1018B000D01E499CB00CC11CD01E699CD001489C14
:1018C0007001379C800D911DAE1CF01E389C900D50
:1018D000A11CF01E689CBF0CC01CD11CB01F799CC1
:1018E0007001DA0EEB1EF01E589CD001479C900D43
:1018F000A11CBA1EB01F579CA00CB11CB01F789C35
:10190000CB0ED01CE11CF01E899CF00C011D112790
:10191000330F441F551F661F771F881F991FAA1C6E
:10192000BB1CCC1CDD1CEE1CFF1C001F111F30F962
:10193000339CD001229C200D311D4A1F5B1F111FBB
:10194000559CD001449C1795601D711D8A1F9B1FDB
:10195000111F779CD001669C1795A01CB11CCA1E54
:10196000DB1E111F999CD001889C1695E01CF11C70
:101970000A1F1B1F208B318B428B538B648B758B03
:10198000868B978BA08EB18EC28ED38EE48EF58E11
:10199000068F178FA880B980CA80DB80EC80FD801D
:1019A0000E811F81A218B308C408D508E608F708FD
:1019B00008091909AA0BAA26BA26CA26DA26EA268F
:1019C000FA260A271A27AA1ABA0ACA0ADA0AEA0A51
:1019D000FA0A0A0B1A0B9927AC9C2001AB9C302CFD
:1019E000410C591EAE9C3001A09E4001B19E900159
:1019F000D19EA001F19EB001BC9C500C611C791ECF
:101A0000CD9C700C811C991EBE9CD001AD9C500CCD
:101A1000611C7A1EB91FBD9C600C711CB91FDE9C35
:101A20008B0E901C211D391FA19ED001AF9C700C04
:101A3000811C9A1EB91FBF9C800C911CB91FC19EAE
:101A40002B0F301D411D591FEF9CD001CF9C900CD6
:101A5000211D3A1FB91FDF9C200D311DB91FF09EBB
:101A60004B0F501D611D791FD09ED001B09E900C70
:101A7000211D3A1FB91FC09E200D311DB91FE19EC7
:101A80004B0F501D611D791FE09ED001CE9C800C34
:101A9000911C291F391F4A1F5B1F691F791F019F56
:101AA000700D8827811D330C441C551C661C771C47
:101AB000881C991C221F331F441F551F661F771F48
:101AC000881F991FBB9CD001AA9C5001CC9C2A2C3A
:101AD0003B0C4A1E5B1E601C711C991FEE9C500142
:101AE000DD9CD001FF9C6001009F7001119F9695C5
:101AF0008A1E9B1E2A1D3B1D4C1D5D1D6E1D7F1DDC
:101B0000801D911DA080B180C280D380E480F580CB
:101B100006811781A218B308C408D508E608F7089B
:101B200008091909A7952088318842885388A20C92
:101B3000B31CC41CD51CA086B186C286D38664881B
:101B4000758886889788E61CF71C081D191DE48691
:101B5000F58606871787AA1F220A330A440A550A00
:101B6000660A770A880A990A00081108A08CB18CC5
:101B7000C28CD38CE48CF58C068D178DA6952A1C0F
:101B80003B1C4C1C5D1C6E1C7F1C801E911E208A01
:101B9000318A428A538A648A758A868A978AA01C07
:101BA000B11CC11CD11CE11CF11C011D111DA08E1A
:101BB000B18EC28ED38EE48EF58E068F178FA888D5
:101BC000B988CA88DB88EC88FD880E891F89992727
:101BD000AC9C2001AB9C302C410C591EAE9C3001BA
:101BE000A09E4001B19E9001D19EA001F19EB00146
:101BF000BC9C500C611C791ECD9C700C811C991EE4
:101C0000BE9CD001AD9C500C611C7A1EB91FBD9CBE
:101C1000600C711CB91FDE9C8B0E901C211D391F9E
:101C2000A19ED001AF9C700C811C9A1EB91FBF9C55
:101C3000800C911CB91FC19E2B0F301D411D591FD7
:101C4000EF9CD001CF9C900C211D3A1FB91FDF9C47
:101C5000200D311DB91FF09E4B0F501D611D791FC6
:101C6000D09ED001B09E900C211D3A1FB91FC09E7E
:101C7000200D311DB91FE19E4B0F501D611D791FB5
:101C8000E09ED001CE9C800C911C291F391F4A1F59
:101C90005B1F691F791F019F700D8827811D330C01
:101CA000441C551C661C771C881C991C221F331F62
:101CB000441F551F661F771F881F991FBB9CD001AB
:101CC000AA9C5001CC9C2A2C3B0C4A1E5B1E601C1B
:101CD000711C991FEE9C5001DD9CD001FF9C60019E
:101CE000009F7001119F96958A1E9B1E2A1D3B1D09
:101CF0004C1D5D1D6E1D7F1D801D911D20A231A2FA
:101D000042A253A264A275A286A297A2A88CB98C03
:101D1000CA8CDB8CEC8CFD8C0E8D1F8D882430FBE7
:101D20009695879577956795579547953795B19E81
:101D30001001D19E2001A19E3001AD9CD001AB9C31
:101D4000300D411D5A1FB81DAC9C400D511DB81DD2
:101D5000AF9C6B0F701D811D961D781CA09E800D81
:101D6000911D781CBE9CD001BC9C500D611D7A1F3A
:101D7000B81DBD9C600D711DB81DAE9C600D711D20
:101D80008B1F981D271C381CDE9CD001CD9C700D2C
:101D9000811D9A1FB81DCE9C800D911DB81DEF9C12
:101DA0002B0E301C411C581CC19E300C411C581C71
:101DB000E19ED001C09E3001BF9C800D911D261C6C
:101DC000781CB09E900D211C781CE09E370C401CA6
:101DD000511CB81DF19E30015A0E6B1E781CD09E0E
:101DE000D001CF9C900D211C3A1EB81DDF9C200C09
:101DF000311CB81DF09E4B0E501C611C781C019FBD
:101E0000700C811C9924330F441F551F661F771FC8
:101E1000881F991F221C331C441C551C661C771CF0
:101E2000881C991C30F9BB9CD001AA9C200D311D47
:101E30004A1F5B1F991CDD9CD001CC9C9794601DB0
:101E4000711D8A1F9B1F991CFF9CD001EE9C9794CB
:101E5000201C311C4A1E5B1E991C119FD001009F43
:101E60009694601C711C8A1E9B1E20AB31AB42AB4A
:101E700053AB64AB75AB86AB97AB20AE31AE42AE25
:101E800053AE64AE75AE86AE97AE288839884A8860
:101E90005B886C887D888E889F882A183B084C0850
:101EA0005D086E087F08800A910AAA0B2A263A2646
:101EB0004A265A266A267A268A269A262A1A3A0A0A
:101EC0004A0A5A0A6A0A7A0A8A0A9A0A9927249CAA
:101ED0006001239CB02CC10CD91E269C7001289C4B
:101EE0008001399C9001599CA001799CB001349CDF
:101EF000D00CE11CF91E459CF00C011D191F369CED
:101F0000D001259CD00CE11CFA1EB91F359CE00CB9
:101F1000F11CB91F569C0B0F101D211D391F299C48
:101F2000D001279CF00C011D1A1FB91F379C000D12
:101F3000111DB91F499C2B0F301D411D591F679C56
:101F4000D001479C100D211D3A1FB91F579C200D31
:101F5000311DB91F789C4B0F501D611D791F589C76
:101F6000D001389C100D211D3A1FB91F489C200D2F
:101F7000311DB91F699C4B0F501D611D791F689C55
:101F8000D001469C000D111D291F391F4A1F5B1FE0
:101F9000691F791F899C700D8827811DBB0CCC1C83
:101FA000DD1CEE1CFF1C001F111F221F331F441FCE
:101FB000551F661F771F881F991F339CD001229CD5
:101FC0001001449CA22CB30CCA1EDB1EE01CF11CA9
:101FD000991F669C1001559CD001779C2001889C1C
:101FE0003001999C96950A1F1B1F221D331D441D0D
:101FF000551D661D771D801D911D20A031A042A09A
:1020000053A064A075A086A097A01088120C10A2FF
:102010001188131C11A21288141C12A21388151CFB
:1020200013A21488161C14A21588171C15A2168852
:10203000181C16A21788191C17A2AA0B2A183B08ED
:102040004C085D086E087F08800A910AA0ACB1AC0C
:10205000C2ACD3ACE4ACF5AC06AD17ADA20AB30A82
:10206000C40AD50AE60AF70A080B190B000811087A
:1020700020A931A942A953A964A975A986A997A93C
:10208000220E331E441E551E661E771E881E991E84
:10209000A21EB31EC41ED51EE61EF71E081F191F62
:1020A000BB270B1E1B1E208D318D428D538D648DE1
:1020B000758D868D978DA695221E331E441E551E46
:1020C000661E771E881E991EAB1EBB1ECB1EDB1E16
:1020D000EB1EFB1E0B1F1B1F20A631A642A653A6FC
:1020E00064A675A686A697A6A0AAB1AAC2AAD3AAD4
:1020F000E4AAF5AA06AB17ABA0ACB1ACC2ACD3ACAA
:10210000E4ACF5AC06AD17ADA01CB11CC11CD11CD4
:10211000E11CF11C011D111DA0AEB1AEC2AED3AECB
:10212000E4AEF5AE06AF17AF288039804A805B80F9
:102130006C807D808E809F80A884B984CA84DB8473
:10214000EC84FD840E851F85A8892A1AA9893A0A7C
:10215000AA894A0AAB895A0AAC896A0AAD897A0AFD
:10216000AE898A0AAF899A0AA88DAA0AA98DBA0AE5
:10217000AA8DCA0AAB8DDA0AAC8DEA0AAD8DFA0ACD
:10218000AE8D0A0BAF8D1A0BAA0B2A263A264A26C9
:102190005A266A267A268A269A26AA26BA26CA267F
:1021A000DA26EA26FA260A271A272A1A3A0A4A0AB1
:1021B0005A0A6A0A7A0A8A0A9A0AAA0ABA0ACA0A3F
:1021C000DA0AEA0AFA0A0A0B1A0B9101A201B30110
:1021D000C4012A193B094C095D096E097F09800B6E
:1021E000910BAA0B2A273A274A275A276A277A27C8
:1021F0008A279A272A1B3A0B4A0B5A0B6A0B7A0B2F
:102200008A0B9A0B5F934F933F932F939F938F93D8
:102210007F936F93DF92CF92BF92AF92EF92FF9234
:102220009927249C6001239CB02CC10CD91E269CAC
:102230007001289CE001399C9001599CA001799C77
:10224000B001349CD00CE11CF91E459CF00CC11D62
:10225000D91F369CD001259CD00CE11CFA1EB91F59
:10226000359CE00CF11CB91F569CCB0FD01D211DD5
:10227000391F299CD001279CF00CC11DDA1FB91F02
:10228000379CC00DD11DB91F499C2B0F301D411D1E
:10229000591F679CD001479CD00D211D3A1FB91FC3
:1022A000579C200D311DB91F789C4B0F501D611D8F
:1022B000791F589CD001389CD00D211D3A1FB91FA1
:1022C000489C200D311DB91F699C4B0F501D611D8D
:1022D000791F689CD001469CC00DD11D291F391F54
:1022E0004A1F5B1F691F791F899C700D8827811DFC
:1022F000BB0CCC1CDD1CEE1CFF1CCC1FDD1F221FE9
:10230000331F441F551F661F771F881F991F339C5B
:10231000D001229C1001449CA22CB30CCA1EDB1ECF
:10232000E01CF11C991F669C1001559CD001779C04
:102330002001889C3001999C9695CA1FDB1F221DA5
:10234000331D441D551D661D771D801D911D7F90F9
:102350006F902F903F904F905F90DF92CF92BF92FF
:10236000AF92DF93CF93FF92EF92CC2730FB9695FD
:10237000879577956795579547953795319E500185
:10238000519E6001219E7001259CD001239C300D3F
:10239000411D5A1FBC1F249C400D511DBC1F279C72
:1023A0006B0F701D811D9E1DFC1E209E800D911DBA
:1023B000FC1E369CD001349C500D611D7A1FBC1F41
:1023C000359C600D711DBC1F269C600D711D8B1FFF
:1023D0009C1FAF1CBC1E569CD001459C700D811DDE
:1023E0009A1FBC1F469C800D911DBC1F679CAB0EA5
:1023F000B01CC11CDC1E419EB00CC11CDC1E619EC9
:10240000D001409E7001379C800D911DAE1CFC1EBA
:10241000309E900DA11CFC1E609EBF0CC01CD11CE8
:10242000BC1F719E7001DA0EEB1EFC1E509ED00187
:10243000479C900DA11CBA1EBC1F579CA00CB11C40
:10244000BC1F709ECB0ED01CE11CFC1E019FF00C2B
:10245000C11DDD27330F441F551F661F771F881FBF
:10246000991FAA1CBB1CCC1CDD1CEE1CFF1CCC1F26
:10247000DD1F30F9449C4001339CD001229C200D8B
:10248000311D4A1F5B1F681D791DDD1F559C4001D2
:10249000669CD001779C1001009F2001119FD6956A
:1024A000881D991DAA1EBB1EC21CD31CE41CF51C52
:1024B000C01DD11D5F934F933F932F939F938F9395
:1024C0007F936F93DF92CF92BF92AF92DF93CF93C0
:1024D000FF92EF92CDB7DEB7AD8CBE8CCF8CD8A07B
:1024E000E98CFA8C0B8D1C8D9924AC9CA001AB9CC3
:1024F000302D410D591DAE9CB001A09EC001B19E72
:102500001001D19E2001F19E3001BC9C500D611D37
:10251000791DCD9C700D811D991DBE9CD001AD9C77
:10252000500D611D7A1FB91DBD9C600D711DB91D37
:10253000DE9C8B0F901D211C391CA19ED001AF9CED
:10254000700D811D9A1FB91DBF9C800D911DB91D75
:10255000C19E2B0E301C411C591CEF9CD001CF9CFE
:10256000900D211C3A1EB91DDF9C200C311CB91D99
:10257000F09E4B0E501C611C791CD09ED001B09E69
:10258000900D211C3A1EB91DC09E200C311CB91D96
:10259000E19E4B0E501C611C791CE09ED001CE9C2C
:1025A000800D911D291C391C4A1E5B1E691C791C5B
:1025B000019F700C8824811C330F441F551F661F18
:1025C000771F881F991F221C331C441C551C661C36
:1025D000771C881C991CBB9CD001AA9C5001CC9CE8
:1025E0002A2D3B0D4A1F5B1F601D711D991CEE9C1F
:1025F0005001DD9CD001FF9C6001009F7001119F84
:1026000096948A1F9B1F2A1C3B1C4C1C5D1C6E1C35
:102610007F1C801C911CAD88BE88CF88D88CE9882F
:10262000FA880B891C89A21AB30AC40AD50AE60AD9
:10263000F70A080B190B2D813E814F81588569815E
:102640007A818B819C8122093309440955096609E5
:10265000770988099909000811082D843E844F8460
:10266000588869847A848B849C84A20CB31CC41C13
:10267000D51CE61CF71C081D191D221D331D441D09
:10268000551D661D771D881D991D2D803E804F802C
:10269000588469807A808B809C80201C311C411C6E
:1026A000511C611C711C811C911C2D823E824F8229
:1026B000588669827A828B829C822D883E884F88D8
:1026C000588C69887A888B889C88008002181180D1
:1026D000130822802408338035084480460855803A
:1026E0005708668068087780790880848A08918412
:1026F0009B08A284AC08B384BD08C484CE08D584EA
:10270000DF08E684E00AF784F10ABB0BA0A1A00D64
:10271000A08BA1A1A11DA18BA2A1A21DA28BA3A1EF
:10272000A31DA38BA4A1A41DA48BA5A1A51DA58B4E
:10273000A6A1A61DA68BA7A1A71DA78BA0A5A81D16
:10274000A08FA1A5A91DA18FA2A5AA1DA28FA3A597
:10275000AB1DA38FA4A5AC1DA48FA5A5AD1DA58FF2
:10276000A6A5AE1DA68FA7A5AF1DA78FAFB7AD803D
:10277000BE80CF80D884E980FA800B811C81A0962E
:10278000CDBFDEBFB69500A8020A11A8130A22A881
:10279000240A33A8350A44A8460A55A8570A66A849
:1027A000680A77A8790A80AC8A0891AC9B08A2AC29
:1027B000AC08B3ACBD08C4ACCE08D5ACDF08E6AC01
:1027C000E00AF7ACF10ACC0BDD0BA695A0A1A01D89
:1027D000A0A3A1A1A11DA1A3A2A1A21DA2A3A3A1E7
:1027E000A31DA3A3A4A1A41DA4A3A5A1A51DA5A346
:1027F000A6A1A61DA6A3A7A1A71DA7A3A0A5A81D26
:10280000A0A7A1A5A91DA1A7A2A5AA1DA2A7A3A58E
:10281000AB1DA3A7A4A5AC1DA4A7A5A5AD1DA5A7E9
:10282000A6A5AE1DA6A7A7A5AF1DA7A700A811A87E
:1028300022A833A844A855A866A877A880AC91AC74
:10284000A2ACB3ACC4ACD5ACE6ACF7AC0C1E1D1E50
:102850002D1E3D1E4D1E5D1E6D1E7D1E8D1E9D1E60
:10286000AD1EBD1ECD1EDD1EED1EFD1E00AA11AA51
:1028700022AA33AA44AA55AA66AA77AA80AE91AE24
:10288000A2AEB3AEC4AED5AEE6AEF7AE08952F920B
:102890003F924F925F926F927F928F929F92AF92F0
:1028A000BF92CF92DF92EF92FF920F931F93CF933D
:1028B000DF93CDB7DEB7C456D040CDBFDEBF69834E
:1028C0007A838B839C83EB01FC0196E0881B099043
:1028D000199029903990499059906990799088A4DD
:1028E00099A4AAA4BBA4CCA4DDA4EEA4FFA4800157
:1028F0009101A201B301080819082A083B084C08F5
:102900005D086E087F0801921192219231924192E6
:102910005192619271928795800A910AA20AB30A34
:10292000C40AD50AE60AF70A80A691A6A2A6B3A60B
:10293000C4A6D5A6E6A6F7A6881F9A9541F680FB01
:1029400094F995F9E91BF040BF01EDB7FEB7359654
:1029500083D1CDB7DEB7EB81FC8169817A817CD1EF
:10296000CDB7DEB7EB81FC81E05AFF4F69817A81F8
:10297000605D7F4F71D1CDB7DEB7EB81FC81DE01A9
:102980001596EF01C05ADF4F7E2F705D991B00A88E
:102990008881081E11A88981181E22A88A81281EF4
:1029A00033A88B81381E44A88C81481E55A88D8180
:1029B000581E66A88E81681E77A88F81781E09929E
:1029C0001992299239924992599269927992991F52
:1029D0008191081E8191181E8191281E8191381EB7
:1029E0008191481E8191581E8191681E8191781EA7
:1029F000991F8D91080A00A68D91180A11A68D9134
:102A0000280A22A68D91380A33A68D91480A44A639
:102A10008D91580A55A68D91680A66A68D91780AFF
:102A200077A6979597957E13B2CF979597FBF096DB
:102A3000991F76E000808990081C11809990191CDC
:102A40002280A9902A1C3380B9903B1C4480C990F5
:102A50004C1C5580D9905D1C6680E9906E1C778077
:102A6000F9907F1C991F8827081E181E281E381EE3
:102A7000481E581E681E781E991F8D91080A0192E3
:102A80008D91180A11928D91280A21928D91380A00
:102A900031928D91480A41928D91580A51928D91AF
:102AA000680A61928D91780A7192979597957A95B7
:102AB00009F6991F991F440B550B1124882780F99B
:102AC000480F511D97959170491F511D8081840FAA
:102AD00081938081851F81938081851F819380816F
:102AE000851F81938081851F81938081851F8193BC
:102AF0008081851F81938081851F81938081851FBF
:102B000081938081851F81938081851F819380813E
:102B1000851F81938081851F81938081851F81938B
:102B20008081851F81938081851F81938081851F8E
:102B300081938081851F81938081851F819380810E
:102B4000851F81938081851F81938081851F81935B
:102B50008081851F81938081851F81938081851F5E
:102B600081938081851F81938081851F81938081DE
:102B7000851F81938081851F81938081851F81932B
:102B80008081851F81938081851F81938081851F2E
:102B900081938081851F81938081851F81938081AE
:102BA000851F81938081851F81938081851F8193FB
:102BB0008081851F81938081851F8193851E8192ED
:102BC000951E9192A51EA192B51EB192C51EC192ED
:102BD000D51ED192E51EE192F51EF1921197ADBF7F
:102BE000BEBFDF91CF911F910F91FF90EF90DF90CB
:102BF000CF90BF90AF909F908F907F906F905F909D
:102C00004F903F902F9008952F923F924F925F9256
:102C10006F927F928F929F92AF92BF92CF92DF92EC
:102C2000EF92FF920F931F93CF93DF93FC0114D089
:102C3000DF91CF911F910F91FF90EF90DF90CF9098
:102C4000BF90AF909F908F907F906F905F904F90CC
:102C50003F902F9011240895CDB7DEB7E497CDBFF4
:102C6000DEBF69837A83EB83FC83EB0193E0881BEF
:102C700009901990299039904990599069907990CC
:102C800088889988AA88BB88CC88DD88EE88FF88E8
:102C900080019101A201B301080819082A083B0824
:102CA0004C085D086E087F080192119221923192C2
:102CB00041925192619271928795800A910AA20A7B
:102CC000B30AC40AD50AE60AF70A808A918AA28A58
:102CD000B38AC48AD58AE68AF78A881F9A9541F60C
:102CE00080FB94F993F9E91BF040EF01EDB7FEB7D3
:102CF0003596F5D1CDB7DEB7EB81FC81A981BA81DC
:102D0000ED01EDD1CDB7DEB7EB81FC81E05DFF4F8A
:102D1000A981BA815896ED01E2D1CDB7DEB7EB813A
:102D2000FC81DE011596EF01C05DDF4F608C718C78
:102D3000828C938CA48CB58CC68CD78CE0A0F1A02F
:102D400002A113A124A135A146A157A160A571A597
:102D5000088019802A803B804C805D80600C711C4B
:102D6000821C931CA41CB51C0E80C01C1F80D11C8F
:102D70002884E21C3984F31C4A84041D5B84151DDD
:102D80000C84201D1D84311D2E84421D3F84531D43
:102D90004888641D5988751D991F00801180228004
:102DA000338044805580060C171C281C391C4A1C93
:102DB0005B1C991F8D91081A008E8D91180A118E37
:102DC0008D91280A228E8D91380A338E8D91480A72
:102DD000448E8D91580A558E9795068017802084D1
:102DE0003184428453840C1C1D1C2E1C3F1C401E2D
:102DF000511E991F8D91080A068E8D91180A178E03
:102E00008D91280A20A28D91380A31A28D91480A0D
:102E100042A28D91580A53A2979504841584268462
:102E2000378440885188021E131E241E351E461EFC
:102E3000571E991F8D91080A04A28D91180A15A298
:102E40008D91280A26A28D91380A37A28D91480AC1
:102E500040A68D91580A51A69795979502A413A460
:102E600024A435A446A457A48A89081E0A8A8B89FB
:102E7000181E1B8A8C89281E2C8A8D89381E3D8A33
:102E80008E89481E4E8A8F89581E5F8A991F8289B3
:102E9000081E8389181E8489281E8589381E868904
:102EA000481E8789581E991F8D91080A02A68D9188
:102EB000180A13A68D91280A24A68D91380A35A6E2
:102EC0008D91480A46A68D91580A57A691FB8D917F
:102ED000680A8D91780A8D91880A8D91980A8D9152
:102EE000A80A8D91B80A8D91C80A8D91D80A8D9142
:102EF000E80A8D91F80A8D91080B8D91180B8D9130
:102F0000280B8D91380B8D91480B8D91580B8D911D
:102F1000680B8D91780B97958827681E781E881E00
:102F2000981EA81EB81EC81ED81EE81EF81E081F30
:102F3000181F281F381F481F581F681F781F979594
:102F4000888D681E6882698C761C79827A8C871CD1
:102F50008A828B8C981C9B829C8CA91CAC82AD8C29
:102F6000BA1CBD82BE8CCB1CCE82CF8CDC1CDF8217
:102F7000D8A0ED1CE886E9A0FE1CF986FAA00F1D7A
:102F80000A870BA1101F1B871CA1211F2C872DA1B5
:102F9000321F3D873EA1431F4E874FA1541F5F87BD
:102FA00058A5651F688B69A5761F798B991F991F96
:102FB0000A881B882C883D884E885F887D91070A87
:102FC0007D91170A7D91270A7D91370A7D91470AE5
:102FD0007D91570AAA0BBB0B97957727071E171EE3
:102FE000271E371E471E571E97957AA5071E0A8A69
:102FF0000BA4101C1B8A1CA4211C2C8A2DA4321C7F
:103000003D8A3EA4431C4E8A4FA4541C5F8A55241B
:10301000991F9170A91FB51D90F9A90FB51D8A0FB1
:10302000888F6B1E698E7B1E7A8E8B1E8B8E9B1EED
:103030009C8EAB1EAD8EBB1EBE8ECB1ECF8EDB1EFE
:10304000D8A2EB1EE9A2FB1EFAA20B1F0BA31B1FAB
:103050001CA32B1F2DA33B1F3EA34B1F4FA35B1F86
:1030600058A76B1F69A77B1F0B1E1B1E2B1E3B1E29
:103070004B1E7AA70BA61CA62DA63EA64FA6CDB723
:10308000DEB7CC5CDF4FCDBFDEBF08952F923F92FD
:103090004F925F926F927F928F929F92AF92BF9268
:1030A000CF92DF92EF92FF920F931F93CF93DF9314
:1030B000FC01EB0114D0DF91CF911F910F91FF9094
:1030C000EF90DF90CF90BF90AF909F908F907F90C8
:1030D0006F905F904F903F902F9011240895CF9361
:1030E000DF9388809980AA80BB80CC80DD8099277F
:1030F0008A9C20018C9C30019D9CA001BD9CB0014C
:10310000899C302C410C591E8B9C500C611C791EE3
:103110008D9C700C411D591F9C9C70019A9C500CF9
:10312000611C7E1CF91E9B9C600C711CF91EAD9CE1
:103130004F0D501D611D791FBC9C7001AB9C700C24
:10314000411D5E1DF91EAC9C400D511DF91ECD9C0C
:103150006F0D701D8827811D330C441C551C661C87
:10316000771C441F551F661F771F881F991FBB9C24
:103170009001AA9C8001999C7001889C202C310CA4
:103180004E1C5F1C601E711E421F531F991FDD9C49
:103190007001CC9C9695601D711D8E1D9F1D208217
:1031A00031824282538264827582EE80FF8008857C
:1031B00019852A853B85BB2750FB97958795779581
:1031C00067955795E19E2001EF9C500D611D741D80
:1031D000851D9B1FE09E600D711D8B1F9B1FF09E28
:1031E000700D811D9B1FF39E3001E29E800D911D8D
:1031F0006B1E7B1EF19E800D911D6B1E7B1EF29E31
:10320000900D611C7B1E139F1001129F2001019FD6
:10321000900D611C741C5B1E029F600C711C5B1E78
:10322000239F250C301C4424411C5524039FD001AE
:10323000E39E900D611C7A1E2B1E351C451C550FFC
:10324000661F771F881F991F661C771C221C331C62
:10325000441C551C50F9009FE001FF9CD001EE9CDE
:10326000400D511D6A1F7B1F8C1F9D1F551C339FD6
:10327000E001229FD001119F5694601C711C2A1EF0
:103280003B1E4C1E5D1EE818F9080A091B092C0993
:103290003D090008E024F0240025102520253025D4
:1032A000E018F00800091009200930097F926F9298
:1032B0006624E09ED001E29EE001F39E4001139F50
:1032C0005001EF9C702CA10DB61DE19EB00DC11DEB
:1032D000D61DE39ED00D811C961CF29E6001F09ECF
:1032E000B00DC11DDC1DD61CF19EC00DD11DD61C1C
:1032F000039F8D0C901CA11CB61C129F6001019FA6
:10330000D00D811C9C1CD61C029F800C911CD61CCD
:10331000239FAD0CB01CCC24C11CDD24770CAA1F4C
:10332000BB1FCC1FDD1F881C991CAA1CBB1CCC1CFE
:10333000DD1CEE9C602C710CDD1CFF9CD794A01D45
:10334000B11DDD1C009FD794C01DD11DDD1C119F38
:10335000D794801C911CDD1C229FD794A01CB11C0B
:10336000DD1C339FD694C01CD11C0F901F90E080B1
:10337000F1800281138124813581E618F7080A0B58
:103380001B0B2C0B3D0BA795E40EF51E061F171FFC
:10339000281F391F401D511D621D731D841D951D61
:1033A000AA1F480959096A097B098C099D09660801
:1033B0007708A795061C171C271C371C471C571C91
:1033C000E682F782008711872287338744875587F3
:1033D00066877787808B918B028A138A248A358A45
:1033E000468A578ACDB7DEB799808A80E4018C84FB
:1033F0009D84AE84BF84C888D98899278A9C10018F
:103400008C9C20019D9CA001BD9CB001899C702CCE
:10341000210C391E8B9C300C411C591E8D9C500C6C
:10342000411D591F9C9C70019A9C300C411C5E1CD4
:10343000F91E9B9C400C511CF91EAD9C4F0D501D5C
:10344000611D791FBC9C7001AB9C500C411D5E1D21
:10345000F91EAC9C400D511DF91ECD9C6F0D701DC9
:103460008827811D770C221C331C441C551C441FCB
:10347000551F661F771F881F991FBB9C9001AA9C30
:103480008001999C7001889C602C710C2E1C3F1C43
:10349000401E511E421F531F991FDD9C7001CC9C82
:1034A0009695601D711D8E1D9F1D608E718E228EE2
:1034B000338E448E558EEA88FB880C891D892E89AF
:1034C0003F89BB2750FB97958795779567955795CB
:1034D000E19E2001EF9C500D611D741D851D9B1FF9
:1034E000E09E600D711D8B1F9B1FF09E700D811D56
:1034F0009B1FF39E3001E29E800D911D6B1E7B1E73
:10350000F19E800D911D6B1E7B1EF29E900D611C25
:103510007B1E139F1001129F2001019F900D611CC3
:10352000741C5B1E029F600C711C5B1E239F250C8C
:10353000301C4424411C5524039FD001E39E900D70
:10354000611C7A1E2B1E351C451C550F661F771FEC
:10355000881F991F661C771C221C331C441C551C99
:1035600050F9009FE001FF9CD001EE9C400D511DE1
:103570006A1F7B1F8C1F9D1F551C339FE001229FDC
:10358000D001119F5694601C711C2A1E3B1E4C1EBC
:103590005D1EE818F9080A091B092C093D090008F5
:1035A000E024F0240025102520253025E018F0081F
:1035B00000091009200930097F926F926624E09E6D
:1035C000D001E29EE001F39E4001139F5001EF9C69
:1035D000702CA10DB61DE19EB00DC11DD61DE39E40
:1035E000D00D811C961CF29E6001F09EB00DC11D95
:1035F000DC1DD61CF19EC00DD11DD61C039F8D0C69
:10360000901CA11CB61C129F6001019FD00D811C53
:103610009C1CD61C029F800C911CD61C239FAD0CB9
:10362000B01CCC24C11CDD24770CAA1FBB1FCC1FEF
:10363000DD1F881C991CAA1CBB1CCC1CDD1CEE9C2D
:10364000602C710CDD1CFF9CD794A01DB11DDD1CEE
:10365000009FD794C01DD11DDD1C119FD794801CE5
:10366000911CDD1C229FD794A01CB11CDD1C339F34
:10367000D694C01CD11C0F901F90E08CF18C028D51
:10368000138D248D358DE618F7080A0B1B0B2C0BB8
:103690003D0BA795E40EF51E061F171F281F391FA7
:1036A000401D511D621D731D841D951DAA1F4809D3
:1036B00059096A097B098C099D0966087708A7954D
:1036C000061C171C271C371C471C571C44A355A35A
:1036D00066A377A380A791A702A613A624A635A662
:1036E00046A657A6DF91CF91608C718C828C938C0B
:1036F000A48CB58CC4846C0CC5847C1CC6848C1CC6
:10370000C7849C1CC088AC1CC188BC1CC288EC1C33
:10371000C388FC1CC4880C1DC5881C1DC6882C1DB4
:10372000C7883C1DCC24DD24DC1C4D0D5C1D6C1DAC
:103730007C1D8C1D9C1D0C1C1C1C2C1C3C1C4C1C26
:103740005C1CA081A60DA487A181A71DA587A281CD
:10375000A81DA687A381A91DA787A481AA1DA08B48
:10376000A581AB1DA18BA681AE1DA28BA781AF1D2C
:10377000A38BA085A01FA48BA185A11FA58BA285CB
:10378000A21FA68BA385A31FA78B461D571D681DCF
:10379000791D8A1D9B1D0E1C1F1C201E311E421EE2
:1037A000531E408F518F628F738F848F958F068E3B
:1037B000178E20A231A242A253A2DC1CDF92EF930B
:1037C000FF93288039804A805B806C807D80EE8109
:1037D000FF81088519852A853B858C849D84AE846C
:1037E000BF84C888D9884A895B896C897D898E891C
:1037F0009F89281839084A085B086C087D08E40B83
:10380000F50B060B170B280B390B0008202430246E
:103810004024502460247024E025F0250025102544
:10382000202530252018300840085008600870080E
:10383000E009F00900091009200930098824249CB6
:103840005001269C6001379CA001579CB001239C2D
:10385000902CA10CB81C259CB00CC11CD81C279C1A
:10386000D00C411D581D369CC001349CB00CC11CAD
:10387000D81E981D359CC00CD11C981D479C490F23
:10388000501D611D781D569CC001459CD00C411DEA
:10389000581F981D469C400D511D981D679C690F2F
:1038A000701D8827811D9927990CAA1CBB1CCC1C54
:1038B000DD1C441F551F661F771F881F991F229C00
:1038C000802C910C991F339C9795A01CB11C991FBB
:1038D000449C9795C01CD11C991F559C9795401DE1
:1038E000511D991F669C9795601D711D991F779CAE
:1038F0009695801D911D8F929F92AF92BF92CF920D
:10390000DF92992450FB9795879577956795579502
:10391000E19F6001EF9F500D611D7C1D8D1D991D64
:10392000E09F600D711D891D991DF09F700D811D17
:10393000991DF39F7001E29F800D911DE91CF91CF8
:10394000F19F800D911DE91CF91CF29F900DE11C67
:10395000F91C139F5001129F6001019F900DE11C03
:10396000FC1CD91C029FE00CF11CD91C239FAD0C40
:10397000B01CCC24C11CDD24039F4001E39F900DAB
:10398000E11CF81CA91CBD1CCD1C550F661F771F20
:10399000881F991FEE1CFF1CAA1CBB1CCC1CDD1C25
:1039A00050F9009FE001FF9F4001EE9F400D511D27
:1039B000681D791D8C1F9D1FDD1C339FE001229F18
:1039C0004001119FD694E01CF11CA81CB91CCC1E10
:1039D000DD1EE219F3090409150926093709000853
:1039E000E025F0250025102520253025E019F009D7
:1039F00000091009200930096624E09FD001E29FE8
:103A0000E001F39F2001139F4001EF9F702CA10D57
:103A1000B61DE19FB00DC11DD61DE39FD00D411C09
:103A2000561CF29F1001F09FB00DC11DD21D361C17
:103A3000F19FC00DD11D361C039F430C501C811CEF
:103A4000961C129F1001019FD00D411C521C361C68
:103A5000029F400C511C361C239F830C901C222477
:103A6000211C3324770CAA1FBB1FCC1FDD1F441C55
:103A7000551C881C991C221C331CEE9F602C710C59
:103A8000331CFF9F3794A01DB11D331C009F37943A
:103A9000C01DD11D331C119F3794401C511C331C79
:103AA000229F3794801C911C331C339F3694201C1A
:103AB000311CEDB7FEB706801580048113813F915C
:103AC0002F91F901061817080A0B1B0B2C0B3D0B45
:103AD000A795040E151E061F171F281F391F4E1D00
:103AE0005F1D6A1D7B1D8C1D9D1DAA1F4409550964
:103AF000680979098209930966087708A795E61C81
:103B0000F71CA71CB71CC71CD71C3F902F909F9079
:103B10008F90DF91CF916C8468186C866D846908F2
:103B20006D866E8462086E866F8463086F8668880F
:103B30006E0A688A69886F0A698A6A8860086A8A70
:103B40006B8861086B8A6C88600A6C8A6D88610A70
:103B50006D8A6E88620A6E8A6F88630A6F8A688CC3
:103B6000640A688E698C650A698E6A8C660A6A8E38
:103B70006B8C670A6B8E6C8C680A6C8E6D8C690A14
:103B80006D8E6E8C6E086E8E6F8C6F086F8E68A057
:103B90006A0868A269A06B0869A26AA06C086AA298
:103BA0006BA06D086BA2AF91A040BB0BCCA0CA0E5E
:103BB000CCA2CDA0CB1ECDA2CEA0CB1ECEA2CFA09C
:103BC000CB1ECFA2C8A4CB1EC8A6C9A4CB1EC9A613
:103BD000CAA4CB1ECAA6CBA4CB1ECBA6CCA4CB1EFC
:103BE000CCA6CDA4CB1ECDA6CEA4CB1ECEA6CFA454
:103BF000CB1ECFA60895CF93DF931F921F92CDB710
:103C0000DEB7982F92959F70906699831A82803BB9
:103C100009F148F4803191F08037E1F0811111C051
:103C200080E9898317C0803DA9F018F4803C31F009
:103C300008C0803E79F0803F21F40CC080911A21A9
:103C400008C0982F907F8F70903311F4806C01C062
:103C500080688A830F94090362E0CE0101960F9475
:103C6000ED010F900F90DF91CF910895662319F029
:103C7000803109F480E0BFCF9091202180911F21F5
:103C8000892B11F086EA08C080912121882311F048
:103C900080E702C00E944933AECF61E001960D94E7
:103CA000ED01CF93FC01C4816C2F05960F94CC01DC
:103CB00091E0C81301C090E0892FCF910895EF9251
:103CC000FF920F931F93CF93DF931F92CDB7DEB771
:103CD0006FEF8DE191E20F94CC01882309F479C252
:103CE00080931C21853010F480EF85DF80911D21A9
:103CF000803809F43BC2803A09F42CC2811154C2C5
:103D000080911E21803C09F496C190911B21913035
:103D100011F410921B21863409F4B7C008F58432DF
:103D200009F46FC050F4803209F44EC0823209F4B5
:103D300062C08E3009F036C232C08C3209F476C0CF
:103D400020F48A3209F419C22DC28E3209F484C0DB
:103D5000843409F027C28DE191E20E94B12A25C284
:103D60008A3C09F4B0C178F4863809F4AEC020F476
:103D7000843809F491C016C2843A09F4ACC0803B7F
:103D800009F443C10FC28A3D09F4C3C120F4863D42
:103D900009F4A0C107C2803E09F0DEC1C1C1809113
:103DA0001F2190E0982F882720912021822B20919D
:103DB0002121222311F080E7F8C197FF02C086EA93
:103DC000F4C10E941433F1C180911F218111F7CFFA
:103DD00080912121882351F08DE191E25EDF8DE118
:103DE00091E25FDF882311F084E9DFC180E291E294
:103DF0000E94A42FDAC16AE170E28DE191E272D6ED
:103E0000D4C180911F218111DACF80912121882393
:103E100091F28DE191E241DF8DE191E242DF81118A
:103E2000E3CF80E291E20E94A02FBFC180911F21C9
:103E30008111C5CF80912121882309F4BCCF8DE168
:103E400091E22BDF8DE191E22CDF8111CDCF80E279
:103E500091E20E94A22FA9C190912021809121215D
:103E60008111A9CF80911F21811105C09F3008F0D9
:103E7000A6CF892F07C0803A19F0803B09F09FCF69
:103E800091119DCF0E947E2E1CC16AE170E28DE1EE
:103E900091E20E94762889C180911F2181118FCFE4
:103EA0008091202181118BCF10912121111102C00D
:103EB00080EFA1DE612F8AE190E20E94CB47109350
:103EC0001A2181E080931B21FAC06AE170E28DE142
:103ED00091E299D66AC1809120218C3021F0811124
:103EE0006ECFF12C02C0FF24F39490912121911107
:103EF00013C090911F21911107C081115CCF8AE1FD
:103F000090E20E94473178C0933009F054CF8AE1A3
:103F100090E20E94343170C08DE191E2BEDE8DE10D
:103F200091E2BFDE811160CF90911F21292F2E7F5A
:103F3000809121212830D1F4823010F487EA5BDEB1
:103F40008091212180FF02C087EA55DE80911F21E8
:103F50006AE170E280FF05C081E291E20E945B317C
:103F60004BC081E291E20E94613146C0943061F41D
:103F70008150803110F087EA18C16AE170E281E275
:103F800091E20E943A3138C08230A9F7933008F0AC
:103F900016CF0091222110E0102F002780912321BD
:103FA000082B911114C080912021811109C00115A5
:103FB0008FE3180729F48AE190E20E94473105C097
:103FC0006AE170E2C8010E944D316F2D4FDE809191
:103FD0001F21813039F46AE170E2C8010E9440314A
:103FE0006F2D44DE80911F21823009F0F2C06AE11A
:103FF00070E2C8010E9454316F2D0F90DF91CF9174
:104000001F910F91FF90EF9031CE80911F21813849
:1040100008F0D5CE60912121662309F4CCCE70E062
:1040200090E0982F8827209120214AE150E2822BAE
:104030000E946932BAC080911F218111C0CE809147
:1040400020218111BCCE80911B21813011F085E9A6
:10405000ACC060912121062F10E0E0901A21F12CD4
:104060000115110509F4A9C0E114F10429F0E016C5
:10407000F10628F480EC99C0E12CFF24F3948DE143
:1040800091E269830ADE69818AE190E20F94ED0191
:10409000E01AF10A29F410921B21E12CF12C0BC03B
:1040A000F801E65EFF4DCF01AAE1B0E221912D9328
:1040B000A817B907D9F7E0921A21EE2011F080E194
:1040C00074C080E072C06AE170E28DE191E20E940A
:1040D00014296BC080911F21813808F070CE809127
:1040E0002121882309F467CE8DE191E2D6DD8DE1AF
:1040F00091E2D7DD811178CE60911F2170E0762F9B
:10410000662780912021682B81E291E20E94C332D0
:104110004CC06AE170E28DE191E20E94BC2945C089
:1041200080911F2181114BCE80912021811147CE9A
:1041300080912121882309F43ECE8DE191E2ADDD0D
:104140008DE191E2AEDD81114FCE81E291E20E94DC
:104150000B342BC080911E21843E21F50F90DF91FE
:10416000CF911F910F91FF90EF9086CD80911E21EE
:104170008A3219F08A3D39F015C06AE170E28DE1AA
:1041800091E239D612C080911F21811118CE809101
:104190002021811114CE80912121811110CE0E9405
:1041A000C33103C080EF01C080EE0F90DF91CF914B
:1041B0001F910F91FF90EF901ECDEF2809F05ACF7D
:1041C0008DE191E26ADD60E08AE190E20F94ED0119
:1041D00062CF0F90DF91CF911F910F91FF90EF90E1
:1041E000089510921B210895FC01EF5FFE4F21E01E
:1041F00020833197608380E108959B013695279550
:10420000DC01A60FB71FFC01820F931FE817F90707
:1042100029F020813E9131932C93F8CF0895FB0132
:10422000E40FF51F480F591F8417950729F02291B5
:10423000DC012D93CD01F8CF08959C01633229F460
:1042400081E02115314091F410C0623261F4803C6C
:10425000910559F08F778115914039F081E029302F
:10426000324021F402C081E0089580E008951F9358
:10427000CF93DF93EC01688363E080E090E00E94DD
:104280007F318823C9F0813820F4FE01319612E095
:1042900005C091E89983FE01329613E0819363E0B3
:1042A000CF010E947F31882339F0682F610FCE0142
:1042B000DF91CF911F9198CF85E9DF91CF911F9129
:1042C0000895CF92DF92EF92FF920F931F93CF93B7
:1042D0008C017B01C42FC42ED12CB601C7018DDF08
:1042E00082E0F8018083C183F701808187FD03C0EC
:1042F000C801019606C0C8010296CF5FF801C183CC
:104300001282A601B70101960E94567C82E08C0FB2
:10431000CF911F910F91FF90EF90DF90CF90089574
:10432000CF92DF92EF92FF920F931F93CF938C0166
:104330006B018AE691E0F8019C0111922150304016
:10434000E1F7411108C062E0C8018E5D9E4F0E94F6
:104350007F317C0102C0E42EF12C0E947431833243
:1043600099F038E1E316F10489F080E2E816F104EF
:1043700079F0E0E3EE16F10469F0F2E4EF16F104EF
:1043800009F047C0C8E607C0C0EB05C0C0E503C0E0
:10439000C8E501C0C0E6F801E05EFE4FC083CF7300
:1043A000C114D10489F088EDF60111928A95E9F7DC
:1043B00065E06C0FC6010E942E7C66E06C0FC601A2
:1043C000885B9F4F0E942E7C61E06C0FC8010E94A9
:1043D0002E7C62E06C0FC801885B9F4F0E942E7C90
:1043E00063E06C0FC80180579F4F0E942E7C64E0F1
:1043F0006C0FC80188529F4F0E942E7CB701C801E4
:104400008E5D9E4FFADE8E2DF801EF5DFE4FE0824D
:1044100001C080E0CF911F910F91FF90EF90DF904E
:10442000CF900895DF92EF92FF920F931F93CF9357
:10443000DF93CDB7DEB7C354D240CDBFDEBF282F48
:104440008B0140E0BE0165597E4FCE010196CD5BE8
:10445000DD4F2883C354D24063DFD82ECD5BDD4FC0
:104460002881C354D240882309F43EC0E82EF12CA1
:104470002338C1F048F4213881F0223869F5A701CA
:10448000BE016F567F4F25C0243889F0253821F5AD
:10449000A701BE01675B7F4F1CC0A701BE016F5F14
:1044A0007F4F17C0A701BE0167527F4F12C0A701FF
:1044B000BE016D547E4FC8010E94567CA701BE010B
:1044C00065597E4FC8018E0D9F1D0E94567CDD0CE4
:1044D00003C0C8010E94567C6D2D70E0C8018DDEBE
:1044E0006D2DC80181DE01C088EACD5BDD4FCDBFF7
:1044F000DEBFDF91CF911F910F91FF90EF90DF9082
:1045000008956F927F928F929F92AF92BF92CF92B7
:10451000DF92EF92FF920F931F93CF93DF931F923F
:10452000CDB7DEB73C017B01CDB6DEB68DB79EB709
:10453000805291408DBF9EBF0DB71EB70F5F1F4FBA
:10454000EDB7FEB7EA56F140EDBFFEBF8956914088
:104550005C0143019FEF891A990AF301608170E0C1
:10456000C4014BDE40E0B801C501DADE282F30E09F
:104570002115310511F485E947C0F301408150E070
:10458000C9014817590708F4CA018834910550F445
:1045900048E450E0481B590B60E070E0880D991D1D
:1045A0000E94707CA501B801C4010E943E3E8111A9
:1045B000E2CF80E3F7018083FFEDAF1AFEEFBF0A81
:1045C000F50140814D3328F081E8F701818323E034
:1045D00001C022E04701820E911CB801C401298369
:1045E00070DE782EB801685B7F4FF5014081C40111
:1045F000870D911D66DE870DF40131978083298137
:10460000682F620FC701F0DDCDBEDEBE0F90DF91D7
:10461000CF911F910F91FF90EF90DF90CF90BF90BF
:10462000AF909F908F907F906F900895BF92CF92A0
:10463000DF92EF92FF920F931F93CF93DF93EC01E2
:104640007B016A01B22EBC01C701D7DDC038D1059C
:1046500058F440E051E04C1B5D0B60E070E0C70196
:104660008C0F9D1F0E94707C63E880E090E00E94A8
:104670007F318C01000F111FB11006C0C017D10788
:1046800009F04AC0E80131C021E0B2124DC0649780
:1046900009F042C0E701649664E0CE010E942E7CDE
:1046A0008823D1F16FE070E0CE01A7DDC3E2D0E056
:1046B000CE010B960817190778F1F701EC0FFD1FD3
:1046C000108221968FEFC017D10730F4F701EC0F5D
:1046D000FD1F80832196F7CFC701800F911FFC013A
:1046E00031971082319721E02083AE01569547958E
:1046F000B601C7010E941643882389F080E091E04B
:10470000F7019C01119221503040E1F7F6019C0124
:10471000119221503040E1F780E090E009C0B801EB
:10472000C6016BDDC80104C032E0B312F5CFC0CFC3
:10473000DF91CF911F910F91FF90EF90DF90CF907D
:10474000BF900895CF92DF92EF92FF920F931F9345
:10475000CF93DF931F921F92CDB7DEB77C018B0101
:104760006A0160EACA012A830E947F3189830E941C
:1047700074312A814981893139F5403149F488E021
:10478000F6017096D60101900D928A95E1F706C068
:10479000483121F04830B1F540E001C04CE088E0FC
:1047A000E816F10411F080E72EC021114360B60134
:1047B000C8010E94D90388E0F801D60101900D924A
:1047C0008A95E1F768E012C08932E1F480E1E816E9
:1047D000F10449F7B601C8010E94D60580E1F8014D
:1047E000D60101900D928A95E1F760E1C6010F9024
:1047F0000F90DF91CF911F910F91FF90EF90DF907D
:10480000CF90F2CC81E90F900F90DF91CF911F9163
:104810000F91FF90EF90DF90CF9008950F931F932B
:10482000CF93DF93CDB7DEB7C358D109CDBFDEBF7D
:104830008C01CD57DF4F6883C358D0400E94E931C7
:10484000CD57DF4F6881C358D040811116C028E092
:10485000629FC00111240E941F45F801908190625F
:1048600099838A83B8016E5F7F4FCE0103960E94C1
:10487000E07ACE0101960E94E931CD57DF4FCDBFDE
:10488000DEBFDF91CF911F910F9108955F926F92DC
:104890007F928F929F92AF92BF92CF92DF92EF92D0
:1048A000FF920F931F93CF93DF93CDB7DEB7D25014
:1048B000CDBFDEBF8C014B01FC018481811108C09A
:1048C0000E9467317C018F739927892B21F12BC0BE
:1048D000C801E3D9C801E5D9811123C0F801848159
:1048E0008730F9F485818033E1F48781813811F0D4
:1048F0008230B9F4F8018681853099F4808583305F
:1049000081F48185813069F4828581110AC08385B3
:10491000813039F4D5CFC70192508130964028F0CC
:1049200002C084E9ABC081E9A9C00F940603580115
:10493000F4E0AF0EB11C9701AE014F5F5F4FB401C1
:10494000C5010E947544582E682E712C61147104A3
:1049500009F493C083ECF801828353826801F2E08A
:10496000CF0ED11C652DC60159DF811187C024EC03
:10497000C8018E579F4FFC01208331965082652DD0
:104980004DDF81117BC0A301BE016F5F7F4FC50169
:104990000E94567C85ECF8018283C6010E94E931B1
:1049A00081116CC0A301BE016F577F4FC5010E94EA
:1049B000567C86ECF8018283C6010E94E9318111A0
:1049C0005DC0A301BE016F5F7E4FC5010E94567C92
:1049D00087ECF8018283C6010E94E93181114EC043
:1049E000E114F8E0FF06D1F580E8F401D50101906B
:1049F0000D928A95E1F789E8F801828380E8838344
:104A0000C6010E94E931811139C080E8F401E05803
:104A1000FF4FD50101900D928A95E1F788E8F801E2
:104A20008283C6010E94E931811128C081E8F80122
:104A3000828383E0838381E0848315828683C60139
:104A40000E94E93181111AC0B301660F771FC401BA
:104A5000D4DB652D660FC401C7DB10C093E0F6946C
:104A6000E7949A95E1F7A701B401C5010E94567C2D
:104A700080E8F8018283E382D4CF82EADE5FCDBF93
:104A8000DEBFDF91CF911F910F91FF90EF90DF90EC
:104A9000CF90BF90AF909F908F907F906F905F90DE
:104AA0000895FF920F931F93CF93DF938C01F62EFF
:104AB00080E8F80111928A95E9F780E090E00E9481
:104AC0007F31EC018138910530F46F2DC8010E94CF
:104AD0007F318C2F01C080E0DF91CF911F910F912A
:104AE000FF900895CF93DF93EC0110922122892B40
:104AF00011F480E085C08A81833F31F48C81882362
:104B000009F47EC087EA7CC0843A19F491E49A8360
:104B10008B838A81813419F0813809F06EC08C81D1
:104B2000811105C08B81863B51F481E00EC0CE011E
:104B3000B4D8CE01B6D88823A9F384E961C0883BF4
:104B400071F48A81813849F483E0809321226C8159
:104B500070E0A0E040E050E01BC082E0F6CF843A75
:104B600009F04BC084E0F1CFFE01E40FF51F958101
:104B700086819038D9F4813009F03FC09781923016
:104B800059F4A1609093242290E00296480F591F97
:104B90004617570748F32CC0933018F491112DC0D5
:104BA000F0CF943071F3923141F5EBCF913871F43D
:104BB000823019F5A260278130E0322F22279085BC
:104BC000292B2093222230932322DECF2DE7290F99
:104BD000223030F4813089F4978191110EC0D4CF06
:104BE000973869F490912122906890932122CCCF3C
:104BF000A33009F47ECF1092212281EA01C080EA1D
:104C0000DF91CF9108953F924F925F926F927F9282
:104C10008F929F92AF92BF92CF92DF92EF92FF92CC
:104C20000F931F93CF93DF931F92CDB7DEB78C0105
:104C30007B014DB65EB68DB79EB78A5691408DBF4B
:104C40009EBFADB7BEB711964D01EDB7FEB7E85D9B
:104C5000F109EDBFFEBF875D91096C0188EDD601BA
:104C60001D928A95E9F7F80182818111AEC0838196
:104C70008111ABC0809121228F70843009F074C003
:104C80000E942F31209122223091232282179307F4
:104C900009F06AC0D80114968C91811102C084E990
:104CA00095C0C8010E944D1EC8010E94511E81116D
:104CB000F6CFF8014481433090F350E0B8016B5FC8
:104CC0007F4FC7010E94567CD80114968C91F70142
:104CD00090819C3721F787010E5F1F4F218127FFAD
:104CE00006C081502138D9F60F5F1F4F2281422F15
:104CF00050E090E002974817590789F6223050F1AA
:104D0000D8013C91F801329611968C91119787FF4A
:104D100006C02150813819F6319612968C919EEF7B
:104D2000920F981708F4BBCF353859F48F010F5FF5
:104D30001F4F3081343009F0B2CF8913B0CF2350E8
:104D400009C0303809F0ABCF8F01080F111D292F92
:104D5000281BD4CF40E060E070E0C4012983E0DA92
:104D6000382E2981811102C085E930C0A82EB12CCE
:104D7000C501880F991F30E08217930709F08FCF84
:104D80003401BFED6B1ABEEF7B0AF301408150E0A6
:104D9000B801C60144DAD3014C9150E0B8016A0D64
:104DA0007B1DC601885B9F4F3ADA0F940603B4015E
:104DB000C6010E947B3D8111D7CFA501B601C70175
:104DC0002EDA632DC70110DA01C086EA4DBE5EBE41
:104DD0000F90DF91CF911F910F91FF90EF90DF9097
:104DE000CF90BF90AF909F908F907F906F905F908B
:104DF0004F903F900895AF92BF92CF92DF92EF9283
:104E0000FF920F931F93CF93DF931F92CDB7DEB71F
:104E10005C018B010E942F312091222230912322AC
:104E20008217930711F025E954C1F50182818E396B
:104E300009F04FC083818A3909F04AC1F5018481A4
:104E4000882309F441C1C5010E944D1EC5010E947D
:104E5000511E882311F024E93CC1809121228F70DA
:104E6000813009F780912422843089F40F9406035D
:104E7000B801C50104960F90DF91CF911F910F915A
:104E8000FF90EF90DF90CF90BF90AF903ACB823001
:104E900021F0823121F421E005C022E003C081111C
:104EA00015C120E0F501E480F12CB5016B5F7F4F67
:104EB000A701C50129830E945F7C0F940603298105
:104EC000A801B501C701B2DB009709F4ACCF682F88
:104ED000BDC0803809F0C7C0809121228F70823018
:104EE00009F0A1CFF5018481882309F4B4CFC5016D
:104EF0000E944D1EC5010E94511E282F8111ABCF6B
:104F0000F5018381843819F4C480D12C53C08638CC
:104F100009F0DEC0F501E480F12CF1E0EF1AF108B0
:104F20006701F5018581811108C0A701B5016A5F9C
:104F30007F4FC5010E945F7C3DC0813891F4F8012C
:104F4000F395E082B5016A5F7F4FA701C80129830D
:104F50000E94567CF801EF5FFE4F82E0808329813A
:104F6000B8C0823809F077CFF801EF5FFE4F80813B
:104F7000823009F070CF10826801D394F6018081ED
:104F800090E09701280F391F2130314008F063CF9E
:104F9000A701B5016A5F7F4F800F911F0E94567C69
:104FA000F60180816701C80ED11CA601B801C501B8
:104FB0000E94567C60EA80E090E00E947F31892B5D
:104FC00061F0F5018081803809F080C0B5016B5F28
:104FD0007F4F21E0A801C6016BC00F94060320E0BB
:104FE000A801B501C60122DB7C01892B09F41BCF86
:104FF00080912422823049F5F8018081811113CFFC
:105000008181823009F00FCFFCE0EF16F10408F443
:105010000ACFA70143505109C8010296FC0101962D
:10502000208121110EC07A01C8010A96E817F907FC
:1050300008F4F9CEBF016F5F7F4FC8010E94567C14
:1050400004C04150510951F7EECE6E2DC8010F90AA
:10505000DF91CF911F910F91FF90EF90DF90CF9054
:10506000BF90AF90C1C8843899F5809121228F708C
:10507000833009F0D8CEF5018381803809F0EBCE7A
:105080008481882309F4E7CEC5010E944D1EC50125
:105090000E94511E8111DFCEF50180818038B1F46C
:1050A000B5016B5F7F4FF501848120E0A80190E09E
:1050B0000F90DF91CF911F910F91FF90EF90DF90B4
:1050C000CF90BF90AF903ECB20E703C021EA01C054
:1050D00026EA822F0F90DF91CF911F910F91FF90C1
:1050E000EF90DF90CF90BF90AF900895AF92BF92B6
:1050F000CF92DF92EF92FF920F931F93CF93DF93A4
:105100001F92CDB7DEB77C018B01ADB6BEB6FC01F8
:10511000828181117AC08381811177C00E947431AC
:10512000682F813121F4B801C701B0DB6FC0F701EE
:105130008481882311F085E969C08DB79EB78A56AE
:1051400091408DBF9EBFEDB7FEB731967F01698359
:105150000E9467316C01698170D88111ECCF0F9486
:105160000603A601495F5F4F83E0569547958A95F0
:10517000E1F7B801C701D4D88823E9F2B701C80123
:105180000E94EE3D8111D7CF6701FFEDCF1AFEEFF0
:10519000DF0AF601608170E0C7018E5D9E4F2DD859
:1051A000F601408150E0B801C80185529F4F37D8C1
:1051B000F601408150E0CA0185529F4FB801685BFB
:1051C0007F4F800F911F2BD8C701805E9E4F22E436
:1051D000FC012083F601F0800E94E931811116C0A4
:1051E000FF0C23E4C80188529F4FFC0120833196B5
:1051F000F394F08224E0319620830E94E9318111FA
:1052000005C066E8C80133D801C086EAADBEBEBE9F
:105210000F90DF91CF911F910F91FF90EF90DF9052
:10522000CF90BF90AF9008950F931F93CF93DF93CC
:10523000FC012281213009F099C08381982F907B55
:10524000903B31F48F70DF91CF911F910F91C7C5C3
:105250009FE7980F953028F4DF91CF911F910F9120
:10526000E1C8EB01803A39F190F4813009F456C07D
:10527000A0F1823009F473C0863809F077C060E38A
:10528000CE01DF91CF911F910F910C9437218A3A73
:10529000C1F048F4873A08F069C0DF91CF911F91BF
:1052A0000F910C94BF358C3A09F060C04AD59883B1
:1052B000898362E00BC061E0CE010E942E7C64E134
:1052C00005C062E0CE010E942E7C6BE0CE01DF9132
:1052D000CF911F910F910C94F42082E98883198259
:1052E00061E880E090E00E947F31009709F43EC0C1
:1052F00033E0880F991F3A95E1F79A838B8363E82F
:1053000080E090E0FCD7009789F124E0880F991F96
:105310002A95E1F79C838D8366E0D8CF60E8CE01C3
:10532000EED78C01892B79F469E8CE01E8D78C019E
:10533000892BE1F068E8CE01800F911FE0D700973C
:10534000A9F0080F191FB801CE010E94FD20011518
:10535000F1E01F0711F400E010E0602FB7CF61E823
:10536000CE01CDD7009711F0682FB0CF88EADF913A
:10537000CF911F910F910895CF92DF92FF920F93DB
:105380001F93CF93DF931F92CDB7DEB76C01FC0163
:105390008481811106C0F6018281813009F098C0B4
:1053A0000AC0C6010E944D1EC6010E94511E8823DC
:1053B00091F384E9CDC0F6018381803E91F484812C
:1053C000883011F080E7C4C00F940603C601079629
:1053D0000F90DF91CF911F910F91FF90DF90CF90B1
:1053E000BCC69FEF980F9E3080F4F60184818051F7
:1053F000803240F7C60103960F90DF91CF911F9145
:105400000F91FF90DF90CF901BC690E8980F9C30D3
:1054100018F0803A09F05EC05AD78C01892B09F444
:105420005BC062D7282F893149F4C8018F77803457
:10543000910529F10038110529F621C0893251F46E
:10544000C8018F7B80389105D1F00115114009F01A
:10545000B9CF15C0682FC80129830E941D21298159
:10546000811110C0F6018381873811F482E004C0F5
:10547000863819F583E0F60183830F940603C6018D
:1054800003961DC0213151F5C8018F739927892BCF
:1054900029F5C80192508130964000F5F601F4805C
:1054A000F0FE04C0F60183818138D1F4F6018381D6
:1054B0008A3800F18C3808F44AC085E949C00F9059
:1054C000DF91CF911F910F91FF90DF90CF9081C717
:1054D00088EA3EC081EA3CC082EA3AC081E938C02D
:1054E00095819111EACFFA94F5828483FFEFCF1A68
:1054F000DF0ADCCF833850F4813879F040F580380A
:10550000E1F628E0F29EC001112404C0F0E1FF9E04
:10551000C00111240817190781F60F9406036F2D97
:1055200070E0C60105960E94FD20F60193812DE7EB
:10553000290FC6010396223010F66F2D0F90DF91D0
:10554000CF911F910F91FF90DF90CF9067C980E0BE
:105550000F90DF91CF911F910F91FF90DF90CF902F
:105560000895CF93DF93EC018C81811103C056D451
:1055700080E009C0CE010E944D1ECE010E94511E46
:105580008823A9F384E9DF91CF91089581508E306B
:1055900028F421E3829FC001112408958FEF9FEF2B
:1055A0000895FB01AC01485F5F4FDC013D91CD01E7
:1055B0002191321721F0311107C02F3F29F48417B0
:1055C000950799F780E0089581E00895CF93DF93E0
:1055D0001F92CDB7DEB741E06EEA72E0CE010196D0
:1055E0000E94724799818EEF89270F90DF91CF91AA
:1055F0000895CF93DF931F92CDB7DEB79EEF892733
:105600008983E4DF9981891739F041E06EEA72E01D
:10561000CE0101960E9486470F90DF91CF910895A9
:10562000CF92DF92EF92FF921F93CF93DF93CDB78C
:10563000DEB7E197CDBFDEBF7B01142FA7DF6C0182
:1056400097FF02C08FE052C041E3BC01CE0101963A
:105650000E9472478111F6CF1123C9F08AA51FEF6E
:10566000180F1E3F08F03FC0E114F10409F43EC0DA
:10567000BE01675F7F4FC70194DF882329F01AA717
:10568000111121C010E81FC08CA58AA71BC099A5C5
:105690001FEF190F1E3F38F5E114F10441F48DA5F9
:1056A00080FD02C080E001C080E1892B1FC0BE01E7
:1056B0006F5F7F4FC70175DF882311F019A7E0CF17
:1056C0008BA589A710E041E3B601CE0101960E94A7
:1056D000864711110AC08DA585FD10E483FF05C022
:1056E000812F806203C080E801C0812FE196CDBF89
:1056F000DEBFDF91CF911F91FF90EF90DF90CF90B1
:1057000008952F923F924F925F926F927F928F9265
:105710009F92AF92BF92CF92DF92EF92FF920F9340
:105720001F93CF93DF93CDB7DEB7E697CDBFDEBF34
:105730005C016CAB372E6A01FC0164807580868049
:105740009780283071F4FA012080018110E0102F39
:1057500000278281082BF3E0CF0ED11C2A942A94D3
:105760000BC02B3031F4FA0121906F010CA9172FD7
:1057700003C00CA9172F212C19A21AA2E12CF12C7D
:105780001BAA412C512C69A17AA14FE0CE0142966F
:105790002EAB0E94AB46382F2EA98111F2C068A112
:1057A00067FD07C0E114F10409F0D8C0E9A0FAA030
:1057B000D5C08A899B898F3FFFEF9F0721F52E3047
:1057C00019F41A8A1B8ADFC02A3059F43FEF431AB2
:1057D000530AF5014482558289A19AA18787908B4B
:1057E000DBC0253041F4FBA9FF2309F4D5C081E1DA
:1057F000FE013196CBC0233009F0CEC0312CF5012B
:1058000020823182C9C04E895F894416550608F44A
:105810002A01293029F44815590509F09DC0B3C063
:105820002330E9F4488D598D4615570509F094C089
:105830008115FFE39F0709F48FC03A8D33254CA9EA
:10584000342309F089C0EEE7E21508F485C0F601BB
:10585000908381832394C60102966C017DC06F7191
:10586000F1F02B30E1F469A17AA1615F7F4F422D05
:10587000CE0183962EAB3DAB0E94AB462EA9811183
:105880006BC0422D50E0BE016D5D7F4FC6010E948E
:10589000497C2EA93DA9892B09F05EC074C0688D92
:1058A000798D6615770589F5EA8DEF7BE83331F45C
:1058B0002C3009F468C0263059F405C02D3009F4A5
:1058C00062C0273029F48017910709F045C05BC0FA
:1058D0008017910709F03FC0253009F454C02A30E1
:1058E00009F451C02830B9F5222009F44CC0F60162
:1058F000008110E0102F00278181082BF2E0CF0EED
:10590000D11C2A942A943A0127C08017910721F5C7
:10591000253011F56815790571F4FE017296DE01E6
:10592000119681E101900D928A95E1F7E12CF12C1D
:1059300031E03BAB13C04815590571F43BA9311157
:105940000BC0FE017296DE01119681E101900D926D
:105950008A95E1F701C03B01E12CF12C89A19AA1C4
:105960000F9638A1432F4F71840F911D89A39AA3DD
:1059700036FD09CF4C895D89840F951F89A39AA3B1
:1059800002CF32E00AC081E1FE017296D50101909A
:105990000D928A95E1F701C031E0832FE696CDBFE5
:1059A000DEBFDF91CF911F910F91FF90EF90DF90BD
:1059B000CF90BF90AF909F908F907F906F905F90AF
:1059C0004F903F902F900895AF92BF92CF92DF9269
:1059D000FF920F931F93CF93DF93CDB7DEB76197FD
:1059E000CDBFDEBF8C016B015A01F22E81E1E7E2EF
:1059F000F2E2DE01119601900D928A95E1F7898518
:105A00008F7B883329F4F7FE0FC01D821E820CC0E5
:105A100029E040E050E060E070E0CE01019671DEE8
:105A2000882389F382EA7BC02F2D2F77A501B60149
:105A3000CE01019666DE8111F5CF81E1FE0131963E
:105A4000A7E2B2E201900D928A95E1F78FE6D801C4
:105A50008C9387E111968C938091352285FD02C04D
:105A600080E801C081E8F801828382E0838390911D
:105A7000292220912A222483958392E8968391E01B
:105A8000978320912F22208723E8218782872091E6
:105A90002722309128223387248726E8258723E090
:105AA000268720913022278720913122208B209138
:105AB0003222218B25E8228B838B80913322209107
:105AC0003422248B858B8AE8868B978B7FDDD801E7
:105AD00058968C93409135224F7161F4F801F395FB
