:1000000051C2000059C2000057C2000055C2000092
:1000100053C2000051C200004FC200004DC2000098
:100020004BC2000049C2000047C2000045C20000A8
:1000300043C2000041C200003FC200003DC20000B8
:100040003BC2000039C20000DDC3000035C2000021
:1000500033C2000031C200002FC200002DC20000D8
:100060002BC2000029C2000027C2000025C20000E8
:1000700023C200008AC300001FC200001DC200008E
:100080001BC2000019C2000017C200001E202FFC76
:10009000FFFFFEFFFFFFFFFFFFFFFFFFFFFFFFFF71
:1000A000FFFFFFFFFFFFFFFFFFFFFFFFFFFF1F201F
:1000B000414136D08C5ED2BF3BA048AFE6DCAEBA41
:1000C000FEFFFFFFFFFFFFFFFFFFFFFFFFFFFFFF41
:1000D00020209817F8165B81F259D928CE2DDBFC29
:1000E0009B02070B87CE9562A055ACBBDCF97E6600
:1000F000BE792120B8D410FB8FD0479C195485A617
:1001000048B417FDA808110EFCFBA45D65C4A32626
:1001100077DA3A48222000000000000000000000CA
:1001200000000000000000000000000000000000CF
:100130000000000000002320070000000000000075
:1001400000000000000000000000000000000000AF
:1001500000000000000000001430FFFFFFFF00005F
:10016000000000000000FFFFFFFFFEFFFFFFFFFF9A
:10017000FFFFFFFFFFFFFFFFFFFFFFFFFFFFFFFF8F
:10018000FFFFFFFFFFFFFFFFFFFF15307329C5CC07
:100190006A19ECEC7AA7B048B20D1A58DF2D37F483
:1001A000814D63C7FFFFFFFFFFFFFFFFFFFFFFFF63
:1001B000FFFFFFFFFFFFFFFFFFFFFFFF1630B70A44
:1001C0007672385E543A6C2955BF5DF20255382A72
:1001D0005482E041F759989BA78B623B1D6E74AD2A
:1001E00020F31EC7B18E37058BBE22CA87AA1730EF
:1001F0005F0EEA907C1D437A9D817E1DCEB1600A20
:10020000C0B8F0B51331DAE97C149A28BD1DF4F8B2
:1002100029DC9292BF989E5D6F2C26964ADE173697
:100220001830FCFFFFFF0000000000000000FFFF8F
:10023000FFFFFEFFFFFFFFFFFFFFFFFFFFFFFFFFCF
:10024000FFFFFFFFFFFFFFFFFFFFFFFFFFFFFFFFBE
:10025000FFFF1930EF2AECD3EDC8852A9DD12E8AF5
:100260008D3956C65A8713508F081403124181FEE8
:100270006E9C1D18192DF8E36B058E98E4E73EE29D
:10028000A72F31B30020FFFFFFFFFFFFFFFFFFFF9E
:10029000FFFF00000000000000000000000001005F
:1002A0000000FFFFFFFF0120512563FCC2CAB9F324
:1002B000849E17A7ADFAE6BCFFFFFFFFFFFFFFFF1D
:1002C00000000000FFFFFFFF022096C298D84539CA
:1002D000A1F4A033EB2D817D0377F240A463E5E622
:1002E000BCF847422CE1F2D1176B0320F551BF3720
:1002F0006840B6CBCE5E316B5733CE2B169E0F7C4B
:100300004AEBE78E9B7F1AFEE242E34F0420FCFF9C
:10031000FFFFFFFFFFFFFFFFFFFF000000000000E7
:1003200000000000000001000000FFFFFFFF0520AB
:100330004B60D2273E3CCE3BF6B053CCB0061D6599
:10034000BC86987655BDEBB3E7933AAAD835C65A22
:100350000618FFFFFFFFFFFFFFFFFEFFFFFFFFFF8E
:10036000FFFFFFFFFFFFFFFFFFFF07183128D2B499
:10037000B1C96B1436F8DE99FFFFFFFFFFFFFFFFE7
:10038000FFFFFFFF08181210FF82FD0AFFF400882C
:10039000A143EB20BF7CF69030B00EA88D18091851
:1003A0001148791EA177F973D5CD246BED11106337
:1003B00078DAC8FF952B19070A18FCFFFFFFFFFF2B
:1003C000FFFFFEFFFFFFFFFFFFFFFFFFFFFFFFFF3E
:1003D000FFFF0B18B1B946C1ECDEB8FE49302472FC
:1003E000ABE9A70FE7809CE5190521640C0F3021CC
:1003F000300906052B0E03021A050004140D144FD4
:100400007345494404021000000000000000000091
:100410000100000E0B01000F080000C00100018068
:100420000F807901F31160A31A068F3636DF11D4DD
:1004300086510EC74FEC7DCEC0D13D78E2DAE5B6ED
:10044000BB35CB745CAC8BF18E63568EE5185505CD
:10045000EE86AD33B2984DB2C91A071BE915ADE06F
:10046000F6AE916E9970FD6AB194776B6550570F37
:10047000B1F982FCEF76F50E08A78FFE06A23C7C50
:10048000101C024CFA697D6BB57DD8061212DFEFA5
:1004900037B872BD206CBAB1620FE84BF270F85FEA
:1004A000C802FF0011241FBECFEFD0E1DEBFCDBFD9
:1004B0000E949C460C94837DA3CD70916F00739530
:1004C00011F4F89408957360F89470936F0000002D
:1004D0000000000000000000000000000000EFCF5E
:1004E000F89440E048BB47BBE8DF089BFECF5FEFD6
:1004F00059B950E05AB950E95AB95FE015D043E70D
:1005000051E05387428740E140937C0040917C005A
:100510004071E1F340937C0061D04EE150E0509394
:1005200087004093860008954427ECE7F0E0478772
:100530005687458744870895E0E058E070917C0035
:100540007071E1F3B99A70937C00479548F470910B
:100550007C007071E1F3B99870937C00E39507C05B
:1005600070917C007071E1F3B99A70937C005A9598
:1005700061F7E79540F070917C007071E1F3B99AF2
:1005800070937C0007C070917C007071E1F3B998A2
:1005900070937C00EE27FF27CF0170917C00707173
:1005A000E1F3B99870937C0042E0B19B01963196DB
:1005B0008AF070917C007071C1F370937C004A9551
:1005C000A1F7F695EE1FF695EE1FE81BF90BD0F09C
:1005D000882708958FEF089581E008956EDF78945D
:1005E00070917C007071E1F370937C00DC014C91A0
:1005F000A3DF813039F09FEF8F3F81F011966A952C
:1006000059F0F5CF42E070917C007071E1F3709386
:100610007C004A95C1F7EBCF882799270895DC0124
:100620004CDF789420918600309187002F5F3F4FF8
:100630003695279580E0F1E044E00894B19B415065
:10064000411D4730D9F7B199FECF309389002093EF
:1006500088004A954730B9F3B19B4150411D433062
:10066000C9F770E170937C005AE0E1E04730B19B3C
:100670004150411D70917C007071C1F370937C00FA
:100680004430E11D443097955A9581F7991F909514
:10069000E17081F4FF2349F070917C007071E1F307
:1006A000B99870937C00FA9511C0662788277093DB
:1006B0007C0007C070917C007071E1F370937C0046
:1006C000F1E0662319F09D936A95839570917C0003
:1006D0007071E1F370937C00B19A70917C0070713D
:1006E000E1F370937C0044E00894B19B4150411DBC
:1006F0004730D9F79CE0B1990DC030938900209321
:1007000088004A954730B9F3B19B4150411D4330B1
:10071000C9F7A7CF70917C00707169F370937C006A
:100720009A9549F770912703739541F470932703C5
:10073000A81BB050FD017D917F3F11F099270895CE
:10074000841594E000F1222733274C914F714031FA
:10075000D1F44D915D915831B1F445FF04C09395AA
:100760002D91223081F446FF02C093953D91891767
:1007700051F49D9145274227432749274F3F19F4BC
:10078000682FCF012BDF882708950F920FB64F9364
:10079000409127034395409327034033E9F45F9347
:1007A0007F938F939F93EF93FF9387DE5FE0BCDE91
:1007B00040E1408340E6C0DE40E1408340E68823DC
:1007C00009F0BADE57E0B0DE40932703FF91EF91C6
:1007D0009F918F917F915F914F910FBE0F901895D0
:1007E000F89457E0A1DE4093270344E0408341831F
:1007F00078940895F8945FE097DE418344E0408365
:10080000789408950C940000444945734F80100279
:100810000018F53BE8E0F8E07CE0672F8DB79EB765
:1008200045914F937A95D1F75BDE8FEF8093270345
:100830008DB79EB70C96F8948DBF78949EBF08959F
:10084000F89420916F00253B60F0245020936F00B6
:100850000000000000000000000000000000000098
:10086000F2CF0895E89401C06894FC01DB01842F65
:100870004A95640F711DB8F07C7FA9F4BFBBAEBB75
:10088000E09A11963DB316F031930AC00190031619
:1008900039F0D6DF0DBAE29AE19AE199FECF789469
:1008A000815061F7089581E008950E94F4FFDC0112
:1008B000FB0151E05BBF07900D924A95E1F7882755
:1008C00008959C9169276D9395F060E8C5919C2FE0
:1008D000CF70788194FD729596FF771F96FF771FF2
:1008E00095FF771F771F679588F7815052F7089516
:1008F00090FF00D001FC0CC043FA111C10F877FAED
:10090000221C331C441C551C661C771C44F808959B
:1009100044FA779477F810FA679457944794379489
:100920002794179443F808952F923F924F925F9225
:100930006F927F928F929F92AF92BF92CF92DF92EF
:10094000EF92FF920F931F93CF93DF93042EFB013F
:10095000DC014F3009F47096AF93BF93DD27CCE0F4
:100960008A2F18961E90111C441F111C551F1C9293
:10097000A817C1F75C834993C03199F7B8E091910A
:10098000C1E08881991F87958993C830D1F7BA95BE
:10099000B1F7EF93FF93312413243124429401FCE7
:1009A000ABDF81E893E0A4DF8F939F931F922F9298
:1009B0003F924F925F926F927F92E6E7FAE086E273
:1009C000A1E083DFEF92FF9243E089E860E27EDFFF
:1009D0007F01642BEEEFFAE0E60FFB1F80FF06C0FD
:1009E000507FC591CF70C52BCD934A955591F70196
:1009F0006AF7A80179013F912F9186016A0183E28C
:100A000064DF7F906F905F904F903F902F901F908A
:100A10009F918F918695979531F6FF91EF9100FC0C
:100A20007097BF91AF9188E0CCE09C8197959C83B3
:100A3000661F988197959993661FC031B1F76D93A2
:100A40008A9591F7189786E0081A08F085CFDF910C
:100A5000CF911F910F91FF90EF90DF90CF90BF90BB
:100A6000AF909F908F907F906F905F904F903F904E
:100A70002F90112408952C1C8C1C3D6D8C6C0D5CEA
:100A80001F1D4D4C6D8C7D7D3C7C2D0C6E0C7C5D5A
:100A90000D8C2F7E8C7F6E5E5F6F6F0E0F3E1E8CF7
:100AA0007F1D7E4F8C2E3F8C0F1E6C4E0E1F6311D0
:100AB00022617352715332144223540302211331C1
:100AC000720134334312256627152476776535067F
:100AD00005475704267564166717555607456A0B70
:100AE000097B7A0A3819493B4A784B3A39686928B0
:100AF0002B1B591A18486B08295A585B792A4D2C18
:100B0000A7EFB2C10D41284A9ED8E41FE31EF67933
:100B100060260FA236FB8BB6F9B3D1685A843A80AF
:100B20001139C95DD2A79333C8627EF475CD55DE05
:100B3000BB5CA0074C906CE52405179B8F7AD1EA2B
:100B4000DD030FBF78FDBD240B7478C295474A477B
:100B500036EF937C4F2217D960D8A415A31EEC560C
:100B600024AC3501876056FD52C1CBAEECBA2030C3
:100B7000C196FE9BBA598983FE3B62681985174965
:100B8000DA404B2E661EB41F49E7D1B5908BC9A23F
:100B90008CDA3CD8FB647E7C372DE2830DB1A0F764
:100BA000BFF5F69011C86AC4239C8D5ACE760F61AA
:100BB0005539533DA2A3950BE85228E6740F62B451
:100BC00013FDB183AFC8DEC2D08A877C0621141919
:100BD0006A434AE5919FA82F8D147DDA78729F6B46
:100BE000495B5CFEF4B60901E537F0973BECE3A600
:100BF000BCA0254057053658226ECB3DCED9BF014B
:100C0000F801E80FF11D8081FB01089540E1888122
:100C1000F6DF89934150D9F76097089540E18881C4
:100C2000EEDF89934150D9F7F7CF89819D81998370
:100C300099859D839D8599878D878B819F859B83D2
:100C40009B859F879F819B878F8310C089819D850E
:100C5000998399859D879D8199878D838B819F81BC
:100C60009B839B859F839F859B878F878A819A859E
:100C70009A838A878E859E819E878E83089524E03D
:100C80009BE118D0BA2F1FD0E1F7C6CF24E09BE13B
:100C900011D0AF938A2F32D0B82F842786272DD03A
:100CA000A827B527B7278B2F28D0BF91B8270BD0FF
:100CB00079F7B2CF488159816A817B81A72FA62716
:100CC000A527A4270895842F852718D08A2784274D
:100CD0008993852F862712D08B2785278993862F86
:100CE00087270CD08A2786278993842F872706D0C9
:100CF0008B27872789932A95089500D0880F08F4B9
:100D000089270895B09740E1819198819827999318
:100D10004A95D1F781CF00D000D0550F511D8527BE
:100D2000089520FB0F931F93CF93DF93EC01FEB741
:100D3000F350FEBFEDB731969F018F01139500244C
:100D400081E09BE18193D801A80FB11D0C92582F2F
:100D5000D5DF85270394B1F7882793E6582FDBDF8B
:100D60008927D901BE5FA80FB11D0C9281938081A4
:100D70008095D901A80FB11D8C91039479F7F901E1
:100D8000242FDB01BF010D9001924A95E1F731E07C
:100D9000022EDB013497818132DF9D9198279327C2
:100DA000948382812CDF9D9198279583838127DF0F
:100DB0009D9198279683808122DF9D919827978324
:100DC00034967CE023FD74E18D9191919827938373
:100DD0007A95D1F725FF0AC040E181914D3008F0A6
:100DE0000EDF9D91982793834A95B9F74BE1330F16
:100DF00008F43427020E19F0402D4F3E60F2F8013E
:100E0000FA95422F469546954B5F342F56F07BDF7F
:100E1000FDDE0BDF315018F032DF75DFF9CF73DF05
:100E20000FC01395432F4D5F70964A95E9F76ADF1F
:100E30000DDFF4DE315018F065DF28DFF9CF62DF17
:100E4000FEB7FD5FFEBFDF91CF911F910F91089517
:100E50002F923F924F925F926F927F928F929F92CA
:100E6000AF92BF92CF92DF92EF92FF920F931F93B8
:100E7000CF93DF93FC01EB0114D0DF91CF911F9151
:100E80000F91FF90EF90DF90CF90BF90AF909F9029
:100E90008F907F906F905F904F903F902F90112494
:100EA0000895288039804A805B806C807D808E80A8
:100EB0009F809927249C6001239CB02CC10CD91ED3
:100EC000269C7001289C8001399C9001599CA001AE
:100ED000799CB001349CD00CE11CF91E459CF00CAF
:100EE000011D191F369CD001259CD00CE11CFA1E57
:100EF000B91F359CE00CF11CB91F569C0B0F101D3F
:100F0000211D391F299CD001279CF00C011D1A1F9F
:100F1000B91F379C000D111DB91F499C2B0F301DA7
:100F2000411D591F679CD001479C100D211D3A1F80
:100F3000B91F579C200D311DB91F789C4B0F501DB8
:100F4000611D791F589CD001389C100D211D3A1F3E
:100F5000B91F489C200D311DB91F699C4B0F501DB6
:100F6000611D791F689CD001469C000D111D291F31
:100F7000391F4A1F5B1F691F791F899C700D8827C5
:100F8000811DBB0CCC1CDD1CEE1CFF1C001F111FA7
:100F9000221F331F441F551F661F771F881F991F6D
:100FA000339CD001229CA02CB10CCA1EDB1E991FC1
:100FB000669C1001559CD001449C9795E01CF11C47
:100FC0000A1F1B1F221D331D991F999C1001889C0D
:100FD000D001779C9695401D511D6A1F7B1F821D75
:100FE000931DA082B182C282D382E482F5820683FD
:100FF0001783288439844A845B846C847D848E843E
:101000009F84002730FB9695879577956795579530
:1010100047953795399C5001599C6001299C700176
:10102000259CD001239C300D411D5A1FB01F249CCC
:10103000400D511DB01F279C6B0F701D811D9E1D03
:10104000F01E289C800D911DF01E369CD001349C12
:10105000500D611D7A1FB01F359C600D711DB01FB2
:10106000269C600D711D8B1F901FAF1CB01E569CDF
:10107000D001459C700D811D9A1FB01F469C800DAC
:10108000911DB01F679CAB0EB01CC11CD01E499CAB
:10109000B00CC11CD01E699CD001489C7001379CCB
:1010A000800D911DAE1CF01E389C900DA11CF01EF1
:1010B000689CBF0CC01CD11CB01F799C7001DA0E5B
:1010C000EB1EF01E589CD001479C900DA11CBA1E2F
:1010D000B01F579CA00CB11CB01F789CCB0ED01C2D
:1010E000E11CF01E899CF00C011D1127330F441FD9
:1010F000551F661F771F881F991FAA1CBB1CCC1C7D
:10110000DD1CEE1CFF1C001F111F30F9339CD001A9
:10111000229C200D311D4A1F5B1F111F559CD001C1
:10112000449C1795601D711D8A1F9B1F111F779C82
:10113000D001669C1795A01CB11CCA1EDB1E111F96
:10114000999CD001889C1695E01CF11C0A1F1B1F5E
:10115000208B318B428B538B648B758B868B978B5B
:10116000A08EB18EC28ED38EE48EF58E068F178F31
:10117000A880B980CA80DB80EC80FD800E811F8151
:101180009927A218B308C408D508E608F708080983
:101190001909AA0BAA26BA26CA26DA26EA26FA26A8
:1011A0000A271A27A195AA0EB91EC91ED91EE91E23
:1011B000F91E091F191FAC9C2001AB9C302C410C5F
:1011C000591EAE9C3001A09E4001B19E9001D19E5F
:1011D000A001F19EB001BC9C500C611C791ECD9CFD
:1011E000700C811C991EBE9CD001AD9C500C611CE2
:1011F0007A1EB91FBD9C600C711CB91FDE9C8B0E42
:10120000901C211D391FA19ED001AF9C700C811C28
:101210009A1EB91FBF9C800C911CB91FC19E2B0F39
:10122000301D411D591FEF9CD001CF9C900C211DFA
:101230003A1FB91FDF9C200D311DB91FF09E4B0FC7
:10124000501D611D791FD09ED001B09E900C211DB4
:101250003A1FB91FC09E200D311DB91FE19E4B0FD3
:10126000501D611D791FE09ED001CE9C800C911C09
:10127000291F391F4A1F5B1F691F791F019F700DAE
:101280008827811D330C441C551C661C771C881C48
:10129000991C221F331F441F551F661F771F881F6D
:1012A000991FBB9CD001AA9C202C310C4A1E5B1EAE
:1012B000991FEE9C5001DD9CD001CC9C9795601C41
:1012C000711C8A1E9B1E2A1D3B1D991F119F5001D8
:1012D000009FD001FF9C9695401D511D6A1F7B1FEA
:1012E0008A1D9B1DA080B180C280D380E480F580E0
:1012F00006811781A218B308C408D508E608F708C4
:1013000008091909A7952088318842885388A20CBA
:10131000B31CC41CD51CA086B186C286D386648843
:10132000758886889788E61CF71C081D191DE486B9
:10133000F58606871787AA1F220A330A440A550A28
:10134000660A770A880A990A00081108A08CB18CED
:10135000C28CD38CE48CF58C068D178DA6952A1C37
:101360003B1C4C1C5D1C6E1C7F1C801E911E992713
:10137000091E191E208A318A428A538A648A758A14
:10138000868A978AA00CB11CC11CD11CE11CF11CDF
:10139000011D111DA08EB18EC28ED38EE48EF58EEE
:1013A000068F178FA888B988CA88DB88EC88FD88E3
:1013B0000E891F89AC9C2001AB9C302C410C591E1E
:1013C000AE9C3001A09E4001B19E9001D19EA00133
:1013D000F19EB001BC9C500C611C791ECD9C700C20
:1013E000811C991EBE9CD001AD9C500C611C7A1EC4
:1013F000B91FBD9C600C711CB91FDE9C8B0E901C2C
:10140000211D391FA19ED001AF9C700C811C9A1E1A
:10141000B91FBF9C800C911CB91FC19E2B0F301DA2
:10142000411D591FEF9CD001CF9C900C211D3A1FEC
:10143000B91FDF9C200D311DB91FF09E4B0F501DB1
:10144000611D791FD09ED001B09E900C211D3A1FC6
:10145000B91FC09E200D311DB91FE19E4B0F501DBD
:10146000611D791FE09ED001CE9C800C911C291F2C
:10147000391F4A1F5B1F691F791F019F700D882745
:10148000811D330C441C551C661C771C881C991C40
:10149000221F331F441F551F661F771F881F991F68
:1014A000BB9CD001AA9C202C310C4A1E5B1E991FAC
:1014B000EE9C5001DD9CD001CC9C9795601C711C6A
:1014C0008A1E9B1E2A1D3B1D991F119F5001009FC4
:1014D000D001FF9C9695401D511D6A1F7B1F8A1DE0
:1014E0009B1D20A231A242A253A264A275A286A291
:1014F00097A2A88CB98CCA8CDB8CEC8CFD8C0E8DE1
:101500001F8D882430FB969587957795679557951D
:1015100047953795B19E1001D19E2001A19E3001C3
:10152000AD9CD001AB9C300D411D5A1FB81DAC9C29
:10153000400D511DB81DAF9C6B0F701D811D961D78
:10154000781CA09E800D911D781CBE9CD001BC9C77
:10155000500D611D7A1FB81DBD9C600D711DB81D19
:10156000AE9C600D711D8B1F981D271C381CDE9CC6
:10157000D001CD9C700D811D9A1FB81DCE9C800D91
:10158000911DB81DEF9C2B0E301C411C581CC19E98
:10159000300C411C581CE19ED001C09E3001BF9C04
:1015A000800D911D261C781CB09E900D211C781C6E
:1015B000E09E370C401C511CB81DF19E30015A0EA4
:1015C0006B1E781CD09ED001CF9C900D211C3A1E22
:1015D000B81DDF9C200C311CB81DF09E4B0E501C1A
:1015E000611C781C019F700C811C9924330F441FCF
:1015F000551F661F771F881F991F221C331C441C10
:10160000551C661C771C881C991C30F9BB9CD001AA
:10161000AA9C200D311D4A1F5B1F991CDD9CD00127
:10162000CC9C9794601D711D8A1F9B1F991CFF9C69
:10163000D001EE9C9794201C311C4A1E5B1E991C05
:10164000119FD001009F9694601C711C8A1E9B1EE6
:1016500020AB31AB42AB53AB64AB75AB86AB97AB56
:1016600020AE31AE42AE53AE64AE75AE86AE97AE2E
:10167000288839884A885B886C887D888E889F880E
:1016800099272A183B084C085D086E087F08800AD5
:10169000910AAA0B2A263A264A265A266A267A262A
:1016A0008A269A26A1952A0E391E491E591E691EA0
:1016B000791E891E991E249C6001239CB02CC10CAC
:1016C000D91E269C7001289C8001399C9001599C50
:1016D000A001799CB001349CD00CE11CF91E459C02
:1016E000F00C011D191F369CD001259CD00CE11C6B
:1016F000FA1EB91F359CE00CF11CB91F569C0B0F4C
:10170000101D211D391F299CD001279CF00C011DA3
:101710001A1FB91F379C000D111DB91F499C2B0FB3
:10172000301D411D591F679CD001479C100D211D84
:101730003A1FB91F579C200D311DB91F789C4B0FC4
:10174000501D611D791F589CD001389C100D211D22
:101750003A1FB91F489C200D311DB91F699C4B0FC2
:10176000501D611D791F689CD001469C000D111D04
:10177000291F391F4A1F5B1F691F791F899C700D24
:101780008827811DBB0CCC1CDD1CEE1CFF1C001F20
:10179000111F221F331F441F551F661F771F881FED
:1017A000991F339CD001229CA02CB10CCA1EDB1EB9
:1017B000991F669C1001559CD001449C9795E01C94
:1017C000F11C0A1F1B1F221D331D991F999C10011C
:1017D000889CD001779C9695401D511D6A1F7B1FE8
:1017E000821D931D20A031A042A053A064A075A02B
:1017F00086A097A01088120C10A21188131C11A2A9
:101800001288141C12A21388151C13A21488161C0B
:1018100014A21588171C15A21688181C16A2178862
:10182000191C17A2AA0B2A183B084C085D086E0861
:101830007F08800A910AA0ACB1ACC2ACD3ACE4ACD6
:10184000F5AC06AD17ADA20AB30AC40AD50AE60A7A
:10185000F70A080B190B0008110820A931A942A9A1
:1018600053A964A975A986A997A9220E331E441EFF
:10187000551E661E771E881E991EA21EB31EC41E0C
:10188000D51EE61EF71E081F191FBB270B1E1B1EA9
:10189000208D318D428D538D648D758D868D978D04
:1018A000A695221E331E441E551E661E771E881ED8
:1018B000991EAB1EBB1ECB1EDB1EEB1EFB1E0B1FA1
:1018C0001B1F0B1E1B1E20A631A642A653A664A6F4
:1018D00075A686A697A6A0AAB1AAC2AAD3AAE4AA68
:1018E000F5AA06AB17ABA0ACB1ACC2ACD3ACE4ACC0
:1018F000F5AC06AD17ADA00CB11CC11CD11CE11C90
:10190000F11C011D111DA0AEB1AEC2AED3AEE4AE4E
:10191000F5AE06AF17AF288039804A805B806C80B7
:101920007D808E809F80A884B984CA84DB84EC8407
:10193000FD840E851F85A8892A1AA9893A0AAA89D1
:101940004A0AAB895A0AAC896A0AAD897A0AAE8911
:101950008A0AAF899A0AA88DAA0AA98DBA0AAA8DFD
:10196000CA0AAB8DDA0AAC8DEA0AAD8DFA0AAE8DE1
:101970000A0BAF8D1A0BAA0B2A263A264A265A269C
:101980006A267A268A269A26AA26BA26CA26DA2617
:10199000EA26FA260A271A27A1952A0E3B1E4B1E75
:1019A0005B1E6B1E7B1E8B1E9B1EAB1EBB1ECB1EAF
:1019B000DB1EEB1EFB1E0B1F1B1F9101A201B301BF
:1019C000C4012A193B094C095D096E097F09800B86
:1019D000910BAA0B2A273A274A275A276A277A27E0
:1019E0008A279A27A1952A0F3B1F4B1F5B1F6B1F4E
:1019F0007B1F8B1F9B1F5F934F933F932F939F934F
:101A00008F937F936F93DF92CF92BF92AF92EF92BB
:101A1000FF929927249C6001239CB02CC10CD91EF5
:101A2000269C7001289CE001399C9001599CA001E2
:101A3000799CB001349CD00CE11CF91E459CF00C43
:101A4000C11DD91F369CD001259CD00CE11CFA1E6B
:101A5000B91F359CE00CF11CB91F569CCB0FD01D53
:101A6000211D391F299CD001279CF00CC11DDA1FB4
:101A7000B91F379CC00DD11DB91F499C2B0F301DBC
:101A8000411D591F679CD001479CD00D211D3A1F55
:101A9000B91F579C200D311DB91F789C4B0F501D4D
:101AA000611D791F589CD001389CD00D211D3A1F13
:101AB000B91F489C200D311DB91F699C4B0F501D4B
:101AC000611D791F689CD001469CC00DD11D291F46
:101AD000391F4A1F5B1F691F791F899C700D88275A
:101AE000811DBB0CCC1CDD1CEE1CFF1CCC1FDD1FA4
:101AF000221F331F441F551F661F771F881F991F02
:101B0000339CD001229CA02CB10CCA1EDB1E991F55
:101B1000669C1001559CD001449C9795E01CF11CDB
:101B2000CA1FDB1F221D331D991F999C1001889C21
:101B3000D001779C9695401D511D6A1F7B1F821D09
:101B4000931D7F906F902F903F904F905F90DF920A
:101B5000CF92BF92AF92DF93CF93FF92EF92CC27B9
:101B600030FB969587957795679557954795379567
:101B7000319E5001519E6001219E7001259CD00133
:101B8000239C300D411D5A1FBC1F249C400D511D2C
:101B9000BC1F279C6B0F701D811D9E1DFC1E209E6F
:101BA000800D911DFC1E369CD001349C500D611D92
:101BB0007A1FBC1F359C600D711DBC1F269C600DDB
:101BC000711D8B1F9C1FAF1CBC1E569CD001459CD9
:101BD000700D811D9A1FBC1F469C800D911DBC1F5E
:101BE000679CAB0EB01CC11CDC1E419EB00CC11C1E
:101BF000DC1E619ED001409E7001379C800D911DBE
:101C0000AE1CFC1E309E900DA11CFC1E609EBF0CE5
:101C1000C01CD11CBC1F719E7001DA0EEB1EFC1E95
:101C2000509ED001479C900DA11CBA1EBC1F579C12
:101C3000A00CB11CBC1F709ECB0ED01CE11CFC1E66
:101C4000019FF00CC11DDD27330F441F551F661F78
:101C5000771F881F991FAA1CBB1CCC1CDD1CEE1C07
:101C6000FF1CCC1FDD1F30F9449C4001339CD00188
:101C7000229C200D311D4A1F5B1F681D791DDD1F31
:101C8000559C4001669CD001779C1001009F20016B
:101C9000119FD695881D991DAA1EBB1EC21CD31C60
:101CA000E41CF51CC01DD11D5F934F933F932F93F0
:101CB0009F938F937F936F93DF92CF92BF92AF9258
:101CC000DF93CF93FF92EF92CDB7DEB7AD8CBE8C92
:101CD000CF8CD8A0E98CFA8C0B8D1C8D9924AC9CF0
:101CE000A001AB9C302D410D591DAE9CB001A09EB2
:101CF000C001B19E1001D19E2001F19E3001BC9C1B
:101D0000500D611D791DCD9C700D811D991DBE9CCE
:101D1000D001AD9C500D611D7A1FB91DBD9C600D99
:101D2000711DB91DDE9C8B0F901D211C391CA19EBD
:101D3000D001AF9C700D811D9A1FB91DBF9C800DF5
:101D4000911DB91DC19E2B0E301C411C591CEF9CCE
:101D5000D001CF9C900D211C3A1EB91DDF9C200C98
:101D6000311CB91DF09E4B0E501C611C791CD09E7D
:101D7000D001B09E900D211C3A1EB91DC09E200CB2
:101D8000311CB91DE19E4B0E501C611C791CE09E5C
:101D9000D001CE9C800D911D291C391C4A1E5B1E52
:101DA000691C791C019F700C8824811C330F441F0F
:101DB000551F661F771F881F991F221C331C441C48
:101DC000551C661C771C881C991CBB9CD001AA9CC6
:101DD000202D310D4A1F5B1F991CEE9C5001DD9C8C
:101DE000D001CC9C9794601D711D8A1F9B1F2A1CDB
:101DF0003B1C991C119F5001009FD001FF9C9694A1
:101E0000401C511C6A1E7B1E8A1C9B1CAD88BE8810
:101E1000CF88D88CE988FA880B891C89A21AB30A62
:101E2000C40AD50AE60AF70A080B190B2D813E8170
:101E30004F81588569817A818B819C812209330980
:101E400044095509660977098809990900081108A4
:101E50002D843E844F84588869847A848B849C8442
:101E6000A20CB31CC41CD51CE61CF71C081D191DB4
:101E7000221D331D441D551D661D771D881D991D8E
:101E8000BB270B1E1B1E2D803E804F80588469800F
:101E90007A808B809C80200C311C411C511C611C61
:101EA000711C811C911C2D823E824F825886698252
:101EB0007A828B829C822D883E884F88588C6988D4
:101EC0007A888B889C8800800218118013082280F1
:101ED00024083380350844804608558057086680BA
:101EE00068087780790880848A0891849B08A28496
:101EF000AC08B384BD08C484CE08D584DF08E6846A
:101F0000E00AF784F10ABB1FA0A1A00DA08BA1A13C
:101F1000A11DA18BA2A1A21DA28BA3A1A31DA38B76
:101F2000A4A1A41DA48BA5A1A51DA58BA6A1A61D3A
:101F3000A68BA7A1A71DA78BA0A5A81DA08FA1A5B3
:101F4000A91DA18FA2A5AA1DA28FA3A5AB1DA38F1A
:101F5000A4A5AC1DA48FA5A5AD1DA58FA6A5AE1DDE
:101F6000A68FA7A5AF1DA78FAFB7AD80BE80CF80CE
:101F7000D884E980FA800B811C81A096F894CDBFAB
:101F80007894DEBFB69500A8020A11A8130A22A809
:101F9000240A33A8350A44A8460A55A8570A66A851
:101FA000680A77A8790A80AC8A0891AC9B08A2AC31
:101FB000AC08B3ACBD08C4ACCE08D5ACDF08E6AC09
:101FC000E00AF7ACF10ACC0BDD0BA695A0A1A01D91
:101FD000A0A3A1A1A11DA1A3A2A1A21DA2A3A3A1EF
:101FE000A31DA3A3A4A1A41DA4A3A5A1A51DA5A34E
:101FF000A6A1A61DA6A3A7A1A71DA7A3A0A5A81D2E
:10200000A0A7A1A5A91DA1A7A2A5AA1DA2A7A3A596
:10201000AB1DA3A7A4A5AC1DA4A7A5A5AD1DA5A7F1
:10202000A6A5AE1DA6A7A7A5AF1DA7A7CB1FDB1F03
:1020300000A811A822A833A844A855A866A877A884
:1020400080AC91ACA2ACB3ACC4ACD5ACE6ACF7AC54
:102050000C0E1D1E2D1E3D1E4D1E5D1E6D1E7D1E79
:102060008D1E9D1EAD1EBD1ECD1EDD1EED1EFD1E58
:1020700000AA11AA22AA33AA44AA55AA66AA77AA34
:1020800080AE91AEA2AEB3AEC4AED5AEE6AEF7AE04
:1020900008952F923F924F925F926F927F928F920C
:1020A0009F92AF92BF92CF92DF92EF92FF920F93E7
:1020B0001F93CF93DF93FC0114D0DF91CF911F9139
:1020C0000F91FF90EF90DF90CF90BF90AF909F90D7
:1020D0008F907F906F905F904F903F902F90112442
:1020E0000895CDB7DEB7C454D040F894CDBF7894EE
:1020F000DEBF69837A83EB83FC83EB0194E0881B6A
:102100000990199029903990499059906990799047
:10211000888C998CAA8CBB8CCC8CDD8CEE8CFF8C43
:1021200080019101A201B301080819082A083B089F
:102130004C085D086E087F0801921192219231923D
:1021400041925192619271928795800A910AA20AF6
:10215000B30AC40AD50AE60AF70A808E918EA28EC7
:10216000B38EC48ED58EE68EF78E881F9A9541F673
:1021700080FB95F9E91BF040EF01EDB7FEB735960E
:102180000E945107CDB7DEB7EB81FC81A981BA81EE
:10219000ED010E945107CDB7DEB7EB81FC81E05C19
:1021A000FF4FA981BA819096ED010E945107EDB7CA
:1021B000FEB7DF011596C381D481FE01E05CFF4FBD
:1021C00088A099A0AAA0BBA0CCA0DDA0EEA0FFA0F3
:1021D0000080118022803380448055806680778023
:1021E000800C911CA21CB31CC41CD51CE61CF71C43
:1021F000991F088019802A803B804C805D806E800A
:102200007F80080C191C2A1C3B1C4C1C5D1C6E1C7E
:102210007F1C991F8D91081A08A28D91180A19A286
:102220008D91280A2AA28D91380A3BA28D91480AE5
:102230004CA28D91580A5DA28D91680A6EA28D9173
:10224000780A7FA29795979508A519A52AA53BA579
:102250004CA55DA56EA57FA50084118422843384DE
:102260004484558466847784001D111D221D331D0E
:10227000441D551D661D771D991F088419842A84E5
:102280003B844C845D846E847F84001E111E221E5C
:10229000331E441E551E661E771E991F8D91080A17
:1022A00008A68D91180A19A68D91280A2AA68D9143
:1022B000380A3BA68D91480A4CA68D91580A5DA616
:1022C0008D91680A6EA68D91780A7FA6979597954D
:1022D00008A819A82AA83BA84CA85DA86EA87FA8A2
:1022E0008089081E008A8189181E118A8289281E09
:1022F000228A8389381E338A8489481E448A8589C4
:10230000581E558A8689681E668A8789781E778A4C
:10231000991F8889081E8989181E8A89281E8B8919
:10232000381E8C89481E8D89581E8E89681E8F899B
:10233000781E991F8D91080A08AA8D91180A19AA6A
:102340008D91280A2AAA8D91380A3BAA8D91480AB4
:102350004CAA8D91580A5DAA8D91680A6EAA8D913A
:10236000780A7FAA9795979508AC19AC2AAC3BAC34
:102370004CAC5DAC6EAC7FAC808D081E008E818D48
:10238000181E118E828D281E228E838D381E338E4C
:10239000848D481E448E858D581E558E868D681EF0
:1023A000668E878D781E778E991F888D081E898D81
:1023B000181E8A8D281E8B8D381E8C8D481E8D8D83
:1023C000581E8E8D681E8F8D781E991F8D91080A5C
:1023D00008AE8D91180A19AE8D91280A2AAE8D91FA
:1023E000380A3BAE8D91480A4CAE8D91580A5DAECD
:1023F0008D91680A6EAE8D91780A7FAE91FB9795AC
:10240000979580A1881E81A1981E82A1A81E83A1F4
:10241000B81E84A1C81E85A1D81E86A1E81E87A16A
:10242000F81E991F8827881E981EA81EB81EC81E51
:10243000D81EE81EF81E991F8D91880A80828D9102
:10244000980A91828D91A80AA2828D91B80AB382CE
:102450008D91C80AC4828D91D80AD5828D91E80ADF
:10246000E6828D91F80AF7828D91080B8D91180BF9
:102470008D91280B8D91380B8D91480B8D91580BB8
:102480008D91680B8D91780B97958827081F181FE1
:10249000281F381F481F581F681F781F979580A452
:1024A000081D008791A4191D1187A2A42A1D228747
:1024B000B3A43B1D3387C4A44C1D4487D5A45D1D24
:1024C0005587E6A46E1D6687F7A47F1D7787008871
:1024D000118822883388448855886688778800A9BF
:1024E000001E11A9111E22A9221E33A9331E44A9C0
:1024F000441E55A9551E66A9661E77A9771E991F09
:102500008827081E181E281E381E481E581E681EC2
:10251000781E991F8D91080A008A8D91180A118AD8
:102520008D91280A228A8D91380A338A8D91480A22
:10253000448A8D91580A558A8D91680A668A8D91D0
:10254000780A778A008C118C228C338C448C558CC1
:10255000668C778C8D91080A8D91180A8D91280AC6
:102560008D91380A8D91480A8D91580A8D91680A8B
:102570008C91780ACC0B97958827081E181E281E68
:10258000381E481E581E681E781E979580AD081E7E
:10259000008E01AC101C118E12AC211C228E23ACBB
:1025A000321C338E34AC431C448E45AC541C558EC7
:1025B00056AC651C668E67AC761C778E7724DC2F54
:1025C000991F9170C91FD71D90F9C90FD71D70A011
:1025D0007C0E70A271A07D1E71A272A07D1E72A2DF
:1025E00073A07D1E73A274A07D1E74A275A07D1EB3
:1025F00075A276A07D1E76A277A07D1E77A28D1E85
:1026000080A69D1E91A6AD1EA2A6BD1EB3A6CD1E80
:10261000C4A6DD1ED5A6ED1EE6A6FD1EF7A60D1F5F
:1026200000AB1D1F11AB2D1F22AB3D1F33AB4D1F48
:1026300044AB5D1F55AB6D1F66AB7D1F77AB8D1F28
:1026400080AF0D1E01AE1D1E12AE2D1E23AE3D1E0F
:1026500034AE4D1E45AE5D1E56AE6D1E67AEF8948F
:10266000ADBF7894BEBF08952F923F924F925F9274
:102670006F927F928F929F92AF92BF92CF92DF9292
:10268000EF92FF920F931F93CF93DF93ADB7BEB737
:10269000A458B109F894ADBF7894BEBF11966D935C
:1026A0007D938D939D93FC01EB0198E0881B09902D
:1026B000199029903990499059906990799088ACF7
:1026C00099ACAAACBBACCCACDDACEEACFFAC800141
:1026D0009101A201B30108080192190811922A0878
:1026E00021923B0831924C0841925D0851926E084C
:1026F00061927F0871928795800A80AE910A91AEAF
:10270000A20AA2AEB30AB3AEC40AC4AED50AD5AE0D
:10271000E60AE6AEF70AF7AE881F9A9541F680FB07
:1027200096F9E91BF040BF01FD01DBDCCDB7DEB758
:10273000EB81FC8169817A81D4DCCDB7DEB7EB8196
:10274000FC81E058FF4F69817A81605C7F4FC9DC72
:10275000CDB7DEB7EB81FC81DE011596EF01C058E5
:10276000DF4F7E2F705C991B81909190A190B1906A
:10277000C190D190E190F19000AC8881081E11AC1D
:102780008981181E22AC8A81281E33AC8B81381EA9
:1027900044AC8C81481E55AC8D81581E66AC8E8130
:1027A000681E77AC8F81781E09921992299239920E
:1027B0004992599269927992991F081C191C2A1CF6
:1027C0003B1C4C1C5D1C6E1C7F1C991F8D91080AC4
:1027D00000AE8D91180A11AE8D91280A22AE8D910E
:1027E000380A33AE8D91480A44AE8D91580A55AEE1
:1027F0008D91680A66AE8D91780A77AE9795979518
:102800007E13B2CF979597FBE05CFF4F991F78E05E
:1028100000808990081C11809990191C2280A99031
:102820002A1C3380B9903B1C4480C9904C1C5580B5
:10283000D9905D1C6680E9906E1C7780F9907F1CB2
:10284000991F8827081E181E281E381E481E581E4D
:10285000681E781E991F8D91080A01928D91180AA1
:1028600011928D91280A21928D91380A31928D9181
:10287000480A41928D91580A51928D91680A61924D
:102880008D91780A7192979597957A9509F6991F87
:10289000991F000B110B1124882780F9080F111DB7
:1028A00097959170091F111D8081800F8193808100
:1028B000811F81938081811F81938081811F8193FA
:1028C0008081811F81938081811F81938081811FFD
:1028D00081938081811F81938081811F8193808179
:1028E000811F81938081811F81938081811F8193CA
:1028F0008081811F81938081811F81938081811FCD
:1029000081938081811F81938081811F8193808148
:10291000811F81938081811F81938081811F819399
:102920008081811F81938081811F81938081811F9C
:1029300081938081811F81938081811F8193808118
:10294000811F81938081811F81938081811F819369
:102950008081811F81938081811F81938081811F6C
:1029600081938081811F81938081811F81938081E8
:10297000811F81938081811F81938081811F819339
:102980008081811F81938081811F81938081811F3C
:1029900081938081811F81938081811F81938081B8
:1029A000811F81938081811F81938081811F819309
:1029B0008081811F81938081811F81938081811F0C
:1029C00081938081811F81938081811F8193808188
:1029D000811F81938081811F81938081811F8193D9
:1029E0008081811F81938081811F81938081811FDC
:1029F00081938081811F8193811E8192911E91928A
:102A0000A11EA192B11EB192C11EC192D11ED1923E
:102A1000E11EE192F11EF1921197F894ADBF789406
:102A2000BEBFDF91CF911F910F91FF90EF90DF908C
:102A3000CF90BF90AF909F908F907F906F905F905E
:102A40004F903F902F9008952F923F924F925F9218
:102A50006F927F928F929F92AF92BF92CF92DF92AE
:102A6000EF92FF920F931F93CF93DF93FC01EB0143
:102A700013D0DF91CF911F910F91FF90EF90DF90D6
:102A8000CF90BF90AF909F908F907F906F905F900E
:102A90004F903F902F900895CF93DF938880998037
:102AA000AA80BB80CC80DD8099278A9C20018C9CE9
:102AB00030019D9CA001BD9CB001899C302C410C33
:102AC000591E8B9C500C611C791E8D9C700C411DF5
:102AD000591F9C9C70019A9C500C611C7E1CF91E15
:102AE0009B9C600C711CF91EAD9C4F0D501D611D0F
:102AF000791FBC9C7001AB9C700C411D5E1DF91EC2
:102B0000AC9C400D511DF91ECD9C6F0D701D88278A
:102B1000811D330C441C551C661C771C441F551F1B
:102B2000661F771F881F991FBB9C9001AA9C80017C
:102B3000999C7001889C202C310C4E1C5F1C601EDF
:102B4000711E421F531F991FDD9C7001CC9C9695EE
:102B5000601D711D8E1D9F1D208231824282538215
:102B600064827582EE80FF80088519852A853B8501
:102B7000BB2750FB97958795779567955795E19E6D
:102B80002001EF9C500D611D741D851D9B1FE09E53
:102B9000600D711D8B1F9B1FF09E700D811D9B1F73
:102BA000F39E3001E29E800D911D6B1E7B1EF19EF7
:102BB000800D911D6B1E7B1EF29E900D611C7B1E75
:102BC000139F1001129F2001019F900D611C741C26
:102BD0005B1E029F600C711C5B1E239F250C301C2A
:102BE0004424411C5524039FD001E39E900D611C99
:102BF0007A1E2B1E351C451C550F661F771F881F1C
:102C0000991F661C771C221C331C441C551C50F950
:102C1000009FE001FF9CD001EE9C400D511D6A1FFA
:102C20007B1F8C1F9D1F551C339FE001229FD001ED
:102C3000119F5694601C711C2A1E3B1E4C1E5D1E6B
:102C4000BB27E818F9080A091B092C093D090008E7
:102C5000E024F02400251025202530250194E00CE7
:102C6000FB1E0B1F1B1F2B1F3B1F7F926F926624A7
:102C7000E09ED001E29EE001F39E4001139F5001CF
:102C8000EF9C702CA10DB61DE19EB00DC11DD61D8F
:102C9000E39ED00D811C961CF29E6001F09EB00D4B
:102CA000C11DDC1DD61CF19EC00DD11DD61C039F7D
:102CB0008D0C901CA11CB61C129F6001019FD00DB1
:102CC000811C9C1CD61C029F800C911CD61C239F2F
:102CD000AD0CB01CCC24C11CDD24770CAA1FBB1F7B
:102CE000CC1FDD1F881C991CAA1CBB1CCC1CDD1C26
:102CF000EE9C602C710CDD1CFF9CD794A01DB11DB7
:102D0000DD1C009FD794C01DD11DDD1C119FD794E1
:102D1000801C911CDD1C229FD794A01CB11CDD1CC3
:102D2000339FD694C01CD11C0F901F90E080F1807F
:102D30000281138124813581E618F7080A0B1B0BE9
:102D40002C0B3D0BA795E40EF51E061F171F281F21
:102D5000391F401D511D621D731D841D951DAA1F25
:102D6000480959096A097B098C099D096608770891
:102D7000A795061C171C271C371C471C571CE682EE
:102D8000F7820087118722873387448755876687B4
:102D90007787808B918B028A138A248A358A468AA8
:102DA000578ACDB7DEB799808A80E4018C849D84F0
:102DB000AE84BF84C888D98899278A9C10018C9CCE
:102DC00020019D9CA001BD9CB001899C702C210C10
:102DD000391E8B9C300C411C591E8D9C500C411D82
:102DE000591F9C9C70019A9C300C411C5E1CF91E62
:102DF0009B9C400C511CF91EAD9C4F0D501D611D3C
:102E0000791FBC9C7001AB9C500C411D5E1DF91ECE
:102E1000AC9C400D511DF91ECD9C6F0D701D882777
:102E2000811D770C221C331C441C551C441F551F4C
:102E3000661F771F881F991FBB9C9001AA9C800169
:102E4000999C7001889C602C710C2E1C3F1C401EAC
:102E5000511E421F531F991FDD9C7001CC9C9695FB
:102E6000601D711D8E1D9F1D608E718E228E338E92
:102E7000448E558EEA88FB880C891D892E893F89EE
:102E8000BB2750FB97958795779567955795E19E5A
:102E90002001EF9C500D611D741D851D9B1FE09E40
:102EA000600D711D8B1F9B1FF09E700D811D9B1F60
:102EB000F39E3001E29E800D911D6B1E7B1EF19EE4
:102EC000800D911D6B1E7B1EF29E900D611C7B1E62
:102ED000139F1001129F2001019F900D611C741C13
:102EE0005B1E029F600C711C5B1E239F250C301C17
:102EF0004424411C5524039FD001E39E900D611C86
:102F00007A1E2B1E351C451C550F661F771F881F08
:102F1000991F661C771C221C331C441C551C50F93D
:102F2000009FE001FF9CD001EE9C400D511D6A1FE7
:102F30007B1F8C1F9D1F551C339FE001229FD001DA
:102F4000119F5694601C711C2A1E3B1E4C1E5D1E58
:102F5000BB27E818F9080A091B092C093D090008D4
:102F6000E024F02400251025202530250194E00CD4
:102F7000FB1E0B1F1B1F2B1F3B1F7F926F92662494
:102F8000E09ED001E29EE001F39E4001139F5001BC
:102F9000EF9C702CA10DB61DE19EB00DC11DD61D7C
:102FA000E39ED00D811C961CF29E6001F09EB00D38
:102FB000C11DDC1DD61CF19EC00DD11DD61C039F6A
:102FC0008D0C901CA11CB61C129F6001019FD00D9E
:102FD000811C9C1CD61C029F800C911CD61C239F1C
:102FE000AD0CB01CCC24C11CDD24770CAA1FBB1F68
:102FF000CC1FDD1F881C991CAA1CBB1CCC1CDD1C13
:10300000EE9C602C710CDD1CFF9CD794A01DB11DA3
:10301000DD1C009FD794C01DD11DDD1C119FD794CE
:10302000801C911CDD1C229FD794A01CB11CDD1CB0
:10303000339FD694C01CD11C0F901F90E08CF18C54
:10304000028D138D248D358DE618F7080A0B1B0BA6
:103050002C0B3D0BA795E40EF51E061F171F281F0E
:10306000391F401D511D621D731D841D951DAA1F12
:10307000480959096A097B098C099D09660877087E
:10308000A795061C171C271C371C471C571C44A35C
:1030900055A366A377A380A791A702A613A624A68B
:1030A00035A646A657A6DF91CF91608C718C828C95
:1030B000938CA48CB58CC4846C0CC5847C1CC68495
:1030C0008C1CC7849C1CC088AC1CC188BC1CC288DA
:1030D000EC1CC388FC1CC4880C1DC5881C1DC6883C
:1030E0002C1DC7883C1DCC24DD24DC1C4D0D5C1D33
:1030F0006C1D7C1D8C1D9C1D0C1C1C1C2C1C3C1C4C
:103100004C1C5C1CC080C60CC486C180C71CC58614
:10311000C280C81CC686C380C91CC786C480CA1C9E
:10312000C08AC580CB1CC18AC680CE1CC28AC7801B
:10313000CF1CC38AC084C01EC48AC184C11EC58A74
:10314000C284C21EC68AC384C31EC78A461D571DB9
:10315000681D791D8A1D9B1D0E1C1F1C201E311E03
:10316000421E531E408F518F628F738F848F958FB5
:10317000068E178E20A231A242A253A2CC24DC1CC0
:10318000DF92288039804A805B806C807D80EE8071
:10319000FF80088519852A853B858C849D84AE84B3
:1031A000BF84C888D9884A895B896C897D898E8962
:1031B0009F89281839084A085B086C087D08E40ACA
:1031C000F50A060B170B280B390B000820243024B6
:1031D0004024502460247024E024F024002510258D
:1031E0002025302501949927200C391E491E591E8F
:1031F000691E791EE91EF91E091F191F291F391F93
:10320000EF93FF938824249C5001269C6001379CF7
:10321000A001579CB001239C902CA10CB81C259CAC
:10322000B00CC11CD81C279CD00C411D581D369CCD
:10323000C001349CB00CC11CD81E981D359CC00C1C
:10324000D11C981D479C490F501D611D781D569C2F
:10325000C001459CD00C411D581F981D469C400D37
:10326000511D981D679C690F701D8827811D992726
:10327000990CAA1CBB1CCC1CDD1C441F551F661FCF
:10328000771F881F991F229C802C910C991F339CBB
:103290009795A01CB11C991F449C9795C01CD11CEC
:1032A000991F559C9795401D511D991F669C979598
:1032B000601D711D991F779C9695801D911D8F92A1
:1032C0009F92AF92BF92CF92DF92FF2750FB9795CC
:1032D0008795779567955795E19E6001EF9C500D16
:1032E000611D7C1D8D1D9F1FE09E600D711D8F1F38
:1032F0009F1FF09E700D811D9F1FF39E4001E29E57
:10330000800D911D8F1E9F1EF19E800D911D8F1EA1
:103310009F1EF29E900D811C9F1E139F5001129FB5
:103320006001019F900D811C9C1CDF1E029F800C80
:10333000911CDF1E239FAD0CB01CCC24C11CDD24CE
:10334000039FF001E39E900D811C9E1EAF1EBD1CCD
:10335000CD1C550F661F771F881F991F881C991C4D
:10336000AA1CBB1CCC1CDD1C50F9009FE001FF9C7B
:10337000F001EE9C400D511D6E1F7F1F8C1F9D1F85
:10338000DD1C339FE001229FF001119FD694801C29
:10339000911CAE1EBF1ECC1EDD1EFF27E218F308D7
:1033A00004091509260937090008E024F02400253E
:1033B0001025202530250194E00CFF1E0F1F1F1F34
:1033C0002F1F3F1F26011501F4016624E09ED00146
:1033D000E29EE001F39E6001139F4001EF9C702C80
:1033E000A10DB61DE19EB00DC11DD61DE39ED00DF1
:1033F000C11CD61CF29E5001F09EB00DC11DDA1DFD
:10340000B61CF19EC00DD11DB61C039FCB0CD01C69
:10341000811C961C129F5001019FD00DC11CDA1C0B
:10342000B61C029FC00CD11CB61C239F8B0C901C99
:10343000AA24A11CBB24770CAA1FBB1FCC1FDD1F15
:10344000CC1CDD1C881C991CAA1CBB1CEE9C602C8F
:10345000710CBB1CFF9CB794A01DB11DBB1C009F31
:10346000B794C01DD11DBB1C119FB794C01CD11CAB
:10347000BB1C229FB794801C911CBB1C339FB6942D
:10348000A01CB11C0F01EDB7FEB7E680F5800481EA
:1034900013813F912F91F901E618F7080A0B1B0BD6
:1034A0002C0B3D0BA795E40EF51E061F171F281FBA
:1034B000391F401D511D621D731D841D951DAA1FBE
:1034C0004C095D09680979098A099B09660877082A
:1034D000A795061C171C271C371C471C571C6F017F
:1034E000BF90AF909F908F90FF91EF916484681888
:1034F000648665846908658666846A08668667846A
:103500006B08678660886C08608A61886D08618ACC
:1035100062886E08628A63886F08638A6488600ABA
:10352000648A6588610A658A6688620A668A67882D
:10353000630A678A608C640A608E618C650A618E9A
:10354000628C660A628E638C670A638E648C680A7A
:10355000648E658C690A658E668C6008668E678CE1
:103560006108678E60A0620860A261A0630861A222
:1035700062A0640862A263A0650863A26608770877
:10358000AF9111246A0E711CC4A0C60CC4A2C5A0C0
:10359000C71CC5A2C6A0C71CC6A2C7A0C71CC7A27D
:1035A000C0A4C71CC0A6C1A4C71CC1A6C2A4C71C76
:1035B000C2A6C3A4C71CC3A6C4A4C71CC4A6C5A4D2
:1035C000C71CC5A6C6A4C71CC6A6C7A4C71CC7A639
:1035D00008952F923F924F925F926F927F928F92B7
:1035E0009F92AF92BF92CF92DF92EF92FF920F9392
:1035F0001F93CF93DF93FC0114D0DF91CF911F91E4
:103600000F91FF90EF90DF90CF90BF90AF909F9081
:103610008F907F906F905F904F903F902F901124EC
:103620000895CDB7DEB7E497F894CDBF7894DEBFA8
:1036300069837A83EB83FC83EB0193E0881B099019
:10364000199029903990499059906990799088887B
:103650009988AA88BB88CC88DD88EE88FF8880019D
:103660009101A201B301080819082A083B084C0877
:103670005D086E087F080192119221923192419269
:103680005192619271928795800A910AA20AB30AB7
:10369000C40AD50AE60AF70A808A918AA28AB38AFE
:1036A000C48AD58AE68AF78A881F9A9541F680FBF4
:1036B00094F993F9E91BF040EF01EDB7FEB73596A9
:1036C000EBD9CDB7DEB7EB81FC81A981BA81ED01E1
:1036D000E3D9CDB7DEB7EB81FC81E05DFF4FA98177
:1036E000BA815896ED01D8D9CDB7DEB7EB81FC8110
:1036F000DE011596EF01C05DDF4F608C718C828C0E
:10370000938CA48CB58C088019802A803B804C80D7
:103710005D80600C711C821C931CA41CB51C991F3D
:10372000008011802280338044805580060C171C55
:10373000281C391C4A1C5B1C991F8D91081A008E8D
:103740008D91180A118E8D91280A228E8D91380A3A
:10375000338E8D91480A448E8D91580A558E9795D7
:103760009795C68CD78CE0A0F1A002A113A10E8082
:10377000C01C1F80D11C2884E21C3984F31C4A849D
:10378000041D5B84151D991F0680178020843184D9
:10379000428453840C1C1D1C2E1C3F1C401E511EB9
:1037A000991F8D91080A068E8D91180A178E8D919A
:1037B000280A20A28D91380A31A28D91480A42A28E
:1037C0008D91580A53A29795979524A135A146A1AA
:1037D00057A160A571A50C84201D1D84311D2E8468
:1037E000421D3F84531D4888641D5988751D991FCB
:1037F000048415842684378440885188021E131E51
:10380000241E351E461E571E991F8D91080A04A2BC
:103810008D91180A15A28D91280A26A28D91380A39
:1038200037A28D91480A40A68D91580A51A69795C6
:10383000979502A413A424A435A446A457A48A8966
:10384000081E0A8A8B89181E1B8A8C89281E2C8ABE
:103850008D89381E3D8A8E89481E4E8A8F89581E52
:103860005F8A991F8289081E8389181E8489281EF1
:103870008589381E8689481E8789581E991F8D9113
:10388000080A02A68D91180A13A68D91280A24A66B
:103890008D91380A35A68D91480A46A68D91580A11
:1038A00057A691FB8D91680A8D91780A8D91880AAF
:1038B0008D91980A8D91A80A8D91B80A8D91C80AA8
:1038C0008D91D80A8D91E80A8D91F80A8D91080B97
:1038D0008D91180B8D91280B8D91380B8D91480B84
:1038E0008D91580B8D91680B8D91780B979588274A
:1038F000681E781E881E981EA81EB81EC81ED81ED8
:10390000E81EF81E081F181F281F381F481F581FC1
:10391000681F781F9795888D681E6882698C761C51
:1039200079827A8C871C8A828B8C981C9B829C8CD7
:10393000A91CAC82AD8CBA1CBD82BE8CCB1CCE82C5
:10394000CF8CDC1CDF82D8A0ED1CE886E9A0FE1C31
:10395000F986FAA00F1D0A870BA1101F1B871CA157
:10396000211F2C872DA1321F3D873EA1431F4E876B
:103970004FA1541F5F8758A5651F688B69A5761FE7
:10398000798B991F991F0A881B882C883D884E883F
:103990005F887D91070A7D91170A7D91270A7D91A5
:1039A000370A7D91470A7D91570AAA0BBB0B979561
:1039B0007727071E171E271E371E471E571E97956F
:1039C0007AA5071E0A8A0BA4101C1B8A1CA4211CA2
:1039D0002C8A2DA4321C3D8A3EA4431C4E8A4FA43F
:1039E000541C5F8A5524991F9170A91FB51D90F929
:1039F000A90FB51D8A0F888F6B1E698E7B1E7A8E6C
:103A00008B1E8B8E9B1E9C8EAB1EAD8EBB1EBE8EE8
:103A1000CB1ECF8EDB1ED8A2EB1EE9A2FB1EFAA2A4
:103A20000B1F0BA31B1F1CA32B1F2DA33B1F3EA370
:103A30004B1F4FA35B1F58A76B1F69A77B1F0B1E54
:103A40001B1E2B1E3B1E4B1E7AA70BA61CA62DA6CB
:103A50003EA64FA6CDB7DEB7CC5CDF4FF894CDBF06
:103A60007894DEBF08952F923F924F925F926F92AB
:103A70007F928F929F92AF92BF92CF92DF92EF92FE
:103A8000FF920F931F93CF93DF93CDB7DEB7C4564A
:103A9000D040F894CDBF7894DEBF69837A838B835E
:103AA0009C83EB01FC0196E0881B099019902990FA
:103AB0003990499059906990799088A499A4AAA4C2
:103AC000BBA4CCA4DDA4EEA4FFA480019101A201BB
:103AD000B301080819082A083B084C085D086E085D
:103AE0007F080192119221923192419251926192FA
:103AF00071928795800A910AA20AB30AC40AD50A6C
:103B0000E60AF70A80A691A6A2A6B3A6C4A6D5A6E1
:103B1000E6A6F7A6881F9A9541F680FB94F995F9D9
:103B2000E91BF040BF01EDB7FEB735967ADDCDB7A2
:103B3000DEB7EB81FC8169817A8173DDCDB7DEB7B9
:103B4000EB81FC81E05AFF4F69817A81605D7F4F94
:103B500068DDCDB7DEB7EB81FC81DE011596EF01A4
:103B6000C05ADF4F7E2F705D991B00A88881081E08
:103B700011A88981181E22A88A81281E33A88B814A
:103B8000381E44A88C81481E55A88D81581E66A8F1
:103B90008E81681E77A88F81781E099219922992CA
:103BA00039924992599269927992991F8191081E8E
:103BB0008191181E8191281E8191381E8191481E85
:103BC0008191581E8191681E8191781E991F8D9157
:103BD000080A00A68D91180A11A68D91280A22A61E
:103BE0008D91380A33A68D91480A44A68D91580AC2
:103BF00055A68D91680A66A68D91780A77A6979545
:103C000097957E13B2CF979597FBF096991F76E024
:103C100000808990081C11809990191C2280A9901D
:103C20002A1C3380B9903B1C4480C9904C1C5580A1
:103C3000D9905D1C6680E9906E1C7780F9907F1C9E
:103C4000991F8827081E181E281E381E481E581E39
:103C5000681E781E991F8D91080A01928D91180A8D
:103C600011928D91280A21928D91380A31928D916D
:103C7000480A41928D91580A51928D91680A619239
:103C80008D91780A7192979597957A9509F6991F73
:103C9000991F440B550B1124882780F9480F511D9B
:103CA00097959170491F511D8081840F8193808168
:103CB000851F81938081851F81938081851F8193DA
:103CC0008081851F81938081851F81938081851FDD
:103CD00081938081851F81938081851F819380815D
:103CE000851F81938081851F81938081851F8193AA
:103CF0008081851F81938081851F81938081851FAD
:103D000081938081851F81938081851F819380812C
:103D1000851F81938081851F81938081851F819379
:103D20008081851F81938081851F81938081851F7C
:103D300081938081851F81938081851F81938081FC
:103D4000851F81938081851F81938081851F819349
:103D50008081851F81938081851F81938081851F4C
:103D600081938081851F81938081851F81938081CC
:103D7000851F81938081851F81938081851F819319
:103D80008081851F81938081851F81938081851F1C
:103D900081938081851F8193851E8192951E9192CA
:103DA000A51EA192B51EB192C51EC192D51ED1927B
:103DB000E51EE192F51EF1921197F894ADBF78944B
:103DC000BEBFDF91CF911F910F91FF90EF90DF90D9
:103DD000CF90BF90AF909F908F907F906F905F90AB
:103DE0004F903F902F900895CF93DF9300D0CDB7A1
:103DF000DEB7982F92959F70906699831A82803BC8
:103E000009F148F4803191F08037E1F0811111C05F
:103E100080E9898317C0803DA9F018F4803C31F017
:103E200008C0803E79F0803F21F40CC080910002F0
:103E300008C0982F907F8F70903311F4806C01C070
:103E400080688A830E94FA0362E0CE0101960E9494
:103E5000EE020F900F90DF91CF910895662319F035
:103E6000803109F480E0C0CF909106028091050274
:103E7000892B11F086EA08C080910702882311F08F
:103E800080E702C00E947C34AFCF61E001960C94C1
:103E9000EE02CF93FC01C4816C2F05960E940F03A4
:103EA00091E0C81301C090E0892FCF910895EF925F
:103EB000FF920F931F93CF93DF931F92CDB7DEB77F
:103EC0006FEF83E092E00E940F03882309F479C228
:103ED00080930202853010F480EF86DF8091030228
:103EE000803809F43BC2803A09F42CC2811154C2D3
:103EF00080910402803C09F496C1909101029130B6
:103F000011F410920102863409F4B7C008F5843226
:103F100009F46FC050F4803209F44EC0823209F4C3
:103F200062C08E3009F036C232C08C3209F476C0DD
:103F300020F48A3209F419C22DC28E3209F484C0E9
:103F4000843409F027C283E092E00E946D2B25C2E1
:103F50008A3C09F4B0C178F4863809F4AEC020F484
:103F6000843809F491C016C2843A09F4ACC0803B8D
:103F700009F443C10FC28A3D09F4C3C120F4863D50
:103F800009F4A0C107C2803E09F0DEC1C1C1809121
:103F90000502813810F086EA00C290910702992349
:103FA00011F080E7FAC190E0982F8827209106024F
:103FB000822B0E944834F1C1809105028111EBCF20
:103FC00080910702882351F083E092E05EDF83E076
:103FD00092E05FDF882311F084E9DFC186E092E0A0
:103FE0000E944F30DAC160E071E083E092E0D9D501
:103FF000D4C1809105028111CECF80910702882320
:1040000081F283E092E041DF83E092E042DF8111C0
:10401000E3CF86E092E00E944B30BFC18091050261
:104020008111B9CF80910702882309F4BACF83E0C8
:1040300092E02BDF83E092E02CDF8111CDCF86E090
:1040400092E00E944D30A9C1909106028091070232
:104050008111A7CF80910502811105C09F3008F022
:104060009ACF892F07C0803A19F0803B09F093CF8F
:10407000911191CF0E94232F1CC160E071E083E079
:1040800092E00E94112989C180910502811183CF9C
:104090008091060281117FCF10910702111102C099
:1040A00080EFA2DE612F80E091E00E9449481093EA
:1040B000000281E080930102FAC060E071E083E0D9
:1040C00092E000D66AC1809106028C3021F0811105
:1040D00062CFF12C02C0FF24F3949091070291115A
:1040E00013C090910502911107C081115ACF80E051
:1040F00091E00E94273278C0933009F052CF80E0DF
:1041000091E00E94EA3170C083E092E0BEDE83E07D
:1041100092E0BFDE811160CF90910502292F2E7FA2
:10412000809107022830D1F4823010F487EA5CDEF7
:104130008091070280FF02C087EA56DE8091050267
:1041400060E071E080FF05C087E092E00E94573296
:104150004BC087E092E00E946B3246C0943061F41D
:104160008150803110F087EA18C160E071E087E08B
:1041700092E00E94FF3138C08230A9F7933008F0F6
:104180000ACF0091080210E0102F00278091090249
:10419000082B911114C080910602811109C00115EC
:1041A0008FE3180729F480E091E00E94273205C0D0
:1041B00060E071E0C8010E942F326F2D4FDE8091C8
:1041C0000502813039F460E071E0C8010E941332C9
:1041D0006F2D44DE80910502823009F0F2C060E06C
:1041E00071E0C8010E9443326F2D0F90DF91CF9193
:1041F0001F910F91FF90EF9031CE80910502813891
:1042000008F0C9CE60910702662309F4CACE70E0B7
:1042100090E0982F88272091060240E051E0822B01
:104220000E949F33BAC0809105028111B4CE809163
:1042300006028111B0CE80910102813011F085E932
:10424000ACC060910702062F10E0E0900002F12C54
:104250000115110509F4A9C0E114F10429F0E016D3
:10426000F10628F480EC99C0E12CFF24F39483E05C
:1042700092E069830ADE698180E091E00E94EE02AB
:10428000E01AF10A29F410920102E12CF12C0BC082
:10429000F801E050FF4FCF01A0E0B1E021912D9354
:1042A000A817B907D9F7E0920002EE2011F080E1DB
:1042B00074C080E072C060E071E083E092E00E9430
:1042C000C1296BC080910502813808F064CE8091CD
:1042D0000702882309F465CE83E092E0D6DD83E00F
:1042E00092E0D7DD811178CE6091050270E0762FE3
:1042F000662780910602682B87E092E00E94F733E0
:104300004CC060E071E083E092E00E94782A45C0F2
:104310008091050281113FCE8091060281113BCE32
:1043200080910702882309F43CCE83E092E0ADDD62
:1043300083E092E0AEDD81114FCE87E092E00E94F3
:10434000F1342BC080910402843E21F50F90DF915F
:10435000CF911F910F91FF90EF9086CD8091040235
:104360008A3219F08A3D39F015C060E071E083E0CF
:1043700092E08AD512C08091050281110CCE809105
:104380000602811108CE80910702811104CE0E949D
:10439000F83203C080EF01C080EE0F90DF91CF9123
:1043A0001F910F91FF90EF901FCDEF2809F05ACF8A
:1043B00083E092E06ADD60E080E091E00E94EE023E
:1043C00062CF0F90DF91CF911F910F91FF90EF90EF
:1043D0000895109201020895FC01EF5FFE4F21E065
:1043E00020833197608380E108959B01369527955E
:1043F000DC01A60FB71FFC01820F931FE817F90716
:1044000029F020813E9131932C93F8CF0895FB0140
:10441000E40FF51F480F591F8417950729F02291C3
:10442000DC012D93CD01F8CF08959C01633231F06A
:10443000623249F4803C910541F02F7781E02115EB
:10444000314021F402C081E0089580E00895CF92C8
:10445000DF92EF92FF920F931F93CF938C017B011A
:10446000C42FC42ED12CB601C701BFDF82E0F801F2
:104470008083C183F701808187FD03C0C801019655
:1044800006C0C8010296CF5FF801C1831282A6015F
:10449000B70101960E94627D82E08C0FCF911F913F
:1044A0000F91FF90EF90DF90CF900895AF92BF9261
:1044B000DF92EF92FF920F931F93CF93DF9300D081
:1044C00000D01F92CDB7DEB75C017B0182EFF50112
:1044D00011928A95E9F7411108C062E0C5018E5337
:1044E0009F4F0E94B3328C0102C0042F10E00E9443
:1044F000A832833299F008311105C9F00032110554
:10450000F9F00033110509F062C033E4D32E55E110
:1045100074E139E148E127E166E11AC024E8D22ECE
:104520005FE17EE133E242E221E260E211C091E428
:10453000D92E57E076E03BE04AE029E068E008C089
:1045400082E4D82E51E070E035E044E023E062E000
:10455000E114F10491F0C70129833D834C835B830F
:104560007A830E94417D2981622FC701C0960E94F3
:10457000417D7A815B814C813D81672FC5013D83FF
:104580004C835B830E94417D5B81652FC501C09692
:104590000E94417D4C81642FC501805A9F4F0E942B
:1045A000417D3D81632FC50180579F4F0E94417D12
:1045B000F501E054FF4FD082B801C5018E539F4FE3
:1045C00014DF802FF501EF53FF4F008301C080E01F
:1045D0000F900F900F900F900F90DF91CF911F9140
:1045E0000F91FF90EF90DF90BF90AF900895DF9212
:1045F000EF92FF920F931F93CF93DF93CDB7DEB768
:10460000C358D1400FB6F894DEBF0FBECDBF282FE0
:104610008B0140E0BE016D507F4FCE010196CD571A
:10462000DE4F2883C358D14041DFD82ECD57DE4F0F
:104630002881C358D140882309F441C0E82EF12CC9
:104640002338C1F048F4213881F0223881F5A701E0
:10465000BE016F597F4F28C0243889F0253839F5BD
:10466000A701BE016F5C7F4F1FC0A701BE016F5F36
:104670007F4F1AC0A701BE016F567F4F15C063EF71
:1046800070E06C0F7D1F605D7F4FA701C8010E9425
:10469000627DA701BE016D507F4FC8018E0D9F1D29
:1046A0000E94627DDD0C03C0C8010E94627D6D2DF9
:1046B00070E0C8019ADE6D2DC8018EDE01C088EA67
:1046C000CD57DE4F0FB6F894DEBF0FBECDBFDF91E2
:1046D000CF911F910F91FF90EF90DF900895BF92BF
:1046E000CF92DF92EF92FF920F931F93CF93DF93BE
:1046F000EC017B016A01B22EBC01C70176DEC03835
:10470000D10558F440E051E04C1B5D0B60E070E0D7
:10471000C7018C0F9D1F0E947C7D63E880E090E0C4
:104720000E94B3328C01000F111FB11006C0C017D8
:10473000D10709F04AC0E80131C021E0B2124DC0F2
:10474000649709F042C0E70164966CE0CE010E94D4
:10475000417D8823D1F16FE070E0CE0146DEC3E2F7
:10476000D0E0CE010B960817190778F1F701EC0F8E
:10477000FD1F108221968FEFC017D10730F4F7018B
:10478000EC0FFD1F80832196F7CFC701800F911F8B
:10479000FC0131971082319721E02083AE015695BC
:1047A0004795B601C7010E94F743882389F080E04E
:1047B00091E0F7019C01119221503040E1F7F601A0
:1047C0009C01119221503040E1F780E090E009C057
:1047D000B801C6010ADEC80104C032E0B312F5CF49
:1047E000C0CFDF91CF911F910F91FF90EF90DF909D
:1047F000CF90BF900895CF92DF92EF92FF920F93E8
:104800001F93CF93DF9300D0CDB7DEB77C018B0130
:104810006A0160EACA012A830E94B33289830E9436
:10482000A8322A814981893139F5403149F488E03B
:10483000F6017096D60101900D928A95E1F706C0B7
:10484000483121F04830B1F540E001C04CE088E04B
:10485000E816F10411F080E72EC021114360B60183
:10486000C8010E94940488E0F801D60101900D92DD
:104870008A95E1F768E012C08932E1F480E1E81638
:10488000F10449F7B601C8010E94910680E1F801E0
:10489000D60101900D928A95E1F760E1C6010F9073
:1048A0000F90DF91CF911F910F91FF90EF90DF90CC
:1048B000CF9092CD81E90F900F90DF91CF911F9112
:1048C0000F91FF90EF90DF90CF9008950F931F937B
:1048D000CF93DF93CDB7DEB7C358D1090FB6F894A5
:1048E000DEBF0FBECDBF8C01CD57DF4F6883C358ED
:1048F000D0400E941E33CD57DF4F6881C358D0404F
:10490000811116C028E0629FC00111240E94AC46AC
:10491000F8019081906299838A83B8016E5F7F4F1E
:10492000CE0103960E94EE7BCE0101960E941E33BB
:10493000CD57DF4F0FB6F894DEBF0FBECDBFDF916E
:10494000CF911F910F9108955F926F927F928F92F6
:104950009F92AF92BF92CF92DF92EF92FF920F930E
:104960001F93CF93DF93CDB7DEB7D2500FB6F89435
:10497000DEBF0FBECDBF8C014B01FC0184818111D4
:1049800008C00E949B327C018F739927892B21F1EB
:104990002BC0C8017ADAC8017CDA811123C0F80182
:1049A00084818730F9F485818033E1F4878181380F
:1049B00011F08230B9F4F8018681853099F4808550
:1049C000833081F48185813069F4828581110AC048
:1049D0008385813039F4D5CFC7019250813096401C
:1049E00028F002C084E9ABC081E9A9C00E94F003AD
:1049F0005801F4E0AF0EB11C9701AE014F5F5F4F5D
:104A0000B401C5010E940246582E682E712C611413
:104A1000710409F493C083ECF80182835382680126
:104A2000F2E0CF0ED11C652DC60150DF811187C089
:104A300024ECC8018E579F4FFC0120833196508291
:104A4000652D44DF81117BC0A301BE016F5F7F4FE5
:104A5000C5010E94627D85ECF8018283C6010E9437
:104A60001E3381116CC0A301BE016F577F4FC5017A
:104A70000E94627D86ECF8018283C6010E941E338B
:104A800081115DC0A301BE016F5F7E4FC5010E9411
:104A9000627D87ECF8018283C6010E941E3381117A
:104AA0004EC0E114F8E0FF06D1F580E8F401D5012D
:104AB00001900D928A95E1F789E8F801828380E8F8
:104AC0008383C6010E941E33811139C080E8F4013E
:104AD000E058FF4FD50101900D928A95E1F788E8E3
:104AE000F8018283C6010E941E33811128C081E82B
:104AF000F801828383E0838381E084831582868347
:104B0000C6010E941E3381111AC0B301660F771FC0
:104B1000C4016BDC652D660FC4015EDC10C093E040
:104B2000F694E7949A95E1F7A701B401C5010E94B4
:104B3000627D80E8F8018283E382D4CF82EADE5F7F
:104B40000FB6F894DEBF0FBECDBFDF91CF911F919E
:104B50000F91FF90EF90DF90CF90BF90AF909F901C
:104B60008F907F906F905F900895EF92FF921F93C8
:104B7000CF93DF937C01162F80E090E00E94B33248
:104B8000EC018138910530F4612FC7010E94B332E6
:104B90008C2F01C080E0DF91CF911F91FF90EF90AB
:104BA0000895CF93DF93EC0110920703892B11F442
:104BB00080E085C08A81833F31F48C81882309F4A9
:104BC0007EC087EA7CC0843A19F491E49A838B838F
:104BD0008A81813419F0813809F06EC08C8181118D
:104BE00005C08B81863B51F481E00EC0CE014DD9CA
:104BF000CE014FD98823A9F384E961C0883B71F4C1
:104C00008A81813849F483E0809307036C8170E0E6
:104C1000A0E040E050E01BC082E0F6CF843A09F00B
:104C20004BC084E0F1CFFE01E40FF51F9581868132
:104C30009038D9F4813009F03FC09781923059F40F
:104C4000A16090930A0390E00296480F591F4617FF
:104C5000570748F32CC0933018F491112DC0F0CFB2
:104C6000943071F3923141F5EBCF913871F4823089
:104C700019F5A260278130E0322F22279085292B59
:104C80003093090320930803DECF2DE7290F22304C
:104C900030F4813089F4978191110EC0D4CF9738C8
:104CA00069F490910703906890930703CCCFA330E9
:104CB00009F47ECF1092070381EA01C080EADF91F8
:104CC000CF9108954F925F926F927F929F92AF9291
:104CD000BF92CF92DF92EF92FF920F931F93CF93E9
:104CE000DF931F92CDB7DEB7FC0182818111B8C07E
:104CF00083818111B5C0809107038F70843009F0E2
:104D00006DC07B012F010E94E53120910803309195
:104D100009038217930709F061C0D20114968C91A0
:104D2000811102C084E99FC08F3608F09BC0C20188
:104D3000ACD8C201AED88111F5CFF201448150E068
:104D4000B2016B5F7F4FC7010E94627DD7018C91DA
:104D50008C3741F787010E5F1F4F11962C91203839
:104D600009F3422F50E0F201848190E00297481746
:104D70005907C1F6223040F1D8013C91F801329632
:104D800011968C91119787FF05C0213859F63196FD
:104D900012968C919EEF920F981720F2353859F4A5
:104DA0008F010F5F1F4F3081343009F0BBCF891363
:104DB000B9CF235009C0303809F0B4CF8F01080FA4
:104DC000111D292F281BD6CF40E060E070E0C20102
:104DD00029836CDB982E2981811102C085E943C0AB
:104DE000C82ED12CC601880F991F30E08217930777
:104DF00009F098CF5701BEE6AB0EB11C3201E1ECD1
:104E00006E0E711CD3014C9150E0B801C501FFDA60
:104E1000F301408150E0B8016C0D7D1DC501C096C5
:104E2000F6DA0E94F003B201C5010E94343F8111FD
:104E3000D5CFA601B501C701EADA692DC7010F90E8
:104E4000DF91CF911F910F91FF90EF90DF90CF9066
:104E5000BF90AF909F907F906F905F904F90BCCA33
:104E600086EA01C080E70F90DF91CF911F910F91EB
:104E7000FF90EF90DF90CF90BF90AF909F907F908A
:104E80006F905F904F9008959F92AF92BF92CF9294
:104E9000DF92EF92FF920F931F93CF93DF931F92B6
:104EA000CDB7DEB75C018B010E94E531209108038C
:104EB000309109038217930709F0A4C1F50182819B
:104EC0008E3909F0AAC083818A3909F099C1F501A8
:104ED0008481882309F490C1C5010E94451FC50142
:104EE0000E94491F882311F024E98DC18091070396
:104EF0008F70813009F086C180910A03843009F0F7
:104F00005DC00E94F0037501F5E3EF0EF11C650131
:104F100045E0C40ED11CF501648170E0C60165DA7C
:104F200040E0B701C801C2DA282F30E02115310571
:104F300009F468C1F501848190E08217930708F4B1
:104F40009C012033310558F440E350E0421B530BE1
:104F500060E070E0C601820F931F0E947C7DA80173
:104F6000B701C6010E94E63F81114CC15801F1EC26
:104F7000AF0EB11CF5014081B7016801F2E0CF0E20
:104F8000D11CC60164DA982EB701605D7F4FF50130
:104F90004081C601890D911D5ADA682F690D80E3A1
:104FA000F801808361836E5F81E0EF5FFE4F808355
:104FB00031976083662309F425C121C0823021F036
:104FC000823121F421E005C022E003C0811116C125
:104FD00020E0F501E480F12CB5016B5F7F4FA70164
:104FE000C50129830E946B7D0E94F0032981A801DD
:104FF000B501C70174DB009709F404C1682FC8012B
:105000000F90DF91CF911F910F91FF90EF90DF9064
:10501000CF90BF90AF909F90DFC9803809F0BBC0A0
:10502000809107038F70823009F0ECC0F501848114
:10503000882309F459CFC5010E94451FC5010E946C
:10504000491F282F811150CFF5018381843819F42D
:10505000C480D12C53C0863809F0D2C0F501E48059
:10506000F12CF1E0EF1AF1086701F501858181115A
:1050700008C0A701B5016A5F7F4FC5010E946B7D23
:105080003DC0813891F4F801F395E082B5016A5F83
:105090007F4FA701C80129830E94627DF801EF5F5D
:1050A000FE4F82E080832981AEC0823809F01CCF98
:1050B000F801EF5FFE4F8081823009F015CF10823A
:1050C0006801D394F601808190E09701280F391F81
:1050D0002130314008F008CFA701B5016A5F7F4F4A
:1050E000800F911F0E94627DF60180816701C80ECA
:1050F000D11CA601B801C5010E94627D60EA80E072
:1051000090E00E94B332892B61F0F50180818038F4
:1051100009F074C0B5016B5F7F4F21E0A801C601A3
:105120005EC00E94F00320E0A801B501C601D7DAF5
:105130007C01892B09F466C080910A03823049F50D
:10514000F801808181115EC08181823009F05AC0EE
:10515000FCE0EF16F10408F455C0A70143505109D3
:10516000C8010296FC010196208121110EC07A012E
:10517000C8010A96E817F90708F444C0BF016F5F39
:105180007F4FC8010E94627D04C04150510951F710
:1051900039C06E2D34CF843899F5809107038F7014
:1051A000833081F5F5018381803809F09DCE8481BB
:1051B000882309F499CEC5010E94451FC5010E94AC
:1051C000491F811191CEF50180818038B9F4B50174
:1051D0006B5F7F4FF501848120E0A80190E00F9084
:1051E000DF91CF911F910F91FF90EF90DF90CF90C3
:1051F000BF90AF909F90FFCA20E705C021EA03C08F
:1052000026EA01C025E9822F0F90DF91CF911F91EF
:105210000F91FF90EF90DF90CF90BF90AF909F9055
:105220000895CF92DF92EF92FF920F931F93CF9347
:10523000DF9300D01F92CDB7DEB7FC012281211190
:1052400093C02381211190C08B017C010E94A83260
:10525000682F813171F4B801C7010F900F900F9042
:10526000DF91CF911F910F91FF90EF90DF90CF9042
:105270006BCBF7018481882311F085E976C01A830E
:1052800009836B830E949B326C016B81CED88111A4
:10529000F4CF0E94F003A60183E0569547958A95C6
:1052A000E1F7B801C70102D9882339F3B701C80172
:1052B0000E94B03F8111E1CF6701F1ECCF0ED11C0C
:1052C000F601608170E0C7018E539F4F8ED8F601C2
:1052D000408150E0B801C8018D569F4F98D8F60123
:1052E000408150E0CA018D569F4FB801605D7F4FED
:1052F000800F911F8CD8C70180549F4F22E4FC017E
:105300002083F601F0800E941E3381112EC0FF0C15
:1053100023E4C80180579F4FFC012083319621E090
:105320002F0D208324E0319620830E941E338111AB
:105330001CC0F394F3944F2D50E0BE016F5F7F4F7C
:10534000C8010E94627D86E8F80180836F2DC80144
:105350000F900F900F90DF91CF911F910F91FF90C1
:10536000EF90DF90CF9038C886EA0F900F900F90A3
:10537000DF91CF911F910F91FF90EF90DF90CF9031
:1053800008950F931F93CF93DF93FC012281213067
:1053900009F0A6C0FC018381982F907B903B31F4EB
:1053A0008F70DF91CF911F910F91BEC59FE7980F2E
:1053B000953028F4DF91CF911F910F9118C9EB011F
:1053C000803A01F158F4813009F44BC038F1823051
:1053D00009F46BC0863809F470C082C08A3AC1F003
:1053E00048F4873A08F07CC0DF91CF911F910F916C
:1053F0000C94AB368C3A09F073C048D598838983F6
:1054000062E067C06DE0CE010E94417D64E161C051
:105410006EE0CE010E94417D6BE05BC082E9888333
:10542000198261E880E090E00E94B332009709F4AD
:1054300057C033E0880F991F3A95E1F79A838B8321
:1054400063E880E090E00E94B332009709F448C01E
:1054500024E0880F991F2A95E1F79C838D8366E0ED
:1054600038C060E8CE010E94B3328C01892B89F4E8
:1054700069E8CE010E94B3328C01892B89F168E87A
:10548000CE01800F911F0E94B332009749F1080F9F
:10549000191FB801CE010E94F5210115F1E01F0787
:1054A00011F400E010E0602F14C061E8CE010E940A
:1054B000B3320097A9F0682F0CC063E0CE010296CA
:1054C0000E94B332009771F090E39883898362E081
:1054D000680FCE01DF91CF911F910F910C94EC21B9
:1054E00088EA01C085E9DF91CF911F910F9108955E
:1054F000CF92DF92FF920F931F93CF93DF931F9270
:10550000CDB7DEB76C01FC018481811106C0F601C4
:105510008281813009F098C00AC0C6010E94451FEF
:10552000C6010E94491F882391F384E9CDC0F6018A
:105530008381803E91F48481883011F080E7C4C07B
:105540000E94F003C60107960F90DF91CF911F9143
:105550000F91FF90DF90CF90B7C69FEF980F9E30CE
:1055600080F4F60184818051803240F7C6010396B1
:105570000F90DF91CF911F910F91FF90DF90CF900F
:1055800010C690E8980F9C3018F0803A09F05EC081
:10559000D2D78C01892B09F45BC0DAD7282F893147
:1055A00049F4C8018F778034910529F1003811053D
:1055B00029F621C0893251F4C8018F7B80389105CA
:1055C000D1F00115114009F0B9CF15C0682FC801FD
:1055D00029830E9415222981811110C0F60183813F
:1055E000873811F482E004C0863819F583E0F601AB
:1055F00083830E94F003C60103961DC0213151F53B
:10560000C8018F739927892B29F5C80192508130E1
:10561000964000F5F601F480F0FE04C0F6018381A7
:105620008138D1F4F60183818A3800F18C3808F48E
:105630004AC085E949C00F90DF91CF911F910F912A
:10564000FF90DF90CF90FAC788EA3EC081EA3CC065
:1056500082EA3AC081E938C095819111EACFFA9483
:10566000F5828483FFEFCF1ADF0ADCCF833850F452
:10567000813879F040F58038E1F628E0F29EC001EB
:10568000112404C0F0E1FF9EC0011124081719077E
:1056900081F60E94F0036F2D70E0C60105960E940E
:1056A000F521F60193812DE7290FC60103962230DB
:1056B00010F66F2D0F90DF91CF911F910F91FF90FA
:1056C000DF90CF9003C980E00F90DF91CF911F91C1
:1056D0000F91FF90DF90CF900895CF93DF93EC016F
:1056E0008C81811103C03FD480E009C0CE010E94AB
:1056F000451FCE010E94491F8823A9F384E9DF9149
:10570000CF91089581508E3028F421E3829FC0010B
:10571000112408958FEF9FEF0895FB01AC01485FBE
:105720005F4FDC013D91CD012191321721F0311104
:1057300007C02F3F29F48417950799F780E0089553
:1057400081E00895CF93DF931F92CDB7DEB741E09C
:105750006EEA72E0CE0101960E94320499818EEFCA
:1057600089270F90DF91CF910895CF93DF931F92F8
:10577000CDB7DEB79EEF89278983E4DF998189174A
:1057800039F041E06EEA72E0CE0101960E943404E5
:105790000F90DF91CF910895CF92DF92EF92FF9219
:1057A0001F93CF93DF93CDB7DEB7E1970FB6F89491
:1057B000DEBF0FBECDBF7B01142FA4DF6C0197FFAE
:1057C00002C08FE052C041E3BC01CE0101960E94AD
:1057D00032048111F6CF1123C9F08AA51FEF180FEB
:1057E0001E3F08F03FC0E114F10409F43EC0BE01C1
:1057F000675F7F4FC70191DF882329F01AA7111136
:1058000021C010E81FC08CA58AA71BC099A51FEF57
:10581000190F1E3F38F5E114F10441F48DA580FD08
:1058200002C080E001C080E1892B1FC0BE016F5F14
:105830007F4FC70172DF882311F019A7E0CF8BA536
:1058400089A710E041E3B601CE0101960E9434041D
:1058500011110AC08DA585FD10E483FF05C0812FBD
:10586000806203C080E801C0812FE1960FB6F894F2
:10587000DEBF0FBECDBFDF91CF911F91FF90EF90A4
:10588000DF90CF900895CF93DF93EC018FE688836C
:1058900087E1898380911B0385FD02C080E801C0F8
:1058A00081E88A8382E08B8390910F03209110031B
:1058B0002C839D8392E89E8391E09F832091150322
:1058C000288723E829878A8720910D0330910E03CA
:1058D0003B872C8726E82D8723E02E87209116030F
:1058E0002F8720911703288B20911803298B25E8F7
:1058F0002A8B8B8B8091190320911A032C8B8D8B13
:105900008AE88E8B9F8B1EDF888F40911B034F711F
:1059100059F4FE01F39589818E5F8083CF5FDE4F5E
:1059200081E0888380E114C089818E5F840F898340
:1059300084E8898F4A8F60911C0370911D03615F19
:105940007F4FCE014B960E945504813011F78FEFA7
:10595000DF91CF910895EF92FF920F931F93CF9312
:10596000DF93EC017B01188A1F8600E010E06F8551
:1059700078894FE0CE010E945504811128C08881AA
:105980009981019639F1E114F10429F08E819F810A
:105990008E159F0509F12E858F85988927FD05C0F5
:1059A0000115110521F48C0102C000E010E00F96F2
:1059B000322F3F71830F911D988B8F8726FDD7CF94
:1059C0002A813B81820F931F988B8F87D0CF80E0F5
:1059D00090E004C0C80102C08FEF9FEFDF91CF912C
:1059E0001F910F91FF90EF9008952F923F924F9249
:1059F0005F926F927F928F929F92AF92BF92CF925F
:105A0000DF92EF92FF920F931F93CF93DF93CDB767
:105A1000DEB7E4970FB6F894DEBF0FBECDBF3C01F2
:105A2000362E272E7A01FC01A480B58086809780CF
:105A3000273071F4FA015080018110E0102F002707
:105A40008281082BF3E0EF0EF11C5A945A940BC09C
:105A50002A3031F4FA0151907F01062F172F03C02D
:105A6000062F172F512C1AA219A2412CC12CD12C70
:105A700069A17AA14FE0CE0142962CAB0E94550459
:105A8000382F2CA98111D0C068A167FFBAC04A89FC
:105A90005B894F3FFFEF5F07F9F4293059F43FEF7F
:105AA000C31AD30AF301D582C48289A19AA1908B2B
:105AB0008787C5C0243039F4442009F4C0C081E18F
:105AC000FE013196B6C0233009F0B9C0852D90E0B3
:105AD000F30191838083B3C08E899F89C816D9064C
