:1000000051C2000059C2000057C2000055C2000092
:1000100053C2000051C200004FC200004DC2000098
:100020004BC2000049C2000047C2000045C20000A8
:1000300043C2000041C200003FC200003DC20000B8
:100040003BC2000039C20000D7C3000035C2000027
:1000500033C2000031C200002FC200002DC20000D8
:100060002BC2000029C2000027C2000025C20000E8
:1000700023C2000084C300001FC200001DC2000094
:100080001BC2000019C2000017C200002130FFFF90
:10009000FFFF0000000000000000FFFFFFFFFEFF69
:1000A000FFFFFFFFFFFFFFFFFFFFFFFFFFFFFFFF60
:1000B000FFFFFFFFFFFFFFFFFFFFFFFFFFFF2230FC
:1000C0007329C5CC6A19ECEC7AA7B048B20D1A585E
:1000D000DF2D37F4814D63C7FFFFFFFFFFFFFFFFF9
:1000E000FFFFFFFFFFFFFFFFFFFFFFFFFFFFFFFF20
:1000F0002330FCFFFFFF0000000000000000FFFFB6
:10010000FFFFFEFFFFFFFFFFFFFFFFFFFFFFFFFF00
:10011000FFFFFFFFFFFFFFFFFFFFFFFFFFFFFFFFEF
:10012000FFFF2430EF2AECD3EDC8852A9DD12E8A1B
:100130008D3956C65A8713508F081403124181FE19
:100140006E9C1D18192DF8E36B058E98E4E73EE2CE
:10015000A72F31B32530B70A7672385E543A6C292E
:1001600055BF5DF20255382A5482E041F759989BF9
:10017000A78B623B1D6E74AD20F31EC7B18E370591
:100180008BBE22CA87AA26305F0EEA907C1D437A76
:100190009D817E1DCEB1600AC0B8F0B51331DAE999
:1001A0007C149A28BD1DF4F829DC9292BF989E5DBC
:1001B0006F2C26964ADE17361920FFFFFFFFFFFF40
:1001C000FFFFFFFFFFFF0000000000000000000035
:1001D000000001000000FFFFFFFF1A20512563FC13
:1001E000C2CAB9F3849E17A7ADFAE6BCFFFFFFFFB2
:1001F000FFFFFFFF00000000FFFFFFFF1B20FCFFD1
:10020000FFFFFFFFFFFFFFFFFFFF000000000000F8
:1002100000000000000001000000FFFFFFFF1C20A5
:100220004B60D2273E3CCE3BF6B053CCB0061D65AA
:10023000BC86987655BDEBB3E7933AAAD835C65A33
:100240001D2096C298D84539A1F4A033EB2D817DAD
:100250000377F240A463E5E6BCF847422CE1F2D113
:10026000176B1E20F551BF376840B6CBCE5E316BA1
:100270005733CE2B169E0F7C4AEBE78E9B7F1AFEE0
:10028000E242E34F1118FFFFFFFFFFFFFFFFFEFFFA
:10029000FFFFFFFFFFFFFFFFFFFFFFFFFFFF121842
:1002A0003128D2B4B1C96B1436F8DE99FFFFFFFFD5
:1002B000FFFFFFFFFFFFFFFF1318FCFFFFFFFFFF24
:1002C000FFFFFEFFFFFFFFFFFFFFFFFFFFFFFFFF3F
:1002D000FFFF1418B1B946C1ECDEB8FE49302472F4
:1002E000ABE9A70FE7809CE51905216415181210EA
:1002F000FF82FD0AFFF40088A143EB20BF7CF6904B
:1003000030B00EA88D1816181148791EA177F97310
:10031000D5CD246BED11106378DAC8FF952B190742
:1003200031202FFCFFFFFEFFFFFFFFFFFFFFFFFF5E
:10033000FFFFFFFFFFFFFFFFFFFFFFFFFFFFFFFFCD
:10034000FFFF3220414136D08C5ED2BF3BA048AF88
:10035000E6DCAEBAFEFFFFFFFFFFFFFFFFFFFFFF80
:10036000FFFFFFFF3320000000000000000000003E
:10037000000000000000000000000000000000007D
:100380000000000000003420070000000000000012
:10039000000000000000000000000000000000005D
:1003A000000000000000000035209817F8165B815F
:1003B000F259D928CE2DDBFC9B02070B87CE956224
:1003C000A055ACBBDCF97E66BE793620B8D410FBF4
:1003D0008FD0479C195485A648B417FDA808110E64
:1003E000FCFBA45D65C4A32677DA3A48040F3021EC
:1003F000300906052B0E03021A0500041401144FE0
:100400007345494404021000000000000000000091
:10041000010000020B01000F080000C00100018074
:1004200003807901F31160A31A068F3636DF11D4E9
:1004300086510EC74FEC7DCEC0D13D78E2DAE5B6ED
:10044000BB35CB745CAC8BF18E63568EE5185505CD
:10045000EE86AD33B2984DB2C91A071BE915ADE06F
:10046000F6AE916E9970FD6AB194776B6550570F37
:10047000B1F982FCEF76F50E08A78FFE06A23C7C50
:10048000101C024CFA697D6BB57DD8061212DFEFA5
:1004900037B872BD206CBAB1620FE84BF270F85FEA
:1004A000C802FF0011241FBECFEFD0E1DEBFCDBFD9
:1004B0000E948F450C94977BA3CD70916F0073952C
:1004C00011F4F89408957360F89470936F0000002D
:1004D0000000000000000000000000000000EFCF5E
:1004E000F89440E048BB47BBE8DF089BFECF5FEFD6
:1004F00059B950E05AB950E95AB95FE015D043E70D
:1005000051E05387428740E140937C0040917C005A
:100510004071E1F340937C0061D04EE150E0509394
:1005200087004093860008954427ECE7F0E0478772
:100530005687458744870895E0E058E070917C0035
:100540007071E1F3B99A70937C00479548F470910B
:100550007C007071E1F3B99870937C00E39507C05B
:1005600070917C007071E1F3B99A70937C005A9598
:1005700061F7E79540F070917C007071E1F3B99AF2
:1005800070937C0007C070917C007071E1F3B998A2
:1005900070937C00EE27FF27CF0170917C00707173
:1005A000E1F3B99870937C0042E0B19B01963196DB
:1005B0008AF070917C007071C1F370937C004A9551
:1005C000A1F7F695EE1FF695EE1FE81BF90BD0F09C
:1005D000882708958FEF089581E008956EDF78945D
:1005E00070917C007071E1F370937C00DC014C91A0
:1005F000A3DF813039F09FEF8F3F81F011966A952C
:1006000059F0F5CF42E070917C007071E1F3709386
:100610007C004A95C1F7EBCF882799270895DC0124
:100620004CDF78942FE030E080E0F1E044E0089483
:10063000B19B4150411D4730D9F7B199FECF30935E
:100640008900209388004A954730B9F3B19B415007
:10065000411D4330C9F770E170937C005AE0E1E03E
:100660004730B19B4150411D70917C007071C1F3C6
:1006700070937C004430E11D443097955A9581F782
:10068000991F9095E17081F4FF2349F070917C00EF
:100690007071E1F3B99870937C00FA9511C06627E8
:1006A000882770937C0007C070917C007071E1F323
:1006B00070937C00F1E0662319F09D936A95839511
:1006C00070917C007071E1F370937C00B19A70912D
:1006D0007C007071E1F370937C0044E00894B19B5E
:1006E0004150411D4730D9F79CE0B1990DC030937E
:1006F0008900209388004A954730B9F3B19B415057
:10070000411D4330C9F7A7CF70917C00707169F328
:1007100070937C009A9549F770918703739541F423
:1007200070938703A81BB050FD017D917F3F11F0AE
:1007300099270895841594E000F1222733274C91DE
:100740004F714031D1F44D915D915831B1F445FF75
:1007500004C093952D91223081F446FF02C09395F9
:100760003D91891751F49D914527422743274927F9
:100770004F3F19F4682FCF0131DF882708950F927A
:100780000FB64F93409187034395409387034033BF
:10079000E9F45F937F938F939F93EF93FF938DDEA5
:1007A0005FE0C2DE40E1408340E6C6DE40E14083D8
:1007B00040E6882309F0C0DE57E0B6DE40938703A9
:1007C000FF91EF919F918F917F915F914F910FBE1C
:1007D0000F901895F89457E0A7DE4093870344E004
:1007E0004083418378940895F8945FE09DDE4183CF
:1007F00044E04083789408950C9400004449457384
:100800004F8010020018F53BECEFF7E07CE0672F1B
:100810008DB79EB745914F937A95D1F761DE8FEFF3
:10082000809387038DB79EB70C96F8948DBF78940C
:100830009EBF0895F89420916F00253B60F02450EE
:1008400020936F0000000000000000000000000086
:1008500000000000F2CF0895E89401C06894FC0104
:10086000DB01842F4A95640F711DB8F07C7FA9F4D9
:10087000BFBBAEBBE09A11963DB316F031930AC0F0
:100880000190031639F0D6DF0DBAE29AE19AE199A8
:10089000FECF7894815061F7089581E008950E9419
:1008A000F4FFDC01FB0151E05BBF07900D924A951C
:1008B000E1F7882708959C9169276D9395F060E88A
:1008C000C5919C2FCF70788194FD729596FF771F0C
:1008D00096FF771F95FF771F771F679588F78150E1
:1008E00052F7089590FF00D001FC0CC043FA111C90
:1008F00010F877FA221C331C441C551C661C771C0C
:1009000044F8089544FA779477F810FA6794579466
:10091000479437942794179443F808952F923F9261
:100920004F925F926F927F928F929F92AF92BF92FF
:10093000CF92DF92EF92FF920F931F93CF93DF93AB
:10094000042EFB01DC014F3009F47096AF93BF9386
:10095000DD27CCE08A2F18961E90111C441F111C15
:10096000551F1C92A817C1F75C834993C03199F7B2
:10097000B8E09191C1E08881991F87958993C8302B
:10098000D1F7BA95B1F7EF93FF93312413243124B3
:10099000429401FCABDF81E893E0A4DF8F939F9347
:1009A0001F922F923F924F925F926F927F92EAE650
:1009B000FAE086E2A1E083DFEF92FF9243E089E86C
:1009C00060E27EDF7F01642BE2EFFAE0E60FFB1FBF
:1009D00080FF06C0507FC591CF70C52BCD934A953F
:1009E0005591F7016AF7A80179013F912F9186018E
:1009F0006A0183E264DF7F906F905F904F903F9039
:100A00002F901F909F918F918695979531F6FF912A
:100A1000EF9100FC7097BF91AF9188E0CCE09C8192
:100A200097959C83661F988197959993661FC0310F
:100A3000B1F76D938A9591F7189786E0081A08F038
:100A400085CFDF91CF911F910F91FF90EF90DF90B5
:100A5000CF90BF90AF909F908F907F906F905F905E
:100A60004F903F902F90112408952C1C8C1C3D6DAD
:100A70008C6C0D5C1F1D4D4C6D8C7D7D3C7C2D0C5C
:100A80006E0C7C5D0D8C2F7E8C7F6E5E5F6F6F0EAB
:100A90000F3E1E8C7F1D7E4F8C2E3F8C0F1E6C4E8A
:100AA0000E1F631122617352715332144223540397
:100AB000022113317201343343122566271524763F
:100AC000776535060547570426756416671755562A
:100AD00007456A0B097B7A0A3819493B4A784B3A31
:100AE000396869282B1B591A18486B08295A585B12
:100AF000792A4D2CA7EFB2C10D41284A9ED8E41F98
:100B0000E31EF67960260FA236FB8BB6F9B3D168E7
:100B10005A843A801139C95DD2A79333C8627EF4F2
:100B200075CD55DEBB5CA0074C906CE52405179B8A
:100B30008F7AD1EADD030FBF78FDBD240B7478C234
:100B400095474A4736EF937C4F2217D960D8A415B2
:100B5000A31EEC5624AC3501876056FD52C1CBAEC6
:100B6000ECBA2030C196FE9BBA598983FE3B62687D
:100B700019851749DA404B2E661EB41F49E7D1B5D7
:100B8000908BC9A28CDA3CD8FB647E7C372DE28343
:100B90000DB1A0F7BFF5F69011C86AC4239C8D5A19
:100BA000CE760F615539533DA2A3950BE85228E646
:100BB000740F62B413FDB183AFC8DEC2D08A877CE4
:100BC000062114196A434AE5919FA82F8D147DDAF6
:100BD00078729F6B495B5CFEF4B60901E537F097CC
:100BE0003BECE3A6BCA0254057053658226ECB3D12
:100BF000CED9BF01F801E80FF11D8081FB010895F6
:100C000040E18881F6DF89934150D9F760970895D4
:100C100040E18881EEDF89934150D9F7F7CF898190
:100C20009D81998399859D839D8599878D878B81EA
:100C30009F859B839B859F879F819B878F8310C008
:100C400089819D85998399859D879D8199878D83CC
:100C50008B819F819B839B859F839F859B878F87AC
:100C60008A819A859A838A878E859E819E878E83C4
:100C7000089524E09BE118D0BA2F1FD0E1F7C6CF2A
:100C800024E09BE111D0AF938A2F32D0B82F842774
:100C900086272DD0A827B527B7278B2F28D0BF911F
:100CA000B8270BD079F7B2CF488159816A817B810F
:100CB000A72FA627A527A4270895842F852718D016
:100CC0008A2784278993852F862712D08B2785270B
:100CD0008993862F87270CD08A2786278993842F8C
:100CE000872706D08B27872789932A95089500D0D8
:100CF000880F08F489270895B09740E18191988181
:100D0000982799934A95D1F781CF00D000D0550FFD
:100D1000511D8527089520FB0F931F93CF93DF93D9
:100D2000EC01FEB7F350FEBFEDB731969F018F0186
:100D30001395002481E09BE18193D801A80FB11D98
:100D40000C92582FD5DF85270394B1F7882793E6B7
:100D5000582FDBDF8927D901BE5FA80FB11D0C9288
:100D6000819380818095D901A80FB11D8C91039446
:100D700079F7F901242FDB01BF010D9001924A950B
:100D8000E1F731E0022EDB013497818132DF9D9162
:100D900098279327948382812CDF9D9198279583B0
:100DA000838127DF9D9198279683808122DF9D9103
:100DB0009827978334967CE023FD74E18D9191917F
:100DC000982793837A95D1F725FF0AC040E1819156
:100DD0004D3008F00EDF9D91982793834A95B9F71F
:100DE0004BE1330F08F43427020E19F0402D4F3E2B
:100DF00060F2F801FA95422F469546954B5F342FE5
:100E000056F07BDFFDDE0BDF315018F032DF75DF8F
:100E1000F9CF73DF0FC01395432F4D5F70964A953E
:100E2000E9F76ADF0DDFF4DE315018F065DF28DF07
:100E3000F9CF62DFFEB7FD5FFEBFDF91CF911F915B
:100E40000F9108952F923F924F925F926F927F92EF
:100E50008F929F92AF92BF92CF92DF92EF92FF92CA
:100E60000F931F93CF93DF93ADB7BEB7A458B109CB
:100E7000F894ADBF7894BEBF11966D937D938D931A
:100E80009D93FC01EB0198E0881B09901990299033
:100E90003990499059906990799088AC99ACAAACF6
:100EA000BBACCCACDDACEEACFFAC80019101A201DF
:100EB000B30108080192190811922A0821923B08EF
:100EC00031924C0841925D0851926E0861927F0800
:100ED00071928795800A80AE910A91AEA20AA2AE65
:100EE000B30AB3AEC40AC4AED50AD5AEE60AE6AEBE
:100EF000F70AF7AE881F9A9541F680FB96F9E91B31
:100F0000F040BF01FD01B6D1CDB7DEB7EB81FC816A
:100F100069817A81AFD1CDB7DEB7EB81FC81E05832
:100F2000FF4F69817A81605C7F4FA4D1CDB7DEB776
:100F3000EB81FC81DE011596EF01C058DF4F7E2F5B
:100F4000705C991B81909190A190B190C190D190CB
:100F5000E190F19000AC8881081E11AC8981181EC7
:100F600022AC8A81281E33AC8B81381E44AC8C8124
:100F7000481E55AC8D81581E66AC8E81681E77ACBC
:100F80008F81781E09921992299239924992599229
:100F900069927992991F081C191C2A1C3B1C4C1C35
:100FA0005D1C6E1C7F1C991F8D91080A00AE8D91EF
:100FB000180A11AE8D91280A22AE8D91380A33AEEF
:100FC0008D91480A44AE8D91580A55AE8D91680AAC
:100FD00066AE8D91780A77AE979597957E13B2CFCE
:100FE000979597FBE05CFF4F991F78E00080899010
:100FF000081C11809990191C2280A9902A1C33800A
:10100000B9903B1C4480C9904C1C5580D9905D1C04
:101010006680E9906E1C7780F9907F1C991F882765
:10102000081E181E281E381E481E581E681E781ED0
:10103000991F8D91080A01928D91180A11928D9134
:10104000280A21928D91380A31928D91480A419255
:101050008D91580A51928D91680A61928D91780A0A
:101060007192979597957A9509F6991F991F000B9C
:10107000110B1124882780F9080F111D9795917085
:10108000091F111D8081800F81938081811F8193B1
:101090008081811F81938081811F81938081811F45
:1010A00081938081811F81938081811F81938081C1
:1010B000811F81938081811F81938081811F819312
:1010C0008081811F81938081811F81938081811F15
:1010D00081938081811F81938081811F8193808191
:1010E000811F81938081811F81938081811F8193E2
:1010F0008081811F81938081811F81938081811FE5
:1011000081938081811F81938081811F8193808160
:10111000811F81938081811F81938081811F8193B1
:101120008081811F81938081811F81938081811FB4
:1011300081938081811F81938081811F8193808130
:10114000811F81938081811F81938081811F819381
:101150008081811F81938081811F81938081811F84
:1011600081938081811F81938081811F8193808100
:10117000811F81938081811F81938081811F819351
:101180008081811F81938081811F81938081811F54
:1011900081938081811F81938081811F81938081D0
:1011A000811F81938081811F81938081811F819321
:1011B0008081811F81938081811F81938081811F24
:1011C00081938081811F81938081811F81938081A0
:1011D000811F8193811E8192911E9192A11EA192E5
:1011E000B11EB192C11EC192D11ED192E11EE192F7
:1011F000F11EF1921197F894ADBF7894BEBFDF91C4
:10120000CF911F910F91FF90EF90DF90CF90BF9003
:10121000AF909F908F907F906F905F904F903F9096
:101220002F9008952F923F924F925F926F927F92EC
:101230008F929F92AF92BF92CF92DF92EF92FF92E6
:101240000F931F93CF93DF93FC0114D0DF91CF91C5
:101250001F910F91FF90EF90DF90CF90BF90AF90D4
:101260009F908F907F906F905F904F903F902F90C6
:1012700011240895CDB7DEB7C454D040F894CDBF43
:101280007894DEBF69837A83EB83FC83EB0194E07F
:10129000881B09901990299039904990599069902C
:1012A0007990888C998CAA8CBB8CCC8CDD8CEE8C44
:1012B000FF8C80019101A201B301080819082A08D6
:1012C0003B084C085D086E087F080192119221923C
:1012D000319241925192619271928795800A910A5E
:1012E000A20AB30AC40AD50AE60AF70A808E918ECA
:1012F000A28EB38EC48ED58EE68EF78E881F9A95F9
:1013000041F680FB95F9E91BF040EF01EDB7FEB720
:10131000359697D2CDB7DEB7EB81FC81A981BA8132
:10132000ED018FD2CDB7DEB7EB81FC81E05CFF4FE2
:10133000A981BA819096ED0184D2EDB7FEB7DF01A5
:101340001596C381D481FE01E05CFF4F88A099A06F
:10135000AAA0BBA0CCA0DDA0EEA0FFA008A519A567
:101360002AA53BA54CA55DA56EA57FA50080118093
:10137000228033804480558066807780800C911C69
:10138000A21CB31CC41CD51CE61CF71C00841184D1
:10139000228433844484558466847784001D111D1F
:1013A000221D331D441D551D661D771D991F088084
:1013B00019802A803B804C805D806E807F80080C85
:1013C000191C2A1C3B1C4C1C5D1C6E1C7F1C991F8D
:1013D0008D91081A08A28D91180A19A28D91280AD8
:1013E0002AA28D91380A3BA28D91480A4CA28D9178
:1013F000580A5DA28D91680A6EA28D91780A7FA22B
:101400009795088419842A843B844C845D846E8477
:101410007F84001E111E221E331E441E551E661E92
:10142000771E991F8D91080A08A68D91180A19A692
:101430008D91280A2AA68D91380A3BA68D91480ADB
:101440004CA68D91580A5DA68D91680A6EA68D9165
:10145000780A7FA69795979508A819A82AA83BA867
:101460004CA85DA86EA87FA88089081E008A818983
:10147000181E118A8289281E228A8389381E338A7F
:101480008489481E448A8589581E558A8689681E23
:10149000668A8789781E778A991F8889081E8989B4
:1014A000181E8A89281E8B89381E8C89481E8D89B2
:1014B000581E8E89681E8F89781E991F8D91080A83
:1014C00008AA8D91180A19AA8D91280A2AAA8D9125
:1014D000380A3BAA8D91480A4CAA8D91580A5DAAF8
:1014E0008D91680A6EAA8D91780A7FAA9795979533
:1014F00008AC19AC2AAC3BAC4CAC5DAC6EAC7FAC70
:10150000808D081E008E818D181E118E828D281EE2
:10151000228E838D381E338E848D481E448E858D99
:10152000581E558E868D681E668E878D781E778E26
:10153000991F888D081E898D181E8A8D281E8B8DF7
:10154000381E8C8D481E8D8D581E8E8D681E8F8D79
:10155000781E991F8D91080A08AE8D91180A19AE50
:101560008D91280A2AAE8D91380A3BAE8D91480A9A
:101570004CAE8D91580A5DAE8D91680A6EAE8D911C
:10158000780A7FAE91FB9795979580A1881E81A1DF
:10159000981E82A1A81E83A1B81E84A1C81E85A181
:1015A000D81E86A1E81E87A1F81E991F8827881ECD
:1015B000981EA81EB81EC81ED81EE81EF81E991F29
:1015C0008D91880A80828D91980A91828D91A80AC6
:1015D000A2828D91B80AB3828D91C80AC4828D917E
:1015E000D80AD5828D91E80AE6828D91F80AF782B1
:1015F0008D91080B8D91180B8D91280B8D91380BC7
:101600008D91480B8D91580B8D91680B8D91780BB6
:1016100097958827081F181F281F381F481F581F15
:10162000681F781F979580A4081D008791A4191D35
:101630001187A2A42A1D2287B3A43B1D3387C4A40B
:101640004C1D4487D5A45D1D5587E6A46E1D668795
:10165000F7A47F1D77870088118822883388448803
:1016600055886688778800A9001E11A9111E22A935
:10167000221E33A9331E44A9441E55A9551E66A92E
:10168000661E77A9771E991F8827081E181E281E18
:10169000381E481E581E681E781E991F8D91080A14
:1016A000008A8D91180A118A8D91280A228A8D91BB
:1016B000380A338A8D91480A448A8D91580A558A8E
:1016C0008D91680A668A8D91780A778A008C118CD0
:1016D000228C338C448C558C668C778C8D91080AC7
:1016E0008D91180A8D91280A8D91380A8D91480A9A
:1016F0008D91580A8D91680A8C91780ACC0B979538
:101700008827081E181E281E381E481E581E681ED0
:10171000781E979580AD081E008E01AC101C118EAE
:1017200012AC211C228E23AC321C338E34AC431CF1
:10173000448E45AC541C558E56AC651C668E67AC09
:10174000761C778E7724DC2F991F9170C91FD71DC7
:1017500090F9C90FD71D70A07C0E70A271A07D1EDC
:1017600071A272A07D1E72A273A07D1E73A274A0CE
:101770007D1E74A275A07D1E75A276A07D1E76A228
:1017800077A07D1E77A28D1E80A69D1E91A6AD1E00
:10179000A2A6BD1EB3A6CD1EC4A6DD1ED5A6ED1EF7
:1017A000E6A6FD1EF7A60D1F00AB1D1F11AB2D1FDA
:1017B00022AB3D1F33AB4D1F44AB5D1F55AB6D1FBF
:1017C00066AB7D1F77AB8D1F80AF0D1E01AE1D1E5A
:1017D00012AE2D1E23AE3D1E34AE4D1E45AE5D1E17
:1017E00056AE6D1E67AEF894ADBF7894BEBF089537
:1017F0002F923F924F925F926F927F928F929F9221
:10180000AF92BF92CF92DF92EF92FF920F931F930E
:10181000CF93DF93FC01EB0114D0DF91CF911F91A7
:101820000F91FF90EF90DF90CF90BF90AF909F907F
:101830008F907F906F905F904F903F902F901124EA
:101840000895288039804A805B806C807D808E80FE
:101850009F809927249C6001239CB02CC10CD91E29
:10186000269C7001289C8001399C9001599CA00104
:10187000799CB001349CD00CE11CF91E459CF00C05
:10188000011D191F369CD001259CD00CE11CFA1EAD
:10189000B91F359CE00CF11CB91F569C0B0F101D95
:1018A000211D391F299CD001279CF00C011D1A1FF6
:1018B000B91F379C000D111DB91F499C2B0F301DFE
:1018C000411D591F679CD001479C100D211D3A1FD7
:1018D000B91F579C200D311DB91F789C4B0F501D0F
:1018E000611D791F589CD001389C100D211D3A1F95
:1018F000B91F489C200D311DB91F699C4B0F501D0D
:10190000611D791F689CD001469C000D111D291F87
:10191000391F4A1F5B1F691F791F899C700D88271B
:10192000811DBB0CCC1CDD1CEE1CFF1C001F111FFD
:10193000221F331F441F551F661F771F881F991FC3
:10194000339CD001229C1001449CA22CB30CCA1ED3
:10195000DB1EE01CF11C991F669C1001559CD001F8
:10196000779C2001889C3001999C96950A1F1B1F2B
:10197000221D331D441D551D661D771D801D911DA3
:10198000A082B182C282D382E482F5820683178369
:10199000288439844A845B846C847D848E849F840B
:1019A000002730FB969587957795679557954795CE
:1019B0003795399C5001599C6001299C7001259CE8
:1019C000D001239C300D411D5A1FB01F249C400D97
:1019D000511DB01F279C6B0F701D811D9E1DF01E99
:1019E000289C800D911DF01E369CD001349C500D1A
:1019F000611D7A1FB01F359C600D711DB01F269CA4
:101A0000600D711D8B1F901FAF1CB01E569CD00126
:101A1000459C700D811D9A1FB01F469C800D911D25
:101A2000B01F679CAB0EB01CC11CD01E499CB00CF3
:101A3000C11CD01E699CD001489C7001379C800D50
:101A4000911DAE1CF01E389C900DA11CF01E689CD0
:101A5000BF0CC01CD11CB01F799C7001DA0EEB1EAC
:101A6000F01E589CD001479C900DA11CBA1EB01FBF
:101A7000579CA00CB11CB01F789CCB0ED01CE11C55
:101A8000F01E899CF00C011D1127330F441F551FB8
:101A9000661F771F881F991FAA1CBB1CCC1CDD1C4E
:101AA000EE1CFF1C001F111F30F9339CD001229C3B
:101AB000200D311D4A1F5B1F111F559CD001449CF6
:101AC0001795601D711D8A1F9B1F111F779CD001E8
:101AD000669C1795A01CB11CCA1EDB1E111F999C89
:101AE000D001889C1695E01CF11C0A1F1B1F208B3F
:101AF000318B428B538B648B758B868B978BA08E2F
:101B0000B18EC28ED38EE48EF58E068F178FA8808D
:101B1000B980CA80DB80EC80FD800E811F81A21815
:101B2000B308C408D508E608F70808091909AA0B7C
:101B3000AA26BA26CA26DA26EA26FA260A271A2763
:101B4000AA1ABA0ACA0ADA0AEA0AFA0A0A0B1A0B23
:101B50009927AC9C2001AB9C302C410C591EAE9CAB
:101B60003001A09E4001B19E9001D19EA001F19E46
:101B7000B001BC9C500C611C791ECD9C700C811C6A
:101B8000991EBE9CD001AD9C500C611C7A1EB91FE1
:101B9000BD9C600C711CB91FDE9C8B0E901C211D1E
:101BA000391FA19ED001AF9C700C811C9A1EB91FD9
:101BB000BF9C800C911CB91FC19E2B0F301D411D75
:101BC000591FEF9CD001CF9C900C211D3A1FB91FCB
:101BD000DF9C200D311DB91FF09E4B0F501D611D64
:101BE000791FD09ED001B09E900C211D3A1FB91FC5
:101BF000C09E200D311DB91FE19E4B0F501D611D70
:101C0000791FE09ED001CE9C800C911C291F391FAA
:101C10004A1F5B1F691F791F019F700D8827811D57
:101C2000330C441C551C661C771C881C991C221FF5
:101C3000331F441F551F661F771F881F991FBB9CAA
:101C4000D001AA9C5001CC9C2A2C3B0C4A1E5B1E46
:101C5000601C711C991FEE9C5001DD9CD001FF9C03
:101C60006001009F7001119F96958A1E9B1E2A1D80
:101C70003B1D4C1D5D1D6E1D7F1D801D911DA08097
:101C8000B180C280D380E480F58006811781A218DC
:101C9000B308C408D508E608F70808091909A79584
:101CA0002088318842885388A20CB31CC41CD51CE0
:101CB000A086B186C286D386648875888688978810
:101CC000E61CF71C081D191DE486F5860687178794
:101CD000AA1F220A330A440A550A660A770A880AA2
:101CE000990A00081108A08CB18CC28CD38CE48CAA
:101CF000F58C068D178DA6952A1C3B1C4C1C5D1C73
:101D00006E1C7F1C801E911E208A318A428A538A53
:101D1000648A758A868A978AA01CB11CC11CD11C52
:101D2000E11CF11C011D111DA08EB18EC28ED38E3F
:101D3000E48EF58E068F178FA888B988CA88DB884D
:101D4000EC88FD880E891F899927AC9C2001AB9CEB
:101D5000302C410C591EAE9C3001A09E4001B19E1A
:101D60009001D19EA001F19EB001BC9C500C611C61
:101D7000791ECD9C700C811C991EBE9CD001AD9C1F
:101D8000500C611C7A1EB91FBD9C600C711CB91FE0
:101D9000DE9C8B0E901C211D391FA19ED001AF9C93
:101DA000700C811C9A1EB91FBF9C800C911CB91F1E
:101DB000C19E2B0F301D411D591FEF9CD001CF9CA0
:101DC000900C211D3A1FB91FDF9C200D311DB91F3A
:101DD000F09E4B0F501D611D791FD09ED001B09E0B
:101DE000900C211D3A1FB91FC09E200D311DB91F37
:101DF000E19E4B0F501D611D791FE09ED001CE9CCE
:101E0000800C911C291F391F4A1F5B1F691F791FF6
:101E1000019F700D8827811D330C441C551C661CC6
:101E2000771C881C991C221F331F441F551F661FD7
:101E3000771F881F991FBB9CD001AA9C5001CC9C86
:101E40002A2C3B0C4A1E5B1E601C711C991FEE9CC9
:101E50005001DD9CD001FF9C6001009F7001119F2B
:101E600096958A1E9B1E2A1D3B1D4C1D5D1D6E1DD9
:101E70007F1D801D911D20A231A242A253A264A207
:101E800075A286A297A2A88CB98CCA8CDB8CEC8C2C
:101E9000FD8C0E8D1F8D882430FB96958795779548
:101EA0006795579547953795B19E1001D19E2001B2
:101EB000A19E3001AD9CD001AB9C300D411D5A1F3D
:101EC000B81DAC9C400D511DB81DAF9C6B0F701D13
:101ED000811D961D781CA09E800D911D781CBE9CB6
:101EE000D001BC9C500D611D7A1FB81DBD9C600DBA
:101EF000711DB81DAE9C600D711D8B1F981D271C98
:101F0000381CDE9CD001CD9C700D811D9A1FB81D20
:101F1000CE9C800D911DB81DEF9C2B0E301C411CDA
:101F2000581CC19E300C411C581CE19ED001C09E23
:101F30003001BF9C800D911D261C781CB09E900D19
:101F4000211C781CE09E370C401C511CB81DF19ED2
:101F500030015A0E6B1E781CD09ED001CF9C900D84
:101F6000211C3A1EB81DDF9C200C311CB81DF09EB0
:101F70004B0E501C611C781C019F700C811C992415
:101F8000330F441F551F661F771F881F991F221C80
:101F9000331C441C551C661C771C881C991C30F98A
:101FA000BB9CD001AA9C200D311D4A1F5B1F991CB0
:101FB000DD9CD001CC9C9794601D711D8A1F9B1FD6
:101FC000991CFF9CD001EE9C9794201C311C4A1E4A
:101FD0005B1E991C119FD001009F9694601C711C80
:101FE0008A1E9B1E20AB31AB42AB53AB64AB75ABCF
:101FF00086AB97AB20AE31AE42AE53AE64AE75AE9B
:1020000086AE97AE288839884A885B886C887D8838
:102010008E889F882A183B084C085D086E087F0848
:10202000800A910AAA0B2A263A264A265A266A26A6
:102030007A268A269A262A1A3A0A4A0A5A0A6A0ADC
:102040007A0A8A0A9A0A9927249C6001239CB02C58
:10205000C10CD91E269C7001289C8001399C9001DE
:10206000599CA001799CB001349CD00CE11CF91E54
:10207000459CF00C011D191F369CD001259CD00CED
:10208000E11CFA1EB91F359CE00CF11CB91F569CCF
:102090000B0F101D211D391F299CD001279CF00C0E
:1020A000011D1A1FB91F379C000D111DB91F499C36
:1020B0002B0F301D411D591F679CD001479C100DEF
:1020C000211D3A1FB91F579C200D311DB91F789C47
:1020D0004B0F501D611D791F589CD001389C100D6D
:1020E000211D3A1FB91F489C200D311DB91F699C45
:1020F0004B0F501D611D791F689CD001469C000D3F
:10210000111D291F391F4A1F5B1F691F791F899CD9
:10211000700D8827811DBB0CCC1CDD1CEE1CFF1C28
:10212000001F111F221F331F441F551F661F771FDB
:10213000881F991F339CD001229C1001449CA22C23
:10214000B30CCA1EDB1EE01CF11C991F669C10011B
:10215000559CD001779C2001889C3001999C9695D4
:102160000A1F1B1F221D331D441D551D661D771D93
:10217000801D911D20A031A042A053A064A075A095
:1021800086A097A01088120C10A21188131C11A20F
:102190001288141C12A21388151C13A21488161C72
:1021A00014A21588171C15A21688181C16A21788C9
:1021B000191C17A2AA0B2A183B084C085D086E08C8
:1021C0007F08800A910AA0ACB1ACC2ACD3ACE4AC3D
:1021D000F5AC06AD17ADA20AB30AC40AD50AE60AE1
:1021E000F70A080B190B0008110820A931A942A908
:1021F00053A964A975A986A997A9220E331E441E66
:10220000551E661E771E881E991EA21EB31EC41E72
:10221000D51EE61EF71E081F191FBB270B1E1B1E0F
:10222000208D318D428D538D648D758D868D978D6A
:10223000A695221E331E441E551E661E771E881E3E
:10224000991EAB1EBB1ECB1EDB1EEB1EFB1E0B1F07
:102250001B1F20A631A642A653A664A675A686A675
:1022600097A6A0AAB1AAC2AAD3AAE4AAF5AA06ABC5
:1022700017ABA0ACB1ACC2ACD3ACE4ACF5AC06AD22
:1022800017ADA01CB11CC11CD11CE11CF11C011D0F
:10229000111DA0AEB1AEC2AED3AEE4AEF5AE06AF88
:1022A00017AF288039804A805B806C807D808E806B
:1022B0009F80A884B984CA84DB84EC84FD840E8565
:1022C0001F85A8892A1AA9893A0AAA894A0AAB89C4
:1022D0005A0AAC896A0AAD897A0AAE898A0AAF8934
:1022E0009A0AA88DAA0AA98DBA0AAA8DCA0AAB8D24
:1022F000DA0AAC8DEA0AAD8DFA0AAE8D0A0BAF8D03
:102300001A0BAA0B2A263A264A265A266A267A2623
:102310008A269A26AA26BA26CA26DA26EA26FA267D
:102320000A271A272A1A3A0A4A0A5A0A6A0A7A0A03
:102330008A0A9A0AAA0ABA0ACA0ADA0AEA0AFA0A3D
:102340000A0B1A0B9101A201B301C4012A193B091E
:102350004C095D096E097F09800B910BAA0B2A2796
:102360003A274A275A276A277A278A279A272A1B31
:102370003A0B4A0B5A0B6A0B7A0B8A0B9A0B5F9338
:102380004F933F932F939F938F937F936F93DF92FE
:10239000CF92BF92AF92EF92FF929927249C600157
:1023A000239CB02CC10CD91E269C7001289CE001F6
:1023B000399C9001599CA001799CB001349CD00CAF
:1023C000E11CF91E459CF00CC11DD91F369CD001A3
:1023D000259CD00CE11CFA1EB91F359CE00CF11CA9
:1023E000B91F569CCB0FD01D211D391F299CD00130
:1023F000279CF00CC11DDA1FB91F379CC00DD11DE1
:10240000B91F499C2B0F301D411D591F679CD001DE
:10241000479CD00D211D3A1FB91F579C200D311D1F
:10242000B91F789C4B0F501D611D791F589CD0011E
:10243000389CD00D211D3A1FB91F489C200D311D1D
:10244000B91F699C4B0F501D611D791F689CD001FD
:10245000469CC00DD11D291F391F4A1F5B1F691FD4
:10246000791F899C700D8827811DBB0CCC1CDD1C3D
:10247000EE1CFF1CCC1FDD1F221F331F441F551FE6
:10248000661F771F881F991F339CD001229C100163
:10249000449CA22CB30CCA1EDB1EE01CF11C991F2D
:1024A000669C1001559CD001779C2001889C3001CE
:1024B000999C9695CA1FDB1F221D331D441D551D77
:1024C000661D771D801D911D7F906F902F903F900E
:1024D0004F905F90DF92CF92BF92AF92DF93CF93F6
:1024E000FF92EF92CC2730FB96958795779567956D
:1024F000579547953795319E5001519E6001219E19
:102500007001259CD001239C300D411D5A1FBC1F1A
:10251000249C400D511DBC1F279C6B0F701D811DFD
:102520009E1DFC1E209E800D911DFC1E369CD00120
:10253000349C500D611D7A1FBC1F359C600D711DB0
:10254000BC1F269C600D711D8B1F9C1FAF1CBC1EE9
:10255000569CD001459C700D811D9A1FBC1F469C46
:10256000800D911DBC1F679CAB0EB01CC11CDC1EF6
:10257000419EB00CC11CDC1E619ED001409E7001CA
:10258000379C800D911DAE1CFC1E309E900DA11C31
:10259000FC1E609EBF0CC01CD11CBC1F719E700134
:1025A000DA0EEB1EFC1E509ED001479C900DA11C24
:1025B000BA1EBC1F579CA00CB11CBC1F709ECB0E3A
:1025C000D01CE11CFC1E019FF00CC11DDD27330F48
:1025D000441F551F661F771F881F991FAA1CBB1C0D
:1025E000CC1CDD1CEE1CFF1CCC1FDD1F30F9449CF5
:1025F0004001339CD001229C200D311D4A1F5B1FDE
:10260000681D791DDD1F559C4001669CD001779C9B
:102610001001009F2001119FD695881D991DAA1EAB
:10262000BB1EC21CD31CE41CF51CC01DD11D5F9336
:102630004F933F932F939F938F937F936F93DF924B
:10264000CF92BF92AF92DF93CF93FF92EF92CDB72D
:10265000DEB7AD8CBE8CCF8CD8A0E98CFA8C0B8DFC
:102660001C8D9924AC9CA001AB9C302D410D591DB3
:10267000AE9CB001A09EC001B19E1001D19E200170
:10268000F19E3001BC9C500D611D791DCD9C700DDB
:10269000811D991DBE9CD001AD9C500D611D7A1FFE
:1026A000B91DBD9C600D711DB91DDE9C8B0F901D69
:1026B000211C391CA19ED001AF9C700D811D9A1F59
:1026C000B91DBF9C800D911DB91DC19E2B0E301CE4
:1026D000411C591CEF9CD001CF9C900D211C3A1E2F
:1026E000B91DDF9C200C311CB91DF09E4B0E501CF7
:1026F000611C791CD09ED001B09E900D211C3A1E09
:10270000B91DC09E200C311CB91DE19E4B0E501C02
:10271000611C791CE09ED001CE9C800D911D291C6E
:10272000391C4A1E5B1E691C791C019F700C882491
:10273000811C330F441F551F661F771F881F991F69
:10274000221C331C441C551C661C771C881C991CBD
:10275000BB9CD001AA9C5001CC9C2A2D3B0D4A1F4A
:102760005B1F601D711D991CEE9C5001DD9CD0010A
:10277000FF9C6001009F7001119F96948A1F9B1F10
:102780002A1C3B1C4C1C5D1C6E1C7F1C801C911C5D
:10279000AD88BE88CF88D88CE988FA880B891C89D7
:1027A000A21AB30AC40AD50AE60AF70A080B190BDB
:1027B0002D813E814F81588569817A818B819C81F1
:1027C00022093309440955096609770988099909D5
:1027D000000811082D843E844F84588869847A84C7
:1027E0008B849C84A20CB31CC41CD51CE61CF71C57
:1027F000081D191D221D331D441D551D661D771D05
:10280000881D991D2D803E804F80588469807A8074
:102810008B809C80201C311C411C511C611C711C34
:10282000811C911C2D823E824F82588669827A8259
:102830008B829C822D883E884F88588C69887A8844
:102840008B889C880080021811801308228024083D
:1028500033803508448046085580570866806808EC
:102860007780790880848A0891849B08A284AC08C8
:10287000B384BD08C484CE08D584DF08E684E00AAA
:10288000F784F10ABB0BA0A1A00DA08BA1A1A11DF3
:10289000A18BA2A1A21DA28BA3A1A31DA38BA4A166
:1028A000A41DA48BA5A1A51DA58BA6A1A61DA68BC5
:1028B000A7A1A71DA78BA0A5A81DA08FA1A5A91D95
:1028C000A18FA2A5AA1DA28FA3A5AB1DA38FA4A50E
:1028D000AC1DA48FA5A5AD1DA58FA6A5AE1DA68F69
:1028E000A7A5AF1DA78FAFB7AD80BE80CF80D8841E
:1028F000E980FA800B811C81A096F894CDBF789472
:10290000DEBFB69500A8020A11A8130A22A8240A5D
:1029100033A8350A44A8460A55A8570A66A8680A83
:1029200077A8790A80AC8A0891AC9B08A2ACAC0865
:10293000B3ACBD08C4ACCE08D5ACDF08E6ACE00A49
:10294000F7ACF10ACC0BDD0BA695A0A1A01DA0A3AE
:10295000A1A1A11DA1A3A2A1A21DA2A3A3A1A31DE8
:10296000A3A3A4A1A41DA4A3A5A1A51DA5A3A6A13D
:10297000A61DA6A3A7A1A71DA7A3A0A5A81DA0A7A4
:10298000A1A5A91DA1A7A2A5AA1DA2A7A3A5AB1D8C
:10299000A3A7A4A5AC1DA4A7A5A5AD1DA5A7A6A5E5
:1029A000AE1DA6A7A7A5AF1DA7A700A811A822A87E
:1029B00033A844A855A866A877A880AC91ACA2AC6F
:1029C000B3ACC4ACD5ACE6ACF7AC0C1E1D1E2D1ED2
:1029D0003D1E4D1E5D1E6D1E7D1E8D1E9D1EAD1E5F
:1029E000BD1ECD1EDD1EED1EFD1E00AA11AA22AACF
:1029F00033AA44AA55AA66AA77AA80AE91AEA2AE1F
:102A0000B3AEC4AED5AEE6AEF7AE08952F923F9208
:102A10004F925F926F927F928F929F92AF92BF92EE
:102A2000CF92DF92EF92FF920F931F93CF93DF939A
:102A3000CDB7DEB7C456D040F894CDBF7894DEBF92
:102A400069837A838B839C83EB01FC0196E0881B6E
:102A500009901990299039904990599069907990EE
:102A600088A499A4AAA4BBA4CCA4DDA4EEA4FFA42A
:102A700080019101A201B301080819082A083B0846
:102A80004C085D086E087F080192119221923192E4
:102A900041925192619271928795800A910AA20A9D
:102AA000B30AC40AD50AE60AF70A80A691A6A2A626
:102AB000B3A6C4A6D5A6E6A6F7A6881F9A9541F6A2
:102AC00080FB94F995F9E91BF040BF01EDB7FEB723
:102AD000359685D1CDB7DEB7EB81FC8169817A81EE
:102AE0007ED1CDB7DEB7EB81FC81E05AFF4F698123
:102AF0007A81605D7F4F73D1CDB7DEB7EB81FC810A
:102B0000DE011596EF01C05ADF4F7E2F705D991BD5
:102B100000A88881081E11A88981181E22A88A8110
:102B2000281E33A88B81381E44A88C81481E55A8C6
:102B30008D81581E66A88E81681E77A88F81781EA9
:102B400009921992299239924992599269927992ED
:102B5000991F8191081E8191181E8191281E8191D3
:102B6000381E8191481E8191581E8191681E819165
:102B7000781E991F8D91080A00A68D91180A11A63A
:102B80008D91280A22A68D91380A33A68D91480A84
:102B900044A68D91580A55A68D91680A66A68D9116
:102BA000780A77A6979597957E13B2CF979597FB5E
:102BB000F096991F76E000808990081C118099900A
:102BC000191C2280A9902A1C3380B9903B1C448098
:102BD000C9904C1C5580D9905D1C6680E9906E1C94
:102BE0007780F9907F1C991F8827081E181E281EC1
:102BF000381E481E581E681E781E991F8D91080A9F
:102C000001928D91180A11928D91280A21928D912D
:102C1000380A31928D91480A41928D91580A519209
:102C20008D91680A61928D91780A71929795979526
:102C30007A9509F6991F991F440B550B1124882783
:102C400080F9480F511D97959170491F511D808142
:102C5000840F81938081851F81938081851F81935B
:102C60008081851F81938081851F81938081851F4D
:102C700081938081851F81938081851F81938081CD
:102C8000851F81938081851F81938081851F81931A
:102C90008081851F81938081851F81938081851F1D
:102CA00081938081851F81938081851F819380819D
:102CB000851F81938081851F81938081851F8193EA
:102CC0008081851F81938081851F81938081851FED
:102CD00081938081851F81938081851F819380816D
:102CE000851F81938081851F81938081851F8193BA
:102CF0008081851F81938081851F81938081851FBD
:102D000081938081851F81938081851F819380813C
:102D1000851F81938081851F81938081851F819389
:102D20008081851F81938081851F81938081851F8C
:102D300081938081851F81938081851F8193851E6A
:102D40008192951E9192A51EA192B51EB192C51EAB
:102D5000C192D51ED192E51EE192F51EF192119716
:102D6000F894ADBF7894BEBFDF91CF911F910F91C2
:102D7000FF90EF90DF90CF90BF90AF909F908F909B
:102D80007F906F905F904F903F902F9008952F927B
:102D90003F924F925F926F927F928F929F92AF92EB
:102DA000BF92CF92DF92EF92FF920F931F93CF9338
:102DB000DF93FC0114D0DF91CF911F910F91FF9011
:102DC000EF90DF90CF90BF90AF909F908F907F90CB
:102DD0006F905F904F903F902F9011240895CDB742
:102DE000DEB7E497F894CDBF7894DEBF69837A8329
:102DF000EB83FC83EB0193E0881B099019902990E9
:102E00003990499059906990799088889988AA88D2
:102E1000BB88CC88DD88EE88FF8880019101A20103
:102E2000B301080819082A083B084C085D086E0819
:102E30007F080192119221923192419251926192B6
:102E400071928795800A910AA20AB30AC40AD50A28
:102E5000E60AF70A808A918AA28AB38AC48AD58A46
:102E6000E68AF78A881F9A9541F680FB94F993F9D0
:102E7000E91BF040EF01EDB7FEB73596F7D1CDB7BE
:102E8000DEB7EB81FC81A981BA81ED01EFD1CDB72D
:102E9000DEB7EB81FC81E05DFF4FA981BA815896D6
:102EA000ED01E4D1CDB7DEB7EB81FC81DE011596F3
:102EB000EF01C05DDF4F608C718C828C938CA48C91
:102EC000B58CC68CD78CE0A0F1A002A113A124A1DF
:102ED00035A146A157A160A571A5088019802A8057
:102EE0003B804C805D80600C711C821C931CA41C78
:102EF000B51C0E80C01C1F80D11C2884E21C3984A4
:102F0000F31C4A84041D5B84151D0C84201D1D8444
:102F1000311D2E84421D3F84531D4888641D5988ED
:102F2000751D991F00801180228033804480558058
:102F3000060C171C281C391C4A1C5B1C991F8D9100
:102F4000081A008E8D91180A118E8D91280A228EF2
:102F50008D91380A338E8D91480A448E8D91580A8E
:102F6000558E97950680178020843184428453843F
:102F70000C1C1D1C2E1C3F1C401E511E991F8D91A8
:102F8000080A068E8D91180A178E8D91280A20A2A4
:102F90008D91380A31A28D91480A42A28D91580A2A
:102FA00053A29795048415842684378440885188D9
:102FB000021E131E241E351E461E571E991F8D917C
:102FC000080A04A28D91180A15A28D91280A26A23A
:102FD0008D91380A37A28D91480A40A68D91580AE2
:102FE00051A69795979502A413A424A435A446A4AA
:102FF00057A48A89081E0A8A8B89181E1B8A8C8905
:10300000281E2C8A8D89381E3D8A8E89481E4E8A3C
:103010008F89581E5F8A991F8289081E8389181E0E
:103020008489281E8589381E8689481E8789581EEE
:10303000991F8D91080A02A68D91180A13A68D91E9
:10304000280A24A68D91380A35A68D91480A46A6ED
:103050008D91580A57A691FB8D91680A8D91780A37
:103060008D91880A8D91980A8D91A80A8D91B80A40
:103070008D91C80A8D91D80A8D91E80A8D91F80A30
:103080008D91080B8D91180B8D91280B8D91380B1C
:103090008D91480B8D91580B8D91680B8D91780B0C
:1030A00097958827681E781E881E981EA81EB81E31
:1030B000C81ED81EE81EF81E081F181F281F381F1C
:1030C000481F581F681F781F9795888D681E688253
:1030D000698C761C79827A8C871C8A828B8C981CEE
:1030E0009B829C8CA91CAC82AD8CBA1CBD82BE8C10
:1030F000CB1CCE82CF8CDC1CDF82D8A0ED1CE886F6
:10310000E9A0FE1CF986FAA00F1D0A870BA1101F6B
:103110001B871CA1211F2C872DA1321F3D873EA19B
:10312000431F4E874FA1541F5F8758A5651F688BAB
:1031300069A5761F798B991F991F0A881B882C888F
:103140003D884E885F887D91070A7D91170A7D91A1
:10315000270A7D91370A7D91470A7D91570AAA0B6C
:10316000BB0B97957727071E171E271E371E471E76
:10317000571E97957AA5071E0A8A0BA4101C1B8A56
:103180001CA4211C2C8A2DA4321C3D8A3EA4431C65
:103190004E8A4FA4541C5F8A5524991F9170A91F11
:1031A000B51D90F9A90FB51D8A0F888F6B1E698E0A
:1031B0007B1E7A8E8B1E8B8E9B1E9C8EAB1EAD8EC5
:1031C000BB1EBE8ECB1ECF8EDB1ED8A2EB1EE9A28D
:1031D000FB1EFAA20B1F0BA31B1F1CA32B1F2DA34F
:1031E0003B1F3EA34B1F4FA35B1F58A76B1F69A735
:1031F0007B1F0B1E1B1E2B1E3B1E4B1E7AA70BA6F6
:103200001CA62DA63EA64FA6CDB7DEB7CC5CDF4FE1
:10321000F894CDBF7894DEBF08952F923F924F92DD
:103220005F926F927F928F929F92AF92BF92CF9256
:10323000DF92EF92FF920F931F93CF93DF93FC01E6
:10324000EB0114D0DF91CF911F910F91FF90EF9080
:10325000DF90CF90BF90AF909F908F907F906F90B6
:103260005F904F903F902F9011240895CF93DF935C
:1032700088809980AA80BB80CC80DD8099278A9C39
:1032800020018C9C30019D9CA001BD9CB001899CBB
:10329000302C410C591E8B9C500C611C791E8D9C4E
:1032A000700C411D591F9C9C70019A9C500C611C14
:1032B0007E1CF91E9B9C600C711CF91EAD9C4F0D71
:1032C000501D611D791FBC9C7001AB9C700C411D91
:1032D0005E1DF91EAC9C400D511DF91ECD9C6F0D5D
:1032E000701D8827811D330C441C551C661C771CDF
:1032F000441F551F661F771F881F991FBB9C900195
:10330000AA9C8001999C7001889C202C310C4E1C39
:103310005F1C601E711E421F531F991FDD9C7001B0
:10332000CC9C9695601D711D8E1D9F1D2082318243
:103330004282538264827582EE80FF8008851985FF
:103340002A853B85BB2750FB979587957795679591
:103350005795E19E2001EF9C500D611D741D851D48
:103360009B1FE09E600D711D8B1F9B1FF09E700DBB
:10337000811D9B1FF39E3001E29E800D911D6B1EEF
:103380007B1EF19E800D911D6B1E7B1EF29E900D8B
:10339000611C7B1E139F1001129F2001019F900D45
:1033A000611C741C5B1E029F600C711C5B1E239FC2
:1033B000250C301C4424411C5524039FD001E39E5E
:1033C000900D611C7A1E2B1E351C451C550F661F67
:1033D000771F881F991F661C771C221C331C441CF6
:1033E000551C50F9009FE001FF9CD001EE9C400D60
:1033F000511D6A1F7B1F8C1F9D1F551C339FE001B1
:10340000229FD001119F5694601C711C2A1E3B1EE6
:103410004C1E5D1EE818F9080A091B092C093D0914
:103420000008E024F0240025102520253025E01890
:10343000F00800091009200930097F926F92662474
:10344000E09ED001E29EE001F39E4001139F5001F7
:10345000EF9C702CA10DB61DE19EB00DC11DD61DB7
:10346000E39ED00D811C961CF29E6001F09EB00D73
:10347000C11DDC1DD61CF19EC00DD11DD61C039FA5
:103480008D0C901CA11CB61C129F6001019FD00DD9
:10349000811C9C1CD61C029F800C911CD61C239F57
:1034A000AD0CB01CCC24C11CDD24770CAA1FBB1FA3
:1034B000CC1FDD1F881C991CAA1CBB1CCC1CDD1C4E
:1034C000EE9C602C710CDD1CFF9CD794A01DB11DDF
:1034D000DD1C009FD794C01DD11DDD1C119FD7940A
:1034E000801C911CDD1C229FD794A01CB11CDD1CEC
:1034F000339FD694C01CD11C0F901F90E080F180A8
:103500000281138124813581E618F7080A0B1B0B11
:103510002C0B3D0BA795E40EF51E061F171F281F49
:10352000391F401D511D621D731D841D951DAA1F4D
:10353000480959096A097B098C099D0966087708B9
:10354000A795061C171C271C371C471C571CE68216
:10355000F7820087118722873387448755876687DC
:103560007787808B918B028A138A248A358A468AD0
:10357000578ACDB7DEB799808A80E4018C849D8418
:10358000AE84BF84C888D98899278A9C10018C9CF6
:1035900020019D9CA001BD9CB001899C702C210C38
:1035A000391E8B9C300C411C591E8D9C500C411DAA
:1035B000591F9C9C70019A9C300C411C5E1CF91E8A
:1035C0009B9C400C511CF91EAD9C4F0D501D611D64
:1035D000791FBC9C7001AB9C500C411D5E1DF91EF7
:1035E000AC9C400D511DF91ECD9C6F0D701D8827A0
:1035F000811D770C221C331C441C551C441F551F75
:10360000661F771F881F991FBB9C9001AA9C800191
:10361000999C7001889C602C710C2E1C3F1C401ED4
:10362000511E421F531F991FDD9C7001CC9C969523
:10363000601D711D8E1D9F1D608E718E228E338EBA
:10364000448E558EEA88FB880C891D892E893F8916
:10365000BB2750FB97958795779567955795E19E82
:103660002001EF9C500D611D741D851D9B1FE09E68
:10367000600D711D8B1F9B1FF09E700D811D9B1F88
:10368000F39E3001E29E800D911D6B1E7B1EF19E0C
:10369000800D911D6B1E7B1EF29E900D611C7B1E8A
:1036A000139F1001129F2001019F900D611C741C3B
:1036B0005B1E029F600C711C5B1E239F250C301C3F
:1036C0004424411C5524039FD001E39E900D611CAE
:1036D0007A1E2B1E351C451C550F661F771F881F31
:1036E000991F661C771C221C331C441C551C50F966
:1036F000009FE001FF9CD001EE9C400D511D6A1F10
:103700007B1F8C1F9D1F551C339FE001229FD00102
:10371000119F5694601C711C2A1E3B1E4C1E5D1E80
:10372000E818F9080A091B092C093D090008E024DA
:10373000F0240025102520253025E018F008000988
:103740001009200930097F926F926624E09ED00113
:10375000E29EE001F39E4001139F5001EF9C702C0C
:10376000A10DB61DE19EB00DC11DD61DE39ED00D6D
:10377000811C961CF29E6001F09EB00DC11DDC1DE7
:10378000D61CF19EC00DD11DD61C039F8D0C901C24
:10379000A11CB61C129F6001019FD00D811C9C1CB6
:1037A000D61C029F800C911CD61C239FAD0CB01C14
:1037B000CC24C11CDD24770CAA1FBB1FCC1FDD1F2E
:1037C000881C991CAA1CBB1CCC1CDD1CEE9C602C0C
:1037D000710CDD1CFF9CD794A01DB11DDD1C009F4A
:1037E000D794C01DD11DDD1C119FD794801C911C46
:1037F000DD1C229FD794A01CB11CDD1C339FD694E6
:10380000C01CD11C0F901F90E08CF18C028D138D89
:10381000248D358DE618F7080A0B1B0B2C0B3D0B7E
:10382000A795E40EF51E061F171F281F391F401D00
:10383000511D621D731D841D951DAA1F480959093C
:103840006A097B098C099D0966087708A795061CFB
:10385000171C271C371C471C571C44A355A366A3E1
:1038600077A380A791A702A613A624A635A646A6ED
:1038700057A6DF91CF91608C718C828C938CA48C35
:10388000B58CC4846C0CC5847C1CC6848C1CC78419
:103890009C1CC088AC1CC188BC1CC288EC1CC388A2
:1038A000FC1CC4880C1DC5881C1DC6882C1DC7881F
:1038B0003C1DCC24DD24DC1C4D0D5C1D6C1D7C1DD1
:1038C0008C1D9C1D0C1C1C1C2C1C3C1C4C1C5C1CB6
:1038D000A081A60DA487A181A71DA587A281A81DEF
:1038E000A687A381A91DA787A481AA1DA08BA58156
:1038F000AB1DA18BA681AE1DA28BA781AF1DA38B93
:10390000A085A01FA48BA185A11FA58BA285A21FA6
:10391000A68BA385A31FA78B461D571D681D791D68
:103920008A1D9B1D0E1C1F1C201E311E421E531E75
:10393000408F518F628F738F848F958F068E178E75
:1039400020A231A242A253A2DC1CDF92EF93FF938C
:10395000288039804A805B806C807D80EE81FF8189
:10396000088519852A853B858C849D84AE84BF8417
:10397000C888D9884A895B896C897D898E899F89A5
:10398000281839084A085B086C087D08E40BF50B19
:10399000060B170B280B390B000820243024402479
:1039A000502460247024E025F025002510252025D2
:1039B0003025201830084008500860087008E009D9
:1039C000F00900091009200930098824249C5001BD
:1039D000269C6001379CA001579CB001239C902C31
:1039E000A10CB81C259CB00CC11CD81C279CD00C69
:1039F000411D581D369CC001349CB00CC11CD81E02
:103A0000981D359CC00CD11C981D479C490F501D1A
:103A1000611D781D569CC001459CD00C411D581F4E
:103A2000981D469C400D511D981D679C690F701D87
:103A30008827811D9927990CAA1CBB1CCC1CDD1C56
:103A4000441F551F661F771F881F991F229C802CBB
:103A5000910C991F339C9795A01CB11C991F449CF5
:103A60009795C01CD11C991F559C9795401D511DC1
:103A7000991F669C9795601D711D991F779C96955F
:103A8000801D911D8F929F92AF92BF92CF92DF9235
:103A9000992450FB97958795779567955795E19F62
:103AA0006001EF9F500D611D7C1D8D1D991DE09FD4
:103AB000600D711D891D991DF09F700D811D991D4F
:103AC000F39F7001E29F800D911DE91CF91CF19F8D
:103AD000800D911DE91CF91CF29F900DE11CF91C51
:103AE000139F5001129F6001019F900DE11CFC1C6F
:103AF000D91C029FE00CF11CD91C239FAD0CB01CFB
:103B0000CC24C11CDD24039F4001E39F900DE11CE8
:103B1000F81CA91CBD1CCD1C550F661F771F881FE4
:103B2000991FEE1CFF1CAA1CBB1CCC1CDD1C50F9F1
:103B3000009FE001FF9F4001EE9F400D511D681D59
:103B4000791D8C1F9D1FDD1C339FE001229F4001CA
:103B5000119FD694E01CF11CA81CB91CCC1EDD1EC4
:103B6000E219F30904091509260937090008E025B7
:103B7000F0250025102520253025E019F009000941
:103B80001009200930096624E09FD001E29FE0017E
:103B9000F39F2001139F4001EF9F702CA10DB61DD4
:103BA000E19FB00DC11DD61DE39FD00D411C561CD9
:103BB000F29F1001F09FB00DC11DD21D361CF19F68
:103BC000C00DD11D361C039F430C501C811C961C3C
:103BD000129F1001019FD00D411C521C361C029FE8
:103BE000400C511C361C239F830C901C2224211C4A
:103BF0003324770CAA1FBB1FCC1FDD1F441C551C90
:103C0000881C991C221C331CEE9F602C710C331CE9
:103C1000FF9F3794A01DB11D331C009F3794C01D1A
:103C2000D11D331C119F3794401C511C331C229F03
:103C30003794801C911C331C339F3694201C311CFC
:103C4000EDB7FEB706801580048113813F912F9157
:103C5000F901061817080A0B1B0B2C0B3D0BA79537
:103C6000040E151E061F171F281F391F4E1D5F1D2E
:103C70006A1D7B1D8C1D9D1DAA1F440955096809DD
:103C800079098209930966087708A795E61CF71C4D
:103C9000A71CB71CC71CD71C3F902F909F908F90DC
:103CA000DF91CF916C8468186C866D8469086D868D
:103CB0006E8462086E866F8463086F8668886E0AF9
:103CC000688A69886F0A698A6A8860086A8A6B8864
:103CD00061086B8A6C88600A6C8A6D88610A6D8ADB
:103CE0006E88620A6E8A6F88630A6F8A688C640ABB
:103CF000688E698C650A698E6A8C660A6A8E6B8C1E
:103D0000670A6B8E6C8C680A6C8E6D8C690A6D8E7E
:103D10006E8C6E086E8E6F8C6F086F8E68A06A084E
:103D200068A269A06B0869A26AA06C086AA26BA06D
:103D30006D086BA2AF91A040BB0BCCA0CA0ECCA269
:103D4000CDA0CB1ECDA2CEA0CB1ECEA2CFA0CB1E8F
:103D5000CFA2C8A4CB1EC8A6C9A4CB1EC9A6CAA4FC
:103D6000CB1ECAA6CBA4CB1ECBA6CCA4CB1ECCA666
:103D7000CDA4CB1ECDA6CEA4CB1ECEA6CFA4CB1E4B
:103D8000CFA60895CF93DF9300D0CDB7DEB7982F9D
:103D900092959F70906699831A82803B09F148F44E
:103DA000803191F08037E1F0811111C080E9898381
:103DB00017C0803DA9F018F4803C31F008C0803E67
:103DC00079F0803F21F40CC08091000208C0982F48
:103DD000907F8F70903311F4806C01C080688A836B
:103DE0000E94F40362E0CE0101960E94EE020F9061
:103DF0000F90DF91CF910895662319F0803109F477
:103E000080E0C0CF9091060280910502892B11F0CD
:103E100086EA08C080910702882311F080E702C07B
:103E20000E94D833AFCF61E001960C94EE02CF939D
:103E3000FC01C4816C2F05960E940F0391E0C8130A
:103E400001C090E0892FCF910895EF92FF920F93D8
:103E50001F93CF93DF931F92CDB7DEB76FEF83E051
:103E600092E00E940F03882309F479C28093020232
:103E7000853010F480EF86DF80910302803809F4EA
:103E80003BC2803A09F42CC2811154C280910402D1
:103E9000803C09F496C190910102913011F4109286
:103EA0000102863409F4B7C008F5843209F46FC002
:103EB00050F4803209F44EC0823209F462C08E3070
:103EC00009F036C232C08C3209F476C020F48A324E
:103ED00009F419C22DC28E3209F484C0843409F069
:103EE00027C283E092E00E941C2B25C28A3C09F481
:103EF000B0C178F4863809F4AEC020F4843809F4EF
:103F000091C016C2843A09F4ACC0803B09F443C1A5
:103F10000FC28A3D09F4C3C120F4863D09F4A0C153
:103F200007C2803E09F0DEC1C1C18091050290E068
:103F3000982F882720910602822B209107022223A6
:103F400011F080E7F8C197FF02C086EAF4C10E9431
:103F5000A333F1C1809105028111F7CF809107024F
:103F6000882351F083E092E05EDF83E092E05FDF40
:103F7000882311F084E9DFC186E092E00E942630B8
:103F8000DAC160E071E083E092E0DED5D4C18091D7
:103F900005028111DACF80910702882391F283E034
:103FA00092E041DF83E092E042DF8111E3CF86E0DF
:103FB00092E00E942230BFC1809105028111C5CFDD
:103FC00080910702882309F4BCCF83E092E02BDFC5
:103FD00083E092E02CDF8111CDCF86E092E00E9459
:103FE0002430A9C190910602809107028111A9CFC6
:103FF00080910502811105C09F3008F0A6CF892F5E
:1040000007C0803A19F0803B09F09FCF91119DCFF6
:104010000E94FA2E1CC160E071E083E092E00E94F1
:10402000E12889C18091050281118FCF809106021C
:1040300081118BCF10910702111102C080EFA2DE17
:10404000612F80E091E00E943C471093000281E0E4
:1040500080930102FAC060E071E083E092E005D64F
:104060006AC1809106028C3021F081116ECFF12C53
:1040700002C0FF24F39490910702911113C0909114
:104080000502911107C081115CCF80E091E00E9490
:10409000D43178C0933009F054CF80E091E00E9491
:1040A000C13170C083E092E0BEDE83E092E0BFDE0B
:1040B000811160CF90910502292F2E7F80910702F8
:1040C0002830D1F4823010F487EA5CDE8091070258
:1040D00080FF02C087EA56DE8091050260E071E051
:1040E00080FF05C087E092E00E94E8314BC087E086
:1040F00092E00E94EE3146C0943061F481508031EC
:1041000010F087EA18C160E071E087E092E00E9459
:10411000C73138C08230A9F7933008F016CF00912C
:10412000080210E0102F002780910902082B91113E
:1041300014C080910602811109C001158FE3180790
:1041400029F480E091E00E94D43105C060E071E084
:10415000C8010E94DA316F2D4FDE80910502813057
:1041600039F460E071E0C8010E94CD316F2D44DE6A
:1041700080910502823009F0F2C060E071E0C80170
:104180000E94E1316F2D0F90DF91CF911F910F9120
:10419000FF90EF9031CE80910502813808F0D5CEA6
:1041A00060910702662309F4CCCE70E090E0982F6E
:1041B00088272091060240E051E0822B0E94F832CD
:1041C000BAC0809105028111C0CE80910602811192
:1041D000BCCE80910102813011F085E9ACC06091C4
:1041E0000702062F10E0E0900002F12C01151105E6
:1041F00009F4A9C0E114F10429F0E016F10628F44D
:1042000080EC99C0E12CFF24F39483E092E0698371
:104210000ADE698180E091E00E94EE02E01AF10A74
:1042200029F410920102E12CF12C0BC0F801E050AE
:10423000FF4FCF01A0E0B1E021912D93A817B9075E
:10424000D9F7E0920002EE2011F080E174C080E026
:1042500072C060E071E083E092E00E947C296BC054
:1042600080910502813808F070CE80910702882382
:1042700009F467CE83E092E0D6DD83E092E0D7DDFB
:10428000811178CE6091050270E0762F66278091CB
:104290000602682B87E092E00E9452334CC060E037
:1042A00071E083E092E00E94272A45C080910502D8
:1042B00081114BCE80910602811147CE8091070279
:1042C000882309F43ECE83E092E0ADDD83E092E006
:1042D000AEDD81114FCE87E092E00E94A1342BC069
:1042E00080910402843E21F50F90DF91CF911F91C0
:1042F0000F91FF90EF9086CD809104028A3219F0E1
:104300008A3D39F015C060E071E083E092E096D517
:1043100012C080910502811118CE80910602811190
:1043200014CE80910702811110CE0E94513203C039
:1043300080EF01C080EE0F90DF91CF911F910F9120
:10434000FF90EF901FCDEF2809F05ACF83E092E065
:104350006ADD60E080E091E00E94EE0262CF0F90A3
:10436000DF91CF911F910F91FF90EF9008951092E0
:1043700001020895FC01EF5FFE4F21E02083319799
:10438000608380E108959B0136952795DC01A60F97
:10439000B71FFC01820F931FE817F90729F020814E
:1043A0003E9131932C93F8CF0895FB01E40FF51F54
:1043B000480F591F8417950729F02291DC012D938E
:1043C000CD01F8CF08959C01633231F0623249F497
:1043D000803C910541F02F7781E02115314021F497
:1043E00002C081E0089580E008951F93CF93DF938A
:1043F000EC01688363E080E090E00E940C32882347
:10440000C9F0813820F4FE01319612E005C091E830
:104410009983FE01329613E0819363E0CF010E94FD
:104420000C32882339F0682F610FCE01DF91CF91D4
:104430001F91A0CF85E9DF91CF911F910895CF9271
:10444000DF92EF92FF920F931F93CF938C017B012A
:10445000C42FC42ED12CB601C70195DF82E0F8012C
:104460008083C183F701808187FD03C0C801019665
:1044700006C0C8010296CF5FF801C1831282A6016F
:10448000B70101960E94767B82E08C0FCF911F913D
:104490000F91FF90EF90DF90CF900895CF92DF9231
:1044A000EF92FF920F931F93CF938C016B0182EFDA
:1044B000F80111928A95E9F7411108C062E0C8013C
:1044C0008E539F4F0E940C327C0102C0E42EF12CCF
:1044D0000E940132833279F0F8E1EF16F10469F0BD
:1044E00080E2E816F10459F0E0E3EE16F10409F079
:1044F00043C0C0E605C0C0EB03C0C0E501C0C8E5CD
:10450000F801E054FF4FC083CF73C114D10481F090
:1045100080E9F60111928A95E9F765E06C0FC60112
:104520000E94557B66E06C0FC601C0960E94557BC9
:1045300061E06C0FC8010E94557B62E06C0FC801FE
:10454000C0960E94557B63E06C0FC801805A9F4F54
:104550000E94557B64E06C0FC80180579F4F0E94FA
:10456000557BB701C8018E539F4F0DDF8E2DF8018B
:10457000EF53FF4FE08201C080E0CF911F910F9178
:10458000FF90EF90DF90CF900895DF92EF92FF922F
:104590000F931F93CF93DF93CDB7DEB7C358D140AE
:1045A0000FB6F894DEBF0FBECDBF282F8B0140E0C1
:1045B000BE016D507F4FCE010196CD57DE4F28834F
:1045C000C358D1406BDFD82ECD57DE4F2881C3585A
:1045D000D140882309F441C0E82EF12C2338C1F0E2
:1045E00048F4213881F0223881F5A701BE016F59C6
:1045F0007F4F28C0243889F0253839F5A701BE013E
:104600006F5C7F4F1FC0A701BE016F5F7F4F1AC055
:10461000A701BE016F567F4F15C063EF70E06C0FAE
:104620007D1F605D7F4FA701C8010E94767BA701B7
:10463000BE016D507F4FC8018E0D9F1D0E94767B7D
:10464000DD0C03C0C8010E94767B6D2D70E0C801AF
:104650009ADE6D2DC8018EDE01C088EACD57DE4F8F
:104660000FB6F894DEBF0FBECDBFDF91CF911F9183
:104670000F91FF90EF90DF900895BF92CF92DF925D
:10468000EF92FF920F931F93CF93DF93EC017B0187
:104690006A01B22EBC01C70176DEC038D10558F4DC
:1046A00040E051E04C1B5D0B60E070E0C7018C0FF7
:1046B0009D1F0E94907B63E880E090E00E940C3296
:1046C0008C01000F111FB11006C0C017D10709F0EF
:1046D0004AC0E80131C021E0B2124DC0649709F030
:1046E00042C0E701649664E0CE010E94557B8823B6
:1046F000D1F16FE070E0CE0146DEC3E2D0E0CE0142
:104700000B960817190778F1F701EC0FFD1F1082BF
:1047100021968FEFC017D10730F4F701EC0FFD1F82
:1047200080832196F7CFC701800F911FFC0131973D
:104730001082319721E02083AE0156954795B6014E
:10474000C7010E949043882389F080E091E0F7013F
:104750009C01119221503040E1F7F6019C01119229
:1047600021503040E1F780E090E009C0B801C60177
:104770000ADEC80104C032E0B312F5CFC0CFDF912A
:10478000CF911F910F91FF90EF90DF90CF90BF904E
:104790000895CF92DF92EF92FF920F931F93CF93E2
:1047A000DF9300D0CDB7DEB77C018B016A0160EAF0
:1047B000CA012A830E940C3289830E9401322A8115
:1047C0004981893139F5403149F488E0F601709624
:1047D000D60101900D928A95E1F706C0483121F08B
:1047E0004830B1F540E001C04CE088E0E816F10443
:1047F00011F080E72EC021114360B601C8010E946C
:104800008E0488E0F801D60101900D928A95E1F7B7
:1048100068E012C08932E1F480E1E816F10449F75A
:10482000B601C8010E948B0680E1F801D601019013
:104830000D928A95E1F760E1C6010F900F90DF912C
:10484000CF911F910F91FF90EF90DF90CF9092CD7D
:1048500081E90F900F90DF91CF911F910F91FF9001
:10486000EF90DF90CF9008950F931F93CF93DF9336
:10487000CDB7DEB7C358D1090FB6F894DEBF0FBE6F
:10488000CDBF8C01CD57DF4F6883C358D0400E9405
:104890007732CD57DF4F6881C358D040811116C0A1
:1048A00028E0629FC00111240E949F45F801908179
:1048B000906299838A83B8016E5F7F4FCE01039621
:1048C0000E94037ACE0101960E947732CD57DF4FC6
:1048D0000FB6F894DEBF0FBECDBFDF91CF911F9111
:1048E0000F9108955F926F927F928F929F92AF92F5
:1048F000BF92CF92DF92EF92FF920F931F93CF93CD
:10490000DF93CDB7DEB7D2500FB6F894DEBF0FBE3F
:10491000CDBF8C014B01FC018481811108C00E9434
:10492000F4317C018F739927892B21F12BC0C801A9
:104930007ADAC8017CDA811123C0F80184818730DA
:10494000F9F485818033E1F48781813811F0823078
:10495000B9F4F8018681853099F48085833081F43B
:104960008185813069F4828581110AC08385813017
:1049700039F4D5CFC70192508130964028F002C05B
:1049800084E9ABC081E9A9C00E94EA035801F4E0C0
:10499000AF0EB11C9701AE014F5F5F4FB401C5016F
:1049A0000E94F544582E682E712C6114710409F48C
:1049B00093C083ECF801828353826801F2E0CF0E4A
:1049C000D11C652DC60150DF811187C024ECC801C0
:1049D0008E579F4FFC01208331965082652D44DF16
:1049E00081117BC0A301BE016F5F7F4FC5010E9493
:1049F000767B85ECF8018283C6010E9477328111B3
:104A00006CC0A301BE016F577F4FC5010E94767B2A
:104A100086ECF8018283C6010E94773281115DC065
:104A2000A301BE016F5F7E4FC5010E94767B87ECBC
:104A3000F8018283C6010E94773281114EC0E114D1
:104A4000F8E0FF06D1F580E8F401D50101900D9260
:104A50008A95E1F789E8F801828380E88383C601BB
:104A60000E947732811139C080E8F401E058FF4F8D
:104A7000D50101900D928A95E1F788E8F8018283CB
:104A8000C6010E947732811128C081E8F801828333
:104A900083E0838381E0848315828683C6010E943C
:104AA000773281111AC0B301660F771FC4016BDC26
:104AB000652D660FC4015EDC10C093E0F694E794A8
:104AC0009A95E1F7A701B401C5010E94767B80E8C1
:104AD000F8018283E382D4CF82EADE5F0FB6F894D6
:104AE000DEBF0FBECDBFDF91CF911F910F91FF9021
:104AF000EF90DF90CF90BF90AF909F908F907F907E
:104B00006F905F900895FF920F931F93CF93DF9361
:104B10008C01F62E80E8F80111928A95E9F780E081
:104B200090E00E940C32EC018138910530F46F2D39
:104B3000C8010E940C328C2F01C080E0DF91CF9120
:104B40001F910F91FF900895CF93DF93EC01109286
:104B50000703892B11F480E085C08A81833F31F4FB
:104B60008C81882309F47EC087EA7CC0843A19F4DA
:104B700091E49A838B838A81813419F0813809F01A
:104B80006EC08C81811105C08B81863B51F481E020
:104B90000EC0CE0148D9CE014AD98823A9F384E9B1
:104BA00061C0883B71F48A81813849F483E0809345
:104BB00007036C8170E0A0E040E050E01BC082E0A1
:104BC000F6CF843A09F04BC084E0F1CFFE01E40F48
:104BD000F51F958186819038D9F4813009F03FC066
:104BE0009781923059F4A16090930A0390E0029665
:104BF000480F591F4617570748F32CC0933018F435
:104C000091112DC0F0CF943071F3923141F5EBCF7B
:104C1000913871F4823019F5A260278130E0322F8B
:104C200022279085292B3093090320930803DECF98
:104C30002DE7290F223030F4813089F497819111CA
:104C40000EC0D4CF973869F4909107039068909381
:104C50000703CCCFA33009F47ECF1092070381EA7B
:104C600001C080EADF91CF9108956F927F929F9269
:104C7000AF92BF92CF92DF92EF92FF920F931F936A
:104C8000CF93DF93DC0112962C9112972111C5C0AE
:104C900013962C912111C1C0209107032F7024304D
:104CA00009F07CC06B018C010E94BC31209108038B
:104CB000309109038217930709F070C0F8018481CD
:104CC000811102C084E9ACC08F3608F0A8C0C801C9
:104CD000AAD8C801ACD88111F5CFD80114964C914F
:104CE000433080F350E0B8016B5F7F4FC6010E94F4
:104CF000767BF8018481D6019C919C3719F7760167
:104D0000B2E0EB0EF11CF601C181C7FF0AC0815071
:104D1000C138C1F67601F3E0EF0EF11CD601129610
:104D2000CC912C2F30E090E002972817390751F6EC
:104D3000C23060F1F70120813296D70111968C9133
:104D4000119787FF07C0C150813809F0BBCF31965A
:104D500012968C919EEF9C0F981708F4B3CF2538CC
:104D600061F47F01BFEFEB1AFB0A2081243009F0C8
:104D7000A9CF8913A7CFC35009C0203809F0A2CF0B
:104D80007F01E80EF11CC92FC81BD2CF40E060E0C4
:104D900070E0C80183DB982E811102C085E940C014
:104DA000A82EB12CC501880F991F2C2F30E0821737
:104DB000930709F087CFE601C259DF4F3801E1ECD4
:104DC0006E0E711CD3014C9150E0B701CE01EDDAAB
:104DD000F301408150E0B7016A0D7B1DCE01C09602
:104DE000E4DA0E94EA03B801CE010E94FB3D811182
:104DF000D5CFA501BE01C601D8DA692DC601DF9164
:104E0000CF911F910F91FF90EF90DF90CF90BF90C7
:104E1000AF909F907F906F90ADCA86EA01C080E707
:104E2000DF91CF911F910F91FF90EF90DF90CF9086
:104E3000BF90AF909F907F906F9008959F92AF9298
:104E4000BF92CF92DF92EF92FF920F931F93CF9377
:104E5000DF931F92CDB7DEB75C018B010E94BC319E
:104E600020910803309109038217930711F025E977
:104E70009AC1F50182818E3909F0A0C083818A39F7
:104E800009F090C1F5018481882309F487C1C50127
:104E90000E94131FC5010E94171F882311F024E9E7
:104EA00082C1809107038F70813009F780910A03D6
:104EB000843009F054C00E94EA037501F5E3EF0E57
:104EC000F11C650145E0C40ED11CF501648170E060
:104ED000C60159DA40E0B701C801E0DA282F30E016
:104EE0002115310521F2F501848190E082179307A5
:104EF00008F49C012033310558F440E350E0421B94
:104F0000530B60E070E0C601820F931F0E94907BFC
:104F1000A801B701C6010E94AF3E8111A8CF80E36E
:104F2000F80180836801F2E0CF0ED11C580141ECFA
:104F3000A40EB11CF5014081B701C60180DA982E9C
:104F4000B701605D7F4FF5014081C601890D911D5C
:104F500076DA890DF801818362E0680F21C0823022
:104F600021F0823121F421E005C022E003C081114B
:104F700017C120E0F501E480F12CB5016B5F7F4F94
:104F8000A701C50129830E947F7B0E94EA03298132
:104F9000A801B501C70171DB009709F468CF682F3C
:104FA000C8010F90DF91CF911F910F91FF90EF906B
:104FB000DF90CF90BF90AF909F90DCC9803809F010
:104FC000BBC0809107038F70823009F050CFF5018C
:104FD0008481882309F463CFC5010E94131FC50192
:104FE0000E94171F282F81115ACFF5018381843821
:104FF00019F4C480D12C53C0863809F0D3C0F50110
:10500000E480F12CF1E0EF1AF1086701F5018581E8
:10501000811108C0A701B5016A5F7F4FC5010E94D9
:105020007F7B3DC0813891F4F801F395E082B501B2
:105030006A5F7F4FA701C80129830E94767BF80130
:10504000EF5FFE4F82E080832981ADC0823809F096
:1050500026CFF801EF5FFE4F8081823009F01FCF2D
:1050600010826801D394F601808190E09701280FA7
:10507000391F2130314008F012CFA701B5016A5F16
:105080007F4F800F911F0E94767BF6018081670120
:10509000C80ED11CA601B801C5010E94767B60EA4A
:1050A00080E090E00E940C32892B61F0F501808154
:1050B000803809F075C0B5016B5F7F4F21E0A80112
:1050C000C6015FC00E94EA0320E0A801B501C60145
:1050D000D4DA7C01892B09F4CACE80910A0382308C
:1050E00049F5F80180818111C2CE8181823009F0B9
:1050F000BECEFCE0EF16F10408F4B9CEA701435090
:105100005109C8010296FC010196208121110EC0AF
:105110007A01C8010A96E817F90708F4A8CEBF017A
:105120006F5F7F4FC8010E94767B04C041505109D8
:1051300051F79DCE6E2D34CF8438A1F580910703B1
:105140008F70833009F093CEF5018381803809F0A8
:10515000A6CE8481882309F4A2CEC5010E94131F24
:10516000C5010E94171F81119ACEF50180818038F8
:10517000B9F4B5016B5F7F4FF501848120E0A80190
:1051800090E00F90DF91CF911F910F91FF90EF90E2
:10519000DF90CF90BF90AF909F90FBCA20E703C0F5
:1051A00021EA01C026EA822F0F90DF91CF911F9153
:1051B0000F91FF90EF90DF90CF90BF90AF909F90B6
:1051C0000895CF92DF92EF92FF920F931F93CF93A8
:1051D000DF931F92CDB7DEB7FC018281811181C0C0
:1051E000838181117EC08B016F010E940132682F83
:1051F000813161F4B801C6010F90DF91CF911F9109
:105200000F91FF90EF90DF90CF906CCBF6018481EF
:10521000882311F085E966C069830E94F4317C011E
:105220006981D1D88111F6CF0E94EA03A701495FB5
:105230005F4F83E0569547958A95E1F7B801C6011F
:105240002DD9882339F3B601C8010E94713E81111E
:10525000E1CF7601F1ECEF0EF11CF701608170E017
:10526000C6018E539F4F8FD8F701408150E0B8019F
:10527000C8018D569F4F99D8F701408150E0CA016F
:105280008D569F4FB801605D7F4F800F911F8DD865
:10529000D601A054BF4F82E48C93F701F080CD017A
:1052A0000E94773281111EC0FF0C23E4C801805791
:1052B0009F4FFC0120833196F394F08224E03196D5
:1052C00020830E94773281110DC066E8C8010F90DB
:1052D000DF91CF911F910F91FF90EF90DF90CF90D2
:1052E00084C886EA0F90DF91CF911F910F91FF90B4
:1052F000EF90DF90CF9008950F931F93CF93DF939C
:10530000FC012281213009F09CC08381982F907B81
:10531000903B31F48F70DF91CF911F910F91DBC5DE
:105320009FE7980F953028F4DF91CF911F910F914F
:105330002CC9EB01803A31F188F4813009F456C070
:1053400098F1823009F476C0863809F07AC060E3BB
:10535000CE01DF91CF911F910F9147C88A3AC1F0DA
:1053600048F4873A08F06DC0DF91CF911F910F91FB
:105370000C945B368C3A09F064C05FD598838983BE
:1053800062E00BC061E0CE010E94557B64E105C084
:1053900062E0CE010E94557B6BE0CE01DF91CF91A0
:1053A0001F910F910C94BA2182E98883198261E8D8
:1053B00080E090E00E940C32009709F442C033E094
:1053C000880F991F3A95E1F79A838B8363E880E011
:1053D00090E00E940C320097A1F124E0880F991F01
:1053E0002A95E1F79C838D8366E0D7CF60E8CE01F4
:1053F0000E940C328C01892B89F469E8CE010E944D
:105400000C328C01892BE9F068E8CE01800F911FE6
:105410000E940C320097A9F0080F191FB801CE01A5
:105420000E94C3210115F1E01F0711F400E010E014
:10543000602FB3CF61E8CE01EFD7009711F0682F4E
:10544000ACCF88EADF91CF911F910F910895CF9251
:10545000DF92FF920F931F93CF93DF931F92CDB7ED
:10546000DEB76C01FC018481811106C0F6018281E6
:10547000813009F098C00AC0C6010E94131FC601FE
:105480000E94171F882391F384E9CDC0F601838120
:10549000803E91F48481883011F080E7C4C00E947E
:1054A000EA03C60107960F90DF91CF911F910F91EC
:1054B000FF90DF90CF90DFC69FEF980F9E3080F473
:1054C000F60184818051803240F7C60103960F9027
:1054D000DF91CF911F910F91FF90DF90CF9038C651
:1054E00090E8980F9C3018F0803A09F05EC07CD7A5
:1054F0008C01892B09F45BC084D7282F893149F4AA
:10550000C8018F778034910529F10038110529F6FB
:1055100021C0893251F4C8018F7B80389105D1F0C8
:105520000115114009F0B9CF15C0682FC8012983B2
:105530000E94E3212981811110C0F60183818738FF
:1055400011F482E004C0863819F583E0F601838304
:105550000E94EA03C60103961DC0213151F5C8011E
:105560008F739927892B29F5C80192508130964075
:1055700000F5F601F480F0FE04C0F6018381813865
:10558000D1F4F60183818A3800F18C3808F44AC0DE
:1055900085E949C00F90DF91CF911F910F91FF9046
:1055A000DF90CF90A4C788EA3EC081EA3CC082EA7F
:1055B0003AC081E938C095819111EACFFA94F58219
:1055C0008483FFEFCF1ADF0ADCCF833850F48138B1
:1055D00079F040F58038E1F628E0F29EC001112410
:1055E00004C0F0E1FF9EC00111240817190781F6DD
:1055F0000E94EA036F2D70E0C60105960E94C32148
:10560000F60193812DE7290FC6010396223010F68B
:105610006F2D0F90DF91CF911F910F91FF90DF9031
:10562000CF9022C980E00F90DF91CF911F910F9111
:10563000FF90DF90CF900895CF93DF93EC018C81A2
:10564000811103C067D480E009C0CE010E94131FFE
:10565000CE010E94171F8823A9F384E9DF91CF911F
:10566000089581508E3028F421E3829FC0011124D7
:1056700008958FEF9FEF0895FB01AC01485F5F4FE6
:10568000DC013D91CD012191321721F0311107C08C
:105690002F3F29F48417950799F780E0089581E05A
:1056A0000895CF93DF931F92CDB7DEB741E06EEA46
:1056B00072E0CE0101960E942C0499818EEF892719
:1056C0000F90DF91CF910895CF93DF931F92CDB7C5
:1056D000DEB79EEF89278983E4DF9981891739F046
:1056E00041E06EEA72E0CE0101960E942E040F9016
:1056F000DF91CF910895CF92DF92EF92FF921F93A7
:10570000CF93DF93CDB7DEB7E1970FB6F894DEBF46
:105710000FBECDBF7B01142FA4DF6C0197FF02C029
:105720008FE052C041E3BC01CE0101960E942C04DF
:105730008111F6CF1123C9F08AA51FEF180F1E3F64
:1057400008F03FC0E114F10409F43EC0BE01675FF8
:105750007F4FC70191DF882329F01AA7111121C0BB
:1057600010E81FC08CA58AA71BC099A51FEF190FB1
:105770001E3F38F5E114F10441F48DA580FD02C00F
:1057800080E001C080E1892B1FC0BE016F5F7F4FA9
:10579000C70172DF882311F019A7E0CF8BA589A775
:1057A00010E041E3B601CE0101960E942E041111D2
:1057B0000AC08DA585FD10E483FF05C0812F80629E
:1057C00003C080E801C0812FE1960FB6F894DEBFD8
:1057D0000FBECDBFDF91CF911F91FF90EF90DF9073
:1057E000CF9008952F923F924F925F926F927F9247
:1057F0008F929F92AF92BF92CF92DF92EF92FF92E1
:105800000F931F93CF93DF93CDB7DEB7E6970FB615
:10581000F894DEBF0FBECDBF5C016CAB372E6A01C2
:10582000FC016480758086809780283071F4FA01CD
:105830002080018110E0102F00278281082BF3E0E7
:10584000CF0ED11C2A942A940BC02B3031F4FA01CC
:1058500021906F010CA9172F03C00CA9172F212C21
:105860001AA219A2E12CF12C1BAA412C512C69A1DE
:105870007AA14FE0CE0142962EAB0E944F04382F02
:105880002EA98111F2C068A167FD07C0E114F104DF
:1058900009F0D8C0E9A0FAA0D5C08A899B898F3FBA
:1058A000FFEF9F0721F52E3019F41B8A1A8ADFC0FB
:1058B0002A3059F43FEF431A530AF50155824482C6
:1058C00089A19AA1908B8787DBC0253041F4FBA981
:1058D000FF2309F4D5C081E1FE013196CBC023300E
:1058E00009F0CEC0312CF50131822082C9C04E8929
:1058F0005F894416550608F42A01293029F4481511
:10590000590509F09DC0B3C02330E9F4488D598D85
:105910004615570509F094C08115FFE39F0709F468
:105920008FC03A8D33254CA9342309F089C0EEE7A6
:10593000E21508F485C0F601908381832394C601A3
:1059400002966C017DC06F71F1F02B30E1F469A11A
:105950007AA1615F7F4F422DCE0183962EAB3DAB86
:105960000E944F042EA981116BC0422D50E0BE0150
:105970006D5D7F4FC6010E94697B2EA93DA9892BD1
:1059800009F05EC074C0688D798D6615770589F55C
:10599000EA8DEF7BE83331F42C3009F468C026300F
:1059A00059F405C02D3009F462C0273029F480175E
:1059B000910709F045C05BC08017910709F03FC00F
:1059C000253009F454C02A3009F451C02830B9F503
:1059D000222009F44CC0F601008110E0102F0027AE
:1059E0008181082BF2E0CF0ED11C2A942A943A012F
:1059F00027C08017910721F5253011F56815790525
:105A000071F4FE017296DE01119681E101900D9212
:105A10008A95E1F7E12CF12C31E03BAB13C048153E
:105A2000590571F43BA931110BC0FE017296DE01DC
:105A3000119681E101900D928A95E1F701C03B0139
:105A4000E12CF12C89A19AA10F9638A1432F4F7117
:105A5000840F911D9AA389A336FD09CF4C895D89D6
:105A6000840F951F9AA389A302CF32E00AC081E177
:105A7000FE017296D50101900D928A95E1F701C061
:105A800031E0832FE6960FB6F894DEBF0FBECDBF90
:105A9000DF91CF911F910F91FF90EF90DF90CF900A
:105AA000BF90AF909F908F907F906F905F904F903E
:105AB0003F902F900895AF92BF92CF92DF92FF92C6
:105AC0000F931F93CF93DF93CDB7DEB761970FB6D8
:105AD000F894DEBF0FBECDBF8C016B015A01F22ED0
