:020000040000FA
:200000002C03550053004200200053006D00610072007400200043006100720064002000E6
:2000200052006500610064006500720000000C03410074006D0065006C0000000403090457
:2000400009025D00010100803209040000030B0000003621000100070300000000093D00C1
:2000600000093D0000002A00000040050000FE0000000000000000000000300201000F018A
:20008000000000000000000107058202400000070501024000000705830308000A12011079
:2000A0000100000008EB0311600000010200011E202FFCFFFFFEFFFFFFFFFFFFFFFFFFFF79
:2000C000FFFFFFFFFFFFFFFFFFFFFFFFFFFFFFFFFF1F20414136D08C5ED2BF3BA048AFE637
:2000E000DCAEBAFEFFFFFFFFFFFFFFFFFFFFFFFFFFFFFF20209817F8165B81F259D928CEDA
:200100002DDBFC9B02070B87CE9562A055ACBBDCF97E66BE792120B8D410FB8FD0479C1961
:200120005485A648B417FDA808110EFCFBA45D65C4A32677DA3A481430FFFFFFFF00000064
:200140000000000000FFFFFFFFFEFFFFFFFFFFFFFFFFFFFFFFFFFFFFFFFFFFFFFFFFFFFFBB
:20016000FFFFFFFFFFFFFFFFFF15307329C5CC6A19ECEC7AA7B048B20D1A58DF2D37F481B9
:200180004D63C7FFFFFFFFFFFFFFFFFFFFFFFFFFFFFFFFFFFFFFFFFFFFFFFF1630B70A7683
:2001A00072385E543A6C2955BF5DF20255382A5482E041F759989BA78B623B1D6E74AD20E3
:2001C000F31EC7B18E37058BBE22CA87AA17305F0EEA907C1D437A9D817E1DCEB1600AC080
:2001E000B8F0B51331DAE97C149A28BD1DF4F829DC9292BF989E5D6F2C26964ADE1736003C
:2002000020FFFFFFFFFFFFFFFFFFFFFFFF00000000000000000000000001000000FFFFFFCC
:20022000FF0120512563FCC2CAB9F3849E17A7ADFAE6BCFFFFFFFFFFFFFFFF00000000FF71
:20024000FFFFFF022096C298D84539A1F4A033EB2D817D0377F240A463E5E6BCF847422CD4
:20026000E1F2D1176B0320F551BF376840B6CBCE5E316B5733CE2B169E0F7C4AEBE78E9B01
:200280007F1AFEE242E34F0618FFFFFFFFFFFFFFFFFEFFFFFFFFFFFFFFFFFFFFFFFFFFFF6B
:2002A000FF07183128D2B4B1C96B1436F8DE99FFFFFFFFFFFFFFFFFFFFFFFF08181210FF6E
:2002C00082FD0AFFF40088A143EB20BF7CF69030B00EA88D1809181148791EA177F973D5C5
:2002E000CD246BED11106378DAC8FF952B19070C0F3021300906052B0E03021A0500041413
:200300000D144F73454944040210313438333039313235310000FF000D940000CF93DF939C
:20032000CDB7DEB72597CDBFDEBF8C839D830F940A029D8199838C818A8362E0CE010196E5
:200340000F947A012596CDBFDEBFDF91CF910895662339F09C0122272115314611F480E084
:2003600090E90C948E018091222190912121892B19F086E89AE609C080912321882319F0A1
:2003800080E097E602C00E9491120C948E0161E001960D947A01CF93FC01C4816C2F05967C
:2003A0000F94680191E0C81301C090E0892FCF910895EF92FF920F931F93CF93DF931F9214
:2003C0001F92CDB7DEB76FEF8FE191E20F94680180931E2190911F21903809F486C218F43A
:2003E000992391F19AC2903A09F46FC29F3F09F094C2823008F49DC22091202126FD02C05A
:2004000063E001C064E025FD6F5F24FD6F5F681390C28FE191E2FC0130E0419134274E2F4E
:20042000481B4617D0F3311184C22F7409F081C28FE191E20F900F90DF91CF911F910F9191
:20044000FF90EF900D947A01853009F063C280912021803C09F4A1C190911D21913011F40D
:2004600010921D21863409F4B4C0C0F4843209F468C050F4803209F442C0823209F459C023
:200480008E3009F047C224C08C3209F484C0843409F499C08A3209F03DC26AC08A3C09F40A
:2004A000C7C150F4843A09F4B9C0803B09F45FC1843809F02FC293C08A3D09F4E2C120F4F0
:2004C000863D09F4BDC126C2803E09F002C2E1C180912121813818F086E89AE620C29091D4
:2004E0002321992319F080E097E619C290E0982F882720912221822B0E94401210C28091DD
:2005000021218111E9CF80912321882369F08FE191E20E94C7018FE191E20E94CB018823AD
:2005200019F084E899E6FBC182E291E20E94F50DF6C14CE150E265E08FE191E20E949F050C
:20054000EEC1809121218111C7CF80912321882351F28FE191E20E94C7018FE191E20E945C
:20056000CB018111DECF82E291E20E949C0DD7C14CE150E265E08FE191E20E9417068115DA
:2005800020E9920709F4CBC189839A830E94350F9A818981C4C18091212181119DCF809115
:2005A0002321882309F49FCF8FE191E20E94C7018FE191E20E94CB018111B3CF82E291E258
:2005C0000E94640EACC165E08FE191E20E949909A6C165E08FE191E20E946507A0C180911F
:2005E0002121811179CF80912221811175CF10912321193008F077CF111101C018E0612FDE
:200600008CE190E20E945F238111F9CF10931C2181E080931D21812F90E005C180912221B1
:200620008C3021F0811158CF10E001C011E090912321911113C090912121911107C081115A
:2006400052CF8CE190E20E94031086C0933009F04ACF8CE190E20E94BD0F7EC08FE191E25C
:200660000E94C7018FE191E20E94CB01811159CF809121218E7F883011F5809123218230E0
:2006800020F487E89AE60E948E018091232180FF04C087E89AE60E948E01809121216CE1CE
:2006A00070E280FF05C083E291E20E943A1004C083E291E20E945110612F0E94A801809155
:2006C000212190912321843069F49150903118F087E89AE624C16CE170E283E291E20E94CB
:2006E000D50F3AC09230A1F7833008F0F5CEE0902421F12CFE2CEE2490912521E92A81113A
:2007000015C080912221811109C0E1148FE3F80629F48CE190E20E94031005C06CE170E2DB
:20072000C7010E940C10612F0E94A80180912121813041F46CE170E2C7010E94EC0F612F8B
:200740000E94A80180912121823009F0F2C06CE170E2C7010E942310612F0F900F90DF9124
:20076000CF911F910F91FF90EF900C94A80180912121813808F0B0CE60912321662309F435
:20078000B2CE70E090E0982F8827209122214CE150E2822B0E948C11C2C0809121218111FD
:2007A0009BCE80912221811197CE80911D21813019F085E899E6B3C0E0902321F12C0091BB
:2007C0001C2110E0E114F10419F4E12CFF24F3940115110531F00E151F0528F4C8019C66C3
:2007E0009EC000E011E08FE191E20E94C7016E2D8CE190E20F947A010E191F0919F41092E7
:200800001D210BC0D701A45EBF4DCD01ECE1F0E22D912193E817F907D9F700931C21002348
:2008200021F0C801992791667AC080E090E977C04CE150E265E08FE191E20E9430086FC04D
:2008400080912121813808F047CE80912321882309F449CE8FE191E20E94C7018FE191E23B
:200860000E94CB0181115DCE6091212170E0762F662780912221682B83E291E20E94EC113A
:200880004EC04CE150E265E08FE191E20E94E80846C08091212181111FCE80912221811173
:2008A0001BCE80912321882309F41DCE8FE191E20E94C7018FE191E20E94CB01811131CE38
:2008C00083E291E20E9417132AC0853019F580912021843EF9F40F900F90DF91CF911F9108
:2008E0000F91FF90EF900C94B301853010F1809120218A3D79F4809121218111EDCD80910A
:2009000022218111E9CD809123218111E5CD0E94DF1005C080E09FE602C080E09EE60F9033
:200920000F90DF91CF911F910F91FF90EF900C948E010F900F90DF91CF911F910F91FF90CE
:20094000EF90089510921D210895DC01A60FB71FFC01769567956E0F7F1FE617F70729F063
:2009600080819E9191938C93F8CF08958F929F92AF92BF92CF92DF92EF92FF920F931F9384
:20098000CF93DF93EC0186E291E0FE019C01119221503040E1F7611108C062E0CE018051A9
:2009A0009F4F0E9497108C0102C0062F10E008311105E1F488E1FE01EB5DFE4F808366E022
:2009C000CE010E945C7167E0CE01C0960E945C7168E0CE01805A9F4F0E945C7169E0CE0198
:2009E00080579F4F0E945C7181E45EC000321105E9F50E948C10FE01EB5DFE4F9E01205D2C
:200A00003F4F4901205D3F4F5901205D3F4F69012C563F4F79018232A1F080E280836EE1A1
:200A2000CE010E945C716FE1C4010E945C7160E2C5010E945C7161E2C6010E945C7184E898
:200A400013C080E2808360E0CE010E945C7161E0C4010E945C7162E0C5010E945C7163E0B1
:200A6000C6010E945C7182E4F70121C00033110539F580E3FE01EB5DFE4F808364E1CE017C
:200A80000E945C7165E1CE01C0960E945C7166E1CE01805A9F4F0E945C7167E1CE018057D2
:200AA0009F4F0E945C7183E4FE01EC5DFE4F8083B801CE0180519F4F0E94A504802F01C0D8
:200AC00080E0DF91CF911F910F91FF90EF90DF90CF90BF90AF909F908F900895CF93DF936D
:200AE000EC018B81873811F482E003C0863851F483E08B830F940602CE010396DF91CF91BD
:200B00000C940A1185E899E6DF91CF9108950F931F93CF93DF938C010E949710EC01BC0119
:200B2000C8010E94A504CF3FD10519F010F0C0E0D0E08C2FDF91CF911F910F910895CF938A
:200B4000DF93EC0110922322009709F465C08A81833F39F48C81882309F461C087E89AE6D7
:200B600063C0813409F05EC08B81863B19F0883B09F058C08C81811106C06C8170E0A0E0BA
:200B800080E090E010C0CE010E94C701CE010E94CB01882391F384E899E646C030E02E5F82
:200BA0003F4F820F931F86179707E0F5FE01E80FF91F35812681303889F4A160213091F52C
:200BC0003781323041F018F4332329F02BC0343011F0323139F53093262218C0313871F4BD
:200BE000A2602230F9F4478150E0542F44273085432B409324225093252208C0343831F40F
:200C0000A460213079F4378131110CC0A73031F68B818093232203C080E090E005C080E032
:200C200090E902C081E89AE6DF91CF910895CF92DF92EF92FF920F931F93CF93DF931F9266
:200C4000CDB7DEB76C018A01DC0112968C9112978E3909F065C013968C9113978A3909F027
:200C600028C114968C91882309F41DC1C6010E94C701C6010E94CB01811118C18091232217
:200C8000863B09F05AC00E94B80F20912422309125228217930709F050C0809126228430CF
:200CA00069F40F940602B801C60104960E948771882309F442C0F801F395F1C0823031F0C9
:200CC000823131F0811129C020E003C022E001C021E0F601E480F12CB6016B5F7F4FA701CF
:200CE000C60129830E9478750F9406022981A801B601C7010E9461720097F9F0F801F395FF
:200D0000811521E0920711F4108201C08083D801AF5FBE4F81E08C93C2C081E89AE6CBC0DE
:200D2000803809F0C6C0D60113968C91863809F0C0C080912322883B19F085E899E6BBC01F
:200D4000F6018481813408F4AEC0C6010E94C701C6010E94CB018111A9C0D60115968C9178
:200D600015978138D1F4F801F39514968C9114978150808314964C9150E041505109B60129
:200D80006A5F7F4FC8010E946F75F801EF5FFE4F82E0808380E090E98EC0823821F5F80184
:200DA000EF5FFE4F8081823009F080C010823197E080F12CF601448150E0B6016A5F7F4F9B
:200DC000C8018E0D9F1D0E946F75F1E0EF1AF108D60114968C91E80EF11CA701B801C601D1
:200DE0000E946F750FC0811161C0F601E480F12CF1E0EF1AF108B6016A5F7F4FA701C601E3
:200E00000E9478750F94060220E0A801B601C7010E946172009709F490CF209126222230BD
:200E200069F5D8012C91211129C011962C91223029F58C30910550F17C01B3E0EB1AF1082E
:200E400098012E5F3F4FF9012F5F3F4F408141110FC09801245F3F4FE217F30778F0BF0121
:200E60006F5F7F4FA701C8010E946F75C70106C0E1E0EE1AF108E114F10429F78115F1E01E
:200E80009F0721F4F801F395108203C0F801F3958083F801EF5FFE4F81E08083319780817C
:200EA00090E0916608C080E097E605C084E899E602C086E89AE60F90DF91CF911F910F9107
:200EC000FF90EF90DF90CF9008950F931F93CF93DF93CDB7DEB7CB54D240CDBFDEBF8C0171
:200EE000FC0182818111AFC083818111ACC08481811105C0F8018481811117C00AC0C80199
:200F00000E94C701C8010E94CB01882399F384E89DC00E947E108C018F3FFFEF9F0709F414
:200F200090C00E948C10823211F085E88FC0C8018F778115914019F0003C1105B1F70F94D6
:200F40000602B80113E0769567951A95E1F7CE0101960E94B604882341F30AE112E00C0FB6
:200F60001D1F0E5F1F4FAE014F5F5F4FBE0166577E4FC8010E94A61E8111D7CFCA5DDE4F4B
:200F80006881C652D14070E0C8010E94A504CA5DDE4F4881C652D14050E0BE0166577E4F1C
:200FA00087E291E08C0F9D1F03960E947871CA5DDE4F4881C652D14050E0CA010396BE0143
:200FC00066547E4FE7E2F1E0EC0FFD1F8E0F9F1F0E94787182E4C65EDD4F8883CA51D24005
:200FE000CA5DDE4F8881C652D140C55EDD4F8883CB51D240CE01865E9D4F0E940A118115F1
:20100000F0E99F0721F583E4C95DDE4F8883C752D140CA5DDE4F8881C652D140880F8F5F41
:20102000C85DDE4F8883C852D14084E0C75DDE4F8883C952D140CE01895D9E4F0E940A11DD
:2010400006C082E801C086E89AE601C099E6C55BDD4FCDBFDEBFDF91CF911F910F9108953F
:20106000EF92FF920F931F93CF93DF93EA01FC011281113009F0A0C0FC018381863809F465
:2010800086C040F4813009F44FC018F1823009F471C092C0803A79F008F48EC0843A08F0BB
:2010A0008BC0BA01815ADF91CF911F910F91FF90EF900C94BE146DE0CA010E945C71FE0129
:2010C000F39584E18083CF5FDE4F188384E191E678C082E98883198261E880E090E00E944A
:2010E0009710009709F468C023E0880F991F2A95E1F79A838B8363E880E090E00E94971015
:20110000009709F459C004E0880F991F0A95E1F79C838D83FE01F39586E08083CF5FDE4FFE
:20112000188386E091E64DC060E8CA010E9497108C010097B1F468E8CE010E9497107C0120
:201140000097D1F169E8CE018E0D9F1D0E949710009791F1E80EF91EE114F1E0FF0609F08C
:201160008701FE01F3950083CF5FDE4F81E08883C80120C061E8CA010E9497100097E1F0A8
:20118000FE01F3958083CF5FDE4F188313C063E0CA0102960E949710009789F020E328834F
:2011A00022E0280F2983FE01EF5FFE4F1083D39528830296916605C088E89AE602C085E897
:2011C00099E6DF91CF911F910F91FF90EF9008950F931F93CF93DF93EC018C81811105C04C
:2011E0008A81813009F098C00BC0CE010E94C701CE010E94CB01882399F384E899E694C02B
:201200008B81803E71F48C81883009F088C00F940602CE010796DF91CF911F910F910C94C2
:201220003A0F9FEF980F9E3068F48C818051843008F075C0CE010396DF91CF911F910F91BF
:201240000C94C60E80588C3008F06CC00E947E108C01009709F45AC00E948C10833259F4B7
:201260000115114009F055C0CE01DF91CF911F910F910C946E05823269F4003C1105A1F300
:20128000C8018F778115914079F30930124009F040C0EACF8131E9F5C801925081309640AD
:2012A000C0F58C8180FF0AC09B81913839F02D81211129C081508D839C8321969B819138B0
:2012C000A1F038F49038F9F428E0829FC00111240DC093589730B8F420E1829FC00111243A
:2012E000813028E0920778F401C0C8010817190751F40F940602CE010396DF91CF911F918F
:201300000F910C940A1185E899E60EC082E89AE60BC081E899E608C088E89AE605C080E03E
:2013200097E602C081E89AE6DF91CF911F910F910895CF93DF93EC018C81811105C00E9401
:20134000990D80E090E90AC0CE010E94C701CE010E94CB01882399F384E899E6DF91CF91DC
:201360000895FB0120E0DC014D91CD013191431731F0243048F0411107C03F3F29F42F5F40
:20138000283089F780E0089581E00895CF93DF931F92CDB7DEB741E06EEFCE0101960E9456
:2013A0000E2399818EEF89270F90DF91CF910895CF93DF931F92CDB7DEB79EEF98279983A3
:2013C0000E94C6099981891731F041E06EEFCE0101960E941C230F90DF91CF910895EF926F
:2013E000FF920F931F93CF93DF93CDB7DEB76497CDBFDEBF8B01E42E815092E1899FF02CD1
:20140000112442E16F2DCE0101960E940E2381115CC02989EE2061F10115110529F42295DF
:201420002F708FE0821B54C0822F807F803F09F44EC0BE01675F7F4FC8012C8B0E94B10944
:201440002C89322F3F70882379F022952F702F5F2F70922F9295907F932B998B1FE0121B2B
:2014600011112BC01FEF29C09A89907F932B23C00115110521F4822F80958F7029C0322F45
:201480003F703F3021F1BE016F5F7F4FC8012C8B3B8B0E94B1092C89207F3B89882341F02B
:2014A00091E0930F9F70292B298B1FE0191BD8CF9A899F70922B998B10E042E16F2DCE0197
:2014C00001960E941C23812F03C08FE001C08FEF6496CDBFDEBFDF91CF911F910F91FF90A1
:2014E000EF9008950F931F93CF93DF931F921F92CDB7DEB7082F162F42E06CEFCE010196CE
:201500000E940E23811120C0015021E030E002C0220F331F0A95E2F789819A81113029F4E4
:20152000209530952823392302C0282B392B29833A8342E06CEFCE0101960E941C2391E073
:20154000811103C090E001C091E0892F0F900F90DF91CF911F910F9108951F93CF93DF935B
:201560001F921F92CDB7DEB7182F42E06CEFCE0101960E940E23115021E030E002C0220F8E
:20158000331F1A95E2F789819A812823392381E0232B09F080E00F900F90DF91CF911F91DF
:2015A0000895CF93DF93EC018FE6888387E189838091372285FF02C081E801C080E88A838A
:2015C00082E08B8390912B2220912C222C839D8392E89E8391E09F8320913122288723E873
:2015E00029878A872091292230912A223B872C8726E82D8723E02E87209132222F872091C6
:201600003322288B20913422298B25E82A8B8B8B80913522209136222C8B8D8B8AE88E8B64
:201620009F8B0E94C609888F409137224F7161F489818E5FFE01F3958083CF5FDE4F91E06C
:20164000988390E0916615C089818E5F840F898384E8898F4A8F6091382270913922615FD9
:201660007F4FCE014B960E945122813009F78FEF9FEFDF91CF9108952F923F924F925F9249
:201680006F927F928F929F92AF92BF92CF92DF92EF92FF920F931F93CF93DF93CDB7DEB72F
:2016A000E397CDBFDEBF6C015B018A01FC016480758086809780273069F4FA012080A180D0
:2016C000B12CBA2CAA248281A82A0D5F1F4F2A942A9407C02A3021F4FA0121908F0101C01B
:2016E000212C19A21AA2312C412C512C69A17AA14FE0CE0142962BAB0E9451222BA9811193
:20170000DDC0EA88FB88FFEFEF16FF06F9F4293059F43FEF431A530AF6014482558289A106
:201720009AA18787908BD6C0243039F4332009F4D1C081E1FE013196C6C0243008F0CAC0C9
:20174000822D90E0F60180839183C4C04E895F894416550608F42A01283021F44815590515
:2017600009F4AEC06A8D683311F472E001C071E0888D998D8615970581F4E114FFE3FF0640
:2017800061F0722B733049F43EE7321530F0F801F082E18223940E5F1F4FEA14FB0409F099
:2017A00059C02430F1F48815990551F4FE017296DE01119671E101900D927A95E1F70FC092
:2017C0004815590571F431100AC0FE017296DE01119671E101900D927A95E1F702C03324CF
:2017E000339486159705B9F5683311F472E001C071E0E114FFE3FF0661F0722B733049F48F
:201800003EE7321530F0F801F082E18223940E5F1F4F243009F454C0293009F451C02730B9
:2018200081F4222009F44CC0F801E080F12CFE2CEE248181E82A0E5F1F4F2A942A943A0190
:201840000AC0683319F4253019F43AC02630C1F13C0101C0750188A18F7199F489A19AA123
:201860000F9648A1542F5F71850F911D89A39AA346FD22C04C895D89480F591F49A35AA344
:201880001BC02A3059F769A17AA1615F7F4F422DCE0183962BAB0E9451222BA98111DECFBB
:2018A000422D50E0BE016D5D7F4FC8010E9462752BA9892B99F604C0570118CF82E00BC0A9
:2018C00081E1FE017296D60101900D928A95E1F780E001C081E0E396CDBFDEBFDF91CF91AD
:2018E0001F910F91FF90EF90DF90CF90BF90AF909F908F907F906F905F904F903F902F9076
:2019000008950F931F93CF93DF9300D01F92CDB7DEB720E03FE32093292230932A22109297
:201920002F221092302210922D2210922E2220E430E020932B2230932C2228E32093312249
:20194000009759F0FC0180819181A2818093322290933322A093342209C081E1809332227A
:201960008FE3809333228FEF8093342282E090E0809335229093362280913722807E8364A0
:201980008062809337224FE060E070E089E292E20E945B2280EF89838DE48A8386E48B83CB
:2019A00043E06FE070E0CE0101960E945B228FEF8C8300E010E041E0602FCE0104960E94C8
:2019C0001C230F5F1F4F0115F1E01F07A1F781E00E94D8092496CDBFDEBFDF91CF911F9100
:2019E0000F910895CF93C82F0E94C6098730B9F4CC23A9F0CF30A9F041E050E0C15019F0F1
:201A0000440F551FFBCF20912722309128222423352381E090E0232B31F080E004C080E0CD
:201A200001C081E090E0CF9108952091292230912A222F3F3F4FC1F0833019F4809132223C
:201A400009C0843019F4809132220AC0853021F480913322829504C0863031F48091332281
:201A60008F700E94F20C089581E00895DF92EF92FF920F931F93CF93DF931F921F92CDB79B
:201A8000DEB77C01D62E2FEF621709F447C08091292290912A22019609F440C080913122D4
:201AA000813119F082528230C8F500912B2210912C2280913822909139220F96F7018083D4
:201AC00091830330110554F1F7016081718142E0CE0101960E945122811120C089818F3FB2
:201AE000C9F08D15C9F06A81262F30E0C9010296F70140815181840F951F808391830250E5
:201B00001109021B130B6111DCCF9395808391831A95D7CF80E003C081E001C082E00F9079
:201B20000F90DF91CF911F910F91FF90EF90DF90089587E00C94D809FF920F931F93CF939D
:201B4000DF93CDB7DEB76297CDBFDEBF8C01FC01F08081818031D9F540E0B8016E5F7F4FE9
:201B60008F2D0E94EF098F3FA9F1882329F08F7090E0806C936630C060E0F80180810E94C3
:201B8000720A882319F08FEC93E626C0FA9482E1F89EF02C112442E16F2DCE0101960E949C
:201BA0000E238111F0CF88E0F8013A96DE01119601900D928A95E1F742E16F2DCE010196A0
:201BC0000E941C238111DFCF80E090E905C080E097E602C083E899E66296CDBFDEBFDF912C
:201BE000CF911F910F91FF900895FF920F931F93CF93DF93CDB7DEB72897CDBFDEBF8C01C2
:201C0000FC01F0808181811114C040E060E070E08F2D0E94EF09182F8F3F19F483E899E6DD
:201C20004AC08F2D0E94AD0A882371F185E899E642C0893018F088E0F801818348E050E00C
:201C40006FEF70E0CE0101960E948A75F801418150E0B8016E5F7F4FCE0101960E946F75A4
:201C600040E0BE016F5F7F4F8F2D0E94EF09182F8F3FA1F28F2D0E94AD0A8111D7CF11117C
:201C800003C021E030E006C01F70812F90E0806C936611C0FA9419F0220F331FFBCF809150
:201CA000272290912822822B932B809327229093282280E090E92896CDBFDEBFDF91CF91AC
:201CC0001F910F91FF900895FF920F931F93CF93DF93CDB7DEB76297CDBFDEBF8C01FC010A
:201CE000F0808181811108C041E060E070E08F2D0E94EF0990E041C08031D1F541E0B8014F
:201D00006E5F7F4F8F2D0E94EF098F3FA1F1882329F08F7090E0806C93662FC0FA9482E17A
:201D2000F89EF02C112442E16F2DCE0101960E940E23882319F08FEC93E61FC088E0F801DC
:201D40003A96DE01119601900D928A95E1F78A898F709989907F982B998B42E16F2DCE014E
:201D600001960E941C238111E6CF80E090E905C080E097E602C083E899E66296CDBFDEBF5C
:201D8000DF91CF911F910F91FF900895FF920F931F93CF93DF93CDB7DEB76297CDBFDEBF03
:201DA0008C010E94C609813009F04EC0F801F0802181203108F44BC088E03296DE01119654
:201DC00001900D928A95E1F788E0F8013A96DE01199601900D928A95E1F783E38A8B898B67
:201DE000203119F1F8013289313108F03FE030953F709A89907F932B9A8B2131B1F0F801E6
:201E00003389313108F03FE030953295307F9A899F70932B9A8B223141F0F801848980FF34
:201E200004C061E08F2D0E94720AFA9482E1F89E602D112442E1CE0101960E941C23882365
:201E400049F081E895E608C082E899E605C080E097E602C080E090E96296CDBFDEBFDF91E6
:201E6000CF911F910F91FF900895109227221092282208950F931F93CF93DF938C011092BB
:201E80002D2210922E2225E040E050E060E07FE389E292E20E943C0B882319F0C0E0D0E03E
:201EA00012C08091292290912A22019619F482E899E618C08091332282958F700E94F20C06
:201EC000882361F3F4CF60E071E0CE010E94C4221816190614F4D395F6CFC8010E94810CDE
:201EE00080E090E9DF91CF911F910F9108950F931F93CF93DF931F92CDB7DEB70FEF10E06C
:201F000041E0612FCE0101960E940E23898108231F5FB1F70F3FA9F429E040E050E06FEFDA
:201F20007FEF89E292E20E943C0B813051F48091382290913922892B21F480E090E00E9453
:201F4000810C109227221092282210922D2210922E2225E040E050E060E07FE389E292E264
:201F60000E943C0B0F90DF91CF911F910F9108958091292290912A220895CF93DF93EC01F5
:201F800028E040E050E060E070E089E292E20E943C0B811105C0CE01DF91CF910C94D10A20
:201FA00082E89AE6DF91CF910895CF93DF93EB012AE0AC0160E070E089E292E20E943C0BFB
:201FC000811105C0CE01DF91CF910C94D10A82E89AE6DF91CF910895CF93DF93EB0125E074
:201FE00040E050E0BC0189E292E20E943C0B811105C0CE01DF91CF910C94D10A82E89AE6B1
:20200000DF91CF91089510922D2210922E22BC0180E09FE30C94EC0FCF93DF93EB0124E072
:2020200040E050E0BC0189E292E20E943C0B811105C0CE01DF91CF910C94D10A82E89AE670
:20204000DF91CF910895CF93DF93EB0126E040E050E0BC0189E292E20E943C0B811105C021
:20206000CE01DF91CF910C94D10A82E89AE6DF91CF910895CF93DF93EB0127E0AC0160E03B
:2020800070E089E292E20E943C0B811105C0CE01DF91CF910C94D10A82E89AE6DF91CF91FD
:2020A00008950F931F93CF93DF93CDB7DEB76197CDBFDEBF8B011D821E8227E0AC0160E062
:2020C00070E0CE0101960E943C0B81110DC081E1FE013196A9E2B2E201900D928A95E1F794
:2020E000C8010E94D10A02C082E89AE66196CDBFDEBFDF91CF911F910F91089580912922B5
:2021000090912A22019629F080912B2290912C2208958FEF9FEF08958091292290912A22C6
:20212000019619F08091312208958FEF08950F931F93CF93DF9300D01F92CDB7DEB78C0194
:2021400083E06C830E94150D6C81882319F080E090E02DC06F7BCE0101960E94360D813025
:20216000B1F769817A816F5F7F4F69837A8341E0CE0103960E9451228111E9CF69817A8180
:202180006F5F7F4F69837A834B81413800F70115110529F48B81882341F090E008C0C8014C
:2021A0000E9451228823B1F3D2CF80E091E02496CDBFDEBFDF91CF911F910F91089584E045
:2021C0000E94150D811105C080913122833249F41EC086E00E94150D8823B1F382E899E64E
:2021E0000895823289F483E28093312260913822709139224FE089E292E20E945B228823C7
:2022000031F081E895E6089585E899E6089580E090E90895EF92FF920F931F93CF93DF93E3
:202220001F921F92CDB7DEB78C01E0903522F0903622FC01818181508E3F18F084E899E667
:2022400062C0F801808186FF0AC08F7B808386E00E94150D811108C06894F1F808C084E071
:202260000E94150D882319F082E899E64CC0F8016081CE0101960E94360D8111DFCFF80193
:202280008081823021F0803811F0893811F46894F0F88091352290913622E816F906B1F494
:2022A00069817A81F801418180913822909139229B01281B390BC901840F911D20912B226B
:2022C00030912C2228173907E0F012C0E0923522F092362260913822709139224FE089E2EA
:2022E00092E20E945B228823D9F281E895E60BC04E5FC8010E945B228130B9F380E090E95B
:2023000002C080E09BE60F900F90DF91CF911F910F91FF90EF900895BF92CF92DF92EF926D
:20232000FF920F931F93CF93DF936C01EB017A018091292290912A22019641F0B0903122EC
:2023400081E0B81631F085E899E63CC086E899E639C083E00E94150D811132C080912B2256
:2023600090912C2296012C0F3D1F8217930710F10091382210913922015F1F4F809137226D
:202380008F71080F111DAE016FEF70E0C7010E948A75F701F395C0833196B082B8016C0D44
:2023A0007D1D4C2FC7010E945122813031F0CE01916608C082E892E605C081E892E602C081
:2023C00082E899E6DF91CF911F910F91FF90EF90DF90CF90BF900895EF92FF920F931F93C6
:2023E000CF93DF931F92CDB7DEB77C018B01FC0140818091292290912A22019639F08091DE
:202400003122813031F085E899E632C086E899E62FC084E049830E94150D4981811126C0A7
:2024200080912B2290912C229801240F311D82179307B0F06091382270913922615F7F4FAD
:20244000809137228F71680F711D600F711FC70101960E945B22813031F481E895E608C00E
:2024600080E09BE605C080E090E902C082E899E60F90DF91CF911F910F91FF90EF900895C8
:20248000EF92FF920F931F93CF93DF937C018091292290912A22019639F0809131228130E7
:2024A00031F085E899E636C086E899E633C084E00E94150D81112CC000912B2210912C22C6
:2024C0000E151F05F8F00E191F09C0913822D09139222F96809137228F71C80FD11DCE0D48
:2024E000DF1D0115110559F0B801CE010E94C42297FD0BC0081B190BC80FD91FF2CF80E0C5
:2025000090E908C080E09BE605C081E895E602C082E899E6DF91CF911F910F91FF90EF9017
:202520000895DF92EF92FF920F931F93CF93DF93CDB7DEB76197CDBFDEBF8091292290919C
:202540002A22019609F460C0809131228833D9F48091352290913622029719F485E899E61C
:202560005BC08091332282958F700E94F20C811107C08091372286FF0AC00FE010E00DC066
:2025800082E899E649C085E00E94150DF0CF00912B2210912C22015F1F4F8F71D82EE09050
:2025A0003822F090392229E040E050E06FEF7FEFCE0101960E943C0B813081F60D0D111D02
:2025C000C8018E0D9F1D288939892817390731F628E040E050E060E070E089E292E20E9459
:2025E0003C0B811114C00115110559F0B801C7010E94C42297FD0EC0081B190BE80EF91EFA
:20260000F2CF80E090E908C086E899E605C082E89AE602C081E895E66196CDBFDEBFDF9186
:20262000CF911F910F91FF90EF90DF9008956F927F928F929F92AF92BF92CF92DF92EF9287
:20264000FF920F931F93CF93DF93CDB7DEB7A197CDBFDEBFFC018091292290912A220196EA
:2026600009F472C180913122883309F06DC180912D2290912E22888F998F8081823008F425
:2026800066C19181923609F062C1528190E00296252F30E0821793070CF459C1339688A19F
:2026A000807E8F7D88A3B0E020E09C888D88AA8DBA88AB88CB8CDC8CED8C8F71F82E60E0D2
:2026C00070E000E010E05130A9F488A1B0FB85F929A39C8A8D8AAA8FBA8AAB8A6E8F7F8FA4
:2026E000CB8EDC8EED8E807E8F2988A380818823A1F02DC15230B0F488A1B0FB85F929A34C
:202700009C8A8D8AAA8FBA8AAB8A6E8F7F8FCB8EDC8EED8E807E8F2988A389A18F3009F0BE
:2027200016C196C04181442339F3413108F00FC1842F90E00196652E712C861597050CF0C0
:2027400006C18081833809F444C060F48038D9F020F4882309F477C0FAC0813879F0823897
:2027600031F1F5C0853809F451C008F461C0863809F456C08A3809F462C0E9C0423009F0D4
:20278000E6C0B1E003C0433008F0E1C020FDDFC0922F9160228130E0413021F0322F2227E6
:2027A0008381282B37FDD3C0922E832E4BC0453008F0CDC0922F9260A2818A2F8F7E813038
:2027C00009F440C08EED8A0F8230E0F1A833D1F1BEC0423009F0BBC0922F9460228130E0FC
:2027E000322F22278381282B2F3F8FE3380709F4AEC021158FE3380709F4A9C02F3F8FEF15
:20280000380709F4A4C0B22EA32E1CC0423009F09EC0628170E0762F66278381682B13C0F3
:20282000433008F494C0E480D380C28028600BC08F010F5F1F4F842F8F71F82E04C041300F
:2028400011F085C0292F4E5F541BE40FF11D3BCF9A8D88A1983379F5806488A385FF77C060
:20286000809132228F700E94F20C882319F082E899E672C02AE0A80160E070E0CE010196DC
:202880000E943C0B8823A1F081E1E9E2F2E2DE01119601900D928A95E1F76A897B8929E065
:2028A00040E050E0CE0101960E943C0B8130C9F089E89AE651C08F7B88A3933229F08E8DDF
:2028C0009F8D907F8E8F9F8F0115110509F03FC08091322282958F700E94F20C8111C7CF0B
:2028E000D3CF8D819E818E8B9F8B688979898C899D89680F791F6F5E7F4F88A18F71680F4E
:20290000711D41E0CE0181960E945122882319F085E899E621C0688979894FE0CE014296C3
:202920000E945B228111F4CF0115110599F048A14F7168897989615F7F4FC80101960E9442
:202940005B228111E5CF06C082E89AE605C084E899E602C080E090E9A196CDBFDEBFDF91E9
:20296000CF911F910F91FF90EF90DF90CF90BF90AF909F908F907F906F9008950F931F93F0
:20298000CF93DF93CDB7DEB76197CDBFDEBF8B012091292230912A222F3F3F4F19F482E821
:2029A0009AE62EC09091312298739833C1F7833008F080E091E1E9E2F2E2DE011196019074
:2029C0000D929A95E1F723E0281BA80160E070E0CE0101960E943C0B813009F729813A816D
:2029E0002115310559F0F801EF5FFE4F8083220F31972083822F90E0916602C080E090E93C
:202A00006196CDBFDEBFDF91CF911F910F91089520913F22382FFC018E2F831B821728F453
:202A200081918823C9F380E0089581E0089520913F22FC013081313059F4319681E08217F3
:202A400028F48F5F91919923D1F302C081E0089580E00895CF93DF93EC0140913F2250E0EA
:202A600060E070E00E948A7581E08883DF91CF9108950F931F93CF93DF93EC0189010E940B
:202A80008A3C882349F0A801BE01CE01DF91CF911F910F910C94313CDF91CF911F910F9108
:202AA00008959B01BA0140913F22413218F0A9010C94733D493118F0A9010C946048A9015D
:202AC0000C94483DEF92FF920F931F93CF93DF93CDB7DEB7C056D109CDBFDEBF8C0179015E
:202AE000CE0101960E945115B701CE0101960E94926D40913F2250E060E070E0C8010E944C
:202B00008A7540913F2250E0BE016F5F7F4FC8010E946F75C05ADF4FCDBFDEBFDF91CF9169
:202B20001F910F91FF90EF900895CF92DF92EF92FF920F931F93CF93DF93CDB7DEB7C05C59
:202B4000D109CDBFDEBF6C018A01E0903F22F12CA701CE018F569F4F0E946F75A701B8015B
:202B6000CE018F599F4F0E946F75A70160E070E0CE0101960E948A75CE01C1960E942A15E4
:202B8000CE018F569F4F0E941715882339F040913F2250E0BE016F5C7F4F0DC0CE018F59B3
:202BA0009F4F0E941715882311F140913F2250E0BE016F5F7F4FC6010E946F75C054DF4F60
:202BC000CDBFDEBFDF91CF911F910F91FF90EF90DF90CF900895CE018F569F4F0E94133D9F
:202BE00089A980FD0CC0CE01C1960E94133DCF56DF4F8881C159D04080FFEDCF19C0A801FF
:202C0000BE016F5C7F4FCB010E94313C682FCE01C1960E94143DEBCFCE018F599F4F0E94D0
:202C2000133D898180FD0AC0CE0101960E94133DA2968FADA29780FFEFCF0DC0A801BE017C
:202C40006F5F7F4FCB010E94313C682FCE0101960E94143DEDCFBE016F597F4FCE018F5648
:202C60009F4F0E946A3C9801AE01181684F44F595F4FBE016F567F4FCB010E943915980133
:202C8000AE014F5F5F4FBE016F5C7F4F0FC04F565F4FBE016F597F4FCB010E943915980105
:202CA000AE014F5C5F4FBE016F5F7F4FCB010E94391566CF0F931F93CF93DF93EC01890121
:202CC0000E94313C882349F0A801BE01CE01DF91CF911F910F910C948A3CB801CE010E941A
:202CE0006A3C813089F3DF91CF911F910F910895EF92FF920F931F93CF93DF938C01EB0191
:202D000020913D2230913E22AB01485E5F4F0E945A167E0188E2E80EF11CAE01405F5F4F88
:202D200088E0F701DA0101900D928A95E1F720913D2230913E22B801C8010E945A1688E103
:202D4000FE0111928A95E9F7DE01189688E0F70101900D928A95E1F720913D2230913E228D
:202D6000AE01B801C801DF91CF911F910F91FF90EF900C945A165F926F927F928F929F928F
:202D8000AF92BF92CF92DF92EF92FF920F931F93CF93DF938C01EB0120913D2230913E22EB
:202DA0006B0180E2C80ED11CA601C8010E945A168CE0582EFE01852D11928A95E9F74E016C
:202DC000ECE28E0E911C7E01FCE0EF0EF11C84E1F401D70101900D928A95E1F720913D220E
:202DE00030913E22AE01B801C8010E945A1688E1FE0111928A95E9F720913D2230913E2234
:202E0000AE01B801C8010E945A163E01F4E26F0E711C8CE1F301DE0101900D928A95E1F7E9
:202E20001C8E1D8E1E8E1F8E20913D2230913E22AE01B801C8010E945A16FE01852D11921C
:202E40008A95E9F720913D2230913E22AE01B801C8010E945A165E01E4E3AE0EB11C8CE0E4
:202E6000F501D70101900D928A95E1F78CA99DA9AEA9BFA9888F998FAA8FBB8F88A199A1FE
:202E8000AAA1BBA18C8F9D8FAE8FBF8F20913D2230913E22AE01B801C8010E945A168CE0D9
:202EA000F401DE0101900D928A95E1F7F70111925A94E9F788A199A1AAA1BBA1888F998F65
:202EC000AA8FBB8F88A599A5AAA5BBA58C8F9D8FAE8FBF8F20913D2230913E22AE01B801EA
:202EE000C8010E943915FE01F09680E1DE0101900D928A95E1F78CA19DA1AEA1BFA1888FFC
:202F0000998FAA8FBB8F8CA59DA5AEA5BFA58C8F9D8FAE8FBF8F20913D2230913E22AE012A
:202F2000B801C8010E9439158CE0F501DE0101900D928A95E1F784E1F601D70101900D9253
:202F40008A95E1F7188E198E1A8E1B8E20913D2230913E22AE01B801C8010E943915FE018B
:202F6000F89688E0DE0101900D928A95E1F784E1F301D70101900D928A95E1F7188E198EB0
:202F80001A8E1B8E188619861A861B8620913D2230913E22AE01B801C801DF91CF911F9180
:202FA0000F91FF90EF90DF90CF90BF90AF909F908F907F906F905F900C943915AF92BF923C
:202FC000CF92DF92EF92FF920F931F93CF93DF93CDB7DEB7C056D109CDBFDEBF6C018B01BA
:202FE0005B0120E2A20EB11C20913D2230913E22A5010E945A167E0181E3E80EF11C19AA64
:203000001AAA1BAA1CAA8CE1F501DE01D59601900D928A95E1F720913D2230913E22A701B4
:20302000B601C6010E945A168FE1F501DE01D29601900D928A95E1F720913D2230913E22FB
:20304000A701B601C6010E945A16C7010E94BB3C20913D2230913E22A701B601C6010E94DE
:203060005A1680E2F501D70101900D928A95E1F7C7010E94BB3CC7010E94BB3CC7010E945D
:20308000BB3CC7010E94BB3C20913D2230913E22A701B601C6010E945A16C7010E94BB3C0E
:2030A000C7010E94BB3C20913D2230913E22A701B601C6010E945A16C7010E94BB3C209134
:2030C0003D2230913E22A701B601C6010E945A16F80127AD30E0C90144E0969587954A9547
:2030E000E1F7A9015695479556954795840F951F820F931FA90156954795840F951F220F4D
:20310000331F820F931F26AD27FD019620E120933F22B0E2BB2EF7012B2D11922A95E9F76A
:20312000F80104AD15AD26AD37AD09AB1AAB2BAB3CAB8E010F5F1F4FF8012B2D11922A9518
:20314000E9F789839A83A801B701C7010E94313C19821A828CE1F701DE01159601900D92D8
:203160008A95E1F7A701B801C8010E94313CC7010E94BB3CC7010E94BB3CC7010E94BB3CFC
:20318000C7010E94BB3CA701B801C8010E94313CC7010E94BB3CC7010E94BB3CA701B80172
:2031A000C8010E94313CC7010E94BB3CA701B801C8010E94313CC7010E94BB3CA701B801DB
:2031C000C8010E94313CC7010E94BB3CA701B801C8010E94313CB0923F2220913D22309109
:2031E0003E22A801B601C6010E945A16C05ADF4FCDBFDEBFDF91CF911F910F91FF90EF9097
:20320000DF90CF90BF90AF90089580913F2208955F926F927F928F929F92AF92BF92CF925E
:20322000DF92EF92FF920F931F93CF93DF93CDB7DEB7E097CDBFDEBF8C017B0180E28093AC
:203240003F2280E3582ECE0101966C01FC01852D11928A95E9F74B0194E5890E911C8CE08B
:20326000F401DE01519601900D928A95E1F7C6010E94BB3CF801852D11928A95E9F7D801E6
:203280001C968CE0F40101900D928A95E1F7570190E5A90EB11CF50180819181A281B38143
:2032A000F80180839183A283B383A601B801C8010E94313C88E280933F22F601852D119241
:2032C0008A95E9F780E1F501DE01519601900D928A95E1F7A601B801C8010E94313C509291
:2032E0003F2220913D2230913E22A701B801C8010E945A1620913D2230913E22A701405D8A
:203300005F4FB801C8010E945A16A7014C5D5F4F8CE0F401DA0101900D928A95E1F7209158
:203320003D2230913E22B801C8010E945A16A701405E5F4F80E1FA0111928A95E9F737014F
:20334000FCE56F0E711CF30180819181A281B381F70184A395A3A6A3B7A34701FCE28F0E67
:20336000911CF50180819181A281B381F70184A795A7A6A7B7A720913D2230913E22B8014C
:20338000C8010E945A16F30180819181A281B381F70184A795A7A6A7B7A720913D22309119
:2033A0003E22A401B801C8010E94391588E180933F22F601852D11928A95E9F780E1F50117
:2033C000DE01159601900D928A95E1F7F701852D11928A95E9F7F30180819181A281B38192
:2033E000F70184879587A687B787F701808B918BA28BB38BA701B601C6010E94313C5092A2
:203400003F2220913D2230913E22A601B801C8010E943915E096CDBFDEBFDF91CF911F91E2
:203420000F91FF90EF90DF90CF90BF90AF909F908F907F906F905F9008950F931F93CF93E4
:20344000DF93CDB7DEB7C056D109CDBFDEBF8C0180913F22813228F0CE0101960E94876906
:203460000BC0893128F0CE0101960E94B05504C0CE0101960E94C06380913A22813439F464
:20348000BE016F5F7F4FC8010E9478162CC0823439F4BE016F5F7F4FC8010E94BB1623C08F
:2034A000833439F4BE016F5F7F4FC8010E9408191AC0843839F4BE016F5F7F4FC8010E94B8
:2034C000DE1711C060913D2270913E22CE0101960E94926D40913F2250E0BE016F5F7F4FB1
:2034E000C8010E946F75C05ADF4FCDBFDEBFDF91CF911F910F9108950F931F93CF93DF9327
:20350000CDB7DEB7C056D109CDBFDEBF8C01CE0101960E94511580913A22813439F4BE0170
:203520006F5F7F4FC8010E9478162CC0823439F4BE016F5F7F4FC8010E94BB1623C08334F6
:2035400039F4BE016F5F7F4FC8010E9408191AC0843839F4BE016F5F7F4FC8010E94DE17D9
:2035600011C060913D2270913E22CE0101960E94926D40913F2250E0BE016F5F7F4FC8013C
:203580000E946F75C05ADF4FCDBFDEBFDF91CF911F910F910895CF92DF92EF92FF920F93F1
:2035A0001F93CF93DF93CDB7DEB7C05FD109CDBFDEBF8C017C0120E3E20EF11CC7010E94D6
:2035C000081581113FC1B701CE018F599F4F0E941D1A80913A229801205A3F4F690186FF09
:2035E0003EC0B901CE01C1960E941D1A20913D2230913E22AE014F5C5F4FB801CE010196BC
:203600000E945A1620913D2230913E22AE014F5C5F4FB801CE018F569F4F0E943915AE0165
:203620004F5F5F4FBE016F567F4FCB010E947C1A20913D2230913E22AE014F565F4FBA01EA
:20364000CE0101960E945A1620913D2230913E22AE014F565F4FBE016F5F7F4F1FC087FFFF
:203660001FC0B801CE018F569F4F0E941D1A20913D2230913E22AE014F565F4FBA01CE017A
:203680008F539F4F0E945A1620913D2230913E22AE014F565F4FBE016F537F4FCA0141C0FA
:2036A000B901CE01C1960E941D1ABE016F5C7F4FCE0101960E941D1A60913B2270913C220D
:2036C000AE014F5F5F4FCA010E947C1AB801CE018F569F4F0E941D1A20913D2230913E2277
:2036E000AE014F565F4FBA01CE018F539F4F0E945A1620913D2230913E22AE014F565F4F29
:20370000BE016F537F4FCA010E945A1620913D2230913E22AE014F5F5F4FBE016F567F4FEF
:20372000CB010E945A16AE014F595F4FB801CE018F539F4F0E947C1A20913D2230913E22E5
:20374000AE014F535F4FBA01CA010E945A1620913D2230913E22AE014F535F4FBA01CA011C
:203760000E945A16BE016F567F4FCE0101960E941D1A20913D2230913E22AE014F535F4F76
:20378000BA01C8010E945A1620913D2230913E22A801BE016F5F7F4FC8010E943915A601FE
:2037A000B701C6010E947C1A20913D2230913E22A601B601C6010E945A16BE016F597F4F95
:2037C000CE0101960E941D1A20913D2230913E22AE014F5F5F4FBA01CA010E945A16209125
:2037E0003D2230913E22AE014F5F5F4FBA01CA010E945A1620913D2230913E22AE014F5F18
:203800005F4FBA01CA010E945A1620913D2230913E22A801BE016F537F4FC7010E94391581
:20382000A701BE016F567F4FC7010E947C1A20913D2230913E22AE014F5F5F4FB701C701D2
:203840000E943915C051DF4FCDBFDEBFDF91CF911F910F91FF90EF90DF90CF9008955F9286
:203860006F927F928F929F92AF92BF92CF92DF92EF92FF920F931F93CF93DF93CDB7DEB72D
:20388000C052D140CDBFDEBF8C015B014B0180E3880E911CC4010E9408158111FFC07801B3
:2038A000E0E3EE0EF11CC7010E940815582E882341F080E9F501D80101900D928A95E1F7F4
:2038C000EDC03501F0E66F0E711CB301CE01C1960E941D1AAE014F5C5F4FB801CE018F5003
:2038E0009F4F0E947C1A680180E6C80ED11CB601CE0101960E941D1AAE014F5F5F4FB50159
:20390000CE018F539F4F0E947C1AA301BE016F5C7F4FCB010E947C1AAE014F5C5F4FB70110
:20392000CE018F569F4F0E947C1AA601BE016F5F7F4FCB010E947C1AAE014F5F5F4FB401E7
:20394000CE018F599F4F0E947C1A20913D2230913E22AE014F505F4FBE016F537F4FCB0142
:203960000E94391520913D2230913E22AE014F565F4FBE016F597F4FCB010E943915CE0144
:203980008F539F4F0E940815882399F0CE018F599F4F0E940815811183C080E9F801119226
:2039A0008A95E9F7C8010E942A15C7010E942A1579C0BE016F537F4FCE01C1960E941D1A2E
:2039C000AE014F5C5F4FBE016F537F4FCE0101960E947C1AAE014F5C5F4FBE016F507F4F9E
:2039E000CA010E947C1ABE016F597F4FC8010E941D1A20913D2230913E22AE014F5F5F4F91
:203A0000B801C8010E94391520913D2230913E22AE014F5C5F4FB801C8010E9439152091D8
:203A20003D2230913E22AE014F5C5F4FB801C8010E94391520913D2230913E22A801BE01F3
:203A40006F5C7F4FC7010E943915AE014F595F4FB701C7010E947C1AAE014F5F5F4FBE018E
:203A60006F567F4FCE01C1960E947C1A20913D2230913E22AE014F5C5F4FB701C7010E94FA
:203A80003915A301B601C6010E947C1AAE014F535F4FB601C6010E947C1A04C0512C02C0C6
:203AA00055245394852DC05EDE4FCDBFDEBFDF91CF911F910F91FF90EF90DF90CF90BF9035
:203AC000AF909F908F907F906F905F9008956F927F928F929F92AF92BF92CF92DF92EF9276
:203AE000FF920F931F93CF93DF93EC017B018A0180E9FE0111928A95E9F790903F229A9460
:203B00006E01F0E6CF0ED11C5A0180E6A80EB11C20E9622E97FC2DC0F701E90DF11D97FCAA
:203B2000FA95708098E0892ECE010E94CB1A77FE1BC0C6010E940815882341F0F801DE01F7
:203B4000862D01900D928A95E1F70EC0C5010E940815811109C0B801CE010E942F1C8823BD
:203B600019F0CE010E94CB1A770C8A94E9F69A94D1CFDF91CF911F910F91FF90EF90DF90FB
:203B8000CF90BF90AF909F908F907F906F900895CF92DF92EF92FF920F931F93CF93DF9333
:203BA000CDB7DEB7C056D109CDBFDEBF7C016B018C01005A1F4FC8010E940815811130C08B
:203BC000A601B801CE01C1960E949515BE016F5C7F4FCE0101960E941D1AAE014F5F5F4F71
:203BE000B701C7010E947C1AAE014F5F5F4FBE016F5C7F4FCB010E947C1AC701C096AE01D9
:203C00004F5C5F4FBC010E947C1A40913F2250E060E070E0C8010E948A7581E0F80180839D
:203C2000C05ADF4FCDBFDEBFDF91CF911F910F91FF90EF90DF90CF900895AF92BF92CF9287
:203C4000DF92EF92FF920F931F93CF93DF93CDB7DEB7C059D109CDBFDEBF6C017B018A0110
:203C6000FA01EB5DFE4F808180933F2240933D2250933E22CA0180549F4F80933B229093AA
:203C80003C223197808180933A22C114D10411F491E04CC061157105D9F3C6010E94081524
:203CA0008111F6CF580180E3A80EB11CB501C6010E946A3C8F3F61F7F801E05AFF4F80E39F
:203CC000DE01119601900D928A95E1F7F801E057FF4F80E3DE01D19601900D928A95E1F7E9
:203CE00040913F2250E060E070E0CE018F599F4F0E948A7581E0A2968FAFA297AE014F5F1F
:203D00005F4FB601C7010E94671DB801C7010E94C81DC7010E9408158111BACFB501C70128
:203D20000E946A3C91E0813009F090E0892FC057DF4FCDBFDEBFDF91CF911F910F91FF90DB
:203D4000EF90DF90CF90BF90AF9008952F923F924F925F926F927F928F929F92AF92BF9291
:203D6000CF92DF92EF92FF920F931F93CF93DF93CDB7DEB7C359D109CDBFDEBF7C016B0116
:203D80008A012A018BED481A8EEF580AF201408140933F2200933D2210933E22C80180543A
:203DA0009F4F80933B2290933C223197808180933A22E114F10409F48CC06115710509F4D0
:203DC00088C050E060E070E0C7010E948A7535E0332E5801F0E3AF0EB11C380180E6680E31
:203DE000711C40E3242E4801E0E98E0E911C40E0F2018081481748F59701240F311D61E05C
:203E0000C901CE56DF4F2883C259D040CD56DF4F3883C359D040CF56DF4F4883C159D04030
:203E20000E945F23CE56DF4F2881C259D040CD56DF4F3881C359D040CF56DF4F4881C159CC
:203E4000D0408130E1F24F5FD3CFC7010E940815882319F03A9459F63CC0B501C7010E940A
:203E60006A3C8F3FB9F7F301DE011196822D01900D928A95E1F7F401DE01D196822D019053
:203E80000D928A95E1F740913F2250E060E070E0CE018F599F4F0E948A7581E0A2968FAF7D
:203EA000A297AE014F5F5F4FB701C6010E94671DB801C6010E94C81DC6010E9408158111FA
:203EC000C9CFB501C6010E946A3C813019F280E001C081E0CD56DF4FCDBFDEBFDF91CF91FD
:203EE0001F910F91FF90EF90DF90CF90BF90AF909F908F907F906F905F904F903F902F9050
:203F000008956F927F928F929F92AF92BF92CF92DF92EF92FF920F931F93CF93DF93CDB77E
:203F2000DEB7C052D140CDBFDEBF5C018B01FB01EB5DFE4F808180933F2260933D2270935C
:203F40003E22CB0180549F4F80933B2290933C223197808180933A2255E0C52ED12C7B01A9
:203F600080E3E80EF11C4B01E0EF8E0E911C3501F0E66F0E711CA801BE016F5F7F4FCE018E
:203F80008F569F4F0E94A61E81114CC040913F2250E0BE016F5F7F4FCE018F539F4F0E944C
:203FA0006F759701AE014F535F4FB401CE018F509F4F0E946215F301608171819701AE010E
:203FC0004F505F4FCA010E945A16A701BE016F567F4FCB010E9495159701AE014F505F4F11
:203FE000BE016F567F4FCA010E946215CE018F509F4F0E940815811115C080E3FE01EF5325
:20400000FF4FD50101900D928A95E1F780E3FE01EF50FF4FD501D09601900D928A95E1F703
:2040200080E008C0F1E0CF1AD108C114D10409F0A2CF81E0C05EDE4FCDBFDEBFDF91CF910C
:204040001F910F91FF90EF90DF90CF90BF90AF909F908F907F906F900895CF93DF93DA01FE
:20406000FB0130E0260F61914D9150E0460F511D430F511DEC014993CE01352F2E13F3CF7D
:20408000852FDF91CF91089580913F22089580933F220895CF92DF92EF92FF920F931F93A7
:2040A000CF93DF93CDB7DEB7C054D109CDBFDEBF8C017B016A0180913F22803421F4C80184
:2040C0000E94B9502AC0803621F4C8010E94BE4724C0405C5F4FCE0101960E94B950A70129
:2040E000405C5F4FB601C8010E94B95020E4A801BE016F5F7F4FCB010E942D20A601B70129
:20410000C8010E94E74BC801805C9F4F20E4AE014F5F5F4FBC010E942D20C05CDF4FCDBFDE
:20412000DEBFDF91CF911F910F91FF90EF90DF90CF90089520913F22203411F40C94E74B0C
:20414000203611F40C9456400C94114C9F92AF92BF92CF92DF92EF92FF920F931F93CF9374
:20416000DF93CDB7DEB7C058D109CDBFDEBF8C016B015A018617970709F465C1413451051C
:2041800010F480E405C04136510508F478C180E880933F2240913F2250E0440F551FB80132
:2041A000C6010E946F7520E8922ECE0101967C01DC01E92D1D92EA95E9F763E80E9487058D
:2041C00090E0A816B90609F040C1898180FF3FC1B701C6010E94926D81113BC1D701E92DD3
:2041E0001D92EA95E9F764E8C7010E94870590E0A816B90609F02FC1898180FF2EC1B70169
:20420000C8010E94926D81112AC180913F22B7019601280F311DC9010E94FB6F80913F2229
:20422000F801E80FF11DDF01292D1D922A95E9F780913F2266E8D801A80FB11DCD010E946E
:20424000870590E0A816B90609F00BC160913F2270E09601260F371F600F711FA701C801EC
:204260000E94FF72F701292D11922A95E9F763E8C7010E94870590E0A816B90609F0F3C0C1
:2042800080913F22B701D601A80FB11DCD010E94FB6F80913F22F801E80FF11DDF01292D18
:2042A0001D922A95E9F780913F2265E8D801A80FB11DCD010E94870590E0A816B90609F0B1
:2042C000D4C060913F2270E09601260F371F600F711FA701C6010E94FF7280913F22F8019A
:2042E000E80FF11DDF011D929A94E9F780913F2263E8F801E80FF11DCF010E94870590E0F3
:20430000A816B90609F0B3C080913F22A801B6019601280F311DC9010E948A3C982E20911D
:204320003F22422F50E0C801840F951F4C0D5D1DBC010E942D2090913F22992011F0F801B7
:2043400001C0F601E90FF11D80E8D70101900D928A95E1F780913F22F801E80FF11D80E860
:20436000982EDF01292D1D922A95E9F780913F2267E8D801A80FB11DCD010E94870588232D
:2043800009F477C080913F22B801680F711DA701C6010E949A2080913F22F801E80FF11D7E
:2043A000DF01292D1D922A95E9F780913F2263E8D801A80FB11DCD010E94870590E0A81634
:2043C000B90609F058C080913F22B801680F711DC6010E94926D80913F22D801A80FB11DA5
:2043E00080E8F60101900D928A95E1F7F701292D11922A95E9F764E8C7010E94870590E0F5
:20440000A816B906D1F580913F22B801680F711DA701C6010E949A20D7011D929A94E9F7C9
:2044200020913F22A801B601C6010E942D20898320913F22C601820F911DA701BC010E9429
:204440002D2080E01EC086EE1CC087EE1AC088EE18C089EE16C08AEE14C08BEE12C08CEE86
:2044600010C08EEE0EC08FEE0CC08DEE0AC080EF08C082EF06C081EF04C083EF02C080E658
:2044800087CEC058DF4FCDBFDEBFDF91CF911F910F91FF90EF90DF90CF90BF90AF909F909F
:2044A0000895DC01FB0151E05BBF07900D924A95E1F780E008954F925F926F927F928F924C
:2044C0009F92AF92BF92CF92DF92EF92FF920F931F93CF93DF93CDB7DEB7DA95CDBFDEBF5C
:2044E0002C016B01042F10E00115110511F400E011E0C8018C0D9D1D81159F4F80F5612C5C
:20450000772473945601AA24460199247301E818F9080E151F0508F4780140E0B501CE01FA
:2045200001960E945122A701B20181E090E08C0F9D1F880D991D0E946F754E0C5F1CCE0CCC
:20454000DF1C0E191F09AE014F5F5F4FBA01C5010F94800F01151105A9F680E001C081E006
:20456000D395CDBFDEBFDF91CF911F910F91FF90EF90DF90CF90BF90AF909F908F907F90C3
:204580006F905F904F900895AF92BF92CF92DF92EF92FF920F931F93CF93DF93CDB7DEB7FA
:2045A000DA95CDBFDEBF5B0181152FEF920730F57C01EE246C01DD2440E0B701CE0101965A
:2045C0000E94512200E011E00C191D09A016B10608F48501A8016FEF70E081E090E08C0FF8
:2045E0009D1F8C0D9D1D0E948A75AE014F5F5F4FBA01C7010F94800FC80102C080E090E0F0
:20460000D395CDBFDEBFDF91CF911F910F91FF90EF90DF90CF90BF90AF90089570E050E062
:204620009B01240F351F2130314020F40E94917580E0089581E0089570E050E09B01240F8F
:20464000351F2130314050F4F8940E949D758091CF0187FDFCCF789480E0089581E0089589
:20466000CF93DF9381E08093000282E08093CA01E0E2F0E0E491AAECB1E01C92C0E0D2E082
:20468000EC878C93E1E2F0E0E4911092CA01A0E0B2E01D96EC931D9783E014968C93149744
:2046A00081E012968C93129711961C92119790961C92909791961C92DF91CF910895382F88
:2046C000FC0141E08E2F831B8617C0F4808198E0209120022068209320022091230220FF72
:2046E000FCCF4093230220912402880F2170822B915071F7908198279193E4CF80E008955E
:204700000895F894E0E0F6E080E1828393E0948B91E09187828778940895F894E0E0F6E085
:2047200080E1828393E0948B94E09187838778940895F894E0E0F6E01286118683E0848783
:204740008F918F918F918BE48F9381E08F9381E08F9378941895F894E0E0F6E01386118657
:2047600083E084878F918F918F9184E58F9381E08F9381E08F937894189544275527BA017F
:20478000CA012D9088809980AA80BB80CC80DD802A9C8001289C7001299CF00C011D191FCF
:2047A0002C9C90012B9C100D211D391F2D9C300D411D3D903A9C3001389CF00C011D161DCD
:2047C000791E399C000D111D791E3C9C270D301D411D591F3B9C30013D9C260D371D401DA7
:2047E000511D4D904A9C3001489C000D111D261D791E499C100D211D791E4C9C370D401DFE
:20480000511D691F4B9C30014D9C360D471D501D611DE082F18202835D905A9C7001589C6D
:20482000100D211D3E1DF91E599C200D311DF91E5C9C4F0D501D611D791F5B9C70015D9CEC
:204840004E0D5F1D601D711D6D906A9C7001689C200D311D4E1DF91E699C300D411DF91E4A
:204860006C9C5F0D601D711D891F6B9C70016D9C5E0D6F1D701D811D7D907A9C7001789CC6
:20488000300D411D5E1DF91E799C400D511DF91E7C9C6F0D701D811D991F7B9C70017D9CEC
:2048A0006E0D7F1D801D911D138324833583ED90FD900D911D912D913D91AF93BF93CF93C9
:2048C000DF93EF93FF938E809F80A884B984CA84DB84EE27FF271F012F013F018E9C400DCD
:2048E000511D6F1F2F1E8F9C500D611D2F1E9E9C500D611D721D3F1E809E600D711D3F1EA5
:204900009F9C600D711D3F1EAE9C600D711D831D6F1E1F01819E700D811D6F1E909E700D00
:20492000811D6F1EAF9C700D811D6F1EBE9C700D811D961D7F1E6624829E800D911D7F1E12
:20494000919E800D911D7F1EA09E800D911D7F1EBF9C800D911D7F1ECE9C800D911D7F1EC5
:20496000839E900D711C6F1E929E900D711C6F1EA19E900D711C6F1EB09E900D711C6F1E7D
:20498000CF9C900D711C6F1EDE9C900D711C6F1EFD9C700C611C2F1E0C9D700C611C2F1EF6
:2049A0001B9D700C611C2F1E2A9D700C611C2F1E399D700C611C2F1E0D9D600C211C3F1E20
:2049C0001C9D600C211C3F1E2B9D600C211C3F1E3A9D600C211C3F1E1D9D200C311C4F1ECD
:2049E0002C9D200C311C4F1E3B9D200C311C4F1E2D9D300C411C5F1E3C9D300C411C5F1E7B
:204A00003D9D400C511C6F927F921C970D90E0180D90F0080D9000090D9010090D902009F2
:204A20000D903009000818808118198091081A80A1081B80B1081C80C1081D80D1081108AA
:204A4000E024F024002510252025302581249124A124B124C124D12401941194E00CFF1E39
:204A60000F1F1F1F2F1F3F1F810C9F1EAF1EBF1ECF1EDF1E012400FADF01EF01E89C30019C
:204A8000E99C700CA11DF89C700CA11DBF1FEA9CA00DB11DCF1FF99CA00DB11DCF1F089D19
:204AA000A00DB11DCF1FEB9CB00DC11DDF1FFA9CB00DC11DDF1F099DB00DC11DDF1F189D4A
:204AC000B00DC11DDF1FEC9CC00DD11DEF1FFB9CC00DD11DEF1F0A9DC00DD11DEF1F199D66
:204AE000C00DD11DEF1F289DC00DD11DEF1FED9CEE24D00DE11DFE1DFC9CD00DE11DFE1D40
:204B00000B9DD00DE11DFE1D1A9DD00DE11DFE1D299DD00DE11DFE1D389DD00DE11DFE1DC3
:204B20008824FD9CE00DF11D8E1C0C9DE00DF11D8E1C1B9DE00DF11D8E1C2A9DE00DF11D1E
:204B40008E1C399DE00DF11D8E1C99240D9DF00D811C9E1C1C9DF00D811C9E1C2B9DF00DA3
:204B6000811C9E1C3A9DF00D811C9E1CAA241D9D800C911CAE1C2C9D800C911CAE1C3B9D84
:204B8000800C911CAE1CBB242D9D900CA11CBE1C3C9D900CA11CBE1C3D9DA00CB11C6F0167
:204BA0000F901F90FF91EF91E080F1800281138124813581E40EF51E061F171F281F391F55
:204BC000401D511D621D731D841D951D96F0551C50FA5794E618F7080A0B1B0B2C0B3D0BC5
:204BE0004C095D09680979098A099B096608770812C0551C50FA5794E60CF71C0A1F1B1F03
:204C00002C1F3D1F4C1D5D1D681D791D8A1D9B1D66247724661C80F88594061C171C271CC0
:204C2000371C471C571CE682F78200871187228733874487558766877787808B918B028AA3
:204C4000138A248A358A468A578ADF91CF91BF91AF9144275527BA01CA012D908C849D84DE
:204C6000AE84BF84C888D9882A9C8001289C7001299CF00C011D191F2C9C90012B9C100D3E
:204C8000211D391F2D9C300D411D3D903A9C3001389CF00C011D161D791E399C000D111D7E
:204CA000791E3C9C270D301D411D591F3B9C30013D9C260D371D401D511D4D904A9C300107
:204CC000489C000D111D261D791E499C100D211D791E4C9C370D401D511D691F4B9C30016D
:204CE0004D9C360D471D501D611DE08EF18E028F5D905A9C7001589C100D211D3E1DF91EA6
:204D0000599C200D311DF91E5C9C4F0D501D611D791F5B9C70015D9C4E0D5F1D601D711DF2
:204D20006D906A9C7001689C200D311D4E1DF91E699C300D411DF91E6C9C5F0D601D711DC8
:204D4000891F6B9C70016D9C5E0D6F1D701D811D7D907A9C7001789C300D411D5E1DF91E33
:204D6000799C400D511DF91E7C9C6F0D701D811D991F7B9C70017D9C6E0D7F1D801D911DD2
:204D8000138F248F358FED90FD900D911D912D913D91AF93BF93CF93DF93EF93FF938A888A
:204DA0009B88AC88BD88CE88DF88EE27FF271F012F013F018E9C400D511D6F1F2F1E8F9CE4
:204DC000500D611D2F1E9E9C500D611D721D3F1E809E600D711D3F1E9F9C600D711D3F1EA1
:204DE000AE9C600D711D831D6F1E1F01819E700D811D6F1E909E700D811D6F1EAF9C700DBC
:204E0000811D6F1EBE9C700D811D961D7F1E6624829E800D911D7F1E919E800D911D7F1E19
:204E2000A09E800D911D7F1EBF9C800D911D7F1ECE9C800D911D7F1E839E900D711C6F1E0F
:204E4000929E900D711C6F1EA19E900D711C6F1EB09E900D711C6F1ECF9C900D711C6F1E4E
:204E6000DE9C900D711C6F1EFD9C700C611C2F1E0C9D700C611C2F1E1B9D700C611C2F1E35
:204E80002A9D700C611C2F1E399D700C611C2F1E0D9D600C211C3F1E1C9D600C211C3F1E7A
:204EA0002B9D600C211C3F1E3A9D600C211C3F1E1D9D200C311C4F1E2C9D200C311C4F1EF8
:204EC0003B9D200C311C4F1E2D9D300C411C5F1E3C9D300C411C5F1E3D9D400C511C6F92B1
:204EE0007F921C970D90E0180D90F0080D9000090D9010090D9020090D90300900081C8424
:204F000081181D8491081E84A1081F84B1081888C1081988D1081108E024F02400251025A9
:204F20002025302581249124A124B124C124D12401941194E00CFF1E0F1F1F1F2F1F3F1FAE
:204F4000810C9F1EAF1EBF1ECF1EDF1E012400FADF01EF01E89C3001E99C700CA11DF89C7C
:204F6000700CA11DBF1FEA9CA00DB11DCF1FF99CA00DB11DCF1F089DA00DB11DCF1FEB9C97
:204F8000B00DC11DDF1FFA9CB00DC11DDF1F099DB00DC11DDF1F189DB00DC11DDF1FEC9C34
:204FA000C00DD11DEF1FFB9CC00DD11DEF1F0A9DC00DD11DEF1F199DC00DD11DEF1F289D14
:204FC000C00DD11DEF1FED9CEE24D00DE11DFE1DFC9CD00DE11DFE1D0B9DD00DE11DFE1D4B
:204FE0001A9DD00DE11DFE1D299DD00DE11DFE1D389DD00DE11DFE1D8824FD9CE00DF11D3D
:205000008E1C0C9DE00DF11D8E1C1B9DE00DF11D8E1C2A9DE00DF11D8E1C399DE00DF11DFE
:205020008E1C99240D9DF00D811C9E1C1C9DF00D811C9E1C2B9DF00D811C9E1C3A9DF00D0E
:20504000811C9E1CAA241D9D800C911CAE1C2C9D800C911CAE1C3B9D800C911CAE1CBB24E8
:205060002D9D900CA11CBE1C3C9D900CA11CBE1C3D9DA00CB11C6F010F901F90FF91EF9106
:20508000E08CF18C028D138D248D358DE40EF51E061F171F281F391F401D511D621D731DAC
:2050A000841D951D96F0551C50FA5794E618F7080A0B1B0B2C0B3D0B4C095D09680979090C
:2050C0008A099B096608770812C0551C50FA5794E60CF71C0A1F1B1F2C1F3D1F4C1D5D1D42
:2050E000681D791D8A1D9B1D66247724661C80F88594061C171C271C371C471C571C44A356
:2051000055A366A377A380A791A702A613A624A635A646A657A6DF91CF91BF91AF91608CDA
:20512000718C828C938CA48CB58CC4846C0CC5847C1CC6848C1CC7849C1CC088AC1CC188E5
:20514000BC1CC288EC1CC388FC1CC4880C1DC5881C1DC6882C1DC7883C1DCC24DD24DC1C9F
:205160004D0D5C1D6C1D7C1D8C1D9C1D0C1C1C1C2C1C3C1C4C1C5C1CC080C60CC486C1805B
:20518000C71CC586C280C81CC686C380C91CC786C480CA1CC08AC580CB1CC18AC680CE1CDF
:2051A000C28AC780CF1CC38AC084C01EC48AC184C11EC58AC284C21EC68AC384C31EC78A52
:2051C000461D408F571D518F681D628F791D738F8A1D848F9B1D958F0E1C068E1F1C178E07
:2051E000201E20A2311E31A2421E42A2531E53A2CC24DC1CDF9258972D903D904D905D9047
:205200006D907D90ED90FD900D911D912D913D918D909D90AD90BD90CD90DD904D915D9138
:205220006D917D918D919D91281839084A085B086C087D08E40AF50A060B170B280B390B50
:205240000008202430244024502460247024E024F024002510252025302501949927200C31
:20526000391E491E591E691E791EE91EF91E091F191F291F391F3F932F931F930F93FF9244
:20528000EF927F926F925F924F923F922F9288809980AA80BB80CC80DD80EE80FF8008856E
:2052A00019852A853B854C85841A4D85940A4E85A40A4F85B40A4889C40A4989D40A4A89CD
:2052C000E40A4B89F40A4C89040B4D89140B4E89240B4F89340B110881249124A124B1240B
:2052E000C124D124E124F12401251125212531251194810C991EA91EB91EC91ED91EE91E56
:20530000F91E091F191F291F391F3F932F931F930F93FF92EF92DF92CF92BF92AF929F92E7
:205320008F9201240F92EF93FF93CDB7DEB7269744275527BA01CA012A9C8001289C7001B3
:20534000299CF00C011D191F2C9C90012B9C100D211D391F2D9C300D411D3A9CD001389C84
:20536000F00C011D1A1FB91F399C000D111DB91F3C9C2B0F301D411D591F3B9CD0013D9C64
:205380002A0F3B1F401D511D4A9CD001489C000D111D2A1FB91F499C100D211DB91F4C9CB8
:2053A0003B0F401D511D691F4B9CD0014D9C3A0F4B1F501D611DEF92FF920F935A9C7001F6
:2053C000589C100D211D3E1DF91E599C200D311DF91E5C9C4F0D501D611D791F5B9C700146
:2053E0005D9C4E0D5F1D601D711D6A9C7001689C200D311D4E1DF91E699C300D411DF91EA3
:205400006C9C5F0D601D711D891F6B9C70016D9C5E0D6F1D701D811D7A9C7001789C300DEA
:20542000411D5E1DF91E799C400D511DF91E7C9C6F0D701D811D991F7B9C70017D9C6E0D02
:205440007F1D801D911D1F932F933F93EC8CFD8C0E8D1F8D28A139A188889988AA88BB888E
:20546000CC88DD88EE27FF271F012F013F018E9C400D511D6F1F2F1E8F9C500D611D2F1E95
:205480009E9C500D611D721D3F1E809E600D711D3F1E9F9C600D711D3F1EAE9C600D711DBD
:2054A000831D6F1E1F017724819E700D811D6F1E909E700D811D6F1EAF9C700D811D6F1E74
:2054C000BE9C700D811D961D7F1E6624829E800D911D7F1E919E800D911D7F1EA09E800DB3
:2054E000911D7F1EBF9C800D911D7F1ECE9C800D911D7F1E839E900D711C6F1E929E900D47
:20550000711C6F1EA19E900D711C6F1EB09E900D711C6F1ECF9C900D711C6F1EDE9C900D3D
:20552000711C6F1EFD9C700C611C2F1E0C9D700C611C2F1E1B9D700C611C2F1E2A9D700C42
:20554000611C2F1E399D700C611C2F1E0D9D600C211C3F1E1C9D600C211C3F1E2B9D600CC2
:20556000211C3F1E3A9D600C211C3F1E1D9D200C311C4F1E2C9D200C311C4F1E3B9D200C61
:20558000311C4F1E2D9D300C411C5F1E3C9D300C411C5F1E3D9D400C511C6F927F920E8847
:2055A000E0180F88F008088C0009098C10090A8C20090B8C300900081A8481181B84910813
:2055C0001C84A1081D84B1081E84C1081F84D1081108E024F0240025102520253025812477
:2055E0009124A124B124C124D12401941194E00CFF1E0F1F1F1F2F1F3F1F810C9F1EAF1E10
:20560000BF1ECF1EDF1E012400FADF01EF01E89C3001E99C700CA11DF89C700CA11DBF1FB4
:20562000EA9CA00DB11DCF1FF99CA00DB11DCF1F089DA00DB11DCF1FEB9CB00DC11DDF1F4F
:20564000FA9CB00DC11DDF1F099DB00DC11DDF1F189DB00DC11DDF1FEC9CC00DD11DEF1F3D
:20566000FB9CC00DD11DEF1F0A9DC00DD11DEF1F199DC00DD11DEF1F289DC00DD11DEF1F4D
:20568000ED9CEE24D00DE11DFE1DFC9CD00DE11DFE1D0B9DD00DE11DFE1D1A9DD00DE11DBB
:2056A000FE1D299DD00DE11DFE1D389DD00DE11DFE1D8824FD9CE00DF11D8E1C0C9DE00DC8
:2056C000F11D8E1C1B9DE00DF11D8E1C2A9DE00DF11D8E1C399DE00DF11D8E1C99240D9D67
:2056E000F00D811C9E1C1C9DF00D811C9E1C2B9DF00D811C9E1C3A9DF00D811C9E1CAA2434
:205700001D9D800C911CAE1C2C9D800C911CAE1C3B9D800C911CAE1CBB242D9D900CA11C23
:20572000BE1C3C9D900CA11CBE1C3D9DA00CB11C6F010F901F90EDB7FEB7E680F5800481B9
:20574000138122813181E40EF51E061F171F281F391F401D511D621D731D841D951D96F0AE
:20576000551C50FA5794E618F7080A0B1B0B2C0B3D0B4C095D09680979098A099B09660879
:20578000770812C0551C50FA5794E60CF71C0A1F1B1F2C1F3D1F4C1D5D1D681D791D8A1D5E
:2057A0009B1D66247724661C80F88594061C171C271C371C471C571CCDB7DEB7FF81E88532
:2057C0008E809D80AC80BB80CA80D9807984772009F04BC064846818648665846908658665
:2057E00066846A08668667846B08678660886C08608A61886D08618A62886E08628A638850
:205800006F08638A6488600A648A6588610A658A6688620A668A6788630A678A608C640AA8
:20582000608E618C650A618E628C660A628E638C670A638E648C680A648E658C690A658EE5
:20584000668C6008668E678C6108678E60A0620860A261A0630861A262A0640862A263A059
:20586000650863A2660877084BC06484680C64866584691C658666846A1C668667846B1C51
:20588000678660886C1C608A61886D1C618A62886E1C628A63886F1C638A6488601E648A49
:2058A0006588611E658A6688621E668A6788631E678A608C641E608E618C651E618E628C25
:2058C000661E628E638C671E638E648C681E648E658C691E658E668C601C668E678C611C4A
:2058E000678E60A0621C60A261A0631C61A262A0641C62A263A0651C63A266247724661CFA
:20590000AAA1A296CDBFDEBF00246A0E701CC4A0C60CC4A2C5A0C71CC5A2C6A0C71CC6A2B7
:20592000C7A0C71CC7A2C0A4C71CC0A6C1A4C71CC1A6C2A4C71CC2A6C3A4C71CC3A6C4A48C
:20594000C71CC4A6C5A4C71CC5A6C6A4C71CC6A6C7A4C71CC7A60895442755278A012D9003
:205960003D904D905D90688079808A809B80289C6001269C5001279CB00CC11CD51E399C2E
:205980007001299C9001369CB00CC11CD21E351F379CC00CD11C351F499CE30EF01C011DB1
:2059A000489C9001469CC00CD11CE21E351F389CD00CE11C351F599CF30E001D111D579C4E
:2059C0009001479CD00C211D351F569CD00C211D351F589CE20E031E151EF00C011D151FFF
:2059E000A082B182C282D3825A012D913D914D916C817D818E819F81269FE00CF11C051FF8
:205A0000B51E279FF00C011DB51E369FF00C011D1B1DA51E289F000D111DA51E379F000D6E
:205A2000111DA51E469F000D111DA51EBB24299F100DA11CB51E389F100DA11CB51E479FD4
:205A4000100DA11CB51E221A330A440A2D91520A0008661A770A880A990A110820243024C9
:205A600040245024612471248124912401941194200C351E451E551E610C751E851E951EF5
:205A8000012400FA269F100DA11CB51E399F3327A00CB11C351F489FA00CB11C351F279FFC
:205AA000A00CB11C351F499F4427B00C311D451F289FB00C311D451F299F300D411D882711
:205AC00099272227269CB001279C700D811D369C700D811D951F289C800D911D251F379CB5
:205AE000800D911D251F469C800D911D251F299C2224900D211D251E389C900D211D251EAB
:205B0000479C900D211D251E569C900D211D251E399C3324200D211C351E489C200D211C3D
:205B2000351E579C200D211C351E499C4424200C311C451E589C200C311C451E599C300C38
:205B4000411C608071806E0C7F1CC01ED11EEA1CFB1C031F141F551F5EF0661A770AC80A2E
:205B6000D90AE20AF208030914095040660B0BC0660E771EC81ED91EE21EF21C031D141D22
:205B80006627561F000064827582C682D782A50EB61E361F461FB701C8012A2D5B2DCC24F4
:205BA000DD24760186012D903D904D905D90688479848A849B84269C5001279CB00CC11C0D
:205BC000369CB00CC11CD11E289CC00CD11CE11E379CC00CD11CE11E469CC00CD11CE11ECA
:205BE000299CD00CE11CF11E389CD00CE11CF11E479CD00CE11CF11E569CD00CE11CF11E97
:205C00006A0D608B7B1D718B8C1D828B9D1D938BA21EA48AB51EB58AC31ED41E00080F9284
:205C200044275527399CE00CF11C051F489CE00CF11C051F579CE00CF11C051F499CF00C99
:205C4000011D151F589CF00C011D151F599C000D111D5A012D913D914D916C857D858E85B5
:205C60009F85269FE00CF11C051FB51E279FF00C011DB51E369FF00C011D1B1DA51E289FE7
:205C8000000D111DA51E379F000D111DA51E469F000D111DA51EBB24299F100DA11CB51EFB
:205CA000389F100DA11CB51E479F100DA11CB51E221A330A440A2D91520A0008661A770AE3
:205CC000880A990A11082024302440245024612471248124912401941194200C351E451E76
:205CE000551E610C751E851E951E012400FA269F100DA11CB51E399F3327A00CB11C351F4B
:205D0000489FA00CB11C351F279FA00CB11C351F499F4427B00C311D451F289FB00C311DAA
:205D2000451F299F300D411D882799272227269CB001279C700D811D369C700D811D951FF2
:205D4000289C800D911D251F379C800D911D251F469C800D911D251F299C2224900D211D67
:205D6000251E389C900D211D251E479C900D211D251E569C900D211D251E399C3324200D84
:205D8000211C351E489C200D211C351E579C200D211C351E499C4424200C311C451E589C05
:205DA000200C311C451E599C300C411C648875886E0C7F1CC01ED11EEA1CFB1C031F141F3C
:205DC000551F0F900194E00C0024F01C001D101D501D5EF0661A770AC80AD90AE20AF2085E
:205DE000030914095040660B0BC0660E771EC81ED91EE21EF21C031D141D6627561F000067
:205E0000648A758AC68AD78AE08EF18E028F138FA50EB61E361F461FA48EB58E368F478F73
:205E200050972D903D904D905D902D913D914D915D91AD90BD90CD90DD90ED90FD900D91D3
:205E40001D91AF93BF93CF93DF932A183B084C085D082E093F09400B510B000868807980DF
:205E60008A809B806C817D818E819F81A884B984CA84DB84EC84FD840E851F856A187B08A0
:205E80008C089D086E097F09800B910B110820243024402450242025302540255025612421
:205EA000712481249124612571258125912501941194AA27BB27200C3A1E4A1E5A1E2A1FE1
:205EC0003A1F4A1F5A1F610C7A1E8A1E9A1E6A1F7A1F8A1F9A1F01240F928D01289C600125
:205EE000269C5001279CB00CC11CDA1E399C7001299CE001369CB00CC11CDC1EDA1F379C1E
:205F0000C00CD11CDA1F499CED0EF01C011D489CE001469CC00CD11CEC1EDA1F389CD00CB2
:205F2000E11CDA1F599CFD0E001D111D579CE001479CD00CC11DDA1F569CD00CC11DDA1F11
:205F4000589CEC0E0D1E1A1EF00C011D1A1F221A330A440A550A0008661A770A880A990A39
:205F600011082024302440245024612471248124912401941194200C3A1E4A1E5A1E610C19
:205F80007A1E8A1E9A1E012400FA289FE001269FE00CF11C0C1FDA1F279FF00C011DDA1F87
:205FA000399F1D0FA01DB11D299FE001369FF00C011D1C1F2227D21F379F000D111DD21F43
:205FC000499FAD0FB01D2227211D489FE001469F000D111DAC1F0024D01D389F100DA11D53
:205FE0003327D31F599FBD0F201D9927911D579FE001479F100DC11DD31F569F100DC11D4C
:20600000D31F589FAC0F0D1E131EB00D211D931F289CB001269CA001279C500D611D731FCB
:20602000399C802D022C212C099CE001369C500D611D7C1FD31F379C600D711DD31F499CFE
:206040008D0F201C311D489CE001469C600D711D8C1F0024D01D389C700D811D3324D31D86
:20606000599C2D0E301D9924911C579CE001479C700DC11DD31D569C700DC11DD31D589C06
:206080008C0F0D1E131C200C311D931C25013601AE0CBF1CC01ED11EEA1EFB1E021F191FA9
:2060A000CC27C31D5EF0A41AB50AC60AD70AE80AF208030B1909C040DD0B0BC0A40EB51E3D
:2060C000C61ED71EE81EF21C031F191DDD27CD1F0000AC0FBD1F2D1F9D1F392F40815181F1
:2060E0006281738184819581868097800F90002099F544195509660977098A099B098C08CF
:206100009D08000820883188420D531D40875187A10122883388621D731D62877387B10168
:2061200024883588821D931D84879587C10126883788821C931C8686978641011124111C37
:2061400006944E095F09600B710B8A0B9B0B820A930ACC0BDD0B33C0440D551D661D771D0F
:206160008A1D9B1D8C1C9D1C000820883188420D531D40875187A10122883388621D731D82
:2061800062877387B10124883588821D931D84879587C10126883788821C931C86869786E6
:2061A00041011124111C06944E1D5F1D601F711F8A1F9B1F821E931ECC27DD27CC1F408C49
:2061C000518C628C738CA48CB58CC68CD78C1694441D551D661D771D8A1D9B1D8C1C9D1C7B
:2061E000C11DD11D408B518B628B738B848B958B868A978A4C0E5D1E6D1E7D1EAD1EBD1E40
:20620000CD1EDD1E408E518E628E738EA48EB58EC68ED78EDF91CF91BF91AF914427552785
:206220008A012D903D904D905D90688879888A889B88289C6001269C5001279CB00CC11CC5
:20624000D51E399C7001299C9001369CB00CC11CD21E351F379CC00CD11C351F499CE30E4A
:20626000F01C011D489C9001469CC00CD11CE21E351F389CD00CE11C351F599CF30E001D7C
:20628000111D579C9001479CD00C211D351F569CD00C211D351F589CE20E031E151EF00C67
:2062A000011D151FA0A2B1A2C2A2D3A25A012D913D914D916C897D898E899F89269FE00C6E
:2062C000F11C051FB51E279FF00C011DB51E369FF00C011D1B1DA51E289F000D111DA51E58
:2062E000379F000D111DA51E469F000D111DA51EBB24299F100DA11CB51E389F100DA11CE2
:20630000B51E479F100DA11CB51E221A330A440A2D91520A0008661A770A880A990A1108DF
:206320002024302440245024612471248124912401941194200C351E451E551E610C751EEA
:20634000851E951E012400FA269F100DA11CB51E399F3327A00CB11C351F489FA00CB11CF7
:20636000351F279FA00CB11C351F499F4427B00C311D451F289FB00C311D451F299F300D3B
:20638000411D882799272227269CB001279C700D811D369C700D811D951F289C800D911DF6
:2063A000251F379C800D911D251F469C800D911D251F299C2224900D211D251E389C900D4C
:2063C000211D251E479C900D211D251E569C900D211D251E399C3324200D211C351E489C5E
:2063E000200D211C351E579C200D211C351E499C4424200C311C451E589C200C311C451E37
:20640000599C300C411C60A071A06E0C7F1CC01ED11EEA1CFB1C031F141F551F5EF0661A47
:20642000770AC80AD90AE20AF208030914095040660B0BC0660E771EC81ED91EE21EF21C57
:20644000031D141D6627561F000064A275A2C6A2D7A2A50EB61E361F461FB701C8012A2DD2
:206460005B2DCC24DD24760186012D903D904D905D90688C798C8A8C9B8C269C5001279C45
:20648000B00CC11C369CB00CC11CD11E289CC00CD11CE11E379CC00CD11CE11E469CC00C54
:2064A000D11CE11E299CD00CE11CF11E389CD00CE11CF11E479CD00CE11CF11E569CD00CEE
:2064C000E11CF11E6A0D60AB7B1D71AB8C1D82AB9D1D93ABA21EA4AAB51EB5AAC31ED41E99
:2064E00000080F9244275527399CE00CF11C051F489CE00CF11C051F579CE00CF11C051F09
:20650000499CF00C011D151F589CF00C011D151F599C000D111D5A012D913D914D916C8D18
:206520007D8D8E8D9F8D269FE00CF11C051FB51E279FF00C011DB51E369FF00C011D1B1D7B
:20654000A51E289F000D111DA51E379F000D111DA51E469F000D111DA51EBB24299F100D38
:20656000A11CB51E389F100DA11CB51E479F100DA11CB51E221A330A440A2D91520A00088B
:20658000661A770A880A990A11082024302440245024612471248124912401941194200C62
:2065A000351E451E551E610C751E851E951E012400FA269F100DA11CB51E399F3327A00CED
:2065C000B11C351F489FA00CB11C351F279FA00CB11C351F499F4427B00C311D451F289FCB
:2065E000B00C311D451F299F300D411D882799272227269CB001279C700D811D369C700D72
:20660000811D951F289C800D911D251F379C800D911D251F469C800D911D251F299C222427
:20662000900D211D251E389C900D211D251E479C900D211D251E569C900D211D251E399C64
:206640003324200D211C351E489C200D211C351E579C200D211C351E499C4424200C311C0F
:20666000451E589C200C311C451E599C300C411C64A875A86E0C7F1CC01ED11EEA1CFB1C31
:20668000031F141F551F0F900194E00C0024F01C001D101D501D5EF0661A770AC80AD90A26
:2066A000E20AF208030914095040660B0BC0660E771EC81ED91EE21EF21C031D141D66272D
:2066C000561F000064AA75AAC6AAD7AAE0AEF1AE02AF13AFA50EB61E361F461FA4AEB5AE91
:2066E00036AF47AF50972D903D904D905D902D913D914D915D91AD90BD90CD90DD90ED905B
:20670000FD900D911D91AF93BF93CF93DF932A183B084C085D082E093F09400B510B0008CC
:20672000688879888A889B886C897D898E899F89A88CB98CCA8CDB8CEC8CFD8C0E8D1F8D7B
:206740006A187B088C089D086E097F09800B910B110820243024402450242025302540254D
:2067600050256124712481249124612571258125912501941194AA27BB27200C3A1E4A1EDF
:206780005A1E2A1F3A1F4A1F5A1F610C7A1E8A1E9A1E6A1F7A1F8A1F9A1F01240F928D01C0
:2067A000289C6001269C5001279CB00CC11CDA1E399C7001299CE001369CB00CC11CDC1EFC
:2067C000DA1F379CC00CD11CDA1F499CED0EF01C011D489CE001469CC00CD11CEC1EDA1FCE
:2067E000389CD00CE11CDA1F599CFD0E001D111D579CE001479CD00CC11DDA1F569CD00C70
:20680000C11DDA1F589CEC0E0D1E1A1EF00C011D1A1F221A330A440A550A0008661A770ACE
:20682000880A990A11082024302440245024612471248124912401941194200C3A1E4A1E00
:206840005A1E610C7A1E8A1E9A1E012400FA289FE001269FE00CF11C0C1FDA1F279FF00CF0
:20686000011DDA1F399F1D0FA01DB11D299FE001369FF00C011D1C1F2227D21F379F000D82
:20688000111DD21F499FAD0FB01D2227211D489FE001469F000D111DAC1F0024D01D389F46
:2068A000100DA11D3327D31F599FBD0F201D9927911D579FE001479F100DC11DD31F569FA3
:2068C000100DC11DD31F589FAC0F0D1E131EB00D211D931F289CB001269CA001279C500D18
:2068E000611D731F399C802D022C212C099CE001369C500D611D7C1FD31F379C600D711DFD
:20690000D31F499C8D0F201C311D489CE001469C600D711D8C1F0024D01D389C700D811D2D
