:1000000010C2000018C2000016C2000014C2000096
:1000100012C2000010C200000EC200000CC200009C
:100020000AC2000008C2000006C2000004C20000AC
:1000300002C2000000C20000FEC10000FCC10000BE
:10004000FAC10000F8C100000C94D224F4C10000F1
:10005000F2C100000C944425EEC10000ECC1000088
:10006000EAC10000E8C10000E6C10000E4C10000F0
:10007000E2C100000C949524DEC10000DCC1000048
:10008000DAC10000D8C10000D6C100001E202FFC3C
:10009000FFFFFEFFFFFFFFFFFFFFFFFFFFFFFFFF71
:1000A000FFFFFFFFFFFFFFFFFFFFFFFFFFFF1F201F
:1000B000414136D08C5ED2BF3BA048AFE6DCAEBA41
:1000C000FEFFFFFFFFFFFFFFFFFFFFFFFFFFFFFF41
:1000D00020209817F8165B81F259D928CE2DDBFC29
:1000E0009B02070B87CE9562A055ACBBDCF97E6600
:1000F000BE792120B8D410FB8FD0479C195485A617
:1001000048B417FDA808110EFCFBA45D65C4A32626
:1001100077DA3A48222000000000000000000000CA
:1001200000000000000000000000000000000000CF
:100130000000000000002320070000000000000075
:1001400000000000000000000000000000000000AF
:1001500000000000000000001430FFFFFFFF00005F
:10016000000000000000FFFFFFFFFEFFFFFFFFFF9A
:10017000FFFFFFFFFFFFFFFFFFFFFFFFFFFFFFFF8F
:10018000FFFFFFFFFFFFFFFFFFFF15307329C5CC07
:100190006A19ECEC7AA7B048B20D1A58DF2D37F483
:1001A000814D63C7FFFFFFFFFFFFFFFFFFFFFFFF63
:1001B000FFFFFFFFFFFFFFFFFFFFFFFF1630B70A44
:1001C0007672385E543A6C2955BF5DF20255382A72
:1001D0005482E041F759989BA78B623B1D6E74AD2A
:1001E00020F31EC7B18E37058BBE22CA87AA1730EF
:1001F0005F0EEA907C1D437A9D817E1DCEB1600A20
:10020000C0B8F0B51331DAE97C149A28BD1DF4F8B2
:1002100029DC9292BF989E5D6F2C26964ADE173697
:100220001830FCFFFFFF0000000000000000FFFF8F
:10023000FFFFFEFFFFFFFFFFFFFFFFFFFFFFFFFFCF
:10024000FFFFFFFFFFFFFFFFFFFFFFFFFFFFFFFFBE
:10025000FFFF1930EF2AECD3EDC8852A9DD12E8AF5
:100260008D3956C65A8713508F081403124181FEE8
:100270006E9C1D18192DF8E36B058E98E4E73EE29D
:10028000A72F31B30020FFFFFFFFFFFFFFFFFFFF9E
:10029000FFFF00000000000000000000000001005F
:1002A0000000FFFFFFFF0120512563FCC2CAB9F324
:1002B000849E17A7ADFAE6BCFFFFFFFFFFFFFFFF1D
:1002C00000000000FFFFFFFF022096C298D84539CA
:1002D000A1F4A033EB2D817D0377F240A463E5E622
:1002E000BCF847422CE1F2D1176B0320F551BF3720
:1002F0006840B6CBCE5E316B5733CE2B169E0F7C4B
:100300004AEBE78E9B7F1AFEE242E34F0420FCFF9C
:10031000FFFFFFFFFFFFFFFFFFFF000000000000E7
:1003200000000000000001000000FFFFFFFF0520AB
:100330004B60D2273E3CCE3BF6B053CCB0061D6599
:10034000BC86987655BDEBB3E7933AAAD835C65A22
:100350000618FFFFFFFFFFFFFFFFFEFFFFFFFFFF8E
:10036000FFFFFFFFFFFFFFFFFFFF07183128D2B499
:10037000B1C96B1436F8DE99FFFFFFFFFFFFFFFFE7
:10038000FFFFFFFF08181210FF82FD0AFFF400882C
:10039000A143EB20BF7CF69030B00EA88D18091851
:1003A0001148791EA177F973D5CD246BED11106337
:1003B00078DAC8FF952B19070A18FCFFFFFFFFFF2B
:1003C000FFFFFEFFFFFFFFFFFFFFFFFFFFFFFFFF3E
:1003D000FFFF0B18B1B946C1ECDEB8FE49302472FC
:1003E000ABE9A70FE7809CE5190521640C0F3021CC
:1003F000300906052B0E03021A050004140D144FD4
:100400007345494404021000000000000000000091
:100410000100000E0B01000908000000000001802F
:10042000FF0011241FBECFEFD0E1DEBFCDBF0E9481
:100430009A760C94D976E4CDCF93DF9300D01F92B7
:10044000CDB7DEB799838A830E94CA2462E0CE01C9
:1004500001960E94B4230F900F900F90DF91CF91DF
:100460000895662339F09C0122272115314611F4A5
:1004700080E090E9E1CF9091060280910502892BFE
:1004800019F086E89AE609C080910702882319F0DE
:1004900080E097E602C00E943F14CECF61E0019653
:1004A0000C94B423CF93FC01C4816C2F05960E9459
:1004B000DB2391E0C81301C090E0892FCF9108950C
:1004C000EF92FF920F931F93CF93DF9300D0CDB79E
:1004D000DEB76FEF83E092E00E94DB23882309F40C
:1004E0008CC280930202853018F480E09FE6A4DF7E
:1004F00080910302803809F452C2803A09F442C262
:10050000811163C280910402803C09F4A8C19091DA
:100510000102913011F410920102863409F4C2C034
:1005200008F5843209F472C050F4803209F450C0E6
:10053000823209F465C08E3009F044C232C08C3278
:1005400009F48AC020F48A3209F475C03BC28E32A5
:1005500009F498C0843409F035C283E092E00E9427
:100560001B0B35C28A3C09F4C8C178F4863809F4FB
:10057000BCC020F4843809F499C024C2843A09F438
:10058000BAC0803B09F455C11DC28A3D09F4DAC1E5
:1005900020F4863D09F4B7C115C2803E09F0F4C1CC
:1005A000D7C180910502813818F086E89AE60FC21B
:1005B00090910702992319F080E097E608C290E035
:1005C000982F882720910602822B0E940714FFC1D2
:1005D000809105028111E9CF80910702882359F0AB
:1005E00083E092E05BDF83E092E05CDF882319F038
:1005F00084E899E6ECC186E092E00E94C00FE7C172
:1006000060E071E083E092E02AD3E1C180910502CD
:100610008111CBCF80910702882371F283E092E0B1
:100620003DDF83E092E03EDF8111E2CF86E092E0A1
:100630000E94630FCCC160E071E083E092E077D468
:10064000811520E9920709F4C2C189839A830E9427
:1006500011119A818981BBC1809105028111A5CFB9
:1006600080910702882309F4A7CF83E092E016DF88
:1006700083E092E017DF8111BBCF86E092E00E9419
:100680003310A5C18091050281118FCF80910602A0
:100690008F3008F08ACF9091070291118DCF0E9480
:1006A000480F28C183E092E078D591C1809105027E
:1006B00081117BCF80910602811177CF10910702C3
:1006C000193008F079CF111101C018E0612F80E0D6
:1006D00091E00E9469258111F9CF1093000281E019
:1006E00080930102812F90E003C160E071E083E01C
:1006F00092E037D36CC1809106028C3021F08111D9
:1007000054CFF12C02C0FF24F39490910702911171
:1007100013C090910502911107C081114DCF80E067
:1007200091E00E94D6117BC0933009F045CF80E064
:1007300091E00E94961173C083E092E0AFDE83E007
:1007400092E0B0DE811154CF90910502292F2E7FC7
:10075000809107022830E1F4823018F487E89AE6A5
:100760006BDE8091070280FF03C087E89AE664DEB3
:100770008091050260E071E080FF05C087E092E0B3
:100780000E9408124CC087E092E00E941D1247C0F0
:10079000943069F48150803118F087E89AE617C1E7
:1007A00060E071E087E092E00E94AC1138C08230D6
:1007B000A1F7933008F0F9CE0091080210E0102F55
:1007C000002780910902082B911114C08091060224
:1007D000811109C001158FE3180729F480E091E029
:1007E0000E94D61105C060E071E0C8010E94DE11D0
:1007F0006F2D37DE80910502813039F460E071E0C1
:10080000C8010E94C1116F2D2CDE8091050282303B
:1008100009F0F3C060E071E0C8010E94F3116F2D90
:100820000F900F90DF91CF911F910F91FF90EF905C
:1008300018CE80910502813808F0B7CE609107028A
:10084000662309F4B9CE70E090E0982F88272091B4
:10085000060240E051E0822B0E945313B8C0809101
:1008600005028111A2CE8091060281119ECE809157
:100870000102813019F085E899E6A9C0609107026C
:10088000062F10E080910002E82EF12C01151105D1
:1008900009F4A6C0E114F10431F0E016F10630F4D9
:1008A000C7019C6694C0E12CFF24F39483E092E09E
:1008B0006983F4DD698180E091E00E94B423E01A4D
:1008C000F10A29F410920102E12CF12C0BC0F8017D
:1008D000E050FF4FCF01A0E0B1E021912D93A81788
:1008E000B907D9F7E0920002EE2021F0C70199275D
:1008F00091666DC080E090E96AC060E071E083E0DD
:1009000092E016D564C080910502813808F04DCE82
:1009100080910702882309F44FCE83E092E0BEDD88
:1009200083E092E0BFDD811163CE6091050270E04B
:10093000762F662780910602682B87E092E00E945E
:10094000B21345C060E071E083E092E0C8D53FC0DB
:1009500080910502811129CE80910602811125CE58
:1009600080910702882309F427CE83E092E096DD88
:1009700083E092E097DD81113BCE87E092E00E9418
:10098000B71425C080910402843EE1F40F900F90CB
:10099000DF91CF911F910F91FF90EF906CCD8091DF
:1009A00004028A3D79F4809105028111FECD809187
:1009B00006028111FACD809107028111F6CD0E94C5
:1009C000AD1205C080E09FE602C080E09EE60F9079
:1009D0000F90DF91CF911F910F91FF90EF902CCD51
:1009E000E114F10409F05CCF83E092E057DD60E0B0
:1009F00080E091E00E94B42365CF0F900F90DF91CB
:100A0000CF911F910F91FF90EF90089510920102E6
:100A100008959B0136952795DC01A60FB71FFC01B1
:100A2000820F931FE817F90729F020813E91319337
:100A30002C93F8CF08954F925F926F927F928F928E
:100A40009F92AF92BF92CF92DF92EF92FF920F935D
:100A50001F93CF93DF93EC0186E591E0FE019C01AB
:100A6000119221503040E1F7611108C062E0CE01DF
:100A7000805E9E4F0E9466123C0102C0662E712C61
:100A800038E16316710419F566E0CE010E943473F3
:100A900067E0CE01C0960E94347368E0CE01805AB0
:100AA0009F4F0E94347369E0CE0180579F4F0E9490
:100AB00034736AE0CE0180549F4F0E9434736BE020
:100AC000CE0180519F4F0E94347381E477C080E251
:100AD0006816710409F04CC00E945B12FE01F0968A
:100AE0004F019E01205A3F4F5901E05AFF4F6F01BD
:100AF000205A3F4F79018E0100511F4FEC53FF4F99
:100B00002F018232D1F06EE1CE010E9434736FE189
:100B1000C4010E94347360E2C5010E94347361E233
:100B2000C6010E94347362E2C7010E94347363E21B
:100B3000C8010E94347384E819C060E0CE010E94AD
:100B4000347361E0C4010E94347362E0C5010E9405
:100B5000347363E0C6010E94347364E0C7010E94ED
:100B6000347365E0C8010E94347382E4F20129C045
:100B7000F0E36F16710481F564E1CE010E943473D5
:100B800065E1CE01C0960E94347366E1CE01805AC1
:100B90009F4F0E94347367E1CE0180579F4F0E94A0
:100BA000347368E1CE0180549F4F0E94347369E131
:100BB000CE0180519F4F0E94347383E4FE01EC5AB2
:100BC000FE4F8083B301CE01805E9E4F22DF862DD3
:100BD000CB5ADE4F688201C080E0DF91CF911F9138
:100BE0000F91FF90EF90DF90CF90BF90AF909F90CC
:100BF0008F907F906F905F904F900895CF93DF9389
:100C0000FC018381873811F482E003C0863859F4EF
:100C100083E08383EF010E94C024CE010396DF911D
:100C2000CF910C94D61285E899E6DF91CF91089583
:100C30000F931F93CF93DF938C010E946612EC01F8
:100C4000BC01C801E6DECF3FD10519F010F0C0E0CD
:100C5000D0E08C2FDF91CF911F910F910895CF930A
:100C6000DF93EC0110920703892B09F46FC08A818E
:100C7000833F21F48C8181116CC03EC0813409F026
:100C80006BC08C81811104C03B81363B51F40EC096
:100C9000CE0104DCCE0106DC8823B1F384E899E6BA
:100CA0005DC0383B19F0343A09F056C0EC81F0E0F1
:100CB00020E060E070E004C090E00296680F791FC9
:100CC0006E177F0708F048C0DE01A60FB71F159604
:100CD0009C91159716968C9116979038D1F42160B7
:100CE0008130D1F517969C91923049F490930A0384
:100CF000273011F73093070380E090E92FC093303D
:100D000018F4992399F328C0943081F3923171F348
:100D100023C0913889F422608230F1F417964C9107
:100D2000179750E0542F442718969C91492B5093C5
:100D3000090340930803DCCF9438D1F62460813056
:100D400059F417969C91992399F206C080E090E09F
:100D500005C087E89AE602C081E89AE6DF91CF9164
:100D60000895BF92CF92DF92EF92FF920F931F935D
:100D7000CF93DF93CDB7DEB7C751D2400FB6F8940B
:100D8000DEBF0FBECDBFFC0182818111BAC083815D
:100D90008111B7C08481823008F4B6C06B018F0125
:100DA000CF017CDBC8017EDB882319F084E899E65B
:100DB000ADC080910703843A19F085E899E6A6C092
:100DC0000E94911120910803309109038217930723
:100DD000A1F7D80115968C918C3741F77801B7E0CF
:100DE000EB0EF11CF8012681203801F3422F50E070
:100DF000848190E0029748175907C1F6223048F1E4
:100E0000D7013C91F701329611968C91119787FF8B
:100E100005C0213859F6319612968C919EEF920FAB
:100E2000981720F2353861F47F01BFEFEB1AFB0A07
:100E30003081343009F0BACF8913B8CF235009C0BC
:100E4000303809F0B3CF7F01E80EF11C292F281BA1
:100E5000D5CF60E0CE010196C95EDD4F2883C75132
:100E6000D240E9DDB82EC95EDD4F2881C751D2409E
:100E7000882309F4A2CF082F10E0C801880F991F1A
:100E800030E08217930709F091CFCA5ADE4F4881AC
:100E9000C655D14050E0B701CE01895A9E4F0E94FD
:100EA0004873CA5ADE4F4881C655D14050E0B70159
:100EB000600F711F87E591E08C0F9D1FC0960E9407
:100EC00048730E94C024AE014F5F5F4FBE01695A54
:100ED0007E4FCE0189519E4F0E94531F81116DCFCD
:100EE000A801BE01695A7E4FC6010E944873F601EF
:100EF000EF5FFE4F81E080833197B082C801916639
:100F000005C086E89AE602C080E097E6C95EDD4F3C
:100F10000FB6F894DEBF0FBECDBFDF91CF911F910A
:100F20000F91FF90EF90DF90CF90BF900895CF92F8
:100F3000DF92EF92FF920F931F93CF93DF931F9255
:100F4000CDB7DEB78C016B01DC0112968C91129744
:100F50008E3909F065C013968C9113978A3909F080
:100F60000AC114968C91882309F408C1C80196DA45
:100F7000C80198DA882319F084E899E604C18091C1
:100F80000703863B19F085E899E6FDC00E949111A0
:100F9000209108033091090382179307A1F78091EC
:100FA0000A03843091F40E94C024B601C80104965B
:100FB0000E945673882339F3F601F3959081319698
:100FC00081E08083892F90E029C0823021F0823136
:100FD00021F421E005C022E003C08111D2C020E04D
:100FE000F801E480F12CB8016B5F7F4FA701C801C5
:100FF00029830E94C1760E94C0242981A601B801DC
:10100000C7010E942D74009709F4BDCFF601EF5F70
:10101000FE4F21E020833197808399279166B3C0EA
:10102000803809F0A8C0D80113968C9113978638A0
:1010300009F0A1C080910703883B09F0A4CF149662
:101040008C91813408F49AC0C80128DAC8012ADAE0
:10105000811192CFF80185818138D9F4F601F39599
:10106000D80114968C9114978150808314964C91DA
:1010700050E041505109B8016A5F7F4FC6010E949C
:10108000B876F601EF5FFE4F82E0808380E090E962
:101090007AC0823821F5F601EF5FFE4F8081823001
:1010A00009F06ACF10823197E080F12CF801448179
:1010B00050E0B8016A5F7F4FC6018E0D9F1D0E94F0
:1010C000B876F1E0EF1AF108D80114968C91E80E89
:1010D000F11CA701B601C8010E94B8760FC08111AA
:1010E0004BCFF801E480F12CF1E0EF1AF108B801E0
:1010F0006A5F7F4FA701C8010E94C1760E94C02489
:1011000020E0A601B801C7010E942D74009709F4E0
:101110003ACF20910A03223009F078CFD6012C91E2
:10112000211174CF11962C91223009F06FCF8C30A1
:10113000910508F46BCF8C010350110996012E5FC5
:101140003F4FF9012F5F3F4F4081411110C0960181
:10115000245F3F4FE217F30708F458CFBF016F5FDA
:101160007F4FA801C6010E94B876C8014FCF015039
:10117000110939F74BCF86E89AE605C080E097E67B
:1011800002C081E89AE60F90DF91CF911F910F91F5
:10119000FF90EF90DF90CF9008950F931F93CF9320
:1011A000DF93CDB7DEB7CB57D2400FB6F894DEBF92
:1011B0000FBECDBFFC0122812111AAC023812111C4
:1011C000A7C08C018481811105C0F801848181113F
:1011D00013C008C0CF0162D9C80164D98823A9F31C
:1011E00084E899C00E944E128C01019609F48EC0C9
:1011F0000E945B12823211F085E88DC0C8018F77A2
:101200008115914019F0003C1105B1F70E94C024EE
:10121000B80183E0769567958A95E1F7CE0101964E
:101220000ADC882349F30AE412E00C0F1D1F0E5F4D
:101230001F4FAE014F5F5F4FBE0166547E4FC80126
:101240000E94DD1F8111D8CFCA5ADE4F6881C65572
:10125000D14070E0C801DDDBCA5ADE4F4881C65577
:10126000D14050E0BE0166547E4F87E591E08C0F7F
:101270009D1F03960E944873CA5ADE4F4881C65587
:10128000D14050E0CA010396BE0166517E4FE7E5AA
:10129000F1E0EC0FFD1F8E0F9F1F0E94487382E448
:1012A000C65BDD4F8883CA54D240CA5ADE4F88815C
:1012B000C655D140C55BDD4F8883CB54D240CE01AB
:1012C000865B9D4F0E94D6128115F0E99F0721F59C
:1012D00083E4C95ADE4F8883C755D140CA5ADE4FCE
:1012E0008881C655D140880F8F5FC85ADE4F8883EA
:1012F000C855D14084E0C75ADE4F8883C955D140D4
:10130000CE01895A9E4F0E94D61206C082E801C0C3
:1013100086E89AE601C099E6C558DD4F0FB6F89405
:10132000DEBF0FBECDBFDF91CF911F910F9108950A
:10133000EF92FF920F931F93CF93DF93FC011281E3
:10134000113009F0C0C0EB01FC018381803A61F1EA
:1013500060F4813009F46FC008F442C0823009F4AF
:1013600090C0863809F49BC0AEC08A3A59F160F447
:10137000843A08F0A8C0815ADF91CF911F910F9154
:10138000FF90EF900C9467168C3A09F09CC07BD5C7
:1013900098838983FE01EF5FFE4F1083D39582E02F
:1013A000888382E091E694C06DE0CE010E943473A0
:1013B000FE01EF5FFE4F1083D39584E1888384E1C3
:1013C00091E686C06EE0CE010E943473FE01EF5FAD
:1013D000FE4F1083D3958BE088838BE091E678C035
:1013E00082E98883198261E880E090E00E946612B9
:1013F000009709F468C033E0880F991F3A95E1F728
:101400009A838B8363E880E090E00E9466120097E5
:1014100009F459C024E0880F991F2A95E1F79C83AD
:101420008D83FE01EF5FFE4F1083D39586E08883A6
:1014300086E091E64DC060E8CE010E9466128C0104
:10144000892BB1F468E8CE010E9466127C01892BD9
:10145000D1F169E8CE018E0D9F1D0E9466120097A2
:1014600091F1E80EF91EE114F1E0FF0609F08701A1
:10147000FE01EF5FFE4F81E08083D3950883C801B2
:101480000CC061E8CE010E9466120097E1F0FE01F7
:10149000EF5FFE4F1083D3958883992712C063E0D6
:1014A000CE0102960E946612009781F090E3988325
:1014B00089838E5FFE01EF5FFE4F1083D395888393
:1014C00090E0916605C088E89AE602C085E899E652
:1014D000DF91CF911F910F91FF90EF9008950F939F
:1014E0001F93CF93DF93EC018C81811105C08A811A
:1014F000813009F08AC00BC0CE010E944E02CE019D
:101500000E945202882399F384E899E68FC08B8168
:10151000803E69F48C81883009F07AC00E94C02432
:10152000CE010796DF91CF911F910F917FC69FEF5C
:10153000980F9E3060F48C818051843008F068C030
:10154000CE010396DF91CF911F910F91F5C5805881
:101550008C3008F060C0A2D78C01892B09F45EC0E2
:10156000AAD7833251F40115114009F05AC0CE01B7
:10157000DF91CF911F910F9141CB823269F4003CF2
:101580001105A9F3C8018F778115914081F30930C6
:10159000124009F046C0EBCF813109F042C0C801CA
:1015A000925081309640E8F52C8120FF0AC08B8153
:1015B000813839F09D81911137C021502D838C8362
:1015C00021968B818138A1F038F4803869F588E064
:1015D000289F900111240DC08358873028F580E1A1
:1015E000289F90011124213088E03807ECF401C0D5
:1015F000980102171307C1F40E94C024CE0103967C
:10160000DF91CF911F910F91D1C788E89AE60EC064
:1016100080E097E60BC081E89AE608C082E89AE687
:1016200005C081E899E602C085E899E6DF91CF918F
:101630001F910F910895CF93DF93EC018C8181115D
:1016400004C03FD480E090E90AC0CE010E944E025F
:10165000CE010E9452028823A1F384E899E6DF912B
:10166000CF910895DC01FB0190E02D918191281725
:1016700031F0943048F0211107C08F3F29F49F5F6B
:10168000983099F780E0089581E00895CF93DF9333
:101690001F92CDB7DEB741E06EEFCE0101960E94FA
:1016A000022599818EEF89270F90DF91CF910895C0
:1016B000CF93DF931F92CDB7DEB79EEF8927898343
:1016C000E5DF9981891731F041E06EEFCE01019697
:1016D0000E9414250F90DF91CF910895CF92DF9251
:1016E000FF920F931F93CF93DF93CDB7DEB762972F
:1016F0000FB6F894DEBF0FBECDBF6B01042F815033
:1017000092E1899FF02C112442E16F2DCE010196C8
:101710000E940225811156C01989002369F1C11464
:10172000D10439F4912F92959F701FE0812F891B6E
:101730004CC0812F807F803F09F446C0BE01675FA7
:101740007F4FC6018FDF312F3F70882379F01295CC
:101750001F7091E0910F9F70892F8295807F832B5E
:10176000898B1FE0191B31F51FEF24C02A89207FC8
:10177000932F922B998B1DC0C114D10421F4109585
:10178000812F8F7022C0012F0F700F30E9F0BE0142
:101790006F5F7F4FC60166DF107F882331F091E0D5
:1017A000900F9F70192B198BDCCF9A899F70192B82
:1017B000198B10E042E16F2DCE0101960E94142595
:1017C000812F03C08FE001C08FEF62960FB6F894AF
:1017D000DEBF0FBECDBFDF91CF911F910F91FF9064
:1017E000DF90CF9008950F931F93CF93DF9300D096
:1017F000CDB7DEB7182F062F42E06CEFCE01019671
:101800000E940225811122C0115081E090E002C0A7
:10181000880F991F1A95E2F749815A81013039F4EE
:101820009C0120953095CA018223932302C0842B0A
:10183000952B9A83898342E06CEFCE0101960E943A
:10184000142591E0811103C090E001C091E0892F3F
:101850000F900F90DF91CF911F910F9108951F93DB
:10186000CF93DF9300D0CDB7DEB7182F42E06CEFF7
:10187000CE0101960E940225115021E030E002C005
:10188000220F331F1A95E2F789819A812823392381
:1018900081E0232B09F080E00F900F90DF91CF9132
:1018A0001F910895CF93DF93EC018FE6888387E142
:1018B000898380911B0385FD02C080E801C081E817
:1018C0008A8382E08B8390910F03209110032C83F5
:1018D0009D8392E89E8391E09F8320911503288742
:1018E00023E829878A8720910D0330910E033B87D7
:1018F0002C8726E82D8723E02E87209116032F873B
:1019000020911703288B20911803298B25E82A8B17
:101910008B8B8091190320911A032C8B8D8B8AE875
:101920008E8B9F8BB3DE888F40911B034F7161F4C8
:1019300089818E5FFE01F3958083CF5FDE4F91E05A
:10194000988390E0916615C089818E5F840F8983AA
:1019500084E8898F4A8F60911C0370911D03615F39
:101960007F4FCE014B960E943025813009F78FEFD3
:101970009FEFDF91CF9108952F923F924F925F9208
:101980006F927F928F929F92AF92BF92CF92DF928F
:10199000EF92FF920F931F93CF93DF93CDB7DEB7F4
:1019A000E4970FB6F894DEBF0FBECDBF5C016B01AC
:1019B0008A01FC016480758086809780273069F4F5
:1019C000FA013080C180D12CDC2CCC248281C82A41
:1019D0000D5F1F4F3A943A9407C02A3021F4FA0160
:1019E00031908F0101C0312C1AA219A2212C412C57
:1019F000512C69A17AA14FE0CE0142962CAB0E94F6
:101A00003025382F2CA98111DFC0EA88FB88FFEF31
:101A1000EF16FF06F9F4293059F46FEF461A560A0B
:101A2000F5015582448289A19AA1908B8787D7C0FE
:101A3000243039F4222009F4D2C081E1FE0131962C
:101A4000C8C0243008F0CBC0832D90E0F50191830D
:101A50008083C5C04E895F894416550608F42A0163
:101A6000283021F44815590509F4B0C07A8D78332F
:101A700011F061E001C062E0888D998D86159705AF
:101A800081F4E114FFE3FF0661F0622B633049F457
:101A90006EE7631530F0F801F082E18233940E5F57
:101AA0001F4FEC14FD0409F059C02430F1F48815DF
:101AB000990551F4FE017296DE01119661E10190E3
:101AC0000D926A95E1F70FC04815590571F4211080
:101AD0000AC0FE017296DE01119661E101900D923D
:101AE0006A95E1F702C02224239486159705B9F57B
:101AF000783311F061E001C062E0E114FFE3FF061A
:101B000061F0622B633049F46EE7631530F0F80141
:101B1000F082E18233940E5F1F4F243009F456C0E7
:101B2000293009F453C0273081F4332009F44EC022
:101B3000F801E080F12CFE2CEE248181E82A0E5F72
:101B40001F4F3A943A943A010AC0783319F4253079
:101B500019F43CC02630D1F13C0101C0760188A1C6
:101B60008F7199F489A19AA10F9638A1432F4F71D3
:101B7000840F911D9AA389A336FD24C04C895D89E9
:101B8000840F951F9AA389A31DC02A3059F769A114
:101B90007AA1615F7F4F432DCE0183962CAB3BAB87
:101BA0000E9430252CA98111DDCF432D50E0BE01CC
:101BB0006D5D7F4FC8010E94AB762CA93BA9892B94
:101BC00089F604C0670115CF32E00AC081E1FE0149
:101BD0007296D50101900D928A95E1F701C031E02E
:101BE000832FE4960FB6F894DEBF0FBECDBFDF9112
:101BF000CF911F910F91FF90EF90DF90CF90BF900A
:101C0000AF909F908F907F906F905F904F903F909C
:101C10002F9008950F931F93CF93DF9300D000D0A0
:101C2000CDB7DEB720E03FE330930E0320930D03E2
:101C300010921403109213031092120310921103C6
:101C400020E430E03093100320930F0328E3209327
:101C50001503009759F0FC0180819181A281809346
:101C6000160390931703A093180309C081E1809392
:101C700016038FE3809317038FEF8093180382E09E
:101C800090E090931A038093190380911B03807E48
:101C90008364806280931B034FE060E070E08DE01E
:101CA00093E00E94C8FF80EF89838DE48A8386E4F5
:101CB0008B8343E06FE070E0CE0101960E94C8FF85
:101CC0008FEF8C8300E010E041E0602FCE0104969E
:101CD0000E9414250F5F1F4F0115F1E01F07A1F7A8
:101CE00081E0E6DC0F900F900F900F90DF91CF9185
:101CF0001F910F9108950F931F93CF93DF938C0142
:101D0000EB010E94C024209791F0CF3FD10509F04C
:101D100010F46C2F01C060E0C8010E94D8FF1816B3
:101D2000190644F4C81BD90B080F191FECCF80E02B
:101D300090E902C081E895E6DF91CF911F910F9164
:101D40000895CF93C82FA2DC8730B9F4CC23A9F033
:101D5000CF30A9F021E030E0C15019F0220F331F3D
:101D6000FBCF80910B0390910C032823392381E052
:101D700090E0232B31F080E004C080E001C081E0DE
:101D800090E0CF91089520910D0330910E032F3FE5
:101D90003F4FB9F0833019F48091160309C08430A5
:101DA00019F4809116030AC0853021F4809117033D
:101DB000829504C0863029F4809117038F70C1DFAB
:101DC000089581E00895DF92EF92FF920F931F93A1
:101DD000CF93DF9300D0CDB7DEB77C016F3F09F41E
:101DE00047C080910D0390910E03019609F440C005
:101DF00090911503913119F092529230C8F5D62E78
:101E000000910F031091100380911C0390911D030A
:101E10000F96F70191838083033011054CF1F70190
:101E20006081718142E0CE0101960E9430258111CE
:101E30001FC099819F3FE9F09D15C1F02A81422F73
:101E400050E0BA016E5F7F4FF70180819181860F6C
:101E5000971F9183808302501109041B150B2111D8
:101E6000DBCF9395918380831A95D6CF81E001C013
:101E700082E00F900F90DF91CF911F910F91FF9013
:101E8000EF90DF90089580910B0390910C030895DB
:101E90008F30B0F4882341F02EEF3FEF815031F0C6
:101EA000220F331F2160FACF20E030E080910B0336
:101EB00090910C032823392330930C0320930B03B8
:101EC000089587E0F5CBEF92FF921F93CF93DF93B6
:101ED000CDB7DEB762970FB6F894DEBF0FBECDBFA9
:101EE000FC01108121812031D1F57C01BC016E5FA4
:101EF0007F4F40E0812FF2DB8F3FA1F1882329F053
:101F00008F7090E0806C93662FC060E0F701808155
:101F10006ADC882319F08FEC93E626C0115082E129
:101F2000189F102D112442E1612FCE0101960E94CD
:101F300002258111F0CF88E0F7013A96DE01119673
:101F400001900D928A95E1F742E1612FCE01019651
:101F50000E9414258111DFCF80E090E905C080E068
:101F600097E602C083E899E662960FB6F894DEBF62
:101F70000FBECDBFDF91CF911F91FF90EF900895DD
:101F8000EF92FF920F931F93CF93DF93CDB7DEB7FE
:101F900028970FB6F894DEBF0FBECDBF7C01FC01C1
:101FA00000818181811112C040E060E070E0802FEB
:101FB00095DB182F8F3F19F483E899E647C0802FEF
:101FC0004EDC882361F185E899E640C0893018F03D
:101FD00088E0F701818348E050E06FEF70E0CE01C8
:101FE00001960E94D276F701418150E0B7016E5F01
:101FF0007F4FCE0101960E94B87640E0BE016F5F30
:102000007F4F802F6BDB182F8F3FB1F2802F27DCA3
:102010008111D9CF111103C081E090E006C01F707B
:10202000812F90E0806C936611C0015019F0880FE9
:10203000991FFBCF20910B0330910C03822B932B24
:1020400090930C0380930B0380E090E928960FB6E1
:10205000F894DEBF0FBECDBFDF91CF911F910F91DE
:10206000FF90EF900895EF92FF921F93CF93DF932D
:10207000CDB7DEB762970FB6F894DEBF0FBECDBF07
:102080007C01FC0110818181811107C041E060E089
:1020900070E0812F23DB90E043C08031E1F541E027
:1020A000B7016E5F7F4F812F19DB8F3FB9F1882316
:1020B00039F0982F9F70892F90E0806C936630C024
:1020C000115082E1189F102D112442E1612FCE01A1
:1020D00001960E940225882319F08FEC93E620C018
:1020E00088E0F7013A96DE01119601900D928A95EB
:1020F000E1F78A89982F9F708989807F892B898B46
:1021000042E1612FCE0101960E9414258111E5CF95
:1021100080E090E905C080E097E602C083E899E698
:1021200062960FB6F894DEBF0FBECDBFDF91CF91A0
:102130001F91FF90EF900895FF920F931F93CF93FD
:10214000DF93CDB7DEB762970FB6F894DEBF0FBE50
:10215000CDBF8C019BDA813009F04FC0F801F080CF
:102160008181803108F44CC098E03296DE011196EE
:1021700001900D929A95E1F798E0F8013A96DE0108
:10218000199601900D929A95E1F793E39A8B998BAA
:10219000803121F1F8019289913108F09FE090950A
:1021A000292F2F709A89907F922B9A8B8131B1F0D1
:1021B000F8019389913108F09FE09095292F22959D
:1021C000207F9A899F70922B9A8B823139F0F80187
:1021D000848980FF03C061E08F2D05DBFA9462E102
:1021E000F69E602D112442E1CE0101960E94142535
:1021F000811109C080E090E908C082E899E605C035
:1022000080E097E602C081E895E662960FB6F89402
:10221000DEBF0FBECDBFDF91CF911F910F91FF9019
:10222000089510920C0310920B0308950F931F93BF
:10223000CF93DF938C01109212031092110325E0CB
:1022400040E050E060E07FE38DE093E095DB8823A1
:1022500019F0C0E0D0E018C080910D0390910E03FA
:10226000019619F482E899E619C0809117038295C6
:102270008F7067DD882369F3F5CF9C012C0F3D1F1C
:102280002C173D0738F0E90160E0CE010E94D8FF2D
:1022900097FFF3CFC801BEDC80E090E9DF91CF91DA
:1022A0001F910F9108950F931F93CF93DF931F9268
:1022B000CDB7DEB70FEF10E041E0612FCE01019600
:1022C0000E940225898108231F5FB1F70F3F99F40F
:1022D00029E040E050E06FEF7FEF8DE093E04CDBD2
:1022E000813049F480911C0390911D03892B19F4CE
:1022F00080E090E08FDC10920C0310920B031092A0
:1023000012031092110325E040E050E060E07FE30B
:102310008DE093E031DB0F90DF91CF911F910F9112
:10232000089580910D0390910E030895CF93DF934C
:10233000EC0128E040E050E060E070E08DE093E0E8
:102340001BDB811104C0CE01DF91CF91ABCA82E8C3
:102350009AE6DF91CF910895CF93DF93EB012AE0C6
:10236000AC0160E070E08DE093E006DB811104C019
:10237000CE01DF91CF9196CA82E89AE6DF91CF91A4
:102380000895CF93DF93EB0125E040E050E0BC01DE
:102390008DE093E0F1DA811104C0CE01DF91CF919D
:1023A00081CA82E89AE6DF91CF91089510921203D4
:1023B00010921103BC0180E09FE3E3CFCF93DF9342
:1023C000EB0124E040E050E0BC018DE093E0D4DA82
:1023D000811104C0CE01DF91CF9164CA82E89AE6F0
:1023E000DF91CF910895CF93DF93EB0126E040E09A
:1023F00050E0BC018DE093E0BFDA811104C0CE0152
:10240000DF91CF914FCA82E89AE6DF91CF9108958C
:10241000CF93DF93EB0127E0AC0160E070E08DE04B
:1024200093E0AADA811104C0CE01DF91CF913ACABC
:1024300082E89AE6DF91CF9108950F931F93CF938F
:10244000DF93CDB7DEB761970FB6F894DEBF0FBE4E
:10245000CDBF8B011E821D8227E0AC0160E070E0E1
:10246000CE01019689DA81110CC091E1FE0131960D
:10247000ADE0B3E001900D929A95E1F7C80112DA50
:1024800002C082E89AE661960FB6F894DEBF0FBEEE
:10249000CDBFDF91CF911F910F91089580910D03D2
:1024A00090910E038F3F2FEF920721F080910F0341
:1024B00090911003089580910D0390910E03019661
:1024C00019F08091150308958FEF08950F931F93CE
:1024D000CF93DF9300D000D0CDB7DEB78C0183E07F
:1024E0006C8351DC6C81882319F080E090E02CC073
:1024F0006F7BCE01019667DC8130B9F769817A8103
:102500006F5F7F4F7A83698341E0CE0103960E941B
:1025100030258111EACF69817A816F5F7F4F7A839D
:1025200069834B81413808F70115110529F48B8126
:10253000882341F090E008C0C8010E94302588231C
:10254000B1F3D3CF80E091E00F900F900F900F90F8
:10255000DF91CF911F910F91089584E014DC8111D8
:1025600005C080911503833241F417C086E00BDC6F
:102570008823B9F382E899E60895823289F483E2E8
:102580008093150360911C0370911D034FE08DE053
:1025900093E00E94C8FF811106C080E090E9089591
:1025A00085E899E6089581E895E60895EF92FF920F
:1025B0000F931F93CF93DF9300D0CDB7DEB7FC010D
:1025C000E0901903F0901A03918191509E3F18F00A
:1025D00084E899E65FC08F01808186FF09C08F7B08
:1025E000808386E0D0DB811107C06894F1F807C0D2
:1025F00084E0C9DB882319F082E899E64BC0F80132
:102600006081CE010196DFDB8111E2CFF80180818C
:10261000823021F0803811F0893811F46894F0F894
:102620008091190390911A03E816F906B1F46981B3
:102630007A81F801418180911C0390911D039B01D7
:10264000281B390BC901840F911D20910F03309174
:10265000100328173907E0F012C0F0921A03E09235
:10266000190360911C0370911D034FE08DE093E00E
:102670000E94C8FF8823D9F281E895E60BC04E5F1F
:10268000C8010E94C8FF8130B9F380E090E902C020
:1026900080E09BE60F900F90DF91CF911F910F91FB
:1026A000FF90EF900895BF92CF92DF92EF92FF924A
:1026B0000F931F93CF93DF936C01EB017A0180910D
:1026C0000D0390910E03019641F0B090150381E047
:1026D000B81631F085E899E63BC086E899E638C03F
:1026E00083E051DB811132C020910F033091100340
:1026F000C6018C0F9D1F2817390710F100911C038C
:1027000010911D03015F1F4F90911B039F71090FD3
:10271000111D0C0D1D1DAE016FEF70E0C7010E9471
:10272000D276F701F395C0833196B0824C2FB80171
:10273000C7010E943025813031F0CE01916608C07A
:1027400082E892E605C081E892E602C082E899E656
:10275000DF91CF911F910F91FF90EF90DF90CF907D
:10276000BF900895EF92FF920F931F93CF93DF9343
:102770001F92CDB7DEB7FC01408120910D0330914F
:102780000E032F3F3F4F39F020911503213031F0D8
:1027900085E899E634C086E899E631C08B017C0172
:1027A00084E04983F0DA4981811127C020910F0329
:1027B00030911003C801840F911D28173907B8F014
:1027C00020911C0330911D03215F3F4F80911B031B
:1027D0008F71280F311DB901600F711FC70101965C
:1027E0000E94C8FF813031F080E090E908C080E0AD
:1027F0009BE605C081E895E602C082E899E60F9065
:10280000DF91CF911F910F91FF90EF900895CF939B
:10281000DF9320910D0330910E032F3F3F4F39F08E
:1028200020911503213031F085E899E625C086E82E
:1028300099E622C0EC0184E0A6DA81111BC0609108
:102840000F03709110036C177D0788F06C1B7D0BD4
:1028500080911C0390911D030F9620911B032F71F3
:10286000820F911D8C0F9D1FDF91CF9144CA80E094
:102870009BE602C082E899E6DF91CF910895CF925E
:10288000DF92FF920F931F93CF93DF93CDB7DEB705
:1028900061970FB6F894DEBF0FBECDBF80910D03D8
:1028A00090910E03019609F44FC08091150388336F
:1028B000D1F48091190390911A03029719F485E8D5
:1028C00099E647C08091170382958F703ADA81119B
:1028D00007C080911B0386FF09C00FE010E00CC009
:1028E00082E899E636C085E04EDAF1CF00910F0319
:1028F00010911003015F1F4F8F71F82EC0901C03C1
:10290000D0901D0329E040E050E06FEF7FEFCE0153
:10291000019632D8813099F60F0D111DC8018C0D2A
:102920009D1D288939892817390749F628E040E094
:1029300050E060E070E08DE093E01ED8811107C0A8
:10294000B801C601D8D905C086E899E602C082E878
:102950009AE661960FB6F894DEBF0FBECDBFDF9149
:10296000CF911F910F91FF90DF90CF9008956F92BC
:102970007F928F929F92AF92BF92CF92DF92EF920F
:10298000FF920F931F93CF93DF93CDB7DEB7A1973D
:102990000FB6F894DEBF0FBECDBFFC0180910D03D2
:1029A00090910E03019609F469C180911503883353
:1029B00009F064C18091110390911203998F888F5F
:1029C0002081223008F460C18181823609F05CC127
:1029D000B28030E02E5F3F4F8B2D90E028173907F3
:1029E0000CF452C1339688A1807E8F7D88A3712C10
:1029F0006C897D892A893B899B8C8C8CAD8C8F71ED
:102A0000682E50E04A8DA0E0B0E000E010E081E0E8
:102A1000B81216C098A170FA95F959A37D8B6C8BEA
:102A20004A8F3B8B2A8BBF8FAE8F9B8E8C8EAD8E49
:102A3000907E892F862988A380818823B1F024C1C4
:102A400081E08B15B8F098A170FA95F959A37D8BA8
:102A50006C8B4A8F3B8B2A8BBF8FAE8F9B8E8C8E5D
:102A6000AD8E907E892F862988A389A18F3009F0A9
:102A70000BC195C09181992331F3913108F004C1C4
:102A8000E92EF12C8FEFE81AF80ACB2CD12CEC149C
:102A9000FD040CF0F9C08081833809F446C060F46D
:102AA0008038E1F020F4882309F474C0EDC0813847
:102AB00079F0823821F1E8C0853809F44FC008F474
:102AC0005FC0863809F454C08A3809F460C0DCC09D
:102AD000923009F0D9C07724739403C0933008F082
:102AE000D3C050FDD1C05160628170E0913021F0BF
:102AF000762F6627F3806F2977FF4CC0C5C09530CD
:102B000008F0C2C052604281842F8F7EF82E81E08F
:102B1000F81609F43FC00F2EFEEDFF2EF02DF40E37
:102B20008F15C0F54833B1F1AFC0923009F0ACC099
:102B30005460228130E0322F2227F3802F292F3F4B
:102B40008FE3380709F4A0C021158FE3380709F493
:102B50009BC02F3F8FEF3807E9F496C0923009F001
:102B600093C0A281B0E0BA2FAA27F380AF2912C088
:102B7000933008F489C0586092808380A4800AC092
:102B8000892F8F71682E8F010F5F1F4F03C0913007
:102B900009F07AC09E5FB91AE90FF11D38CF9A8DFE
:102BA00088A1983371F5806488A385FF6DC08091FA
:102BB00016038F70C6D8882319F082E899E672C090
:102BC0002AE0A80160E070E0CE0101960E94BC0CF2
:102BD0008823A1F081E1EDE0F3E0DE0111960190A0
:102BE0000D928A95E1F76A897B8929E040E050E0FF
:102BF000CE0101960E94BC0C813069F089E89AE60A
:102C000051C08F7B88A39332E1F18E8D9F8D907F91
:102C10009F8F8E8F36C08D819E819F8B8E8B688912
:102C200079898C899D89680F791F6F5E7F4F88A194
:102C30008F71680F711D41E0CE0181960E94302591
:102C4000882319F085E899E62DC0688979894FE0D5
:102C5000CE0142960E94C8FF8111F4CF01151105E3
:102C6000B1F048A14F7168897989615F7F4FC801D0
:102C700001960E94C8FF8111E5CF09C082E89AE65B
:102C800011C00115110531F084E899E60BC080E010
:102C900090E908C08091160382958F7052D88111F7
:102CA0008CCF98CFA1960FB6F894DEBF0FBECDBFE4
:102CB000DF91CF911F910F91FF90EF90DF90CF9018
:102CC000BF90AF909F908F907F906F9008950F93DB
:102CD0001F93CF93DF93CDB7DEB761970FB6F8940C
:102CE000DEBF0FBECDBF8B0120910D0330910E03CF
:102CF0002F3F3F4F19F482E89AE62EC090911503BA
:102D000098739833C1F7833008F080E091E1EDE0EB
:102D1000F3E0DE01119601900D929A95E1F723E020
:102D2000281BA80160E070E0CE0101960E94BC0C57
:102D3000813009F729813A812115310559F0F801CF
:102D4000EF5FFE4F8083220F31972083822F90E028
:102D5000916602C080E090E961960FB6F894DEBFFC
:102D60000FBECDBFDF91CF911F910F91089520919C
:102D70002303382FFC0190E08E2F831B821718F459
:102D80008191982BF9CF81E0911180E008954091D5
:102D90002103509122030C94A93DEF92FF920F93CF
:102DA0001F93CF93DF938C01EB01685E7F4FCE01C1
:102DB000EEDF88E1F80111928A95E9F77E01F8E2E9
:102DC000EF0EF11CD801189688E0F70101900D92E2
:102DD0008A95E1F7BE01C801DADFBE01605F7F4F6F
:102DE00088E0F701DB0101900D928A95E1F7C801B7
:102DF000DF91CF911F910F91FF90EF90C8CFAF92CD
:102E0000BF92CF92DF92EF92FF920F931F93CF93D7
:102E1000DF93CDB7DEB7C056D1090FB6F894DEBF49
:102E20000FBECDBF7C016B015B0180E2A80EB11C1F
:102E3000B501C601ACDFD7011D921D921D921D92F6
:102E40008CE1F50101900D928A95E1F7B701C60179
:102E50009EDFD70111968FE1F50101900D928A95C1
:102E6000E1F7B701C60193DFC7010E94E63EB60154
:102E7000C7018DDF8E010F5C1F4F80E2F501D80185
:102E800001900D928A95E1F7C8010E94E63EC801C3
:102E90000E94E63EC8010E94E63EC8010E94E63E4E
:102EA000B801C70174DFC8010E94E63EC8010E9454
:102EB000E63EB801C7016BDFC8010E94E63EB801DB
:102EC000C70165DFF60127AD30E0A90184E0569522
:102ED00047958A95E1F7C9019695879596958795C7
:102EE000840F951F820F931FA90156954795840F54
:102EF000951F220F331F280F391F86AD880F211D04
:102F0000311D80E180932303B0E2BB2EF8018B2DAD
:102F100011928A95E9F7F60184AD95ADA6ADB7ADEE
:102F200089AB9AABABABBCABCE0101966C01FC019B
:102F30008B2D11928A95E9F729833A83B601C8014E
:102F40000E946C3E1A8219828CE1F801DE0115960E
:102F500001900D928A95E1F7B801C6010E946C3E7E
:102F6000C8010E94E63EC8010E94E63EC8010E94D8
:102F7000E63EC8010E94E63EB801C6010E946C3ED2
:102F8000C8010E94E63EC8010E94E63EB801C601A3
:102F90000E946C3EC8010E94E63EB801C6010E9434
:102FA0006C3EC8010E94E63EB801C6010E946C3E1C
:102FB000C8010E94E63EB801C6010E946C3EB09274
:102FC0002303B601C701E3DEC05ADF4F0FB6F89402
:102FD000DEBF0FBECDBFDF91CF911F910F91FF904C
:102FE000EF90DF90CF90BF90AF9008958F929F9217
:102FF000AF92BF92CF92DF92EF92FF920F931F9307
:10300000CF93DF937C01EB01E0912103F091220348
:1030100080E2D70101900D928A95E1F7C7010E94E5
:10302000E63EC7010E94E63EBE01C7010E946C3E1B
:10303000182F6E0180E2C80ED11CB601C7010E9494
:103040006C3E810F13E0180F0CE0FE01802F1192EF
:103050008A95E9F7FE01F4965E018CE0A80EB11C9A
:103060008CE0D50101900D928A95E1F74E01E8E1DF
:103070008E0E911C8CA99DA9AEA9BFA9888F998F8E
:10308000AA8FBB8F88A199A1AAA1BBA18C8F9D8F6C
:10309000AE8FBF8FBE01C7010E946C3E180FFE01AC
:1030A000B4968CE1DE0101900D928A95E1F71D8EB8
:1030B0001E8E1F8E80E180932303C5010E94E63E91
:1030C0008C8F88E080932303BE01685C7F4FC4012E
:1030D0000E946C3E180F80E280932303BE01C7015B
:1030E0000E946C3E180F80E2F601DE0101900D9205
:1030F0008A95E1F7FE01802F11928A95E9F7BE01CA
:10310000C7010E946C3E180F8CE0F601DE010190B1
:103110000D928A95E1F71CA61DA61EA61FA6AE015C
:103120004C5E5F4FB701C7010E94B63E181B18A244
:1031300019A21AA21BA218AA19AA1AAA1BAA8C853C
:103140009D85AE85BF858CA79DA7AEA7BFA7A4010F
:10315000B701C7010E94B63E181B8CA19DA1AEA16C
:10316000BFA188A799A7AAA7BBA71CA21DA21EA2A0
:103170001FA2AE01405F5F4FB701C7010E94B63E7C
:10318000181BF40111920A95E9F788819981AA81A7
:10319000BB818CA39DA3AEA3BFA388859985AA8577
:1031A000BB8588A799A7AAA7BBA7A501B701C70197
:1031B0000E94B63E912F981B80E4FE0111928A95E1
:1031C000E9F798839C8F9CA798AFA601BE01CE011A
:1031D0000E94B63EBE01C701DF91CF911F910F91B2
:1031E000FF90EF90DF90CF90BF90AF909F908F9027
:1031F000CECD6F927F929F92AF92BF92CF92DF928D
:10320000EF92FF920F931F93CF93DF93EC018B010B
:1032100080E1982E909223031C8E1D8E1E8E1F8E91
:103220005B0180E5A80EB11C3E01ACE06A0E711C8A
:1032300080E1F501D30101900D928A95E1F718869E
:1032400019861A861B866B01BCE5CB0ED11CF601D4
:1032500080819181A281B3818C839D83AE83BF8362
:10326000F50180819181A281B38188839983AA83AA
:10327000BB837E01F0E1EF0EF11CC7010E94E63E28
:103280001CA61DA61EA61FA6BE01605E7F4FF801EC
:10329000EC5AFF4F8CE0DB0101900D928A95E1F72B
:1032A000C3010E946C3E9C8D890F8C8FB501C701B4
:1032B0000E946C3E88A3FE01B1968FE0DF011D9253
:1032C0008A95E9F790E3E92EE0922303B801CE0155
:1032D0000E946C3EF82EB801605D7F4FCE010E94C7
:1032E0006C3EF80E3801B0E26B0E711CF301892DB3
:1032F00011928A95E9F7B301CE010E946C3EF80E57
:1033000080E1F501D30101900D928A95E1F7B801B2
:103310006C5D7F4FCE010E946C3EF80E60912103E0
:1033200070912203CE010E946C3EF80E6091210341
:1033300070912203CE010E946C3EF80EA801445DFC
:103340005F4FBE01CE010E94B63EF81A88E080931E
:103350002303B801685A7F4FF60180819181A281D1
:10336000B381FB0180839183A283B383C8018896D4
:103370000E946C3ED801D0968C93A801445E5F4FAA
:10338000F801148E158E168E178EF1968BE1DF01E3
:103390001D928A95E9F7E0922303BE01CE010E94B7
:1033A000B63EF81A6801BCE0CB0ED11C85E2F601EE
:1033B00011928A95E9F790922303F801E05CFF4FA0
:1033C000F082D8011C96FC921C975896FC92589754
:1033D0005C96FC92A801445C5F4FB601C6010E9456
:1033E000B63EE0922303B601CE01DF91CF911F914B
:1033F0000F91FF90EF90DF90CF90BF90AF909F9094
:103400007F906F90C4CC0F931F93CF93DF93CDB772
:10341000DEB7C056D1090FB6F894DEBF0FBECDBFE0
:103420008C0180912303813228F0CE0101960E9405
:103430005D6B0BC0893128F0CE0101960E94925736
:1034400004C0CE0101960E94956580911E038134CF
:1034500031F4BE016F5F7F4FC8019FDC29C0823409
:1034600031F4BE016F5F7F4FC801C0DD21C08334DE
:1034700031F4BE016F5F7F4FC801BBDE19C08438D5
:1034800031F4BE016F5F7F4FC801B9DC11C060919C
:10349000210370912203CE0101960E946A6F409130
:1034A000230350E0BE016F5F7F4FC8010E94B876D2
:1034B000C05ADF4F0FB6F894DEBF0FBECDBFDF910D
:1034C000CF911F910F9108954091210350912203B4
:1034D0000C94373E9B01BA0140912303413218F00E
:1034E000A9010C94673F493118F0A9010C945C4A7A
:1034F000A9010C943C3F0F931F93CF93DF93CDB75B
:10350000DEB7C056D1090FB6F894DEBF0FBECDBFEF
:103510008C01CE010196DEDF80911E03813431F4EF
:10352000BE016F5F7F4FC80138DC29C0823431F49F
:10353000BE016F5F7F4FC80159DD21C0833431F474
:10354000BE016F5F7F4FC80154DE19C0843831F46B
:10355000BE016F5F7F4FC80152DC11C06091210333
:1035600070912203CE0101960E946A6F409123035D
:1035700050E0BE016F5F7F4FC8010E94B876C05A0D
:10358000DF4F0FB6F894DEBF0FBECDBFDF91CF91F6
:103590001F910F9108955F926F927F928F929F92E9
:1035A000AF92BF92CF92DF92EF92FF920F931F9351
:1035B000CF93DF93CDB7DEB7C052D1400FB6F894AA
:1035C000DEBF0FBECDBF8C015B014B0180E3880ED7
:1035D000911CC401CCDB582E8111BBC07801E0E303
:1035E000EE0EF11CC701C3DB882341F080E9F50131
:1035F000D80101900D928A95E1F7AFC03501F0E650
:103600006F0E711CB301CE01C196FDDEAE014F5CA1
:103610005F4FB801CE018F509F4F6DDF680180E68C
:10362000C80ED11CB601CE010196EDDEAE014F5F92
:103630005F4FB501CE018F539F4F5DDFA301BE01E8
:103640006F5C7F4FCB0157DFAE014F5C5F4FB7011F
:10365000CE018F569F4F4FDFA601BE016F5F7F4F98
:10366000CB0149DFAE014F5F5F4FB401CE018F59EF
:103670009F4F41DFBE016F507F4FCE018F539F4F51
:1036800023DFBE016F567F4FCE018F599F4F1CDF46
:10369000CE018F539F4F6BDB582E882389F0CE01CC
:1036A0008F599F4F64DB582E811155C080E9F80176
:1036B00011928A95E9F781E0F801808380AB4DC0D3
:1036C000BE016F537F4FCE01C1969DDEAE014F5CB0
:1036D0005F4FBE016F537F4FCE0101960CDFAE01ED
:1036E0004F5C5F4FBE016F507F4FC70104DFBE01CB
:1036F0006F597F4FC80187DEBE016F5F7F4FC801E2
:10370000E3DEB701C801E0DEB701C801DDDEB801C4
:10371000C701DADEAE014F595F4FB701C701EBDEDB
:10372000AE014F5F5F4FBE016F567F4FCE01C19616
:10373000E2DEBE016F5C7F4FC701C6DEA301B601AA
:10374000C601D9DEAE014F535F4FB601C601D3DECD
:1037500004C0512C02C055245394852DC05EDE4F09
:103760000FB6F894DEBF0FBECDBFDF91CF911F9192
:103770000F91FF90EF90DF90CF90BF90AF909F9010
:103780008F907F906F905F900895CF92DF92EF922D
:10379000FF920F931F93CF93DF93CDB7DEB7C05C3B
:1037A000D1090FB6F894DEBF0FBECDBF7C018C01EE
:1037B000005D1F4FC801DBDA8111BFC0B801CE0127
:1037C000C19621DE80911E039701205A3F4F690167
:1037D00086FF2CC0B901CE018F569F4F14DE80E3C7
:1037E000FE01EF56FF4FDE01119601900D928A9572
:1037F000E1F7B701CE010196CADA80E3F701DE01F5
:10380000AF59BF4F01900D928A95E1F7BE016F56F7
:103810007F4FCE018F599F4F57DEAE014F5F5F4FF5
:10382000BE016F597F4FCB0166DE07C0B70187FF2E
:103830000FC0CE018F599F4FE6DD80E3FE01EF59A7
:10384000FF4FDE01119601900D928A95E1F728C095
:10385000CE018F599F4FD7DD80E3FE01EF59FF4F17
:10386000DE01119601900D928A95E1F7B601CE0125
:103870008F569F4FC8DDBE016F567F4FCB01C3DD12
:1038800060911F0370912003AE014F565F4FCA0134
:1038900032DEBE016F567F4FCE018F599F4F77DAD0
:1038A000BE016F5F7F4FCB0172DABE016F5F7F4F4A
:1038B000CE018F599F4F6BDAA601B801C6011BDEFE
:1038C000B601C60164DAAE014F5C5F4FB701C801B3
:1038D00012DEB801C8015BDAB801C80158DABE01CE
:1038E0006F597F4FC7018FDDB801C701EDDDB8010A
:1038F000C701EADDBE016F5C7F4FCE01019683DD1B
:10390000BE016F5F7F4FCB0142DABE016F5F7F4F19
:10391000CB013DDABE016F5F7F4FCB0138DAB701D3
:10392000C801D2DDA801BE016F597F4FC801E3DD98
:10393000BE016F5F7F4FC801C7DDC054DF4F0FB6B8
:10394000F894DEBF0FBECDBFDF91CF911F910F91D5
:10395000FF90EF90DF90CF900895EF92FF920F933A
:103960001F93CF93DF93CDB7DEB7C056D1090FB603
:10397000F894DEBF0FBECDBF8C017901CE01019658
:10398000A9DDB701CE0101960E946A6F4091230321
:1039900050E060E070E0C8010E94D27640912303BD
:1039A00050E0BE016F5F7F4FC8010E94B876C05AD9
:1039B000DF4F0FB6F894DEBF0FBECDBFDF91CF91C2
:1039C0001F910F91FF90EF900895EF92FF920F9348
:1039D0001F93CF93DF93EC018B017A01CB01805AC7
:1039E0009F4FC5D9882341F080E9F701DE0101909E
:1039F0000D928A95E1F721C080E9F801DE0101907E
:103A00000D928A95E1F7C701805A9F4FB0D9811175
:103A100014C0B701CE01BFDD882379F080E9F80139
:103A2000DE0101900D928A95E1F7CE01DF91CF91F1
:103A30001F910F91FF90EF90A8CEDF91CF911F9132
:103A40000F91FF90EF9008958F929F92AF92BF9247
:103A5000CF92DF92EF92FF920F931F93CF93DF935A
:103A6000CDB7DEB7C05CD1090FB6F894DEBF0FBE8C
:103A7000CDBF5C016A0180902303912C7E0181E916
:103A8000E80EF11CA401C7010E94B8768E010F59FF
:103A90001F4FA401B601C8010E94B876A40160E0DE
:103AA00070E0CE0101960E94D276A40160E070E041
:103AB000CE01C1960E94D27681E089AB992493947D
:103AC000409123039FEF940FF70180818925319660
:103AD0002E2F2E19291718F42081822BF8CF81114F
:103AE00005C050E0BE016F5C7F4F11C0F8018081BE
:103AF000892531962E2F201B291718F42081822B1F
:103B0000F8CF811125C050E0BE016F5F7F4FC50126
:103B10000E94B876C054DF4F0FB6F894DEBF0FBED8
:103B2000CDBFDF91CF911F910F91FF90EF90DF906C
:103B3000CF90BF90AF909F908F900895C7010E9443
:103B4000083F89A980FD09C0CE01C1960E94083FA7
:103B5000F701808180FFF2CF15C0B601CE01C1967A
:103B60000E946C3E682FCE01C1960E94093FF0CFA3
:103B7000C8010E94083F898180FD09C0CE010196DD
:103B80000E94083FF801808180FFF2CF0BC0B60190
:103B9000CE0101960E946C3E682FCE0101960E94D4
:103BA000093FF0CFB801C7010E94983EA6018823C3
:103BB00059F0B801C7010E94373EA601BE016F5FF0
:103BC0007F4FCE01C1960AC0B701C8010E94373E9F
:103BD000A601BE016F5C7F4FCE0101960E94373E69
:103BE0006FCF8091230308956F927F928F929F925F
:103BF000AF92BF92CF92DF92FF920F931F93CF931A
:103C0000DF93CDB7DEB7C15DD5400FB6F894DEBF08
:103C10000FBECDBF4115510551F1FA01EB5AFE4FD0
:103C200020812093230350932203409321039A0180
:103C300020543F4F3093200320931F03319720815E
:103C400020931E03009799F06115710581F05A01C8
:103C50008B016C018CD881110AC0350120E3620E02
:103C6000711CB301C6010E94983E882311F091E0B7
:103C700004C180E9F801DE01AF5EBA4F01900D92F8
:103C80008A95E1F74091230350E060E070E0CE01B7
:103C90008F589A4F0E94D27681E0CF58DA4F8883AE
:103CA000C157D54080E3F601DE01AF55BA4F019010
:103CB0000D928A95E1F780E9FE01EF5EFA4FDE0191
:103CC000AF5DBE4F01900D928A95E1F76E013FE422
:103CD000C31A3EEFD30A22E09C2CFD2C30E9832E40
:103CE000822F8695E1E9F0E0EC0FFD1F40E9849F0B
:103CF000E00DF11D1124D601882D01900D928A95B9
:103D0000E1F7C601CF52DA4F2883C15DD5403DDDD2
:103D1000AE014F5D5E4FB601C60180579F4F55DE25
:103D2000CF52DA4F2881C15DD5402E5F80EEC81A90
:103D30008EEFD80A2830A1F680E9E92DFF2DDE01AB
:103D4000AF56BF4F01900D928A95E1F7FE01319673
:103D50006F0180E911928A95E9F7809123038032FF
:103D600069F0803339F0883109F04AC090E4892E37
:103D7000912C2FC020E8822E912C2BC0F12C86E5AF
:103D8000882E912CCE018F559A4F0E94E63E8F29A6
:103D900091E009F090E0F92EF82A960140E9949F0D
:103DA000200D311D1124C90141E950E04C0F5D1F68
:103DB000E0E9FE9E400D511D1124B90106DEF1E03F
:103DC0008F1A9108B1F0C601E0DCC601DEDCC60145
:103DD000DCDCCE018F559A4F0E94E63EF82EFF0C98
:103DE000CE018F559A4F0E94E63E8F29F82EFF0C88
:103DF000C9CF80E9F601D80101900D928A95E1F7CB
:103E0000480120E6820E911CC4010E94B716811160
:103E10002ECFA501B401CE018F559A4F15DEBE01FC
:103E20006F557A4FC601EFDAA601B801C80163DB0E
:103E3000A601BE016F557A4FCB015DDBAE014F5538
:103E40005A4FC801C096BC0156DB4091230350E095
:103E500060E070E0C4010E94D27681E0F4018083CA
:103E6000C8010E94B716811102CFB301C8010E9498
:103E7000983E91E0811101C090E0892FCF52DA4F36
:103E80000FB6F894DEBF0FBECDBFDF91CF911F916B
:103E90000F91FF90DF90CF90BF90AF909F908F9049
:103EA0007F906F900895AF92BF92CF92DF92EF9282
:103EB000FF920F931F93CF93DF93CDB7DEB7C05917
:103EC000D1090FB6F894DEBF0FBECDBF6C018B01D8
:103ED0007A01FA01EB5AFE4F8081809323035093BD
:103EE000220340932103CA0180549F4F90932003E3
:103EF00080931F035A018CEAA81A8EEFB80AF501C5
:103F0000908190931E03907CB9F1605D7F4FCE014C
:103F10008F599F4F78DAB801CE01C19674DAA801A3
:103F2000BE016F5C7F4FCE010196E5DAB7016051AB
:103F30007F4FCE0101960E94C716F501808186FF52
:103F40000CC0B801CE010196BFDAB801CE010196CE
:103F5000BBDAB801CE010196B7DAAE014F595F4F17
:103F6000BE016F5F7F4FCB010E94B63ECE0101962E
:103F70000E94B716882371F0F701E05EFE4F80E3E0
:103F8000D60101900D928A95E1F7A701B801C6010B
:103F90002BDE01C081E0C057DF4F0FB6F894DEBFC3
:103FA0000FBECDBFDF91CF911F910F91FF90EF908A
:103FB000DF90CF90BF90AF9008952F923F924F9295
:103FC0005F926F927F928F929F92AF92BF92CF92A9
:103FD000DF92EF92FF920F931F93CF93DF9300979F
:103FE00009F43FC061157105E1F18A01EB017C0123
:103FF00085E0282E3A018BEA681A8EEF780A6A016A
:10400000E0E6CE0ED11C5B01F0E3AF0EB11C4A011D
:1040100080E9880E911C312CF3018081381650F410
:104020002701430C511C61E0C20153D58130D9F303
:104030003394F2CFF601DE0180E301900D928A9570
:10404000E1F7F401D50180E301900D928A95E1F743
:10405000A801BE01C701C8DD882321F02A942110E0
:10406000DACF81E0DF91CF911F910F91FF90EF9018
:10407000DF90CF90BF90AF909F908F907F906F9088
:104080005F904F903F902F9008956F927F928F9204
:104090009F92AF92BF92CF92DF92EF92FF920F93D7
:1040A0001F93CF93DF93CDB7DEB7C052D1400FB689
:1040B000F894DEBF0FBECDBF5C018B01FB01EB5A54
:1040C000FE4F80818093230370932203609321032A
:1040D000CB0180549F4F9093200380931F0331970F
:1040E000808180931E0385E0C82ED12C7B0180E364
:1040F000E80EF11C4B01E0EE8E1AEEEF9E0A350140
:10410000F0E66F0E711CA801BE016F5F7F4FCE01FC
:104110008F569F4F52DF811147C04091230350E0DB
:10412000BE016F5F7F4FCE018F539F4F0E94B876C5
:104130009701AE014F535F4FB401CE018F509F4F97
:104140000CDCF30160817181A701CE018F509F4F7C
:104150000E94A93DA701BE016F567F4FCB0174DCC1
:104160009701AE014F505F4FBE016F567F4FCA019E
:10417000F4DBCE018F509F4F0E94B716811114C0FF
:1041800090E3FE01EF53FF4FD50101900D929A95F8
:10419000E1F790E3FE01EF50FF4FD501D09601907B
:1041A0000D929A95E1F706C0F1E0CF1AD10809F017
:1041B000AACF81E0C05EDE4F0FB6F894DEBF0FBE1F
:1041C000CDBFDF91CF911F910F91FF90EF90DF90C6
:1041D000CF90BF90AF909F908F907F906F900895F9
:1041E000DB01FC0190E0840F4D91208130E0240F31
:1041F000311D290F311D2193932F8E13F5CF832F5E
:104200000895809123030895809323030895CF9206
:10421000DF92EF92FF920F931F93CF93DF93CDB76F
:10422000DEB7C054D1090FB6F894DEBF0FBECDBFC4
:104230008C017B016A0180912303803421F4C80141
:104240000E94B55225C0803621F4C8010E94B849A9
:104250001FC0405C5F4FCE0101960E94B552A7017E
:10426000405C5F4FB601C8010E94B55240E4B801FE
:10427000CE010196B5DFA601B701C8010E94E34D4A
:1042800040E4BE016F5F7F4FC801805C9F4FA8DF95
:10429000C05CDF4F0FB6F894DEBF0FBECDBFDF911D
:1042A000CF911F910F91FF90EF90DF90CF900895E5
:1042B00020912303203411F40C94E34D203611F4A3
:1042C0000C944D420C940C4E8F929F92AF92BF92E1
:1042D000CF92DF92EF92FF920F931F93CF93DF93D2
:1042E000CDB7DEB7C058D1090FB6F894DEBF0FBE08
:1042F000CDBF8C018617970709F464C1413451057D
:1043000010F480E405C04136510508F485C180E809
:10431000809323036A017B014091230350E0440F03
:10432000551FB801C7010E94B87620E8822E9E0171
:104330002F5F3F4F5901D901E82D1D92EA95E9F70A
:1043400063E8C9010E94180690E0C816D90609F072
:104350003CC1898180FF3CC1B501C7010E946A6FE1
:10436000811139C1D501E82D1D92EA95E9F764E87C
:10437000C5010E94180690E0C816D90609F02EC1A2
:10438000898180FF2EC1B501C8010E946A6F982EF5
:1043900081112AC180912303B5019701280F311D96
:1043A000C9010E94DB7180912303F801E80FF11D20
:1043B000DF01282D1D922A95E9F78091230366E8F5
:1043C000D801A80FB11DCD010E94180690E0C816B3
:1043D000D90609F00CC16091230370E09701260F04
:1043E000371F600F711FA501C8010E94BE74F5013F
:1043F000282D11922A95E9F763E8C5010E94180655
:1044000090E0C816D90609F0F5C080912303B501E4
:10441000D701A80FB11DCD010E94DB71809123034C
:10442000F801E80FF11DDF01282D1D922A95E9F70B
:104430008091230365E8D801A80FB11DCD010E942A
:10444000180690E0C816D90609F0D7C0609123037A
:1044500070E09701260F371F600F711FA501C7017C
:104460000E94BE7480912303F801E80FF11DDF0163
:104470001D928A94E9F78091230363E8F801E80F1D
:10448000F11DCF010E94180690E0C816D90609F068
:10449000B7C080912303A801B7019701280F311DF0
:1044A000C9010E94B63E882E20912303822F90E0FE
:1044B000B701680F791F800F911F0E94BA74909105
:1044C0002303882011F0F80101C0F701E90FF11D65
:1044D00080E8D50101900D928A95E1F78091230340
:1044E000F801E80FF11D80E8882EDF01282D1D92CC
:1044F0002A95E9F78091230367E8D801A80FB11D39
:10450000CD010E941806882309F47DC08091230301
:10451000B801680F711DA501C701CADE8091230390
:10452000F801E80FF11DDF01282D1D922A95E9F70A
:104530008091230363E8D801A80FB11DCD010E942B
:10454000180690E0C816D90609F060C080912303D0
:10455000B801680F711DC7010E946A6F8091230323
:10456000D801A80FB11D80E8F70101900D928A953E
:10457000E1F7F501282D11922A95E9F764E8C501C4
:104580000E94180690E0C816D90609F042C0809132
:104590002303B801680F711DA501C70189DED5018C
:1045A0001D928A94E9F7B801C7010E94BA74898301
:1045B00080912303B501F701E80FF11DCF010E949F
:1045C000BA742CC006EE902E29C017EE912E26C08C
:1045D000B8EE9B2E23C0A9EE9A2E20C0FAEE9F2E95
:1045E0001DC0EBEE9E2E1AC07CEE972E17C06EEE0D
:1045F000962E14C05FEE952E11C04DEE942E0EC077
:1046000030EF932E0BC022EF922E08C091EF992E1F
:1046100005C083EF982E02C080E67ACE892DC0585F
:10462000DF4F0FB6F894DEBF0FBECDBFDF91CF9145
:104630001F910F91FF90EF90DF90CF90BF90AF90C0
:104640009F908F90089570916F00739511F4F89476
:1046500008957360F89470936F00000000000000EC
:1046600000000000000000000000EFCFF89440E0E0
:1046700048BB47BBE8DF089BFECF5FEF59B950E06E
:104680005AB950E95AB95FE015D043E751E0538772
:10469000428740E140937C0040917C004071E1F30F
:1046A00040937C0061D04EE150E0509387004093EE
:1046B000860008954427ECE7F0E047875687458752
:1046C00044870895E0E058E070917C007071E1F358
:1046D000B99A70937C00479548F470917C00707192
:1046E000E1F3B99870937C00E39507C070917C006A
:1046F0007071E1F3B99A70937C005A9561F7E79570
:1047000040F070917C007071E1F3B99A70937C0075
:1047100007C070917C007071E1F3B99870937C00D0
:10472000EE27FF27CF0170917C007071E1F3B998FB
:1047300070937C0042E0B19B019631968AF07091B3
:104740007C007071C1F370937C004A95A1F7F695D7
:10475000EE1FF695EE1FE81BF90BD8F08827089599
:104760008FEF089581E008956EDFE4D17894709121
:104770007C007071E1F370937C00DC014C91A2DF4E
:10478000813039F09FEF8F3F81F011966A9559F093
:10479000F5CF42E070917C007071E1F370937C0082
:1047A0004A95C1F7EBCF882799278F939F9364D1C0
:1047B0009F918F910895DC0146DFBCD178942091C0
:1047C0008600309187002F5F3F4F3695279580E018
:1047D000F1E044E00894B19B4150411D4730D9F7C6
:1047E000B199FECF30938900209388004A954730D5
:1047F000B9F3B19B4150411D4330C9F770E170934B
:104800007C005AE0E1E04730B19B4150411D70917E
:104810007C007071C1F370937C004430E11D443022
:1048200097955A9581F7991F9095E17081F4FF2330
:1048300049F070917C007071E1F3B99870937C003D
:10484000FA9511C06627882770937C0007C0709185
:104850007C007071E1F370937C00F1E0662319F045
:104860009D936A95839570917C007071E1F37093CC
:104870007C00B19A70917C007071E1F370937C00C0
:1048800044E00894B19B4150411D4730D9F79CE06A
:10489000B1990DC030938900209388004A95473024
:1048A000B9F3B19B4150411D4330C9F7A7CF709177
:1048B0007C00707169F370937C009A9549F7709150
:1048C0002403739541F470932403A81BB050FD0199
:1048D0007D917F3F29F08F93CFD08F9199270895B5
:1048E000841594E000F1222733274C914F71403119
:1048F000D1F44D915D915831B1F445FF04C09395C9
:104900002D91223081F446FF02C093953D91891785
:1049100051F49D9145274227432749274F3F19F4DA
:10492000682FCF0121DF882708950F920FB64F938C
:10493000409124034395409324034033E9F45F936B
:104940007F938F939F93EF93FF937DDE5FE0B2DEC3
:1049500040E1408340E6B6DE40E1408340E6882304
:1049600009F0B0DE57E0A6DE40932403FF91EF91FB
:104970009F918F917F915F914F910FBE0F901895EE
:10498000F89457E097DE4093240344E0408341834A
:1049900078940895F8945FE08DDE418344E040838D
:1049A000789408950C940000444945734F80100298
:1049B0000018F53BE8EAF9E47CE0672F8DB79EB775
:1049C00045914F937A95D1F751DE8FEF8093240371
:1049D0008DB79EB70C96F8948DBF78949EBF0895BE
:1049E000F89420916F00253B60F0245020936F00D5
:1049F00000000000000000000000000000000000B7
:104A0000F2CF0895FC0188279927242F2A95260F95
:104A100010F4019608951FBA6EBBE09A63950DB22B
:104A200001924150C1F70895FC0188279927242F4E
:104A30002A95260F10F4019608951FBA6EBBE09ACE
:104A4000639501903DB3031641F0CADF88270DBA84
:104A5000E29AE19AE199FECF7894415071F7089576
:104A60000E94F4FFDC01FB0151E05BBF07900D9257
:104A70004A95E1F788270895109245038EE587B996
:104A80008FE986B9369A08958F939F93EF93FF939A
:104A90009FB7E5E2F3E080914503839509F48A9599
:104AA00080934503869586958695E80F80E0F81FEC
:104AB0008091240086958081881F808380912500C5
:104AC0008FEC809326009FBFFF91EF919F918F9174
:104AD00018951F93CF93DF93613238F5162F110F7E
:104AE000110F110F209145032F3F21F02091450315
:104AF0002117D8F0C62FD0E0AE0165E273E00E9426
:104B0000B876F89440E250E04C1B5D0BBE016B5D43
:104B10007C4F85E293E00E94B87680914503811B2B
:104B200080934503789480E001C081E0DF91CF91CC
:104B30001F91089516B8089544275527BA01CA0150
:104B40002D9088809980AA80BB80CC80DD802A9CB3
:104B50008001289C7001299CF00C011D191F2C9CC0
:104B600090012B9C100D211D391F2D9C300D411DD6
:104B70003D903A9C3001389CF00C011D161D791EA9
:104B8000399C000D111D791E3C9C270D301D411DC7
:104B9000591F3B9C30013D9C260D371D401D511D6A
:104BA0004D904A9C3001489C000D111D261D791E18
:104BB000499C100D211D791E4C9C370D401D511D27
:104BC000691F4B9C30014D9C360D471D501D611DCA
:104BD000E082F18202835D905A9C7001589C100D16
:104BE000211D3E1DF91E599C200D311DF91E5C9C96
:104BF0004F0D501D611D791F5B9C70015D9C4E0D1A
:104C00005F1D601D711D6D906A9C7001689C200D78
:104C1000311D4E1DF91E699C300D411DF91E6C9C05
:104C20005F0D601D711D891F6B9C70016D9C5E0D79
:104C30006F1D701D811D7D907A9C7001789C300DD8
:104C4000411D5E1DF91E799C400D511DF91E7C9C75
:104C50006F0D701D811D991F7B9C70017D9C6E0DD9
:104C60007F1D801D911D138324833583ED90FD905E
:104C70000D911D912D913D91AF93BF93CF93DF93F4
:104C8000EF93FF938E809F80A884B984EA85FB858B
:104C9000CC24DD241601260136018E9C400D511DC9
:104CA0006D1D2D1C8F9C500D611D2D1C9E9C500D4B
:104CB000611D721D3D1C809E600D711D3D1C9F9CE1
:104CC000600D711D3D1CAE9C600D711D831D6D1C22
:104CD0001601819E700D811D6D1C909E700D811DB1
:104CE0006D1CAF9C700D811D6D1CBE9C700D811DD7
:104CF000961D7D1C6624829E800D911D7D1C919EBB
:104D0000800D911D7D1CA09E800D911D7D1CBF9C62
:104D1000800D911D7D1CEE9D800D911D7D1C839E3F
:104D2000900D711C6D1C929E900D711C6D1CA19EAE
:104D3000900D711C6D1CB09E900D711C6D1CEF9D33
:104D4000900D711C6D1CFE9D900D711C6D1CFF9EC5
:104D5000700C611C2D1C0E9F700C611C2D1C1B9D6A
:104D6000700C611C2D1C2A9D700C611C2D1C399D22
:104D7000700C611C2D1C0F9F600C211C3D1C1E9F84
:104D8000600C211C3D1C2B9D600C211C3D1C3A9D80
:104D9000600C211C3D1C1F9F200C311C4D1C2E9FA4
:104DA000200C311C4D1C3B9D200C311C4D1C2F9F99
:104DB000300C411C5D1C3E9F300C411C5D1C3F9F14
:104DC000400C511C6F927F921C970D90E0180D9033
:104DD000F0080D9000090D9010090D9020090D901C
:104DE0003009000818808118198091081A80A108DC
:104DF0001B80B1081C80E1091D80F1091108E02425
:104E0000F02400251025202530250194E00CFD1C00
:104E10000D1D1D1D2D1D3D1D81249124A124B12496
:104E2000E125F1251194810C9D1CAD1CBD1CED1DCF
:104E3000FD1D012400FAD601E601E89C3001E99C41
:104E4000700CA11DF89C700CA11DBD1DEA9CA00D4D
:104E5000B11DCD1DF99CA00DB11DCD1D089DA00D4E
:104E6000B11DCD1DEB9CB00DC11DDD1DFA9CB00D1B
:104E7000C11DDD1D099DB00DC11DDD1D189DB00DAD
:104E8000C11DDD1DEE9EC00DD11DCD1CFB9CC00DB6
:104E9000D11DCD1C0A9DC00DD11DCD1C199DC00D6D
:104EA000D11DCD1C289DC00DD11DCD1CEF9EEE2423
:104EB000D00DC11CDE1CFE9ED00DC11CDE1C0B9D46
:104EC000D00DC11CDE1C1A9DD00DC11CDE1C299DFD
:104ED000D00DC11CDE1C389DD00DC11CDE1C8824E9
:104EE000FF9EC00CD11C8E1C0E9FC00CD11C8E1CB2
:104EF0001B9DC00CD11C8E1C2A9DC00CD11C8E1C6D
:104F0000399DC00CD11C8E1C99240F9FD00C811C84
:104F10009E1C1E9FD00C811C9E1C2B9DD00C811CA6
:104F20009E1C3A9DD00C811C9E1CAA241F9F800CA5
:104F3000911CAE1C2E9F800C911CAE1C3B9D800CC6
:104F4000911CAE1CBB242F9F900CA11CBE1C3E9F2D
:104F5000900CA11CBE1C3F9FA00CB11C0F901F9079
:104F6000FF91EF91E080F1800281138124813581EE
:104F7000E40EF51E061F171F281F391F401D511D67
:104F8000621D731D841D951DFF1F7EF0E618F70836
:104F90000A0B1B0B2C0B3D0B4C095D0968097909A9
:104FA0008A099B09660877080FC0E60CF71C0A1FE0
:104FB0001B1F2C1F3D1F4C1D5D1D681D791D8A1D6B
:104FC0009B1D66247724661CF695061C171C271C5F
:104FD000371C471C571CE682F782008711872287FF
:104FE00033874487558766877787808B918B028AC2
:104FF000138A248A358A468A578ADF91CF91BF91D6
:10500000AF9144275527BA01CA012D908C849D8405
:10501000AE84BF84C888D9882A9C8001289C7001EE
:10502000299CF00C011D191F2C9C90012B9C100D2C
:10503000211D391F2D9C300D411D3D903A9C3001A2
:10504000389CF00C011D161D791E399C000D111D98
:10505000791E3C9C270D301D411D591F3B9C300182
:105060003D9C260D371D401D511D4D904A9C300121
:10507000489C000D111D261D791E499C100D211DF7
:10508000791E4C9C370D401D511D691F4B9C3001F2
:105090004D9C360D471D501D611DE08EF18E028F17
:1050A0005D905A9C7001589C100D211D3E1DF91EEB
:1050B000599C200D311DF91E5C9C4F0D501D611D2A
:1050C000791F5B9C70015D9C4E0D5F1D601D711D05
:1050D0006D906A9C7001689C200D311D4E1DF91E5B
:1050E000699C300D411DF91E6C9C5F0D601D711D8A
:1050F000891F6B9C70016D9C5E0D6F1D701D811D65
:105100007D907A9C7001789C300D411D5E1DF91ECA
:10511000799C400D511DF91E7C9C6F0D701D811DE9
:10512000991F7B9C70017D9C6E0D7F1D801D911DC4
:10513000138F248F358FED90FD900D911D912D9142
:105140003D91AF93BF93CF93DF93EF93FF938A8803
:105150009B88AC88BD88EE89FF89CC24DD241601AC
:10516000260136018E9C400D511D6D1D2D1C8F9CFE
:10517000500D611D2D1C9E9C500D611D721D3D1C0E
:10518000809E600D711D3D1C9F9C600D711D3D1C1E
:10519000AE9C600D711D831D6D1C1601819E700DEE
:1051A000811D6D1C909E700D811D6D1CAF9C700D3E
:1051B000811D6D1CBE9C700D811D961D7D1C66247D
:1051C000829E800D911D7D1C919E800D911D7D1CE8
:1051D000A09E800D911D7D1CBF9C800D911D7D1C8E
:1051E000EE9D800D911D7D1C839E900D711C6D1C8C
:1051F000929E900D711C6D1CA19E900D711C6D1CDA
:10520000B09E900D711C6D1CEF9D900D711C6D1C5E
:10521000FE9D900D711C6D1CFF9E700C611C2D1C61
:105220000E9F700C611C2D1C1B9D700C611C2D1C95
:105230002A9D700C611C2D1C399D700C611C2D1C4D
:105240000F9F600C211C3D1C1E9F600C211C3D1CEF
:105250002B9D600C211C3D1C3A9D600C211C3D1CAB
:105260001F9F200C311C4D1C2E9F200C311C4D1CEF
:105270003B9D200C311C4D1C2F9F300C411C5D1C94
:105280003E9F300C411C5D1C3F9F400C511C6F9297
:105290007F921C970D90E0180D90F0080D9000097A
:1052A0000D9010090D9020090D90300900081C8404
:1052B00081181D8491081E84A1081F84B1081888D4
:1052C000E1091988F1091108E024F02400251025CE
:1052D000202530250194E00CFD1C0D1D1D1D2D1DEC
:1052E0003D1D81249124A124B124E125F1251194AF
:1052F000810C9D1CAD1CBD1CED1DFD1D012400FA83
:10530000D601E601E89C3001E99C700CA11DF89CD7
:10531000700CA11DBD1DEA9CA00DB11DCD1DF99CF9
:10532000A00DB11DCD1D089DA00DB11DCD1DEB9C87
:10533000B00DC11DDD1DFA9CB00DC11DDD1D099D07
:10534000B00DC11DDD1D189DB00DC11DDD1DEE9EF2
:10535000C00DD11DCD1CFB9CC00DD11DCD1C0A9DC7
:10536000C00DD11DCD1C199DC00DD11DCD1C289D7A
:10537000C00DD11DCD1CEF9EEE24D00DC11CDE1C36
:10538000FE9ED00DC11CDE1C0B9DD00DC11CDE1C71
:105390001A9DD00DC11CDE1C299DD00DC11CDE1C28
:1053A000389DD00DC11CDE1C8824FF9EC00CD11C72
:1053B0008E1C0E9FC00CD11C8E1C1B9DC00CD11CC2
:1053C0008E1C2A9DC00CD11C8E1C399DC00CD11C7A
:1053D0008E1C99240F9FD00C811C9E1C1E9FD00CEC
:1053E000811C9E1C2B9DD00C811C9E1C3A9DD00CB8
:1053F000811C9E1CAA241F9F800C911CAE1C2E9FFA
:10540000800C911CAE1C3B9D800C911CAE1CBB24DF
:105410002F9F900CA11CBE1C3E9F900CA11CBE1C7B
:105420003F9FA00CB11C0F901F90FF91EF91E08C5B
:10543000F18C028D138D248D358DE40EF51E061F23
:10544000171F281F391F401D511D621D731D841D0C
:10545000951DFF1F7EF0E618F7080A0B1B0B2C0B9F
:105460003D0B4C095D09680979098A099B096608A1
:1054700077080FC0E60CF71C0A1F1B1F2C1F3D1FCF
:105480004C1D5D1D681D791D8A1D9B1D662477249A
:10549000661CF695061C171C271C371C471C571C3E
:1054A00044A355A366A377A380A791A702A613A63A
:1054B00024A635A646A657A6DF91CF91BF91AF91FE
:1054C000608C718C828C938CA48CB58CC4846C0C95
:1054D000C5847C1CC6848C1CC7849C1CC088AC1CE6
:1054E000C188BC1CC288EC1CC388FC1CC4880C1D71
:1054F000C5881C1DC6882C1DC7883C1DCC24DD24F6
:10550000DC1C4D0D5C1D6C1D7C1D8C1D9C1D0C1C24
:105510001C1C2C1C3C1C4C1C5C1CC080C60CC48677
:10552000C180C71CC586C280C81CC686C380C91C72
:10553000C786C480CA1CC08AC580CB1CC18AC680ED
:10554000CE1CC28AC780CF1CC38AC084C01EC48A36
:10555000C184C11EC58AC284C21EC68AC384C31E3A
:10556000C78A461D408F571D518F681D628F791D58
:10557000738F8A1D848F9B1D958F0E1C068E1F1C9A
:10558000178E201E20A2311E31A2421E42A2531E9F
:1055900053A21124D11CDF9258972D903D904D902D
:1055A0005D906D907D90ED90FD900D911D912D91F0
:1055B0003D918D909D90AD90BD90CD90DD904D91A1
:1055C0005D916D917D918D919D91281839084A08C2
:1055D0005B086C087D08E40AF50A060B170B280B1C
:1055E000390B0008202430244024502460247024E7
:1055F000E024F02400251025202530250194200CDE
:10560000311C411C511C611C711CE11CF11C011D51
:10561000111D211D311D3F932F931F930F93FF9257
:10562000EF927F926F925F924F923F922F9288807B
:105630009980AA80BB80CC80DD80EE80FF800885C9
:1056400019852A853B854C85841A4D85940A4E859B
:10565000A40A4F85B40A4889C40A4989D40A4A89E8
:10566000E40A4B89F40A4C89040B4D89140B4E89CA
:10567000240B4F89340B990B89269926A926B92624
:10568000C926D926E926F9260927192729273927DE
:105690009195890E911CA11CB11CC11CD11CE11C4F
:1056A000F11C011D111D211D311D3F932F931F93CF
:1056B0000F93FF92EF92DF92CF92BF92AF929F92A1
:1056C0008F9209260F92EF93FF9344275527BA0133
:1056D000CA012A9C8001289C7001299CF00C011DA4
:1056E000191F2C9C90012B9C100D211D391F2D9CE6
:1056F000300D411D3A9CD001389CF00C011D1A1F41
:10570000B91F399C000D111DB91F3C9C2B0F301D7A
:10571000411D591F3B9CD0013D9C2A0F3B1F401D42
:10572000511D4A9CD001489C000D111D2A1FB91F14
:10573000499C100D211DB91F4C9C3B0F401D511D54
:10574000691F4B9CD0014D9C3A0F4B1F501D611D92
:10575000EF92FF920F935A9C7001589C100D211DDF
:105760003E1DF91E599C200D311DF91E5C9C4F0DEC
:10577000501D611D791F5B9C70015D9C4E0D5F1D6E
:10578000601D711D6A9C7001689C200D311D4E1DAD
:10579000F91E699C300D411DF91E6C9C5F0D601D4A
:1057A000711D891F6B9C70016D9C5E0D6F1D701DBE
:1057B000811D7A9C7001789C300D411D5E1DF91E83
:1057C000799C400D511DF91E7C9C6F0D701D811D33
:1057D000991F7B9C70017D9C6E0D7F1D801D911D0E
:1057E0001F932F933F93CDB7DEB7EC8CFD8C0E8DBE
:1057F0001F8D28A139A188889988AA88BB88EC893F
:10580000FD89CC24DD241601260136018E9C400D35
:10581000511D6D1D2D1C8F9C500D611D2D1C9E9CBE
:10582000500D611D721D3D1C809E600D711D3D1C43
:105830009F9C600D711D3D1CAE9C600D711D831DF4
:105840006D1C1601819E700D811D6D1C909E700D4A
:10585000811D6D1CAF9C700D811D6D1CBE9C700D5B
:10586000811D961D7D1C6624829E800D911D7D1CD0
:10587000919E800D911D7D1CA09E800D911D7D1C13
:10588000BF9C800D911D7D1CEE9D800D911D7D1C8A
:10589000839E900D711C6D1C929E900D711C6D1C51
:1058A000A19E900D711C6D1CB09E900D711C6D1C05
:1058B000EF9D900D711C6D1CFE9D900D711C6D1C5B
:1058C000FF9E700C611C2D1C0E9F700C611C2D1C0A
:1058D0001B9D700C611C2D1C2A9D700C611C2D1CC5
:1058E000399D700C611C2D1C0F9F600C211C3D1CF0
:1058F0001E9F600C211C3D1C2B9D600C211C3D1C1F
:105900003A9D600C211C3D1C1F9F200C311C4D1C1E
:105910002E9F200C311C4D1C3B9D200C311C4D1C1E
:105920002F9F300C411C5D1C3E9F300C411C5D1CA8
:105930003F9F400C511C6F927F920E88E0180F8899
:10594000F008088C0009098C10090A8C20090B8CBE
:10595000300900081A8481181B8491081C84A1084E
:105960001D84B1081E84E1091F84F1091108E02497
:10597000F02400251025202530250194E00CFD1C85
:105980000D1D1D1D2D1D3D1D81249124A124B1241B
:10599000E125F1251194810C9D1CAD1CBD1CED1D54
:1059A000FD1D012400FAD601E601E89C3001E99CC6
:1059B000700CA11DF89C700CA11DBD1DEA9CA00DD2
:1059C000B11DCD1DF99CA00DB11DCD1D089DA00DD3
:1059D000B11DCD1DEB9CB00DC11DDD1DFA9CB00DA0
:1059E000C11DDD1D099DB00DC11DDD1D189DB00D32
:1059F000C11DDD1DEE9EC00DD11DCD1CFB9CC00D3B
:105A0000D11DCD1C0A9DC00DD11DCD1C199DC00DF1
:105A1000D11DCD1C289DC00DD11DCD1CEF9EEE24A7
:105A2000D00DC11CDE1CFE9ED00DC11CDE1C0B9DCA
:105A3000D00DC11CDE1C1A9DD00DC11CDE1C299D81
:105A4000D00DC11CDE1C389DD00DC11CDE1C88246D
:105A5000FF9EC00CD11C8E1C0E9FC00CD11C8E1C36
:105A60001B9DC00CD11C8E1C2A9DC00CD11C8E1CF1
:105A7000399DC00CD11C8E1C99240F9FD00C811C09
:105A80009E1C1E9FD00C811C9E1C2B9DD00C811C2B
:105A90009E1C3A9DD00C811C9E1CAA241F9F800C2A
:105AA000911CAE1C2E9F800C911CAE1C3B9D800C4B
:105AB000911CAE1CBB242F9F900CA11CBE1C3E9FB2
:105AC000900CA11CBE1C3F9FA00CB11C0F901F90FE
:105AD000EDB7FEB7E680F580048113812281318124
