:1000000042C300000C94020062C300000C947947C4
:10001000A12AF82909DA691EFF000000040EA91EB2
:100020000820611F08223B280924581FA02AF8290C
:10003000092C4F1F0C2E941E0844BE2D2046912BD8
:1000400016842C1F2186FD2820A4D11E16B0891EDF
:1000500016C0B31E16CA3A2C09D67B1E89DAE92CC3
:1000600009E0C51E08E4721EFF00000096000F950F
:10007000001F94003F93007F9200FF9101FF180042
:100080001E14005C13007B1200B911017308001EDE
:1000900004005C03007B0200B9010173003BD596AC
:1000A000028031FE654F734549441F2942FFFFFF1F
:1000B000FFFFFFFFFFFFFFFFFFFFFFFFFFFFFFFF50
:1000C000FFFFFFFFFFFFFFFFFFFFFFFFFFFFFFFF40
:1000D000FFFFFFFFFFFFFFFFFFFFFFFFFFFFFFFF30
:1000E000FFFFFFFFFFFFFFFFFFFFFFFFFFFF012AF3
:1000F00042096438911EB76FBBAE479C89B8C9B539
:100100003BD0A509F74801CC7F6B962FBF8387862C
:1001100051FAFFFFFFFFFFFFFFFFFFFFFFFFFFFFA2
:10012000FFFFFFFFFFFFFFFFFFFFFFFFFFFFFFFFDF
:10013000FFFF012B42FCFFFFFFFFFFFFFFFFFFFF61
:10014000FFFFFFFFFFFFFFFFFFFFFFFFFFFFFFFFBF
:10015000FFFFFFFFFFFFFFFFFFFFFFFFFFFFFFFFAF
:10016000FFFFFFFFFFFFFFFFFFFFFFFFFFFFFFFF9F
:10017000FFFFFFFFFFFF012C42003F506BD41F45E4
:10018000EFF1342C3D88DF733507BFB13BBDC05262
:10019000167B937EEC51391956E109F18E9189B4A1
:1001A000B8F315B3995B72DAA2EE4085B6A0219A36
:1001B000921F9A1C8E61B93E9551002D4266BDE595
:1001C000C2317E7EF99B426A85C1B34833DEA8FF07
:1001D000A227C11DFE2859E7EF775E4BA1BA3D4D1E
:1001E0006B60AF28F821B53F053981649C42B49516
:1001F0002366CB3E9ECDE90404B7068E85C6002E4D
:10020000425066D19F7694BE8840C272A286703CEE
:10021000356107AD3F01B950C54026F45E9972EED5
:10022000972C663E2717BDAF1768449B574944F586
:1002300098D91B7D2CB45F8A5C04C03B9A786A29EC
:100240003918012130FFFFFFFF000000000000000F
:1002500000FFFFFFFFFEFFFFFFFFFFFFFFFFFFFFAE
:10026000FFFFFFFFFFFFFFFFFFFFFFFFFFFFFFFF9E
:10027000FFFFFFFFFF22307329C5CC6A19ECEC7A2F
:10028000A7B048B20D1A58DF2D37F4814D63C7FF70
:10029000FFFFFFFFFFFFFFFFFFFFFFFFFFFFFFFF6E
:1002A000FFFFFFFFFFFFFF2330FCFFFFFF00000009
:1002B0000000000000FFFFFFFFFEFFFFFFFFFFFF4A
:1002C000FFFFFFFFFFFFFFFFFFFFFFFFFFFFFFFF3E
:1002D000FFFFFFFFFFFFFFFFFF2430EF2AECD3ED0E
:1002E000C8852A9DD12E8A8D3956C65A8713508FBC
:1002F000081403124181FE6E9C1D18192DF8E36B42
:10030000058E98E4E73EE2A72F31B32530B70A7691
:1003100072385E543A6C2955BF5DF20255382A5442
:1003200082E041F759989BA78B623B1D6E74AD200C
:10033000F31EC7B18E37058BBE22CA87AA26305F4F
:100340000EEA907C1D437A9D817E1DCEB1600AC06D
:10035000B8F0B51331DAE97C149A28BD1DF4F829F8
:10036000DC9292BF989E5D6F2C26964ADE17361956
:1003700020FFFFFFFFFFFFFFFFFFFFFFFF00000069
:1003800000000000000000000001000000FFFFFF6F
:10039000FF1A20512563FCC2CAB9F3849E17A7AD8A
:1003A000FAE6BCFFFFFFFFFFFFFFFF00000000FFBA
:1003B000FFFFFF1B20FCFFFFFFFFFFFFFFFFFFFF13
:1003C000FF0000000000000000000000000100002D
:1003D00000FFFFFFFF1C204B60D2273E3CCE3BF6C8
:1003E000B053CCB0061D65BC86987655BDEBB3E71F
:1003F000933AAAD835C65A1D2096C298D84539A135
:10040000F4A033EB2D817D0377F240A463E5E6BCD5
:10041000F847422CE1F2D1176B1E20F551BF376827
:1004200040B6CBCE5E316B5733CE2B169E0F7C4A37
:10043000EBE78E9B7F1AFEE242E34F1118FFFFFFAE
:10044000FFFFFFFFFFFEFFFFFFFFFFFFFFFFFFFFBD
:10045000FFFFFFFFFF12183128D2B4B1C96B143669
:10046000F8DE99FFFFFFFFFFFFFFFFFFFFFFFF1316
:1004700018FCFFFFFFFFFFFFFFFEFFFFFFFFFFFF77
:10048000FFFFFFFFFFFFFFFFFF1418B1B946C1ECEC
:10049000DEB8FE49302472ABE9A70FE7809CE5196E
:1004A00005216415181210FF82FD0AFFF40088A1CF
:1004B00043EB20BF7CF69030B00EA88D18161811B3
:1004C00048791EA177F973D5CD246BED11106378AF
:1004D000DAC8FF952B190731202FFCFFFFFEFFFF25
:1004E000FFFFFFFFFFFFFFFFFFFFFFFFFFFFFFFF1C
:1004F000FFFFFFFFFFFFFFFFFF3220414136D08C9F
:100500005ED2BF3BA048AFE6DCAEBAFEFFFFFFFF06
:10051000FFFFFFFFFFFFFFFFFFFFFF332000000093
:1005200000000000000000000000000000000000CB
:100530000000000000000000000000000034200760
:1005400000000000000000000000000000000000AB
:100550000000000000000000000000000000003566
:10056000209817F8165B81F259D928CE2DDBFC9B19
:1005700002070B87CE9562A055ACBBDCF97E66BE48
:10058000793620B8D410FB8FD0479C195485A648E3
:10059000B417FDA808110EFCFBA45D65C4A3267763
:1005A000DA3A48710F3021300906052B0E03021A82
:1005B0000500041401144F7345494404050200006A
:1005C00000000000000000010000020B01000F0805
:1005D0000000C00100020903807901F31160A31A31
:1005E000068F3636DF11D486510EC74FEC7DCEC054
:1005F000D13D78E2DAE5B6BB35CB745CAC8BF18EDD
:1006000063568EE5185505EE86AD33B2984DB2C9E6
:100610001A071BE915ADE0F6AE916E9970FD6AB14F
:1006200094776B6550570FB1F982FCEF76F50E08A1
:10063000A78FFE06A23C7C101C024CFA697D6BB5AC
:100640007DD8061212DFEF37B872BD206CBAB162E6
:100650000FE84BF270F85FC8020F2A003FFF7F00DF
:1006600000000038113FFF0200E01550FF7F01003D
:10067000000038111FFF0200ECA000000063504B87
:1006800043532D3135FF68ED74E264BF7093680009
:100690007FE17093690073E064BF7093011070E6AE
:1006A00064BF7093100111241FBECFEFDFE7CDBFF1
:1006B000DEBF82B18870E9F385E08093130468EDB2
:1006C00076E064BF7093130178940C94CA4568ED8A
:1006D00071E064BF70934100ECCFF1E1E2E1DC0135
:1006E0008AE001900D928A95E1F70895E89401C09F
:1006F0006894DC01FB017E7F41F5F461842F4A950B
:10070000640F711D7E7F09F5F8949091021093702B
:10071000E1F77894109202102EF001900D928A95D4
:10072000E1F708956DE973E164BF709300100D90D7
:1007300001928A95E1F7F894909102109377E1F78E
:10074000789464BF10920010089581E00895F1E05C
:10075000FBBFFB01042E0A949F01200D311D18F4EC
:100760008F918F9181E00895F2DFDC0107900D9267
:100770004A95E1F788270895F894FECF9D0120500F
:100780003044D0F320503044B8F7CF93DF93CDB747
:10079000DEB7D250CDBFDEBF2196CF01EE27FE7F60
:1007A00007900992079009921A94D1F7BE01D2508E
:1007B000FC01F170EC0FFD1F5D910EF45FEF008006
:1007C000052205121F2A51934A9519F0E617F707DB
:1007D00098F3FC016DE9112079F078E064BF709323
:1007E0000010E895F894709102107370E1F7789416
:1007F000112464BF1092001072E064BF7093001067
:10080000EE27FE7F772709901990502D512153959F
:1008100009F0E89532967A95B1F7F8947091021044
:100820007FBB7370D9F77894112464BF10920010C5
:100830002DB73EB73E5F2DBF3EBFDF91CF910895EC
:10084000E894DC0184DF9ADF442309F097DF0EF09F
:1008500088270895462FBC01042E0A94800D911D0F
:1008600010F4402D419590E468944F93EADF88237B
:1008700029F48F9191E0811190E008950F909FEFFE
:1008800008959C9169276D9395F060E8C5919C2F20
:10089000CF70788194FD729596FF771F96FF771F32
:1008A00095FF771F771F679588F7815052F7089556
:1008B00090FF00D001FC0CC043FA111C10F877FA2D
:1008C000221C331C441C551C661C771C44F80895DC
:1008D00044FA779477F810FA6794579447943794CA
:1008E0002794179443F808952F923F924F925F9266
:1008F0006F927F928F929F92AF92BF92CF92DF9230
:10090000EF92FF920F931F93CF93DF93042EFB017F
:10091000DC014F3009F47096AF93BF93DD27CCE034
:100920008A2F18961E90111C441F111C551F1C92D3
:10093000A817C1F75C834993C03199F7B8E091914A
:10094000C1E08881991F87958993C830D1F7BA95FE
:10095000B1F7EF93FF93312413243124429401FC27
:10096000ABDF81E893E0A4DF8F939F931F922F92D8
:100970003F924F925F926F927F92E6E3FAE086E2B7
:10098000A1E083DFEF92FF9243E089E860E27EDF3F
:100990007F01642BEEEBFAE0E60FFB1F80FF06C041
:1009A000507FC591CF70C52BCD934A955591F701D6
:1009B0006AF7A80179013F912F9186016A0183E2CC
:1009C00064DF7F906F905F904F903F902F901F90CB
:1009D0009F918F918695979531F6FF91EF9100FC4D
:1009E0007097BF91AF9188E0CCE09C8197959C83F4
:1009F000661F988197959993661FC031B1F76D93E3
:100A00008A9591F7189786E0081A08F085CFDF914C
:100A1000CF911F910F91FF90EF90DF90CF90BF90FB
:100A2000AF909F908F907F906F905F904F903F908E
:100A30002F90112408952C1C8C1C3D6D8C6C0D5C2A
:100A40001F1D4D4C6D8C7D7D3C7C2D0C6E0C7C5D9A
:100A50000D8C2F7E8C7F6E5E5F6F6F0E0F3E1E8C37
:100A60007F1D7E4F8C2E3F8C0F1E6C4E0E1F631110
:100A70002261735271533214422354030221133101
:100A800072013433431225662715247677653506BF
:100A900005475704267564166717555607456A0BB0
:100AA000097B7A0A3819493B4A784B3A39686928F0
:100AB0002B1B591A18486B08295A585B792A4D2C58
:100AC000A7EFB2C10D41284A9ED8E41FE31EF67974
:100AD00060260FA236FB8BB6F9B3D1685A843A80F0
:100AE0001139C95DD2A79333C8627EF475CD55DE46
:100AF000BB5CA0074C906CE52405179B8F7AD1EA6C
:100B0000DD030FBF78FDBD240B7478C295474A47BB
:100B100036EF937C4F2217D960D8A415A31EEC564C
:100B200024AC3501876056FD52C1CBAEECBA203003
:100B3000C196FE9BBA598983FE3B626819851749A5
:100B4000DA404B2E661EB41F49E7D1B5908BC9A27F
:100B50008CDA3CD8FB647E7C372DE2830DB1A0F7A4
:100B6000BFF5F69011C86AC4239C8D5ACE760F61EA
:100B70005539533DA2A3950BE85228E6740F62B491
:100B800013FDB183AFC8DEC2D08A877C0621141959
:100B90006A434AE5919FA82F8D147DDA78729F6B86
:100BA000495B5CFEF4B60901E537F0973BECE3A640
:100BB000BCA0254057053658226ECB3DCED9BF018B
:100BC000F801E80FF11D8081FB01089540E1888163
:100BD000F6DF89934150D9F76097089540E1888105
:100BE000EEDF89934150D9F7F7CF89819D819983B1
:100BF00099859D839D8599878D878B819F859B8313
:100C00009B859F879F819B878F8310C089819D854E
:100C1000998399859D879D8199878D838B819F81FC
:100C20009B839B859F839F859B878F878A819A85DE
:100C30009A838A878E859E819E878E83089524E07D
:100C40009BE118D0BA2F1FD0E1F7C6CF24E09BE17B
:100C500011D0AF938A2F32D0B82F842786272DD07A
:100C6000A827B527B7278B2F28D0BF91B8270BD03F
:100C700079F7B2CF488159816A817B81A72FA62756
:100C8000A527A4270895842F852718D08A2784278D
:100C90008993852F862712D08B2785278993862FC6
:100CA00087270CD08A2786278993842F872706D009
:100CB0008B27872789932A95089500D0880F08F4F9
:100CC00089270895B09740E1819198819827999359
:100CD0004A95D1F781CF00D000D0550F511D8527FF
:100CE000089520FB0F931F93CF93DF93EC01FEB782
:100CF000F350FEBFEDB731969F018F01139500248D
:100D000081E09BE18193D801A80FB11D0C92582F6F
:100D1000D5DF85270394B1F7882793E6582FDBDFCB
:100D20008927D901BE5FA80FB11D0C9281938081E4
:100D30008095D901A80FB11D8C91039479F7F90121
:100D4000242FDB01BF010D9001924A95E1F731E0BC
:100D5000022EDB013497818132DF9D919827932702
:100D6000948382812CDF9D9198279583838127DF4F
:100D70009D9198279683808122DF9D919827978364
:100D800034967CE023FD74E18D91919198279383B3
:100D90007A95D1F725FF0AC040E181914D3008F0E6
:100DA0000EDF9D91982793834A95B9F74BE1330F56
:100DB00008F43427020E19F0402D4F3E60F2F8017E
:100DC000FA95422F469546954B5F342F56F07BDFC0
:100DD000FDDE0BDF315018F032DF75DFF9CF73DF46
:100DE0000FC01395432F4D5F70964A95E9F76ADF60
:100DF0000DDFF4DE315018F065DF28DFF9CF62DF58
:100E0000FEB7FD5FFEBFDF91CF911F910F91089557
:100E10002F923F924F925F926F927F928F929F920A
:100E2000AF92BF92CF92DF92EF92FF920F931F93F8
:100E3000CF93DF93ADB7BEB7A458B109ADBFBEBF66
:100E400011966D937D938D939D93FC01EB0198E03A
:100E5000881B099019902990399049905990699070
:100E6000799088AC99ACAAACBBACCCACDDACEEACA8
:100E7000FFAC80019101A201B30108080192190899
:100E800011922A0821923B0831924C0841925D0848
:100E900051926E0861927F0871928795800A80AEA8
:100EA000910A91AEA20AA2AEB30AB3AEC40AC4AE0E
:100EB000D50AD5AEE60AE6AEF70AF7AE881F9A95D0
:100EC00041F680FB96F9E91BF040BF01FD01B4D16A
:100ED000CDB7DEB7EB81FC8169817A81ADD1CDB729
:100EE000DEB7EB81FC81E058FF4F69817A81605C5D
:100EF0007F4FA2D1CDB7DEB7EB81FC81DE01159625
:100F0000EF01C058DF4F7E2F705C991B819091904C
:100F1000A190B190C190D190E190F19000AC888106
:100F2000081E11AC8981181E22AC8A81281E33ACA0
:100F30008B81381E44AC8C81481E55AC8D81581E67
:100F400066AC8E81681E77AC8F81781E09921992EB
:100F5000299239924992599269927992991F081C63
:100F6000191C2A1C3B1C4C1C5D1C6E1C7F1C991FF1
:100F70008D91080A00AE8D91180A11AE8D91280A44
:100F800022AE8D91380A33AE8D91480A44AE8D91D0
:100F9000580A55AE8D91680A66AE8D91780A77AE83
:100FA000979597957E13B2CF979597FBE05CFF4F8F
:100FB000991F78E000808990081C11809990191C75
:100FC0002280A9902A1C3380B9903B1C4480C99090
:100FD0004C1C5580D9905D1C6680E9906E1C778012
:100FE000F9907F1C991F8827081E181E281E381E7E
:100FF000481E581E681E781E991F8D91080A01927E
:101000008D91180A11928D91280A21928D91380A9A
:1010100031928D91480A41928D91580A51928D9149
:10102000680A61928D91780A7192979597957A9551
:1010300009F6991F991F000B110B1124882780F9BD
:10104000080F111D97959170091F111D8081800F48
:1010500081938081811F81938081811F8193808111
:10106000811F81938081811F81938081811F819362
:101070008081811F81938081811F81938081811F65
:1010800081938081811F81938081811F81938081E1
:10109000811F81938081811F81938081811F819332
:1010A0008081811F81938081811F81938081811F35
:1010B00081938081811F81938081811F81938081B1
:1010C000811F81938081811F81938081811F819302
:1010D0008081811F81938081811F81938081811F05
:1010E00081938081811F81938081811F8193808181
:1010F000811F81938081811F81938081811F8193D2
:101100008081811F81938081811F81938081811FD4
:1011100081938081811F81938081811F8193808150
:10112000811F81938081811F81938081811F8193A1
:101130008081811F81938081811F81938081811FA4
:1011400081938081811F81938081811F8193808120
:10115000811F81938081811F81938081811F819371
:101160008081811F81938081811F81938081811F74
:1011700081938081811F81938081811F81938081F0
:10118000811F81938081811F81938081811F819341
:101190008081811F81938081811F8193811E819233
:1011A000911E9192A11EA192B11EB192C11EC19237
:1011B000D11ED192E11EE192F11EF1921197ADBFC5
:1011C000BEBFDF91CF911F910F91FF90EF90DF9005
:1011D000CF90BF90AF909F908F907F906F905F90D7
:1011E0004F903F902F9008952F923F924F925F9291
:1011F0006F927F928F929F92AF92BF92CF92DF9227
:10120000EF92FF920F931F93CF93DF93FC0114D0C3
:10121000DF91CF911F910F91FF90EF90DF90CF90D2
:10122000BF90AF909F908F907F906F905F904F9006
:101230003F902F9011240895CDB7DEB7C454D0400D
:10124000CDBFDEBF69837A83EB83FC83EB0194E03F
:10125000881B09901990299039904990599069906C
:101260007990888C998CAA8CBB8CCC8CDD8CEE8C84
:10127000FF8C80019101A201B301080819082A0816
:101280003B084C085D086E087F080192119221927C
:10129000319241925192619271928795800A910A9E
:1012A000A20AB30AC40AD50AE60AF70A808E918E0A
:1012B000A28EB38EC48ED58EE68EF78E881F9A9539
:1012C00041F680FB95F9E91BF040EF01EDB7FEB761
:1012D000359695D2CDB7DEB7EB81FC81A981BA8175
:1012E000ED018DD2CDB7DEB7EB81FC81E05CFF4F25
:1012F000A981BA819096ED0182D2EDB7FEB7DF01E8
:101300001596C381D481FE01E05CFF4F88A099A0AF
:10131000AAA0BBA0CCA0DDA0EEA0FFA008A519A5A7
:101320002AA53BA54CA55DA56EA57FA500801180D3
:10133000228033804480558066807780800C911CA9
:10134000A21CB31CC41CD51CE61CF71C0084118411
:10135000228433844484558466847784001D111D5F
:10136000221D331D441D551D661D771D991F0880C4
:1013700019802A803B804C805D806E807F80080CC5
:10138000191C2A1C3B1C4C1C5D1C6E1C7F1C991FCD
:101390008D91081A08A28D91180A19A28D91280A18
:1013A0002AA28D91380A3BA28D91480A4CA28D91B8
:1013B000580A5DA28D91680A6EA28D91780A7FA26B
:1013C0009795088419842A843B844C845D846E84B8
:1013D0007F84001E111E221E331E441E551E661ED3
:1013E000771E991F8D91080A08A68D91180A19A6D3
:1013F0008D91280A2AA68D91380A3BA68D91480A1C
:101400004CA68D91580A5DA68D91680A6EA68D91A5
:10141000780A7FA69795979508A819A82AA83BA8A7
:101420004CA85DA86EA87FA88089081E008A8189C3
:10143000181E118A8289281E228A8389381E338ABF
:101440008489481E448A8589581E558A8689681E63
:10145000668A8789781E778A991F8889081E8989F4
:10146000181E8A89281E8B89381E8C89481E8D89F2
:10147000581E8E89681E8F89781E991F8D91080AC3
:1014800008AA8D91180A19AA8D91280A2AAA8D9165
:10149000380A3BAA8D91480A4CAA8D91580A5DAA38
:1014A0008D91680A6EAA8D91780A7FAA9795979573
:1014B00008AC19AC2AAC3BAC4CAC5DAC6EAC7FACB0
:1014C000808D081E008E818D181E118E828D281E23
:1014D000228E838D381E338E848D481E448E858DDA
:1014E000581E558E868D681E668E878D781E778E67
:1014F000991F888D081E898D181E8A8D281E8B8D38
:10150000381E8C8D481E8D8D581E8E8D681E8F8DB9
:10151000781E991F8D91080A08AE8D91180A19AE90
:101520008D91280A2AAE8D91380A3BAE8D91480ADA
:101530004CAE8D91580A5DAE8D91680A6EAE8D915C
:10154000780A7FAE91FB9795979580A1881E81A11F
:10155000981E82A1A81E83A1B81E84A1C81E85A1C1
:10156000D81E86A1E81E87A1F81E991F8827881E0D
:10157000981EA81EB81EC81ED81EE81EF81E991F69
:101580008D91880A80828D91980A91828D91A80A06
:10159000A2828D91B80AB3828D91C80AC4828D91BE
:1015A000D80AD5828D91E80AE6828D91F80AF782F1
:1015B0008D91080B8D91180B8D91280B8D91380B07
:1015C0008D91480B8D91580B8D91680B8D91780BF7
:1015D00097958827081F181F281F381F481F581F56
:1015E000681F781F979580A4081D008791A4191D76
:1015F0001187A2A42A1D2287B3A43B1D3387C4A44C
:101600004C1D4487D5A45D1D5587E6A46E1D6687D5
:10161000F7A47F1D77870088118822883388448843
:1016200055886688778800A9001E11A9111E22A975
:10163000221E33A9331E44A9441E55A9551E66A96E
:10164000661E77A9771E991F8827081E181E281E58
:10165000381E481E581E681E781E991F8D91080A54
:10166000008A8D91180A118A8D91280A228A8D91FB
:10167000380A338A8D91480A448A8D91580A558ACE
:101680008D91680A668A8D91780A778A008C118C10
:10169000228C338C448C558C668C778C8D91080A07
:1016A0008D91180A8D91280A8D91380A8D91480ADA
:1016B0008D91580A8D91680A8C91780ACC0B979578
:1016C0008827081E181E281E381E481E581E681E11
:1016D000781E979580AD081E008E01AC101C118EEF
:1016E00012AC211C228E23AC321C338E34AC431C32
:1016F000448E45AC541C558E56AC651C668E67AC4A
:10170000761C778E7724DC2F991F9170C91FD71D07
:1017100090F9C90FD71D70A07C0E70A271A07D1E1C
:1017200071A272A07D1E72A273A07D1E73A274A00E
:101730007D1E74A275A07D1E75A276A07D1E76A268
:1017400077A07D1E77A28D1E80A69D1E91A6AD1E40
:10175000A2A6BD1EB3A6CD1EC4A6DD1ED5A6ED1E37
:10176000E6A6FD1EF7A60D1F00AB1D1F11AB2D1F1A
:1017700022AB3D1F33AB4D1F44AB5D1F55AB6D1FFF
:1017800066AB7D1F77AB8D1F80AF0D1E01AE1D1E9A
:1017900012AE2D1E23AE3D1E34AE4D1E45AE5D1E57
:1017A00056AE6D1E67AEADBFBEBF08952F923F927D
:1017B0004F925F926F927F928F929F92AF92BF9261
:1017C000CF92DF92EF92FF920F931F93CF93DF930D
:1017D000FC01EB0114D0DF91CF911F910F91FF908D
:1017E000EF90DF90CF90BF90AF909F908F907F90C1
:1017F0006F905F904F903F902F9011240895288014
:1018000039804A805B806C807D808E809F809927A4
:10181000249C6001239CB02CC10CD91E269C700115
:10182000289C8001399C9001599CA001799CB001B1
:10183000349CD00CE11CF91E459CF00C011D191FB5
:10184000369CD001259CD00CE11CFA1EB91F359C9A
:10185000E00CF11CB91F569C0B0F101D211D391FE8
:10186000299CD001279CF00C011D1A1FB91F379C21
:10187000000D111DB91F499C2B0F301D411D591F13
:10188000679CD001479C100D211D3A1FB91F579C22
:10189000200D311DB91F789C4B0F501D611D791F04
:1018A000589CD001389C100D211D3A1FB91F489C2F
:1018B000200D311DB91F699C4B0F501D611D791FF3
:1018C000689CD001469C000D111D291F391F4A1F1D
:1018D0005B1F691F791F899C700D8827811DBB0CB8
:1018E000CC1CDD1CEE1CFF1C001F111F221F331F10
:1018F000441F551F661F771F881F991F339CD001F7
:10190000229C0082312C449CB30CCA1EDB1EB18287
:10191000C282D382E01CF11C991F669C1001559C69
:10192000D001779C2001889C3001999C96950A1FD4
:101930001B1F221D331D441D551D661D771D801D57
:10194000911DE482F58206831783288439844A84B2
:101950005B846C847D848E849F84559CD001449CE0
:101960008001339C7001229C200D311D4E1D5F1D96
:10197000601F711F8A1F9B1F30FB97958795779576
:1019800067955795479537950027399C5001599C85
:101990006001299C7001259CD001239C300D411DC4
:1019A0005A1FB01F249C400D511DB01F279C6B0F68
:1019B000701D811D9E1DF01E289C800D911DF01E26
:1019C000369CD001349C500D611D7A1FB01F359C90
:1019D000600D711DB01F269C600D711D8B1F901F27
:1019E000AF1CB01E569CD001459C700D811D9A1FE6
:1019F000B01F469C800D911DB01F679CAB0EB01CA4
:101A0000C11CD01E499CB00CC11CD01E699CD001C9
:101A1000489C7001379C800D911DAE1CF01E389CB7
:101A2000900DA11CF01E689CBF0CC01CD11CB01FE7
:101A3000799C7001DA0EEB1EF01E589CD001479C79
:101A4000900DA11CBA1EB01F579CA00CB11CB01F5A
:101A5000789CCB0ED01CE11CF01E899CF00C011D63
:101A60001127330F441F551F661F771F881F991FAB
:101A7000AA1CBB1CCC1CDD1CEE1CFF1C001F111F74
:101A800030F9208B318B428B538B999CD001889CF1
:101A9000A001779C9001669CA00CB11CC21ED31EB5
:101AA000E41EF51E0A1F1B1F648B758B868B978B9C
:101AB000A08EB18EC28ED38EE48EF58E068F178FD8
:101AC000A880B980CA80DB80EC80FD800E811F81F8
:101AD000A218B308C408D508E608F70808091909C8
:101AE000AA0BAA26BA26CA26DA26EA26FA260A2740
:101AF0001A27AA1ABA0ACA0ADA0AEA0AFA0A0A0B58
:101B00001A0B9927AC9C2001AB9C302C410C591E20
:101B1000AE9C3001A09E4001B19E9001D19EA001DB
:101B2000F19EB001BC9C500C611C791ECD9C700CC8
:101B3000811C991EBE9CD001AD9C500C611C7A1E6C
:101B4000B91FBD9C600C711CB91FDE9C8B0E901CD4
:101B5000211D391FA19ED001AF9C700C811C9A1EC3
:101B6000B91FBF9C800C911CB91FC19E2B0F301D4B
:101B7000411D591FEF9CD001CF9C900C211D3A1F95
:101B8000B91FDF9C200D311DB91FF09E4B0F501D5A
:101B9000611D791FD09ED001B09E900C211D3A1F6F
:101BA000B91FC09E200D311DB91FE19E4B0F501D66
:101BB000611D791FE09ED001CE9C800C911C291FD5
:101BC000391F4A1F5B1F691F791F019F700D8827EE
:101BD000811D330C441C551C661C771C881C991CE9
:101BE000221F331F441F551F661F771F881F991F11
:101BF000BB9CD001AA9C5001CC9C2A2C3B0C4A1EB9
:101C00005B1E601C711C991FEE9C5001DD9CD00175
:101C1000FF9C6001009F7001119F96958A1E9B1E7C
:101C20002A1D3B1D4C1D5D1D6E1D7F1D801D911DC0
:101C3000A080B180C280D380E480F58006811781C6
:101C4000A218B308C408D508E608F7080809190956
:101C5000A7952088318842885388A20CB31CC41CE5
:101C6000D51CA086B186C286D3866488758886888E
:101C70009788E61CF71C081D191DE486F586068763
:101C80001787AA1F220A330A440A550A660A770AE6
:101C9000880A990A00081108A08CB18CC28CD38CD8
:101CA000E48CF58C068D178DA6952A1C3B1C4C1CCC
:101CB0005D1C6E1C7F1C801E911E208A318A428A08
:101CC000538A648A758A868A978AA01CB11CC11CB3
:101CD000D11CE11CF11C011D111DA08EB18EC28E04
:101CE000D38EE48EF58E068F178FA888B988CA88A0
:101CF000DB88EC88FD880E891F899927AC9C200120
:101D0000AB9C302C410C591EAE9C3001A09E400172
:101D1000B19E9001D19EA001F19EB001BC9C500CDF
:101D2000611C791ECD9C700C811C991EBE9CD0013B
:101D3000AD9C500C611C7A1EB91FBD9C600C711CBF
:101D4000B91FDE9C8B0E901C211D391FA19ED00156
:101D5000AF9C700C811C9A1EB91FBF9C800C911CFB
:101D6000B91FC19E2B0F301D411D591FEF9CD00183
:101D7000CF9C900C211D3A1FB91FDF9C200D311DF7
:101D8000B91FF09E4B0F501D611D791FD09ED001D1
:101D9000B09E900C211D3A1FB91FC09E200D311D11
:101DA000B91FE19E4B0F501D611D791FE09ED001B0
:101DB000CE9C800C911C291F391F4A1F5B1F691F75
:101DC000791F019F700D8827811D330C441C551C01
:101DD000661C771C881C991C221F331F441F551F2B
:101DE000661F771F881F991FBB9CD001AA9C00A269
:101DF000B12CCC9C3B0C4A1E5B1E31A242A253A2CA
:101E0000601C711C991FEE9C5001DD9CD001FF9C51
:101E10006001009F7001119F96958A1E9B1E2A1DCE
:101E20003B1D4C1D5D1D6E1D7F1D801D911D64A2FF
:101E300075A286A297A2A88CB98CCA8CDB8CEC8C7C
:101E4000FD8C0E8D1F8DDD9CD001CC9C4001BB9C78
:101E50003001AA9C200D311D461D571D681D791D9E
:101E60008A1F9B1F30FB97958795779567955795A8
:101E7000479537958824B19E1001D19E2001A19EDF
:101E80003001AD9CD001AB9C300D411D5A1FB81DD7
:101E9000AC9C400D511DB81DAF9C6B0F701D811D7A
:101EA000961D781CA09E800D911D781CBE9CD001B3
:101EB000BC9C500D611D7A1FB81DBD9C600D711D2D
:101EC000B81DAE9C600D711D8B1F981D271C381C02
:101ED000DE9CD001CD9C700D811D9A1FB81DCE9C3B
:101EE000800D911DB81DEF9C2B0E301C411C581C01
:101EF000C19E300C411C581CE19ED001C09E300197
:101F0000BF9C800D911D261C781CB09E900D211C3D
:101F1000781CE09E370C401C511CB81DF19E30010E
:101F20005A0E6B1E781CD09ED001CF9C900D211CA8
:101F30003A1EB81DDF9C200C311CB81DF09E4B0EC4
:101F4000501C611C781C019F700C811C9924330F5C
:101F5000441F551F661F771F881F991F221C331CA3
:101F6000441C551C661C771C881C991C30F920AB3E
:101F700031AB42AB53AB119FD001009FA001FF9C3E
:101F80009001EE9C200C311C421E531E641E751ED7
:101F90008A1E9B1E64AB75AB86AB97AB20AE31AE91
:101FA00042AE53AE64AE75AE86AE97AE2888398821
:101FB0004A885B886C887D888E889F882A183B08B1
:101FC0004C085D086E087F08800A910AAA0B2A2631
:101FD0003A264A265A266A267A268A269A262A1ACD
:101FE0003A0A4A0A5A0A6A0A7A0A8A0A9A0A992705
:101FF000249C6001239CB02CC10CD91E269C70012E
:10200000289C8001399C9001599CA001799CB001C9
:10201000349CD00CE11CF91E459CF00C011D191FCD
:10202000369CD001259CD00CE11CFA1EB91F359CB2
:10203000E00CF11CB91F569C0B0F101D211D391F00
:10204000299CD001279CF00C011D1A1FB91F379C39
:10205000000D111DB91F499C2B0F301D411D591F2B
:10206000679CD001479C100D211D3A1FB91F579C3A
:10207000200D311DB91F789C4B0F501D611D791F1C
:10208000589CD001389C100D211D3A1FB91F489C47
:10209000200D311DB91F699C4B0F501D611D791F0B
:1020A000689CD001469C000D111D291F391F4A1F35
:1020B0005B1F691F791F899C700D8827811DBB0CD0
:1020C000CC1CDD1CEE1CFF1C001F111F221F331F28
:1020D000441F551F661F771F881F991F339CD0010F
:1020E000229C1001449CA22CB30CCA1EDB1EE01CD7
:1020F000F11C991F669C1001559CD001779C200112
:10210000889C3001999C96950A1F1B1F221D331D28
:10211000441D551D661D771D801D911D20A031A0F9
:1021200042A053A064A075A086A097A01088120CAE
:1021300010A21188131C11A21288141C12A2138859
:10214000151C13A21488161C14A21588171C15A29E
:102150001688181C16A21788191C17A2AA0B2A1871
:102160003B084C085D086E087F08800A910AA0AC05
:10217000B1ACC2ACD3ACE4ACF5AC06AD17ADA20AC1
:10218000B30AC40AD50AE60AF70A080B190B0008B5
:10219000110820A931A942A953A964A975A986A942
:1021A00097A9220E331E441E551E661E771E881EDA
:1021B000991EA21EB31EC41ED51EE61EF71E081FC2
:1021C000191FBB270B1E1B1E208D318D428D538D79
:1021D000648D758D868D978DA695221E331E441EA7
:1021E000551E661E771E881E991EAB1EBB1ECB1E7B
:1021F000DB1EEB1EFB1E0B1F1B1F20A631A642A6DB
:1022000053A664A675A686A697A6A0AAB1AAC2AA36
:10221000D3AAE4AAF5AA06AB17ABA0ACB1ACC2AC8A
:10222000D3ACE4ACF5AC06AD17ADA01CB11CC11C21
:10223000D11CE11CF11C011D111DA0AEB1AEC2AE3E
:10224000D3AEE4AEF5AE06AF17AF288039804A8032
:102250005B806C807D808E809F80A884B984CA84D6
:10226000DB84EC84FD840E851F85A8892A1AA98940
:102270003A0AAA894A0AAB895A0AAC896A0AAD891C
:102280007A0AAE898A0AAF899A0AA88DAA0AA98D04
:10229000BA0AAA8DCA0AAB8DDA0AAC8DEA0AAD8DEC
:1022A000FA0AAE8D0A0BAF8D1A0BAA0B2A263A2614
:1022B0004A265A266A267A268A269A26AA26BA26DE
:1022C000CA26DA26EA26FA260A271A272A1A3A0AF4
:1022D0004A0A5A0A6A0A7A0A8A0A9A0AAA0ABA0A9E
:1022E000CA0ADA0AEA0AFA0A0A0B1A0B9101A201CF
:1022F000B301C4012A193B094C095D096E097F0924
:10230000800B910BAA0B2A273A274A275A276A27BC
:102310007A278A279A272A1B3A0B4A0B5A0B6A0BF1
:102320007A0B8A0B9A0B5F934F933F932F939F9354
:102330008F937F936F93DF92CF92BF92AF92EF9282
:10234000FF929927249C6001239CB02CC10CD91EBC
:10235000269C7001289CE001399C9001599CA001A9
:10236000799CB001349CD00CE11CF91E459CF00C0A
:10237000C11DD91F369CD001259CD00CE11CFA1E32
:10238000B91F359CE00CF11CB91F569CCB0FD01D1A
:10239000211D391F299CD001279CF00CC11DDA1F7B
:1023A000B91F379CC00DD11DB91F499C2B0F301D83
:1023B000411D591F679CD001479CD00D211D3A1F1C
:1023C000B91F579C200D311DB91F789C4B0F501D14
:1023D000611D791F589CD001389CD00D211D3A1FDA
:1023E000B91F489C200D311DB91F699C4B0F501D12
:1023F000611D791F689CD001469CC00DD11D291F0D
:10240000391F4A1F5B1F691F791F899C700D882720
:10241000811DBB0CCC1CDD1CEE1CFF1CCC1FDD1F6A
:10242000221F331F441F551F661F771F881F991FC8
:10243000339CD001229C1001449CA22CB30CCA1ED8
:10244000DB1EE01CF11C991F669C1001559CD001FD
:10245000779C2001889C3001999C9695CA1FDB1FB0
:10246000221D331D441D551D661D771D801D911DA8
:102470007F906F902F903F904F905F90DF92CF9220
:10248000BF92AF92DF93CF93FF92EF92559CD00112
:10249000449CE001339C7001229C200D311D4E1D97
:1024A0005F1D6C1F7D1F8A1F9B1F30FB97958795B3
:1024B00077956795579547953795CC27319E50016D
:1024C000519E6001219E7001259CD001239C300DFE
:1024D000411D5A1FBC1F249C400D511DBC1F279C31
:1024E0006B0F701D811D9E1DFC1E209E800D911D79
:1024F000FC1E369CD001349C500D611D7A1FBC1F00
:10250000359C600D711DBC1F269C600D711D8B1FBD
:102510009C1FAF1CBC1E569CD001459C700D811D9C
:102520009A1FBC1F469C800D911DBC1F679CAB0E63
:10253000B01CC11CDC1E419EB00CC11CDC1E619E87
:10254000D001409E7001379C800D911DAE1CFC1E79
:10255000309E900DA11CFC1E609EBF0CC01CD11CA7
:10256000BC1F719E7001DA0EEB1EFC1E509ED00146
:10257000479C900DA11CBA1EBC1F579CA00CB11CFF
:10258000BC1F709ECB0ED01CE11CFC1E019FF00CEA
:10259000C11DDD27330F441F551F661F771F881F7E
:1025A000991FAA1CBB1CCC1CDD1CEE1CFF1CCC1FE5
:1025B000DD1F30F9119FD001009F2001779C100191
:1025C000669CA00CB11CC21CD31CE41CF51CCA1FC9
:1025D000DB1F5F934F933F932F939F938F937F9333
:1025E0006F93DF92CF92BF92AF92DF93CF93FF9220
:1025F000EF92CDB7DEB7AD8CBE8CCF8CD8A0E98C76
:10260000FA8C0B8D1C8D9924AC9CA001AB9C302DB9
:10261000410D591DAE9CB001A09EC001B19E10019C
:10262000D19E2001F19E3001BC9C500D611D791D91
:10263000CD9C700D811D991DBE9CD001AD9C500D8F
:10264000611D7A1FB91DBD9C600D711DB91DDE9CF9
:102650008B0F901D211C391CA19ED001AF9C700DC9
:10266000811D9A1FB91DBF9C800D911DB91DC19E72
:102670002B0E301C411C591CEF9CD001CF9C900D9F
:10268000211C3A1EB91DDF9C200C311CB91DF09E87
:102690004B0E501C611C791CD09ED001B09E900D39
:1026A000211C3A1EB91DC09E200C311CB91DE19E93
:1026B0004B0E501C611C791CE09ED001CE9C800DFD
:1026C000911D291C391C4A1E5B1E691C791C019F27
:1026D000700C8824811C330F441F551F661F771F01
:1026E000881F991F221C331C441C551C661C771C18
:1026F000881C991CBB9CD001AA9C5001CC9C2A2D03
:102700003B0D4A1F5B1F601D711D991CEE9C500103
:10271000DD9CD001FF9C6001009F7001119F969489
:102720008A1F9B1F2A1C3B1C4C1C5D1C6E1C7F1CA3
:10273000801C911CAD88BE88CF88D88CE988FA8827
:102740000B891C89A21AB30AC40AD50AE60AF70A39
:10275000080B190B2D813E814F81588569817A8143
:102760008B819C812209330944095509660977093F
:1027700088099909000811082D843E844F845888DF
:1027800069847A848B849C84A20CB31CC41CD51CE1
:10279000E61CF71C081D191D221D331D441D551D67
:1027A000661D771D881D991D2D803E804F805884A1
:1027B00069807A808B809C80201C311C411C511CBC
:1027C000611C711C811C911C2D823E824F82588697
:1027D00069827A828B829C822D883E884F88588CB1
:1027E00069887A888B889C88008002181180130879
:1027F00022802408338035084480460855805708D5
:10280000668068087780790880848A0891849B08AC
:10281000A284AC08B384BD08C484CE08D584DF0884
:10282000E684E00AF784F10ABB0BA0A1A00DA08BFF
:10283000A1A1A11DA18BA2A1A21DA28BA3A1A31D39
:10284000A38BA4A1A41DA48BA5A1A51DA58BA6A1A6
:10285000A61DA68BA7A1A71DA78BA0A5A81DA08F0D
:10286000A1A5A91DA18FA2A5AA1DA28FA3A5AB1DDD
:10287000A38FA4A5AC1DA48FA5A5AD1DA58FA6A54E
:10288000AE1DA68FA7A5AF1DA78FAFB7AD80BE8029
:10289000CF80D884E980FA800B811C81A096CDBFBF
:1028A000DEBFB69500A8020A11A8130A22A8240ABE
:1028B00033A8350A44A8460A55A8570A66A8680AE4
:1028C00077A8790A80AC8A0891AC9B08A2ACAC08C6
:1028D000B3ACBD08C4ACCE08D5ACDF08E6ACE00AAA
:1028E000F7ACF10ACC0BDD0BA695A0A1A01DA0A30F
:1028F000A1A1A11DA1A3A2A1A21DA2A3A3A1A31D49
:10290000A3A3A4A1A41DA4A3A5A1A51DA5A3A6A19D
:10291000A61DA6A3A7A1A71DA7A3A0A5A81DA0A704
:10292000A1A5A91DA1A7A2A5AA1DA2A7A3A5AB1DEC
:10293000A3A7A4A5AC1DA4A7A5A5AD1DA5A7A6A545
:10294000AE1DA6A7A7A5AF1DA7A700A811A822A8DE
:1029500033A844A855A866A877A880AC91ACA2ACCF
:10296000B3ACC4ACD5ACE6ACF7AC0C1E1D1E2D1E32
:102970003D1E4D1E5D1E6D1E7D1E8D1E9D1EAD1EBF
:10298000BD1ECD1EDD1EED1EFD1E00AA11AA22AA2F
:1029900033AA44AA55AA66AA77AA80AE91AEA2AE7F
:1029A000B3AEC4AED5AEE6AEF7AE08952F923F9269
:1029B0004F925F926F927F928F929F92AF92BF924F
:1029C000CF92DF92EF92FF920F931F93CF93DF93FB
:1029D000CDB7DEB7C456D040CDBFDEBF69837A83A2
:1029E0008B839C83EB01FC0196E0881B0990199076
:1029F00029903990499059906990799088A499A428
:102A0000AAA4BBA4CCA4DDA4EEA4FFA480019101E0
:102A1000A201B301080819082A083B084C085D0800
:102A20006E087F0801921192219231924192519247
:102A3000619271928795800A910AA20AB30AC40A28
:102A4000D50AE60AF70A80A691A6A2A6B3A6C4A64E
:102A5000D5A6E6A6F7A6881F9A9541F680FB94F9BD
:102A600095F9E91BF040BF01EDB7FEB7359683D16C
:102A7000CDB7DEB7EB81FC8169817A817CD1CDB79E
:102A8000DEB7EB81FC81E05AFF4F69817A81605D9E
:102A90007F4F71D1CDB7DEB7EB81FC81DE0115969A
:102AA000EF01C05ADF4F7E2F705D991B00A888810F
:102AB000081E11A88981181E22A88A81281E33A801
:102AC0008B81381E44A88C81481E55A88D81581EC4
:102AD00066A88E81681E77A88F81781E0992199248
:102AE000299239924992599269927992991F8191CA
:102AF000081E8191181E8191281E8191381E819196
:102B0000481E8191581E8191681E8191781E991FDF
:102B10008D91080A00A68D91180A11A68D91280A98
:102B200022A68D91380A33A68D91480A44A68D912C
:102B3000580A55A68D91680A66A68D91780A77A6DF
:102B4000979597957E13B2CF979597FBF096991F1F
:102B500076E000808990081C11809990191C2280D1
:102B6000A9902A1C3380B9903B1C4480C9904C1C0E
:102B70005580D9905D1C6680E9906E1C7780F99035
:102B80007F1C991F8827081E181E281E381E481EE5
:102B9000581E681E781E991F8D91080A01928D910A
:102BA000180A11928D91280A21928D91380A31923A
:102BB0008D91480A41928D91580A51928D91680ADF
:102BC00061928D91780A7192979597957A9509F609
:102BD000991F991F440B550B1124882780F9480F22
:102BE000511D97959170491F511D8081840F8193CC
:102BF0008081851F81938081851F81938081851FBE
:102C000081938081851F81938081851F819380813D
:102C1000851F81938081851F81938081851F81938A
:102C20008081851F81938081851F81938081851F8D
:102C300081938081851F81938081851F819380810D
:102C4000851F81938081851F81938081851F81935A
:102C50008081851F81938081851F81938081851F5D
:102C600081938081851F81938081851F81938081DD
:102C7000851F81938081851F81938081851F81932A
:102C80008081851F81938081851F81938081851F2D
:102C900081938081851F81938081851F81938081AD
:102CA000851F81938081851F81938081851F8193FA
:102CB0008081851F81938081851F81938081851FFD
:102CC00081938081851F81938081851F819380817D
:102CD000851F81938081851F8193851E8192951E1A
:102CE0009192A51EA192B51EB192C51EC192D51E8C
:102CF000D192E51EE192F51EF1921197ADBFBEBFD4
:102D0000DF91CF911F910F91FF90EF90DF90CF90C7
:102D1000BF90AF909F908F907F906F905F904F90FB
:102D20003F902F9008952F923F924F925F926F9213
:102D30007F928F929F92AF92BF92CF92DF92EF924B
:102D4000FF920F931F93CF93DF93FC0114D0DF9179
:102D5000CF911F910F91FF90EF90DF90CF90BF9098
:102D6000AF909F908F907F906F905F904F903F902B
:102D70002F9011240895CDB7DEB7E497CDBFDEBF05
:102D800069837A83EB83FC83EB0193E0881B0990D2
:102D90001990299039904990599069907990888834
:102DA0009988AA88BB88CC88DD88EE88FF88800156
:102DB0009101A201B301080819082A083B084C0830
:102DC0005D086E087F080192119221923192419222
:102DD0005192619271928795800A910AA20AB30A70
:102DE000C40AD50AE60AF70A808A918AA28AB38AB7
:102DF000C48AD58AE68AF78A881F9A9541F680FBAD
:102E000094F993F9E91BF040EF01EDB7FEB7359661
:102E1000F5D1CDB7DEB7EB81FC81A981BA81ED0197
:102E2000EDD1CDB7DEB7EB81FC81E05DFF4FA9812D
:102E3000BA815896ED01E2D1CDB7DEB7EB81FC81C6
:102E4000DE011596EF01C05DDF4F608C718C828CC6
:102E5000938CA48CB58CC68CD78CE0A0F1A002A179
:102E600013A124A135A146A157A160A571A5088091
:102E700019802A803B804C805D80600C711C821C14
:102E8000931CA41CB51C0E80C01C1F80D11C288460
:102E9000E21C3984F31C4A84041D5B84151D0C84D8
:102EA000201D1D84311D2E84421D3F84531D4888E2
:102EB000641D5988751D991F008011802280338000
:102EC00044805580060C171C281C391C4A1C5B1CAE
:102ED000991F8D91081A008E8D91180A118E8D916F
:102EE000280A228E8D91380A338E8D91480A448E9D
:102EF0008D91580A558E97950680178020843184CD
:102F0000428453840C1C1D1C2E1C3F1C401E511E51
:102F1000991F8D91080A068E8D91180A178E8D9132
:102F2000280A20A28D91380A31A28D91480A42A226
:102F30008D91580A53A2979504841584268437846A
:102F400040885188021E131E241E351E461E571E21
:102F5000991F8D91080A04A28D91180A15A28D91CE
:102F6000280A26A28D91380A37A28D91480A40A6D8
:102F70008D91580A51A69795979502A413A424A45D
:102F800035A446A457A48A89081E0A8A8B89181E6C
:102F90001B8A8C89281E2C8A8D89381E3D8A8E8931
:102FA000481E4E8A8F89581E5F8A991F8289081E83
:102FB0008389181E8489281E8589381E8689481EA3
:102FC0008789581E991F8D91080A02A68D91180AAB
:102FD00013A68D91280A24A68D91380A35A68D91C5
:102FE000480A46A68D91580A57A691FB8D91680A0A
:102FF0008D91780A8D91880A8D91980A8D91A80AF1
:103000008D91B80A8D91C80A8D91D80A8D91E80AE0
:103010008D91F80A8D91080B8D91180B8D91280BCD
:103020008D91380B8D91480B8D91580B8D91680BBC
:103030008D91780B97958827681E781E881E981E9C
:10304000A81EB81EC81ED81EE81EF81E081F181F8E
:10305000281F381F481F581F681F781F9795888D95
:10306000681E6882698C761C79827A8C871C8A82B9
:103070008B8C981C9B829C8CA91CAC82AD8CBA1C3E
:10308000BD82BE8CCB1CCE82CF8CDC1CDF82D8A054
:10309000ED1CE886E9A0FE1CF986FAA00F1D0A8740
:1030A0000BA1101F1B871CA1211F2C872DA1321FD4
:1030B0003D873EA1431F4E874FA1541F5F8758A5F0
:1030C000651F688B69A5761F798B991F991F0A88E0
:1030D0001B882C883D884E885F887D91070A7D91EA
:1030E000170A7D91270A7D91370A7D91470A7D91C4
:1030F000570AAA0BBB0B97957727071E171E271E8B
:10310000371E471E571E97957AA5071E0A8A0BA4DD
:10311000101C1B8A1CA4211C2C8A2DA4321C3D8A45
:103120003EA4431C4E8A4FA4541C5F8A5524991F09
:103130009170A91FB51D90F9A90FB51D8A0F888F31
:103140006B1E698E7B1E7A8E8B1E8B8E9B1E9C8EB9
:10315000AB1EAD8EBB1EBE8ECB1ECF8EDB1ED8A28D
:10316000EB1EE9A2FB1EFAA20B1F0BA31B1F1CA345
:103170002B1F2DA33B1F3EA34B1F4FA35B1F58A725
:103180006B1F69A77B1F0B1E1B1E2B1E3B1E4B1E9E
:103190007AA70BA61CA62DA63EA64FA6CDB7DEB7D6
:1031A000CC5CDF4FCDBFDEBF08952F923F924F9290
:1031B0005F926F927F928F929F92AF92BF92CF92C7
:1031C000DF92EF92FF920F931F93CF93DF93FC0157
:1031D000EB0114D0DF91CF911F910F91FF90EF90F1
:1031E000DF90CF90BF90AF909F908F907F906F9027
:1031F0005F904F903F902F9011240895D7A7C6A7B6
:10320000E880F9800A811B812C813D819927E09E0D
:103210002001E29E3001F39EA001139FB001EF9CBC
:10322000302C410C591EE19E500C611C791EE39E0E
:10323000700C411D591FF29E4001F09E500C611C04
:10324000781C991EF19E600C711C991E039F490DFC
:10325000501D611D791F129F4001019F700C411D7F
:10326000581D991E029F400D511D991E239F690DE7
:10327000701D8827811D330C441C551C661C771C4F
:10328000441F551F661F771F881F991F119F6001DC
:10329000009F5001FF9C4001EE9C0082310C481CB5
:1032A000591C6A1C7B1C4C1D5D1D991F339F4001DE
:1032B000229F9695601D711D881D991D3182428245
:1032C0005382648275828E809F80A884B984CA8468
:1032D000DB84E818F9080A091B092C093D090008D4
:1032E000E024F0240025102520253025E018F008E2
:1032F0000009100920093009AA9C2001999C10019D
:10330000889C400D511D621D731D841D951D50FB31
:10331000979587957795679557959D9C3001BD9CAE
:103320001001442455248B9CE001899C500D611DA3
:103330007C1FD51D8A9C600D711D8D1F951D8D9C58
:10334000E0019A9C700D811D9C1FD51D8C9C800DE9
:10335000911D6D1E751CAC9CE0019B9C800D911D08
:103360006C1E7D1E251C351CAD9CE0019C9C900DA7
:10337000611C7C1E2D1E351CBC9CE001CD9CD00127
:10338000AB9C900D611C7C1E2D1E3A1E4B1E550FD2
:10339000661F771F881F991F661C771C221C331C11
:1033A000441C551C50F9DD9CE001CC9CD001BB9C19
:1033B000600C711C2A1E3B1E4C1E5D1E7F926F927C
:1033C0006624E09ED001E29EE001F39E4001139F3F
:1033D0005001EF9C702CA10DB61DE19EB00DC11DDA
:1033E000D61DE39ED00D811C961CF29E6001F09EBE
:1033F000B00DC11DDC1DD61CF19EC00DD11DD61C0B
:10340000039F8D0C901CA11CB61C129F6001019F94
:10341000D00D811C9C1CD61C029F800C911CD61CBC
:10342000239FAD0CB01CCC24C11CDD24770CAA1F3B
:10343000BB1FCC1FDD1F881C991CAA1CBB1CCC1CED
:10344000DD1CEE9C602C710CDD1CFF9CD794A01D34
:10345000B11DDD1C119F7001009FD794C01DD11DAF
:103460008E1C9F1CDD1C339F7001229FD694A01CD4
:10347000B11CCE1CDF1C0F901F90E080F1800281F8
:10348000138124813581E618F7080A0B1B0B2C0BDE
:103490003D0BA795E40EF51E061F171F281F391FA9
:1034A000401D511D621D731D841D951DAA1F4809D5
:1034B00059096A097B098C099D0966087708A7954F
:1034C000061C171C271C371C471C571CE682F7825A
:1034D00000871187228733874487558766877787D8
:1034E000808B918B028A138A248A358A468A578A6E
:1034F000D7A5C6A5EC84FD840E851F85288939894A
:103500009927E09E1001E29E2001F39EA001139FE7
:10351000B001EF9C702C210C391EE19E300C411C37
:10352000591EE39E500C411D591FF29E4001F09E12
:10353000300C411C581C991EF19E400C511C991EC8
:10354000039F490D501D611D791F129F4001019F6E
:10355000500C411D581D991E029F400D511D991E72
:10356000239F690D701D8827811D770C221C331C39
:10357000441C551C441F551F661F771F881F991F29
:10358000119F6001009F5001FF9C4001EE9C008E46
:10359000710C281C391C4A1C5B1C4C1D5D1D991F9D
:1035A000339F4001229F9695601D711D881D991DB6
:1035B000718E228E338E448E558E8A889B88AC887D
:1035C000BD88CE88DF88E818F9080A091B092C098C
:1035D0003D090008E024F024002510252025302591
:1035E000E018F0080009100920093009AA9C200100
:1035F000999C1001889C400D511D621D731D841DF6
:10360000951D50FB979587957795679557959D9C48
:103610003001BD9C1001442455248B9CE001899C01
:10362000500D611D7C1FD51D8A9C600D711D8D1F65
:10363000951D8D9CE0019A9C700D811D9C1FD51DD0
:103640008C9C800D911D6D1E751CAC9CE0019B9C9B
:10365000800D911D6C1E7D1E251C351CAD9CE0014E
:103660009C9C900D611C7C1E2D1E351CBC9CE00199
:10367000CD9CD001AB9C900D611C7C1E2D1E3A1E72
:103680004B1E550F661F771F881F991F661C771CDE
:10369000221C331C441C551C50F9DD9CE001CC9CC1
:1036A000D001BB9C600C711C2A1E3B1E4C1E5D1E73
:1036B0007F926F926624E09ED001E29EE001F39E2D
:1036C0004001139F5001EF9C702CA10DB61DE19E8F
:1036D000B00DC11DD61DE39ED00D811C961CF29E1F
:1036E0006001F09EB00DC11DDC1DD61CF19EC00D09
:1036F000D11DD61C039F8D0C901CA11CB61C129FC3
:103700006001019FD00D811C9C1CD61C029F800C67
:10371000911CD61C239FAD0CB01CCC24C11CDD24F5
:10372000770CAA1FBB1FCC1FDD1F881C991CAA1C6D
:10373000BB1CCC1CDD1CEE9C602C710CDD1CFF9CAA
:10374000D794A01DB11DDD1C119F7001009FD7945F
:10375000C01DD11D8E1C9F1CDD1C339F7001229F3C
:10376000D694A01CB11CCE1CDF1C0F901F90E08CC7
:10377000F18C028D138D248D358DE618F7080A0B18
:103780001B0B2C0B3D0BA795E40EF51E061F171FF8
:10379000281F391F401D511D621D731D841D951D5D
:1037A000AA1F480959096A097B098C099D096608FD
:1037B0007708A795061C171C271C371C471C571C8D
:1037C00044A355A366A377A380A791A7D7A5C6A5B1
:1037D00002A613A624A635A646A657A6608C718C11
:1037E000828C938CA48CB58CC4846C0CC5847C1C9A
:1037F000C6848C1CC7849C1CC088AC1CC188BC1CA3
:10380000C288EC1CC388FC1CC4880C1DC5881C1D08
:10381000C6882C1DC7883C1DCC24DD24DC1C4D0D26
:103820005C1D6C1D7C1D8C1D9C1D0C1C1C1C2C1CF3
:103830003C1C4C1C5C1CA081A60DA487A181A71D6B
:10384000A587A281A81DA687A381A91DA787A481FA
:10385000AA1DA08BA581AB1DA18BA681AE1DA28B3D
:10386000A781AF1DA38BA085A01FA48BA185A11F3D
:10387000A58BA285A21FA68BA385A31FA78B461D80
:10388000571D681D791D8A1D9B1D0E1C1F1C201EA7
:10389000311E421E531E408F518F628F738F848F53
:1038A000958F068E178E20A231A242A253A2DC1C55
:1038B000DF92EF93FF93E881F9810A811B812C81CC
:1038C0003D812E803F80488459846A847B848C8427
:1038D0009D84AE84BF84C888D9884A895B896C89F5
:1038E0007D898E899F89E819F9090A091B092C0924
:1038F0003D09240A350A460A570A680A790A000867
:10390000E025F02500251025202530252024302411
:103910004024502460247024E019F00900091009A3
:103920002009300920083008400850086008700855
:103930008824E09F5001E29F6001F39FA001139F44
:10394000B001EF9F902CA10CB81CE19FB00CC11CE2
:10395000D81CE39FD00C411D581DF29FC001F09F61
:10396000B00CC11CD81E981DF19FC00CD11C981D15
:10397000039F490F501D611D781D129FC001019FBB
:10398000D00C411D581F981D029F400D511D981DC0
:10399000239F690F701D8827811D9927990CAA1CE8
:1039A000BB1CCC1CDD1C441F551F661F771F881FC6
:1039B000991FEE9F0F92910C9F92991F009F4001BB
:1039C000FF9F9795A01CB11CC81CD91CAF92BF9239
:1039D000CF92DF92991F339F5001229F4001119F88
:1039E0009695401D511D681D791D8A1D9B1DE2196C
:1039F000F30904091509260937090008E025F0250F
:103A00000025102520253025E019F00900091009AE
:103A100020093009449C6001339C5001229C400DD8
:103A2000511D6A1D7B1D8C1D9D1D50FB9795879513
:103A3000779567955795379C7001579C5001CC241A
:103A4000DD24259CE001239C500D611D7C1FDD1DA4
:103A5000249C600D711D8D1F9D1D279CE001349CD1
:103A6000700D811D9C1FDD1D269C800D911DED1E7E
:103A7000FD1C469CE001359C800D911DEC1EFD1E39
:103A8000AD1CBD1C479CE001369C900DE11CFC1E4A
:103A9000AD1EBD1C569CE001679C4001459C900DED
:103AA000E11CFC1EAD1EB81CC91C550F661F771FFC
:103AB000881F991FEE1CFF1CAA1CBB1CCC1CDD1C04
:103AC00050F9779CE001669C4001559CE00CF11C8C
:103AD000A81CB91CCC1EDD1E6624E09FD001E29F0D
:103AE000E001F39F2001139F4001EF9F702CA10D77
:103AF000B61DE19FB00DC11DD61DE39FD00D411C29
:103B0000561CF29F1001F09FB00DC11DD21D361C36
:103B1000F19FC00DD11D361C039F430C501C811C0E
:103B2000961C129F1001019FD00D411C521C361C87
:103B3000029F400C511C361C239F830C901C222496
:103B4000211C3324770CAA1FBB1FCC1FDD1F441C74
:103B5000551C881C991C221C331CEE9F602C710C78
:103B6000331CFF9F3794A01DB11D331C119FF00122
:103B7000009F3794C01DD11D4E1E5F1E331C339F06
:103B8000F001229F3694801C911C2E1E3F1EEDB723
:103B9000FEB706801580048113813F912F91F901B2
:103BA000061817080A0B1B0B2C0B3D0BA795040ED0
:103BB000151E061F171F281F391F4E1D5F1D6A1D6A
:103BC0007B1D8C1D9D1DAA1F440955096809790993
:103BD0008209930966087708A795E61CF71CA71CBD
:103BE000B71CC71CD71C3F902F909F908F90DF91E0
:103BF000CF916C8468186C866D8469086D866E84BC
:103C000062086E866F8463086F8668886E0A688AA9
:103C100069886F0A698A6A8860086A8A6B8861089D
:103C20006B8A6C88600A6C8A6D88610A6D8A6E88FE
:103C3000620A6E8A6F88630A6F8A688C640A688E6B
:103C4000698C650A698E6A8C660A6A8E6B8C670A53
:103C50006B8E6C8C680A6C8E6D8C690A6D8E6E8CA6
:103C60006E086E8E6F8C6F086F8E68A06A0868A2EF
:103C700069A06B0869A26AA06C086AA26BA06D08B3
:103C80006BA2AF91A040BB0BCCA0CA0ECCA2CDA022
:103C9000CB1ECDA2CEA0CB1ECEA2CFA0CB1ECFA23C
:103CA000C8A4CB1EC8A6C9A4CB1EC9A6CAA4CB1E35
:103CB000CAA6CBA4CB1ECBA6CCA4CB1ECCA6CDA48F
:103CC000CB1ECDA6CEA4CB1ECEA6CFA4CB1ECFA6F8
:103CD0000895FC0192818381892B11F40C94DF34C7
:103CE00086EA0895FC0192818381892B11F40C945A
:103CF000563686EA0895FC0162817381762767272C
:103D00007627228127FD03C004960C94D93586EAD4
:103D10000895FC0122813381922F832F228127FF76
:103D20000C94853586EA0895FC0193818281811186
:103D300004C09F3060F4892F06C0803A11F0803BA8
:103D400031F4911104C00E94883180E0089586EA20
:103D50000895FC0122813381922F832F27FF0C9439
:103D6000223686EA0895FC01228121110AC083814E
:103D7000811107C0FB0187819085892B21F081E0AB
:103D8000089586EA089585E90895FC0122812111AC
:103D900006C02381211103C004960C94163786EACD
:103DA0000895FC0183818C3031F4DB0113961D9260
:103DB0001C92149704C0882311F086EA0895848128
:103DC000928181110DC0911106C08381811140C083
:103DD000CB010C9454349330D9F5CB010C9441347D
:103DE000292F2E7F283069F48230A0F180FD32C067
:103DF000349690FF03C0CF010C946834CF010C942B
:103E00006E34943039F48150803120F5CF0104961E
:103E10000C9447348230F1F42581368132272327F0
:103E2000322791110AC08381811104C02115BFE39B
:103E30003B0771F2C9010C945A34913019F4C9014D
:103E40000C944D34923009F0B8CFC9010C94613410
:103E500080E7089587EA08950F931F93CF93DF9328
:103E6000FC012281211113C08381811110C0FB014B
:103E700003811481002369F0EB01602FCF010D96BF
:103E80000E94064811270F83188780E103C086EA45
:103E900001C080EFDF91CF911F910F910895FC0138
:103EA0002281211103C003960C94A93286EA089559
:103EB000FC012281211103C003960C94A73286EAEB
:103EC0000895FC012281211103C003960C94AB32AA
:103ED00086EA0895CF92DF92EF92FF920F931F939D
:103EE000CF93DF93EC017B01B8018881813051F4DD
:103EF000EC85FD85EF2B31F42C873D870A871B87E6
:103F00008A8361C04430510508F4BCC0F701D70171
:103F1000A40FB51F90E0EA17FB0719F01191912744
:103F2000FACF9111AFC0F70192819F3F11F482E85F
:103F3000ACC0C92ED12CF60134964E175F07B9F7E5
:103F4000F701408111814295488B913049F4113C31
:103F500009F055C083819FEF980F9E3F40F70AC03C
:103F600091114DC0103C41F481E1FE0111928A95FE
:103F7000E9F780E28B83C2C0123C19F418821A82DE
:103F8000BDC0912F9C7E9038D1F5912F93709330C6
:103F9000B1F19A81992399F113712C8190E19227C3
:103FA000191311C0882319F28F8590E02A853B856B
:103FB000281B390B2A873B872C853D85820F931F51
:103FC0008C879D871C834B818A859B85242F30E0BD
:103FD0008217930708F4482F4F87F70142831C810B
:103FE000110F110F411102C0188289C0106250E0F8
:103FF0006C857D85C70103960E94BF7E80C0912F8E
:104000009F7909F094CF81113FC0912F9695969595
:1040100090718D81981338C080E198279D839068B6
:10402000F701918312829A81992321F09C8189273B
:104030008C831A828A859B856C197D09681779079C
:1040400018F04E85442331F081E090E08A879B8709
:104050008E870EC0A601B7016D5F7F4F820F931F41
:104060000E94BF7E8A859B85C80ED91ECA86DB86C4
:1040700015FD47C081E088831C861D861E868A85C3
:104080009B8543C081E801C080E8998191113BC0C4
:1040900091E099839F8197FF09C084E0FE013696E5
:1040A000D70101900D928A95E1F705C09D81892B7A
:1040B000F701818312828889F70180836281DE01A2
:1040C000169684E001900D928A95E1F770E0FB016D
:1040D0003396EE0DFF1DD7019B0180E02150310981
:1040E0002C3F9FEF390719F09D918927F7CF8083E7
:1040F0006C5F7F4FC7010E94114705C01062F70136
:1041000011831982D8CF80E090E0DF91CF911F9189
:104110000F91FF90EF90DF90CF900895EF92FF9274
:104120000F931F93CF93DF93CDB7DEB7C250D1402B
:10413000CDBFDEBF62E071E0CE0101960E94314644
:104140007C01892B99F189818F3FB1F48A8181703B
:1041500080931140813051F481E1E0E0F0E4DF012F
:104160001D928A95E9F780E280930340B701CE0162
:1041700001960E9411471AC08091114081110AC016
:10418000A701BE016F5F7F4F80E291E40E94BF7E76
:10419000C7010EC00AE011E020E231E4A701BE0130
:1041A0006F5F7F4F80E090E495DE02C080E090E09A
:1041B000CE5FDE4FCDBFDEBFDF91CF911F910F915C
:1041C000FF90EF9008950F931F93CF93DF93CDB798
:1041D000DEB7C350D140CDBFDEBF8B019C0140E0B4
:1041E00050E0BE016F5F7F4F80E090E473DECD5FF3
:1041F000DE4FCDBFDEBFDF91CF911F910F910895AC
:10420000CC24C39452E0B52E64E0A62E71E6972E1E
:10421000E0E9DE2E83DF0097E9F38430910510F4A6
:10422000C0E75CC130911140311103C08530910568
:10423000B9F7809020417090214120EC721621F056
:10424000109218401092194040EA841205C0E4EE22
:104250007E123FC1812C08C0F0E18F1629F020E8C2
:10426000821639F0811035C14CE1E42E40E0F42E85
:1042700004C020E1E22E20E0F22EF70124912F3F2E
:1042800009F429C131964491741621F0F4E0EF0E3F
:10429000F11CF3CF8430910531F41092244165E094
:1042A000C0E0D0E080C0C0912441CC23D9F1D0E05F
:1042B000311118C024FD76C061E070E081E291E424
:1042C0000E9411478E01B80185E291E40E943146B7
:1042D0000817190709F0A4CFF701849165E085FD5F
:1042E00059C00CC08530910509F45CC09E012B5F5C
:1042F0003F4F8217930729F48E0165E0C0E0D0E0BC
:1043000057C09E012A5F3F4F8217930709F088CF5D
:104310008E01FC01E15EFE4BC081D0E065E020979C
:10432000C9F146C085309105C1F18630910509F487
:1043300077CF0091254110912641102701271027A2
:104340000115110529F4079709F06ACF65E02EC021
:104350008730910531F19801275F3F4F821793070E
:1043600081F4F801E95DFE4BC081D0E0DC2FCC2761
:10437000F801E85DFE4B8081C82B67E02097B1F023
:1043800017C09801295F3F4F8217930709F048CF64
:1043900067E0B4CFC0E0D1E00BC065E0C0E0D1E0A1
:1043A00002C0E80165E000E010E002C0CFEFDFEFFF
:1043B000809117408370C1F0B0921740F0EC7F12EB
:1043C00006C0012B09F089C000E010E049C08091CF
:1043D0001640781282C00115110509F421CF84FC22
:1043E00017C0A092174014C010921C4010921D409C
:1043F0001092174084FE09C00115110509F410CF71
:1044000070921640C092174003C001151105E1F2E9
:1044100080911C4090911D409801280F391F233036
:10442000314008F0FDCE70E0605E7E4BA801825EF8
:104430009F4B0E94BF7E80911C4090911D408093B5
:104440001A4090931B40080F191F00931C401093B3
:104450001D40A8016EE170E485E291E40E94BF7EF8
:10446000F701849187FF03C02097A9F00DC00F3F8B
:10447000110511F008F0D4CE00932441C130F1E0D1
:10448000DF0790F3C0E0D1E083FF07C090911140B7
:10449000913019F4C5CE81FDC3CE0115110519F077
:1044A00082FDBECE02C080FDBBCE009312401093B1
:1044B0001340C0931440D0931540F70132960590F5
:1044C000F491E02D61E170E480E291E40995C82F58
:1044D00005C0C0EE03C0C0ED01C0C3E8E0901440C9
:1044E000F0901540E114F10421F41092184010925C
:1044F000194000911840109119400E94E8478C2FF4
:1045000082958F7080668093224110922341C0373C
:10451000B9F030F4C13031F180F0C031A1F067C0A2
:10452000C03D71F020F4C03B09F061C009C0C03E3D
:1045300039F0C03F09F05BC003C0D092224163C094
:104540001092174060C010921C4010921D400F3F07
:10455000110509F010F40093234180911140882344
:1045600009F451C010921C4010921D40E7010E1535
:104570001F0508F4E801C13021E0D20710F0C0E0C7
:10458000D1E0AE016EE170E482E291E40E94BF7E70
:104590000C1B1D0BDE01AE5DBE4BFE01ED5DFE4B47
:1045A0000115110519F4DC92108210C09C920F3F86
:1045B000110509F010F4008301C01082A801BE01AA
:1045C000625E7F4B8EE190E40E94BF7E00931840B4
:1045D0001093194080911140BE01882319F06E5F3D
:1045E0007F4F13C06D5F7F4F81E291E410C0109246
:1045F00017408C2F807FCF70803311F4C06C01C0C6
:10460000C068C093234162E070E082E291E42091AF
:104610001140211103C00E941147FCCDD4DDFACD19
:10462000E1E1F0E417821086168210820895DC0121
:10463000A60FB71FFC01769567956E0F7F1FE617D3
:10464000F70729F080819E9191938C93F8CF08957C
:10465000FB01E40FF51F480F591F8417950729F038
:104660002291DC012D93CD01F8CF08959C01633296
:1046700029F481E02115314091F410C0623261F4D7
:10468000803C910559F08F778115914039F081E098
:104690002930324021F402C081E0089580E008957D
:1046A00020912B42ACE3B2E4382FFC018E2F831B08
:1046B000821728F48D91908189278193F7CF0895EF
:1046C0000F931F93CF938C01FC01658763E080E01B
:1046D00090E00E949934811102C085E91BC08138A5
:1046E00020F4F8013E96C2E005C091E8F8019687F3
:1046F0003F96C3E0819363E0CF010E949934882301
:1047000061F32C2F30E0A901480F511DF8014783B8
:10471000508780E1CF911F910F910895CF92DF9242
:10472000EF92FF920F931F93CF938C017B01C42FC5
:10473000C42ED12CB601C7017ADF82E0F801808354
:10474000C183F701808187FD03C0C801019606C0BF
:10475000C8010296CF5FF801C1831282A601B7019A
:1047600001960E94BF7E82E08C0FCF911F910F9126
:10477000FF90EF90DF90CF9008950F931F93CF930A
:10478000DF93EC010E942D348C0160E070E0CE01DB
:104790000E946134803161F40E942D34D82FC92FDA
:1047A00060E070E0C8010E943A348D2F9C2F02C057
:1047B0008FEF9FEFDF91CF911F910F910895CF92CF
:1047C000DF92EF92FF920F931F93CF93DF937C01C1
:1047D0006B018AE691E0F7019C0111922150304073
:1047E000E1F7411116C062E080E090E00E94993448
:1047F000EC018934910510F080E063C062E0C701EC
:104800008E5D9E4F0E9499348C01C817D907A1F77D
:1048100002C0042F10E00E948134833271F008310D
:10482000110569F00032110561F00033110559F0EE
:104830000234110509F7C8E607C0C0EB05C0C0E5A2
:1048400003C0C8E501C0C0E6F701E05EFE4FC083CB
:10485000CF73C114D10489F088EDF60111928A95C5
:10486000E9F765E06C0FC6010E949E7E66E06C0F62
:10487000C601885B9F4F0E949E7E61E06C0FC7015E
:104880000E949E7E62E06C0FC701885B9F4F0E9472
:104890009E7E63E06C0FC70180579F4F0E949E7EF3
:1048A00064E06C0FC70188529F4F0E949E7EB80142
:1048B000C7018E5D9E4FBBDE802FF701EF5DFE4F7F
:1048C0000083DF91CF911F910F91FF90EF90DF90C8
:1048D000CF900895CF93DF93EC010E948C34892F01
:1048E00082958F7011F00E94883160E070E0CE01F7
:1048F000DF91CF910C943A344F925F926F927F92F6
:104900008F929F92AF92BF92CF92DF92EF92FF92DF
:104910000F931F93CF93DF93CDB7DEB74C016B019D
:104920005A016DB67EB68DB79EB7805291408DBF4D
:104930009EBF0DB71EB70F5F1F4FEDB7FEB7EA560C
:10494000F140EDBFFEBF895691407C0140E0B801C7
:1049500036DF90E0009711F485E952C08A159B0577
:1049600008F44DC0B501C40162DE98E4A916B10493
:1049700058F448E450E04A195B0960E070E0C40173
:104980008A0D9B1D0E94C87EA701B801C4010E9428
:10499000DF3D8111E1CF80E3F6018587FFEDEF1A5E
:1049A000FEEFFF0AF70140814D3330F081E8F60158
:1049B000868793E0492E02C082E0482E4601FDE042
:1049C0008F0E911CA42CB12C8A0C9B1CB801C40125
:1049D000A5DE582EB801685B7F4FF7014081C40106
:1049E000850D911D9BDE850DF601EA0DFB1D84876B
:1049F000840D90E0F6018783908780E101C080E715
:104A00006DBE7EBEDF91CF911F910F91FF90EF9011
:104A1000DF90CF90BF90AF909F908F907F906F90DE
:104A20005F904F900895BF92CF92DF92EF92FF92E6
:104A30000F931F93CF93DF93EC017B016A01B22E9A
:104A4000BC01C701F4DDC038D10558F440E051E0A5
:104A50004C1B5D0B60E070E0C7018C0F9D1F0E9436
:104A6000C87E63E880E090E00E9499348C01000FDA
:104A7000111FB11006C0C017D10709F048C0E801E6
:104A80002FC021E0B2124BC0649709F040C061E72B
:104A9000E7016496CE010E949E7E6FE070E0CE0139
:104AA000C6DDC3E2D0E0CE010B960817190778F1F6
:104AB000F701EC0FFD1F10822196F701EC0FFD1F8F
:104AC0008FEFC017D10718F421968193FACFC70151
:104AD000800F911FFC0131971082319721E02083D4
:104AE000AE0156954795B601C7010E94C043882381
:104AF00089F080E091E0F7019C0111922150304053
:104B0000E1F7F6019C01119221503040E1F780E07D
:104B100090E009C0B801C6018ADDC80104C032E0D6
:104B2000B312F5CFC0CFDF91CF911F910F91FF90BE
:104B3000EF90DF90CF90BF9008952F923F924F92C9
:104B40005F926F927F928F929F92AF92BF92CF921D
:104B5000DF92EF92FF920F931F93CF93DF93CDB726
:104B6000DEB7A297CDBFDEBF6C01562E3C0121EF10
:104B7000621A2EEF720AFC01E180F2808681823097
:104B800048F440912B4250E06CE272E48CE392E4F2
:104B90000E94BF7E80915042F301908194FD03C03A
:104BA0008078282E01C0212C60EAC3010E9499342C
:104BB000482E811102C085E9A5C00E9481348AA3D4
:104BC0008931E1F4552019F0F3E0F9A301C019A2ED
:104BD00020E142120CC088E0F601E15EFE4FD301F5
:104BE00001900D928A95E1F78CE089A315C0E8E168
:104BF0004E1681F0F8E04F1282C00EC02AA1293271
:104C000009F07DC080E2841508F479C019A290E112
:104C1000392E04C0ECE0E9A388E0382E8601035F5A
:104C20001F4F8FEF830D8E21511016C02220A1F04F
:104C3000632D681B70E05701A60EB71EF3E0AF1698
:104C4000F1E0BF0608F05DC0AB01C8018E0D9F1DED
:104C50000E94C87E750102C0811153C04701A32C78
:104C6000B12C8114910471F1511003C0C80118DDF9
:104C700006C0A501B801CE0101960E94BF7E2AA1FF
:104C8000293239F4252D442DB301C8010E94710643
:104C900005C049A1B301C8010E947404511003C0AA
:104CA000A501B80106C0C801FBDCA501BE016F5F0C
:104CB0007F4F8CE392E40E94BF7E8A189B080A0D06
:104CC0001B1DCFCF5520B1F02220A1F0F801319764
:104CD0008081882309F46FCF381608F46CCF982FA1
:104CE000E1E0EE1AF108F80122918F01821363CFFF
:104CF0009150B1F7F601E782F08680E103C081E9C7
:104D000001C080E7A296CDBFDEBFDF91CF911F919A
:104D10000F91FF90EF90DF90CF90BF90AF909F905A
:104D20008F907F906F905F904F903F902F9008955D
:104D3000AF92BF92CF92DF92EF92FF920F931F93A9
:104D4000CF93DF93CDB7DEB7C254D240CDBFDEBF25
:104D5000182F7B015A0140E0BE0165597E4FCE01FC
:104D600001962DDD082F882309F43FC0C82ED12CD1
:104D70001338C1F048F4113881F0123869F5A601F2
:104D8000BE016F567F4F25C0143889F0153821F5C4
:104D9000A601BE01675B7F4F1CC0A601BE016F5F0D
:104DA0007F4F17C0A601BE0167527F4F12C0A601F8
:104DB000BE016D547E4FC7010E94BF7EA601BE0199
:104DC00065597E4FC7018C0D9D1D0E94BF7E000F4F
:104DD00003C0C7010E94BF7E10E0B801C70127DCF5
:104DE000F5010083118380E101C088EACE5BDD4FCD
:104DF000CDBFDEBFDF91CF911F910F91FF90EF905C
:104E0000DF90CF90BF90AF900895FF920F931F93C4
:104E1000CF93DF93CDB7DEB7C258D109CDBFDEBF88
:104E20008C01F62E0E940435811128C028E0F29EE4
:104E3000C00111240E94D945F82EF80180818062BA
:104E400089838F2D86958A830E5F1F4FB801CE010F
:104E500003960E94377CCE0101960E940435811191
:104E60000DC0898180638983FA82B801CE010396DF
:104E70000E94C43FCE0101960E940435CE57DF4FF9
:104E8000CDBFDEBFDF91CF911F910F91FF900895AD
:104E90005F926F927F928F929F92AF92BF92CF92CA
:104EA000DF92EF92FF920F931F93CF93DF93CDB7D3
:104EB000DEB7D250CDBFDEBFFC0184818823C9F0AC
:104EC000873049F58581803331F58781813811F04C
:104ED000823009F586818530F1F480858330D9F4FC
:104EE00081858130C1F48285811115C0838581302F
:104EF00091F43B018F010E9474347C01811523E001
:104F0000920769F09170892B41F4C701925081306A
:104F1000964028F002C084E97AC081E978C00E94F6
:104F2000E1474301FDE08F0E911C580124E0A20EE1
:104F3000B11C9701AE014F5F5F4FB401C5010E94E4
:104F40002F45582EE82EF12CE114F10409F45EC02F
:104F500083ECF801828353826801F2E0CF0ED11C0A
:104F6000652DC60152DF811152C024ECC8018E5755
:104F70009F4FFC01208331965082652D46DF8111C1
:104F800046C0A701BE016F5F7F4FC5010E94BF7E73
:104F900085ECF8018283C6010E940435811137C077
:104FA000A701BE016F577F4FC5010E94BF7E86ECEF
:104FB000F8018283C6010E940435811128C0A7012F
:104FC000BE016F5F7E4FC5010E94BF7E87ECF80176
:104FD0008283C6010E940435811119C081E8F8015D
:104FE000828383E0838381E0848315828683C60184
:104FF0000E94043581110BC0EE0CFF1CB701C401E7
:1050000016DBF301E782F08680E101C082EADE5F11
:10501000CDBFDEBFDF91CF911F910F91FF90EF9039
:10502000DF90CF90BF90AF909F908F907F906F90C8
:105030005F900895FF920F931F93CF93DF938C019E
:10504000F62E80E8F80111928A95E9F780E090E069
:105050000E949934EC018138910530F46F2DC8011C
:105060000E9499348C2F01C080E0DF91CF911F9175
:105070000F91FF900895FF920F931F93CF93DF93AB
:10508000FC0110922A42892B09F476C08281833F69
:1050900039F48481811172C0838181116FC0A7C0EE
:1050A000813831F48381883B09F06AC0C4E00EC0C6
:1050B000813409F071C0C381C63B21F0C83B11F0B7
:1050C000C43A19F4C695C37001C0C0E08481359616
:1050D0002FEF280F882309F449C090813FEF390F43
:1050E0003E3F18F03196822FF3CF3EEFF32EF80EAD
:1050F0002223E1F18F010E5F1F4FD181D13108F0E2
:1051000041C0FD1608F43EC08281D230D9F422811C
:105110003381322723273227953808F04AC0933845
:1051200008F054C09038C1F19138D1F5C90125DBA0
:1051300080934E4290934F42019611F488EA57C0F3
:10514000C0610EC09538A8F5933808F04AC0903871
:1051500029F5D13009F58A30B9F480935042C06204
:105160002F2D2D1BF801ED0FF11DBDCF8C2F80735E
:10517000803391F4C0932A4280E039C087EA37C077
:1051800085E935C084E933C08B3060F4823029F37F
:10519000843019F3882309F381EA29C09138E1F3B7
:1051A00080EA25C08038C9F28A38B9F28231A1F785
:1051B000D4CF9738A9F7D0932B424D2F50E0B801A8
:1051C0008CE292E40E94BF7EC064CACFC901D5DAE6
:1051D00080934C4290934D42019609F4AFCFC06842
:1051E000BFCFD130C9F6882309F4BACFD5CFDF912C
:1051F000CF911F910F91FF9008952F923F924F9260
:105200005F926F927F928F929F92AF92BF92CF9256
:10521000DF92EF92FF920F931F93CF93DF93CDB75F
:10522000DEB78C017B012DB63EB68DB79EB78A5690
:1052300091408DBF9EBFADB7BEB711963D01EDB792
:10524000FEB7E85DF109EDBFFEBF875D91095C0126
:1052500088EDD5011D928A95E9F7F80182818111C7
:10526000B1C083818111AEC080912A4287708230A3
:1052700011F085E9A8C04481433010F484E9A3C04B
:105280004B01BDE08B0E911C50E0B8016B5F7F4F6E
:10529000C4010E94BF7EF70185858C3779F7D8015C
:1052A00014968C91568457FC04C08701015F1F4FF0
:1052B00009C0B1E85B12E2CF81508701005F1F4F48
:1052C000F7015784252D30E090E002972817390721
:1052D000A9F6E1E0E51568F5D8012C9111968C91BD
:1052E00087FD03C0F801329608C05A94813831F620
:1052F000F8013396D80112968C919EEF950D981770
:1053000008F4BCCF253861F42081243009F0B6CFF1
:105310008913B4CF8F010F5F1F4FBDEF5B0E09C024
:10532000203809F0ABCF8F01080F111D592E581AE4
:10533000D0CF40E060E070E0C30141DA882309F497
:1053400098CFC82ED12C9601220F331F852D90E0C7
:105350002817390709F092CF2301FFED4F1AFEEF0E
:105360005F0AD2014C9150E0B801C50171D9F20138
:10537000408150E0B8016C0D7D1DC501885B9F4FD9
:1053800067D90E942D348C0160E070E080914E421C
:1053900090914F420E943A340E94E147B301C50107
:1053A0000E941C3D782EC80195DA711062CFA601CB
:1053B000B501C4014DD9D7011796CD92DC9218974B
:1053C00080E101C086EA2DBE3EBEDF91CF911F91E4
:1053D0000F91FF90EF90DF90CF90BF90AF909F9094
:1053E0008F907F906F905F904F903F902F90089597
:1053F000AF92BF92CF92DF92EF92FF920F931F93E3
:10540000CF93DF93FC01028113810E3919F41A390D
:1054100019F409C0043841F01D7F143809F06EC139
:10542000102F00E001C010E8812F8F7709F066C1CE
:10543000EB010E942D347C0160E070E080914E42CF
:1054400090914F420E943A34043809F43CC00E391E
:1054500019F0011157C16FC080912A4287738333BD
:1054600009F045C109811A810115110511F410E7F0
:1054700041C18E81837009F043C10E94E147809150
:105480005042843039F4A801BE01CE018C5E9E4F9B
:1054900033DA2FC0823031F0823131F0811127C1EF
:1054A00020E003C022E001C021E0AE01435F5F4F76
:1054B000BE016C5E7E4FC801B6DA009709F417C1D1
:1054C0008F83988716C10E942D348C0180912A42C7
:1054D000982F9773943309F00AC129813A81232BBD
:1054E00051F060E070E0C8010E943A3460E0CE0103
:1054F00024DB182FFFC087FFBACF60E070E08091F7
:105500004C4290914D420E943A340E948C3483FF69
:10551000EEC00E948134893119F0893209F0E7C068
:1055200060EACE010D960E94993489839A83892B73
:1055300009F4DDC0D6CF111102C01B821C828091FC
:105540002A428473843309F4D2C089819A81892BD9
:1055500009F48DCF0E948134893111F0893279F4B8
:10556000FE01EE5EFE4F8081843809F0CBC061E021
:10557000CE01E3DA182F803109F47EC0BBC081313F
:1055800009F0B5C08E81837009F0BAC009811A8113
:105590006E018CEEC81A8EEFD80AFE01EE5EFE4F49
:1055A0008081F601863869F56E018BEEC81A8EEFA0
:1055B000D80A8081813809F569857A856115710578
:1055C000A9F0CB0101978C0D9D1DFC012081223893
:1055D00009F098C001501109A801461B570B6C0F28
:1055E0007D1F625F7F4F0E94BF7E09C082E08E8375
:1055F0008AE28D830B871C8783C0811185C001508F
:1056000011090E94E1475E01FDE0AF0EB11C20E0F0
:10561000A501B601C80107DA8C01892B09F467C01E
:105620008091504281FF26C08D85811160C08E859A
:10563000823009F05CC00C30110508F458C00350EA
:105640001109CE010F96FC010196208121110EC097
:10565000CE014796E817F90708F449C0BF016F5F0C
:105660007F4FA801C5010E94BF7E04C001501109EF
:1056700051F73DC00F83188780912A4287FF39C0B8
:105680008E818370B1F560E070E080914C42909122
:105690004D420E943A340E948134182F813421F007
:1056A000893111F0893219F5CF80D8848EEFC81670
:1056B000D104E8F4BE01635F7F4FA601CE018C5E8A
:1056C0009E4F0E94BF7ECE018E5E9E4F20EAFC015F
:1056D0002083CD5EDE4FC882113431F460E070E08B
:1056E000CE010E94D93505C00E94043502C015E9DB
:1056F00001C010E1C701EED8812F08C086EA06C0BC
:1057000010E0F8CF16EAF6CF14E9F4CFDF91CF918D
:105710001F910F91FF90EF90DF90CF90BF90AF90CF
:1057200008958F929F92AF92BF92CF92DF92EF92A5
:10573000FF920F931F93CF93DF93CDB7DEB77C011A
:105740008B01CDB6DEB6FC018281811183C08381DD
:10575000811180C00E948134982EF1E18F1304C022
:10576000B801C70195DB77C0F7018481882311F068
:1057700085E971C08DB79EB78A5691408DBF9EBF97
:10578000EDB7FEB731967F010E9474345C01692D3C
:105790000E9436238111ECCF0E94E1474801FDE0D1
:1057A0008F0E911CA501495F5F4F83E05695479589
:1057B0008A95E1F7B401C70102D88823C9F2B7017D
:1057C000C4010E948F3D8111D3CF57018FEDA81ADC
:1057D0008EEFB80AF501608170E0C7018E5D9E4FC3
:1057E0000E941723F501408150E0B4014801F8EE12
:1057F0008F0E911CC4010E942823F501808190E046
:10580000AC01B8016B5A7F4F880D991D0E94282367
:10581000C701805E9E4F22E4FC012083F501F080E9
:105820000E940435811117C0FF0C23E4C8018B517D
:105830009F4FFC0120833196F394F08224E031964F
:1058400020830E940435811106C066E8C8010E94C9
:10585000602301C086EACDBEDEBEDF91CF911F91ED
:105860000F91FF90EF90DF90CF90BF90AF909F90FF
:105870008F900895EF92FF920F931F93CF93DF9332
:10588000FC012281213009F09CC0FC018381982F0A
:10589000907B903B41F48F70DF91CF911F910F91DE
:1058A000FF90EF90A6C57B01FDE0EF0EF11C9FE796
:1058B000980F953058F4AB01495F5F4FB701DF9106
:1058C000CF911F910F91FF90EF9032CAEB01803A78
:1058D00061F1A0F4813009F45AC0C8F1823009F4B2
:1058E00068C0863809F06DC060E3CE01DF91CF91CA
:1058F0001F910F91FF90EF900C9460238A3A01F171
:1059000058F4873A08F05DC0DF91CF911F910F9155
:10591000FF90EF900C94B2388C3A09F052C01BD52E
:105920009D878E8782E090E049C061E0C7010E94B8
:105930009E7ECE0145960E946D0384E190E03EC0BC
:1059400062E0C7010E949E7E8BE090E037C082E952
:105950008D871E8661E880E090E0EBD7009789F1A3
:1059600033E0880F991F3A95E1F79F87888B63E8AA
:1059700080E090E0DED7009721F124E0880F991FA6
:105980002A95E1F7998B8A8B86E090E017C0C701D2
:105990000E948143082F10E00115110591F0000FBE
:1059A000111FB801C7010E9417230F83188780E1D8
:1059B00009C061E8C701BDD7009719F08F839887A8
:1059C000F6CF88EADF91CF911F910F91FF90EF9072
:1059D0000895FF920F931F93CF93DF93EC018A8179
:1059E000813011F086EAC4C08B81803E51F40E9460
:1059F000E147CE010496DF91CF911F910F91FF9067
:105A0000ABC69FEF980F9E3070F48C81805180322E
:105A100010F080E7ADC0CE010396DF91CF911F91CA
:105A20000F91FF9003C690E8980F9C3018F0803AD1
:105A300009F06EC059D78C01892B09F46BC061D76E
:105A4000F82E29E1821309C0C8018F7780349105AF
:105A5000A1F100381105E9F630C089E2F81209C059
:105A6000C8018F7B8038910541F10115114089F6FD
:105A700024C06F2DC8010E943623811121C0095F07
:105A80001F4F83E0169507958A95E1F7802F9B813C
:105A9000973819F492E09B830BC0963809F0A2CF97
:105AA00083E08B838D81843059F5000F81E0800F76
:105AB0009C819813AECF0E94E147CE01039622C08D
:105AC00081E1F81229C0011523E0120749F0C8014D
:105AD0009170892B09F5C801925081309640E0F40D
