:1000000073C000007BC0000079C0000077C0000012
:1000100075C0000073C0000071C000006FC0000018
:100020006DC000006BC0000069C0000067C0000028
:1000300065C0000063C0000061C000005FC0000038
:100040005DC000005BC0000002C2000057C000009D
:1000500055C0000053C0000051C000004FC0000058
:100060004DC000004BC0000049C0000047C0000068
:1000700045C00000AFC1000041C000003FC000000B
:100080003DC000003BC0000039C00000A12AE31CB5
:1000900008DAD61DFF000000040EB41D0820291E3A
:1000A0000822B11D09241F1EA12AE31C092C151EBC
:1000B0000C2E9B1D0844971D2046911D1684F01D93
:1000C00021868C1D20A4211D16B0101D16C0BF1D39
:1000D00016CA0A1D09D6F91C89DAF31C09E0E21DCB
:1000E00008E4E91CFF00000011241FBECFEFD0E19F
:1000F000DEBFCDBF0E948D450C94027B81CF7091F5
:100100006F00739511F4F89408957360F8947093E8
:100110006F00000000000000000000000000000070
:100120000000EFCFF89440E048BB47BBE8DF089BF6
:10013000FECF5FEF59B950E05AB950E95AB95FE0C4
:1001400015D043E751E05387428740E140937C005C
:1001500040917C004071E1F340937C0061D04EE11E
:1001600050E0509387004093860008954427ECE7C1
:10017000F0E047875687458744870895E0E058E0D8
:1001800070917C007071E1F3B99A70937C0047958F
:1001900048F470917C007071E1F3B99870937C0021
:1001A000E39507C070917C007071E1F3B99A709388
:1001B0007C005A9561F7E79540F070917C00707172
:1001C000E1F3B99A70937C0007C070917C00707164
:1001D000E1F3B99870937C00EE27FF27CF0170916F
:1001E0007C007071E1F3B99870937C0042E0B19BA0
:1001F000019631968AF070917C007071C1F3709312
:100200007C004A95A1F7F695EE1FF695EE1FE81BC8
:10021000F90BE8F0882708958FEF089581E008959D
:10022000CF93DF93EB016BDF789470917C0070715A
:10023000E1F370937C00DC014C91A0DF813039F058
:100240009FEF8F3F81F01196219759F0F5CF42E053
:1002500070917C007071E1F370937C004A95C1F756
:10026000EBCF88279927DF91CF910895772309F065
:100270006FEFDC0144DF78942FE030E080E0F1E0C4
:1002800044E00894B19B4150411D4730D9F7B199E2
:10029000FECF30938900209388004A954730B9F308
:1002A000B19B4150411D4330C9F770E170937C0010
:1002B0005AE0E1E04730B19B4150411D70917C0014
:1002C0007071C1F370937C004430E11D4430979508
:1002D0005A9581F7991F9095E17081F4FF2349F0B9
:1002E00070917C007071E1F3B99870937C00FA957D
:1002F00011C06627882770937C0007C070917C002E
:100300007071E1F370937C00F1E0662319F09D9326
:100310006A95839570917C007071E1F370937C0015
:10032000B19A70917C007071E1F370937C0044E0AD
:100330000894B19B4150411D4730D9F79CE0B199D9
:100340000DC030938900209388004A954730B9F357
:10035000B19B4150411D4330C9F7A7CF70917C003C
:10036000707169F370937C009A9549F77091A803B6
:10037000739541F47093A803A81BB050FD017D91C3
:100380007F3F11F099270895841594E000F122270A
:1003900033274C914F714031D1F44D915D915831DB
:1003A000B1F445FF04C093952D91223081F446FFAE
:1003B00002C093953D91891751F49D91452742279D
:1003C000432749274F3F19F4682FCF0129DF88279A
:1003D000992708950F920FB64F934091A803439524
:1003E0004093A8034033E9F45F937F938F939F93E7
:1003F000EF93FF9384DE5FE0B9DE40E1408340E6A7
:10040000BDDE40E1408340E6882309F0B7DE57E0D7
:10041000ADDE4093A803FF91EF919F918F917F9163
:100420005F914F910FBE0F901895F89457E09EDEA4
:100430004093A80344E04083418378940895F8945E
:100440005FE094DE418344E04083789408950C9407
:100450000000444945734F8010020018F53BE2E567
:10046000F4E07CE0672F8DB79EB745914F937A9566
:10047000D1F758DE8FEF8093A8038DB79EB70C9607
:10048000F8948DBF78949EBF0895F89420916F00E2
:10049000253B60F0245020936F0000000000000016
:1004A00000000000000000000000F2CF0895E89472
:1004B00001C06894FC01DB01B860842F4A95640F89
:1004C000711DB8F07C7FA9F4BFBBAEBBE09A11965A
:1004D0003DB316F031930AC00190031639F0D5DF11
:1004E0000DBAE29AE19AE199FECF7894815061F7D2
:1004F000089581E008950E94F4FFDC01FB0151E0C2
:100500005BBF07900D924A95E1F788270895FC019B
:10051000379687E062917181982F679577959A95C4
:10052000E1F771838A95B1F708959C9169276D93DE
:1005300095F060E8C5919C2FCF70788194FD7295FD
:1005400096FF771F96FF771F95FF771F771F679599
:1005500088F7815052F7089590FF00D001FC0CC03D
:1005600043FA111C10F877FA221C331C441C551C4A
:10057000661C771C44F8089544FA779477F810FACB
:1005800067945794479437942794179443F80895A1
:100590002F923F924F925F926F927F928F929F9293
:1005A000AF92BF92CF92DF92EF92FF920F931F9381
:1005B000CF93DF93042EFB01DC014F3009F47096DA
:1005C000AF93BF93DD27CCE08A2F18961E90111CA5
:1005D000441F111C551F1C92A817C1F75C83499337
:1005E000C03199F7B8E09191C1E08881991F879552
:1005F0008993C830D1F7BA95B1F7EF93FF933124BF
:1006000013243124429401FCABDF81E893E0A4DFA2
:100610008F939F931F922F923F924F925F926F9270
:100620007F92EEEDF6E086E2A1E083DFEF92FF92AB
:1006300043E089E860E27EDF7F01642BE6E6F7E0D5
:10064000E60FFB1F80FF06C0507FC591CF70C52B02
:10065000CD934A955591F7016AF7A80179013F9129
:100660002F9186016A0183E264DF7F906F905F9033
:100670004F903F902F901F909F918F9186959795C7
:1006800031F6FF91EF9100FC7097BF91AF9188E038
:10069000CCE09C8197959C83661F98819795999350
:1006A000661FC031B1F76D938A9591F7189786E070
:1006B000081A08F085CFDF91CF911F910F91FF901D
:1006C000EF90DF90CF90BF90AF909F908F907F90F2
:1006D0006F905F904F903F902F90112408952C1CA5
:1006E0008C1C3D6D8C6C0D5C1F1D4D4C6D8C7D7D8F
:1006F0003C7C2D0C6E0C7C5D0D8C2F7E8C7F6E5E99
:100700005F6F6F0E0F3E1E8C7F1D7E4F8C2E3F8CB9
:100710000F1E6C4E0E1F63112261735271533214FF
:1007200042235403022113317201343343122566EC
:100730002715247677653506054757042675641610
:100740006717555607456A0B097B7A0A3819493BE2
:100750004A784B3A396869282B1B591A18486B0894
:10076000295A585B792A4D2CA7EFB2C10D41284A6E
:100770009ED8E41FE31EF67960260FA236FB8BB6E7
:10078000F9B3D1685A843A801139C95DD2A793333D
:10079000C8627EF475CD55DEBB5CA0074C906CE55D
:1007A0002405179B8F7AD1EADD030FBF78FDBD24A6
:1007B0000B7478C295474A4736EF937C4F2217D97E
:1007C00060D8A415A31EEC5624AC3501876056FDF5
:1007D00052C1CBAEECBA2030C196FE9BBA59898388
:1007E000FE3B626819851749DA404B2E661EB41F1E
:1007F00049E7D1B5908BC9A28CDA3CD8FB647E7CEA
:10080000372DE2830DB1A0F7BFF5F69011C86AC489
:10081000239C8D5ACE760F615539533DA2A3950B7B
:10082000E85228E6740F62B413FDB183AFC8DEC28C
:10083000D08A877C062114196A434AE5919FA82F24
:100840008D147DDA78729F6B495B5CFEF4B609010A
:10085000E537F0973BECE3A6BCA02540570536589A
:10086000226ECB3DCED9BF01F801E80FF11D80818A
:10087000FB01089540E18881F6DF89934150D9F763
:100880006097089540E18881EEDF89934150D9F760
:10089000F7CF89819D81998399859D839D859987CE
:1008A0008D878B819F859B839B859F879F819B875E
:1008B0008F8310C089819D85998399859D879D81AE
:1008C00099878D838B819F819B839B859F839F8548
:1008D0009B878F878A819A859A838A878E859E8156
:1008E0009E878E83089524E09BE118D0BA2F1FD0F5
:1008F000E1F7C6CF24E09BE111D0AF938A2F32D02D
:10090000B82F842786272DD0A827B527B7278B2F68
:1009100028D0BF91B8270BD079F7B2CF4881598141
:100920006A817B81A72FA627A527A4270895842F56
:10093000852718D08A2784278993852F862712D068
:100940008B2785278993862F87270CD08A27862790
:100950008993842F872706D08B27872789932A9509
:10096000089500D0880F08F489270895B09740E1D2
:1009700081919881982799934A95D1F781CF00D09A
:1009800000D0550F511D8527089520FB0F931F930D
:10099000CF93DF93EC01FEB7F350FEBFEDB7319676
:1009A0009F018F011395002481E09BE18193D80181
:1009B000A80FB11D0C92582FD5DF85270394B1F7EE
:1009C000882793E6582FDBDF8927D901BE5FA80F60
:1009D000B11D0C92819380818095D901A80FB11D22
:1009E0008C91039479F7F901242FDB01BF010D905D
:1009F00001924A95E1F731E0022EDB0134978181C3
:100A000032DF9D9198279327948382812CDF9D91DB
:100A100098279583838127DF9D91982796838081EE
:100A200022DF9D919827978334967CE023FD74E123
:100A30008D919191982793837A95D1F725FF0AC0DC
:100A400040E181914D3008F00EDF9D91982793830E
:100A50004A95B9F74BE1330F08F43427020E19F029
:100A6000402D4F3E60F2F801FA95422F469546958B
:100A70004B5F342F56F07BDFFDDE0BDF315018F07B
:100A800032DF75DFF9CF73DF0FC01395432F4D5F52
:100A900070964A95E9F76ADF0DDFF4DE315018F001
:100AA00065DF28DFF9CF62DFFEB7FD5FFEBFDF91B4
:100AB000CF911F910F9108952F923F924F925F9285
:100AC0006F927F928F929F92AF92BF92CF92DF925E
:100AD000EF92FF920F931F93CF93DF93ADB7BEB703
:100AE000A458B109F894ADBF7894BEBF11966D9328
:100AF0007D938D939D93FC01EB0198E0881B0990F9
:100B0000199029903990499059906990799088ACC2
:100B100099ACAAACBBACCCACDDACEEACFFAC80010C
:100B20009101A201B30108080192190811922A0843
:100B300021923B0831924C0841925D0851926E0817
:100B400061927F0871928795800A80AE910A91AE7A
:100B5000A20AA2AEB30AB3AEC40AC4AED50AD5AED9
:100B6000E60AE6AEF70AF7AE881F9A9541F680FBD3
:100B700096F9E91BF040BF01FD01B6D1CDB7DEB754
:100B8000EB81FC8169817A81AFD1CDB7DEB7EB8192
:100B9000FC81E058FF4F69817A81605C7F4FA4D16E
:100BA000CDB7DEB7EB81FC81DE011596EF01C058B1
:100BB000DF4F7E2F705C991B81909190A190B19036
:100BC000C190D190E190F19000AC8881081E11ACE9
:100BD0008981181E22AC8A81281E33AC8B81381E75
:100BE00044AC8C81481E55AC8D81581E66AC8E81FC
:100BF000681E77AC8F81781E0992199229923992DA
:100C00004992599269927992991F081C191C2A1CC1
:100C10003B1C4C1C5D1C6E1C7F1C991F8D91080A8F
:100C200000AE8D91180A11AE8D91280A22AE8D91D9
:100C3000380A33AE8D91480A44AE8D91580A55AEAC
:100C40008D91680A66AE8D91780A77AE97959795E3
:100C50007E13B2CF979597FBE05CFF4F991F78E02A
:100C600000808990081C11809990191C2280A990FD
:100C70002A1C3380B9903B1C4480C9904C1C558081
:100C8000D9905D1C6680E9906E1C7780F9907F1C7E
:100C9000991F8827081E181E281E381E481E581E19
:100CA000681E781E991F8D91080A01928D91180A6D
:100CB00011928D91280A21928D91380A31928D914D
:100CC000480A41928D91580A51928D91680A619219
:100CD0008D91780A7192979597957A9509F6991F53
:100CE000991F000B110B1124882780F9080F111D83
:100CF00097959170091F111D8081800F81938081CC
:100D0000811F81938081811F81938081811F8193C5
:100D10008081811F81938081811F81938081811FC8
:100D200081938081811F81938081811F8193808144
:100D3000811F81938081811F81938081811F819395
:100D40008081811F81938081811F81938081811F98
:100D500081938081811F81938081811F8193808114
:100D6000811F81938081811F81938081811F819365
:100D70008081811F81938081811F81938081811F68
:100D800081938081811F81938081811F81938081E4
:100D9000811F81938081811F81938081811F819335
:100DA0008081811F81938081811F81938081811F38
:100DB00081938081811F81938081811F81938081B4
:100DC000811F81938081811F81938081811F819305
:100DD0008081811F81938081811F81938081811F08
:100DE00081938081811F81938081811F8193808184
:100DF000811F81938081811F81938081811F8193D5
:100E00008081811F81938081811F81938081811FD7
:100E100081938081811F81938081811F8193808153
:100E2000811F81938081811F81938081811F8193A4
:100E30008081811F81938081811F81938081811FA7
:100E400081938081811F8193811E8192911E919255
:100E5000A11EA192B11EB192C11EC192D11ED1920A
:100E6000E11EE192F11EF1921197F894ADBF7894D2
:100E7000BEBFDF91CF911F910F91FF90EF90DF9058
:100E8000CF90BF90AF909F908F907F906F905F902A
:100E90004F903F902F9008952F923F924F925F92E4
:100EA0006F927F928F929F92AF92BF92CF92DF927A
:100EB000EF92FF920F931F93CF93DF93FC0114D017
:100EC000DF91CF911F910F91FF90EF90DF90CF9026
:100ED000BF90AF909F908F907F906F905F904F905A
:100EE0003F902F9011240895CDB7DEB7C454D04061
:100EF000F894CDBF7894DEBF69837A83EB83FC835B
:100F0000EB0194E0881B0990199029903990499041
:100F1000599069907990888C998CAA8CBB8CCC8CD8
:100F2000DD8CEE8CFF8C80019101A201B3010808D9
:100F300019082A083B084C085D086E087F080192D2
:100F400011922192319241925192619271928795C0
:100F5000800A910AA20AB30AC40AD50AE60AF70A65
:100F6000808E918EA28EB38EC48ED58EE68EF78E35
:100F7000881F9A9541F680FB95F9E91BF040EF0137
:100F8000EDB7FEB7359697D2CDB7DEB7EB81FC81D2
:100F9000A981BA81ED018FD2CDB7DEB7EB81FC819B
:100FA000E05CFF4FA981BA819096ED0184D2EDB744
:100FB000FEB7DF011596C381D481FE01E05CFF4FCF
:100FC00088A099A0AAA0BBA0CCA0DDA0EEA0FFA005
:100FD00008A519A52AA53BA54CA55DA56EA57FA5CD
:100FE0000080118022803380448055806680778025
:100FF000800C911CA21CB31CC41CD51CE61CF71C45
:1010000000841184228433844484558466847784E4
:10101000001D111D221D331D441D551D661D771D0C
:10102000991F088019802A803B804C805D806E80EB
:101030007F80080C191C2A1C3B1C4C1C5D1C6E1C60
:101040007F1C991F8D91081A08A28D91180A19A268
:101050008D91280A2AA28D91380A3BA28D91480AC7
:101060004CA28D91580A5DA28D91680A6EA28D9155
:10107000780A7FA29795088419842A843B844C843B
:101080005D846E847F84001E111E221E331E441E4A
:10109000551E661E771E991F8D91080A08A68D9110
:1010A000180A19A68D91280A2AA68D91380A3BA6FE
:1010B0008D91480A4CA68D91580A5DA68D91680ABB
:1010C0006EA68D91780A7FA69795979508A819A87E
:1010D0002AA83BA84CA85DA86EA87FA88089081EF6
:1010E000008A8189181E118A8289281E228A838992
:1010F000381E338A8489481E448A8589581E558A39
:101100008689681E668A8789781E778A991F8889EA
:10111000081E8989181E8A89281E8B89381E8C8989
:10112000481E8D89581E8E89681E8F89781E991FCA
:101130008D91080A08AA8D91180A19AA8D91280A7A
:101140002AAA8D91380A3BAA8D91480A4CAA8D9102
:10115000580A5DAA8D91680A6EAA8D91780A7FAAB5
:101160009795979508AC19AC2AAC3BAC4CAC5DACF0
:101170006EAC7FAC808D081E008E818D181E118E86
:10118000828D281E228E838D381E338E848D481EBC
:10119000448E858D581E558E868D681E668E878D71
:1011A000781E778E991F888D081E898D181E8A8D4E
:1011B000281E8B8D381E8C8D481E8D8D581E8E8D51
:1011C000681E8F8D781E991F8D91080A08AE8D912B
:1011D000180A19AE8D91280A2AAE8D91380A3BAEB5
:1011E0008D91480A4CAE8D91580A5DAE8D91680A7A
:1011F0006EAE8D91780A7FAE91FB9795979580A101
:10120000881E81A1981E82A1A81E83A1B81E84A158
:10121000C81E85A1D81E86A1E81E87A1F81E991FA9
:101220008827881E981EA81EB81EC81ED81EE81E35
:10123000F81E991F8D91880A80828D91980A91825B
:101240008D91A80AA2828D91B80AB3828D91C80AA5
:10125000C4828D91D80AD5828D91E80AE6828D915B
:10126000F80AF7828D91080B8D91180B8D91280B40
:101270008D91380B8D91480B8D91580B8D91680B8A
:101280008D91780B97958827081F181F281F381FE6
:10129000481F581F681F781F979580A4081D008756
:1012A00091A4191D1187A2A42A1D2287B3A43B1D56
:1012B0003387C4A44C1D4487D5A45D1D5587E6A47F
:1012C0006E1D6687F7A47F1D7787008811882288A6
:1012D0003388448855886688778800A9001E11A93C
:1012E000111E22A9221E33A9331E44A9441E55A94A
:1012F000551E66A9661E77A9771E991F8827081EA6
:10130000181E281E381E481E581E681E781E991F5B
:101310008D91080A008A8D91180A118A8D91280AE8
:10132000228A8D91380A338A8D91480A448A8D9198
:10133000580A558A8D91680A668A8D91780A778A4B
:10134000008C118C228C338C448C558C668C778C61
:101350008D91080A8D91180A8D91280A8D91380A6D
:101360008D91480A8D91580A8D91680A8C91780A5E
:10137000CC0B97958827081E181E281E381E481E5D
:10138000581E681E781E979580AD081E008E01AC11
:10139000101C118E12AC211C228E23AC321C338EF9
:1013A00034AC431C448E45AC541C558E56AC651C65
:1013B000668E67AC761C778E7724DC2F991F917030
:1013C000C91FD71D90F9C90FD71D70A07C0E70A240
:1013D00071A07D1E71A272A07D1E72A273A07D1EDF
:1013E00073A274A07D1E74A275A07D1E75A276A046
:1013F0007D1E76A277A07D1E77A28D1E80A69D1EE3
:1014000091A6AD1EA2A6BD1EB3A6CD1EC4A6DD1E0E
:10141000D5A6ED1EE6A6FD1EF7A60D1F00AB1D1FEF
:1014200011AB2D1F22AB3D1F33AB4D1F44AB5D1FD6
:1014300055AB6D1F66AB7D1F77AB8D1F80AF0D1E4B
:1014400001AE1D1E12AE2D1E23AE3D1E34AE4D1E2E
:1014500045AE5D1E56AE6D1E67AEF894ADBF789476
:10146000BEBF08952F923F924F925F926F927F92EC
:101470008F929F92AF92BF92CF92DF92EF92FF92A4
:101480000F931F93CF93DF93FC01EB0114D0DF91F7
:10149000CF911F910F91FF90EF90DF90CF90BF9071
:1014A000AF909F908F907F906F905F904F903F9004
:1014B0002F9011240895288039804A805B806C80A9
:1014C0007D808E809F809927249C6001239CB02C76
:1014D000C10CD91E269C7001289C8001399C90016A
:1014E000599CA001799CB001349CD00CE11CF91EE0
:1014F000459CF00C011D191F369CD001259CD00C79
:10150000E11CFA1EB91F359CE00CF11CB91F569C5A
:101510000B0F101D211D391F299CD001279CF00C99
:10152000011D1A1FB91F379C000D111DB91F499CC1
:101530002B0F301D411D591F679CD001479C100D7A
:10154000211D3A1FB91F579C200D311DB91F789CD2
:101550004B0F501D611D791F589CD001389C100DF8
:10156000211D3A1FB91F489C200D311DB91F699CD0
:101570004B0F501D611D791F689CD001469C000DCA
:10158000111D291F391F4A1F5B1F691F791F899C65
:10159000700D8827811DBB0CCC1CDD1CEE1CFF1CB4
:1015A000001F111F221F331F441F551F661F771F67
:1015B000881F991F339CD001229C1001449CA22CAF
:1015C000B30CCA1EDB1EE01CF11C991F669C1001A7
:1015D000559CD001779C2001889C3001999C969560
:1015E0000A1F1B1F221D331D441D551D661D771D1F
:1015F000801D911DA082B182C282D382E482F582D5
:1016000006831783288439844A845B846C847D84B0
:101610008E849F84002730FB9695879577956795F4
:10162000579547953795399C5001599C6001299CE5
:101630007001259CD001239C300D411D5A1FB01F05
:10164000249C400D511DB01F279C6B0F701D811DE8
:101650009E1DF01E289C800D911DF01E369CD00111
:10166000349C500D611D7A1FB01F359C600D711D9B
:10167000B01F269C600D711D8B1F901FAF1CB01EEC
:10168000569CD001459C700D811D9A1FB01F469C31
:10169000800D911DB01F679CAB0EB01CC11CD01EED
:1016A000499CB00CC11CD01E699CD001489C7001A3
:1016B000379C800D911DAE1CF01E389C900DA11C16
:1016C000F01E689CBF0CC01CD11CB01F799C70011F
:1016D000DA0EEB1EF01E589CD001479C900DA11C09
:1016E000BA1EB01F579CA00CB11CB01F789CCB0E2B
:1016F000D01CE11CF01E899CF00C011D1127330F3A
:10170000441F551F661F771F881F991FAA1CBB1CEB
:10171000CC1CDD1CEE1CFF1C001F111F30F9339C7C
:10172000D001229C200D311D4A1F5B1F111F559CAB
:10173000D001449C1795601D711D8A1F9B1F111FAE
:10174000779CD001669C1795A01CB11CCA1EDB1E9D
:10175000111F999CD001889C1695E01CF11C0A1F52
:101760001B1F208B318B428B538B648B758B868B2D
:10177000978BA08EB18EC28ED38EE48EF58E068F9F
:10178000178FA880B980CA80DB80EC80FD800E8135
:101790001F81A218B308C408D508E608F70808098D
:1017A0001909AA0BAA26BA26CA26DA26EA26FA2692
:1017B0000A271A27AA1ABA0ACA0ADA0AEA0AFA0A7F
:1017C0000A0B1A0B9927AC9C2001AB9C302C410CC6
:1017D000591EAE9C3001A09E4001B19E9001D19E49
:1017E000A001F19EB001BC9C500C611C791ECD9CE7
:1017F000700C811C991EBE9CD001AD9C500C611CCC
:101800007A1EB91FBD9C600C711CB91FDE9C8B0E2B
:10181000901C211D391FA19ED001AF9C700C811C12
:101820009A1EB91FBF9C800C911CB91FC19E2B0F23
:10183000301D411D591FEF9CD001CF9C900C211DE4
:101840003A1FB91FDF9C200D311DB91FF09E4B0FB1
:10185000501D611D791FD09ED001B09E900C211D9E
:101860003A1FB91FC09E200D311DB91FE19E4B0FBD
:10187000501D611D791FE09ED001CE9C800C911CF3
:10188000291F391F4A1F5B1F691F791F019F700D98
:101890008827811D330C441C551C661C771C881C32
:1018A000991C221F331F441F551F661F771F881F57
:1018B000991FBB9CD001AA9C5001CC9C2A2C3B0CAC
:1018C0004A1E5B1E601C711C991FEE9C5001DD9C22
:1018D000D001FF9C6001009F7001119F96958A1EA8
:1018E0009B1E2A1D3B1D4C1D5D1D6E1D7F1D801DF9
:1018F000911DA080B180C280D380E480F5800681F4
:101900001781A218B308C408D508E608F708080923
:101910001909A7952088318842885388A20CB31CE6
:10192000C41CD51CA086B186C286D38664887588FF
:1019300086889788E61CF71C081D191DE486F58625
:1019400006871787AA1F220A330A440A550A660A1D
:10195000770A880A990A00081108A08CB18CC28CF9
:10196000D38CE48CF58C068D178DA6952A1C3B1C18
:101970004C1C5D1C6E1C7F1C801E911E208A318AAF
:10198000428A538A648A758A868A978AA01CB11C07
:10199000C11CD11CE11CF11C011D111DA08EB18EBA
:1019A000C28ED38EE48EF58E068F178FA888B988E5
:1019B000CA88DB88EC88FD880E891F899927AC9C32
:1019C0002001AB9C302C410C591EAE9C3001A09ED6
:1019D0004001B19E9001D19EA001F19EB001BC9C3E
:1019E000500C611C791ECD9C700C811C991EBE9CF4
:1019F000D001AD9C500C611C7A1EB91FBD9C600CBF
:101A0000711CB91FDE9C8B0E901C211D391FA19EDD
:101A1000D001AF9C700C811C9A1EB91FBF9C800C1A
:101A2000911CB91FC19E2B0F301D411D591FEF9CEA
:101A3000D001CF9C900C211D3A1FB91FDF9C200DB7
:101A4000311DB91FF09E4B0F501D611D791FD09E97
:101A5000D001B09E900C211D3A1FB91FC09E200DD1
:101A6000311DB91FE19E4B0F501D611D791FE09E76
:101A7000D001CE9C800C911C291F391F4A1F5B1F6F
:101A8000691F791F019F700D8827811D330C441C2D
:101A9000551C661C771C881C991C221F331F441F71
:101AA000551F661F771F881F991FBB9CD001AA9CDA
:101AB0005001CC9C2A2C3B0C4A1E5B1E601C711CE6
:101AC000991FEE9C5001DD9CD001FF9C6001009F9E
:101AD0007001119F96958A1E9B1E2A1D3B1D4C1D51
:101AE0005D1D6E1D7F1D801D911D20A231A242A291
:101AF00053A264A275A286A297A2A88CB98CCA8CA4
:101B0000DB8CEC8CFD8C0E8D1F8D882430FB969524
:101B1000879577956795579547953795B19E1001AD
:101B2000D19E2001A19E3001AD9CD001AB9C300D17
:101B3000411D5A1FB81DAC9C400D511DB81DAF9CD6
:101B40006B0F701D811D961D781CA09E800D911D30
:101B5000781CBE9CD001BC9C500D611D7A1FB81D25
:101B6000BD9C600D711DB81DAE9C600D711D8B1F5D
:101B7000981D271C381CDE9CD001CD9C700D811D4A
:101B80009A1FB81DCE9C800D911DB81DEF9C2B0E89
:101B9000301C411C581CC19E300C411C581CE19E3D
:101BA000D001C09E3001BF9C800D911D261C781C69
:101BB000B09E900D211C781CE09E370C401C511CDF
:101BC000B81DF19E30015A0E6B1E781CD09ED001BC
:101BD000CF9C900D211C3A1EB81DDF9C200C311C9F
:101BE000B81DF09E4B0E501C611C781C019F700CA0
:101BF000811C9924330F441F551F661F771F881FB0
:101C0000991F221C331C441C551C661C771C881C05
:101C1000991C30F9BB9CD001AA9C200D311D4A1F94
:101C20005B1F991CDD9CD001CC9C9794601D711D9D
:101C30008A1F9B1F991CFF9CD001EE9C9794201C2F
:101C4000311C4A1E5B1E991C119FD001009F969467
:101C5000601C711C8A1E9B1E20AB31AB42AB53AB88
:101C600064AB75AB86AB97AB20AE31AE42AE53AE34
:101C700064AE75AE86AE97AE288839884A885B8890
:101C80006C887D888E889F882A183B084C085D08E0
:101C90006E087F08800A910AAA0B2A263A264A264D
:101CA0005A266A267A268A269A262A1A3A0A4A0A38
:101CB0005A0A6A0A7A0A8A0A9A0A9927249C6001AF
:101CC000239CB02CC10CD91E269C7001289C80013D
:101CD000399C9001599CA001799CB001349CD00C96
:101CE000E11CF91E459CF00C011D191F369CD0010A
:101CF000259CD00CE11CFA1EB91F359CE00CF11C90
:101D0000B91F569C0B0F101D211D391F299CD00196
:101D1000279CF00C011D1A1FB91F379C000D111DC7
:101D2000B91F499C2B0F301D411D591F679CD001C5
:101D3000479C100D211D3A1FB91F579C200D311DC6
:101D4000B91F789C4B0F501D611D791F589CD00105
:101D5000389C100D211D3A1FB91F489C200D311DC4
:101D6000B91F699C4B0F501D611D791F689CD001E4
:101D7000469C000D111D291F391F4A1F5B1F691F3B
:101D8000791F899C700D8827811DBB0CCC1CDD1C24
:101D9000EE1CFF1C001F111F221F331F441F551F65
:101DA000661F771F881F991F339CD001229C10014A
:101DB000449CA22CB30CCA1EDB1EE01CF11C991F14
:101DC000669C1001559CD001779C2001889C3001B5
:101DD000999C96950A1F1B1F221D331D441D551DDE
:101DE000661D771D801D911D20A031A042A053A02B
:101DF00064A075A086A097A01088120C10A211886C
:101E0000131C11A21288141C12A21388151C13A2F1
:101E10001488161C14A21588171C15A21688181CE5
:101E200016A21788191C17A2AA0B2A183B084C08DF
:101E30005D086E087F08800A910AA0ACB1ACC2AC04
:101E4000D3ACE4ACF5AC06AD17ADA20AB30AC40A34
:101E5000D50AE60AF70A080B190B0008110820A991
:101E600031A942A953A964A975A986A997A9220EE7
:101E7000331E441E551E661E771E881E991EA21E06
:101E8000B31EC41ED51EE61EF71E081F191FBB2752
:101E90000B1E1B1E208D318D428D538D648D758DD3
:101EA000868D978DA695221E331E441E551E661ED6
:101EB000771E881E991EAB1EBB1ECB1EDB1EEB1EA3
:101EC000FB1E0B1F1B1F20A631A642A653A664A60D
:101ED00075A686A697A6A0AAB1AAC2AAD3AAE4AA62
:101EE000F5AA06AB17ABA0ACB1ACC2ACD3ACE4ACBA
:101EF000F5AC06AD17ADA01CB11CC11CD11CE11C7A
:101F0000F11C011D111DA0AEB1AEC2AED3AEE4AE48
:101F1000F5AE06AF17AF288039804A805B806C80B1
:101F20007D808E809F80A884B984CA84DB84EC8401
:101F3000FD840E851F85A8892A1AA9893A0AAA89CB
:101F40004A0AAB895A0AAC896A0AAD897A0AAE890B
:101F50008A0AAF899A0AA88DAA0AA98DBA0AAA8DF7
:101F6000CA0AAB8DDA0AAC8DEA0AAD8DFA0AAE8DDB
:101F70000A0BAF8D1A0BAA0B2A263A264A265A2696
:101F80006A267A268A269A26AA26BA26CA26DA2611
:101F9000EA26FA260A271A272A1A3A0A4A0A5A0A5F
:101FA0006A0A7A0A8A0A9A0AAA0ABA0ACA0ADA0AD1
:101FB000EA0AFA0A0A0B1A0B9101A201B301C40141
:101FC0002A193B094C095D096E097F09800B910BA9
:101FD000AA0B2A273A274A275A276A277A278A27C5
:101FE0009A272A1B3A0B4A0B5A0B6A0B7A0B8A0B5D
:101FF0009A0B5F934F933F932F939F938F937F936E
:102000006F93DF92CF92BF92AF92EF92FF92992798
:10201000249C6001239CB02CC10CD91E269C70010D
:10202000289CE001399C9001599CA001799CB00149
:10203000349CD00CE11CF91E459CF00CC11DD91F2D
:10204000369CD001259CD00CE11CFA1EB91F359C92
:10205000E00CF11CB91F569CCB0FD01D211D391F60
:10206000299CD001279CF00CC11DDA1FB91F379C99
:10207000C00DD11DB91F499C2B0F301D411D591F8B
:10208000679CD001479CD00D211D3A1FB91F579C5A
:10209000200D311DB91F789C4B0F501D611D791FFC
:1020A000589CD001389CD00D211D3A1FB91F489C67
:1020B000200D311DB91F699C4B0F501D611D791FEB
:1020C000689CD001469CC00DD11D291F391F4A1F95
:1020D0005B1F691F791F899C700D8827811DBB0CB0
:1020E000CC1CDD1CEE1CFF1CCC1FDD1F221F331F70
:1020F000441F551F661F771F881F991F339CD001EF
:10210000229C1001449CA22CB30CCA1EDB1EE01CB6
:10211000F11C991F669C1001559CD001779C2001F1
:10212000889C3001999C9695CA1FDB1F221D331D88
:10213000441D551D661D771D801D911D7F906F905C
:102140002F903F904F905F90DF92CF92BF92AF92CF
:10215000DF93CF93FF92EF92CC2730FB9695879534
:1021600077956795579547953795319E5001519EC4
:102170006001219E7001259CD001239C300D411DE2
:102180005A1FBC1F249C400D511DBC1F279C6B0F68
:10219000701D811D9E1DFC1E209E800D911DFC1E2C
:1021A000369CD001349C500D611D7A1FBC1F359C9C
:1021B000600D711DBC1F269C600D711D8B1F9C1F27
:1021C000AF1CBC1E569CD001459C700D811D9A1FF2
:1021D000BC1F469C800D911DBC1F679CAB0EB01CA4
:1021E000C11CDC1E419EB00CC11CDC1E619ED001D6
:1021F000409E7001379C800D911DAE1CFC1E309ED0
:10220000900DA11CFC1E609EBF0CC01CD11CBC1FED
:10221000719E7001DA0EEB1EFC1E509ED001479C91
:10222000900DA11CBA1EBC1F579CA00CB11CBC1F5A
:10223000709ECB0ED01CE11CFC1E019FF00CC11D3A
:10224000DD27330F441F551F661F771F881F991FF7
:10225000AA1CBB1CCC1CDD1CEE1CFF1CCC1FDD1FF4
:1022600030F9449C4001339CD001229C200D311D4B
:102270004A1F5B1F681D791DDD1F559C4001669C30
:10228000D001779C1001009F2001119FD695881DD9
:10229000991DAA1EBB1EC21CD31CE41CF51CC01D2C
:1022A000D11D5F934F933F932F939F938F937F9372
:1022B0006F93DF92CF92BF92AF92DF93CF93FF9253
:1022C000EF92CDB7DEB7AD8CBE8CCF8CD8A0E98CA9
:1022D000FA8C0B8D1C8D9924AC9CA001AB9C302DED
:1022E000410D591DAE9CB001A09EC001B19E1001D0
:1022F000D19E2001F19E3001BC9C500D611D791DC5
:10230000CD9C700D811D991DBE9CD001AD9C500DC2
:10231000611D7A1FB91DBD9C600D711DB91DDE9C2C
:102320008B0F901D211C391CA19ED001AF9C700DFC
:10233000811D9A1FB91DBF9C800D911DB91DC19EA5
:102340002B0E301C411C591CEF9CD001CF9C900DD2
:10235000211C3A1EB91DDF9C200C311CB91DF09EBA
:102360004B0E501C611C791CD09ED001B09E900D6C
:10237000211C3A1EB91DC09E200C311CB91DE19EC6
:102380004B0E501C611C791CE09ED001CE9C800D30
:10239000911D291C391C4A1E5B1E691C791C019F5A
:1023A000700C8824811C330F441F551F661F771F34
:1023B000881F991F221C331C441C551C661C771C4B
:1023C000881C991CBB9CD001AA9C5001CC9C2A2D36
:1023D0003B0D4A1F5B1F601D711D991CEE9C500137
:1023E000DD9CD001FF9C6001009F7001119F9694BD
:1023F0008A1F9B1F2A1C3B1C4C1C5D1C6E1C7F1CD7
:10240000801C911CAD88BE88CF88D88CE988FA885A
:102410000B891C89A21AB30AC40AD50AE60AF70A6C
:10242000080B190B2D813E814F81588569817A8176
:102430008B819C8122093309440955096609770972
:1024400088099909000811082D843E844F84588812
:1024500069847A848B849C84A20CB31CC41CD51C14
:10246000E61CF71C081D191D221D331D441D551D9A
:10247000661D771D881D991D2D803E804F805884D4
:1024800069807A808B809C80201C311C411C511CEF
:10249000611C711C811C911C2D823E824F825886CA
:1024A00069827A828B829C822D883E884F88588CE4
:1024B00069887A888B889C880080021811801308AC
:1024C0002280240833803508448046085580570808
:1024D000668068087780790880848A0891849B08E0
:1024E000A284AC08B384BD08C484CE08D584DF08B8
:1024F000E684E00AF784F10ABB0BA0A1A00DA08B33
:10250000A1A1A11DA18BA2A1A21DA28BA3A1A31D6C
:10251000A38BA4A1A41DA48BA5A1A51DA58BA6A1D9
:10252000A61DA68BA7A1A71DA78BA0A5A81DA08F40
:10253000A1A5A91DA18FA2A5AA1DA28FA3A5AB1D10
:10254000A38FA4A5AC1DA48FA5A5AD1DA58FA6A581
:10255000AE1DA68FA7A5AF1DA78FAFB7AD80BE805C
:10256000CF80D884E980FA800B811C81A096F894F2
:10257000CDBF7894DEBFB69500A8020A11A8130A51
:1025800022A8240A33A8350A44A8460A55A8570A9F
:1025900066A8680A77A8790A80AC8A0891AC9B087B
:1025A000A2ACAC08B3ACBD08C4ACCE08D5ACDF0857
:1025B000E6ACE00AF7ACF10ACC0BDD0BA695A0A1C6
:1025C000A01DA0A3A1A1A11DA1A3A2A1A21DA2A380
:1025D000A3A1A31DA3A3A4A1A41DA4A3A5A1A51D5C
:1025E000A5A3A6A1A61DA6A3A7A1A71DA7A3A0A5B5
:1025F000A81DA0A7A1A5A91DA1A7A2A5AA1DA2A724
:10260000A3A5AB1DA3A7A4A5AC1DA4A7A5A5AD1DFF
:10261000A5A7A6A5AE1DA6A7A7A5AF1DA7A700A8FD
:1026200011A822A833A844A855A866A877A880AC0A
:1026300091ACA2ACB3ACC4ACD5ACE6ACF7AC0C1E60
:102640001D1E2D1E3D1E4D1E5D1E6D1E7D1E8D1EF2
:102650009D1EAD1EBD1ECD1EDD1EED1EFD1E00AA63
:1026600011AA22AA33AA44AA55AA66AA77AA80AEBA
:1026700091AEA2AEB3AEC4AED5AEE6AEF7AE08959F
:102680002F923F924F925F926F927F928F929F9282
:10269000AF92BF92CF92DF92EF92FF920F931F9370
:1026A000CF93DF93CDB7DEB7C456D040F894CDBFFB
:1026B0007894DEBF69837A838B839C83EB01FC0172
:1026C00096E0881B0990199029903990499059906B
:1026D0006990799088A499A4AAA4BBA4CCA4DDA4F1
:1026E000EEA4FFA480019101A201B301080819081A
:1026F0002A083B084C085D086E087F080192119279
:102700002192319241925192619271928795800A01
:10271000910AA20AB30AC40AD50AE60AF70A80A6F1
:1027200091A6A2A6B3A6C4A6D5A6E6A6F7A6881F1C
:102730009A9541F680FB94F995F9E91BF040BF01A9
:10274000EDB7FEB7359685D1CDB7DEB7EB81FC810D
:1027500069817A817ED1CDB7DEB7EB81FC81E05A09
:10276000FF4F69817A81605D7F4F73D1CDB7DEB74E
:10277000EB81FC81DE011596EF01C05ADF4F7E2F01
:10278000705D991B00A88881081E11A88981181EF8
:1027900022A88A81281E33A88B81381E44A88C81E8
:1027A000481E55A88D81581E66A88E81681E77A880
:1027B0008F81781E099219922992399249925992E1
:1027C00069927992991F8191081E8191181E8191B9
:1027D000281E8191381E8191481E8191581E819139
:1027E000681E8191781E991F8D91080A00A68D910F
:1027F000180A11A68D91280A22A68D91380A33A6AF
:102800008D91480A44A68D91580A55A68D91680A63
:1028100066A68D91780A77A6979597957E13B2CF85
:10282000979597FBF096991F76E000808990081C99
:1028300011809990191C2280A9902A1C3380B9908C
:102840003B1C4480C9904C1C5580D9905D1C66800F
:10285000E9906E1C7780F9907F1C991F8827081ECD
:10286000181E281E381E481E581E681E781E991FE6
:102870008D91080A01928D91180A11928D91280A62
:1028800021928D91380A31928D91480A41928D9111
:10289000580A51928D91680A61928D91780A7192CD
:1028A000979597957A9509F6991F991F440B550BA3
:1028B0001124882780F9480F511D97959170491F61
:1028C000511D8081840F81938081851F8193808138
:1028D000851F81938081851F81938081851F8193CE
:1028E0008081851F81938081851F81938081851FD1
:1028F00081938081851F81938081851F8193808151
:10290000851F81938081851F81938081851F81939D
:102910008081851F81938081851F81938081851FA0
:1029200081938081851F81938081851F8193808120
:10293000851F81938081851F81938081851F81936D
:102940008081851F81938081851F81938081851F70
:1029500081938081851F81938081851F81938081F0
:10296000851F81938081851F81938081851F81933D
:102970008081851F81938081851F81938081851F40
:1029800081938081851F81938081851F81938081C0
:10299000851F81938081851F81938081851F81930D
:1029A0008081851F81938081851F81938081851F10
:1029B0008193851E8192951E9192A51EA192B51EAE
:1029C000B192C51EC192D51ED192E51EE192F51EAF
:1029D000F1921197F894ADBF7894BEBFDF91CF917B
:1029E0001F910F91FF90EF90DF90CF90BF90AF902D
:1029F0009F908F907F906F905F904F903F902F901F
:102A000008952F923F924F925F926F927F928F9292
:102A10009F92AF92BF92CF92DF92EF92FF920F936D
:102A20001F93CF93DF93FC0114D0DF91CF911F91BF
:102A30000F91FF90EF90DF90CF90BF90AF909F905D
:102A40008F907F906F905F904F903F902F901124C8
:102A50000895CDB7DEB7E497F894CDBF7894DEBF84
:102A600069837A83EB83FC83EB0193E0881B0990F5
:102A70001990299039904990599069907990888857
:102A80009988AA88BB88CC88DD88EE88FF88800179
:102A90009101A201B301080819082A083B084C0853
:102AA0005D086E087F080192119221923192419245
:102AB0005192619271928795800A910AA20AB30A93
:102AC000C40AD50AE60AF70A808A918AA28AB38ADA
:102AD000C48AD58AE68AF78A881F9A9541F680FBD0
:102AE00094F993F9E91BF040EF01EDB7FEB7359685
:102AF000F7D1CDB7DEB7EB81FC81A981BA81ED01B9
:102B0000EFD1CDB7DEB7EB81FC81E05DFF4FA9814E
:102B1000BA815896ED01E4D1CDB7DEB7EB81FC81E7
:102B2000DE011596EF01C05DDF4F608C718C828CE9
:102B3000938CA48CB58CC68CD78CE0A0F1A002A19C
:102B400013A124A135A146A157A160A571A50880B4
:102B500019802A803B804C805D80600C711C821C37
:102B6000931CA41CB51C0E80C01C1F80D11C288483
:102B7000E21C3984F31C4A84041D5B84151D0C84FB
:102B8000201D1D84311D2E84421D3F84531D488805
:102B9000641D5988751D991F008011802280338023
:102BA00044805580060C171C281C391C4A1C5B1CD1
:102BB000991F8D91081A008E8D91180A118E8D9192
:102BC000280A228E8D91380A338E8D91480A448EC0
:102BD0008D91580A558E97950680178020843184F0
:102BE000428453840C1C1D1C2E1C3F1C401E511E75
:102BF000991F8D91080A068E8D91180A178E8D9156
:102C0000280A20A28D91380A31A28D91480A42A249
:102C10008D91580A53A2979504841584268437848D
:102C200040885188021E131E241E351E461E571E44
:102C3000991F8D91080A04A28D91180A15A28D91F1
:102C4000280A26A28D91380A37A28D91480A40A6FB
:102C50008D91580A51A69795979502A413A424A480
:102C600035A446A457A48A89081E0A8A8B89181E8F
:102C70001B8A8C89281E2C8A8D89381E3D8A8E8954
:102C8000481E4E8A8F89581E5F8A991F8289081EA6
:102C90008389181E8489281E8589381E8689481EC6
:102CA0008789581E991F8D91080A02A68D91180ACE
:102CB00013A68D91280A24A68D91380A35A68D91E8
:102CC000480A46A68D91580A57A691FB8D91680A2D
:102CD0008D91780A8D91880A8D91980A8D91A80A14
:102CE0008D91B80A8D91C80A8D91D80A8D91E80A04
:102CF0008D91F80A8D91080B8D91180B8D91280BF1
:102D00008D91380B8D91480B8D91580B8D91680BDF
:102D10008D91780B97958827681E781E881E981EBF
:102D2000A81EB81EC81ED81EE81EF81E081F181FB1
:102D3000281F381F481F581F681F781F9795888DB8
:102D4000681E6882698C761C79827A8C871C8A82DC
:102D50008B8C981C9B829C8CA91CAC82AD8CBA1C61
:102D6000BD82BE8CCB1CCE82CF8CDC1CDF82D8A077
:102D7000ED1CE886E9A0FE1CF986FAA00F1D0A8763
:102D80000BA1101F1B871CA1211F2C872DA1321FF7
:102D90003D873EA1431F4E874FA1541F5F8758A513
:102DA000651F688B69A5761F798B991F991F0A8803
:102DB0001B882C883D884E885F887D91070A7D910D
:102DC000170A7D91270A7D91370A7D91470A7D91E7
:102DD000570AAA0BBB0B97957727071E171E271EAE
:102DE000371E471E571E97957AA5071E0A8A0BA401
:102DF000101C1B8A1CA4211C2C8A2DA4321C3D8A69
:102E00003EA4431C4E8A4FA4541C5F8A5524991F2C
:102E10009170A91FB51D90F9A90FB51D8A0F888F54
:102E20006B1E698E7B1E7A8E8B1E8B8E9B1E9C8EDC
:102E3000AB1EAD8EBB1EBE8ECB1ECF8EDB1ED8A2B0
:102E4000EB1EE9A2FB1EFAA20B1F0BA31B1F1CA368
:102E50002B1F2DA33B1F3EA34B1F4FA35B1F58A748
:102E60006B1F69A77B1F0B1E1B1E2B1E3B1E4B1EC1
:102E70007AA70BA61CA62DA63EA64FA6CDB7DEB7F9
:102E8000CC5CDF4FF894CDBF7894DEBF08952F92CD
:102E90003F924F925F926F927F928F929F92AF92EA
:102EA000BF92CF92DF92EF92FF920F931F93CF9337
:102EB000DF93FC01EB0114D0DF91CF911F910F91B3
:102EC000FF90EF90DF90CF90BF90AF909F908F904A
:102ED0007F906F905F904F903F902F9011240895B6
:102EE000D7A7C6A7E880F9800A811B812C813D8184
:102EF0009927E09E2001E29E3001F39EA001139FDE
:102F0000B001EF9C302C410C591EE19E500C611C0D
:102F1000791EE39E700C411D591FF29E4001F09EE8
:102F2000500C611C781C991EF19E600C711C991E3E
:102F3000039F490D501D611D791F129F4001019F84
:102F4000700C411D581D991E029F400D511D991E68
:102F5000239F690D701D8827811D330C441C551C4F
:102F6000661C771C441F551F661F771F881F991FFB
:102F7000119F6001009F5001FF9C4001EE9C202C9E
:102F8000310C481C591C6A1C7B1C4C1D5D1D991F73
:102F9000339F4001229F9695601D711D881D991DCC
:102FA0002082318242825382648275828E809F8029
:102FB000A884B984CA84DB84E818F9080A091B09C3
:102FC0002C093D090008E024F024002510252025C7
:102FD0003025E018F008000910092009300950FBDD
:102FE0009695879577956795579555249D9C3001C3
:102FF000BD9C10018B9CE001899C500D611D7C1FC4
:10300000D51D8A9C600D711DD51D8D9C8D0F901D49
:10301000611C751C9C9CE0019A9C700D811D9C1F7D
:10302000D51D8C9C800D911DD51DAD9C6D0E701C09
:10303000211C351CAC9CE0019B9C800D911D6C1EDD
:10304000D51DAB9C900D611CD51DBC9C700C211C2A
:10305000351CCD9C7D0E251C301C151C412C550F9C
:10306000661F771F881F991F661C771C221C331C44
:10307000441C551C50F9AA9CE001999CD001889CE5
:10308000400D511D6A1F7B1F8C1F9D1F551CDD9C11
:10309000E001CC9CD001BB9C5694601C711C2A1E84
:1030A0003B1E4C1E5D1E7F926F926624E09ED001F7
:1030B000E29EE001F39E4001139F5001EF9C702CB3
:1030C000A10DB61DE19EB00DC11DD61DE39ED00D14
:1030D000811C961CF29E6001F09EB00DC11DDC1D8E
:1030E000D61CF19EC00DD11DD61C039F8D0C901CCB
:1030F000A11CB61C129F6001019FD00D811C9C1C5D
:10310000D61C029F800C911CD61C239FAD0CB01CBA
:10311000CC24C11CDD24770CAA1FBB1FCC1FDD1FD4
:10312000881C991CAA1CBB1CCC1CDD1CEE9C602CB2
:10313000710CDD1CFF9CD794A01DB11DDD1C119FDF
:103140007001009FD794C01DD11D8E1C9F1CDD1CDB
:10315000339F7001229FD694A01CB11CCE1CDF1C93
:103160000F901F90E080F1800281138124813581CE
:10317000E618F7080A0B1B0B2C0B3D0BA795E40E6A
:10318000F51E061F171F281F391F401D511D621DE8
:10319000731D841D951DAA1F480959096A097B09D9
:1031A0008C099D0966087708A795061C171C271C23
:1031B000371C471C571CE682F7820087118722873D
:1031C00033874487558766877787808B918B028A00
:1031D000138A248A358A468A578AD7A5C6A5EC84DD
:1031E000FD840E851F85288939899927E09E100165
:1031F000E29E2001F39EA001139FB001EF9C702C72
:10320000210C391EE19E300C411C591EE39E500CCE
:10321000411D591FF29E4001F09E300C411C581C6C
:10322000991EF19E400C511C991E039F490D501D83
:10323000611D791F129F4001019F500C411D581DB7
:10324000991E029F400D511D991E239F690D701DEF
:103250008827811D770C221C331C441C551C441FDD
:10326000551F661F771F881F991F119F6001009FC0
:103270005001FF9C4001EE9C602C710C281C391CF5
:103280004A1C5B1C4C1D5D1D991F339F4001229FF2
:103290009695601D711D881D991D608E718E228E00
:1032A000338E448E558E8A889B88AC88BD88CE88A4
:1032B000DF88E818F9080A091B092C093D090008EC
:1032C000E024F0240025102520253025E018F00802
:1032D000000910092009300950FB969587957795CC
:1032E0006795579555249D9C3001BD9C10018B9C82
:1032F000E001899C500D611D7C1FD51D8A9C600DCD
:10330000711DD51D8D9C8D0F901D611C751C9C9C85
:10331000E0019A9C700D811D9C1FD51D8C9C800D19
:10332000911DD51DAD9C6D0E701C211C351CAC9CD7
:10333000E0019B9C800D911D6C1ED51DAB9C900DDA
:10334000611CD51DBC9C700C211C351CCD9C7D0EB8
:10335000251C301C151C412C550F661F771F881F1C
:10336000991F661C771C221C331C441C551C50F9E9
:10337000AA9CE001999CD001889C400D511D6A1FB8
:103380007B1F8C1F9D1F551CDD9CE001CC9CD00138
:10339000BB9C5694601C711C2A1E3B1E4C1E5D1E5D
:1033A0007F926F926624E09ED001E29EE001F39E40
:1033B0004001139F5001EF9C702CA10DB61DE19EA2
:1033C000B00DC11DD61DE39ED00D811C961CF29E32
:1033D0006001F09EB00DC11DDC1DD61CF19EC00D1C
:1033E000D11DD61C039F8D0C901CA11CB61C129FD6
:1033F0006001019FD00D811C9C1CD61C029F800C7B
:10340000911CD61C239FAD0CB01CCC24C11CDD2408
:10341000770CAA1FBB1FCC1FDD1F881C991CAA1C80
:10342000BB1CCC1CDD1CEE9C602C710CDD1CFF9CBD
:10343000D794A01DB11DDD1C119F7001009FD79472
:10344000C01DD11D8E1C9F1CDD1C339F7001229F4F
:10345000D694A01CB11CCE1CDF1C0F901F90E08CDA
:10346000F18C028D138D248D358DE618F7080A0B2B
:103470001B0B2C0B3D0BA795E40EF51E061F171F0B
:10348000281F391F401D511D621D731D841D951D70
:10349000AA1F480959096A097B098C099D09660810
:1034A0007708A795061C171C271C371C471C571CA0
:1034B00044A355A366A377A380A791A7D7A5C6A5C4
:1034C00002A613A624A635A646A657A6608C718C24
:1034D000828C938CA48CB58CC4846C0CC5847C1CAD
:1034E000C6848C1CC7849C1CC088AC1CC188BC1CB6
:1034F000C288EC1CC388FC1CC4880C1DC5881C1D1C
:10350000C6882C1DC7883C1DCC24DD24DC1C4D0D39
:103510005C1D6C1D7C1D8C1D9C1D0C1C1C1C2C1C06
:103520003C1C4C1C5C1CA081A60DA487A181A71D7E
:10353000A587A281A81DA687A381A91DA787A4810D
:10354000AA1DA08BA581AB1DA18BA681AE1DA28B50
:10355000A781AF1DA38BA085A01FA48BA185A11F50
:10356000A58BA285A21FA68BA385A31FA78B461D93
:10357000571D681D791D8A1D9B1D0E1C1F1C201EBA
:10358000311E421E531E408F518F628F738F848F66
:10359000958F068E178E20A231A242A253A2DC1C68
:1035A000DF92EF93FF93E881F9810A811B812C81DF
:1035B0003D812E803F80488459846A847B848C843A
:1035C0009D84AE84BF84C888D9884A895B896C8908
:1035D0007D898E899F89E819F9090A091B092C0937
:1035E0003D09240A350A460A570A680A790A00087A
:1035F000E025F02500251025202530252024302425
:103600004024502460247024E019F00900091009B6
:103610002009300920083008400850086008700868
:103620008824E09F5001E29F6001F39FA001139F57
:10363000B001EF9F902CA10CB81CE19FB00CC11CF5
:10364000D81CE39FD00C411D581DF29FC001F09F74
:10365000B00CC11CD81E981DF19FC00CD11C981D28
:10366000039F490F501D611D781D129FC001019FCE
:10367000D00C411D581F981D029F400D511D981DD3
:10368000239F690F701D8827811D9927990CAA1CFB
:10369000BB1CCC1CDD1C441F551F661F771F881FD9
:1036A000991FEE9F0F92910C9F92991F009F4001CE
:1036B000FF9F9795A01CB11CC81CD91CAF92BF924C
:1036C000CF92DF92991F339F5001229F4001119F9B
:1036D0009695401D511D681D791D8A1D9B1DE2197F
:1036E000F30904091509260937090008E025F02522
:1036F0000025102520253025E019F00900091009C2
:103700002009300950FB96958795779567955795D1
:10371000DD24379C7001579C5001259CE001239CBF
:10372000500D611D7C1FDD1D249C600D711DDD1D74
:10373000279C8D0F901DE11CFD1C369CE001349CE4
:10374000700D811D9C1FDD1D269C800D911DDD1DB2
:10375000479CED0EF01CA11CBD1C469CE001359C55
:10376000800D911DEC1EDD1D459C900DE11CDD1DA5
:10377000569CF00CA11CBD1C679CFD0EAD1CB01C22
:103780001D1CC12C550F661F771F881F991FEE1C2B
:10379000FF1CAA1CBB1CCC1CDD1C50F9449CE00186
:1037A000339C4001229C400D511D681D791D8C1FCA
:1037B0009D1FDD1C779CE001669C4001559CD694C2
:1037C000E01CF11CA81CB91CCC1EDD1E6624E09F69
:1037D000D001E29FE001F39F2001139F4001EF9F82
:1037E000702CA10DB61DE19FB00DC11DD61DE39F2C
:1037F000D00D411C561CF29F1001F09FB00DC11D51
:10380000D21D361CF19FC00DD11D361C039F430CE9
:10381000501C811C961C129F1001019FD00D411C51
:10382000521C361C029F400C511C361C239F830CDB
:10383000901C2224211C3324770CAA1FBB1FCC1FF1
:10384000DD1F441C551C881C991C221C331CEE9F38
:10385000602C710C331CFF9F3794A01DB11D331CCD
:10386000119FF001009F3794C01DD11D4E1E5F1E99
:10387000331C339FF001229F3694801C911C2E1E16
:103880003F1EEDB7FEB706801580048113813F917E
:103890002F91F901061817080A0B1B0B2C0B3D0B77
:1038A000A795040E151E061F171F281F391F4E1D32
:1038B0005F1D6A1D7B1D8C1D9D1DAA1F4409550996
:1038C000680979098209930966087708A795E61CB3
:1038D000F71CA71CB71CC71CD71C3F902F909F90AC
:1038E0008F90DF91CF916C8468186C866D84690825
:1038F0006D866E8462086E866F8463086F86688842
:103900006E0A688A69886F0A698A6A8860086A8AA2
:103910006B8861086B8A6C88600A6C8A6D88610AA2
:103920006D8A6E88620A6E8A6F88630A6F8A688CF5
:10393000640A688E698C650A698E6A8C660A6A8E6A
:103940006B8C670A6B8E6C8C680A6C8E6D8C690A46
:103950006D8E6E8C6E086E8E6F8C6F086F8E68A089
:103960006A0868A269A06B0869A26AA06C086AA2CA
:103970006BA06D086BA2AF91A040BB0BCCA0CA0E90
:10398000CCA2CDA0CB1ECDA2CEA0CB1ECEA2CFA0CE
:10399000CB1ECFA2C8A4CB1EC8A6C9A4CB1EC9A645
:1039A000CAA4CB1ECAA6CBA4CB1ECBA6CCA4CB1E2E
:1039B000CCA6CDA4CB1ECDA6CEA4CB1ECEA6CFA486
:1039C000CB1ECFA6089560E071E08CE092E00C94ED
:1039D000112690910E0280910F02892B11F40C9404
:1039E000973286EA089560E071E08CE092E00C94F2
:1039F000ED2860910E0270910F02762767277627D7
:103A000080910E02813820F480E192E00C941A3209
:103A100086EA089560E071E08CE092E00C943D2825
:103A200080910E0290910F02982789279827209164
:103A30000E02213820F460E071E00C94C03186EA77
:103A4000089540910F024C3029F410920401109215
:103A5000030104C0442311F086EA08958091100206
:103A600090910E0281110FC0911106C0411150C0FA
:103A700080E091E00C949C30933009F049C080E0E4
:103A800091E00C948930292F2E7F283089F48230E0
:103A900008F440C080FD3EC060E071E090FF04C0CB
:103AA00080E192E00C94B03080E192E00C94B6306A
:103AB000943049F48150803168F560E071E080E134
:103AC00092E00C948F30823029F5209111023091D0
:103AD000120232272327322791110BC0411104C053
:103AE00021158FE3380721F260E071E0C9010C94E1
:103AF000A230913029F460E071E0C9010C94953056
:103B0000923009F0A9CF60E071E0C9010C94A930AE
:103B100080E7089587EA089560E071E08CE092E024
:103B200095C760E071E08CE092E00C94A6278CE0F1
:103B300092E00C94CA2990910F0280910E0281119B
:103B400004C09F3060F4892F06C0803A11F0803B9A
:103B500031F4911104C00E94AE2D80E0089586EAF0
:103B600008958CE092E0AEC620910E0230910F02D3
:103B7000922F832F27FF0C94633286EA0895809159
:103B80000E0281110FC080910F0281110BC0809134
:103B90000A01813049F42091060130910701232B5D
:103BA00019F0089586EA089585E9089580910E0236
:103BB000811106C080910F02811102C00C941A314C
:103BC00086EA089580910E02811108C080910F024B
:103BD000811104C080E192E00C945E3386EA08957E
:103BE000CF93DF9380910E02811119C080910F0253
:103BF000811115C0C0910301D0910401CC2389F03B
:103C00006C2F8BE091E00E945347DD27D093070192
:103C1000C093060181E080930A0180E103C086EA37
:103C200001C080EFDF91CF91089580910E02811144
:103C300004C08FE092E00C94D62E86EA089580911D
:103C40000E02811104C08FE092E00C94D42E86EA1B
:103C5000089580910E02811104C08FE092E00C94CF
:103C6000D82E86EA0895FC0183819481009749F05B
:103C700021E02287778366838617970720F480ECFC
:103C8000089580E0089580E10895AF92BF92CF92A9
:103C9000DF92EF92FF920F931F93CF93DF936AE02F
:103CA00071E08CE092E00E9436018530910529F0A8
:103CB000843020E8920708F40CC2392F331F3327D1
:103CC000331F30930001B0900C02A0900D0240EC25
:103CD000A41631F020910A01213011F410920A014A
:103CE000E0EABE1205C0F4EEAF1247C1B12C08C025
:103CF00020E1B21629F040E8B41629F0B1103DC118
:103D000008E910E002C00CE810E0F80124912F3F10
:103D100009F435C131964491A41619F00C5F1F4F78
:103D2000F4CF6C01E894D7F8F4E0CF16D10429F46D
:103D300010921002C0E0D0E082C0C0911002CC23EB
:103D4000C1F1D0E0311117C024FD79C061E070E00D
:103D50008DE092E00E9410017E01B70181E192E0C6
:103D60000E943601E816F90609F00BC1F8018491AA
:103D700085FD5EC00BC0F5E0CF16D10409F45FC02D
:103D8000CE010596C816D90621F47E01C0E0D0E028
:103D90005BC0CE010696C816D90609F05CC07E014C
:103DA000F601E55FFD4FC081D0E0209709F440C0E7
:103DB0004BC025E0C216D104F1F147E0C416D1048E
:103DC00008F449C0C0911102D0911202FC2EED2ED0
:103DD000E114F10429F487E0C816D104E1F532C0FA
:103DE00097E0C916D10451F1A6014750510963E18A
:103DF00072E081E192E00E94EA7AC7010996C81652
:103E0000D90681F4F601E65FFD4F208130E0322FC4
:103E10002227F601E55FFD4F8081E901C82B20973D
:103E200089F012C0C7010796C816D906A1F4AECF13
:103E3000C0E0D1E009C0C0E0D1E001C0E701E12C61
:103E4000F12C02C0CFEFDFEFB4FE35C0E114F10476
:103E500021F410920501C0E795C080910501811100
:103E600007C01092090110920801A092050106C036
:103E7000A81621F010920501C3E884C080910801C2
:103E8000909109019701280F391F2230314008F71E
:103E9000A70161E172E0855F9E4F0E94E17AC091C7
:103EA0000801D0910901CE0DDF1DD0930901C09307
:103EB0000801C0E067C080910501882341F110929C
:103EC0000501E114F10439F2809108019091090192
:103ED0009701280F391F2230314008F0BCCFA701CD
:103EE00061E172E0855F9E4F0E94E17A8091080156
:103EF00090910901E80EF91EF0920901E092080183
:103F0000A7016BE071E081E192E00E94E17AF801A3
:103F1000849187FF03C02097B1F00EC0FFEFEF162A
:103F2000F10411F008F097CFE0921002C13021E0C7
:103F3000D20788F3C0E0D1E083FF07C09091000171
:103F4000913019F488CF81FD86CFE114F10419F086
:103F500082FD81CF02C080FD7ECFF0920201E0920F
:103F60000101D0930401C0930301F801329605903A
:103F7000F491E02D0995C82F05C0C0EE03C0C0ED37
:103F800001C0C4E900910601109107010E941F02BF
:103F90008C2F82958F70806680930E0210920F0294
:103FA000F090000141E0F41202C0C03139F1C03B91
:103FB00009F47FC048F4C13009F1A0F0C031B1F07C
:103FC000C03709F06CC075C0C03D09F472C018F468
:103FD000C03C61F064C0C03E09F46BC0C03F09F052
:103FE0005EC067C080E980930E0263C00F3F110579
:103FF00011F008F05EC000930F025BC060910301F6
:10400000709104010617170708F4B801EB0161303D
:10401000714010F0C0E0D1E0AE016BE071E08EE0E5
:1040200092E00E94E17A6801CC1ADD0AD092070181
:10403000C09206018E0100501F4FC114D10449F4F3
:1040400010920A01F801E25FFE4F80E98083319609
:1040500019C0A601BE01655F7E4F8BE091E00E9412
:10406000E17AF801E25FFE4F81E68083CE018D5F49
:104070009E4F96012227FC01E45FFE4F232B11F493
:10408000C08201C0108291E0BE01F91203C06E5FD0
:104090007F4F11C06D5F7F4F8DE092E00EC08C2F7F
:1040A000807FCF70803311F4C06C01C0C068C093B2
:1040B0000F0262E070E08EE092E0DF91CF911F91FD
:1040C0000F91FF90EF90DF90CF90BF90AF900C9446
:1040D0001001DF91CF911F910F91FF90EF90DF9032
:1040E000CF90BF90AF900895E0E0F1E01286158286
:1040F0000895DC01A60FB71FFC01769567956E0F3A
:104100007F1FE617F70729F080819E9191938C938A
:10411000F8CF0895FB01E40FF51F480F591F8417CE
:10412000950729F02291DC012D93CD01F8CF089558
:104130009C01633231F0623249F4803C910541F0D8
:104140002F7781E02115314021F402C081E00895EC
:1041500080E00895CF92DF92EF92FF920F931F932A
:10416000CF938C017B01C42FC42ED12CB601C70183
:10417000C0DF82E0F8018083C183F701808187FD81
:1041800003C0C801019606C0C8010296CF5FF801BE
:10419000C1831282A601B70101960E94E17A82E0F2
:1041A0008C0FCF911F910F91FF90EF90DF90CF90E8
:1041B00008950F931F93CF93DF93EC010E94753006
:1041C0008C0160E070E0CE010E94A930803161F482
:1041D0000E947530D82FC92F60E070E0C8010E949E
:1041E00082308D2F9C2F02C08FEF9FEFDF91CF91F8
:1041F0001F910F9108950F931F93CF938C01FC0192
:10420000638763E080E090E00E94D4308823D9F097
:10421000813820F4F8013C96C2E005C091E8F8012D
:1042200094873D96C3E0819363E0CF010E94D43030
:10423000882349F06C2F70E0680F711DC801CF9181
:104240001F910F9110CD85E9CF911F910F91089586
:10425000CF92DF92EF92FF920F931F93CF93DF9352
:104260008C016B0182EFF80111928A95E9F74111F7
:1042700015C062E080E090E00E94D430EC01C1976C
:1042800010F080E05FC062E0C8018E539F4F0E9433
:10429000D4307C01C817D907A1F702C0E42EF12C55
:1042A0000E94C930833271F0F8E1EF16F10461F039
:1042B00080E2E816F10451F0E0E3EE16F10409F7AC
:1042C000C0E605C0C0EB03C0C0E501C0C8E5F80109
:1042D000E054FF4FC083CF73C114D10481F080E953
:1042E000F60111928A95E9F765E06C0FC6010E940C
:1042F000B47A66E06C0FC601C0960E94B47A61E0A1
:104300006C0FC8010E94B47A62E06C0FC801C096BD
:104310000E94B47A63E06C0FC801805A9F4F0E94DC
:10432000B47A64E06C0FC80180579F4F0E94B47A42
:10433000B701C8018E539F4FDCDE8E2DF801EF537D
:10434000FF4FE082DF91CF911F910F91FF90EF908F
:10435000DF90CF900895AF92BF92CF92DF92EF920D
:10436000FF920F931F93CF93DF93CDB7DEB7C25861
:10437000D1400FB6F894DEBF0FBECDBF182F5B0142
:1043800040E0BE016D507F4FCE01019661DF082FE6
:10439000882309F443C0C5010B967C01C02ED12CA3
:1043A0001338C1F048F4113881F0123879F5A601BC
:1043B000BE016F597F4F27C0143889F0153831F589
:1043C000A601BE016F5C7F4F1EC0A601BE016F5FDC
:1043D0007F4F19C0A601BE016F567F4F14C063EF17
:1043E00070E06C0F7D1F605D7F4FA6010E94E17A37
:1043F000A601BE016D507F4FC7018C0D9D1D0E940F
:10440000E17A000F03C0C7010E94E17A10E0B80111
:10441000C7016FDEB801C50126DC01C088EACE57AE
:10442000DE4F0FB6F894DEBF0FBECDBFDF91CF9148
:104430001F910F91FF90EF90DF90CF90BF90AF90C2
:104440000895BF92CF92DF92EF92FF920F931F9346
:10445000CF93DF93EC017B016A01B22EBC01C7014F
:1044600048DEC038D10558F440E051E04C1B5D0BEC
:1044700060E070E0C7018C0F9D1F0E94FB7A63E82B
:1044800080E090E00E94D4308C01000F111FB11029
:1044900006C0C017D10709F04AC0E80131C021E0C9
:1044A000B2124DC0649709F042C0E701649664E01F
:1044B000CE010E94B47A8823D1F16FE070E0CE0182
:1044C00018DEC3E2D0E0CE010B960817190778F189
:1044D000F701EC0FFD1F10822196F701EC0FFD1F75
:1044E0008FEFC017D10718F421968193FACFC70137
:1044F000800F911FFC0131971082319721E02083BA
:10450000AE0156954795B601C7010E947D438823A9
:1045100089F080E091E0F7019C0111922150304038
:10452000E1F7F6019C01119221503040E1F780E063
:1045300090E009C0B801C601DCDDC80104C032E06A
:10454000B312F5CFC0CFDF91CF911F910F91FF90A4
:10455000EF90DF90CF90BF900895AF92BF92CF922F
:10456000DF92EF92FF920F931F93CF93DF935C0143
:104570006B017A01022FEA012B9660EACE010E94BC
:10458000D430182F0E94C930893171F5173021F4C9
:10459000CE010E9487020FC0103149F488E0F70174
:1045A0007B96DE0101900D928A95E1F706C01831E5
:1045B00021F01830D1F540E001C04CE088E0A816A9
:1045C000B10411F080E732C001114360BE01C601A1
:1045D0000E94C80288E0F601DE0101900D928A95E2
:1045E000E1F768E070E015C08932F9F480E1A816BF
:1045F000B10441F7202F412FBE01C6010E94C5041E
:1046000080E1F601DE0101900D928A95E1F760E10B
:1046100070E0C701DF91CF911F910F91FF90EF9054
:10462000DF90CF90BF90AF901ECB81E9DF91CF910B
:104630001F910F91FF90EF90DF90CF90BF90AF90C0
:104640000895FF920F931F93CF93DF93CDB7DEB7FB
:10465000C258D1090FB6F894DEBF0FBECDBF8C0192
:10466000F62E0E943F31811128C028E0F29EC00141
:1046700011240E949B45F82EF80180818062898375
:104680008F2D86958A830E5F1F4FB801CE0103964A
:104690000E944678CE0101960E943F3181110DC0E3
:1046A000898180638983FA82B801CE0103960E94D2
:1046B0002A3FCE0101960E943F31CE57DF4F0FB601
:1046C000F894DEBF0FBECDBFDF91CF911F910F9148
:1046D000FF9008955F926F927F928F929F92AF9218
:1046E000BF92CF92DF92EF92FF920F931F93CF93DF
:1046F000DF93CDB7DEB7D2500FB6F894DEBF0FBE52
:10470000CDBFFC0184818823C9F0873049F58581BC
:10471000803331F58781813811F0823009F5868147
:104720008530F1F480858330D9F481858130C1F4FE
:104730008285811115C08385813091F44B018F01F1
:104740000E94BC307C01811523E0920769F09170D2
:10475000892B41F4C70192508130964028F002C065
:1047600084E979C081E977C00E9415023401FBE039
:104770006F0E711C580124E0A20EB11C9701AE010E
:104780004F5F5F4FB301C5010E94F244582EE82EDF
:10479000F12CE114F10409F45DC083ECF80182838B
:1047A00053826801F2E0CF0ED11C652DC60149DFAE
:1047B000811151C024ECC8018E579F4FFC0120830A
:1047C00031965082652D3DDF811145C0A701BE01A4
:1047D0006F5F7F4FC5010E94E17A85ECF80182830B
:1047E000C6010E943F31811136C0A701BE016F573B
:1047F0007F4FC5010E94E17A86ECF8018283C601F1
:104800000E943F31811127C0A701BE016F5F7E4F1B
:10481000C5010E94E17A87ECF8018283C6010E94FB
:104820003F31811118C081E8F801828383E08383DE
:1048300081E0848315828683C6010E943F31811105
:104840000AC0EE0CFF1CB701C30153DCB701C40161
:104850000ADA01C082EADE5F0FB6F894DEBF0FBE4F
:10486000CDBFDF91CF911F910F91FF90EF90DF901F
:10487000CF90BF90AF909F908F907F906F905F9000
:104880000895FF920F931F93CF93DF938C01F62E21
:1048900080E8F80111928A95E9F780E090E00E94A3
:1048A000D430EC018138910530F46F2DC8010E949D
:1048B000D4308C2F01C080E0DF91CF911F910F91F8
:1048C000FF900895DF92EF92FF920F931F93CF9383
:1048D000DF93EC0110921603892B09F477C08A81CB
:1048E000833F39F48C81811173C08B81811170C039
:1048F000A5C0813831F48B81883B09F06BC014E08E
:104900000EC0813409F070C01B81163B21F0183BAA
:1049100011F0143A19F41695137001C010E08C814F
:1049200025962FEF280F882309F44AC098813FEF7E
:10493000390F3E3F18F02196822FF3CF3EEFD32E52
:10494000D80E2223E9F17E0122E0E20EF11C09815A
:10495000013108F041C0D01608F43EC08A8102300F
:10496000D9F42A813B81322723273227953808F052
:1049700048C0933808F050C09038B1F19138C1F573
:10498000C90117DC90932A0380932903019611F43F
:1049900088EA54C010610EC0953898F5933808F035
:1049A0004AC0903819F50130F9F48430B9F4809395
:1049B0002B0310622D2D201BE701C00FD11DBCCF92
:1049C000812F8073803381F41093160380E036C00A
:1049D00087EA34C085E932C084E930C0853050F4BC
:1049E000882329F3823019F381EA28C09138E1F352
:1049F00080EA24C08231D9F28A38C9F28A30A1F71C
:104A0000D6CF9738A9F7402F50E0B70187E193E060
:104A10000E94E17A1064CECFC901CBDB90932803CA
:104A200080932703019609F4B3CF10688A81882305
:104A300009F4C0CFD9CF0130C9F3D6CFDF91CF91E0
:104A40001F910F91FF90EF90DF9008956F927F92EA
:104A50008F929F92AF92BF92CF92DF92EF92FF928E
:104A60000F931F93CF93DF93FC0182818111C5C007
:104A700083818111C2C0809116038770823009F052
:104A8000BEC04481411102C084E9BCC04F3608F069
:104A9000B8C04330C8F3EB018F015B012BE0A20EDD
:104AA000B11C50E0BF016B5F7F4FC5010E94E17AEE
:104AB0008B858C3749F7D80114968C914E01BDE057
:104AC0008B0E911CDC84D7FE09C08150E1E8DE1218
:104AD000DBCF4E01FEE08F0E911CDD842D2D30E0EA
:104AE00090E002972817390779F6F1E0FD1568F58F
:104AF000D4012C91F401329611968C91119787FF75
:104B000007C0DA94813809F0BFCF319612968C91A4
:104B10009EEF9D0D981708F4B7CF253869F44F0123
:104B2000BFEF8B1A9B0A2081243009F0ADCF891387
:104B3000ABCFEDEFDE0E09C0203809F0A5CF4F0155
:104B4000880E911CD92ED81AD0CF40E060E070E0DA
:104B5000C8017EDB882309F452C0E82EF12C9701AE
:104B6000220F331F8D2D90E02817390709F08CCFC5
:104B70006E0129E7C20ED11C380181EC680E711C50
:104B8000D3014C9150E0B401C601C4DAF301408175
:104B900050E0B4016E0D7F1DC601C096BBDA0E94C5
:104BA00075304C0160E070E08091290390912A03F8
:104BB0000E9482300E941502B801C6010E94A53CE5
:104BC000182F60E070E0C4010E948230111117C0FC
:104BD000A701B601C5019EDAB701CE01DF91CF91E1
:104BE0001F910F91FF90EF90DF90CF90BF90AF900B
:104BF0009F908F907F906F9036C886EA03C085E9BA
:104C000001C080E7DF91CF911F910F91FF90EF904E
:104C1000DF90CF90BF90AF909F908F907F906F90DC
:104C200008956F927F928F929F92AF92BF92CF9290
:104C3000DF92EF92FF920F931F93CF93DF93FC01CC
:104C4000EB01D28083819EE9D91203C08A3921F415
:104C50000BC094E8D91659F0982F9D7F943809F02D
:104C60005DC17D2CD12C04C090E8792E01C0782E36
:104C7000172D1F7709F052C1A980BA80BF0186386D
:104C800021F06B5F7F4F00E008C06A5F7F4F0581B6
:104C9000E1E0AE1AB108023821F01986188682E0E8
:104CA0008A877E01FBE0EF0EF11C88859985A501BE
:104CB0008E0D9F1D0E94E17A88859985A80EB91EE8
:104CC000B986A886013809F431C1023811F0011102
:104CD00027C10E9475305C0160E070E0809129037B
:104CE00090912A030E948230088519854E018FEE2B
:104CF000881A8EEF980AA801B701C4010E94E17AD0
:104D000094E8D91609F477C0EEE9DE1619F0D1104F
:104D100009C17FC0809116038773833309F0C2C035
:104D200080912B03843009F049C00E9415026E0166
:104D3000FFEBCF1AFEEFDF0A40E0B601C70188DAC9
:104D400090E0009709F4AEC08017910708F4ECC01A
:104D5000B801C401CED90033110558F440E350E046
:104D6000401B510B60E070E0C401800F911F0E9456
:104D7000FB7AA701B601C4010E94593D811192C07E
:104D800080E38B874E018CEC880E911CF4014081EE
:104D9000B6018E01035F1F4FC801DCD9682EB60132
:104DA000605D7F4FF4014081C801860D911DD2D90D
:104DB000860D8C878E5F682F70E077C0982F977F65
:104DC000923031F0823139F0882341F011EAA0C0ED
:104DD00082E0D82E04C0DD24D39401C0D12C0E94DF
:104DE00015022D2DA701B401C8012BDB009709F492
:104DF00059C0BC015AC0809116038773843309F0EF
:104E000051C0FE01E45FFE4F80818038F9F620E05A
:104E100014C0809116038473843309F443C060EA9C
:104E200080E090E00E94D430892B61F0FE01E45FC5
:104E3000FE4F8081803851F621E0AE01B401C801F7
:104E40008CDB36C00E94150220E0A701B401C80126
:104E5000F8DA8C01892B31F180912B03823021F516
:104E60008B8581111FC08C858230E1F40C301105D7
:104E7000C8F003501109CE010D96FC010196208166
:104E800021110DC0CE014596E817F90758F0BF0172
:104E90006F5F7F4FA801C7010E94E17A05C00150F2
:104EA000110959F715E934C0B801CE010E94331E2B
:104EB000182F803169F571102BC08091160387FF80
:104EC000F1CF60E070E080912703909128030E9469
:104ED00082300E94C930813421F0893111F0893249
:104EE00009F70E811F810E3F1105E0F6A801B701F9
:104EF000CE01805F9E4F0E94E17ACE01815F9E4F7E
:104F0000FC01008360E070E00E941A321A8610E013
:104F100060E070E0C5010E94823008C016EA06C059
:104F200014E904C014E9F4CF10E7F2CF812FDF9128
:104F3000CF911F910F91FF90EF90DF90CF90BF9096
:104F4000AF909F908F907F906F900895CF92DF9257
:104F5000EF92FF920F931F93CF93DF93EC018A811F
:104F6000811181C08B8181117EC08B010E94C9306B
:104F7000D82E81E1D8120BC0B801CE01DF91CF91BC
:104F80001F910F91FF90EF90DF90CF90A3CB8C817A
:104F9000882311F085E968C00E94BC307C016D2D2A
:104FA000C7D88111F7CF0E9415026801EBE0CE0E41
:104FB000D11CA701495F5F4F83E0569547958A95BD
:104FC000E1F7B601CE0144D9882321F3BE01C60121
:104FD0000E941B3D8111DECF7E01F1ECEF0EF11C32
:104FE000F701608170E0CE018E539F4F82D8F701A8
:104FF000408150E0B6016801FEE9CF0ED11CC60128
:1050000089D8F701808190E0AC01B801655C7F4FE1
:105010008C0D9D1D7FD8CE0180549F4F22E4FC0152
:105020002083F701C0810E943F3181111DC0CC0F48
:1050300023E4C80185569F4FFC0120833196CF5F42
:10504000C08324E0319620830E943F3181110CC03F
:1050500066E8C801DF91CF911F910F91FF90EF900B
:10506000DF90CF90C8C886EADF91CF911F910F9152
:10507000FF90EF90DF90CF900895EF92FF920F9303
:105080001F93CF93DF93FC012281213009F09DC053
:105090008381982F907B903B41F48F70DF91CF916B
:1050A0001F910F91FF90EF90CAC59FE7980F953021
:1050B00038F4DF91CF911F910F91FF90EF904BC982
:1050C000EB01803A61F1A0F4813009F462C008F488
:1050D0003EC0823009F471C0863809F076C060E3C2
:1050E000CE01DF91CF911F910F91FF90EF9083C878
:1050F0008A3AE9F058F4873A08F067C0DF91CF9117
:105100001F910F91FF90EF900C9400358C3A09F0AD
:105110005CC047D59B878C8762E070E00FC061E080
:10512000CE010B960E94B47A64E170E007C062E0A1
:10513000CE010B960E94B47A6BE070E0CE01DF9155
:10514000CF911F910F91FF90EF900C94331E82E945
:105150008B871C8661E880E090E00E94D430009745
:10516000A1F133E0880F991F3A95E1F79D878E876B
:1051700063E880E090E00E94D430009731F124E0B1
:10518000880F991F2A95E1F79F87888B66E070E06A
:10519000D5CF7B01FBE0EF0EF11CC7010E94384325
:1051A000082F10E00115110581F0000F111FB80143
:1051B000C7010E947920B801C1CF61E8CE010B96EA
:1051C000F3D7009711F0BC01B9CF88EADF91CF91F6
:1051D0001F910F91FF90EF900895FF920F931F93EF
:1051E000CF93DF93EC018A81813011F086EACCC045
:1051F0008B81803E51F40E941502CE010496DF910E
:10520000CF911F910F91FF90EFC69FEF980F9E30A7
:1052100070F48C818051803210F080E7B5C0CE01EF
:105220000396DF91CF911F910F91FF9041C6FB0133
:1052300021813281232B89F390E8980F9C3018F05C
:10524000803A09F071C098D78C01892B09F46EC09F
:10525000A0D7F82EF9E18F130CC008331105C9F15E
:10526000C8018F7780349105A1F100381105A9F6A6
:1052700030C029E2821309C0C8018F7B80389105B4
:1052800041F10115114049F624C0682FC8010E9460
:105290009820811121C0095F1F4F83E01695079563
:1052A0008A95E1F7802F9B81973819F492E09B83D0
:1052B0000BC0963809F09ACF000F81E0800F93E081
:1052C0009B839D81943041F59C819813A6CF0E94C9
:1052D0001502CE01039622C0E1E1FE1229C001159C
:1052E000F3E01F0749F0C8019170892B09F5C80147
:1052F000925081309640E0F4FC80F0FE03C08B8138
:105300008138C1F48B818838E8F48338F0F481382F
:1053100021F1C8F58038B9F185E936C0DF91CF9128
:105320001F910F91FF90ABC781EA2EC082EA2CC07B
:1053300081E92AC09D819111EFCFFA94FD828C837F
:105340002196E0CF8C3840F71EC0E0E1FE9EC00100
:1053500011240817190709F060CF0E9415026F2D5C
:1053600070E0CE0105960E9479209B812DE7290FE0
:10537000CE010396223090F66F2DDF91CF911F91D1
:105380000F91FF905EC980E0DF91CF911F910F9147
:10539000FF90089571D480E0089581508E3028F4F4
:1053A00021E3829FC001112408958FEF9FEF08959C
:1053B000FB01AC01485F5F4FDC013D91CD012191C4
:1053C000321749F0311103C02F3F51F404C03F3F61
:1053D00039F4211105C08417950771F780E008950D
:1053E00081E00895CF93DF931F92CDB7DEB741E000
:1053F0006EEA72E0CE0101960E94570299818EEF0B
:1054000089270F90DF91CF910895CF93DF931F925B
:10541000CDB7DEB79EEF89278983E4DF99818917AD
:1054200039F041E06EEA72E0CE0101960E94590225
:105430000F90DF91CF910895CF92DF92EF92FF927C
:105440001F93CF93DF93CDB7DEB7E1970FB6F894F4
:10545000DEBF0FBECDBF7B01142F9FDF6C0197FF16
:1054600002C08FE052C041E3BC01CE0101960E9410
:1054700057028111F6CF1123C9F08AA51FEF180F2B
:105480001E3F08F03FC0E114F10409F43EC0BE0124
:10549000675F7F4FC7018CDF882329F01AA711119E
:1054A00021C010E81FC08CA58AA71BC089A51FEFCB
:1054B000180F1E3F38F5E114F10441F49DA590FD4D
:1054C00002C090E001C090E1892B1FC0BE016F5F58
:1054D0007F4FC7016DDF882311F019A7E0CF8BA59F
:1054E00089A710E041E3B601CE0101960E9459025E
:1054F00011110AC08DA585FD10E483FF05C0812F21
:10550000806203C080E801C0812FE1960FB6F89455
:10551000DEBF0FBECDBFDF91CF911F91FF90EF9007
:10552000DF90CF9008952F923F924F925F926F92AB
:105530007F928F929F92AF92BF92CF92DF92EF9223
:10554000FF920F931F93CF93DF93CDB7DEB7E6970C
:105550000FB6F894DEBF0FBECDBF5C01562E7EABFA
:105560006A012BAB283071F4FA014080018110E010
:10557000102F00278281082BF3E0CF0ED11C4A9414
:105580004A9413C02BA92B3069F4FA014080F0E152
:10559000F41510F422E028C13FEFC31AD30A062FF6
:1055A0001EA903C0062F1EA9412CF5016480758039
:1055B000868097801AA219A2E12CF12C1DAA212C19
:1055C000312C69A17AA14FE0CE0142960E947B0264
:1055D0008CAB8111DFCF48A147FD07C0E114F10476
:1055E00009F0E5C0E9A0FAA0E2C08A899B898F3F53
:1055F000FFEF9F0741F52BA92E3019F41B8A1A8A59
:10560000E9C03BA93A3051F4C1010196F5019583F7
:10561000848389A19AA1908B878712C02BA92530FA
:1056200039F43DA9332361F081E1FE013196D5C003
:105630004BA9433009F0D7C0512CF501518240826B
:10564000F1E0FCABD2C02E893F892216330608F464
:1056500019015BA9593029F48216930609F0A5C0F7
:10566000B9C0EBA9EF3029F40217130709F09DC068
:10567000B1C0FBA9F330F1F4288D398D62167306A1
:1056800009F093C081152FE3920709F48EC02A8D8B
:105690003EA92327252109F088C04EE7441508F4C8
:1056A00084C0F60190838183439496012E5F3F4F1F
:1056B00069017BC04F71D1F04BA94B30B9F469A19E
:1056C0007AA1615F7F4F442DCE0183960E947B02B9
:1056D00081116BC0442D50E0BE016D5D7F4FC6014E
:1056E0000E94D47A892B09F060C074C0488D598D0E
:1056F00064167506A1F54A8D4F7B483339F45BA9D2
:105700005C3009F467C0563061F406C0EBA9ED3097
:1057100009F460C0E73029F40817190709F045C0FB
:1057200059C00817190709F040C0FBA9F53009F462
:1057300051C0FA3009F44EC0F830B9F5442009F4EC
:1057400049C0F601008110E0102F00278181082B4D
:10575000F2E0CF0ED11C4A944A94390126C00817B2
:10576000190719F58BA9853001F58416950671F492
:1057700081E1FE017296DE01119601900D928A95EB
:10578000E1F7E12CF12C91E09DAB11C0821693065C
:1057900061F4EDA9E11109C081E1FE017296DE011B
:1057A000119601900D928A95E1F7E12CF12C89A1D7
:1057B0009AA10F9628A1322F3F71830F911D9AA3B2
:1057C00089A326FDFECE2C893D89820F931F9AA3C3
:1057D00089A3F7CE81E1FE017296D50101900D9269
:1057E0008A95E1F702C021E02CAB8CA9E6960FB6B2
:1057F000F894DEBF0FBECDBFDF91CF911F910F9107
:10580000FF90EF90DF90CF90BF90AF909F908F90E0
:105810007F906F905F904F903F902F900895AF9240
:10582000BF92CF92DF92FF920F931F93CF93DF939C
:10583000CDB7DEB761970FB6F894DEBF0FBECDBF10
:105840008C016B015A01F22E81E1EEE2F3E0DE0100
:10585000119601900D928A95E1F789858F7B8833A7
:1058600029F4F7FE0FC01E821D820CC029E040E023
:1058700050E060E070E0CE01019655DE882389F3A8
:1058800082EA7CC02F2D2F77A501B601CE010196AB
:105890004ADE8111F5CF81E1FE013196AEE2B3E03F
:1058A00001900D928A95E1F70115110509F465C083
:1058B0008FE6F801838787E1848780913C0385FD2B
:1058C00002C080E801C081E8F801858782E0868710
:1058D00090913003209131032787908B92E8918B30
:1058E00091E0928B20913603238B23E8248B858BC8
:1058F00020912E0330912F03368B278B26E8208FA3
:1059000023E0218F20913703228F20913803238FAA
:1059100020913903248F25E8258F868F80913A03C3
:1059200020913B03278F80A38AE881A392A35ADDAD
:10593000F80183A340913C034F7149F4F801648559
:1059400070E06E5F7F4FC8010E94331E17C0F801E0
:1059500084858E5F840F848784E884A345A3609147
:105960003D0370913E03615F7F4FC80186960E94A0
:105970007B02813019F781E501C080E161960FB6A5
:10598000F894DEBF0FBECDBFDF91CF911F910F9175
:10599000FF90DF90CF90BF90AF9008950F931F932B
:1059A000CF93DF93CDB7DEB7AB970FB6F894DEBFDA
:1059B0000FBECDBF8C0165E0CE0101960E94B47A86
:1059C0008FE0FE013196AEE2B3E001900D928A9530
:1059D000E1F701151105B9F0F8018081853098F0E3
:1059E00093E03396DE011A9601900D929A95E1F7B5
:1059F000883058F0F801369683E0DE015996019020
:105A00000D928A95E1F74AE201C041E160E070E061
:105A1000CE0101960E94C8FF8111FFCF8FEF8BA7A7
:105A200000E010E041E0B801CE018B960E945902DF
:105A30008111FFCF0F5F1F4F0115F4E01F0791F792
:105A400081E0E3DCAB960FB6F894DEBF0FBECDBFAE
:105A5000DF91CF911F910F9108950F931F93CF93D3
:105A6000DF938C01EB010E941502209791F0CF3F4C
:105A7000D10509F010F46C2F01C060E0C8010E944C
:105A8000D8FF181619063CF4C81BD90B080F191FAC
:105A9000ECCF80E001C081E5DF91CF911F910F91A4
:105AA0000895DF92EF92FF920F931F93CF93DF93AE
:105AB00000D0CDB7DEB77C016F3F09F444C08091C0
:105AC0002E0390912F030196F1F1909136039F7B65
:105AD0009833C9F1D62E0091300310913103809193
